{
  "contractName": "AchievementManager",
  "abi": [
    {
      "constant": true,
      "inputs": [],
      "name": "REG",
      "outputs": [
        {
          "name": "",
          "type": "address"
        }
      ],
      "payable": false,
      "stateMutability": "view",
      "type": "function"
    },
    {
      "constant": true,
      "inputs": [
        {
          "name": "_addr",
          "type": "address"
        }
      ],
      "name": "isPermitted",
      "outputs": [
        {
          "name": "found",
          "type": "bool"
        }
      ],
      "payable": false,
      "stateMutability": "view",
      "type": "function"
    },
    {
      "constant": true,
      "inputs": [],
      "name": "minimumDeposit",
      "outputs": [
        {
          "name": "",
          "type": "uint256"
        }
      ],
      "payable": false,
      "stateMutability": "view",
      "type": "function"
    },
    {
      "constant": true,
      "inputs": [],
      "name": "THIS_NAME",
      "outputs": [
        {
          "name": "",
          "type": "bytes32"
        }
      ],
      "payable": false,
      "stateMutability": "view",
      "type": "function"
    },
    {
      "constant": true,
      "inputs": [
        {
          "name": "",
          "type": "bytes32"
        }
      ],
      "name": "achievements",
      "outputs": [
        {
          "name": "id",
          "type": "bytes32"
        },
        {
          "name": "title",
          "type": "bytes32"
        },
        {
          "name": "creator",
          "type": "address"
        },
        {
          "name": "explanation",
          "type": "bytes32"
        },
        {
          "name": "reward",
          "type": "uint256"
        },
        {
          "name": "uri",
          "type": "string"
        },
        {
          "name": "createdAt",
          "type": "uint256"
        }
      ],
      "payable": false,
      "stateMutability": "view",
      "type": "function"
    },
    {
      "constant": true,
      "inputs": [
        {
          "name": "",
          "type": "uint256"
        }
      ],
      "name": "allAchievements",
      "outputs": [
        {
          "name": "",
          "type": "bytes32"
        }
      ],
      "payable": false,
      "stateMutability": "view",
      "type": "function"
    },
    {
      "constant": true,
      "inputs": [
        {
          "name": "",
          "type": "bytes32"
        }
      ],
      "name": "balance",
      "outputs": [
        {
          "name": "",
          "type": "uint256"
        }
      ],
      "payable": false,
      "stateMutability": "view",
      "type": "function"
    },
    {
      "constant": true,
      "inputs": [],
      "name": "owner",
      "outputs": [
        {
          "name": "",
          "type": "address"
        }
      ],
      "payable": false,
      "stateMutability": "view",
      "type": "function"
    },
    {
      "constant": false,
      "inputs": [
        {
          "name": "_addr",
          "type": "address"
        }
      ],
      "name": "setRegistry",
      "outputs": [],
      "payable": false,
      "stateMutability": "nonpayable",
      "type": "function"
    },
    {
      "constant": false,
      "inputs": [
        {
          "name": "newOwner",
          "type": "address"
        }
      ],
      "name": "transferOwnership",
      "outputs": [],
      "payable": false,
      "stateMutability": "nonpayable",
      "type": "function"
    },
    {
      "inputs": [],
      "payable": false,
      "stateMutability": "nonpayable",
      "type": "constructor"
    },
    {
      "anonymous": false,
      "inputs": [
        {
          "indexed": true,
          "name": "achievementId",
          "type": "bytes32"
        },
        {
          "indexed": false,
          "name": "topics",
          "type": "uint256[]"
        },
        {
          "indexed": false,
          "name": "issuers",
          "type": "address[]"
        },
        {
          "indexed": false,
          "name": "staked",
          "type": "uint256"
        },
        {
          "indexed": false,
          "name": "uri",
          "type": "string"
        },
        {
          "indexed": false,
          "name": "createdAt",
          "type": "uint256"
        }
      ],
      "name": "CreateAchievement",
      "type": "event"
    },
    {
      "anonymous": false,
      "inputs": [
        {
          "indexed": true,
          "name": "achievementId",
          "type": "bytes32"
        },
        {
          "indexed": false,
          "name": "reward",
          "type": "uint256"
        },
        {
          "indexed": false,
          "name": "charge",
          "type": "uint256"
        }
      ],
      "name": "UpdateAchievement",
      "type": "event"
    },
    {
      "anonymous": false,
      "inputs": [
        {
          "indexed": true,
          "name": "achievementId",
          "type": "bytes32"
        },
        {
          "indexed": false,
          "name": "refund",
          "type": "uint256"
        }
      ],
      "name": "DeleteAchievement",
      "type": "event"
    },
    {
      "anonymous": false,
      "inputs": [
        {
          "indexed": true,
          "name": "achievementId",
          "type": "bytes32"
        },
        {
          "indexed": true,
          "name": "receiver",
          "type": "address"
        },
        {
          "indexed": false,
          "name": "reward",
          "type": "uint256"
        }
      ],
      "name": "RequestAchievement",
      "type": "event"
    },
    {
      "anonymous": false,
      "inputs": [
        {
          "indexed": true,
          "name": "previousOwner",
          "type": "address"
        },
        {
          "indexed": true,
          "name": "newOwner",
          "type": "address"
        }
      ],
      "name": "OwnershipTransferred",
      "type": "event"
    },
    {
      "constant": true,
      "inputs": [
        {
          "name": "_addr",
          "type": "address"
        }
      ],
      "name": "isAAttestationAgency",
      "outputs": [
        {
          "name": "found",
          "type": "bool"
        }
      ],
      "payable": false,
      "stateMutability": "view",
      "type": "function"
    },
    {
      "constant": false,
      "inputs": [
        {
          "name": "_topics",
          "type": "uint256[]"
        },
        {
          "name": "_issuers",
          "type": "address[]"
        },
        {
          "name": "_title",
          "type": "bytes32"
        },
        {
          "name": "_achievementExplanation",
          "type": "bytes32"
        },
        {
          "name": "_reward",
          "type": "uint256"
        },
        {
          "name": "_uri",
          "type": "string"
        }
      ],
      "name": "createAchievement",
      "outputs": [
        {
          "name": "success",
          "type": "bool"
        }
      ],
      "payable": true,
      "stateMutability": "payable",
      "type": "function"
    },
    {
      "constant": false,
      "inputs": [
        {
          "name": "_achievementId",
          "type": "bytes32"
        },
        {
          "name": "_reward",
          "type": "uint256"
        }
      ],
      "name": "updateAchievement",
      "outputs": [
        {
          "name": "success",
          "type": "bool"
        }
      ],
      "payable": true,
      "stateMutability": "payable",
      "type": "function"
    },
    {
      "constant": false,
      "inputs": [
        {
          "name": "_achievementId",
          "type": "bytes32"
        }
      ],
      "name": "deleteAchievement",
      "outputs": [
        {
          "name": "success",
          "type": "bool"
        }
      ],
      "payable": false,
      "stateMutability": "nonpayable",
      "type": "function"
    },
    {
      "constant": false,
      "inputs": [
        {
          "name": "_achievementId",
          "type": "bytes32"
        }
      ],
      "name": "requestAchievement",
      "outputs": [
        {
          "name": "success",
          "type": "bool"
        }
      ],
      "payable": false,
      "stateMutability": "nonpayable",
      "type": "function"
    },
    {
      "constant": true,
      "inputs": [
        {
          "name": "_identity",
          "type": "address"
        },
        {
          "name": "_topic",
          "type": "uint256"
        }
      ],
      "name": "hasSelfClaim",
      "outputs": [
        {
          "name": "",
          "type": "bool"
        }
      ],
      "payable": false,
      "stateMutability": "view",
      "type": "function"
    },
    {
      "constant": true,
      "inputs": [],
      "name": "getAllAchievementList",
      "outputs": [
        {
          "name": "list",
          "type": "bytes32[]"
        }
      ],
      "payable": false,
      "stateMutability": "view",
      "type": "function"
    },
    {
      "constant": true,
      "inputs": [],
      "name": "getActiveAchievementList",
      "outputs": [
        {
          "name": "list",
          "type": "bytes32[]"
        }
      ],
      "payable": false,
      "stateMutability": "view",
      "type": "function"
    },
    {
      "constant": true,
      "inputs": [],
      "name": "getLengthOfAchievements",
      "outputs": [
        {
          "name": "length",
          "type": "uint256"
        }
      ],
      "payable": false,
      "stateMutability": "view",
      "type": "function"
    },
    {
      "constant": true,
      "inputs": [
        {
          "name": "_achievementId",
          "type": "bytes32"
        }
      ],
      "name": "getAchievementById",
      "outputs": [
        {
          "name": "id",
          "type": "bytes32"
        },
        {
          "name": "creator",
          "type": "address"
        },
        {
          "name": "issuers",
          "type": "address[]"
        },
        {
          "name": "claimTopics",
          "type": "uint256[]"
        },
        {
          "name": "title",
          "type": "bytes32"
        },
        {
          "name": "explanation",
          "type": "bytes32"
        },
        {
          "name": "reward",
          "type": "uint256"
        },
        {
          "name": "uri",
          "type": "string"
        },
        {
          "name": "createdAt",
          "type": "uint256"
        }
      ],
      "payable": false,
      "stateMutability": "view",
      "type": "function"
    },
    {
      "constant": true,
      "inputs": [
        {
          "name": "_index",
          "type": "uint256"
        }
      ],
      "name": "getAchievementByIndex",
      "outputs": [
        {
          "name": "id",
          "type": "bytes32"
        },
        {
          "name": "creator",
          "type": "address"
        },
        {
          "name": "issuers",
          "type": "address[]"
        },
        {
          "name": "claimTopics",
          "type": "uint256[]"
        },
        {
          "name": "title",
          "type": "bytes32"
        },
        {
          "name": "explanation",
          "type": "bytes32"
        },
        {
          "name": "reward",
          "type": "uint256"
        },
        {
          "name": "uri",
          "type": "string"
        },
        {
          "name": "createdAt",
          "type": "uint256"
        }
      ],
      "payable": false,
      "stateMutability": "view",
      "type": "function"
    },
    {
      "constant": true,
      "inputs": [
        {
          "name": "creator",
          "type": "address"
        },
        {
          "name": "topics",
          "type": "uint256[]"
        },
        {
          "name": "issuers",
          "type": "address[]"
        }
      ],
      "name": "getAchievementId",
      "outputs": [
        {
          "name": "id",
          "type": "bytes32"
        }
      ],
      "payable": false,
      "stateMutability": "pure",
      "type": "function"
    }
  ],
  "bytecode": "0x6080604052670de0b6b3a764000060035534801561001c57600080fd5b5060008054600160a060020a031916331790557f416368696576656d656e744d616e616765720000000000000000000000000000600255612978806100626000396000f30060806040526004361061010e5763ffffffff60e060020a60003504166305b636e381146101135780631649b8831461026c57806318b6e032146102a457806322a3ecb7146102b25780632f1b9f14146102b257806339363112146103175780633fd8cc4e14610348578063509257e814610369578063636bfbab1461039057806364319d0b146103a55780636b03af84146103ba57806374f0ce451461048757806377aea9671461049f578063857ab075146104c057806389eba4211461055c5780638da5cb5b1461057457806397d26ab0146105895780639cb4da08146105a1578063a64a3da3146105b9578063a91ee0dc146105d1578063bc4f5a40146105f4578063f2fde38b146106c5575b600080fd5b34801561011f57600080fd5b5061012b6004356106e6565b604080518a8152600160a060020a038a166020808301919091526080820188905260a0820187905260c0820186905261010082018490526101209282018381528a51938301939093528951919291606084019160e08501916101408601918d8101910280838360005b838110156101ac578181015183820152602001610194565b5050505090500184810383528a818151815260200191508051906020019060200280838360005b838110156101eb5781810151838201526020016101d3565b50505050905001848103825286818151815260200191508051906020019080838360005b8381101561022757818101518382015260200161020f565b50505050905090810190601f1680156102545780820380516001836020036101000a031916815260200191505b509c5050505050505050505050505060405180910390f35b34801561027857600080fd5b50610290600160a060020a03600435166024356108ba565b604080519115158252519081900360200190f35b610290600435602435610c1e565b3480156102be57600080fd5b506102c7610cf1565b60408051602080825283518183015283519192839290830191858101910280838360005b838110156103035781810151838201526020016102eb565b505050509050019250505060405180910390f35b34801561032357600080fd5b5061032c610d4b565b60408051600160a060020a039092168252519081900360200190f35b34801561035457600080fd5b50610290600160a060020a0360043516610d5a565b34801561037557600080fd5b5061037e610e01565b60408051918252519081900360200190f35b34801561039c57600080fd5b5061037e610e07565b3480156103b157600080fd5b5061037e610e0d565b3480156103c657600080fd5b506103d2600435610e13565b604080518881526020808201899052600160a060020a03881692820192909252606081018690526080810185905260c0810183905260e060a0820181815285519183019190915284519192909161010084019186019080838360005b8381101561044657818101518382015260200161042e565b50505050905090810190601f1680156104735780820380516001836020036101000a031916815260200191505b509850505050505050505060405180910390f35b34801561049357600080fd5b5061037e600435610ee5565b3480156104ab57600080fd5b50610290600160a060020a0360043516610f04565b3480156104cc57600080fd5b5060408051602060046024803582810135848102808701860190975280865261037e968435600160a060020a031696369660449591949091019291829185019084908082843750506040805187358901803560208181028481018201909552818452989b9a9989019892975090820195509350839250850190849080828437509497506110979650505050505050565b34801561056857600080fd5b5061037e6004356112c2565b34801561058057600080fd5b5061032c6112d4565b34801561059557600080fd5b5061012b6004356112e3565b3480156105ad57600080fd5b50610290600435611501565b3480156105c557600080fd5b506102906004356115f7565b3480156105dd57600080fd5b506105f2600160a060020a0360043516611ffe565b005b6040805160206004803580820135838102808601850190965280855261029095369593946024949385019291829185019084908082843750506040805187358901803560208181028481018201909552818452989b9a99890198929750908201955093508392508501908490808284375050604080516020601f60608a01358b0180359182018390048302840183018552818452989b8a359b838c01359b958601359a9199509750608090940195509193509182019181908401838280828437509497506120449650505050505050565b3480156106d157600080fd5b506105f2600160a060020a03600435166126ea565b6000806060806000806000606060008060068b81548110151561070557fe5b600091825260208083209091015480835260048083526040938490208054600282015460018301546005840154600685015460088601546003870180548c51818d0281018d01909d52808d52999c50959a600160a060020a03909516999598978701979396929591946007909301939092918991908301828280156107b357602002820191906000526020600020905b8154600160a060020a03168152600190910190602001808311610795575b505050505096508580548060200260200160405190810160405280929190818152602001828054801561080557602002820191906000526020600020905b8154815260200190600101908083116107f1575b5050855460408051602060026001851615610100026000190190941693909304601f8101849004840282018401909252818152959b50879450925084019050828280156108935780601f1061086857610100808354040283529160200191610893565b820191906000526020600020905b81548152906001019060200180831161087657829003601f168201915b50505050509150995099509950995099509950995099509950509193959799909294969850565b6000606060008085600160a060020a031663262b54f5866040518263ffffffff1660e060020a02815260040180828152602001915050600060405180830381600087803b15801561090a57600080fd5b505af115801561091e573d6000803e3d6000fd5b505050506040513d6000823e601f3d908101601f19168201604052602081101561094757600080fd5b81019080805164010000000081111561095f57600080fd5b8201602081018481111561097257600080fd5b815185602082028301116401000000008211171561098f57600080fd5b5090965060009450505050505b8251811015610c105785600160a060020a031663c9100bcb84838151811015156109c257fe5b906020019060200201516040518263ffffffff1660e060020a028152600401808260001916600019168152602001915050600060405180830381600087803b158015610a0d57600080fd5b505af1158015610a21573d6000803e3d6000fd5b505050506040513d6000823e601f3d908101601f1916820160405260c0811015610a4a57600080fd5b8151602083015160408401516060850180519395929491939183019291640100000000811115610a7957600080fd5b82016020810184811115610a8c57600080fd5b8151640100000000811182820187101715610aa657600080fd5b50509291906020018051640100000000811115610ac257600080fd5b82016020810184811115610ad557600080fd5b8151640100000000811182820187101715610aef57600080fd5b50509291906020018051640100000000811115610b0b57600080fd5b82016020810184811115610b1e57600080fd5b8151640100000000811182820187101715610b3857600080fd5b505092919050505090919293945090919293509091509050508092505085600160a060020a031663d202158d83600160a060020a031660010260036040518363ffffffff1660e060020a02815260040180836000191660001916815260200182815260200192505050602060405180830381600087803b158015610bbb57600080fd5b505af1158015610bcf573d6000803e3d6000fd5b505050506040513d6020811015610be557600080fd5b505180610bfa5750600160a060020a03821633145b15610c085760019350610c15565b60010161099c565b600093505b50505092915050565b600082815260046020526040812060020154600160a060020a03163314610c8f576040805160e560020a62461bcd02815260206004820152601560248201527f73656e646572206973206e6f742063726561746f720000000000000000000000604482015290519081900360640190fd5b600083815260046020908152604080832060060185905560058252918290203490819055825185815291820152815185927f409c15ea918971e39c60d842defa9f1480c49f4c482f97824070559e6e34e103928290030190a250600192915050565b60606006805480602002602001604051908101604052809291908181526020018280548015610d4057602002820191906000526020600020905b81548152600190910190602001808311610d2b575b505050505090505b90565b600154600160a060020a031681565b600154600254604080517f60d6c7cf0000000000000000000000000000000000000000000000000000000081526004810192909252600160a060020a038481166024840152905160009391909116916360d6c7cf91604480830192602092919082900301818787803b158015610dcf57600080fd5b505af1158015610de3573d6000803e3d6000fd5b505050506040513d6020811015610df957600080fd5b505192915050565b60065490565b60035481565b60025481565b6004602090815260009182526040918290208054600180830154600280850154600586015460068701546007880180548b516101009882161598909802600019011694909404601f81018a90048a0287018a01909a5289865295989397600160a060020a03909216969095949093909291830182828015610ed55780601f10610eaa57610100808354040283529160200191610ed5565b820191906000526020600020905b815481529060010190602001808311610eb857829003601f168201915b5050505050908060080154905087565b6006805482908110610ef357fe5b600091825260209091200154905081565b6001546040805160e060020a630d2020dd0281527f4174746573746174696f6e4167656e6379526567697374727900000000000000600482015290516000928392600160a060020a0390911691630d2020dd9160248082019260209290919082900301818787803b158015610f7857600080fd5b505af1158015610f8c573d6000803e3d6000fd5b505050506040513d6020811015610fa257600080fd5b5051604080517fc3c5a547000000000000000000000000000000000000000000000000000000008152600160a060020a03868116600483015291519293509083169163c3c5a547916024808201926020929091908290030181600087803b15801561100c57600080fd5b505af1158015611020573d6000803e3d6000fd5b505050506040513d602081101561103657600080fd5b5051151561108e576040805160e560020a62461bcd02815260206004820152601160248201527f61646472657373206973206e6f74204141000000000000000000000000000000604482015290519081900360640190fd5b50600192915050565b600060606000835185511415156110f8576040805160e560020a62461bcd02815260206004820152601d60248201527f746f7069632c20697373756572206c656e677468206d69736d61746368000000604482015290519081900360640190fd5b81866040516020018083805190602001908083835b6020831061112c5780518252601f19909201916020918201910161110d565b6001836020036101000a03801982511681845116808217855250505050505090500182600160a060020a0316600160a060020a03166c01000000000000000000000000028152601401925050506040516020818303038152906040529150600090505b845181101561125c578185828151811015156111a757fe5b9060200190602002015185838151811015156111bf57fe5b906020019060200201516040516020018084805190602001908083835b602083106111fb5780518252601f1990920191602091820191016111dc565b51815160209384036101000a6000190180199092169116179052920194855250600160a060020a03929092166c010000000000000000000000000291830191909152506040805160148184030181526034909201905292505060010161118f565b816040518082805190602001908083835b6020831061128c5780518252601f19909201916020918201910161126d565b5181516020939093036101000a600019018019909116921691909117905260405192018290039091209998505050505050505050565b60056020526000908152604090205481565b600054600160a060020a031681565b6000806060806000806000606060006112fa612790565b60008b815260046020908152604091829020825161012081018452815481526001820154818401526002820154600160a060020a031681850152600382018054855181860281018601909652808652919492936060860193929083018282801561138d57602002820191906000526020600020905b8154600160a060020a0316815260019091019060200180831161136f575b50505050508152602001600482018054806020026020016040519081016040528092919081815260200182805480156113e557602002820191906000526020600020905b8154815260200190600101908083116113d1575b505050918352505060058201546020808301919091526006830154604080840191909152600784018054825160026000196001841615610100020190921691909104601f8101859004850282018501909352828152606090940193929091908301828280156114955780601f1061146a57610100808354040283529160200191611495565b820191906000526020600020905b81548152906001019060200180831161147857829003601f168201915b505050505081526020016008820154815250509050806000015181604001518260600151836080015184602001518560a001518660c001518760e00151886101000151869650859550819150995099509950995099509950995099509950509193959799909294969850565b6000818152600460205260408120600201548190600160a060020a03163314611574576040805160e560020a62461bcd02815260206004820152601560248201527f73656e646572206973206e6f742063726561746f720000000000000000000000604482015290519081900360640190fd5b5060008281526005602052604080822080549083905590519091339183156108fc0291849190818181858888f193505050501580156115b7573d6000803e3d6000fd5b5060408051828152905184917ff35d42b9c311ce9dadd88de9b62d1ff91144843421993199963f32fc1c1ce6b2919081900360200190a250600192915050565b6001546040805160e060020a630d2020dd0281527f4964656e746974794d616e61676572000000000000000000000000000000000060048201529051600092839283928392839283928392600160a060020a031691630d2020dd91602480830192602092919082900301818787803b15801561167257600080fd5b505af1158015611686573d6000803e3d6000fd5b505050506040513d602081101561169c57600080fd5b5051604080517f12459b000000000000000000000000000000000000000000000000000000000081523360048201529051919750600160a060020a038816916312459b00916024808201926020929091908290030181600087803b15801561170357600080fd5b505af1158015611717573d6000803e3d6000fd5b505050506040513d602081101561172d57600080fd5b505115156117ab576040805160e560020a62461bcd02815260206004820152603560248201527f6d73672e73656e646572206973206e6f74206964656e7469747920637265617460448201527f6564206279204964656e746974794d616e616765720000000000000000000000606482015290519081900360840190fd5b339350600094505b60008881526004602081905260409091200154851015611b9b5760008881526004602052604090206003018054869081106117ea57fe5b600091825260209091200154600160a060020a03908116141561189657600088815260046020819052604090912001805461183b9133918890811061182b57fe5b90600052602060002001546108ba565b1515611891576040805160e560020a62461bcd02815260206004820152601560248201527f53656c662d436c61696d2070726f7665204661696c0000000000000000000000604482015290519081900360640190fd5b611b90565b60008881526004602052604090206003018054869081106118b357fe5b60009182526020808320909101548a83526004918290526040909220018054600160a060020a0390921691879081106118e857fe5b90600052602060002001546040516020018083600160a060020a0316600160a060020a03166c01000000000000000000000000028152601401828152602001925050506040516020818303038152906040526040518082805190602001908083835b602083106119695780518252601f19909201916020918201910161194a565b5181516020939093036101000a6000190180199091169216919091179052604080519190930181900381207fc9100bcb000000000000000000000000000000000000000000000000000000008252600482018190529251929650600160a060020a038916945063c9100bcb9350602480820193600093509182900301818387803b1580156119f657600080fd5b505af1158015611a0a573d6000803e3d6000fd5b505050506040513d6000823e601f3d908101601f1916820160405260c0811015611a3357600080fd5b8151602083015160408401516060850180519395929491939183019291640100000000811115611a6257600080fd5b82016020810184811115611a7557600080fd5b8151640100000000811182820187101715611a8f57600080fd5b50509291906020018051640100000000811115611aab57600080fd5b82016020810184811115611abe57600080fd5b8151640100000000811182820187101715611ad857600080fd5b50509291906020018051640100000000811115611af457600080fd5b82016020810184811115611b0757600080fd5b8151640100000000811182820187101715611b2157600080fd5b50969b50505050600160a060020a03891615159550611b90945050505050576040805160e560020a62461bcd02815260206004820152600f60248201527f436c61696d206e6f742065786973740000000000000000000000000000000000604482015290519081900360640190fd5b6001909401936117b3565b6000888152600460209081526040808320600601546005909252909120541015611c0f576040805160e560020a62461bcd02815260206004820152601460248201527f726577617264206973206e6f7420656e6f756768000000000000000000000000604482015290519081900360640190fd5b600088815260046020908152604080832060060154600590925290912054611c3c9163ffffffff61277e16565b60008981526005602090815260408083209390935560049052818120600601549151339280156108fc0292909190818181858888f19350505050158015611c87573d6000803e3d6000fd5b506001546040805160e060020a630d2020dd0281527f416368696576656d656e7400000000000000000000000000000000000000000060048201529051600160a060020a0390921691630d2020dd916024808201926020929091908290030181600087803b158015611cf857600080fd5b505af1158015611d0c573d6000803e3d6000fd5b505050506040513d6020811015611d2257600080fd5b505160408051336c01000000000000000000000000810260208084019190915260348084018e9052845180850390910181526054909301938490528251949550600160a060020a0386169463d3fc986494929392918291908401908083835b60208310611da05780518252601f199092019160209182019101611d81565b6001836020036101000a03801982511681845116808217855250505050505090500191505060405180910390206001900442600460008e600019166000191681526020019081526020016000206007016040516020018083815260200182805460018160011615610100020316600290048015611e545780601f10611e32576101008083540402835291820191611e54565b820191906000526020600020905b815481529060010190602001808311611e40575b5050925050506040516020818303038152906040526040518463ffffffff1660e060020a0281526004018084600160a060020a0316600160a060020a0316815260200183815260200180602001828103825283818151815260200191508051906020019080838360005b83811015611ed6578181015183820152602001611ebe565b50505050905090810190601f168015611f035780820380516001836020036101000a031916815260200191505b50945050505050602060405180830381600087803b158015611f2457600080fd5b505af1158015611f38573d6000803e3d6000fd5b505050506040513d6020811015611f4e57600080fd5b50511515611fa6576040805160e560020a62461bcd02815260206004820152601c60248201527f616368696576656d656e742063616e6e6f74206265206d696e74656400000000604482015290519081900360640190fd5b600088815260046020908152604091829020600601548251908152915133928b927f2b3c50bc6470494ddd6230eeb3cbb0b2a212a4c1c262627fa78f6c5b4bf0d64d92918290030190a3506001979650505050505050565b600054600160a060020a0316331461201557600080fd5b6001805473ffffffffffffffffffffffffffffffffffffffff1916600160a060020a0392909216919091179055565b600080600080612052612790565b61205b33610f04565b15156120b1576040805160e560020a62461bcd02815260206004820152601460248201527f6d73672e73656e646572206973206e6f74204141000000000000000000000000604482015290519081900360640190fd5b60035434101561210b576040805160e560020a62461bcd02815260206004820152601560248201527f6465706f736974206973206e6f7420656e6f7567680000000000000000000000604482015290519081900360640190fd5b6001546040805160e060020a630d2020dd0281527f546f70696352656769737472790000000000000000000000000000000000000060048201529051600160a060020a0390921691630d2020dd916024808201926020929091908290030181600087803b15801561217b57600080fd5b505af115801561218f573d6000803e3d6000fd5b505050506040513d60208110156121a557600080fd5b50519350600092505b8a518310156123e45760008311156122f7578a600184038151811015156121d157fe5b906020019060200201518b848151811015156121e957fe5b90602001906020020151108061227c57508a6001840381518110151561220b57fe5b906020019060200201518b8481518110151561222357fe5b9060200190602002015114801561227c5750896001840381518110151561224657fe5b90602001906020020151600160a060020a03168a8481518110151561226757fe5b90602001906020020151600160a060020a0316145b156122f7576040805160e560020a62461bcd02815260206004820152602360248201527f546f70696320616e642049737375657220636f6e646974696f6e20697320777260448201527f6f6e670000000000000000000000000000000000000000000000000000000000606482015290519081900360840190fd5b83600160a060020a031663579a69888c8581518110151561231457fe5b906020019060200201516040518263ffffffff1660e060020a02815260040180828152602001915050602060405180830381600087803b15801561235757600080fd5b505af115801561236b573d6000803e3d6000fd5b505050506040513d602081101561238157600080fd5b505115156123d9576040805160e560020a62461bcd02815260206004820152601460248201527f746f706963206e6f742072656769737465726564000000000000000000000000604482015290519081900360640190fd5b6001909201916121ae565b6123ef338c8c611097565b60008181526004602052604090205490925015612456576040805160e560020a62461bcd02815260206004820152601a60248201527f616368696576656d656e7420616c726561647920657869737473000000000000604482015290519081900360640190fd5b818152336040808301918252606083018c8152608084018e905260208085018d815260a086018d905260e086018b905260c086018c905242610100870152600087815260048352939093208551815592516001840155925160028301805473ffffffffffffffffffffffffffffffffffffffff1916600160a060020a0390921691909117905551805184936124f29260038501929101906127db565b506080820151805161250e91600484019160209091019061284d565b5060a0820151600582015560c0820151600682015560e0820151805161253e916007840191602090910190612894565b5061010082015181600801559050506006829080600181540180825580915050906001820390600052602060002001600090919290919091509060001916905550346005600084600019166000191681526020019081526020016000208190555081600019167fdebdabb26fa499a98c2bec69c54183d67f0ca99a9c5811dc76bb71c6fa568a6d8c8c348a4260405180806020018060200186815260200180602001858152602001848103845289818151815260200191508051906020019060200280838360005b8381101561261e578181015183820152602001612606565b50505050905001848103835288818151815260200191508051906020019060200280838360005b8381101561265d578181015183820152602001612645565b50505050905001848103825286818151815260200191508051906020019080838360005b83811015612699578181015183820152602001612681565b50505050905090810190601f1680156126c65780820380516001836020036101000a031916815260200191505b509850505050505050505060405180910390a25060019a9950505050505050505050565b600054600160a060020a0316331461270157600080fd5b600160a060020a038116151561271657600080fd5b60008054604051600160a060020a03808516939216917f8be0079c531659141344cd1fd0a4f28419497f9722a3daafe3b4186f6b6457e091a36000805473ffffffffffffffffffffffffffffffffffffffff1916600160a060020a0392909216919091179055565b60008282111561278a57fe5b50900390565b604080516101208101825260008082526020820181905291810182905260608082018190526080820181905260a0820183905260c0820183905260e082015261010081019190915290565b82805482825590600052602060002090810192821561283d579160200282015b8281111561283d578251825473ffffffffffffffffffffffffffffffffffffffff1916600160a060020a039091161782556020909201916001909101906127fb565b50612849929150612901565b5090565b828054828255906000526020600020908101928215612888579160200282015b8281111561288857825182559160200191906001019061286d565b50612849929150612932565b828054600181600116156101000203166002900490600052602060002090601f016020900481019282601f106128d557805160ff1916838001178555612888565b82800160010185558215612888579182018281111561288857825182559160200191906001019061286d565b610d4891905b8082111561284957805473ffffffffffffffffffffffffffffffffffffffff19168155600101612907565b610d4891905b8082111561284957600081556001016129385600a165627a7a723058201f9c7ab11984c5ffdbb0150daf372cb3c6dad5f5ed532268fa2ff5de98e579660029",
  "source": "pragma solidity ^0.4.24;\n\nimport \"../openzeppelin-solidity/contracts/math/SafeMath.sol\";\nimport \"../identity/ERC735.sol\";\nimport \"../identity/ERC725.sol\";\nimport \"../RegistryUser.sol\";\nimport \"../registry/TopicRegistry.sol\";\nimport \"../interface/IAchievement.sol\";\nimport \"../interface/IIdentityManager.sol\";\nimport \"../interface/IAttestationAgencyRegistry.sol\";\n\n/**\n * @title AchievementManager\n * @dev AchievementManager Contract used to manage achievement system in metadium\n * The permissinoed participant can CRUD the achievement.\n */\ncontract AchievementManager is RegistryUser {\n    using SafeMath for uint256;\n\n    uint256 public minimumDeposit = 1 * 10 ** 18;\n\n    mapping(bytes32 => Achievement) public achievements; // achievementId => achievement\n    mapping(bytes32 => uint256) public balance; // achievementId => balance\n\n    bytes32[] public allAchievements;\n\n    event CreateAchievement(bytes32 indexed achievementId, uint256[] topics, address[] issuers, uint256 staked, string uri, uint256 createdAt);\n    event UpdateAchievement(bytes32 indexed achievementId, uint256 reward, uint256 charge);\n    event DeleteAchievement(bytes32 indexed achievementId, uint256 refund);\n    event RequestAchievement(bytes32 indexed achievementId, address indexed receiver, uint256 reward);\n\n    struct Achievement {\n        bytes32 id;\n        bytes32 title;\n        address creator;\n        address[] issuers;\n        uint256[] claimTopics;\n        bytes32 explanation;\n        uint256 reward;\n        string uri;\n        uint256 createdAt;\n    }\n\n    constructor() public {\n        THIS_NAME = \"AchievementManager\";\n    }\n\n    function isAAttestationAgency(address _addr) public view returns(bool found) {\n        \n        IAttestationAgencyRegistry ar = IAttestationAgencyRegistry(REG.getContractAddress(\"AttestationAgencyRegistry\"));\n        require(ar.isRegistered(_addr) != 0, \"address is not AA\");\n\n        return true;\n    }\n\n    modifier onlyAttestationAgency() {\n        require(isAAttestationAgency(msg.sender), \"msg.sender is not AA\");\n        _;\n    }\n\n    /**\n     * @dev Create Achievement. Topics should be registered first.\n     * topic & issuer term cannot be same simultaneously with the previos one.\n     * @param _topics registered topics, ascending order (1,10,10, 100)\n     * @param _issuers issuers for each topic\n     * @param _title title\n     * @param _achievementExplanation achievement explanation\n     * @param _reward reward in meta when user request acievement\n     * @param _uri basically used for ipfs id or something\n     * @return A boolean that indicates if the operation was successful.\n     */\n    function createAchievement(uint256[] _topics, address[] _issuers, bytes32 _title, bytes32 _achievementExplanation, uint256 _reward, string _uri)\n    public\n    onlyAttestationAgency\n    payable returns (bool success)\n    {\n\n        //check staking amount used for reward\n        require(msg.value >= minimumDeposit, \"deposit is not enough\");\n\n        //topics should be registered already\n        TopicRegistry topicRegistry = TopicRegistry(REG.getContractAddress(\"TopicRegistry\"));\n        for (uint256 i = 0;i<_topics.length;i++) {\n            if (i > 0) {\n                if (\n                    _topics[i] < _topics[i-1] ||\n                    (_topics[i] == _topics[i-1] && _issuers[i] == _issuers[i-1])\n\n                ) {\n                    revert(\"Topic and Issuer condition is wrong\");\n                }\n            }\n            require(topicRegistry.isRegistered(_topics[i]), \"topic not registered\");\n        }\n\n        //check if achievement is already registered\n        bytes32 achievementId = getAchievementId(msg.sender, _topics, _issuers);\n        require(achievements[achievementId].id == 0, \"achievement already exists\");\n\n\n        Achievement memory newAc;\n        newAc.id = achievementId;\n        newAc.creator = msg.sender;\n        newAc.issuers = _issuers;\n        newAc.claimTopics = _topics;\n        newAc.title = _title;\n        newAc.explanation = _achievementExplanation;\n        newAc.uri = _uri;\n        newAc.reward = _reward;\n        newAc.createdAt = block.timestamp;\n\n        achievements[newAc.id] = newAc;\n        allAchievements.push(achievementId);\n        balance[achievementId] = msg.value;\n\n        emit CreateAchievement(achievementId, _topics, _issuers, msg.value, _uri, block.timestamp);\n\n        return true;\n    }\n\n    /**\n     * @dev Update Achievement. Fund can be charged through this, and reward can be set newly.\n     * @param _achievementId achievementId\n     * @param _reward new reward\n     * @return A boolean that indicates if the operation was successful.\n     */\n    function updateAchievement(bytes32 _achievementId, uint256 _reward) public payable returns (bool success) {\n        //Only creator can charge fund\n        require(achievements[_achievementId].creator == msg.sender, \"sender is not creator\");\n\n        achievements[_achievementId].reward = _reward;\n        balance[_achievementId] = msg.value;\n        emit UpdateAchievement(_achievementId, _reward, msg.value);\n        return true;\n    }\n\n    /**\n     * @dev Delete Achievement. This function DOES NOT actually delete achievement.\n     * Just refund to the creator.\n     * @param _achievementId achievementId\n     * @return A boolean that indicates if the operation was successful.\n     */\n    function deleteAchievement(bytes32 _achievementId) public returns (bool success) {\n        //Only creator can refund\n        require(achievements[_achievementId].creator == msg.sender, \"sender is not creator\");\n\n        uint256 rest = balance[_achievementId];\n        \n        balance[_achievementId] = 0;\n        msg.sender.transfer(rest);\n        \n        emit DeleteAchievement(_achievementId, rest);\n\n        return true;\n    }\n    /**\n     * @dev Request achievement. If user have proper claims, user get acievement(ERC721) token and meta reward\n     * @param _achievementId _achievementId user want to request\n     * @return A boolean that indicates if the operation was successful.\n     */\n    function requestAchievement(bytes32 _achievementId) public returns (bool success) {\n        // check whether msg.sender is deployed using IdentityManager\n        IIdentityManager im = IIdentityManager(REG.getContractAddress(\"IdentityManager\"));\n        require(im.isMetaId(msg.sender), \"msg.sender is not identity created by IdentityManager\");\n        \n        uint256 i;\n        ERC735 identity = ERC735(msg.sender);\n        // // check if sender has enough claims\n        for (i = 0;i<achievements[_achievementId].claimTopics.length;i++) {\n            address issuer;\n            // check this claim issuer is for self claim\n            if (achievements[_achievementId].issuers[i] == 0xFFfFfFffFFfffFFfFFfFFFFFffFFFffffFfFFFfF) {\n                //self claim\n                //bytes32 claimId = keccak256(abi.encodePacked(msg.sender, achievements[_achievementId].claimTopics[i]));\n                //check msg.sender is erc735 implementation\n                //\n                //identity.getClaimIdsByType(achievements[_achievementId].claimTopics[i]);\n                require(hasSelfClaim(msg.sender, achievements[_achievementId].claimTopics[i]), \"Self-Claim prove Fail\");\n\n            }else {\n                // claimId is made by topic and issuer.\n                bytes32 claimId = keccak256(abi.encodePacked(achievements[_achievementId].issuers[i], achievements[_achievementId].claimTopics[i]));\n                (, , issuer, , , ) = identity.getClaim(claimId); // getClaim returns (topic, scheme, issuer, signature, data, uri)\n                require(issuer != address(0), \"Claim not exist\");\n            }\n\n        }\n        \n        // give reward to msg.sender(identity contract)\n        require(balance[_achievementId] >= achievements[_achievementId].reward, \"reward is not enough\");\n        balance[_achievementId] = balance[_achievementId].sub(achievements[_achievementId].reward);\n        msg.sender.transfer(achievements[_achievementId].reward);\n\n        // mint achievement erc721 to msg.sender;\n        IAchievement achievement = IAchievement(REG.getContractAddress(\"Achievement\"));\n        require(achievement.mint(msg.sender, uint256(keccak256(abi.encodePacked(msg.sender, _achievementId))), string(abi.encodePacked(block.timestamp,achievements[_achievementId].uri))), \"achievement cannot be minted\");\n        \n        emit RequestAchievement(_achievementId, msg.sender, achievements[_achievementId].reward);\n\n        return true;\n    }\n\n\n    function hasSelfClaim(address _identity, uint256 _topic) public view returns (bool) {\n        bytes32[] memory claims = ERC735(_identity).getClaimIdsByType(_topic);\n        address c;\n        for (uint256 i = 0;i<claims.length;i++) {\n            (, , c, , ,) = ERC735(_identity).getClaim(claims[i]);\n            //3: CLAIM signer keys, used to sign claims on other identities which need to be revokable.\n            //bytes32(address) : addrToKey(addr)\n            if (ERC725(_identity).keyHasPurpose(bytes32(c), 3) || c == msg.sender) {\n                //true if isuuer is identity's claim key or smart contract identity itself\n                return true;\n            }\n            \n        }\n        return false;\n\n    }\n    function getAllAchievementList() public view returns (bytes32[] list) {\n        return allAchievements;\n    }\n\n    //TODO : achievement with proper balance\n    function getActiveAchievementList() public view returns(bytes32[] list) {\n        return allAchievements;\n    }\n\n    function getLengthOfAchievements() public view returns(uint256 length) {\n        return allAchievements.length;\n    }\n\n    function getAchievementById(bytes32 _achievementId) public view returns(bytes32 id, address creator, address[] issuers, uint256[] claimTopics, bytes32 title, bytes32 explanation, uint256 reward, string uri, uint256 createdAt) {\n        Achievement memory ac = achievements[_achievementId];\n        return (\n            ac.id, \n            ac.creator, \n            ac.issuers, \n            ac.claimTopics, \n            ac.title, \n            ac.explanation, \n            ac.reward, \n            ac.uri,\n            ac.createdAt\n            );\n    }\n\n    function getAchievementByIndex(uint256 _index) public view returns(bytes32 id, address creator, address[] issuers, uint256[] claimTopics, bytes32 title, bytes32 explanation, uint256 reward, string uri, uint256 createdAt) {\n        bytes32 _achievementId = allAchievements[_index];\n        return (\n            achievements[_achievementId].id, \n            achievements[_achievementId].creator, \n            achievements[_achievementId].issuers, \n            achievements[_achievementId].claimTopics, \n            achievements[_achievementId].title, \n            achievements[_achievementId].explanation, \n            achievements[_achievementId].reward, \n            achievements[_achievementId].uri,\n            achievements[_achievementId].createdAt\n            );\n\n    }\n\n    /**\n     * @dev Get achievement id. an achievement ID is unique with given params.\n     * achievementId = keccak256(abi.encodePacked(creator, topic1, issuer1, topic2, issuer2, ...))\n     * @param creator achievement creator\n     * @param topics topics achievement requirements\n     * @param issuers issuers achievement requirements\n     * @return A boolean that indicates if the operation was successful.\n     */\n    function getAchievementId(address creator, uint256[] topics, address[] issuers) public pure returns(bytes32 id) {\n        bytes memory idBytes;\n        \n        require(topics.length == issuers.length, \"topic, issuer length mismatch\");\n        \n        idBytes = abi.encodePacked(idBytes, creator);\n\n        for (uint i = 0;i<topics.length;i++) {\n            idBytes = abi.encodePacked(idBytes, topics[i], issuers[i]);\n        }\n        return keccak256(idBytes);\n    }\n\n}\n",
  "sourcePath": "/Users/coinplug/BangGijin/metabolics2.0/contracts/property/AchievementManager.sol",
  "compiler": {
    "name": "solc",
    "version": "0.4.24+commit.e67f0147.Emscripten.clang"
  },
  "schemaVersion": "2.0.1",
  "updatedAt": "2018-11-16T09:41:02.250Z"
}