{
  "contractName": "AchievementManager",
  "abi": [
    {
      "constant": true,
      "inputs": [],
      "name": "REG",
      "outputs": [
        {
          "name": "",
          "type": "address"
        }
      ],
      "payable": false,
      "stateMutability": "view",
      "type": "function"
    },
    {
      "constant": false,
      "inputs": [
        {
          "name": "_addr",
          "type": "address"
        }
      ],
      "name": "isPermitted",
      "outputs": [
        {
          "name": "found",
          "type": "bool"
        }
      ],
      "payable": false,
      "stateMutability": "nonpayable",
      "type": "function"
    },
    {
      "constant": true,
      "inputs": [],
      "name": "minimumDeposit",
      "outputs": [
        {
          "name": "",
          "type": "uint256"
        }
      ],
      "payable": false,
      "stateMutability": "view",
      "type": "function"
    },
    {
      "constant": true,
      "inputs": [],
      "name": "THIS_NAME",
      "outputs": [
        {
          "name": "",
          "type": "bytes32"
        }
      ],
      "payable": false,
      "stateMutability": "view",
      "type": "function"
    },
    {
      "constant": true,
      "inputs": [
        {
          "name": "",
          "type": "bytes32"
        }
      ],
      "name": "achievements",
      "outputs": [
        {
          "name": "id",
          "type": "bytes32"
        },
        {
          "name": "title",
          "type": "bytes32"
        },
        {
          "name": "creator",
          "type": "address"
        },
        {
          "name": "explanation",
          "type": "bytes32"
        },
        {
          "name": "reward",
          "type": "uint256"
        },
        {
          "name": "uri",
          "type": "string"
        },
        {
          "name": "createdAt",
          "type": "uint256"
        }
      ],
      "payable": false,
      "stateMutability": "view",
      "type": "function"
    },
    {
      "constant": true,
      "inputs": [
        {
          "name": "",
          "type": "uint256"
        }
      ],
      "name": "allAchievements",
      "outputs": [
        {
          "name": "",
          "type": "bytes32"
        }
      ],
      "payable": false,
      "stateMutability": "view",
      "type": "function"
    },
    {
      "constant": true,
      "inputs": [
        {
          "name": "",
          "type": "bytes32"
        }
      ],
      "name": "balance",
      "outputs": [
        {
          "name": "",
          "type": "uint256"
        }
      ],
      "payable": false,
      "stateMutability": "view",
      "type": "function"
    },
    {
      "constant": true,
      "inputs": [],
      "name": "owner",
      "outputs": [
        {
          "name": "",
          "type": "address"
        }
      ],
      "payable": false,
      "stateMutability": "view",
      "type": "function"
    },
    {
      "constant": false,
      "inputs": [
        {
          "name": "_addr",
          "type": "address"
        }
      ],
      "name": "setRegistry",
      "outputs": [],
      "payable": false,
      "stateMutability": "nonpayable",
      "type": "function"
    },
    {
      "constant": false,
      "inputs": [
        {
          "name": "newOwner",
          "type": "address"
        }
      ],
      "name": "transferOwnership",
      "outputs": [],
      "payable": false,
      "stateMutability": "nonpayable",
      "type": "function"
    },
    {
      "inputs": [],
      "payable": false,
      "stateMutability": "nonpayable",
      "type": "constructor"
    },
    {
      "anonymous": false,
      "inputs": [
        {
          "indexed": true,
          "name": "achievementId",
          "type": "bytes32"
        },
        {
          "indexed": false,
          "name": "topics",
          "type": "uint256[]"
        },
        {
          "indexed": false,
          "name": "issuers",
          "type": "address[]"
        },
        {
          "indexed": false,
          "name": "staked",
          "type": "uint256"
        },
        {
          "indexed": false,
          "name": "uri",
          "type": "string"
        },
        {
          "indexed": false,
          "name": "timestamp",
          "type": "uint256"
        }
      ],
      "name": "CreateAchievement",
      "type": "event"
    },
    {
      "anonymous": false,
      "inputs": [
        {
          "indexed": true,
          "name": "achievementId",
          "type": "bytes32"
        },
        {
          "indexed": false,
          "name": "reward",
          "type": "uint256"
        },
        {
          "indexed": false,
          "name": "charge",
          "type": "uint256"
        }
      ],
      "name": "UpdateAchievement",
      "type": "event"
    },
    {
      "anonymous": false,
      "inputs": [
        {
          "indexed": true,
          "name": "achievementId",
          "type": "bytes32"
        },
        {
          "indexed": false,
          "name": "refund",
          "type": "uint256"
        }
      ],
      "name": "DeleteAchievement",
      "type": "event"
    },
    {
      "anonymous": false,
      "inputs": [
        {
          "indexed": true,
          "name": "achievementId",
          "type": "bytes32"
        },
        {
          "indexed": true,
          "name": "receiver",
          "type": "address"
        },
        {
          "indexed": false,
          "name": "reward",
          "type": "uint256"
        }
      ],
      "name": "RequestAchievement",
      "type": "event"
    },
    {
      "anonymous": false,
      "inputs": [
        {
          "indexed": false,
          "name": "addr",
          "type": "address"
        },
        {
          "indexed": false,
          "name": "name",
          "type": "bytes32"
        },
        {
          "indexed": false,
          "name": "go",
          "type": "bool"
        }
      ],
      "name": "Per",
      "type": "event"
    },
    {
      "anonymous": false,
      "inputs": [
        {
          "indexed": true,
          "name": "previousOwner",
          "type": "address"
        },
        {
          "indexed": true,
          "name": "newOwner",
          "type": "address"
        }
      ],
      "name": "OwnershipTransferred",
      "type": "event"
    },
    {
      "constant": false,
      "inputs": [
        {
          "name": "_addr",
          "type": "address"
        }
      ],
      "name": "isAAttestationAgency",
      "outputs": [
        {
          "name": "found",
          "type": "bool"
        }
      ],
      "payable": false,
      "stateMutability": "nonpayable",
      "type": "function"
    },
    {
      "constant": false,
      "inputs": [
        {
          "name": "_topics",
          "type": "uint256[]"
        },
        {
          "name": "_issuers",
          "type": "address[]"
        },
        {
          "name": "_title",
          "type": "bytes32"
        },
        {
          "name": "_achievementExplanation",
          "type": "bytes32"
        },
        {
          "name": "_reward",
          "type": "uint256"
        },
        {
          "name": "_uri",
          "type": "string"
        }
      ],
      "name": "createAchievement",
      "outputs": [
        {
          "name": "success",
          "type": "bool"
        }
      ],
      "payable": true,
      "stateMutability": "payable",
      "type": "function"
    },
    {
      "constant": false,
      "inputs": [
        {
          "name": "_achievementId",
          "type": "bytes32"
        },
        {
          "name": "_reward",
          "type": "uint256"
        }
      ],
      "name": "updateAchievement",
      "outputs": [
        {
          "name": "success",
          "type": "bool"
        }
      ],
      "payable": true,
      "stateMutability": "payable",
      "type": "function"
    },
    {
      "constant": false,
      "inputs": [
        {
          "name": "_achievementId",
          "type": "bytes32"
        }
      ],
      "name": "deleteAchievement",
      "outputs": [
        {
          "name": "success",
          "type": "bool"
        }
      ],
      "payable": false,
      "stateMutability": "nonpayable",
      "type": "function"
    },
    {
      "constant": false,
      "inputs": [
        {
          "name": "_achievementId",
          "type": "bytes32"
        }
      ],
      "name": "requestAchievement",
      "outputs": [
        {
          "name": "success",
          "type": "bool"
        }
      ],
      "payable": false,
      "stateMutability": "nonpayable",
      "type": "function"
    },
    {
      "constant": true,
      "inputs": [],
      "name": "getAllAchievementList",
      "outputs": [
        {
          "name": "list",
          "type": "bytes32[]"
        }
      ],
      "payable": false,
      "stateMutability": "view",
      "type": "function"
    },
    {
      "constant": true,
      "inputs": [],
      "name": "getActiveAchievementList",
      "outputs": [
        {
          "name": "list",
          "type": "bytes32[]"
        }
      ],
      "payable": false,
      "stateMutability": "view",
      "type": "function"
    },
    {
      "constant": true,
      "inputs": [],
      "name": "getLengthOfAchievements",
      "outputs": [
        {
          "name": "length",
          "type": "uint256"
        }
      ],
      "payable": false,
      "stateMutability": "view",
      "type": "function"
    },
    {
      "constant": true,
      "inputs": [
        {
          "name": "_achievementId",
          "type": "bytes32"
        }
      ],
      "name": "getAchievementById",
      "outputs": [
        {
          "name": "id",
          "type": "bytes32"
        },
        {
          "name": "creator",
          "type": "address"
        },
        {
          "name": "issuers",
          "type": "address[]"
        },
        {
          "name": "claimTopics",
          "type": "uint256[]"
        },
        {
          "name": "title",
          "type": "bytes32"
        },
        {
          "name": "explanation",
          "type": "bytes32"
        },
        {
          "name": "reward",
          "type": "uint256"
        },
        {
          "name": "uri",
          "type": "string"
        },
        {
          "name": "timestamp",
          "type": "uint256"
        }
      ],
      "payable": false,
      "stateMutability": "view",
      "type": "function"
    },
    {
      "constant": true,
      "inputs": [
        {
          "name": "_index",
          "type": "uint256"
        }
      ],
      "name": "getAchievementByIndex",
      "outputs": [
        {
          "name": "id",
          "type": "bytes32"
        },
        {
          "name": "creator",
          "type": "address"
        },
        {
          "name": "issuers",
          "type": "address[]"
        },
        {
          "name": "claimTopics",
          "type": "uint256[]"
        },
        {
          "name": "title",
          "type": "bytes32"
        },
        {
          "name": "explanation",
          "type": "bytes32"
        },
        {
          "name": "reward",
          "type": "uint256"
        },
        {
          "name": "uri",
          "type": "string"
        },
        {
          "name": "timestamp",
          "type": "uint256"
        }
      ],
      "payable": false,
      "stateMutability": "view",
      "type": "function"
    },
    {
      "constant": true,
      "inputs": [
        {
          "name": "creator",
          "type": "address"
        },
        {
          "name": "topics",
          "type": "uint256[]"
        },
        {
          "name": "issuers",
          "type": "address[]"
        }
      ],
      "name": "getAchievementId",
      "outputs": [
        {
          "name": "id",
          "type": "bytes32"
        }
      ],
      "payable": false,
      "stateMutability": "pure",
      "type": "function"
    }
  ],
  "bytecode": "0x6080604052670de0b6b3a764000060035534801561001c57600080fd5b5060008054600160a060020a031916331790557f416368696576656d656e744d616e616765720000000000000000000000000000600255612136806100626000396000f3006080604052600436106101035763ffffffff60e060020a60003504166305b636e3811461010857806318b6e0321461026157806322a3ecb7146102835780632f1b9f14146102e857806339363112146102fd5780633fd8cc4e1461032e578063509257e81461034f578063636bfbab1461037657806364319d0b1461038b5780636b03af84146103a057806374f0ce451461046d57806377aea96714610485578063857ab075146104a657806389eba421146105425780638da5cb5b1461055a57806397d26ab01461056f5780639cb4da0814610587578063a64a3da31461059f578063a91ee0dc146105b7578063bc4f5a40146105da578063f2fde38b146106ab575b600080fd5b34801561011457600080fd5b506101206004356106cc565b604080518a8152600160a060020a038a166020808301919091526080820188905260a0820187905260c0820186905261010082018490526101209282018381528a51938301939093528951919291606084019160e08501916101408601918d8101910280838360005b838110156101a1578181015183820152602001610189565b5050505090500184810383528a818151815260200191508051906020019060200280838360005b838110156101e05781810151838201526020016101c8565b50505050905001848103825286818151815260200191508051906020019080838360005b8381101561021c578181015183820152602001610204565b50505050905090810190601f1680156102495780820380516001836020036101000a031916815260200191505b509c5050505050505050505050505060405180910390f35b61026f6004356024356108a0565b604080519115158252519081900360200190f35b34801561028f57600080fd5b50610298610928565b60408051602080825283518183015283519192839290830191858101910280838360005b838110156102d45781810151838201526020016102bc565b505050509050019250505060405180910390f35b3480156102f457600080fd5b50610298610982565b34801561030957600080fd5b50610312610987565b60408051600160a060020a039092168252519081900360200190f35b34801561033a57600080fd5b5061026f600160a060020a0360043516610996565b34801561035b57600080fd5b50610364610a3d565b60408051918252519081900360200190f35b34801561038257600080fd5b50610364610a43565b34801561039757600080fd5b50610364610a49565b3480156103ac57600080fd5b506103b8600435610a4f565b604080518881526020808201899052600160a060020a03881692820192909252606081018690526080810185905260c0810183905260e060a0820181815285519183019190915284519192909161010084019186019080838360005b8381101561042c578181015183820152602001610414565b50505050905090810190601f1680156104595780820380516001836020036101000a031916815260200191505b509850505050505050505060405180910390f35b34801561047957600080fd5b50610364600435610b21565b34801561049157600080fd5b5061026f600160a060020a0360043516610b40565b3480156104b257600080fd5b50604080516020600460248035828101358481028087018601909752808652610364968435600160a060020a031696369660449591949091019291829185019084908082843750506040805187358901803560208181028481018201909552818452989b9a998901989297509082019550935083925085019084908082843750949750610c889650505050505050565b34801561054e57600080fd5b50610364600435610e68565b34801561056657600080fd5b50610312610e7a565b34801561057b57600080fd5b50610120600435610e89565b34801561059357600080fd5b5061026f6004356110a7565b3480156105ab57600080fd5b5061026f600435611152565b3480156105c357600080fd5b506105d8600160a060020a03600435166119c6565b005b6040805160206004803580820135838102808601850190965280855261026f95369593946024949385019291829185019084908082843750506040805187358901803560208181028481018201909552818452989b9a99890198929750908201955093508392508501908490808284375050604080516020601f60608a01358b0180359182018390048302840183018552818452989b8a359b838c01359b958601359a919950975060809094019550919350918201918190840183828082843750949750611a0c9650505050505050565b3480156106b757600080fd5b506105d8600160a060020a0360043516611ea8565b6000806060806000806000606060008060068b8154811015156106eb57fe5b600091825260208083209091015480835260048083526040938490208054600282015460018301546005840154600685015460088601546003870180548c51818d0281018d01909d52808d52999c50959a600160a060020a039095169995989787019793969295919460079093019390929189919083018282801561079957602002820191906000526020600020905b8154600160a060020a0316815260019091019060200180831161077b575b50505050509650858054806020026020016040519081016040528092919081815260200182805480156107eb57602002820191906000526020600020905b8154815260200190600101908083116107d7575b5050855460408051602060026001851615610100026000190190941693909304601f8101849004840282018401909252818152959b50879450925084019050828280156108795780601f1061084e57610100808354040283529160200191610879565b820191906000526020600020905b81548152906001019060200180831161085c57829003601f168201915b50505050509150995099509950995099509950995099509950509193959799909294969850565b600082815260046020526040812060020154600160a060020a031633146108c657600080fd5b600083815260046020908152604080832060060185905560058252918290203490819055825185815291820152815185927f409c15ea918971e39c60d842defa9f1480c49f4c482f97824070559e6e34e103928290030190a250600192915050565b6060600680548060200260200160405190810160405280929190818152602001828054801561097757602002820191906000526020600020905b81548152600190910190602001808311610962575b505050505090505b90565b606090565b600154600160a060020a031681565b600154600254604080517f60d6c7cf0000000000000000000000000000000000000000000000000000000081526004810192909252600160a060020a038481166024840152905160009391909116916360d6c7cf91604480830192602092919082900301818787803b158015610a0b57600080fd5b505af1158015610a1f573d6000803e3d6000fd5b505050506040513d6020811015610a3557600080fd5b505192915050565b60065490565b60035481565b60025481565b6004602090815260009182526040918290208054600180830154600280850154600586015460068701546007880180548b516101009882161598909802600019011694909404601f81018a90048a0287018a01909a5289865295989397600160a060020a03909216969095949093909291830182828015610b115780601f10610ae657610100808354040283529160200191610b11565b820191906000526020600020905b815481529060010190602001808311610af457829003601f168201915b5050505050908060080154905087565b6006805482908110610b2f57fe5b600091825260209091200154905081565b6001546040805160e060020a630d2020dd0281527f4174746573746174696f6e4167656e6379526567697374727900000000000000600482015290516000928392600160a060020a0390911691630d2020dd9160248082019260209290919082900301818787803b158015610bb457600080fd5b505af1158015610bc8573d6000803e3d6000fd5b505050506040513d6020811015610bde57600080fd5b5051604080517fc3c5a547000000000000000000000000000000000000000000000000000000008152600160a060020a03868116600483015291519293509083169163c3c5a547916024808201926020929091908290030181600087803b158015610c4857600080fd5b505af1158015610c5c573d6000803e3d6000fd5b505050506040513d6020811015610c7257600080fd5b50511515610c7f57600080fd5b50600192915050565b60006060600083518551141515610c9e57600080fd5b81866040516020018083805190602001908083835b60208310610cd25780518252601f199092019160209182019101610cb3565b6001836020036101000a03801982511681845116808217855250505050505090500182600160a060020a0316600160a060020a03166c01000000000000000000000000028152601401925050506040516020818303038152906040529150600090505b8451811015610e0257818582815181101515610d4d57fe5b906020019060200201518583815181101515610d6557fe5b906020019060200201516040516020018084805190602001908083835b60208310610da15780518252601f199092019160209182019101610d82565b51815160209384036101000a6000190180199092169116179052920194855250600160a060020a03929092166c0100000000000000000000000002918301919091525060408051601481840301815260349092019052925050600101610d35565b816040518082805190602001908083835b60208310610e325780518252601f199092019160209182019101610e13565b5181516020939093036101000a600019018019909116921691909117905260405192018290039091209998505050505050505050565b60056020526000908152604090205481565b600054600160a060020a031681565b600080606080600080600060606000610ea0611f4e565b60008b815260046020908152604091829020825161012081018452815481526001820154818401526002820154600160a060020a0316818501526003820180548551818602810186019096528086529194929360608601939290830182828015610f3357602002820191906000526020600020905b8154600160a060020a03168152600190910190602001808311610f15575b5050505050815260200160048201805480602002602001604051908101604052809291908181526020018280548015610f8b57602002820191906000526020600020905b815481526020019060010190808311610f77575b505050918352505060058201546020808301919091526006830154604080840191909152600784018054825160026000196001841615610100020190921691909104601f81018590048502820185019093528281526060909401939290919083018282801561103b5780601f106110105761010080835404028352916020019161103b565b820191906000526020600020905b81548152906001019060200180831161101e57829003601f168201915b505050505081526020016008820154815250509050806000015181604001518260600151836080015184602001518560a001518660c001518760e00151886101000151869650859550819150995099509950995099509950995099509950509193959799909294969850565b6000818152600460205260408120600201548190600160a060020a031633146110cf57600080fd5b5060008281526005602052604080822080549083905590519091339183156108fc0291849190818181858888f19350505050158015611112573d6000803e3d6000fd5b5060408051828152905184917ff35d42b9c311ce9dadd88de9b62d1ff91144843421993199963f32fc1c1ce6b2919081900360200190a250600192915050565b6001546040805160e060020a630d2020dd0281527f4964656e746974794d616e61676572000000000000000000000000000000000060048201529051600092839283928392839283928392600160a060020a031691630d2020dd91602480830192602092919082900301818787803b1580156111cd57600080fd5b505af11580156111e1573d6000803e3d6000fd5b505050506040513d60208110156111f757600080fd5b5051604080517f12459b000000000000000000000000000000000000000000000000000000000081523360048201529051919750600160a060020a038816916312459b00916024808201926020929091908290030181600087803b15801561125e57600080fd5b505af1158015611272573d6000803e3d6000fd5b505050506040513d602081101561128857600080fd5b5051151561131d57604080517f08c379a000000000000000000000000000000000000000000000000000000000815260206004820152603560248201527f6d73672e73656e646572206973206e6f74206964656e7469747920637265617460448201527f6564206279204964656e746974794d616e616765720000000000000000000000606482015290519081900360840190fd5b339350600094505b600088815260046020819052604090912001548510156115f957600088815260046020526040902060030180548690811061135c57fe5b60009182526020808320909101548a83526004918290526040909220018054600160a060020a03909216918790811061139157fe5b90600052602060002001546040516020018083600160a060020a0316600160a060020a03166c01000000000000000000000000028152601401828152602001925050506040516020818303038152906040526040518082805190602001908083835b602083106114125780518252601f1990920191602091820191016113f3565b5181516020939093036101000a6000190180199091169216919091179052604080519190930181900381207fc9100bcb000000000000000000000000000000000000000000000000000000008252600482018190529251929650600160a060020a038916945063c9100bcb9350602480820193600093509182900301818387803b15801561149f57600080fd5b505af11580156114b3573d6000803e3d6000fd5b505050506040513d6000823e601f3d908101601f1916820160405260c08110156114dc57600080fd5b815160208301516040840151606085018051939592949193918301929164010000000081111561150b57600080fd5b8201602081018481111561151e57600080fd5b815164010000000081118282018710171561153857600080fd5b5050929190602001805164010000000081111561155457600080fd5b8201602081018481111561156757600080fd5b815164010000000081118282018710171561158157600080fd5b5050929190602001805164010000000081111561159d57600080fd5b820160208101848111156115b057600080fd5b81516401000000008111828201871017156115ca57600080fd5b50969b50505050600160a060020a038916151595506115ee94505050505057600080fd5b600190940193611325565b600088815260046020908152604080832060060154600590925290912054101561162257600080fd5b60008881526004602090815260408083206006015460059092529091205461164f9163ffffffff611f3c16565b60008981526005602090815260408083209390935560049052818120600601549151339280156108fc0292909190818181858888f1935050505015801561169a573d6000803e3d6000fd5b506001546040805160e060020a630d2020dd0281527f416368696576656d656e7400000000000000000000000000000000000000000060048201529051600160a060020a0390921691630d2020dd916024808201926020929091908290030181600087803b15801561170b57600080fd5b505af115801561171f573d6000803e3d6000fd5b505050506040513d602081101561173557600080fd5b505160408051336c01000000000000000000000000810260208084019190915260348084018e9052845180850390910181526054909301938490528251949550600160a060020a0386169463d3fc986494929392918291908401908083835b602083106117b35780518252601f199092019160209182019101611794565b6001836020036101000a03801982511681845116808217855250505050505090500191505060405180910390206001900442600460008e6000191660001916815260200190815260200160002060070160405160200180838152602001828054600181600116156101000203166002900480156118675780601f10611845576101008083540402835291820191611867565b820191906000526020600020905b815481529060010190602001808311611853575b5050925050506040516020818303038152906040526040518463ffffffff1660e060020a0281526004018084600160a060020a0316600160a060020a0316815260200183815260200180602001828103825283818151815260200191508051906020019080838360005b838110156118e95781810151838201526020016118d1565b50505050905090810190601f1680156119165780820380516001836020036101000a031916815260200191505b50945050505050602060405180830381600087803b15801561193757600080fd5b505af115801561194b573d6000803e3d6000fd5b505050506040513d602081101561196157600080fd5b5051151561196e57600080fd5b600088815260046020908152604091829020600601548251908152915133928b927f2b3c50bc6470494ddd6230eeb3cbb0b2a212a4c1c262627fa78f6c5b4bf0d64d92918290030190a3506001979650505050505050565b600054600160a060020a031633146119dd57600080fd5b6001805473ffffffffffffffffffffffffffffffffffffffff1916600160a060020a0392909216919091179055565b600080600080611a1a611f4e565b611a2333610b40565b1515611a2e57600080fd5b611a39338c8c610c88565b60008181526004602052604090205490945015611a5557600080fd5b600354341015611a6457600080fd5b6001546040805160e060020a630d2020dd0281527f546f70696352656769737472790000000000000000000000000000000000000060048201529051600160a060020a0390921691630d2020dd916024808201926020929091908290030181600087803b158015611ad457600080fd5b505af1158015611ae8573d6000803e3d6000fd5b505050506040513d6020811015611afe57600080fd5b50519250600091505b8a51821015611c145782600160a060020a031663579a69888c84815181101515611b2d57fe5b906020019060200201516040518263ffffffff1660e060020a02815260040180828152602001915050602060405180830381600087803b158015611b7057600080fd5b505af1158015611b84573d6000803e3d6000fd5b505050506040513d6020811015611b9a57600080fd5b50511515611c0957604080517f08c379a000000000000000000000000000000000000000000000000000000000815260206004820152601460248201527f746f706963206e6f742072656769737465726564000000000000000000000000604482015290519081900360640190fd5b600190910190611b07565b838152336040808301918252606083018c8152608084018e905260208085018d815260a086018d905260e086018b905260c086018c905242610100870152600089815260048352939093208551815592516001840155925160028301805473ffffffffffffffffffffffffffffffffffffffff1916600160a060020a039092169190911790555180518493611cb0926003850192910190611f99565b5060808201518051611ccc91600484019160209091019061200b565b5060a0820151600582015560c0820151600682015560e08201518051611cfc916007840191602090910190612052565b5061010082015181600801559050506006849080600181540180825580915050906001820390600052602060002001600090919290919091509060001916905550346005600086600019166000191681526020019081526020016000208190555083600019167fdebdabb26fa499a98c2bec69c54183d67f0ca99a9c5811dc76bb71c6fa568a6d8c8c348a4260405180806020018060200186815260200180602001858152602001848103845289818151815260200191508051906020019060200280838360005b83811015611ddc578181015183820152602001611dc4565b50505050905001848103835288818151815260200191508051906020019060200280838360005b83811015611e1b578181015183820152602001611e03565b50505050905001848103825286818151815260200191508051906020019080838360005b83811015611e57578181015183820152602001611e3f565b50505050905090810190601f168015611e845780820380516001836020036101000a031916815260200191505b509850505050505050505060405180910390a25060019a9950505050505050505050565b600054600160a060020a03163314611ebf57600080fd5b600160a060020a0381161515611ed457600080fd5b60008054604051600160a060020a03808516939216917f8be0079c531659141344cd1fd0a4f28419497f9722a3daafe3b4186f6b6457e091a36000805473ffffffffffffffffffffffffffffffffffffffff1916600160a060020a0392909216919091179055565b600082821115611f4857fe5b50900390565b604080516101208101825260008082526020820181905291810182905260608082018190526080820181905260a0820183905260c0820183905260e082015261010081019190915290565b828054828255906000526020600020908101928215611ffb579160200282015b82811115611ffb578251825473ffffffffffffffffffffffffffffffffffffffff1916600160a060020a03909116178255602090920191600190910190611fb9565b506120079291506120bf565b5090565b828054828255906000526020600020908101928215612046579160200282015b8281111561204657825182559160200191906001019061202b565b506120079291506120f0565b828054600181600116156101000203166002900490600052602060002090601f016020900481019282601f1061209357805160ff1916838001178555612046565b82800160010185558215612046579182018281111561204657825182559160200191906001019061202b565b61097f91905b8082111561200757805473ffffffffffffffffffffffffffffffffffffffff191681556001016120c5565b61097f91905b8082111561200757600081556001016120f65600a165627a7a72305820e03c930a8ffe51e8e1f775e2c983dc7d862eeffcdeea9f180063b7977cb0a09a0029",
  "source": "pragma solidity ^0.4.24;\n\nimport \"../openzeppelin-solidity/contracts/math/SafeMath.sol\";\nimport \"../identity/ERC735.sol\";\nimport \"../RegistryUser.sol\";\nimport \"../registry/TopicRegistry.sol\";\nimport \"../interface/IAchievement.sol\";\nimport \"../interface/IIdentityManager.sol\";\nimport \"../interface/IAttestationAgencyRegistry.sol\";\n\n/**\n * @title AchievementManager\n * @dev AchievementManager Contract used to manage achievement system in metadium\n * The permissinoed participant can CRUD the achievement.\n */\ncontract AchievementManager is RegistryUser {\n    using SafeMath for uint256;\n\n    uint256 public minimumDeposit = 1 * 10 ** 18;\n\n    mapping(bytes32 => Achievement) public achievements; // achievementId => achievement\n    mapping(bytes32 => uint256) public balance; // achievementId => balance\n\n    bytes32[] public allAchievements;\n\n    event CreateAchievement(bytes32 indexed achievementId, uint256[] topics, address[] issuers, uint256 staked, string uri, uint256 timestamp);\n    event UpdateAchievement(bytes32 indexed achievementId, uint256 reward, uint256 charge);\n    event DeleteAchievement(bytes32 indexed achievementId, uint256 refund);\n    event RequestAchievement(bytes32 indexed achievementId, address indexed receiver, uint256 reward);\n\n    struct Achievement {\n        bytes32 id;\n        bytes32 title;\n        address creator;\n        address[] issuers;\n        uint256[] claimTopics;\n        bytes32 explanation;\n        uint256 reward;\n        string uri;\n        uint256 createdAt;\n    }\n\n    function isAAttestationAgency(address _addr) public returns(bool found) {\n        \n        IAttestationAgencyRegistry ar = IAttestationAgencyRegistry(REG.getContractAddress(\"AttestationAgencyRegistry\"));\n        require(ar.isRegistered(_addr) != 0);\n\n        return true;\n    }\n\n    modifier onlyAttestationAgency() {\n        require(isAAttestationAgency(msg.sender));\n        _;\n    }\n\n\n    function AchievementManager() public {\n        THIS_NAME = \"AchievementManager\";\n    }\n\n    /**\n     * @dev Create Achievement. Topics should be registered first.\n     * @param _topics registered topics\n     * @param _issuers issuers for each topic\n     * @param _title title\n     * @param _achievementExplanation achievement explanation\n     * @param _reward reward in meta when user request acievement\n     * @param _uri basically used for ipfs id or something\n     * @return A boolean that indicates if the operation was successful.\n     */\n    function createAchievement(uint256[] _topics, address[] _issuers, bytes32 _title, bytes32 _achievementExplanation, uint256 _reward, string _uri) onlyAttestationAgency public payable returns (bool success) {\n\n        //check if achievement is already registered\n        bytes32 achievementId = getAchievementId(msg.sender, _topics, _issuers);\n        require(achievements[achievementId].id == 0);\n\n        //check staking amount used for reward\n        require(msg.value >= minimumDeposit);\n\n        //topics should be registered already\n        TopicRegistry topicRegistry = TopicRegistry(REG.getContractAddress(\"TopicRegistry\"));\n        for(uint256 i=0;i<_topics.length;i++){\n            require(topicRegistry.isRegistered(_topics[i]), 'topic not registered');\n        }\n        \n        Achievement memory newAc;\n        newAc.id = achievementId;\n        newAc.creator = msg.sender;\n        newAc.issuers = _issuers;\n        newAc.claimTopics = _topics;\n        newAc.title = _title;\n        newAc.explanation = _achievementExplanation;\n        newAc.uri = _uri;\n        newAc.reward = _reward;\n        newAc.createdAt = now;\n\n        achievements[newAc.id] = newAc;\n        allAchievements.push(achievementId);\n        balance[achievementId] = msg.value;\n\n        emit CreateAchievement(achievementId, _topics, _issuers, msg.value, _uri, now);\n\n        return true;\n    }\n\n    //TODO createAchievementWithNewTopics\n    // /**\n    //  * @dev Create Achievement. If topic is not exist, register it to the topic registry.\n    //  * @param _topics registered topics\n    //  * @param _newTopicExaplanations explanations of new topics\n    //  * @param _issuers issuers for each topic\n    //  * @param _achievementExplanation achievement explanation\n    //  * @param _reward reward in meta when user request acievement\n    //  * @param _uri basically used for ipfs id or something\n    //  * @return A boolean that indicates if the operation was successful.\n    //  */\n    // function createAchievementWithNewTopics(uint256[] _topics, bytes32[] _newTopicExaplanations, address[] _issuers, bytes32 _achievementExplanation, uint256 _reward, string _uri) onlyAttestationAgency public payable returns (bool) {\n\n    //     require((_topics.length + _newTopicExaplanations.length) == issuers.length);\n\n    //     //check staking amount used for reward\n    //     require(msg.value >= minimumDeposit);\n    //     TopicRegistry topicRegistry = TopicRegistry(REG.getContractAddress(\"TopicRegistry\"));\n\n    //     uint256[] memory allTopics = new uint[](_topics.length + _newTopicExaplanations.length);\n\n    //     uint256 i;\n    //     for(i=0;i<_topics.length;i++){\n    //         allTopics[i] = _topics[i];\n    //     }\n\n    //     for(i=_topics.length;i<_topics.length+_newTopicExaplanations.length;i++) {\n    //         allTopics[i] = topicRegistry.registerTopic(msg.sender, _newTopicExaplanations[i]);\n    //     }\n\n    //     //check if achievement is already registered\n    //     bytes32 achievementId = getAchievementId(msg.sender, topics, issuers);\n    //     require(achievements[achievementId].id == 0);\n    //     Achievement memory newAc;\n    //     newAc.id = achievementId;\n    //     newAc.creator = msg.sender;\n    //     newAc.issuers = issuers;\n    //     newAc.claimTopics = topics;\n    //     newAc.explanation = achievementExplanation;\n    //     newAc.uri = uri;\n    //     newAc.reward = reward;\n\n    //     achievements[newAc.id] = newAc;\n    //     allAchievements.push(achievementId);\n    //     balance[achievementId] = msg.value;\n\n    //     return true;\n    // }\n    \n\n    /**\n     * @dev Update Achievement. Fund can be charged through this, and reward can be set newly.\n     * @param _achievementId achievementId\n     * @param _reward new reward\n     * @return A boolean that indicates if the operation was successful.\n     */\n    function updateAchievement(bytes32 _achievementId, uint256 _reward) public payable returns (bool success) {\n        //Only creator can charge fund\n        require(achievements[_achievementId].creator == msg.sender);\n\n        achievements[_achievementId].reward = _reward;\n        balance[_achievementId] = msg.value;\n        emit UpdateAchievement(_achievementId, _reward, msg.value);\n        return true;\n    }\n\n    /**\n     * @dev Delete Achievement. This function DOES NOT actually delete achievement.\n     * Just refund to the creator.\n     * @param _achievementId achievementId\n     * @return A boolean that indicates if the operation was successful.\n     */\n    function deleteAchievement(bytes32 _achievementId) public returns (bool success) {\n        //Only creator can refund\n        require(achievements[_achievementId].creator == msg.sender);\n\n        uint256 rest = balance[_achievementId];\n        \n        balance[_achievementId] = 0;\n        msg.sender.transfer(rest);\n        \n        emit DeleteAchievement(_achievementId, rest);\n\n        return true;\n    }\n    /**\n     * @dev Request achievement. If user have proper claims, user get acievement(ERC721) token and meta reward\n     * @param _achievementId _achievementId user want to request\n     * @return A boolean that indicates if the operation was successful.\n     */\n    function requestAchievement(bytes32 _achievementId) public returns (bool success) {\n        // check whether msg.sender is deployed using IdentityManager\n        IIdentityManager im = IIdentityManager(REG.getContractAddress(\"IdentityManager\"));\n        require(im.isMetaId(msg.sender), 'msg.sender is not identity created by IdentityManager');\n        \n        uint256 i;\n        ERC735 identity = ERC735(msg.sender);\n        // // check if sender has enough claims\n        for(i=0;i<achievements[_achievementId].claimTopics.length;i++) {\n            address issuer;\n            // claimId is made by topic and issuer.\n            bytes32 claimId = keccak256(abi.encodePacked(achievements[_achievementId].issuers[i], achievements[_achievementId].claimTopics[i]));\n            (, , issuer, , , ) = identity.getClaim(claimId); // getClaim returns (topic, scheme, issuer, signature, data, uri)\n\n            require(issuer != address(0));\n\n        }\n        \n        // give reward to msg.sender(identity contract)\n        require(balance[_achievementId] >= achievements[_achievementId].reward);\n        balance[_achievementId] = balance[_achievementId].sub(achievements[_achievementId].reward);\n        msg.sender.transfer(achievements[_achievementId].reward);\n\n        // mint achievement erc721 to msg.sender;\n        IAchievement achievement = IAchievement(REG.getContractAddress(\"Achievement\"));\n        require(achievement.mint(msg.sender, uint256(keccak256(abi.encodePacked(msg.sender, _achievementId))), string(abi.encodePacked(now,achievements[_achievementId].uri))));\n        \n        emit RequestAchievement(_achievementId, msg.sender, achievements[_achievementId].reward);\n\n        return true;\n    }\n   \n    function getAllAchievementList() view public returns (bytes32[] list) {\n        return allAchievements;\n    }\n   \n    function getActiveAchievementList() view public returns(bytes32[] list) {\n\n    }\n\n    function getLengthOfAchievements() view public returns(uint256 length) {\n        return allAchievements.length;\n    }\n\n    function getAchievementById(bytes32 _achievementId) view public returns(bytes32 id, address creator, address[] issuers, uint256[] claimTopics, bytes32 title, bytes32 explanation, uint256 reward, string uri, uint256 timestamp) {\n        Achievement memory ac = achievements[_achievementId];\n        return (\n            ac.id, \n            ac.creator, \n            ac.issuers, \n            ac.claimTopics, \n            ac.title, \n            ac.explanation, \n            ac.reward, \n            ac.uri,\n            ac.createdAt\n            );\n    }\n\n    function getAchievementByIndex(uint256 _index) view public returns(bytes32 id, address creator, address[] issuers, uint256[] claimTopics, bytes32 title, bytes32 explanation, uint256 reward, string uri, uint256 timestamp) {\n        bytes32 _achievementId = allAchievements[_index];\n        return (\n            achievements[_achievementId].id, \n            achievements[_achievementId].creator, \n            achievements[_achievementId].issuers, \n            achievements[_achievementId].claimTopics, \n            achievements[_achievementId].title, \n            achievements[_achievementId].explanation, \n            achievements[_achievementId].reward, \n            achievements[_achievementId].uri,\n            achievements[_achievementId].createdAt\n            );\n\n    }\n\n    /**\n     * @dev Get achievement id. an achievement ID is unique with given params.\n     * achievementId = keccak256(abi.encodePacked(creator, topic1, issuer1, topic2, issuer2, ...))\n     * @param creator achievement creator\n     * @param topics topics achievement requirements\n     * @param issuers issuers achievement requirements\n     * @return A boolean that indicates if the operation was successful.\n     */\n    function getAchievementId(address creator, uint256[] topics, address[] issuers) pure public returns(bytes32 id) {\n        bytes memory idBytes;\n        \n        require(topics.length == issuers.length);\n        \n        idBytes = abi.encodePacked(idBytes, creator);\n\n        for(uint i=0;i<topics.length;i++){\n            idBytes = abi.encodePacked(idBytes, topics[i], issuers[i]);\n        }\n        return keccak256(idBytes);\n    }\n\n}\n",
  "sourcePath": "/Users/coinplug/BangGijin/metabolics2.0/contracts/property/AchievementManager.sol",
  "compiler": {
    "name": "solc",
    "version": "0.4.24+commit.e67f0147.Emscripten.clang"
  },
  "schemaVersion": "2.0.1",
  "updatedAt": "2018-10-29T01:33:06.033Z"
}