{
  "contractName": "Achievement",
  "abi": [
    {
      "constant": true,
      "inputs": [
        {
          "name": "_interfaceId",
          "type": "bytes4"
        }
      ],
      "name": "supportsInterface",
      "outputs": [
        {
          "name": "",
          "type": "bool"
        }
      ],
      "payable": false,
      "stateMutability": "view",
      "type": "function"
    },
    {
      "constant": true,
      "inputs": [],
      "name": "name",
      "outputs": [
        {
          "name": "",
          "type": "string"
        }
      ],
      "payable": false,
      "stateMutability": "view",
      "type": "function"
    },
    {
      "constant": true,
      "inputs": [
        {
          "name": "_tokenId",
          "type": "uint256"
        }
      ],
      "name": "getApproved",
      "outputs": [
        {
          "name": "",
          "type": "address"
        }
      ],
      "payable": false,
      "stateMutability": "view",
      "type": "function"
    },
    {
      "constant": true,
      "inputs": [],
      "name": "totalSupply",
      "outputs": [
        {
          "name": "",
          "type": "uint256"
        }
      ],
      "payable": false,
      "stateMutability": "view",
      "type": "function"
    },
    {
      "constant": true,
      "inputs": [],
      "name": "InterfaceId_ERC165",
      "outputs": [
        {
          "name": "",
          "type": "bytes4"
        }
      ],
      "payable": false,
      "stateMutability": "view",
      "type": "function"
    },
    {
      "constant": true,
      "inputs": [
        {
          "name": "_owner",
          "type": "address"
        },
        {
          "name": "_index",
          "type": "uint256"
        }
      ],
      "name": "tokenOfOwnerByIndex",
      "outputs": [
        {
          "name": "",
          "type": "uint256"
        }
      ],
      "payable": false,
      "stateMutability": "view",
      "type": "function"
    },
    {
      "constant": true,
      "inputs": [],
      "name": "REG",
      "outputs": [
        {
          "name": "",
          "type": "address"
        }
      ],
      "payable": false,
      "stateMutability": "view",
      "type": "function"
    },
    {
      "constant": false,
      "inputs": [
        {
          "name": "_addr",
          "type": "address"
        }
      ],
      "name": "isPermitted",
      "outputs": [
        {
          "name": "",
          "type": "bool"
        }
      ],
      "payable": false,
      "stateMutability": "nonpayable",
      "type": "function"
    },
    {
      "constant": true,
      "inputs": [],
      "name": "transferEnabled",
      "outputs": [
        {
          "name": "",
          "type": "bool"
        }
      ],
      "payable": false,
      "stateMutability": "view",
      "type": "function"
    },
    {
      "constant": true,
      "inputs": [
        {
          "name": "_tokenId",
          "type": "uint256"
        }
      ],
      "name": "exists",
      "outputs": [
        {
          "name": "",
          "type": "bool"
        }
      ],
      "payable": false,
      "stateMutability": "view",
      "type": "function"
    },
    {
      "constant": true,
      "inputs": [
        {
          "name": "_index",
          "type": "uint256"
        }
      ],
      "name": "tokenByIndex",
      "outputs": [
        {
          "name": "",
          "type": "uint256"
        }
      ],
      "payable": false,
      "stateMutability": "view",
      "type": "function"
    },
    {
      "constant": true,
      "inputs": [
        {
          "name": "_tokenId",
          "type": "uint256"
        }
      ],
      "name": "ownerOf",
      "outputs": [
        {
          "name": "",
          "type": "address"
        }
      ],
      "payable": false,
      "stateMutability": "view",
      "type": "function"
    },
    {
      "constant": true,
      "inputs": [],
      "name": "THIS_NAME",
      "outputs": [
        {
          "name": "",
          "type": "bytes32"
        }
      ],
      "payable": false,
      "stateMutability": "view",
      "type": "function"
    },
    {
      "constant": true,
      "inputs": [
        {
          "name": "_owner",
          "type": "address"
        }
      ],
      "name": "balanceOf",
      "outputs": [
        {
          "name": "",
          "type": "uint256"
        }
      ],
      "payable": false,
      "stateMutability": "view",
      "type": "function"
    },
    {
      "constant": true,
      "inputs": [],
      "name": "owner",
      "outputs": [
        {
          "name": "",
          "type": "address"
        }
      ],
      "payable": false,
      "stateMutability": "view",
      "type": "function"
    },
    {
      "constant": true,
      "inputs": [],
      "name": "symbol",
      "outputs": [
        {
          "name": "",
          "type": "string"
        }
      ],
      "payable": false,
      "stateMutability": "view",
      "type": "function"
    },
    {
      "constant": false,
      "inputs": [
        {
          "name": "_addr",
          "type": "address"
        }
      ],
      "name": "setRegistry",
      "outputs": [],
      "payable": false,
      "stateMutability": "nonpayable",
      "type": "function"
    },
    {
      "constant": true,
      "inputs": [
        {
          "name": "_tokenId",
          "type": "uint256"
        }
      ],
      "name": "tokenURI",
      "outputs": [
        {
          "name": "",
          "type": "string"
        }
      ],
      "payable": false,
      "stateMutability": "view",
      "type": "function"
    },
    {
      "constant": true,
      "inputs": [
        {
          "name": "_owner",
          "type": "address"
        },
        {
          "name": "_operator",
          "type": "address"
        }
      ],
      "name": "isApprovedForAll",
      "outputs": [
        {
          "name": "",
          "type": "bool"
        }
      ],
      "payable": false,
      "stateMutability": "view",
      "type": "function"
    },
    {
      "constant": false,
      "inputs": [
        {
          "name": "newOwner",
          "type": "address"
        }
      ],
      "name": "transferOwnership",
      "outputs": [],
      "payable": false,
      "stateMutability": "nonpayable",
      "type": "function"
    },
    {
      "inputs": [
        {
          "name": "name",
          "type": "string"
        },
        {
          "name": "symbol",
          "type": "string"
        }
      ],
      "payable": false,
      "stateMutability": "nonpayable",
      "type": "constructor"
    },
    {
      "anonymous": false,
      "inputs": [
        {
          "indexed": true,
          "name": "owner",
          "type": "address"
        },
        {
          "indexed": true,
          "name": "metaID",
          "type": "uint256"
        }
      ],
      "name": "Mint",
      "type": "event"
    },
    {
      "anonymous": false,
      "inputs": [
        {
          "indexed": true,
          "name": "owner",
          "type": "address"
        },
        {
          "indexed": true,
          "name": "metaID",
          "type": "uint256"
        }
      ],
      "name": "Burn",
      "type": "event"
    },
    {
      "anonymous": false,
      "inputs": [
        {
          "indexed": false,
          "name": "addr",
          "type": "address"
        },
        {
          "indexed": false,
          "name": "name",
          "type": "bytes32"
        },
        {
          "indexed": false,
          "name": "go",
          "type": "bool"
        }
      ],
      "name": "Per",
      "type": "event"
    },
    {
      "anonymous": false,
      "inputs": [
        {
          "indexed": true,
          "name": "previousOwner",
          "type": "address"
        },
        {
          "indexed": true,
          "name": "newOwner",
          "type": "address"
        }
      ],
      "name": "OwnershipTransferred",
      "type": "event"
    },
    {
      "anonymous": false,
      "inputs": [
        {
          "indexed": true,
          "name": "_from",
          "type": "address"
        },
        {
          "indexed": true,
          "name": "_to",
          "type": "address"
        },
        {
          "indexed": true,
          "name": "_tokenId",
          "type": "uint256"
        }
      ],
      "name": "Transfer",
      "type": "event"
    },
    {
      "anonymous": false,
      "inputs": [
        {
          "indexed": true,
          "name": "_owner",
          "type": "address"
        },
        {
          "indexed": true,
          "name": "_approved",
          "type": "address"
        },
        {
          "indexed": true,
          "name": "_tokenId",
          "type": "uint256"
        }
      ],
      "name": "Approval",
      "type": "event"
    },
    {
      "anonymous": false,
      "inputs": [
        {
          "indexed": true,
          "name": "_owner",
          "type": "address"
        },
        {
          "indexed": true,
          "name": "_operator",
          "type": "address"
        },
        {
          "indexed": false,
          "name": "_approved",
          "type": "bool"
        }
      ],
      "name": "ApprovalForAll",
      "type": "event"
    },
    {
      "constant": false,
      "inputs": [
        {
          "name": "_to",
          "type": "address"
        },
        {
          "name": "_tokenId",
          "type": "uint256"
        },
        {
          "name": "_uri",
          "type": "string"
        }
      ],
      "name": "mint",
      "outputs": [
        {
          "name": "",
          "type": "bool"
        }
      ],
      "payable": false,
      "stateMutability": "nonpayable",
      "type": "function"
    },
    {
      "constant": false,
      "inputs": [
        {
          "name": "_tokenId",
          "type": "uint256"
        }
      ],
      "name": "burn",
      "outputs": [
        {
          "name": "",
          "type": "bool"
        }
      ],
      "payable": false,
      "stateMutability": "nonpayable",
      "type": "function"
    },
    {
      "constant": false,
      "inputs": [],
      "name": "enableTransfer",
      "outputs": [
        {
          "name": "",
          "type": "bool"
        }
      ],
      "payable": false,
      "stateMutability": "nonpayable",
      "type": "function"
    },
    {
      "constant": false,
      "inputs": [],
      "name": "disableTransfer",
      "outputs": [
        {
          "name": "",
          "type": "bool"
        }
      ],
      "payable": false,
      "stateMutability": "nonpayable",
      "type": "function"
    },
    {
      "constant": true,
      "inputs": [
        {
          "name": "_tokenId",
          "type": "uint256"
        }
      ],
      "name": "tokenURIAsBytes",
      "outputs": [
        {
          "name": "",
          "type": "bytes"
        }
      ],
      "payable": false,
      "stateMutability": "view",
      "type": "function"
    },
    {
      "constant": false,
      "inputs": [
        {
          "name": "_from",
          "type": "address"
        },
        {
          "name": "_to",
          "type": "address"
        },
        {
          "name": "_tokenId",
          "type": "uint256"
        }
      ],
      "name": "transferFrom",
      "outputs": [],
      "payable": false,
      "stateMutability": "nonpayable",
      "type": "function"
    },
    {
      "constant": false,
      "inputs": [
        {
          "name": "_from",
          "type": "address"
        },
        {
          "name": "_to",
          "type": "address"
        },
        {
          "name": "_tokenId",
          "type": "uint256"
        }
      ],
      "name": "safeTransferFrom",
      "outputs": [],
      "payable": false,
      "stateMutability": "nonpayable",
      "type": "function"
    },
    {
      "constant": false,
      "inputs": [
        {
          "name": "_from",
          "type": "address"
        },
        {
          "name": "_to",
          "type": "address"
        },
        {
          "name": "_tokenId",
          "type": "uint256"
        },
        {
          "name": "_data",
          "type": "bytes"
        }
      ],
      "name": "safeTransferFrom",
      "outputs": [],
      "payable": false,
      "stateMutability": "nonpayable",
      "type": "function"
    },
    {
      "constant": false,
      "inputs": [
        {
          "name": "_to",
          "type": "address"
        },
        {
          "name": "_tokenId",
          "type": "uint256"
        }
      ],
      "name": "approve",
      "outputs": [],
      "payable": false,
      "stateMutability": "nonpayable",
      "type": "function"
    },
    {
      "constant": false,
      "inputs": [
        {
          "name": "_operator",
          "type": "address"
        },
        {
          "name": "_approved",
          "type": "bool"
        }
      ],
      "name": "setApprovalForAll",
      "outputs": [],
      "payable": false,
      "stateMutability": "nonpayable",
      "type": "function"
    }
  ],
  "bytecode": "0x6080604052600f805460ff191690553480156200001b57600080fd5b5060405162001c9538038062001c95833981016040528051602082015190820191018181620000737f01ffc9a700000000000000000000000000000000000000000000000000000000640100000000620001af810204565b620000a77f80ac58cd00000000000000000000000000000000000000000000000000000000640100000000620001af810204565b620000db7f4f558e7900000000000000000000000000000000000000000000000000000000640100000000620001af810204565b8151620000f09060059060208501906200021c565b508051620001069060069060208401906200021c565b506200013b7f780e9d6300000000000000000000000000000000000000000000000000000000640100000000620001af810204565b6200016f7f5b5e139f00000000000000000000000000000000000000000000000000000000640100000000620001af810204565b5050600c8054600160a060020a0319163317905550507f416368696576656d656e74000000000000000000000000000000000000000000600e55620002c1565b7fffffffff000000000000000000000000000000000000000000000000000000008082161415620001df57600080fd5b7fffffffff00000000000000000000000000000000000000000000000000000000166000908152602081905260409020805460ff19166001179055565b828054600181600116156101000203166002900490600052602060002090601f016020900481019282601f106200025f57805160ff19168380011785556200028f565b828001600101855582156200028f579182015b828111156200028f57825182559160200191906001019062000272565b506200029d929150620002a1565b5090565b620002be91905b808211156200029d5760008155600101620002a8565b90565b6119c480620002d16000396000f30060806040526004361061017f5763ffffffff7c010000000000000000000000000000000000000000000000000000000060003504166301ffc9a7811461018457806306fdde03146101ba578063081812fc14610244578063095ea7b314610278578063108f96df1461029e57806318160ddd146102b657806319fa8f50146102dd57806323b872dd1461030f5780632f745c5914610339578063393631121461035d5780633fd8cc4e1461037257806342842e0e1461039357806342966c68146103bd5780634cd412d5146103d55780634f558e79146103ea5780634f6ccce7146104025780636352211e1461041a57806364319d0b1461043257806370a08231146104475780638da5cb5b1461046857806395d89b411461047d578063a22cb46514610492578063a91ee0dc146104b8578063b187984f146104d9578063b88d4fde146104ee578063c87b56dd1461029e578063d3fc98641461055d578063e985e9c5146105c6578063f1b50c1d146105ed578063f2fde38b14610602575b600080fd5b34801561019057600080fd5b506101a6600160e060020a031960043516610623565b604080519115158252519081900360200190f35b3480156101c657600080fd5b506101cf610642565b6040805160208082528351818301528351919283929083019185019080838360005b838110156102095781810151838201526020016101f1565b50505050905090810190601f1680156102365780820380516001836020036101000a031916815260200191505b509250505060405180910390f35b34801561025057600080fd5b5061025c6004356106d9565b60408051600160a060020a039092168252519081900360200190f35b34801561028457600080fd5b5061029c600160a060020a03600435166024356106f4565b005b3480156102aa57600080fd5b506101cf6004356107a0565b3480156102c257600080fd5b506102cb610855565b60408051918252519081900360200190f35b3480156102e957600080fd5b506102f261085b565b60408051600160e060020a03199092168252519081900360200190f35b34801561031b57600080fd5b5061029c600160a060020a036004358116906024351660443561087f565b34801561034557600080fd5b506102cb600160a060020a036004351660243561092d565b34801561036957600080fd5b5061025c61097a565b34801561037e57600080fd5b506101a6600160a060020a0360043516610989565b34801561039f57600080fd5b5061029c600160a060020a0360043581169060243516604435610a1a565b3480156103c957600080fd5b506101a6600435610ac3565b3480156103e157600080fd5b506101a6610b32565b3480156103f657600080fd5b506101a6600435610b3b565b34801561040e57600080fd5b506102cb600435610b58565b34801561042657600080fd5b5061025c600435610b8d565b34801561043e57600080fd5b506102cb610bb7565b34801561045357600080fd5b506102cb600160a060020a0360043516610bbd565b34801561047457600080fd5b5061025c610bf0565b34801561048957600080fd5b506101cf610bff565b34801561049e57600080fd5b5061029c600160a060020a03600435166024351515610c60565b3480156104c457600080fd5b5061029c600160a060020a0360043516610d08565b3480156104e557600080fd5b506101a6610d4e565b3480156104fa57600080fd5b50604080516020601f60643560048181013592830184900484028501840190955281845261029c94600160a060020a038135811695602480359092169560443595369560849401918190840183828082843750949750610d749650505050505050565b34801561056957600080fd5b50604080516020600460443581810135601f81018490048402850184019095528484526101a6948235600160a060020a0316946024803595369594606494920191908190840183828082843750949750610e249650505050505050565b3480156105d257600080fd5b506101a6600160a060020a0360043581169060243516610e8e565b3480156105f957600080fd5b506101a6610ebc565b34801561060e57600080fd5b5061029c600160a060020a0360043516610ee6565b600160e060020a03191660009081526020819052604090205460ff1690565b60058054604080516020601f60026000196101006001881615020190951694909404938401819004810282018101909252828152606093909290918301828280156106ce5780601f106106a3576101008083540402835291602001916106ce565b820191906000526020600020905b8154815290600101906020018083116106b157829003601f168201915b505050505090505b90565b600090815260026020526040902054600160a060020a031690565b600f5460ff16806107875750600d54600e546040805160e060020a6360d6c7cf028152600481019290925233602483015251600160a060020a03909216916360d6c7cf916044808201926020929091908290030181600087803b15801561075a57600080fd5b505af115801561076e573d6000803e3d6000fd5b505050506040513d602081101561078457600080fd5b50515b151561079257600080fd5b61079c8282610f7b565b5050565b60606107ab82610b3b565b15156107b657600080fd5b6000828152600b602090815260409182902080548351601f6002600019610100600186161502019093169290920491820184900484028101840190945280845290918301828280156108495780601f1061081e57610100808354040283529160200191610849565b820191906000526020600020905b81548152906001019060200180831161082c57829003601f168201915b50505050509050919050565b60095490565b7f01ffc9a70000000000000000000000000000000000000000000000000000000081565b600f5460ff16806109125750600d54600e546040805160e060020a6360d6c7cf028152600481019290925233602483015251600160a060020a03909216916360d6c7cf916044808201926020929091908290030181600087803b1580156108e557600080fd5b505af11580156108f9573d6000803e3d6000fd5b505050506040513d602081101561090f57600080fd5b50515b151561091d57600080fd5b610928838383611031565b505050565b600061093883610bbd565b821061094357600080fd5b600160a060020a038316600090815260076020526040902080548390811061096757fe5b9060005260206000200154905092915050565b600d54600160a060020a031681565b600d54600e546040805160e060020a6360d6c7cf0281526004810192909252600160a060020a038481166024840152905160009391909116916360d6c7cf91604480830192602092919082900301818787803b1580156109e857600080fd5b505af11580156109fc573d6000803e3d6000fd5b505050506040513d6020811015610a1257600080fd5b505192915050565b600f5460ff1680610aad5750600d54600e546040805160e060020a6360d6c7cf028152600481019290925233602483015251600160a060020a03909216916360d6c7cf916044808201926020929091908290030181600087803b158015610a8057600080fd5b505af1158015610a94573d6000803e3d6000fd5b505050506040513d6020811015610aaa57600080fd5b50515b1515610ab857600080fd5b6109288383836110d4565b6000610ace33610989565b1515610ad957600080fd5b610aeb610ae583610b8d565b836110f0565b81610af583610b8d565b600160a060020a03167fcc16f5dbb4873280815c1ee09dbd06736cffcc184412cf7a71a0fdb75d397ca560405160405180910390a3506001919050565b600f5460ff1681565b600090815260016020526040902054600160a060020a0316151590565b6000610b62610855565b8210610b6d57600080fd5b6009805483908110610b7b57fe5b90600052602060002001549050919050565b600081815260016020526040812054600160a060020a0316801515610bb157600080fd5b92915050565b600e5481565b6000600160a060020a0382161515610bd457600080fd5b50600160a060020a031660009081526003602052604090205490565b600c54600160a060020a031681565b60068054604080516020601f60026000196101006001881615020190951694909404938401819004810282018101909252828152606093909290918301828280156106ce5780601f106106a3576101008083540402835291602001916106ce565b600f5460ff1680610cf35750600d54600e546040805160e060020a6360d6c7cf028152600481019290925233602483015251600160a060020a03909216916360d6c7cf916044808201926020929091908290030181600087803b158015610cc657600080fd5b505af1158015610cda573d6000803e3d6000fd5b505050506040513d6020811015610cf057600080fd5b50515b1515610cfe57600080fd5b61079c82826111ea565b600c54600160a060020a03163314610d1f57600080fd5b600d805473ffffffffffffffffffffffffffffffffffffffff1916600160a060020a0392909216919091179055565b6000610d5933610989565b1515610d6457600080fd5b50600f805460ff19169055600190565b600f5460ff1680610e075750600d54600e546040805160e060020a6360d6c7cf028152600481019290925233602483015251600160a060020a03909216916360d6c7cf916044808201926020929091908290030181600087803b158015610dda57600080fd5b505af1158015610dee573d6000803e3d6000fd5b505050506040513d6020811015610e0457600080fd5b50515b1515610e1257600080fd5b610e1e8484848461126e565b50505050565b6000610e2f33610989565b1515610e3a57600080fd5b610e448484611290565b610e4e83836112df565b6040518390600160a060020a038616907f0f6798a560793a54c3bcfe86a93cde1e73087d944c0ea20544137d412139688590600090a35060019392505050565b600160a060020a03918216600090815260046020908152604080832093909416825291909152205460ff1690565b6000610ec733610989565b1515610ed257600080fd5b50600f805460ff1916600190811790915590565b600c54600160a060020a03163314610efd57600080fd5b600160a060020a0381161515610f1257600080fd5b600c54604051600160a060020a038084169216907f8be0079c531659141344cd1fd0a4f28419497f9722a3daafe3b4186f6b6457e090600090a3600c805473ffffffffffffffffffffffffffffffffffffffff1916600160a060020a0392909216919091179055565b6000610f8682610b8d565b9050600160a060020a038381169082161415610fa157600080fd5b33600160a060020a0382161480610fbd5750610fbd8133610e8e565b1515610fc857600080fd5b600082815260026020526040808220805473ffffffffffffffffffffffffffffffffffffffff1916600160a060020a0387811691821790925591518593918516917f8c5be1e5ebec7d5bd14f71427d1e84f3dd0314c0f7b2291e5b200ac8c7c3b92591a4505050565b61103b3382611312565b151561104657600080fd5b600160a060020a038316151561105b57600080fd5b600160a060020a038216151561107057600080fd5b61107a8382611371565b61108483826113e0565b61108e82826114e7565b8082600160a060020a031684600160a060020a03167fddf252ad1be2c89b69c2b068fc378daa952ba7f163c4a11628f55a4df523b3ef60405160405180910390a4505050565b6109288383836020604051908101604052806000815250610d74565b60008060006110ff8585611530565b6000848152600b6020526040902054600260001961010060018416150201909116041561113d576000848152600b6020526040812061113d91611895565b6000848152600a602052604090205460095490935061116390600163ffffffff61158016565b915060098281548110151561117457fe5b906000526020600020015490508060098481548110151561119157fe5b600091825260208220019190915560098054849081106111ad57fe5b60009182526020909120015560098054906111cc9060001983016118dc565b506000938452600a6020526040808520859055908452909220555050565b600160a060020a03821633141561120057600080fd5b336000818152600460209081526040808320600160a060020a03871680855290835292819020805460ff1916861515908117909155815190815290519293927f17307eab39ab6107e8899845ad3d59bd9653f200f220920489ca2b5937696c31929181900390910190a35050565b61127984848461087f565b61128584848484611592565b1515610e1e57600080fd5b61129a82826116ff565b600980546000838152600a60205260408120829055600182018355919091527f6e1540171b6c0c960b71a7020d9f60077f6af931a8bbf590da0223dacf75c7af015550565b6112e882610b3b565b15156112f357600080fd5b6000828152600b60209081526040909120825161092892840190611900565b60008061131e83610b8d565b905080600160a060020a031684600160a060020a03161480611359575083600160a060020a031661134e846106d9565b600160a060020a0316145b8061136957506113698185610e8e565b949350505050565b81600160a060020a031661138482610b8d565b600160a060020a03161461139757600080fd5b600081815260026020526040902054600160a060020a03161561079c576000908152600260205260409020805473ffffffffffffffffffffffffffffffffffffffff1916905550565b60008060006113ef858561175a565b600084815260086020908152604080832054600160a060020a038916845260079092529091205490935061142a90600163ffffffff61158016565b600160a060020a03861660009081526007602052604090208054919350908390811061145257fe5b90600052602060002001549050806007600087600160a060020a0316600160a060020a031681526020019081526020016000208481548110151561149257fe5b6000918252602080832090910192909255600160a060020a03871681526007909152604090208054906114c99060001983016118dc565b50600093845260086020526040808520859055908452909220555050565b60006114f383836117f0565b50600160a060020a039091166000908152600760209081526040808320805460018101825590845282842081018590559383526008909152902055565b61153a8282611371565b61154482826113e0565b6040518190600090600160a060020a038516907fddf252ad1be2c89b69c2b068fc378daa952ba7f163c4a11628f55a4df523b3ef908390a45050565b60008282111561158c57fe5b50900390565b6000806115a785600160a060020a0316611880565b15156115b657600191506116f6565b6040517f150b7a020000000000000000000000000000000000000000000000000000000081523360048201818152600160a060020a03898116602485015260448401889052608060648501908152875160848601528751918a169463150b7a0294938c938b938b93909160a490910190602085019080838360005b83811015611649578181015183820152602001611631565b50505050905090810190601f1680156116765780820380516001836020036101000a031916815260200191505b5095505050505050602060405180830381600087803b15801561169857600080fd5b505af11580156116ac573d6000803e3d6000fd5b505050506040513d60208110156116c257600080fd5b5051600160e060020a031981167f150b7a020000000000000000000000000000000000000000000000000000000014925090505b50949350505050565b600160a060020a038216151561171457600080fd5b61171e82826114e7565b6040518190600160a060020a038416906000907fddf252ad1be2c89b69c2b068fc378daa952ba7f163c4a11628f55a4df523b3ef908290a45050565b81600160a060020a031661176d82610b8d565b600160a060020a03161461178057600080fd5b600160a060020a0382166000908152600360205260409020546117aa90600163ffffffff61158016565b600160a060020a03909216600090815260036020908152604080832094909455918152600190915220805473ffffffffffffffffffffffffffffffffffffffff19169055565b600081815260016020526040902054600160a060020a03161561181257600080fd5b6000818152600160208181526040808420805473ffffffffffffffffffffffffffffffffffffffff1916600160a060020a038816908117909155845260039091529091205461186091611888565b600160a060020a0390921660009081526003602052604090209190915550565b6000903b1190565b81810182811015610bb157fe5b50805460018160011615610100020316600290046000825580601f106118bb57506118d9565b601f0160209004906000526020600020908101906118d9919061197e565b50565b8154818355818111156109285760008381526020902061092891810190830161197e565b828054600181600116156101000203166002900490600052602060002090601f016020900481019282601f1061194157805160ff191683800117855561196e565b8280016001018555821561196e579182015b8281111561196e578251825591602001919060010190611953565b5061197a92915061197e565b5090565b6106d691905b8082111561197a57600081556001016119845600a165627a7a723058209a0332ba341d17bf837f2f65a400b3b6408173529081a5b9dbe785362c1fc8a30029",
  "source": "pragma solidity ^0.4.24;\n\nimport \"../openzeppelin-solidity/contracts/token/ERC721/ERC721Token.sol\";\nimport \"../openzeppelin-solidity/contracts/ownership/Ownable.sol\";\nimport \"../RegistryUser.sol\";\n\n/**\n * @title MetaID\n * This provides a public mint and burn functions for testing purposes,\n * and a public setter for metadata URI\n */\ncontract Achievement is ERC721Token, RegistryUser {\n    event Mint(address indexed owner, uint256 indexed metaID);\n    event Burn(address indexed owner, uint256 indexed metaID);\n    \n    bool public transferEnabled = false;\n\n    modifier isTradable() {\n        require(transferEnabled || REG.getPermission(THIS_NAME, msg.sender));\n        _;\n    }\n    function Achievement(string name, string symbol) public ERC721Token(name, symbol){\n        THIS_NAME = \"Achievement\";\n    }\n\n    /**\n     * @dev Function to mint ERC721 Token.\n     * @param _to The address that will receive the minted tokens.\n     * @param _tokenId the token index of newly minted token.\n     * @param _uri the metaID that the newly minted token would get.\n     * @return A boolean that indicates if the operation was successful.\n     */\n    function mint(address _to, uint256 _tokenId, string _uri) permissioned public returns (bool) {\n        super._mint(_to, _tokenId);\n        super._setTokenURI(_tokenId, _uri);\n        emit Mint(_to, _tokenId);\n        return true;\n    }\n\n    /**\n     * @dev Function to burn ERC721 Token.\n     * @param _tokenId the token index of burning token.\n     * @return A boolean that indicates if the operation was successful.\n     */\n    function burn(uint256 _tokenId) permissioned public returns (bool){\n        super._burn(ownerOf(_tokenId), _tokenId);\n        emit Burn(ownerOf(_tokenId), _tokenId);\n        return true;\n    }\n\n    function enableTransfer() permissioned public returns (bool) {\n        transferEnabled = true;\n        return true;\n    }\n\n    function disableTransfer() permissioned public returns (bool) {\n        transferEnabled = false;\n        return true;\n    }\n    /**\n     * @dev Returns an URI as bytes for a given token ID\n     * @dev Throws if the token ID does not exist. May return an empty string.\n     * @param _tokenId uint256 ID of the token to query\n     */\n    function tokenURIAsBytes(uint256 _tokenId) public view returns (bytes) {\n        require(exists(_tokenId));\n        return bytes(tokenURIs[_tokenId]);\n    }\n\n    function transferFrom(address _from, address _to, uint256 _tokenId) isTradable public {\n        super.transferFrom(_from, _to, _tokenId);\n    }\n\n    function safeTransferFrom(address _from, address _to, uint256 _tokenId) isTradable public {\n        super.safeTransferFrom(_from, _to, _tokenId);\n    }\n\n    function safeTransferFrom(address _from, address _to, uint256 _tokenId, bytes _data) isTradable public {\n        super.safeTransferFrom(_from, _to, _tokenId, _data);\n    }\n    \n\n    function approve(address _to, uint256 _tokenId) isTradable public{\n        super.approve(_to, _tokenId);\n    }\n\n    function setApprovalForAll(address _operator, bool _approved) isTradable public {\n        super.setApprovalForAll(_operator, _approved);\n    }\n}\n",
  "sourcePath": "/Users/coinplug/BangGijin/metabolics2.0/contracts/property/Achievement.sol",
  "compiler": {
    "name": "solc",
    "version": "0.4.24+commit.e67f0147.Emscripten.clang"
  },
  "schemaVersion": "2.0.1",
  "updatedAt": "2018-10-22T08:34:59.753Z"
}