{
  "contractName": "Achievement",
  "abi": [
    {
      "constant": true,
      "inputs": [
        {
          "name": "_interfaceId",
          "type": "bytes4"
        }
      ],
      "name": "supportsInterface",
      "outputs": [
        {
          "name": "",
          "type": "bool"
        }
      ],
      "payable": false,
      "stateMutability": "view",
      "type": "function"
    },
    {
      "constant": true,
      "inputs": [],
      "name": "name",
      "outputs": [
        {
          "name": "",
          "type": "string"
        }
      ],
      "payable": false,
      "stateMutability": "view",
      "type": "function"
    },
    {
      "constant": true,
      "inputs": [
        {
          "name": "_tokenId",
          "type": "uint256"
        }
      ],
      "name": "getApproved",
      "outputs": [
        {
          "name": "",
          "type": "address"
        }
      ],
      "payable": false,
      "stateMutability": "view",
      "type": "function"
    },
    {
      "constant": true,
      "inputs": [],
      "name": "totalSupply",
      "outputs": [
        {
          "name": "",
          "type": "uint256"
        }
      ],
      "payable": false,
      "stateMutability": "view",
      "type": "function"
    },
    {
      "constant": true,
      "inputs": [],
      "name": "InterfaceId_ERC165",
      "outputs": [
        {
          "name": "",
          "type": "bytes4"
        }
      ],
      "payable": false,
      "stateMutability": "view",
      "type": "function"
    },
    {
      "constant": true,
      "inputs": [
        {
          "name": "_owner",
          "type": "address"
        },
        {
          "name": "_index",
          "type": "uint256"
        }
      ],
      "name": "tokenOfOwnerByIndex",
      "outputs": [
        {
          "name": "",
          "type": "uint256"
        }
      ],
      "payable": false,
      "stateMutability": "view",
      "type": "function"
    },
    {
      "constant": true,
      "inputs": [],
      "name": "REG",
      "outputs": [
        {
          "name": "",
          "type": "address"
        }
      ],
      "payable": false,
      "stateMutability": "view",
      "type": "function"
    },
    {
      "constant": true,
      "inputs": [
        {
          "name": "_addr",
          "type": "address"
        }
      ],
      "name": "isPermitted",
      "outputs": [
        {
          "name": "found",
          "type": "bool"
        }
      ],
      "payable": false,
      "stateMutability": "view",
      "type": "function"
    },
    {
      "constant": true,
      "inputs": [],
      "name": "transferEnabled",
      "outputs": [
        {
          "name": "",
          "type": "bool"
        }
      ],
      "payable": false,
      "stateMutability": "view",
      "type": "function"
    },
    {
      "constant": true,
      "inputs": [
        {
          "name": "_tokenId",
          "type": "uint256"
        }
      ],
      "name": "exists",
      "outputs": [
        {
          "name": "",
          "type": "bool"
        }
      ],
      "payable": false,
      "stateMutability": "view",
      "type": "function"
    },
    {
      "constant": true,
      "inputs": [
        {
          "name": "_index",
          "type": "uint256"
        }
      ],
      "name": "tokenByIndex",
      "outputs": [
        {
          "name": "",
          "type": "uint256"
        }
      ],
      "payable": false,
      "stateMutability": "view",
      "type": "function"
    },
    {
      "constant": true,
      "inputs": [
        {
          "name": "_tokenId",
          "type": "uint256"
        }
      ],
      "name": "ownerOf",
      "outputs": [
        {
          "name": "",
          "type": "address"
        }
      ],
      "payable": false,
      "stateMutability": "view",
      "type": "function"
    },
    {
      "constant": true,
      "inputs": [],
      "name": "THIS_NAME",
      "outputs": [
        {
          "name": "",
          "type": "bytes32"
        }
      ],
      "payable": false,
      "stateMutability": "view",
      "type": "function"
    },
    {
      "constant": true,
      "inputs": [
        {
          "name": "_owner",
          "type": "address"
        }
      ],
      "name": "balanceOf",
      "outputs": [
        {
          "name": "",
          "type": "uint256"
        }
      ],
      "payable": false,
      "stateMutability": "view",
      "type": "function"
    },
    {
      "constant": true,
      "inputs": [],
      "name": "owner",
      "outputs": [
        {
          "name": "",
          "type": "address"
        }
      ],
      "payable": false,
      "stateMutability": "view",
      "type": "function"
    },
    {
      "constant": true,
      "inputs": [],
      "name": "symbol",
      "outputs": [
        {
          "name": "",
          "type": "string"
        }
      ],
      "payable": false,
      "stateMutability": "view",
      "type": "function"
    },
    {
      "constant": false,
      "inputs": [
        {
          "name": "_addr",
          "type": "address"
        }
      ],
      "name": "setRegistry",
      "outputs": [],
      "payable": false,
      "stateMutability": "nonpayable",
      "type": "function"
    },
    {
      "constant": true,
      "inputs": [
        {
          "name": "_tokenId",
          "type": "uint256"
        }
      ],
      "name": "tokenURI",
      "outputs": [
        {
          "name": "",
          "type": "string"
        }
      ],
      "payable": false,
      "stateMutability": "view",
      "type": "function"
    },
    {
      "constant": true,
      "inputs": [
        {
          "name": "_owner",
          "type": "address"
        },
        {
          "name": "_operator",
          "type": "address"
        }
      ],
      "name": "isApprovedForAll",
      "outputs": [
        {
          "name": "",
          "type": "bool"
        }
      ],
      "payable": false,
      "stateMutability": "view",
      "type": "function"
    },
    {
      "constant": false,
      "inputs": [
        {
          "name": "newOwner",
          "type": "address"
        }
      ],
      "name": "transferOwnership",
      "outputs": [],
      "payable": false,
      "stateMutability": "nonpayable",
      "type": "function"
    },
    {
      "inputs": [
        {
          "name": "name",
          "type": "string"
        },
        {
          "name": "symbol",
          "type": "string"
        }
      ],
      "payable": false,
      "stateMutability": "nonpayable",
      "type": "constructor"
    },
    {
      "anonymous": false,
      "inputs": [
        {
          "indexed": true,
          "name": "owner",
          "type": "address"
        },
        {
          "indexed": true,
          "name": "metaID",
          "type": "uint256"
        }
      ],
      "name": "Mint",
      "type": "event"
    },
    {
      "anonymous": false,
      "inputs": [
        {
          "indexed": true,
          "name": "owner",
          "type": "address"
        },
        {
          "indexed": true,
          "name": "metaID",
          "type": "uint256"
        }
      ],
      "name": "Burn",
      "type": "event"
    },
    {
      "anonymous": false,
      "inputs": [
        {
          "indexed": true,
          "name": "previousOwner",
          "type": "address"
        },
        {
          "indexed": true,
          "name": "newOwner",
          "type": "address"
        }
      ],
      "name": "OwnershipTransferred",
      "type": "event"
    },
    {
      "anonymous": false,
      "inputs": [
        {
          "indexed": true,
          "name": "_from",
          "type": "address"
        },
        {
          "indexed": true,
          "name": "_to",
          "type": "address"
        },
        {
          "indexed": true,
          "name": "_tokenId",
          "type": "uint256"
        }
      ],
      "name": "Transfer",
      "type": "event"
    },
    {
      "anonymous": false,
      "inputs": [
        {
          "indexed": true,
          "name": "_owner",
          "type": "address"
        },
        {
          "indexed": true,
          "name": "_approved",
          "type": "address"
        },
        {
          "indexed": true,
          "name": "_tokenId",
          "type": "uint256"
        }
      ],
      "name": "Approval",
      "type": "event"
    },
    {
      "anonymous": false,
      "inputs": [
        {
          "indexed": true,
          "name": "_owner",
          "type": "address"
        },
        {
          "indexed": true,
          "name": "_operator",
          "type": "address"
        },
        {
          "indexed": false,
          "name": "_approved",
          "type": "bool"
        }
      ],
      "name": "ApprovalForAll",
      "type": "event"
    },
    {
      "constant": false,
      "inputs": [
        {
          "name": "_to",
          "type": "address"
        },
        {
          "name": "_tokenId",
          "type": "uint256"
        },
        {
          "name": "_uri",
          "type": "string"
        }
      ],
      "name": "mint",
      "outputs": [
        {
          "name": "success",
          "type": "bool"
        }
      ],
      "payable": false,
      "stateMutability": "nonpayable",
      "type": "function"
    },
    {
      "constant": false,
      "inputs": [
        {
          "name": "_tokenId",
          "type": "uint256"
        }
      ],
      "name": "burn",
      "outputs": [
        {
          "name": "success",
          "type": "bool"
        }
      ],
      "payable": false,
      "stateMutability": "nonpayable",
      "type": "function"
    },
    {
      "constant": false,
      "inputs": [],
      "name": "enableTransfer",
      "outputs": [
        {
          "name": "success",
          "type": "bool"
        }
      ],
      "payable": false,
      "stateMutability": "nonpayable",
      "type": "function"
    },
    {
      "constant": false,
      "inputs": [],
      "name": "disableTransfer",
      "outputs": [
        {
          "name": "success",
          "type": "bool"
        }
      ],
      "payable": false,
      "stateMutability": "nonpayable",
      "type": "function"
    },
    {
      "constant": true,
      "inputs": [
        {
          "name": "_tokenId",
          "type": "uint256"
        }
      ],
      "name": "tokenURIAsBytes",
      "outputs": [
        {
          "name": "uri",
          "type": "bytes"
        }
      ],
      "payable": false,
      "stateMutability": "view",
      "type": "function"
    },
    {
      "constant": false,
      "inputs": [
        {
          "name": "_from",
          "type": "address"
        },
        {
          "name": "_to",
          "type": "address"
        },
        {
          "name": "_tokenId",
          "type": "uint256"
        }
      ],
      "name": "transferFrom",
      "outputs": [],
      "payable": false,
      "stateMutability": "nonpayable",
      "type": "function"
    },
    {
      "constant": false,
      "inputs": [
        {
          "name": "_from",
          "type": "address"
        },
        {
          "name": "_to",
          "type": "address"
        },
        {
          "name": "_tokenId",
          "type": "uint256"
        }
      ],
      "name": "safeTransferFrom",
      "outputs": [],
      "payable": false,
      "stateMutability": "nonpayable",
      "type": "function"
    },
    {
      "constant": false,
      "inputs": [
        {
          "name": "_from",
          "type": "address"
        },
        {
          "name": "_to",
          "type": "address"
        },
        {
          "name": "_tokenId",
          "type": "uint256"
        },
        {
          "name": "_data",
          "type": "bytes"
        }
      ],
      "name": "safeTransferFrom",
      "outputs": [],
      "payable": false,
      "stateMutability": "nonpayable",
      "type": "function"
    },
    {
      "constant": false,
      "inputs": [
        {
          "name": "_to",
          "type": "address"
        },
        {
          "name": "_tokenId",
          "type": "uint256"
        }
      ],
      "name": "approve",
      "outputs": [],
      "payable": false,
      "stateMutability": "nonpayable",
      "type": "function"
    },
    {
      "constant": false,
      "inputs": [
        {
          "name": "_operator",
          "type": "address"
        },
        {
          "name": "_approved",
          "type": "bool"
        }
      ],
      "name": "setApprovalForAll",
      "outputs": [],
      "payable": false,
      "stateMutability": "nonpayable",
      "type": "function"
    }
  ],
  "bytecode": "0x6080604052600f805460ff191690553480156200001b57600080fd5b5060405162001f4f38038062001f4f833981016040528051602082015190820191018181620000737f01ffc9a700000000000000000000000000000000000000000000000000000000640100000000620001af810204565b620000a77f80ac58cd00000000000000000000000000000000000000000000000000000000640100000000620001af810204565b620000db7f4f558e7900000000000000000000000000000000000000000000000000000000640100000000620001af810204565b8151620000f09060059060208501906200021c565b508051620001069060069060208401906200021c565b506200013b7f780e9d6300000000000000000000000000000000000000000000000000000000640100000000620001af810204565b6200016f7f5b5e139f00000000000000000000000000000000000000000000000000000000640100000000620001af810204565b5050600c8054600160a060020a0319163317905550507f416368696576656d656e74000000000000000000000000000000000000000000600e55620002c1565b7fffffffff000000000000000000000000000000000000000000000000000000008082161415620001df57600080fd5b7fffffffff00000000000000000000000000000000000000000000000000000000166000908152602081905260409020805460ff19166001179055565b828054600181600116156101000203166002900490600052602060002090601f016020900481019282601f106200025f57805160ff19168380011785556200028f565b828001600101855582156200028f579182015b828111156200028f57825182559160200191906001019062000272565b506200029d929150620002a1565b5090565b620002be91905b808211156200029d5760008155600101620002a8565b90565b611c7e80620002d16000396000f30060806040526004361061017f5763ffffffff7c010000000000000000000000000000000000000000000000000000000060003504166301ffc9a7811461018457806306fdde03146101ba578063081812fc14610244578063095ea7b314610278578063108f96df1461029e57806318160ddd146102b657806319fa8f50146102dd57806323b872dd1461030f5780632f745c5914610339578063393631121461035d5780633fd8cc4e1461037257806342842e0e1461039357806342966c68146103bd5780634cd412d5146103d55780634f558e79146103ea5780634f6ccce7146104025780636352211e1461041a57806364319d0b1461043257806370a08231146104475780638da5cb5b1461046857806395d89b411461047d578063a22cb46514610492578063a91ee0dc146104b8578063b187984f146104d9578063b88d4fde146104ee578063c87b56dd1461055d578063d3fc986414610575578063e985e9c5146105de578063f1b50c1d14610605578063f2fde38b1461061a575b600080fd5b34801561019057600080fd5b506101a6600160e060020a03196004351661063b565b604080519115158252519081900360200190f35b3480156101c657600080fd5b506101cf61065a565b6040805160208082528351818301528351919283929083019185019080838360005b838110156102095781810151838201526020016101f1565b50505050905090810190601f1680156102365780820380516001836020036101000a031916815260200191505b509250505060405180910390f35b34801561025057600080fd5b5061025c6004356106f1565b60408051600160a060020a039092168252519081900360200190f35b34801561028457600080fd5b5061029c600160a060020a036004351660243561070c565b005b3480156102aa57600080fd5b506101cf6004356107f1565b3480156102c257600080fd5b506102cb6108f1565b60408051918252519081900360200190f35b3480156102e957600080fd5b506102f26108f7565b60408051600160e060020a03199092168252519081900360200190f35b34801561031b57600080fd5b5061029c600160a060020a036004358116906024351660443561091b565b34801561034557600080fd5b506102cb600160a060020a0360043516602435610a02565b34801561036957600080fd5b5061025c610a4f565b34801561037e57600080fd5b506101a6600160a060020a0360043516610a5e565b34801561039f57600080fd5b5061029c600160a060020a0360043581169060243516604435610aef565b3480156103c957600080fd5b506101a6600435610bd1565b3480156103e157600080fd5b506101a6610c79565b3480156103f657600080fd5b506101a6600435610c82565b34801561040e57600080fd5b506102cb600435610c9f565b34801561042657600080fd5b5061025c600435610cd4565b34801561043e57600080fd5b506102cb610cfe565b34801561045357600080fd5b506102cb600160a060020a0360043516610d04565b34801561047457600080fd5b5061025c610d37565b34801561048957600080fd5b506101cf610d46565b34801561049e57600080fd5b5061029c600160a060020a03600435166024351515610da7565b3480156104c457600080fd5b5061029c600160a060020a0360043516610e88565b3480156104e557600080fd5b506101a6610ece565b3480156104fa57600080fd5b50604080516020601f60643560048181013592830184900484028501840190955281845261029c94600160a060020a038135811695602480359092169560443595369560849401918190840183828082843750949750610f2d9650505050505050565b34801561056957600080fd5b506101cf600435611016565b34801561058157600080fd5b50604080516020600460443581810135601f81018490048402850184019095528484526101a6948235600160a060020a031694602480359536959460649492019190819084018382808284375094975061102c9650505050505050565b3480156105ea57600080fd5b506101a6600160a060020a03600435811690602435166110cf565b34801561061157600080fd5b506101a66110fd565b34801561062657600080fd5b5061029c600160a060020a0360043516611160565b600160e060020a03191660009081526020819052604090205460ff1690565b60058054604080516020601f60026000196101006001881615020190951694909404938401819004810282018101909252828152606093909290918301828280156106e65780601f106106bb576101008083540402835291602001916106e6565b820191906000526020600020905b8154815290600101906020018083116106c957829003601f168201915b505050505090505b90565b600090815260026020526040902054600160a060020a031690565b600f5460ff168061079f5750600d54600e546040805160e060020a6360d6c7cf028152600481019290925233602483015251600160a060020a03909216916360d6c7cf916044808201926020929091908290030181600087803b15801561077257600080fd5b505af1158015610786573d6000803e3d6000fd5b505050506040513d602081101561079c57600080fd5b50515b15156107e3576040805160e560020a62461bcd0281526020600482015260146024820152600080516020611c13833981519152604482015290519081900360640190fd5b6107ed82826111f5565b5050565b60606107fc82610c82565b1515610852576040805160e560020a62461bcd02815260206004820152601860248201527f546f6b656e2049442063616e6e6f7420626520666f756e640000000000000000604482015290519081900360640190fd5b6000828152600b602090815260409182902080548351601f6002600019610100600186161502019093169290920491820184900484028101840190945280845290918301828280156108e55780601f106108ba576101008083540402835291602001916108e5565b820191906000526020600020905b8154815290600101906020018083116108c857829003601f168201915b50505050509050919050565b60095490565b7f01ffc9a70000000000000000000000000000000000000000000000000000000081565b600f5460ff16806109ae5750600d54600e546040805160e060020a6360d6c7cf028152600481019290925233602483015251600160a060020a03909216916360d6c7cf916044808201926020929091908290030181600087803b15801561098157600080fd5b505af1158015610995573d6000803e3d6000fd5b505050506040513d60208110156109ab57600080fd5b50515b15156109f2576040805160e560020a62461bcd0281526020600482015260146024820152600080516020611c13833981519152604482015290519081900360640190fd5b6109fd8383836112ab565b505050565b6000610a0d83610d04565b8210610a1857600080fd5b600160a060020a0383166000908152600760205260409020805483908110610a3c57fe5b9060005260206000200154905092915050565b600d54600160a060020a031681565b600d54600e546040805160e060020a6360d6c7cf0281526004810192909252600160a060020a038481166024840152905160009391909116916360d6c7cf91604480830192602092919082900301818787803b158015610abd57600080fd5b505af1158015610ad1573d6000803e3d6000fd5b505050506040513d6020811015610ae757600080fd5b505192915050565b600f5460ff1680610b825750600d54600e546040805160e060020a6360d6c7cf028152600481019290925233602483015251600160a060020a03909216916360d6c7cf916044808201926020929091908290030181600087803b158015610b5557600080fd5b505af1158015610b69573d6000803e3d6000fd5b505050506040513d6020811015610b7f57600080fd5b50515b1515610bc6576040805160e560020a62461bcd0281526020600482015260146024820152600080516020611c13833981519152604482015290519081900360640190fd5b6109fd83838361134e565b6000610bdc33610a5e565b1515610c20576040805160e560020a62461bcd02815260206004820152600d6024820152600080516020611c33833981519152604482015290519081900360640190fd5b610c32610c2c83610cd4565b8361136a565b81610c3c83610cd4565b600160a060020a03167fcc16f5dbb4873280815c1ee09dbd06736cffcc184412cf7a71a0fdb75d397ca560405160405180910390a3506001919050565b600f5460ff1681565b600090815260016020526040902054600160a060020a0316151590565b6000610ca96108f1565b8210610cb457600080fd5b6009805483908110610cc257fe5b90600052602060002001549050919050565b600081815260016020526040812054600160a060020a0316801515610cf857600080fd5b92915050565b600e5481565b6000600160a060020a0382161515610d1b57600080fd5b50600160a060020a031660009081526003602052604090205490565b600c54600160a060020a031681565b60068054604080516020601f60026000196101006001881615020190951694909404938401819004810282018101909252828152606093909290918301828280156106e65780601f106106bb576101008083540402835291602001916106e6565b600f5460ff1680610e3a5750600d54600e546040805160e060020a6360d6c7cf028152600481019290925233602483015251600160a060020a03909216916360d6c7cf916044808201926020929091908290030181600087803b158015610e0d57600080fd5b505af1158015610e21573d6000803e3d6000fd5b505050506040513d6020811015610e3757600080fd5b50515b1515610e7e576040805160e560020a62461bcd0281526020600482015260146024820152600080516020611c13833981519152604482015290519081900360640190fd5b6107ed8282611464565b600c54600160a060020a03163314610e9f57600080fd5b600d805473ffffffffffffffffffffffffffffffffffffffff1916600160a060020a0392909216919091179055565b6000610ed933610a5e565b1515610f1d576040805160e560020a62461bcd02815260206004820152600d6024820152600080516020611c33833981519152604482015290519081900360640190fd5b50600f805460ff19169055600190565b600f5460ff1680610fc05750600d54600e546040805160e060020a6360d6c7cf028152600481019290925233602483015251600160a060020a03909216916360d6c7cf916044808201926020929091908290030181600087803b158015610f9357600080fd5b505af1158015610fa7573d6000803e3d6000fd5b505050506040513d6020811015610fbd57600080fd5b50515b1515611004576040805160e560020a62461bcd0281526020600482015260146024820152600080516020611c13833981519152604482015290519081900360640190fd5b611010848484846114e8565b50505050565b606061102182610c82565b151561085257600080fd5b600061103733610a5e565b151561107b576040805160e560020a62461bcd02815260206004820152600d6024820152600080516020611c33833981519152604482015290519081900360640190fd5b611085848461150a565b61108f8383611559565b6040518390600160a060020a038616907f0f6798a560793a54c3bcfe86a93cde1e73087d944c0ea20544137d412139688590600090a35060019392505050565b600160a060020a03918216600090815260046020908152604080832093909416825291909152205460ff1690565b600061110833610a5e565b151561114c576040805160e560020a62461bcd02815260206004820152600d6024820152600080516020611c33833981519152604482015290519081900360640190fd5b50600f805460ff1916600190811790915590565b600c54600160a060020a0316331461117757600080fd5b600160a060020a038116151561118c57600080fd5b600c54604051600160a060020a038084169216907f8be0079c531659141344cd1fd0a4f28419497f9722a3daafe3b4186f6b6457e090600090a3600c805473ffffffffffffffffffffffffffffffffffffffff1916600160a060020a0392909216919091179055565b600061120082610cd4565b9050600160a060020a03838116908216141561121b57600080fd5b33600160a060020a0382161480611237575061123781336110cf565b151561124257600080fd5b600082815260026020526040808220805473ffffffffffffffffffffffffffffffffffffffff1916600160a060020a0387811691821790925591518593918516917f8c5be1e5ebec7d5bd14f71427d1e84f3dd0314c0f7b2291e5b200ac8c7c3b92591a4505050565b6112b5338261158c565b15156112c057600080fd5b600160a060020a03831615156112d557600080fd5b600160a060020a03821615156112ea57600080fd5b6112f483826115eb565b6112fe838261165a565b6113088282611761565b8082600160a060020a031684600160a060020a03167fddf252ad1be2c89b69c2b068fc378daa952ba7f163c4a11628f55a4df523b3ef60405160405180910390a4505050565b6109fd8383836020604051908101604052806000815250610f2d565b600080600061137985856117aa565b6000848152600b602052604090205460026000196101006001841615020190911604156113b7576000848152600b602052604081206113b791611b0f565b6000848152600a60205260409020546009549093506113dd90600163ffffffff6117fa16565b91506009828154811015156113ee57fe5b906000526020600020015490508060098481548110151561140b57fe5b6000918252602082200191909155600980548490811061142757fe5b6000918252602090912001556009805490611446906000198301611b56565b506000938452600a6020526040808520859055908452909220555050565b600160a060020a03821633141561147a57600080fd5b336000818152600460209081526040808320600160a060020a03871680855290835292819020805460ff1916861515908117909155815190815290519293927f17307eab39ab6107e8899845ad3d59bd9653f200f220920489ca2b5937696c31929181900390910190a35050565b6114f384848461091b565b6114ff8484848461180c565b151561101057600080fd5b6115148282611979565b600980546000838152600a60205260408120829055600182018355919091527f6e1540171b6c0c960b71a7020d9f60077f6af931a8bbf590da0223dacf75c7af015550565b61156282610c82565b151561156d57600080fd5b6000828152600b6020908152604090912082516109fd92840190611b7a565b60008061159883610cd4565b905080600160a060020a031684600160a060020a031614806115d3575083600160a060020a03166115c8846106f1565b600160a060020a0316145b806115e357506115e381856110cf565b949350505050565b81600160a060020a03166115fe82610cd4565b600160a060020a03161461161157600080fd5b600081815260026020526040902054600160a060020a0316156107ed576000908152600260205260409020805473ffffffffffffffffffffffffffffffffffffffff1916905550565b600080600061166985856119d4565b600084815260086020908152604080832054600160a060020a03891684526007909252909120549093506116a490600163ffffffff6117fa16565b600160a060020a0386166000908152600760205260409020805491935090839081106116cc57fe5b90600052602060002001549050806007600087600160a060020a0316600160a060020a031681526020019081526020016000208481548110151561170c57fe5b6000918252602080832090910192909255600160a060020a0387168152600790915260409020805490611743906000198301611b56565b50600093845260086020526040808520859055908452909220555050565b600061176d8383611a6a565b50600160a060020a039091166000908152600760209081526040808320805460018101825590845282842081018590559383526008909152902055565b6117b482826115eb565b6117be828261165a565b6040518190600090600160a060020a038516907fddf252ad1be2c89b69c2b068fc378daa952ba7f163c4a11628f55a4df523b3ef908390a45050565b60008282111561180657fe5b50900390565b60008061182185600160a060020a0316611afa565b15156118305760019150611970565b6040517f150b7a020000000000000000000000000000000000000000000000000000000081523360048201818152600160a060020a03898116602485015260448401889052608060648501908152875160848601528751918a169463150b7a0294938c938b938b93909160a490910190602085019080838360005b838110156118c35781810151838201526020016118ab565b50505050905090810190601f1680156118f05780820380516001836020036101000a031916815260200191505b5095505050505050602060405180830381600087803b15801561191257600080fd5b505af1158015611926573d6000803e3d6000fd5b505050506040513d602081101561193c57600080fd5b5051600160e060020a031981167f150b7a020000000000000000000000000000000000000000000000000000000014925090505b50949350505050565b600160a060020a038216151561198e57600080fd5b6119988282611761565b6040518190600160a060020a038416906000907fddf252ad1be2c89b69c2b068fc378daa952ba7f163c4a11628f55a4df523b3ef908290a45050565b81600160a060020a03166119e782610cd4565b600160a060020a0316146119fa57600080fd5b600160a060020a038216600090815260036020526040902054611a2490600163ffffffff6117fa16565b600160a060020a03909216600090815260036020908152604080832094909455918152600190915220805473ffffffffffffffffffffffffffffffffffffffff19169055565b600081815260016020526040902054600160a060020a031615611a8c57600080fd5b6000818152600160208181526040808420805473ffffffffffffffffffffffffffffffffffffffff1916600160a060020a0388169081179091558452600390915290912054611ada91611b02565b600160a060020a0390921660009081526003602052604090209190915550565b6000903b1190565b81810182811015610cf857fe5b50805460018160011615610100020316600290046000825580601f10611b355750611b53565b601f016020900490600052602060002090810190611b539190611bf8565b50565b8154818355818111156109fd576000838152602090206109fd918101908301611bf8565b828054600181600116156101000203166002900490600052602060002090601f016020900481019282601f10611bbb57805160ff1916838001178555611be8565b82800160010185558215611be8579182015b82811115611be8578251825591602001919060010190611bcd565b50611bf4929150611bf8565b5090565b6106ee91905b80821115611bf45760008155600101611bfe56005472616e73666572206e6f7420656e61626c65640000000000000000000000004e6f205065726d697373696f6e00000000000000000000000000000000000000a165627a7a72305820a2a7062c187ef4c0b26e13ddcf804baf0754f96ffdd77c26023d9a7ffec745300029",
  "source": "pragma solidity ^0.4.24;\n\nimport \"../openzeppelin-solidity/contracts/token/ERC721/ERC721Token.sol\";\nimport \"../openzeppelin-solidity/contracts/ownership/Ownable.sol\";\nimport \"../RegistryUser.sol\";\n\n/**\n * @title MetaID\n * This provides a public mint and burn functions for testing purposes,\n * and a public setter for metadata URI\n */\ncontract Achievement is ERC721Token, RegistryUser {\n    event Mint(address indexed owner, uint256 indexed metaID);\n    event Burn(address indexed owner, uint256 indexed metaID);\n    \n    bool public transferEnabled = false;\n\n    modifier isTradable() {\n        require(transferEnabled || REG.getPermission(THIS_NAME, msg.sender), \"Transfer not enabled\");\n        _;\n    }\n    \n    constructor(string name, string symbol) public ERC721Token(name, symbol){\n        THIS_NAME = \"Achievement\";\n    }\n\n    // function Achievement(string name, string symbol) public ERC721Token(name, symbol){\n    //     THIS_NAME = \"Achievement\";\n    // }\n\n    /**\n     * @dev Function to mint ERC721 Token.\n     * @param _to The address that will receive the minted tokens.\n     * @param _tokenId the token index of newly minted token.\n     * @param _uri the metaID that the newly minted token would get.\n     * @return A boolean that indicates if the operation was successful.\n     */\n    function mint(address _to, uint256 _tokenId, string _uri) public permissioned returns (bool success) {\n        super._mint(_to, _tokenId);\n        super._setTokenURI(_tokenId, _uri);\n        emit Mint(_to, _tokenId);\n        return true;\n    }\n\n    /**\n     * @dev Function to burn ERC721 Token.\n     * @param _tokenId the token index of burning token.\n     * @return A boolean that indicates if the operation was successful.\n     */\n    function burn(uint256 _tokenId) public permissioned returns (bool success) {\n        super._burn(ownerOf(_tokenId), _tokenId);\n        emit Burn(ownerOf(_tokenId), _tokenId);\n        return true;\n    }\n\n    function enableTransfer() public permissioned returns (bool success) {\n        transferEnabled = true;\n        return true;\n    }\n\n    function disableTransfer() public permissioned returns (bool success) {\n        transferEnabled = false;\n        return true;\n    }\n    /**\n     * @dev Returns an URI as bytes for a given token ID\n     * @dev Throws if the token ID does not exist. May return an empty string.\n     * @param _tokenId uint256 ID of the token to query\n     */\n    function tokenURIAsBytes(uint256 _tokenId) public view returns (bytes uri) {\n        require(exists(_tokenId), \"Token ID cannot be found\");\n        return bytes(tokenURIs[_tokenId]);\n    }\n\n    function transferFrom(address _from, address _to, uint256 _tokenId) public isTradable {\n        super.transferFrom(_from, _to, _tokenId);\n    }\n\n    function safeTransferFrom(address _from, address _to, uint256 _tokenId) public isTradable {\n        super.safeTransferFrom(_from, _to, _tokenId);\n    }\n\n    function safeTransferFrom(address _from, address _to, uint256 _tokenId, bytes _data) public isTradable {\n        super.safeTransferFrom(_from, _to, _tokenId, _data);\n    }\n    \n\n    function approve(address _to, uint256 _tokenId) public isTradable {\n        super.approve(_to, _tokenId);\n    }\n\n    function setApprovalForAll(address _operator, bool _approved) public isTradable {\n        super.setApprovalForAll(_operator, _approved);\n    }\n}\n",
  "sourcePath": "/Users/coinplug/BangGijin/metabolics2.0/contracts/property/Achievement.sol",
  "compiler": {
    "name": "solc",
    "version": "0.4.24+commit.e67f0147.Emscripten.clang"
  },
  "schemaVersion": "2.0.1",
  "updatedAt": "2018-11-20T04:46:08.503Z"
}