{
  "contractName": "AchievementManager",
  "abi": [
    {
      "constant": true,
      "inputs": [],
      "name": "REG",
      "outputs": [
        {
          "name": "",
          "type": "address"
        }
      ],
      "payable": false,
      "stateMutability": "view",
      "type": "function"
    },
    {
      "constant": false,
      "inputs": [
        {
          "name": "_addr",
          "type": "address"
        }
      ],
      "name": "isPermitted",
      "outputs": [
        {
          "name": "",
          "type": "bool"
        }
      ],
      "payable": false,
      "stateMutability": "nonpayable",
      "type": "function"
    },
    {
      "constant": true,
      "inputs": [],
      "name": "minimumDeposit",
      "outputs": [
        {
          "name": "",
          "type": "uint256"
        }
      ],
      "payable": false,
      "stateMutability": "view",
      "type": "function"
    },
    {
      "constant": true,
      "inputs": [],
      "name": "THIS_NAME",
      "outputs": [
        {
          "name": "",
          "type": "bytes32"
        }
      ],
      "payable": false,
      "stateMutability": "view",
      "type": "function"
    },
    {
      "constant": true,
      "inputs": [
        {
          "name": "",
          "type": "bytes32"
        }
      ],
      "name": "achievements",
      "outputs": [
        {
          "name": "id",
          "type": "bytes32"
        },
        {
          "name": "creator",
          "type": "address"
        },
        {
          "name": "explanation",
          "type": "bytes32"
        },
        {
          "name": "reward",
          "type": "uint256"
        },
        {
          "name": "uri",
          "type": "string"
        }
      ],
      "payable": false,
      "stateMutability": "view",
      "type": "function"
    },
    {
      "constant": true,
      "inputs": [
        {
          "name": "",
          "type": "uint256"
        }
      ],
      "name": "allAchievements",
      "outputs": [
        {
          "name": "",
          "type": "bytes32"
        }
      ],
      "payable": false,
      "stateMutability": "view",
      "type": "function"
    },
    {
      "constant": true,
      "inputs": [
        {
          "name": "",
          "type": "bytes32"
        }
      ],
      "name": "balance",
      "outputs": [
        {
          "name": "",
          "type": "uint256"
        }
      ],
      "payable": false,
      "stateMutability": "view",
      "type": "function"
    },
    {
      "constant": true,
      "inputs": [],
      "name": "owner",
      "outputs": [
        {
          "name": "",
          "type": "address"
        }
      ],
      "payable": false,
      "stateMutability": "view",
      "type": "function"
    },
    {
      "constant": false,
      "inputs": [
        {
          "name": "_addr",
          "type": "address"
        }
      ],
      "name": "setRegistry",
      "outputs": [],
      "payable": false,
      "stateMutability": "nonpayable",
      "type": "function"
    },
    {
      "constant": false,
      "inputs": [
        {
          "name": "newOwner",
          "type": "address"
        }
      ],
      "name": "transferOwnership",
      "outputs": [],
      "payable": false,
      "stateMutability": "nonpayable",
      "type": "function"
    },
    {
      "inputs": [],
      "payable": false,
      "stateMutability": "nonpayable",
      "type": "constructor"
    },
    {
      "anonymous": false,
      "inputs": [
        {
          "indexed": true,
          "name": "achievementId",
          "type": "bytes32"
        },
        {
          "indexed": false,
          "name": "topics",
          "type": "uint256[]"
        },
        {
          "indexed": false,
          "name": "issuers",
          "type": "address[]"
        },
        {
          "indexed": false,
          "name": "staked",
          "type": "uint256"
        },
        {
          "indexed": false,
          "name": "uri",
          "type": "string"
        }
      ],
      "name": "CreateAchievement",
      "type": "event"
    },
    {
      "anonymous": false,
      "inputs": [
        {
          "indexed": true,
          "name": "achievementId",
          "type": "bytes32"
        },
        {
          "indexed": false,
          "name": "reward",
          "type": "uint256"
        },
        {
          "indexed": false,
          "name": "charge",
          "type": "uint256"
        }
      ],
      "name": "UpdateAchievement",
      "type": "event"
    },
    {
      "anonymous": false,
      "inputs": [
        {
          "indexed": true,
          "name": "achievementId",
          "type": "bytes32"
        },
        {
          "indexed": false,
          "name": "refund",
          "type": "uint256"
        }
      ],
      "name": "DeleteAchievement",
      "type": "event"
    },
    {
      "anonymous": false,
      "inputs": [
        {
          "indexed": true,
          "name": "achievementId",
          "type": "bytes32"
        },
        {
          "indexed": true,
          "name": "receiver",
          "type": "address"
        },
        {
          "indexed": false,
          "name": "reward",
          "type": "uint256"
        }
      ],
      "name": "RequestAchievement",
      "type": "event"
    },
    {
      "anonymous": false,
      "inputs": [
        {
          "indexed": false,
          "name": "addr",
          "type": "address"
        },
        {
          "indexed": false,
          "name": "name",
          "type": "bytes32"
        },
        {
          "indexed": false,
          "name": "go",
          "type": "bool"
        }
      ],
      "name": "Per",
      "type": "event"
    },
    {
      "anonymous": false,
      "inputs": [
        {
          "indexed": true,
          "name": "previousOwner",
          "type": "address"
        },
        {
          "indexed": true,
          "name": "newOwner",
          "type": "address"
        }
      ],
      "name": "OwnershipTransferred",
      "type": "event"
    },
    {
      "constant": false,
      "inputs": [
        {
          "name": "_addr",
          "type": "address"
        }
      ],
      "name": "isAAttestationAgency",
      "outputs": [
        {
          "name": "",
          "type": "bool"
        }
      ],
      "payable": false,
      "stateMutability": "nonpayable",
      "type": "function"
    },
    {
      "constant": false,
      "inputs": [
        {
          "name": "_topics",
          "type": "uint256[]"
        },
        {
          "name": "_issuers",
          "type": "address[]"
        },
        {
          "name": "_achievementExplanation",
          "type": "bytes32"
        },
        {
          "name": "_reward",
          "type": "uint256"
        },
        {
          "name": "_uri",
          "type": "string"
        }
      ],
      "name": "createAchievement",
      "outputs": [
        {
          "name": "",
          "type": "bool"
        }
      ],
      "payable": true,
      "stateMutability": "payable",
      "type": "function"
    },
    {
      "constant": false,
      "inputs": [
        {
          "name": "_achievementId",
          "type": "bytes32"
        },
        {
          "name": "_reward",
          "type": "uint256"
        }
      ],
      "name": "updateAchievement",
      "outputs": [
        {
          "name": "",
          "type": "bool"
        }
      ],
      "payable": true,
      "stateMutability": "payable",
      "type": "function"
    },
    {
      "constant": false,
      "inputs": [
        {
          "name": "_achievementId",
          "type": "bytes32"
        }
      ],
      "name": "deleteAchievement",
      "outputs": [
        {
          "name": "",
          "type": "bool"
        }
      ],
      "payable": false,
      "stateMutability": "nonpayable",
      "type": "function"
    },
    {
      "constant": false,
      "inputs": [
        {
          "name": "achievementId",
          "type": "bytes32"
        }
      ],
      "name": "requestAchievement",
      "outputs": [
        {
          "name": "",
          "type": "bool"
        }
      ],
      "payable": false,
      "stateMutability": "nonpayable",
      "type": "function"
    },
    {
      "constant": true,
      "inputs": [],
      "name": "getAllAchievementList",
      "outputs": [
        {
          "name": "",
          "type": "bytes32[]"
        }
      ],
      "payable": false,
      "stateMutability": "view",
      "type": "function"
    },
    {
      "constant": true,
      "inputs": [],
      "name": "getActiveAchievementList",
      "outputs": [
        {
          "name": "",
          "type": "bytes32[]"
        }
      ],
      "payable": false,
      "stateMutability": "view",
      "type": "function"
    },
    {
      "constant": true,
      "inputs": [],
      "name": "getLengthOfAchievements",
      "outputs": [
        {
          "name": "",
          "type": "uint256"
        }
      ],
      "payable": false,
      "stateMutability": "view",
      "type": "function"
    },
    {
      "constant": true,
      "inputs": [
        {
          "name": "_achievementId",
          "type": "bytes32"
        }
      ],
      "name": "getAchievementById",
      "outputs": [
        {
          "name": "id",
          "type": "bytes32"
        },
        {
          "name": "creator",
          "type": "address"
        },
        {
          "name": "issuers",
          "type": "address[]"
        },
        {
          "name": "claimTopics",
          "type": "uint256[]"
        },
        {
          "name": "explanation",
          "type": "bytes32"
        },
        {
          "name": "reward",
          "type": "uint256"
        },
        {
          "name": "uri",
          "type": "string"
        }
      ],
      "payable": false,
      "stateMutability": "view",
      "type": "function"
    },
    {
      "constant": true,
      "inputs": [
        {
          "name": "_index",
          "type": "uint256"
        }
      ],
      "name": "getAchievementByIndex",
      "outputs": [
        {
          "name": "id",
          "type": "bytes32"
        },
        {
          "name": "creator",
          "type": "address"
        },
        {
          "name": "issuers",
          "type": "address[]"
        },
        {
          "name": "claimTopics",
          "type": "uint256[]"
        },
        {
          "name": "explanation",
          "type": "bytes32"
        },
        {
          "name": "reward",
          "type": "uint256"
        },
        {
          "name": "uri",
          "type": "string"
        }
      ],
      "payable": false,
      "stateMutability": "view",
      "type": "function"
    },
    {
      "constant": true,
      "inputs": [
        {
          "name": "creator",
          "type": "address"
        },
        {
          "name": "topics",
          "type": "uint256[]"
        },
        {
          "name": "issuers",
          "type": "address[]"
        }
      ],
      "name": "getAchievementId",
      "outputs": [
        {
          "name": "",
          "type": "bytes32"
        }
      ],
      "payable": false,
      "stateMutability": "pure",
      "type": "function"
    }
  ],
  "bytecode": "0x6080604052670de0b6b3a764000060035534801561001c57600080fd5b5060008054600160a060020a031916331790557f416368696576656d656e744d616e61676572000000000000000000000000000060025561202f806100626000396000f3006080604052600436106101035763ffffffff60e060020a60003504166305b636e3811461010857806318b6e0321461024f57806322a3ecb7146102715780632f1b9f14146102d657806339363112146102eb5780633fd8cc4e1461031c578063509257e81461033d578063636bfbab1461036457806364319d0b146103795780636b03af841461038e57806374f0ce451461044a57806377aea96714610462578063857ab0751461048357806389eba4211461051f5780638da5cb5b1461053757806397d26ab01461054c5780639cb4da0814610564578063a64a3da31461057c578063a91ee0dc14610594578063f2fde38b146105b7578063f5010fad146105d8575b600080fd5b34801561011457600080fd5b506101206004356106a4565b60408051888152600160a060020a0388166020808301919091526080820186905260a0820185905260e09282018381528851938301939093528751919291606084019160c08501916101008601918b8101910280838360005b83811015610191578181015183820152602001610179565b50505050905001848103835288818151815260200191508051906020019060200280838360005b838110156101d05781810151838201526020016101b8565b50505050905001848103825285818151815260200191508051906020019080838360005b8381101561020c5781810151838201526020016101f4565b50505050905090810190601f1680156102395780820380516001836020036101000a031916815260200191505b509a505050505050505050505060405180910390f35b61025d600435602435610861565b604080519115158252519081900360200190f35b34801561027d57600080fd5b506102866108e9565b60408051602080825283518183015283519192839290830191858101910280838360005b838110156102c25781810151838201526020016102aa565b505050509050019250505060405180910390f35b3480156102e257600080fd5b50610286610943565b3480156102f757600080fd5b50610300610948565b60408051600160a060020a039092168252519081900360200190f35b34801561032857600080fd5b5061025d600160a060020a0360043516610957565b34801561034957600080fd5b506103526109fe565b60408051918252519081900360200190f35b34801561037057600080fd5b50610352610a04565b34801561038557600080fd5b50610352610a0a565b34801561039a57600080fd5b506103a6600435610a10565b60408051868152600160a060020a0386166020808301919091529181018590526060810184905260a06080820181815284519183019190915283519192909160c084019185019080838360005b8381101561040b5781810151838201526020016103f3565b50505050905090810190601f1680156104385780820380516001836020036101000a031916815260200191505b50965050505050505060405180910390f35b34801561045657600080fd5b50610352600435610ad6565b34801561046e57600080fd5b5061025d600160a060020a0360043516610af5565b34801561048f57600080fd5b50604080516020600460248035828101358481028087018601909752808652610352968435600160a060020a031696369660449591949091019291829185019084908082843750506040805187358901803560208181028481018201909552818452989b9a998901989297509082019550935083925085019084908082843750949750610c3d9650505050505050565b34801561052b57600080fd5b50610352600435610e1d565b34801561054357600080fd5b50610300610e2f565b34801561055857600080fd5b50610120600435610e3e565b34801561057057600080fd5b5061025d600435610fdc565b34801561058857600080fd5b5061025d600435611087565b3480156105a057600080fd5b506105b5600160a060020a03600435166118f7565b005b3480156105c357600080fd5b506105b5600160a060020a036004351661193d565b6040805160206004803580820135838102808601850190965280855261025d95369593946024949385019291829185019084908082843750506040805187358901803560208181028481018201909552818452989b9a99890198929750908201955093508392508501908490808284375050604080516020888301358a018035601f8101839004830284018301909452838352979a89359a8a8301359a919990985060609091019650919450908101925081908401838280828437509497506119d19650505050505050565b600080606080600080606060006006898154811015156106c057fe5b60009182526020808320909101548083526004808352604093849020805460018201549282015460058301546002840180548951818a0281018a01909a52808a529699509297600160a060020a039095169692956003850195929491936006909201929187919083018282801561076057602002820191906000526020600020905b8154600160a060020a03168152600190910190602001808311610742575b50505050509450838054806020026020016040519081016040528092919081815260200182805480156107b257602002820191906000526020600020905b81548152602001906001019080831161079e575b5050845460408051602060026001851615610100026000190190941693909304601f8101849004840282018401909252818152959950869450925084019050828280156108405780601f1061081557610100808354040283529160200191610840565b820191906000526020600020905b81548152906001019060200180831161082357829003601f168201915b50505050509050975097509750975097509750975050919395979092949650565b600082815260046020526040812060010154600160a060020a0316331461088757600080fd5b600083815260046020908152604080832060059081018690558252918290203490819055825185815291820152815185927f409c15ea918971e39c60d842defa9f1480c49f4c482f97824070559e6e34e103928290030190a250600192915050565b6060600680548060200260200160405190810160405280929190818152602001828054801561093857602002820191906000526020600020905b81548152600190910190602001808311610923575b505050505090505b90565b606090565b600154600160a060020a031681565b600154600254604080517f60d6c7cf0000000000000000000000000000000000000000000000000000000081526004810192909252600160a060020a038481166024840152905160009391909116916360d6c7cf91604480830192602092919082900301818787803b1580156109cc57600080fd5b505af11580156109e0573d6000803e3d6000fd5b505050506040513d60208110156109f657600080fd5b505192915050565b60065490565b60035481565b60025481565b60046020818152600092835260409283902080546001808301549483015460058401546006850180548951600261010096831615969096026000190190911694909404601f81018890048802850188019099528884529397600160a060020a039097169691959094939190830182828015610acc5780601f10610aa157610100808354040283529160200191610acc565b820191906000526020600020905b815481529060010190602001808311610aaf57829003601f168201915b5050505050905085565b6006805482908110610ae457fe5b600091825260209091200154905081565b6001546040805160e060020a630d2020dd0281527f4174746573746174696f6e4167656e6379526567697374727900000000000000600482015290516000928392600160a060020a0390911691630d2020dd9160248082019260209290919082900301818787803b158015610b6957600080fd5b505af1158015610b7d573d6000803e3d6000fd5b505050506040513d6020811015610b9357600080fd5b5051604080517fc3c5a547000000000000000000000000000000000000000000000000000000008152600160a060020a03868116600483015291519293509083169163c3c5a547916024808201926020929091908290030181600087803b158015610bfd57600080fd5b505af1158015610c11573d6000803e3d6000fd5b505050506040513d6020811015610c2757600080fd5b50511515610c3457600080fd5b50600192915050565b60006060600083518551141515610c5357600080fd5b81866040516020018083805190602001908083835b60208310610c875780518252601f199092019160209182019101610c68565b6001836020036101000a03801982511681845116808217855250505050505090500182600160a060020a0316600160a060020a03166c01000000000000000000000000028152601401925050506040516020818303038152906040529150600090505b8451811015610db757818582815181101515610d0257fe5b906020019060200201518583815181101515610d1a57fe5b906020019060200201516040516020018084805190602001908083835b60208310610d565780518252601f199092019160209182019101610d37565b51815160209384036101000a6000190180199092169116179052920194855250600160a060020a03929092166c0100000000000000000000000002918301919091525060408051601481840301815260349092019052925050600101610cea565b816040518082805190602001908083835b60208310610de75780518252601f199092019160209182019101610dc8565b5181516020939093036101000a600019018019909116921691909117905260405192018290039091209998505050505050505050565b60056020526000908152604090205481565b600054600160a060020a031681565b600081815260046020818152604080842080546001820154948201546005830154600284018054865181890281018901909752808752899860609889988b9889988b989097600160a060020a03909516969560038301959194919360069093019291879190830182828015610edc57602002820191906000526020600020905b8154600160a060020a03168152600190910190602001808311610ebe575b5050505050945083805480602002602001604051908101604052809291908181526020018280548015610f2e57602002820191906000526020600020905b815481526020019060010190808311610f1a575b5050845460408051602060026001851615610100026000190190941693909304601f810184900484028201840190925281815295995086945092508401905082828015610fbc5780601f10610f9157610100808354040283529160200191610fbc565b820191906000526020600020905b815481529060010190602001808311610f9f57829003601f168201915b505050505090509650965096509650965096509650919395979092949650565b6000818152600460205260408120600101548190600160a060020a0316331461100457600080fd5b5060008281526005602052604080822080549083905590519091339183156108fc0291849190818181858888f19350505050158015611047573d6000803e3d6000fd5b5060408051828152905184917ff35d42b9c311ce9dadd88de9b62d1ff91144843421993199963f32fc1c1ce6b2919081900360200190a250600192915050565b6001546040805160e060020a630d2020dd0281527f4964656e746974794d616e61676572000000000000000000000000000000000060048201529051600092839283928392839283928392600160a060020a031691630d2020dd91602480830192602092919082900301818787803b15801561110257600080fd5b505af1158015611116573d6000803e3d6000fd5b505050506040513d602081101561112c57600080fd5b5051604080517f12459b000000000000000000000000000000000000000000000000000000000081523360048201529051919750600160a060020a038816916312459b00916024808201926020929091908290030181600087803b15801561119357600080fd5b505af11580156111a7573d6000803e3d6000fd5b505050506040513d60208110156111bd57600080fd5b5051151561125257604080517f08c379a000000000000000000000000000000000000000000000000000000000815260206004820152603560248201527f6d73672e73656e646572206973206e6f74206964656e7469747920637265617460448201527f6564206279204964656e746974794d616e616765720000000000000000000000606482015290519081900360840190fd5b339350600094505b60008881526004602052604090206003015485101561152e57600088815260046020526040902060020180548690811061129057fe5b60009182526020808320909101548a8352600490915260409091206003018054600160a060020a0390921691879081106112c657fe5b90600052602060002001546040516020018083600160a060020a0316600160a060020a03166c01000000000000000000000000028152601401828152602001925050506040516020818303038152906040526040518082805190602001908083835b602083106113475780518252601f199092019160209182019101611328565b5181516020939093036101000a6000190180199091169216919091179052604080519190930181900381207fc9100bcb000000000000000000000000000000000000000000000000000000008252600482018190529251929650600160a060020a038916945063c9100bcb9350602480820193600093509182900301818387803b1580156113d457600080fd5b505af11580156113e8573d6000803e3d6000fd5b505050506040513d6000823e601f3d908101601f1916820160405260c081101561141157600080fd5b815160208301516040840151606085018051939592949193918301929164010000000081111561144057600080fd5b8201602081018481111561145357600080fd5b815164010000000081118282018710171561146d57600080fd5b5050929190602001805164010000000081111561148957600080fd5b8201602081018481111561149c57600080fd5b81516401000000008111828201871017156114b657600080fd5b505092919060200180516401000000008111156114d257600080fd5b820160208101848111156114e557600080fd5b81516401000000008111828201871017156114ff57600080fd5b50969b50505050600160a060020a0389161515955061152394505050505057600080fd5b60019094019361125a565b6000888152600460209081526040808320600590810154925290912054101561155657600080fd5b60008881526004602090815260408083206005908101549252909120546115829163ffffffff611e4516565b6000898152600560208181526040808420949094556004905282822001549151339280156108fc0292909190818181858888f193505050501580156115cb573d6000803e3d6000fd5b506001546040805160e060020a630d2020dd0281527f416368696576656d656e7400000000000000000000000000000000000000000060048201529051600160a060020a0390921691630d2020dd916024808201926020929091908290030181600087803b15801561163c57600080fd5b505af1158015611650573d6000803e3d6000fd5b505050506040513d602081101561166657600080fd5b505160408051336c01000000000000000000000000810260208084019190915260348084018e9052845180850390910181526054909301938490528251949550600160a060020a0386169463d3fc986494929392918291908401908083835b602083106116e45780518252601f1990920191602091820191016116c5565b6001836020036101000a03801982511681845116808217855250505050505090500191505060405180910390206001900442600460008e6000191660001916815260200190815260200160002060060160405160200180838152602001828054600181600116156101000203166002900480156117985780601f10611776576101008083540402835291820191611798565b820191906000526020600020905b815481529060010190602001808311611784575b5050925050506040516020818303038152906040526040518463ffffffff1660e060020a0281526004018084600160a060020a0316600160a060020a0316815260200183815260200180602001828103825283818151815260200191508051906020019080838360005b8381101561181a578181015183820152602001611802565b50505050905090810190601f1680156118475780820380516001836020036101000a031916815260200191505b50945050505050602060405180830381600087803b15801561186857600080fd5b505af115801561187c573d6000803e3d6000fd5b505050506040513d602081101561189257600080fd5b5051151561189f57600080fd5b600088815260046020908152604091829020600501548251908152915133928b927f2b3c50bc6470494ddd6230eeb3cbb0b2a212a4c1c262627fa78f6c5b4bf0d64d92918290030190a3506001979650505050505050565b600054600160a060020a0316331461190e57600080fd5b6001805473ffffffffffffffffffffffffffffffffffffffff1916600160a060020a0392909216919091179055565b600054600160a060020a0316331461195457600080fd5b600160a060020a038116151561196957600080fd5b60008054604051600160a060020a03808516939216917f8be0079c531659141344cd1fd0a4f28419497f9722a3daafe3b4186f6b6457e091a36000805473ffffffffffffffffffffffffffffffffffffffff1916600160a060020a0392909216919091179055565b6000806000806119df611e57565b6119e833610af5565b15156119f357600080fd5b6119fe338b8b610c3d565b60008181526004602052604090205490945015611a1a57600080fd5b600354341015611a2957600080fd5b6001546040805160e060020a630d2020dd0281527f546f70696352656769737472790000000000000000000000000000000000000060048201529051600160a060020a0390921691630d2020dd916024808201926020929091908290030181600087803b158015611a9957600080fd5b505af1158015611aad573d6000803e3d6000fd5b505050506040513d6020811015611ac357600080fd5b50519250600091505b8951821015611bd95782600160a060020a031663579a69888b84815181101515611af257fe5b906020019060200201516040518263ffffffff1660e060020a02815260040180828152602001915050602060405180830381600087803b158015611b3557600080fd5b505af1158015611b49573d6000803e3d6000fd5b505050506040513d6020811015611b5f57600080fd5b50511515611bce57604080517f08c379a000000000000000000000000000000000000000000000000000000000815260206004820152601460248201527f746f706963206e6f742072656769737465726564000000000000000000000000604482015290519081900360640190fd5b600190910190611acc565b83815233602080830191825260408084018c8152606085018e9052608085018c905260c085018a905260a085018b90526000888152600484529190912084518155925160018401805473ffffffffffffffffffffffffffffffffffffffff1916600160a060020a03909216919091179055518051849392611c61926002850192910190611e92565b5060608201518051611c7d916003840191602090910190611f04565b506080820151600482015560a0820151600582015560c08201518051611cad916006840191602090910190611f4b565b509050506006849080600181540180825580915050906001820390600052602060002001600090919290919091509060001916905550346005600086600019166000191681526020019081526020016000208190555083600019167ff9eefc381511c2c3dfedd44f6caa6ff37eaab6d10e8a3a8cfb469280d48e71cf8b8b348a60405180806020018060200185815260200180602001848103845288818151815260200191508051906020019060200280838360005b83811015611d7b578181015183820152602001611d63565b50505050905001848103835287818151815260200191508051906020019060200280838360005b83811015611dba578181015183820152602001611da2565b50505050905001848103825285818151815260200191508051906020019080838360005b83811015611df6578181015183820152602001611dde565b50505050905090810190601f168015611e235780820380516001836020036101000a031916815260200191505b5097505050505050505060405180910390a25060019998505050505050505050565b600082821115611e5157fe5b50900390565b6040805160e08101825260008082526020820181905260609282018390528282018390526080820181905260a082015260c081019190915290565b828054828255906000526020600020908101928215611ef4579160200282015b82811115611ef4578251825473ffffffffffffffffffffffffffffffffffffffff1916600160a060020a03909116178255602090920191600190910190611eb2565b50611f00929150611fb8565b5090565b828054828255906000526020600020908101928215611f3f579160200282015b82811115611f3f578251825591602001919060010190611f24565b50611f00929150611fe9565b828054600181600116156101000203166002900490600052602060002090601f016020900481019282601f10611f8c57805160ff1916838001178555611f3f565b82800160010185558215611f3f5791820182811115611f3f578251825591602001919060010190611f24565b61094091905b80821115611f0057805473ffffffffffffffffffffffffffffffffffffffff19168155600101611fbe565b61094091905b80821115611f005760008155600101611fef5600a165627a7a7230582048edf8db9a46f685419f0d818d32abbdda7a4d043659b3f9ab65e74e54538ebf0029",
  "source": "pragma solidity ^0.4.24;\n\nimport \"../openzeppelin-solidity/contracts/math/SafeMath.sol\";\nimport \"../identity/ERC735.sol\";\nimport \"../RegistryUser.sol\";\nimport \"../registry/TopicRegistry.sol\";\nimport \"../interface/IAchievement.sol\";\nimport \"../interface/IIdentityManager.sol\";\nimport \"../interface/IAttestationAgencyRegistry.sol\";\n\n/**\n * @title AchievementManager\n * @dev AchievementManager Contract used to manage achievement system in metadium\n * The permissinoed participant can CRUD the achievement.\n */\ncontract AchievementManager is RegistryUser {\n    using SafeMath for uint256;\n\n    uint256 public minimumDeposit = 1 * 10 ** 18;\n\n    mapping(bytes32 => Achievement) public achievements; // achievementId => achievement\n    mapping(bytes32 => uint256) public balance; // achievementId => balance\n\n    bytes32[] public allAchievements;\n\n    event CreateAchievement(bytes32 indexed achievementId, uint256[] topics, address[] issuers, uint256 staked, string uri);\n    event UpdateAchievement(bytes32 indexed achievementId, uint256 reward, uint256 charge);\n    event DeleteAchievement(bytes32 indexed achievementId, uint256 refund);\n    event RequestAchievement(bytes32 indexed achievementId, address indexed receiver, uint256 reward);\n\n    struct Achievement {\n        bytes32 id;\n        address creator;\n        address[] issuers;\n        uint256[] claimTopics;\n        bytes32 explanation;\n        uint256 reward;\n        string uri;\n    }\n\n    function isAAttestationAgency(address _addr) public returns(bool) {\n        \n        IAttestationAgencyRegistry ar = IAttestationAgencyRegistry(REG.getContractAddress(\"AttestationAgencyRegistry\"));\n        require(ar.isRegistered(_addr) != 0);\n\n        return true;\n    }\n\n    modifier onlyAttestationAgency() {\n        require(isAAttestationAgency(msg.sender));\n        _;\n    }\n\n\n    function AchievementManager() public {\n        THIS_NAME = \"AchievementManager\";\n    }\n\n    /**\n     * @dev Create Achievement. Topics should be registered first.\n     * @param _topics registered topics\n     * @param _issuers issuers for each topic\n     * @param _achievementExplanation achievement explanation\n     * @param _reward reward in meta when user request acievement\n     * @param _uri basically used for ipfs id or something\n     * @return A boolean that indicates if the operation was successful.\n     */\n    function createAchievement(uint256[] _topics, address[] _issuers, bytes32 _achievementExplanation, uint256 _reward, string _uri) onlyAttestationAgency public payable returns (bool) {\n\n        //check if achievement is already registered\n        bytes32 achievementId = getAchievementId(msg.sender, _topics, _issuers);\n        require(achievements[achievementId].id == 0);\n\n        //check staking amount used for reward\n        require(msg.value >= minimumDeposit);\n\n        //topics should be registered already\n        TopicRegistry topicRegistry = TopicRegistry(REG.getContractAddress(\"TopicRegistry\"));\n        for(uint256 i=0;i<_topics.length;i++){\n            require(topicRegistry.isRegistered(_topics[i]), 'topic not registered');\n        }\n        \n        Achievement memory newAc;\n        newAc.id = achievementId;\n        newAc.creator = msg.sender;\n        newAc.issuers = _issuers;\n        newAc.claimTopics = _topics;\n        newAc.explanation = _achievementExplanation;\n        newAc.uri = _uri;\n        newAc.reward = _reward;\n\n        achievements[newAc.id] = newAc;\n        allAchievements.push(achievementId);\n        balance[achievementId] = msg.value;\n\n        emit CreateAchievement(achievementId, _topics, _issuers, msg.value, _uri);\n\n        return true;\n    }\n\n    //TODO createAchievementWithNewTopics\n    // /**\n    //  * @dev Create Achievement. If topic is not exist, register it to the topic registry.\n    //  * @param _topics registered topics\n    //  * @param _newTopicExaplanations explanations of new topics\n    //  * @param _issuers issuers for each topic\n    //  * @param _achievementExplanation achievement explanation\n    //  * @param _reward reward in meta when user request acievement\n    //  * @param _uri basically used for ipfs id or something\n    //  * @return A boolean that indicates if the operation was successful.\n    //  */\n    // function createAchievementWithNewTopics(uint256[] _topics, bytes32[] _newTopicExaplanations, address[] _issuers, bytes32 _achievementExplanation, uint256 _reward, string _uri) onlyAttestationAgency public payable returns (bool) {\n\n    //     require((_topics.length + _newTopicExaplanations.length) == issuers.length);\n\n    //     //check staking amount used for reward\n    //     require(msg.value >= minimumDeposit);\n    //     TopicRegistry topicRegistry = TopicRegistry(REG.getContractAddress(\"TopicRegistry\"));\n\n    //     uint256[] memory allTopics = new uint[](_topics.length + _newTopicExaplanations.length);\n\n    //     uint256 i;\n    //     for(i=0;i<_topics.length;i++){\n    //         allTopics[i] = _topics[i];\n    //     }\n\n    //     for(i=_topics.length;i<_topics.length+_newTopicExaplanations.length;i++) {\n    //         allTopics[i] = topicRegistry.registerTopic(msg.sender, _newTopicExaplanations[i]);\n    //     }\n\n    //     //check if achievement is already registered\n    //     bytes32 achievementId = getAchievementId(msg.sender, topics, issuers);\n    //     require(achievements[achievementId].id == 0);\n    //     Achievement memory newAc;\n    //     newAc.id = achievementId;\n    //     newAc.creator = msg.sender;\n    //     newAc.issuers = issuers;\n    //     newAc.claimTopics = topics;\n    //     newAc.explanation = achievementExplanation;\n    //     newAc.uri = uri;\n    //     newAc.reward = reward;\n\n    //     achievements[newAc.id] = newAc;\n    //     allAchievements.push(achievementId);\n    //     balance[achievementId] = msg.value;\n\n    //     return true;\n    // }\n    \n    function updateAchievement(bytes32 _achievementId, uint256 _reward) public payable returns (bool) {\n        //Only creator can charge fund\n        require(achievements[_achievementId].creator == msg.sender);\n\n        achievements[_achievementId].reward = _reward;\n        balance[_achievementId] = msg.value;\n        emit UpdateAchievement(_achievementId, _reward, msg.value);\n        return true;\n    }\n   \n    function deleteAchievement(bytes32 _achievementId) public returns (bool) {\n        //Only creator can refund\n        require(achievements[_achievementId].creator == msg.sender);\n\n        uint256 rest = balance[_achievementId];\n        \n        balance[_achievementId] = 0;\n        msg.sender.transfer(rest);\n        \n        emit DeleteAchievement(_achievementId, rest);\n\n        return true;\n    }\n    /**\n     * @dev Request achievement. If user have proper claims, user get acievement(ERC721) token and meta reward\n     * @param achievementId achievementId user want to request\n     * @return A boolean that indicates if the operation was successful.\n     */\n    function requestAchievement(bytes32 achievementId) public returns (bool) {\n        // check whether msg.sender is deployed using IdentityManager\n        IIdentityManager im = IIdentityManager(REG.getContractAddress(\"IdentityManager\"));\n        require(im.isMetaId(msg.sender), 'msg.sender is not identity created by IdentityManager');\n        \n        uint256 i;\n        ERC735 identity = ERC735(msg.sender);\n        // // check if sender has enough claims\n        for(i=0;i<achievements[achievementId].claimTopics.length;i++) {\n            address issuer;\n            // claimId is made by topic and issuer.\n            bytes32 claimId = keccak256(abi.encodePacked(achievements[achievementId].issuers[i], achievements[achievementId].claimTopics[i]));\n            (, , issuer, , , ) = identity.getClaim(claimId); // getClaim returns (topic, scheme, issuer, signature, data, uri)\n\n            require(issuer != address(0));\n\n        }\n        \n        // give reward to msg.sender(identity contract)\n        require(balance[achievementId] >= achievements[achievementId].reward);\n        balance[achievementId] = balance[achievementId].sub(achievements[achievementId].reward);\n        msg.sender.transfer(achievements[achievementId].reward);\n\n        // mint achievement erc721 to msg.sender;\n        IAchievement achievement = IAchievement(REG.getContractAddress(\"Achievement\"));\n        require(achievement.mint(msg.sender, uint256(keccak256(abi.encodePacked(msg.sender, achievementId))), string(abi.encodePacked(now,achievements[achievementId].uri))));\n        \n        emit RequestAchievement(achievementId, msg.sender, achievements[achievementId].reward);\n\n        return true;\n    }\n   \n    function getAllAchievementList() view public returns (bytes32[]) {\n        return allAchievements;\n    }\n   \n    function getActiveAchievementList() view public returns(bytes32[]) {\n\n    }\n\n    function getLengthOfAchievements() view public returns(uint256) {\n        return allAchievements.length;\n    }\n\n    function getAchievementById(bytes32 _achievementId) view public returns(bytes32 id, address creator, address[] issuers, uint256[] claimTopics, bytes32 explanation, uint256 reward, string uri) {\n        return (\n            achievements[_achievementId].id, \n            achievements[_achievementId].creator, \n            achievements[_achievementId].issuers, \n            achievements[_achievementId].claimTopics, \n            achievements[_achievementId].explanation, \n            achievements[_achievementId].reward, \n            achievements[_achievementId].uri\n            );\n\n    }\n\n    function getAchievementByIndex(uint256 _index) view public returns(bytes32 id, address creator, address[] issuers, uint256[] claimTopics, bytes32 explanation, uint256 reward, string uri) {\n        bytes32 _achievementId = allAchievements[_index];\n        return (\n            achievements[_achievementId].id, \n            achievements[_achievementId].creator, \n            achievements[_achievementId].issuers, \n            achievements[_achievementId].claimTopics, \n            achievements[_achievementId].explanation, \n            achievements[_achievementId].reward, \n            achievements[_achievementId].uri\n            );\n\n    }\n\n    /**\n     * @dev Get achievement id. an achievement ID is unique with given params.\n     * achievementId = keccak256(abi.encodePacked(creator, topic1, issuer1, topic2, issuer2, ...))\n     * @param creator achievement creator\n     * @param topics topics achievement requirements\n     * @param issuers issuers achievement requirements\n     * @return A boolean that indicates if the operation was successful.\n     */\n    function getAchievementId(address creator, uint256[] topics, address[] issuers) pure public returns(bytes32) {\n        bytes memory idBytes;\n        \n        require(topics.length == issuers.length);\n        \n        idBytes = abi.encodePacked(idBytes, creator);\n\n        for(uint i=0;i<topics.length;i++){\n            idBytes = abi.encodePacked(idBytes, topics[i], issuers[i]);\n        }\n        return keccak256(idBytes);\n    }\n\n}\n",
  "sourcePath": "/Users/coinplug/BangGijin/metabolics2.0/contracts/property/AchievementManager.sol",
  "compiler": {
    "name": "solc",
    "version": "0.4.24+commit.e67f0147.Emscripten.clang"
  },
  "schemaVersion": "2.0.1",
  "updatedAt": "2018-10-23T05:48:07.492Z"
}