{
  "contractName": "AchievementManager",
  "abi": [
    {
      "constant": true,
      "inputs": [],
      "name": "REG",
      "outputs": [
        {
          "name": "",
          "type": "address"
        }
      ],
      "payable": false,
      "stateMutability": "view",
      "type": "function"
    },
    {
      "constant": false,
      "inputs": [
        {
          "name": "_addr",
          "type": "address"
        }
      ],
      "name": "isPermitted",
      "outputs": [
        {
          "name": "",
          "type": "bool"
        }
      ],
      "payable": false,
      "stateMutability": "nonpayable",
      "type": "function"
    },
    {
      "constant": true,
      "inputs": [],
      "name": "minimumDeposit",
      "outputs": [
        {
          "name": "",
          "type": "uint256"
        }
      ],
      "payable": false,
      "stateMutability": "view",
      "type": "function"
    },
    {
      "constant": true,
      "inputs": [],
      "name": "THIS_NAME",
      "outputs": [
        {
          "name": "",
          "type": "bytes32"
        }
      ],
      "payable": false,
      "stateMutability": "view",
      "type": "function"
    },
    {
      "constant": true,
      "inputs": [
        {
          "name": "",
          "type": "bytes32"
        }
      ],
      "name": "achievements",
      "outputs": [
        {
          "name": "id",
          "type": "bytes32"
        },
        {
          "name": "creator",
          "type": "address"
        },
        {
          "name": "explanation",
          "type": "bytes32"
        },
        {
          "name": "reward",
          "type": "uint256"
        },
        {
          "name": "uri",
          "type": "string"
        },
        {
          "name": "createdAt",
          "type": "uint256"
        }
      ],
      "payable": false,
      "stateMutability": "view",
      "type": "function"
    },
    {
      "constant": true,
      "inputs": [
        {
          "name": "",
          "type": "uint256"
        }
      ],
      "name": "allAchievements",
      "outputs": [
        {
          "name": "",
          "type": "bytes32"
        }
      ],
      "payable": false,
      "stateMutability": "view",
      "type": "function"
    },
    {
      "constant": true,
      "inputs": [
        {
          "name": "",
          "type": "bytes32"
        }
      ],
      "name": "balance",
      "outputs": [
        {
          "name": "",
          "type": "uint256"
        }
      ],
      "payable": false,
      "stateMutability": "view",
      "type": "function"
    },
    {
      "constant": true,
      "inputs": [],
      "name": "owner",
      "outputs": [
        {
          "name": "",
          "type": "address"
        }
      ],
      "payable": false,
      "stateMutability": "view",
      "type": "function"
    },
    {
      "constant": false,
      "inputs": [
        {
          "name": "_addr",
          "type": "address"
        }
      ],
      "name": "setRegistry",
      "outputs": [],
      "payable": false,
      "stateMutability": "nonpayable",
      "type": "function"
    },
    {
      "constant": false,
      "inputs": [
        {
          "name": "newOwner",
          "type": "address"
        }
      ],
      "name": "transferOwnership",
      "outputs": [],
      "payable": false,
      "stateMutability": "nonpayable",
      "type": "function"
    },
    {
      "inputs": [],
      "payable": false,
      "stateMutability": "nonpayable",
      "type": "constructor"
    },
    {
      "anonymous": false,
      "inputs": [
        {
          "indexed": true,
          "name": "achievementId",
          "type": "bytes32"
        },
        {
          "indexed": false,
          "name": "topics",
          "type": "uint256[]"
        },
        {
          "indexed": false,
          "name": "issuers",
          "type": "address[]"
        },
        {
          "indexed": false,
          "name": "staked",
          "type": "uint256"
        },
        {
          "indexed": false,
          "name": "uri",
          "type": "string"
        },
        {
          "indexed": false,
          "name": "timestamp",
          "type": "uint256"
        }
      ],
      "name": "CreateAchievement",
      "type": "event"
    },
    {
      "anonymous": false,
      "inputs": [
        {
          "indexed": true,
          "name": "achievementId",
          "type": "bytes32"
        },
        {
          "indexed": false,
          "name": "reward",
          "type": "uint256"
        },
        {
          "indexed": false,
          "name": "charge",
          "type": "uint256"
        }
      ],
      "name": "UpdateAchievement",
      "type": "event"
    },
    {
      "anonymous": false,
      "inputs": [
        {
          "indexed": true,
          "name": "achievementId",
          "type": "bytes32"
        },
        {
          "indexed": false,
          "name": "refund",
          "type": "uint256"
        }
      ],
      "name": "DeleteAchievement",
      "type": "event"
    },
    {
      "anonymous": false,
      "inputs": [
        {
          "indexed": true,
          "name": "achievementId",
          "type": "bytes32"
        },
        {
          "indexed": true,
          "name": "receiver",
          "type": "address"
        },
        {
          "indexed": false,
          "name": "reward",
          "type": "uint256"
        }
      ],
      "name": "RequestAchievement",
      "type": "event"
    },
    {
      "anonymous": false,
      "inputs": [
        {
          "indexed": false,
          "name": "addr",
          "type": "address"
        },
        {
          "indexed": false,
          "name": "name",
          "type": "bytes32"
        },
        {
          "indexed": false,
          "name": "go",
          "type": "bool"
        }
      ],
      "name": "Per",
      "type": "event"
    },
    {
      "anonymous": false,
      "inputs": [
        {
          "indexed": true,
          "name": "previousOwner",
          "type": "address"
        },
        {
          "indexed": true,
          "name": "newOwner",
          "type": "address"
        }
      ],
      "name": "OwnershipTransferred",
      "type": "event"
    },
    {
      "constant": false,
      "inputs": [
        {
          "name": "_addr",
          "type": "address"
        }
      ],
      "name": "isAAttestationAgency",
      "outputs": [
        {
          "name": "",
          "type": "bool"
        }
      ],
      "payable": false,
      "stateMutability": "nonpayable",
      "type": "function"
    },
    {
      "constant": false,
      "inputs": [
        {
          "name": "_topics",
          "type": "uint256[]"
        },
        {
          "name": "_issuers",
          "type": "address[]"
        },
        {
          "name": "_achievementExplanation",
          "type": "bytes32"
        },
        {
          "name": "_reward",
          "type": "uint256"
        },
        {
          "name": "_uri",
          "type": "string"
        }
      ],
      "name": "createAchievement",
      "outputs": [
        {
          "name": "",
          "type": "bool"
        }
      ],
      "payable": true,
      "stateMutability": "payable",
      "type": "function"
    },
    {
      "constant": false,
      "inputs": [
        {
          "name": "_achievementId",
          "type": "bytes32"
        },
        {
          "name": "_reward",
          "type": "uint256"
        }
      ],
      "name": "updateAchievement",
      "outputs": [
        {
          "name": "",
          "type": "bool"
        }
      ],
      "payable": true,
      "stateMutability": "payable",
      "type": "function"
    },
    {
      "constant": false,
      "inputs": [
        {
          "name": "_achievementId",
          "type": "bytes32"
        }
      ],
      "name": "deleteAchievement",
      "outputs": [
        {
          "name": "",
          "type": "bool"
        }
      ],
      "payable": false,
      "stateMutability": "nonpayable",
      "type": "function"
    },
    {
      "constant": false,
      "inputs": [
        {
          "name": "_achievementId",
          "type": "bytes32"
        }
      ],
      "name": "requestAchievement",
      "outputs": [
        {
          "name": "",
          "type": "bool"
        }
      ],
      "payable": false,
      "stateMutability": "nonpayable",
      "type": "function"
    },
    {
      "constant": true,
      "inputs": [],
      "name": "getAllAchievementList",
      "outputs": [
        {
          "name": "",
          "type": "bytes32[]"
        }
      ],
      "payable": false,
      "stateMutability": "view",
      "type": "function"
    },
    {
      "constant": true,
      "inputs": [],
      "name": "getActiveAchievementList",
      "outputs": [
        {
          "name": "",
          "type": "bytes32[]"
        }
      ],
      "payable": false,
      "stateMutability": "view",
      "type": "function"
    },
    {
      "constant": true,
      "inputs": [],
      "name": "getLengthOfAchievements",
      "outputs": [
        {
          "name": "",
          "type": "uint256"
        }
      ],
      "payable": false,
      "stateMutability": "view",
      "type": "function"
    },
    {
      "constant": true,
      "inputs": [
        {
          "name": "_achievementId",
          "type": "bytes32"
        }
      ],
      "name": "getAchievementById",
      "outputs": [
        {
          "name": "id",
          "type": "bytes32"
        },
        {
          "name": "creator",
          "type": "address"
        },
        {
          "name": "issuers",
          "type": "address[]"
        },
        {
          "name": "claimTopics",
          "type": "uint256[]"
        },
        {
          "name": "explanation",
          "type": "bytes32"
        },
        {
          "name": "reward",
          "type": "uint256"
        },
        {
          "name": "uri",
          "type": "string"
        },
        {
          "name": "timestamp",
          "type": "uint256"
        }
      ],
      "payable": false,
      "stateMutability": "view",
      "type": "function"
    },
    {
      "constant": true,
      "inputs": [
        {
          "name": "_index",
          "type": "uint256"
        }
      ],
      "name": "getAchievementByIndex",
      "outputs": [
        {
          "name": "id",
          "type": "bytes32"
        },
        {
          "name": "creator",
          "type": "address"
        },
        {
          "name": "issuers",
          "type": "address[]"
        },
        {
          "name": "claimTopics",
          "type": "uint256[]"
        },
        {
          "name": "explanation",
          "type": "bytes32"
        },
        {
          "name": "reward",
          "type": "uint256"
        },
        {
          "name": "uri",
          "type": "string"
        },
        {
          "name": "timestamp",
          "type": "uint256"
        }
      ],
      "payable": false,
      "stateMutability": "view",
      "type": "function"
    },
    {
      "constant": true,
      "inputs": [
        {
          "name": "creator",
          "type": "address"
        },
        {
          "name": "topics",
          "type": "uint256[]"
        },
        {
          "name": "issuers",
          "type": "address[]"
        }
      ],
      "name": "getAchievementId",
      "outputs": [
        {
          "name": "",
          "type": "bytes32"
        }
      ],
      "payable": false,
      "stateMutability": "pure",
      "type": "function"
    }
  ],
  "bytecode": "0x6080604052670de0b6b3a764000060035534801561001c57600080fd5b5060008054600160a060020a031916331790557f416368696576656d656e744d616e6167657200000000000000000000000000006002556120e8806100626000396000f3006080604052600436106101035763ffffffff60e060020a60003504166305b636e3811461010857806318b6e0321461025857806322a3ecb71461027a5780632f1b9f14146102df57806339363112146102f45780633fd8cc4e14610325578063509257e814610346578063636bfbab1461036d57806364319d0b146103825780636b03af841461039757806374f0ce451461045b57806377aea96714610473578063857ab0751461049457806389eba421146105305780638da5cb5b1461054857806397d26ab01461055d5780639cb4da0814610575578063a64a3da31461058d578063a91ee0dc146105a5578063f2fde38b146105c8578063f5010fad146105e9575b600080fd5b34801561011457600080fd5b506101206004356106b5565b60408051898152600160a060020a0389166020808301919091526080820187905260a0820186905260e082018490526101009282018381528951938301939093528851919291606084019160c08501916101208601918c8101910280838360005b83811015610199578181015183820152602001610181565b50505050905001848103835289818151815260200191508051906020019060200280838360005b838110156101d85781810151838201526020016101c0565b50505050905001848103825286818151815260200191508051906020019080838360005b838110156102145781810151838201526020016101fc565b50505050905090810190601f1680156102415780820380516001836020036101000a031916815260200191505b509b50505050505050505050505060405180910390f35b61026660043560243561087b565b604080519115158252519081900360200190f35b34801561028657600080fd5b5061028f610903565b60408051602080825283518183015283519192839290830191858101910280838360005b838110156102cb5781810151838201526020016102b3565b505050509050019250505060405180910390f35b3480156102eb57600080fd5b5061028f61095d565b34801561030057600080fd5b50610309610962565b60408051600160a060020a039092168252519081900360200190f35b34801561033157600080fd5b50610266600160a060020a0360043516610971565b34801561035257600080fd5b5061035b610a18565b60408051918252519081900360200190f35b34801561037957600080fd5b5061035b610a1e565b34801561038e57600080fd5b5061035b610a24565b3480156103a357600080fd5b506103af600435610a2a565b60408051878152600160a060020a0387166020808301919091529181018690526060810185905260a0810183905260c06080820181815285519183019190915284519192909160e084019186019080838360005b8381101561041b578181015183820152602001610403565b50505050905090810190601f1680156104485780820380516001836020036101000a031916815260200191505b5097505050505050505060405180910390f35b34801561046757600080fd5b5061035b600435610af6565b34801561047f57600080fd5b50610266600160a060020a0360043516610b15565b3480156104a057600080fd5b5060408051602060046024803582810135848102808701860190975280865261035b968435600160a060020a031696369660449591949091019291829185019084908082843750506040805187358901803560208181028481018201909552818452989b9a998901989297509082019550935083925085019084908082843750949750610c5d9650505050505050565b34801561053c57600080fd5b5061035b600435610e3d565b34801561055457600080fd5b50610309610e4f565b34801561056957600080fd5b50610120600435610e5e565b34801561058157600080fd5b50610266600435611063565b34801561059957600080fd5b5061026660043561110e565b3480156105b157600080fd5b506105c6600160a060020a036004351661197e565b005b3480156105d457600080fd5b506105c6600160a060020a03600435166119c4565b6040805160206004803580820135838102808601850190965280855261026695369593946024949385019291829185019084908082843750506040805187358901803560208181028481018201909552818452989b9a99890198929750908201955093508392508501908490808284375050604080516020888301358a018035601f8101839004830284018301909452838352979a89359a8a8301359a91999098506060909101965091945090810192508190840183828082843750949750611a589650505050505050565b600080606080600080606060008060068a8154811015156106d257fe5b600091825260208083209091015480835260048083526040938490208054600182015492820154600583015460078401546002850180548a51818b0281018b01909b52808b52979a509398600160a060020a03909616979396600386019693959294600690930193919288919083018282801561077857602002820191906000526020600020905b8154600160a060020a0316815260019091019060200180831161075a575b50505050509550848054806020026020016040519081016040528092919081815260200182805480156107ca57602002820191906000526020600020905b8154815260200190600101908083116107b6575b5050855460408051602060026001851615610100026000190190941693909304601f8101849004840282018401909252818152959a50879450925084019050828280156108585780601f1061082d57610100808354040283529160200191610858565b820191906000526020600020905b81548152906001019060200180831161083b57829003601f168201915b505050505091509850985098509850985098509850985050919395975091939597565b600082815260046020526040812060010154600160a060020a031633146108a157600080fd5b600083815260046020908152604080832060059081018690558252918290203490819055825185815291820152815185927f409c15ea918971e39c60d842defa9f1480c49f4c482f97824070559e6e34e103928290030190a250600192915050565b6060600680548060200260200160405190810160405280929190818152602001828054801561095257602002820191906000526020600020905b8154815260019091019060200180831161093d575b505050505090505b90565b606090565b600154600160a060020a031681565b600154600254604080517f60d6c7cf0000000000000000000000000000000000000000000000000000000081526004810192909252600160a060020a038481166024840152905160009391909116916360d6c7cf91604480830192602092919082900301818787803b1580156109e657600080fd5b505af11580156109fa573d6000803e3d6000fd5b505050506040513d6020811015610a1057600080fd5b505192915050565b60065490565b60035481565b60025481565b60046020818152600092835260409283902080546001808301549483015460058401546006850180548951600261010096831615969096026000190190911694909404601f81018890048802850188019099528884529397600160a060020a039097169691959094939190830182828015610ae65780601f10610abb57610100808354040283529160200191610ae6565b820191906000526020600020905b815481529060010190602001808311610ac957829003601f168201915b5050505050908060070154905086565b6006805482908110610b0457fe5b600091825260209091200154905081565b6001546040805160e060020a630d2020dd0281527f4174746573746174696f6e4167656e6379526567697374727900000000000000600482015290516000928392600160a060020a0390911691630d2020dd9160248082019260209290919082900301818787803b158015610b8957600080fd5b505af1158015610b9d573d6000803e3d6000fd5b505050506040513d6020811015610bb357600080fd5b5051604080517fc3c5a547000000000000000000000000000000000000000000000000000000008152600160a060020a03868116600483015291519293509083169163c3c5a547916024808201926020929091908290030181600087803b158015610c1d57600080fd5b505af1158015610c31573d6000803e3d6000fd5b505050506040513d6020811015610c4757600080fd5b50511515610c5457600080fd5b50600192915050565b60006060600083518551141515610c7357600080fd5b81866040516020018083805190602001908083835b60208310610ca75780518252601f199092019160209182019101610c88565b6001836020036101000a03801982511681845116808217855250505050505090500182600160a060020a0316600160a060020a03166c01000000000000000000000000028152601401925050506040516020818303038152906040529150600090505b8451811015610dd757818582815181101515610d2257fe5b906020019060200201518583815181101515610d3a57fe5b906020019060200201516040516020018084805190602001908083835b60208310610d765780518252601f199092019160209182019101610d57565b51815160209384036101000a6000190180199092169116179052920194855250600160a060020a03929092166c0100000000000000000000000002918301919091525060408051601481840301815260349092019052925050600101610d0a565b816040518082805190602001908083835b60208310610e075780518252601f199092019160209182019101610de8565b5181516020939093036101000a600019018019909116921691909117905260405192018290039091209998505050505050505050565b60056020526000908152604090205481565b600054600160a060020a031681565b60008060608060008060606000610e73611ef6565b60008a815260046020908152604091829020825161010081018452815481526001820154600160a060020a03168184015260028201805485518186028101860187528181529295939493860193830182828015610ef957602002820191906000526020600020905b8154600160a060020a03168152600190910190602001808311610edb575b5050505050815260200160038201805480602002602001604051908101604052809291908181526020018280548015610f5157602002820191906000526020600020905b815481526020019060010190808311610f3d575b505050918352505060048201546020808301919091526005830154604080840191909152600684018054825160026000196001841615610100020190921691909104601f8101859004850282018501909352828152606090940193929091908301828280156110015780601f10610fd657610100808354040283529160200191611001565b820191906000526020600020905b815481529060010190602001808311610fe457829003601f168201915b505050505081526020016007820154815250509050806000015181602001518260400151836060015184608001518560a001518660c001518760e001518595508494508191509850985098509850985098509850985050919395975091939597565b6000818152600460205260408120600101548190600160a060020a0316331461108b57600080fd5b5060008281526005602052604080822080549083905590519091339183156108fc0291849190818181858888f193505050501580156110ce573d6000803e3d6000fd5b5060408051828152905184917ff35d42b9c311ce9dadd88de9b62d1ff91144843421993199963f32fc1c1ce6b2919081900360200190a250600192915050565b6001546040805160e060020a630d2020dd0281527f4964656e746974794d616e61676572000000000000000000000000000000000060048201529051600092839283928392839283928392600160a060020a031691630d2020dd91602480830192602092919082900301818787803b15801561118957600080fd5b505af115801561119d573d6000803e3d6000fd5b505050506040513d60208110156111b357600080fd5b5051604080517f12459b000000000000000000000000000000000000000000000000000000000081523360048201529051919750600160a060020a038816916312459b00916024808201926020929091908290030181600087803b15801561121a57600080fd5b505af115801561122e573d6000803e3d6000fd5b505050506040513d602081101561124457600080fd5b505115156112d957604080517f08c379a000000000000000000000000000000000000000000000000000000000815260206004820152603560248201527f6d73672e73656e646572206973206e6f74206964656e7469747920637265617460448201527f6564206279204964656e746974794d616e616765720000000000000000000000606482015290519081900360840190fd5b339350600094505b6000888152600460205260409020600301548510156115b557600088815260046020526040902060020180548690811061131757fe5b60009182526020808320909101548a8352600490915260409091206003018054600160a060020a03909216918790811061134d57fe5b90600052602060002001546040516020018083600160a060020a0316600160a060020a03166c01000000000000000000000000028152601401828152602001925050506040516020818303038152906040526040518082805190602001908083835b602083106113ce5780518252601f1990920191602091820191016113af565b5181516020939093036101000a6000190180199091169216919091179052604080519190930181900381207fc9100bcb000000000000000000000000000000000000000000000000000000008252600482018190529251929650600160a060020a038916945063c9100bcb9350602480820193600093509182900301818387803b15801561145b57600080fd5b505af115801561146f573d6000803e3d6000fd5b505050506040513d6000823e601f3d908101601f1916820160405260c081101561149857600080fd5b81516020830151604084015160608501805193959294919391830192916401000000008111156114c757600080fd5b820160208101848111156114da57600080fd5b81516401000000008111828201871017156114f457600080fd5b5050929190602001805164010000000081111561151057600080fd5b8201602081018481111561152357600080fd5b815164010000000081118282018710171561153d57600080fd5b5050929190602001805164010000000081111561155957600080fd5b8201602081018481111561156c57600080fd5b815164010000000081118282018710171561158657600080fd5b50969b50505050600160a060020a038916151595506115aa94505050505057600080fd5b6001909401936112e1565b600088815260046020908152604080832060059081015492529091205410156115dd57600080fd5b60008881526004602090815260408083206005908101549252909120546116099163ffffffff611ee416565b6000898152600560208181526040808420949094556004905282822001549151339280156108fc0292909190818181858888f19350505050158015611652573d6000803e3d6000fd5b506001546040805160e060020a630d2020dd0281527f416368696576656d656e7400000000000000000000000000000000000000000060048201529051600160a060020a0390921691630d2020dd916024808201926020929091908290030181600087803b1580156116c357600080fd5b505af11580156116d7573d6000803e3d6000fd5b505050506040513d60208110156116ed57600080fd5b505160408051336c01000000000000000000000000810260208084019190915260348084018e9052845180850390910181526054909301938490528251949550600160a060020a0386169463d3fc986494929392918291908401908083835b6020831061176b5780518252601f19909201916020918201910161174c565b6001836020036101000a03801982511681845116808217855250505050505090500191505060405180910390206001900442600460008e60001916600019168152602001908152602001600020600601604051602001808381526020018280546001816001161561010002031660029004801561181f5780601f106117fd57610100808354040283529182019161181f565b820191906000526020600020905b81548152906001019060200180831161180b575b5050925050506040516020818303038152906040526040518463ffffffff1660e060020a0281526004018084600160a060020a0316600160a060020a0316815260200183815260200180602001828103825283818151815260200191508051906020019080838360005b838110156118a1578181015183820152602001611889565b50505050905090810190601f1680156118ce5780820380516001836020036101000a031916815260200191505b50945050505050602060405180830381600087803b1580156118ef57600080fd5b505af1158015611903573d6000803e3d6000fd5b505050506040513d602081101561191957600080fd5b5051151561192657600080fd5b600088815260046020908152604091829020600501548251908152915133928b927f2b3c50bc6470494ddd6230eeb3cbb0b2a212a4c1c262627fa78f6c5b4bf0d64d92918290030190a3506001979650505050505050565b600054600160a060020a0316331461199557600080fd5b6001805473ffffffffffffffffffffffffffffffffffffffff1916600160a060020a0392909216919091179055565b600054600160a060020a031633146119db57600080fd5b600160a060020a03811615156119f057600080fd5b60008054604051600160a060020a03808516939216917f8be0079c531659141344cd1fd0a4f28419497f9722a3daafe3b4186f6b6457e091a36000805473ffffffffffffffffffffffffffffffffffffffff1916600160a060020a0392909216919091179055565b600080600080611a66611ef6565b611a6f33610b15565b1515611a7a57600080fd5b611a85338b8b610c5d565b60008181526004602052604090205490945015611aa157600080fd5b600354341015611ab057600080fd5b6001546040805160e060020a630d2020dd0281527f546f70696352656769737472790000000000000000000000000000000000000060048201529051600160a060020a0390921691630d2020dd916024808201926020929091908290030181600087803b158015611b2057600080fd5b505af1158015611b34573d6000803e3d6000fd5b505050506040513d6020811015611b4a57600080fd5b50519250600091505b8951821015611c605782600160a060020a031663579a69888b84815181101515611b7957fe5b906020019060200201516040518263ffffffff1660e060020a02815260040180828152602001915050602060405180830381600087803b158015611bbc57600080fd5b505af1158015611bd0573d6000803e3d6000fd5b505050506040513d6020811015611be657600080fd5b50511515611c5557604080517f08c379a000000000000000000000000000000000000000000000000000000000815260206004820152601460248201527f746f706963206e6f742072656769737465726564000000000000000000000000604482015290519081900360640190fd5b600190910190611b53565b83815233602080830191825260408084018c8152606085018e9052608085018c905260c085018a905260a085018b90524260e08601526000888152600484529190912084518155925160018401805473ffffffffffffffffffffffffffffffffffffffff1916600160a060020a03909216919091179055518051849392611cee926002850192910190611f4b565b5060608201518051611d0a916003840191602090910190611fbd565b506080820151600482015560a0820151600582015560c08201518051611d3a916006840191602090910190612004565b5060e082015181600701559050506006849080600181540180825580915050906001820390600052602060002001600090919290919091509060001916905550346005600086600019166000191681526020019081526020016000208190555083600019167fdebdabb26fa499a98c2bec69c54183d67f0ca99a9c5811dc76bb71c6fa568a6d8b8b348a4260405180806020018060200186815260200180602001858152602001848103845289818151815260200191508051906020019060200280838360005b83811015611e19578181015183820152602001611e01565b50505050905001848103835288818151815260200191508051906020019060200280838360005b83811015611e58578181015183820152602001611e40565b50505050905001848103825286818151815260200191508051906020019080838360005b83811015611e94578181015183820152602001611e7c565b50505050905090810190601f168015611ec15780820380516001836020036101000a031916815260200191505b509850505050505050505060405180910390a25060019998505050505050505050565b600082821115611ef057fe5b50900390565b61010060405190810160405280600080191681526020016000600160a060020a031681526020016060815260200160608152602001600080191681526020016000815260200160608152602001600081525090565b828054828255906000526020600020908101928215611fad579160200282015b82811115611fad578251825473ffffffffffffffffffffffffffffffffffffffff1916600160a060020a03909116178255602090920191600190910190611f6b565b50611fb9929150612071565b5090565b828054828255906000526020600020908101928215611ff8579160200282015b82811115611ff8578251825591602001919060010190611fdd565b50611fb99291506120a2565b828054600181600116156101000203166002900490600052602060002090601f016020900481019282601f1061204557805160ff1916838001178555611ff8565b82800160010185558215611ff85791820182811115611ff8578251825591602001919060010190611fdd565b61095a91905b80821115611fb957805473ffffffffffffffffffffffffffffffffffffffff19168155600101612077565b61095a91905b80821115611fb957600081556001016120a85600a165627a7a7230582034b06189dee3e0ee058c8f0d9728640a50b410b2ede27a1126ef1664b6c344760029",
  "source": "pragma solidity ^0.4.24;\n\nimport \"../openzeppelin-solidity/contracts/math/SafeMath.sol\";\nimport \"../identity/ERC735.sol\";\nimport \"../RegistryUser.sol\";\nimport \"../registry/TopicRegistry.sol\";\nimport \"../interface/IAchievement.sol\";\nimport \"../interface/IIdentityManager.sol\";\nimport \"../interface/IAttestationAgencyRegistry.sol\";\n\n/**\n * @title AchievementManager\n * @dev AchievementManager Contract used to manage achievement system in metadium\n * The permissinoed participant can CRUD the achievement.\n */\ncontract AchievementManager is RegistryUser {\n    using SafeMath for uint256;\n\n    uint256 public minimumDeposit = 1 * 10 ** 18;\n\n    mapping(bytes32 => Achievement) public achievements; // achievementId => achievement\n    mapping(bytes32 => uint256) public balance; // achievementId => balance\n\n    bytes32[] public allAchievements;\n\n    event CreateAchievement(bytes32 indexed achievementId, uint256[] topics, address[] issuers, uint256 staked, string uri, uint256 timestamp);\n    event UpdateAchievement(bytes32 indexed achievementId, uint256 reward, uint256 charge);\n    event DeleteAchievement(bytes32 indexed achievementId, uint256 refund);\n    event RequestAchievement(bytes32 indexed achievementId, address indexed receiver, uint256 reward);\n\n    struct Achievement {\n        bytes32 id;\n        address creator;\n        address[] issuers;\n        uint256[] claimTopics;\n        bytes32 explanation;\n        uint256 reward;\n        string uri;\n        uint256 createdAt;\n    }\n\n    function isAAttestationAgency(address _addr) public returns(bool) {\n        \n        IAttestationAgencyRegistry ar = IAttestationAgencyRegistry(REG.getContractAddress(\"AttestationAgencyRegistry\"));\n        require(ar.isRegistered(_addr) != 0);\n\n        return true;\n    }\n\n    modifier onlyAttestationAgency() {\n        require(isAAttestationAgency(msg.sender));\n        _;\n    }\n\n\n    function AchievementManager() public {\n        THIS_NAME = \"AchievementManager\";\n    }\n\n    /**\n     * @dev Create Achievement. Topics should be registered first.\n     * @param _topics registered topics\n     * @param _issuers issuers for each topic\n     * @param _achievementExplanation achievement explanation\n     * @param _reward reward in meta when user request acievement\n     * @param _uri basically used for ipfs id or something\n     * @return A boolean that indicates if the operation was successful.\n     */\n    function createAchievement(uint256[] _topics, address[] _issuers, bytes32 _achievementExplanation, uint256 _reward, string _uri) onlyAttestationAgency public payable returns (bool) {\n\n        //check if achievement is already registered\n        bytes32 achievementId = getAchievementId(msg.sender, _topics, _issuers);\n        require(achievements[achievementId].id == 0);\n\n        //check staking amount used for reward\n        require(msg.value >= minimumDeposit);\n\n        //topics should be registered already\n        TopicRegistry topicRegistry = TopicRegistry(REG.getContractAddress(\"TopicRegistry\"));\n        for(uint256 i=0;i<_topics.length;i++){\n            require(topicRegistry.isRegistered(_topics[i]), 'topic not registered');\n        }\n        \n        Achievement memory newAc;\n        newAc.id = achievementId;\n        newAc.creator = msg.sender;\n        newAc.issuers = _issuers;\n        newAc.claimTopics = _topics;\n        newAc.explanation = _achievementExplanation;\n        newAc.uri = _uri;\n        newAc.reward = _reward;\n        newAc.createdAt = now;\n\n        achievements[newAc.id] = newAc;\n        allAchievements.push(achievementId);\n        balance[achievementId] = msg.value;\n\n        emit CreateAchievement(achievementId, _topics, _issuers, msg.value, _uri, now);\n\n        return true;\n    }\n\n    //TODO createAchievementWithNewTopics\n    // /**\n    //  * @dev Create Achievement. If topic is not exist, register it to the topic registry.\n    //  * @param _topics registered topics\n    //  * @param _newTopicExaplanations explanations of new topics\n    //  * @param _issuers issuers for each topic\n    //  * @param _achievementExplanation achievement explanation\n    //  * @param _reward reward in meta when user request acievement\n    //  * @param _uri basically used for ipfs id or something\n    //  * @return A boolean that indicates if the operation was successful.\n    //  */\n    // function createAchievementWithNewTopics(uint256[] _topics, bytes32[] _newTopicExaplanations, address[] _issuers, bytes32 _achievementExplanation, uint256 _reward, string _uri) onlyAttestationAgency public payable returns (bool) {\n\n    //     require((_topics.length + _newTopicExaplanations.length) == issuers.length);\n\n    //     //check staking amount used for reward\n    //     require(msg.value >= minimumDeposit);\n    //     TopicRegistry topicRegistry = TopicRegistry(REG.getContractAddress(\"TopicRegistry\"));\n\n    //     uint256[] memory allTopics = new uint[](_topics.length + _newTopicExaplanations.length);\n\n    //     uint256 i;\n    //     for(i=0;i<_topics.length;i++){\n    //         allTopics[i] = _topics[i];\n    //     }\n\n    //     for(i=_topics.length;i<_topics.length+_newTopicExaplanations.length;i++) {\n    //         allTopics[i] = topicRegistry.registerTopic(msg.sender, _newTopicExaplanations[i]);\n    //     }\n\n    //     //check if achievement is already registered\n    //     bytes32 achievementId = getAchievementId(msg.sender, topics, issuers);\n    //     require(achievements[achievementId].id == 0);\n    //     Achievement memory newAc;\n    //     newAc.id = achievementId;\n    //     newAc.creator = msg.sender;\n    //     newAc.issuers = issuers;\n    //     newAc.claimTopics = topics;\n    //     newAc.explanation = achievementExplanation;\n    //     newAc.uri = uri;\n    //     newAc.reward = reward;\n\n    //     achievements[newAc.id] = newAc;\n    //     allAchievements.push(achievementId);\n    //     balance[achievementId] = msg.value;\n\n    //     return true;\n    // }\n    \n\n    /**\n     * @dev Update Achievement. Fund can be charged through this, and reward can be set newly.\n     * @param _achievementId achievementId\n     * @param _reward new reward\n     * @return A boolean that indicates if the operation was successful.\n     */\n    function updateAchievement(bytes32 _achievementId, uint256 _reward) public payable returns (bool) {\n        //Only creator can charge fund\n        require(achievements[_achievementId].creator == msg.sender);\n\n        achievements[_achievementId].reward = _reward;\n        balance[_achievementId] = msg.value;\n        emit UpdateAchievement(_achievementId, _reward, msg.value);\n        return true;\n    }\n\n    /**\n     * @dev Delete Achievement. This function DOES NOT actually delete achievement.\n     * Just refund to the creator.\n     * @param _achievementId achievementId\n     * @return A boolean that indicates if the operation was successful.\n     */\n    function deleteAchievement(bytes32 _achievementId) public returns (bool) {\n        //Only creator can refund\n        require(achievements[_achievementId].creator == msg.sender);\n\n        uint256 rest = balance[_achievementId];\n        \n        balance[_achievementId] = 0;\n        msg.sender.transfer(rest);\n        \n        emit DeleteAchievement(_achievementId, rest);\n\n        return true;\n    }\n    /**\n     * @dev Request achievement. If user have proper claims, user get acievement(ERC721) token and meta reward\n     * @param _achievementId _achievementId user want to request\n     * @return A boolean that indicates if the operation was successful.\n     */\n    function requestAchievement(bytes32 _achievementId) public returns (bool) {\n        // check whether msg.sender is deployed using IdentityManager\n        IIdentityManager im = IIdentityManager(REG.getContractAddress(\"IdentityManager\"));\n        require(im.isMetaId(msg.sender), 'msg.sender is not identity created by IdentityManager');\n        \n        uint256 i;\n        ERC735 identity = ERC735(msg.sender);\n        // // check if sender has enough claims\n        for(i=0;i<achievements[_achievementId].claimTopics.length;i++) {\n            address issuer;\n            // claimId is made by topic and issuer.\n            bytes32 claimId = keccak256(abi.encodePacked(achievements[_achievementId].issuers[i], achievements[_achievementId].claimTopics[i]));\n            (, , issuer, , , ) = identity.getClaim(claimId); // getClaim returns (topic, scheme, issuer, signature, data, uri)\n\n            require(issuer != address(0));\n\n        }\n        \n        // give reward to msg.sender(identity contract)\n        require(balance[_achievementId] >= achievements[_achievementId].reward);\n        balance[_achievementId] = balance[_achievementId].sub(achievements[_achievementId].reward);\n        msg.sender.transfer(achievements[_achievementId].reward);\n\n        // mint achievement erc721 to msg.sender;\n        IAchievement achievement = IAchievement(REG.getContractAddress(\"Achievement\"));\n        require(achievement.mint(msg.sender, uint256(keccak256(abi.encodePacked(msg.sender, _achievementId))), string(abi.encodePacked(now,achievements[_achievementId].uri))));\n        \n        emit RequestAchievement(_achievementId, msg.sender, achievements[_achievementId].reward);\n\n        return true;\n    }\n   \n    function getAllAchievementList() view public returns (bytes32[]) {\n        return allAchievements;\n    }\n   \n    function getActiveAchievementList() view public returns(bytes32[]) {\n\n    }\n\n    function getLengthOfAchievements() view public returns(uint256) {\n        return allAchievements.length;\n    }\n\n    function getAchievementById(bytes32 _achievementId) view public returns(bytes32 id, address creator, address[] issuers, uint256[] claimTopics, bytes32 explanation, uint256 reward, string uri, uint256 timestamp) {\n        Achievement memory ac = achievements[_achievementId];\n        return (\n            ac.id, \n            ac.creator, \n            ac.issuers, \n            ac.claimTopics, \n            ac.explanation, \n            ac.reward, \n            ac.uri,\n            ac.createdAt\n            );\n    }\n\n    function getAchievementByIndex(uint256 _index) view public returns(bytes32 id, address creator, address[] issuers, uint256[] claimTopics, bytes32 explanation, uint256 reward, string uri, uint256 timestamp) {\n        bytes32 _achievementId = allAchievements[_index];\n        return (\n            achievements[_achievementId].id, \n            achievements[_achievementId].creator, \n            achievements[_achievementId].issuers, \n            achievements[_achievementId].claimTopics, \n            achievements[_achievementId].explanation, \n            achievements[_achievementId].reward, \n            achievements[_achievementId].uri,\n            achievements[_achievementId].createdAt\n            );\n\n    }\n\n    /**\n     * @dev Get achievement id. an achievement ID is unique with given params.\n     * achievementId = keccak256(abi.encodePacked(creator, topic1, issuer1, topic2, issuer2, ...))\n     * @param creator achievement creator\n     * @param topics topics achievement requirements\n     * @param issuers issuers achievement requirements\n     * @return A boolean that indicates if the operation was successful.\n     */\n    function getAchievementId(address creator, uint256[] topics, address[] issuers) pure public returns(bytes32) {\n        bytes memory idBytes;\n        \n        require(topics.length == issuers.length);\n        \n        idBytes = abi.encodePacked(idBytes, creator);\n\n        for(uint i=0;i<topics.length;i++){\n            idBytes = abi.encodePacked(idBytes, topics[i], issuers[i]);\n        }\n        return keccak256(idBytes);\n    }\n\n}\n",
  "sourcePath": "/Users/coinplug/BangGijin/metabolics2.0/contracts/property/AchievementManager.sol",
  "compiler": {
    "name": "solc",
    "version": "0.4.24+commit.e67f0147.Emscripten.clang"
  },
  "schemaVersion": "2.0.1",
  "updatedAt": "2018-10-23T09:00:50.363Z"
}