{
  "contractName": "AchievementManager",
  "abi": [
    {
      "constant": true,
      "inputs": [],
      "name": "REG",
      "outputs": [
        {
          "name": "",
          "type": "address"
        }
      ],
      "payable": false,
      "stateMutability": "view",
      "type": "function"
    },
    {
      "constant": true,
      "inputs": [
        {
          "name": "_addr",
          "type": "address"
        }
      ],
      "name": "isPermitted",
      "outputs": [
        {
          "name": "found",
          "type": "bool"
        }
      ],
      "payable": false,
      "stateMutability": "view",
      "type": "function"
    },
    {
      "constant": true,
      "inputs": [],
      "name": "minimumDeposit",
      "outputs": [
        {
          "name": "",
          "type": "uint256"
        }
      ],
      "payable": false,
      "stateMutability": "view",
      "type": "function"
    },
    {
      "constant": true,
      "inputs": [],
      "name": "THIS_NAME",
      "outputs": [
        {
          "name": "",
          "type": "bytes32"
        }
      ],
      "payable": false,
      "stateMutability": "view",
      "type": "function"
    },
    {
      "constant": true,
      "inputs": [
        {
          "name": "",
          "type": "bytes32"
        }
      ],
      "name": "achievements",
      "outputs": [
        {
          "name": "id",
          "type": "bytes32"
        },
        {
          "name": "title",
          "type": "bytes32"
        },
        {
          "name": "creator",
          "type": "address"
        },
        {
          "name": "explanation",
          "type": "bytes32"
        },
        {
          "name": "reward",
          "type": "uint256"
        },
        {
          "name": "uri",
          "type": "string"
        },
        {
          "name": "createdAt",
          "type": "uint256"
        }
      ],
      "payable": false,
      "stateMutability": "view",
      "type": "function"
    },
    {
      "constant": true,
      "inputs": [
        {
          "name": "",
          "type": "uint256"
        }
      ],
      "name": "allAchievements",
      "outputs": [
        {
          "name": "",
          "type": "bytes32"
        }
      ],
      "payable": false,
      "stateMutability": "view",
      "type": "function"
    },
    {
      "constant": true,
      "inputs": [
        {
          "name": "",
          "type": "bytes32"
        }
      ],
      "name": "balance",
      "outputs": [
        {
          "name": "",
          "type": "uint256"
        }
      ],
      "payable": false,
      "stateMutability": "view",
      "type": "function"
    },
    {
      "constant": true,
      "inputs": [],
      "name": "owner",
      "outputs": [
        {
          "name": "",
          "type": "address"
        }
      ],
      "payable": false,
      "stateMutability": "view",
      "type": "function"
    },
    {
      "constant": false,
      "inputs": [
        {
          "name": "_addr",
          "type": "address"
        }
      ],
      "name": "setRegistry",
      "outputs": [],
      "payable": false,
      "stateMutability": "nonpayable",
      "type": "function"
    },
    {
      "constant": false,
      "inputs": [
        {
          "name": "newOwner",
          "type": "address"
        }
      ],
      "name": "transferOwnership",
      "outputs": [],
      "payable": false,
      "stateMutability": "nonpayable",
      "type": "function"
    },
    {
      "inputs": [],
      "payable": false,
      "stateMutability": "nonpayable",
      "type": "constructor"
    },
    {
      "anonymous": false,
      "inputs": [
        {
          "indexed": true,
          "name": "achievementId",
          "type": "bytes32"
        },
        {
          "indexed": false,
          "name": "topics",
          "type": "uint256[]"
        },
        {
          "indexed": false,
          "name": "issuers",
          "type": "address[]"
        },
        {
          "indexed": false,
          "name": "staked",
          "type": "uint256"
        },
        {
          "indexed": false,
          "name": "uri",
          "type": "string"
        },
        {
          "indexed": false,
          "name": "createdAt",
          "type": "uint256"
        }
      ],
      "name": "CreateAchievement",
      "type": "event"
    },
    {
      "anonymous": false,
      "inputs": [
        {
          "indexed": true,
          "name": "achievementId",
          "type": "bytes32"
        },
        {
          "indexed": false,
          "name": "reward",
          "type": "uint256"
        },
        {
          "indexed": false,
          "name": "charge",
          "type": "uint256"
        }
      ],
      "name": "UpdateAchievement",
      "type": "event"
    },
    {
      "anonymous": false,
      "inputs": [
        {
          "indexed": true,
          "name": "achievementId",
          "type": "bytes32"
        },
        {
          "indexed": false,
          "name": "charge",
          "type": "uint256"
        }
      ],
      "name": "FundAchievement",
      "type": "event"
    },
    {
      "anonymous": false,
      "inputs": [
        {
          "indexed": true,
          "name": "achievementId",
          "type": "bytes32"
        },
        {
          "indexed": false,
          "name": "refund",
          "type": "uint256"
        }
      ],
      "name": "DeleteAchievement",
      "type": "event"
    },
    {
      "anonymous": false,
      "inputs": [
        {
          "indexed": true,
          "name": "achievementId",
          "type": "bytes32"
        },
        {
          "indexed": true,
          "name": "receiver",
          "type": "address"
        },
        {
          "indexed": false,
          "name": "reward",
          "type": "uint256"
        },
        {
          "indexed": false,
          "name": "rewarded",
          "type": "address"
        }
      ],
      "name": "RequestAchievement",
      "type": "event"
    },
    {
      "anonymous": false,
      "inputs": [
        {
          "indexed": true,
          "name": "previousOwner",
          "type": "address"
        },
        {
          "indexed": true,
          "name": "newOwner",
          "type": "address"
        }
      ],
      "name": "OwnershipTransferred",
      "type": "event"
    },
    {
      "constant": true,
      "inputs": [
        {
          "name": "_addr",
          "type": "address"
        }
      ],
      "name": "isAAttestationAgency",
      "outputs": [
        {
          "name": "found",
          "type": "bool"
        }
      ],
      "payable": false,
      "stateMutability": "view",
      "type": "function"
    },
    {
      "constant": false,
      "inputs": [
        {
          "name": "_topics",
          "type": "uint256[]"
        },
        {
          "name": "_issuers",
          "type": "address[]"
        },
        {
          "name": "_title",
          "type": "bytes32"
        },
        {
          "name": "_achievementExplanation",
          "type": "bytes32"
        },
        {
          "name": "_reward",
          "type": "uint256"
        },
        {
          "name": "_uri",
          "type": "string"
        }
      ],
      "name": "createAchievement",
      "outputs": [
        {
          "name": "success",
          "type": "bool"
        }
      ],
      "payable": true,
      "stateMutability": "payable",
      "type": "function"
    },
    {
      "constant": false,
      "inputs": [
        {
          "name": "_achievementId",
          "type": "bytes32"
        },
        {
          "name": "_reward",
          "type": "uint256"
        }
      ],
      "name": "updateAchievement",
      "outputs": [
        {
          "name": "success",
          "type": "bool"
        }
      ],
      "payable": true,
      "stateMutability": "payable",
      "type": "function"
    },
    {
      "constant": false,
      "inputs": [
        {
          "name": "_achievementId",
          "type": "bytes32"
        }
      ],
      "name": "fundAchievement",
      "outputs": [
        {
          "name": "success",
          "type": "bool"
        }
      ],
      "payable": true,
      "stateMutability": "payable",
      "type": "function"
    },
    {
      "constant": false,
      "inputs": [
        {
          "name": "_achievementId",
          "type": "bytes32"
        }
      ],
      "name": "deleteAchievement",
      "outputs": [
        {
          "name": "success",
          "type": "bool"
        }
      ],
      "payable": false,
      "stateMutability": "nonpayable",
      "type": "function"
    },
    {
      "constant": false,
      "inputs": [
        {
          "name": "_achievementId",
          "type": "bytes32"
        }
      ],
      "name": "requestAchievement",
      "outputs": [
        {
          "name": "success",
          "type": "bool"
        }
      ],
      "payable": false,
      "stateMutability": "nonpayable",
      "type": "function"
    },
    {
      "constant": true,
      "inputs": [
        {
          "name": "_identity",
          "type": "address"
        },
        {
          "name": "_topic",
          "type": "uint256"
        }
      ],
      "name": "hasSelfClaim",
      "outputs": [
        {
          "name": "",
          "type": "bool"
        }
      ],
      "payable": false,
      "stateMutability": "view",
      "type": "function"
    },
    {
      "constant": true,
      "inputs": [],
      "name": "getAllAchievementList",
      "outputs": [
        {
          "name": "list",
          "type": "bytes32[]"
        }
      ],
      "payable": false,
      "stateMutability": "view",
      "type": "function"
    },
    {
      "constant": true,
      "inputs": [],
      "name": "getActiveAchievementList",
      "outputs": [
        {
          "name": "list",
          "type": "bytes32[]"
        }
      ],
      "payable": false,
      "stateMutability": "view",
      "type": "function"
    },
    {
      "constant": true,
      "inputs": [],
      "name": "getLengthOfAchievements",
      "outputs": [
        {
          "name": "length",
          "type": "uint256"
        }
      ],
      "payable": false,
      "stateMutability": "view",
      "type": "function"
    },
    {
      "constant": true,
      "inputs": [
        {
          "name": "_achievementId",
          "type": "bytes32"
        }
      ],
      "name": "getAchievementById",
      "outputs": [
        {
          "name": "id",
          "type": "bytes32"
        },
        {
          "name": "creator",
          "type": "address"
        },
        {
          "name": "issuers",
          "type": "address[]"
        },
        {
          "name": "claimTopics",
          "type": "uint256[]"
        },
        {
          "name": "title",
          "type": "bytes32"
        },
        {
          "name": "explanation",
          "type": "bytes32"
        },
        {
          "name": "reward",
          "type": "uint256"
        },
        {
          "name": "uri",
          "type": "string"
        },
        {
          "name": "createdAt",
          "type": "uint256"
        }
      ],
      "payable": false,
      "stateMutability": "view",
      "type": "function"
    },
    {
      "constant": true,
      "inputs": [
        {
          "name": "_index",
          "type": "uint256"
        }
      ],
      "name": "getAchievementByIndex",
      "outputs": [
        {
          "name": "id",
          "type": "bytes32"
        },
        {
          "name": "creator",
          "type": "address"
        },
        {
          "name": "issuers",
          "type": "address[]"
        },
        {
          "name": "claimTopics",
          "type": "uint256[]"
        },
        {
          "name": "title",
          "type": "bytes32"
        },
        {
          "name": "explanation",
          "type": "bytes32"
        },
        {
          "name": "reward",
          "type": "uint256"
        },
        {
          "name": "uri",
          "type": "string"
        },
        {
          "name": "createdAt",
          "type": "uint256"
        }
      ],
      "payable": false,
      "stateMutability": "view",
      "type": "function"
    },
    {
      "constant": true,
      "inputs": [
        {
          "name": "creator",
          "type": "address"
        },
        {
          "name": "topics",
          "type": "uint256[]"
        },
        {
          "name": "issuers",
          "type": "address[]"
        }
      ],
      "name": "getAchievementId",
      "outputs": [
        {
          "name": "id",
          "type": "bytes32"
        }
      ],
      "payable": false,
      "stateMutability": "pure",
      "type": "function"
    }
  ],
  "bytecode": "0x6080604052670de0b6b3a764000060035534801561001c57600080fd5b5060008054600160a060020a031916331790557f416368696576656d656e744d616e616765720000000000000000000000000000600255612bba806100626000396000f3006080604052600436106101195763ffffffff60e060020a60003504166305b636e3811461011e5780631649b8831461027757806318b6e032146102af57806322a3ecb7146102bd5780632f1b9f14146102bd57806339363112146103225780633fd8cc4e14610353578063509257e814610374578063636bfbab1461039b57806364319d0b146103b05780636b03af84146103c557806374f0ce451461049257806377aea967146104aa578063857ab075146104cb57806389eba421146105675780638da5cb5b1461057f57806397d26ab0146105945780639cb4da08146105ac578063a64a3da3146105c4578063a91ee0dc146105dc578063bc4f5a40146105ff578063e3e5dcab146106d0578063f2fde38b146106db575b600080fd5b34801561012a57600080fd5b506101366004356106fc565b604080518a8152600160a060020a038a166020808301919091526080820188905260a0820187905260c0820186905261010082018490526101209282018381528a51938301939093528951919291606084019160e08501916101408601918d8101910280838360005b838110156101b757818101518382015260200161019f565b5050505090500184810383528a818151815260200191508051906020019060200280838360005b838110156101f65781810151838201526020016101de565b50505050905001848103825286818151815260200191508051906020019080838360005b8381101561023257818101518382015260200161021a565b50505050905090810190601f16801561025f5780820380516001836020036101000a031916815260200191505b509c5050505050505050505050505060405180910390f35b34801561028357600080fd5b5061029b600160a060020a03600435166024356108d0565b604080519115158252519081900360200190f35b61029b600435602435610c34565b3480156102c957600080fd5b506102d2610d2d565b60408051602080825283518183015283519192839290830191858101910280838360005b8381101561030e5781810151838201526020016102f6565b505050509050019250505060405180910390f35b34801561032e57600080fd5b50610337610d87565b60408051600160a060020a039092168252519081900360200190f35b34801561035f57600080fd5b5061029b600160a060020a0360043516610d96565b34801561038057600080fd5b50610389610e3d565b60408051918252519081900360200190f35b3480156103a757600080fd5b50610389610e43565b3480156103bc57600080fd5b50610389610e49565b3480156103d157600080fd5b506103dd600435610e4f565b604080518881526020808201899052600160a060020a03881692820192909252606081018690526080810185905260c0810183905260e060a0820181815285519183019190915284519192909161010084019186019080838360005b83811015610451578181015183820152602001610439565b50505050905090810190601f16801561047e5780820380516001836020036101000a031916815260200191505b509850505050505050505060405180910390f35b34801561049e57600080fd5b50610389600435610f21565b3480156104b657600080fd5b5061029b600160a060020a0360043516610f40565b3480156104d757600080fd5b50604080516020600460248035828101358481028087018601909752808652610389968435600160a060020a031696369660449591949091019291829185019084908082843750506040805187358901803560208181028481018201909552818452989b9a9989019892975090820195509350839250850190849080828437509497506110e99650505050505050565b34801561057357600080fd5b50610389600435611314565b34801561058b57600080fd5b50610337611326565b3480156105a057600080fd5b50610136600435611335565b3480156105b857600080fd5b5061029b600435611553565b3480156105d057600080fd5b5061029b600435611649565b3480156105e857600080fd5b506105fd600160a060020a03600435166121a9565b005b6040805160206004803580820135838102808601850190965280855261029b95369593946024949385019291829185019084908082843750506040805187358901803560208181028481018201909552818452989b9a99890198929750908201955093508392508501908490808284375050604080516020601f60608a01358b0180359182018390048302840183018552818452989b8a359b838c01359b958601359a9199509750608090940195509193509182019181908401838280828437509497506121ef9650505050505050565b61029b6004356128ab565b3480156106e757600080fd5b506105fd600160a060020a0360043516612919565b6000806060806000806000606060008060068b81548110151561071b57fe5b600091825260208083209091015480835260048083526040938490208054600282015460018301546005840154600685015460088601546003870180548c51818d0281018d01909d52808d52999c50959a600160a060020a03909516999598978701979396929591946007909301939092918991908301828280156107c957602002820191906000526020600020905b8154600160a060020a031681526001909101906020018083116107ab575b505050505096508580548060200260200160405190810160405280929190818152602001828054801561081b57602002820191906000526020600020905b815481526020019060010190808311610807575b5050855460408051602060026001851615610100026000190190941693909304601f8101849004840282018401909252818152959b50879450925084019050828280156108a95780601f1061087e576101008083540402835291602001916108a9565b820191906000526020600020905b81548152906001019060200180831161088c57829003601f168201915b50505050509150995099509950995099509950995099509950509193959799909294969850565b6000606060008085600160a060020a031663262b54f5866040518263ffffffff1660e060020a02815260040180828152602001915050600060405180830381600087803b15801561092057600080fd5b505af1158015610934573d6000803e3d6000fd5b505050506040513d6000823e601f3d908101601f19168201604052602081101561095d57600080fd5b81019080805164010000000081111561097557600080fd5b8201602081018481111561098857600080fd5b81518560208202830111640100000000821117156109a557600080fd5b5090965060009450505050505b8251811015610c265785600160a060020a031663c9100bcb84838151811015156109d857fe5b906020019060200201516040518263ffffffff1660e060020a028152600401808260001916600019168152602001915050600060405180830381600087803b158015610a2357600080fd5b505af1158015610a37573d6000803e3d6000fd5b505050506040513d6000823e601f3d908101601f1916820160405260c0811015610a6057600080fd5b8151602083015160408401516060850180519395929491939183019291640100000000811115610a8f57600080fd5b82016020810184811115610aa257600080fd5b8151640100000000811182820187101715610abc57600080fd5b50509291906020018051640100000000811115610ad857600080fd5b82016020810184811115610aeb57600080fd5b8151640100000000811182820187101715610b0557600080fd5b50509291906020018051640100000000811115610b2157600080fd5b82016020810184811115610b3457600080fd5b8151640100000000811182820187101715610b4e57600080fd5b505092919050505090919293945090919293509091509050508092505085600160a060020a031663d202158d83600160a060020a031660010260036040518363ffffffff1660e060020a02815260040180836000191660001916815260200182815260200192505050602060405180830381600087803b158015610bd157600080fd5b505af1158015610be5573d6000803e3d6000fd5b505050506040513d6020811015610bfb57600080fd5b505180610c105750600160a060020a03821633145b15610c1e5760019350610c2b565b6001016109b2565b600093505b50505092915050565b600082815260046020526040812060020154600160a060020a03163314610ca5576040805160e560020a62461bcd02815260206004820152601560248201527f73656e646572206973206e6f742063726561746f720000000000000000000000604482015290519081900360640190fd5b60008381526004602090815260408083206006018590556005909152902054610cd4903463ffffffff6129ad16565b6000848152600560209081526040918290209290925580518481523492810192909252805185927f409c15ea918971e39c60d842defa9f1480c49f4c482f97824070559e6e34e10392908290030190a250600192915050565b60606006805480602002602001604051908101604052809291908181526020018280548015610d7c57602002820191906000526020600020905b81548152600190910190602001808311610d67575b505050505090505b90565b600154600160a060020a031681565b600154600254604080517f60d6c7cf0000000000000000000000000000000000000000000000000000000081526004810192909252600160a060020a038481166024840152905160009391909116916360d6c7cf91604480830192602092919082900301818787803b158015610e0b57600080fd5b505af1158015610e1f573d6000803e3d6000fd5b505050506040513d6020811015610e3557600080fd5b505192915050565b60065490565b60035481565b60025481565b6004602090815260009182526040918290208054600180830154600280850154600586015460068701546007880180548b516101009882161598909802600019011694909404601f81018a90048a0287018a01909a5289865295989397600160a060020a03909216969095949093909291830182828015610f115780601f10610ee657610100808354040283529160200191610f11565b820191906000526020600020905b815481529060010190602001808311610ef457829003601f168201915b5050505050908060080154905087565b6006805482908110610f2f57fe5b600091825260209091200154905081565b600154604080517f0d2020dd0000000000000000000000000000000000000000000000000000000081527f4174746573746174696f6e4167656e6379526567697374727900000000000000600482015290516000928392600160a060020a0390911691630d2020dd9160248082019260209290919082900301818787803b158015610fca57600080fd5b505af1158015610fde573d6000803e3d6000fd5b505050506040513d6020811015610ff457600080fd5b5051604080517fc3c5a547000000000000000000000000000000000000000000000000000000008152600160a060020a03868116600483015291519293509083169163c3c5a547916024808201926020929091908290030181600087803b15801561105e57600080fd5b505af1158015611072573d6000803e3d6000fd5b505050506040513d602081101561108857600080fd5b505115156110e0576040805160e560020a62461bcd02815260206004820152601160248201527f61646472657373206973206e6f74204141000000000000000000000000000000604482015290519081900360640190fd5b50600192915050565b6000606060008351855114151561114a576040805160e560020a62461bcd02815260206004820152601d60248201527f746f7069632c20697373756572206c656e677468206d69736d61746368000000604482015290519081900360640190fd5b81866040516020018083805190602001908083835b6020831061117e5780518252601f19909201916020918201910161115f565b6001836020036101000a03801982511681845116808217855250505050505090500182600160a060020a0316600160a060020a03166c01000000000000000000000000028152601401925050506040516020818303038152906040529150600090505b84518110156112ae578185828151811015156111f957fe5b90602001906020020151858381518110151561121157fe5b906020019060200201516040516020018084805190602001908083835b6020831061124d5780518252601f19909201916020918201910161122e565b51815160209384036101000a6000190180199092169116179052920194855250600160a060020a03929092166c01000000000000000000000000029183019190915250604080516014818403018152603490920190529250506001016111e1565b816040518082805190602001908083835b602083106112de5780518252601f1990920191602091820191016112bf565b5181516020939093036101000a600019018019909116921691909117905260405192018290039091209998505050505050505050565b60056020526000908152604090205481565b600054600160a060020a031681565b60008060608060008060006060600061134c6129d2565b60008b815260046020908152604091829020825161012081018452815481526001820154818401526002820154600160a060020a03168185015260038201805485518186028101860190965280865291949293606086019392908301828280156113df57602002820191906000526020600020905b8154600160a060020a031681526001909101906020018083116113c1575b505050505081526020016004820180548060200260200160405190810160405280929190818152602001828054801561143757602002820191906000526020600020905b815481526020019060010190808311611423575b505050918352505060058201546020808301919091526006830154604080840191909152600784018054825160026000196001841615610100020190921691909104601f8101859004850282018501909352828152606090940193929091908301828280156114e75780601f106114bc576101008083540402835291602001916114e7565b820191906000526020600020905b8154815290600101906020018083116114ca57829003601f168201915b505050505081526020016008820154815250509050806000015181604001518260600151836080015184602001518560a001518660c001518760e00151886101000151869650859550819150995099509950995099509950995099509950509193959799909294969850565b6000818152600460205260408120600201548190600160a060020a031633146115c6576040805160e560020a62461bcd02815260206004820152601560248201527f73656e646572206973206e6f742063726561746f720000000000000000000000604482015290519081900360640190fd5b5060008281526005602052604080822080549083905590519091339183156108fc0291849190818181858888f19350505050158015611609573d6000803e3d6000fd5b5060408051828152905184917ff35d42b9c311ce9dadd88de9b62d1ff91144843421993199963f32fc1c1ce6b2919081900360200190a250600192915050565b60008060008060008060606000600160009054906101000a9004600160a060020a0316600160a060020a0316630d2020dd6040518163ffffffff1660e060020a02815260040180807f4964656e746974794d616e6167657200000000000000000000000000000000008152506020019050602060405180830381600087803b1580156116d457600080fd5b505af11580156116e8573d6000803e3d6000fd5b505050506040513d60208110156116fe57600080fd5b5051604080517f12459b000000000000000000000000000000000000000000000000000000000081523360048201529051919850600160a060020a038916916312459b00916024808201926020929091908290030181600087803b15801561176557600080fd5b505af1158015611779573d6000803e3d6000fd5b505050506040513d602081101561178f57600080fd5b5051151561180d576040805160e560020a62461bcd02815260206004820152603560248201527f6d73672e73656e646572206973206e6f74206964656e7469747920637265617460448201527f6564206279204964656e746974794d616e616765720000000000000000000000606482015290519081900360840190fd5b339450600095505b60008981526004602081905260409091200154861015611bfd57600089815260046020526040902060030180548790811061184c57fe5b600091825260209091200154600160a060020a0390811614156118f857600089815260046020819052604090912001805461189d9133918990811061188d57fe5b90600052602060002001546108d0565b15156118f3576040805160e560020a62461bcd02815260206004820152601560248201527f53656c662d436c61696d2070726f7665204661696c0000000000000000000000604482015290519081900360640190fd5b611bf2565b600089815260046020526040902060030180548790811061191557fe5b60009182526020808320909101548b83526004918290526040909220018054600160a060020a03909216918890811061194a57fe5b90600052602060002001546040516020018083600160a060020a0316600160a060020a03166c01000000000000000000000000028152601401828152602001925050506040516020818303038152906040526040518082805190602001908083835b602083106119cb5780518252601f1990920191602091820191016119ac565b5181516020939093036101000a6000190180199091169216919091179052604080519190930181900381207fc9100bcb000000000000000000000000000000000000000000000000000000008252600482018190529251929750600160a060020a038a16945063c9100bcb9350602480820193600093509182900301818387803b158015611a5857600080fd5b505af1158015611a6c573d6000803e3d6000fd5b505050506040513d6000823e601f3d908101601f1916820160405260c0811015611a9557600080fd5b8151602083015160408401516060850180519395929491939183019291640100000000811115611ac457600080fd5b82016020810184811115611ad757600080fd5b8151640100000000811182820187101715611af157600080fd5b50509291906020018051640100000000811115611b0d57600080fd5b82016020810184811115611b2057600080fd5b8151640100000000811182820187101715611b3a57600080fd5b50509291906020018051640100000000811115611b5657600080fd5b82016020810184811115611b6957600080fd5b8151640100000000811182820187101715611b8357600080fd5b50969c50505050600160a060020a038a1615159550611bf2945050505050576040805160e560020a62461bcd02815260206004820152600f60248201527f436c61696d206e6f742065786973740000000000000000000000000000000000604482015290519081900360640190fd5b600190950194611815565b6000898152600460209081526040808320600601546005909252909120541015611c71576040805160e560020a62461bcd02815260206004820152601460248201527f726577617264206973206e6f7420656e6f756768000000000000000000000000604482015290519081900360640190fd5b600089815260046020908152604080832060060154600590925290912054611c9e9163ffffffff6129c016565b60008a8152600560205260408082209290925581517f9010f7260000000000000000000000000000000000000000000000000000000081526001600482015291513392639010f72692602480830193919282900301818387803b158015611d0457600080fd5b505af1158015611d18573d6000803e3d6000fd5b505050506040513d6000823e601f3d908101601f191682016040526020811015611d4157600080fd5b810190808051640100000000811115611d5957600080fd5b82016020810184811115611d6c57600080fd5b8151856020820283011164010000000082111715611d8957600080fd5b505080519095508593506000925082109050611da157fe5b602090810290910181015160008b815260049092526040808320600601549051600160a060020a039092169281156108fc029290818181858888f19350505050158015611df2573d6000803e3d6000fd5b50600154604080517f0d2020dd0000000000000000000000000000000000000000000000000000000081527f416368696576656d656e7400000000000000000000000000000000000000000060048201529051600160a060020a0390921691630d2020dd916024808201926020929091908290030181600087803b158015611e7957600080fd5b505af1158015611e8d573d6000803e3d6000fd5b505050506040513d6020811015611ea357600080fd5b505160408051336c01000000000000000000000000810260208084019190915260348084018f9052845180850390910181526054909301938490528251949550600160a060020a0386169463d3fc986494929392918291908401908083835b60208310611f215780518252601f199092019160209182019101611f02565b6001836020036101000a03801982511681845116808217855250505050505090500191505060405180910390206001900442600460008f600019166000191681526020019081526020016000206007016040516020018083815260200182805460018160011615610100020316600290048015611fd55780601f10611fb3576101008083540402835291820191611fd5565b820191906000526020600020905b815481529060010190602001808311611fc1575b5050925050506040516020818303038152906040526040518463ffffffff1660e060020a0281526004018084600160a060020a0316600160a060020a0316815260200183815260200180602001828103825283818151815260200191508051906020019080838360005b8381101561205757818101518382015260200161203f565b50505050905090810190601f1680156120845780820380516001836020036101000a031916815260200191505b50945050505050602060405180830381600087803b1580156120a557600080fd5b505af11580156120b9573d6000803e3d6000fd5b505050506040513d60208110156120cf57600080fd5b50511515612127576040805160e560020a62461bcd02815260206004820152601c60248201527f616368696576656d656e742063616e6e6f74206265206d696e74656400000000604482015290519081900360640190fd5b600089815260046020526040812060060154835133928c927f82f6dc274898d7696c128069eb2d5f4461a6640dae9ca23c13de74eb47ca2b0b9290918791811061216d57fe5b602090810290910181015160408051938452600160a060020a03909116918301919091528051918290030190a350600198975050505050505050565b600054600160a060020a031633146121c057600080fd5b6001805473ffffffffffffffffffffffffffffffffffffffff1916600160a060020a0392909216919091179055565b6000806000806121fd6129d2565b61220633610f40565b151561225c576040805160e560020a62461bcd02815260206004820152601460248201527f6d73672e73656e646572206973206e6f74204141000000000000000000000000604482015290519081900360640190fd5b6003543410156122b6576040805160e560020a62461bcd02815260206004820152601560248201527f6465706f736974206973206e6f7420656e6f7567680000000000000000000000604482015290519081900360640190fd5b600154604080517f0d2020dd0000000000000000000000000000000000000000000000000000000081527f546f70696352656769737472790000000000000000000000000000000000000060048201529051600160a060020a0390921691630d2020dd916024808201926020929091908290030181600087803b15801561233c57600080fd5b505af1158015612350573d6000803e3d6000fd5b505050506040513d602081101561236657600080fd5b50519350600092505b8a518310156125a55760008311156124b8578a6001840381518110151561239257fe5b906020019060200201518b848151811015156123aa57fe5b90602001906020020151108061243d57508a600184038151811015156123cc57fe5b906020019060200201518b848151811015156123e457fe5b9060200190602002015114801561243d5750896001840381518110151561240757fe5b90602001906020020151600160a060020a03168a8481518110151561242857fe5b90602001906020020151600160a060020a0316145b156124b8576040805160e560020a62461bcd02815260206004820152602360248201527f546f70696320616e642049737375657220636f6e646974696f6e20697320777260448201527f6f6e670000000000000000000000000000000000000000000000000000000000606482015290519081900360840190fd5b83600160a060020a031663579a69888c858151811015156124d557fe5b906020019060200201516040518263ffffffff1660e060020a02815260040180828152602001915050602060405180830381600087803b15801561251857600080fd5b505af115801561252c573d6000803e3d6000fd5b505050506040513d602081101561254257600080fd5b5051151561259a576040805160e560020a62461bcd02815260206004820152601460248201527f746f706963206e6f742072656769737465726564000000000000000000000000604482015290519081900360640190fd5b60019092019161236f565b6125b0338c8c6110e9565b60008181526004602052604090205490925015612617576040805160e560020a62461bcd02815260206004820152601a60248201527f616368696576656d656e7420616c726561647920657869737473000000000000604482015290519081900360640190fd5b818152336040808301918252606083018c8152608084018e905260208085018d815260a086018d905260e086018b905260c086018c905242610100870152600087815260048352939093208551815592516001840155925160028301805473ffffffffffffffffffffffffffffffffffffffff1916600160a060020a0390921691909117905551805184936126b3926003850192910190612a1d565b50608082015180516126cf916004840191602090910190612a8f565b5060a0820151600582015560c0820151600682015560e082015180516126ff916007840191602090910190612ad6565b5061010082015181600801559050506006829080600181540180825580915050906001820390600052602060002001600090919290919091509060001916905550346005600084600019166000191681526020019081526020016000208190555081600019167fdebdabb26fa499a98c2bec69c54183d67f0ca99a9c5811dc76bb71c6fa568a6d8c8c348a4260405180806020018060200186815260200180602001858152602001848103845289818151815260200191508051906020019060200280838360005b838110156127df5781810151838201526020016127c7565b50505050905001848103835288818151815260200191508051906020019060200280838360005b8381101561281e578181015183820152602001612806565b50505050905001848103825286818151815260200191508051906020019080838360005b8381101561285a578181015183820152602001612842565b50505050905090810190601f1680156128875780820380516001836020036101000a031916815260200191505b509850505050505050505060405180910390a25060019a9950505050505050505050565b6000818152600560205260408120546128ca903463ffffffff6129ad16565b600083815260056020908152604091829020929092558051348152905184927f4fb86a557ac897d1597978003506b08bd6b05dc447c004e1aeb9efb62c6db4d7928290030190a2506001919050565b600054600160a060020a0316331461293057600080fd5b600160a060020a038116151561294557600080fd5b60008054604051600160a060020a03808516939216917f8be0079c531659141344cd1fd0a4f28419497f9722a3daafe3b4186f6b6457e091a36000805473ffffffffffffffffffffffffffffffffffffffff1916600160a060020a0392909216919091179055565b818101828110156129ba57fe5b92915050565b6000828211156129cc57fe5b50900390565b604080516101208101825260008082526020820181905291810182905260608082018190526080820181905260a0820183905260c0820183905260e082015261010081019190915290565b828054828255906000526020600020908101928215612a7f579160200282015b82811115612a7f578251825473ffffffffffffffffffffffffffffffffffffffff1916600160a060020a03909116178255602090920191600190910190612a3d565b50612a8b929150612b43565b5090565b828054828255906000526020600020908101928215612aca579160200282015b82811115612aca578251825591602001919060010190612aaf565b50612a8b929150612b74565b828054600181600116156101000203166002900490600052602060002090601f016020900481019282601f10612b1757805160ff1916838001178555612aca565b82800160010185558215612aca5791820182811115612aca578251825591602001919060010190612aaf565b610d8491905b80821115612a8b57805473ffffffffffffffffffffffffffffffffffffffff19168155600101612b49565b610d8491905b80821115612a8b5760008155600101612b7a5600a165627a7a7230582062baa4919bf588f72729c2602648fbdbbb6d2c6be564b09f96d09f9e4905d1f80029",
  "source": "pragma solidity ^0.4.24;\n\nimport \"../openzeppelin-solidity/contracts/math/SafeMath.sol\";\nimport \"../identity/ERC735.sol\";\nimport \"../identity/ERC725.sol\";\nimport \"../RegistryUser.sol\";\nimport \"../registry/TopicRegistry.sol\";\nimport \"../interface/IAchievement.sol\";\nimport \"../interface/IIdentityManager.sol\";\nimport \"../interface/IAttestationAgencyRegistry.sol\";\n\n/**\n * @title AchievementManager\n * @dev AchievementManager Contract used to manage achievement system in metadium\n * The permissinoed participant can CRUD the achievement.\n */\ncontract AchievementManager is RegistryUser {\n    using SafeMath for uint256;\n\n    uint256 public minimumDeposit = 1 * 10 ** 18;\n\n    mapping(bytes32 => Achievement) public achievements; // achievementId => achievement\n    mapping(bytes32 => uint256) public balance; // achievementId => balance\n\n    bytes32[] public allAchievements;\n\n    event CreateAchievement(bytes32 indexed achievementId, uint256[] topics, address[] issuers, uint256 staked, string uri, uint256 createdAt);\n    event UpdateAchievement(bytes32 indexed achievementId, uint256 reward, uint256 charge);\n    event FundAchievement(bytes32 indexed achievementId, uint256 charge);\n    event DeleteAchievement(bytes32 indexed achievementId, uint256 refund);\n    event RequestAchievement(bytes32 indexed achievementId, address indexed receiver, uint256 reward, address rewarded);\n\n    struct Achievement {\n        bytes32 id;\n        bytes32 title;\n        address creator;\n        address[] issuers;\n        uint256[] claimTopics;\n        bytes32 explanation;\n        uint256 reward;\n        string uri;\n        uint256 createdAt;\n    }\n\n    constructor() public {\n        THIS_NAME = \"AchievementManager\";\n    }\n\n    function isAAttestationAgency(address _addr) public view returns(bool found) {\n        \n        IAttestationAgencyRegistry ar = IAttestationAgencyRegistry(REG.getContractAddress(\"AttestationAgencyRegistry\"));\n        require(ar.isRegistered(_addr) != 0, \"address is not AA\");\n\n        return true;\n    }\n\n    modifier onlyAttestationAgency() {\n        require(isAAttestationAgency(msg.sender), \"msg.sender is not AA\");\n        _;\n    }\n\n    /**\n     * @dev Create Achievement. Topics should be registered first.\n     * topic & issuer term cannot be same simultaneously with the previos one.\n     * @param _topics registered topics, ascending order (1,10,10, 100)\n     * @param _issuers issuers for each topic\n     * @param _title title\n     * @param _achievementExplanation achievement explanation\n     * @param _reward reward in meta when user request acievement\n     * @param _uri basically used for ipfs id or something\n     * @return A boolean that indicates if the operation was successful.\n     */\n    function createAchievement(uint256[] _topics, address[] _issuers, bytes32 _title, bytes32 _achievementExplanation, uint256 _reward, string _uri)\n    public\n    onlyAttestationAgency\n    payable returns (bool success)\n    {\n\n        //check staking amount used for reward\n        require(msg.value >= minimumDeposit, \"deposit is not enough\");\n\n        //topics should be registered already\n        TopicRegistry topicRegistry = TopicRegistry(REG.getContractAddress(\"TopicRegistry\"));\n        for (uint256 i = 0;i<_topics.length;i++) {\n            if (i > 0) {\n                if (\n                    _topics[i] < _topics[i-1] ||\n                    (_topics[i] == _topics[i-1] && _issuers[i] == _issuers[i-1])\n\n                ) {\n                    revert(\"Topic and Issuer condition is wrong\");\n                }\n            }\n            require(topicRegistry.isRegistered(_topics[i]), \"topic not registered\");\n        }\n\n        //check if achievement is already registered\n        bytes32 achievementId = getAchievementId(msg.sender, _topics, _issuers);\n        require(achievements[achievementId].id == 0, \"achievement already exists\");\n\n\n        Achievement memory newAc;\n        newAc.id = achievementId;\n        newAc.creator = msg.sender;\n        newAc.issuers = _issuers;\n        newAc.claimTopics = _topics;\n        newAc.title = _title;\n        newAc.explanation = _achievementExplanation;\n        newAc.uri = _uri;\n        newAc.reward = _reward;\n        newAc.createdAt = block.timestamp;\n\n        achievements[newAc.id] = newAc;\n        allAchievements.push(achievementId);\n        balance[achievementId] = msg.value;\n\n        emit CreateAchievement(achievementId, _topics, _issuers, msg.value, _uri, block.timestamp);\n\n        return true;\n    }\n\n    /**\n     * @dev Update Achievement. Fund can be charged through this, and reward can be set newly.\n     * @param _achievementId achievementId\n     * @param _reward new reward\n     * @return A boolean that indicates if the operation was successful.\n     */\n    function updateAchievement(bytes32 _achievementId, uint256 _reward) public payable returns (bool success) {\n        //Only creator can charge fund in update\n        require(achievements[_achievementId].creator == msg.sender, \"sender is not creator\");\n\n        achievements[_achievementId].reward = _reward;\n        balance[_achievementId] = balance[_achievementId].add(msg.value);\n        emit UpdateAchievement(_achievementId, _reward, msg.value);\n        return true;\n    }\n\n    /**\n     * @dev fund Achievement. Anyone can fund the achievement.\n     * @param _achievementId achievementId\n     * @return A boolean that indicates if the operation was successful.\n     */\n    function fundAchievement(bytes32 _achievementId) public payable returns (bool success) {\n        balance[_achievementId] = balance[_achievementId].add(msg.value);\n        emit FundAchievement(_achievementId, msg.value);\n        return true;\n    }\n\n    /**\n     * @dev Delete Achievement. This function DOES NOT actually delete achievement.\n     * Just refund to the creator.\n     * @param _achievementId achievementId\n     * @return A boolean that indicates if the operation was successful.\n     */\n    function deleteAchievement(bytes32 _achievementId) public returns (bool success) {\n        //Only creator can refund\n        require(achievements[_achievementId].creator == msg.sender, \"sender is not creator\");\n\n        uint256 rest = balance[_achievementId];\n        \n        balance[_achievementId] = 0;\n        msg.sender.transfer(rest);\n        \n        emit DeleteAchievement(_achievementId, rest);\n\n        return true;\n    }\n    /**\n     * @dev Request achievement. If user have proper claims, user get acievement(ERC721) token and meta reward\n     * @param _achievementId _achievementId user want to request\n     * @return A boolean that indicates if the operation was successful.\n     */\n    function requestAchievement(bytes32 _achievementId) public returns (bool success) {\n        // check whether msg.sender is deployed using IdentityManager\n        IIdentityManager im = IIdentityManager(REG.getContractAddress(\"IdentityManager\"));\n        require(im.isMetaId(msg.sender), \"msg.sender is not identity created by IdentityManager\");\n        \n        uint256 i;\n        ERC735 identity = ERC735(msg.sender);\n        // // check if sender has enough claims\n        for (i = 0;i<achievements[_achievementId].claimTopics.length;i++) {\n            address issuer;\n            // check this claim issuer is for self claim\n            if (achievements[_achievementId].issuers[i] == 0xFFfFfFffFFfffFFfFFfFFFFFffFFFffffFfFFFfF) {\n                //self claim\n                //bytes32 claimId = keccak256(abi.encodePacked(msg.sender, achievements[_achievementId].claimTopics[i]));\n                //check msg.sender is erc735 implementation\n                //\n                //identity.getClaimIdsByType(achievements[_achievementId].claimTopics[i]);\n                require(hasSelfClaim(msg.sender, achievements[_achievementId].claimTopics[i]), \"Self-Claim prove Fail\");\n\n            }else {\n                // claimId is made by topic and issuer.\n                bytes32 claimId = keccak256(abi.encodePacked(achievements[_achievementId].issuers[i], achievements[_achievementId].claimTopics[i]));\n                (, , issuer, , , ) = identity.getClaim(claimId); // getClaim returns (topic, scheme, issuer, signature, data, uri)\n                require(issuer != address(0), \"Claim not exist\");\n            }\n\n        }\n        \n        // give reward to msg.sender(identity contract)'s 0th managementKey\n        require(balance[_achievementId] >= achievements[_achievementId].reward, \"reward is not enough\");\n        balance[_achievementId] = balance[_achievementId].sub(achievements[_achievementId].reward);\n\n        bytes32[] memory managementKeys = ERC725(msg.sender).getKeysByPurpose(1); // 1 : MANAGEMENT KEY\n        address(managementKeys[0]).transfer(achievements[_achievementId].reward); // reward goes to the 0th management key\n        // msg.sender.transfer(achievements[_achievementId].reward);\n        \n        \n\n        // mint achievement erc721 to msg.sender;\n        IAchievement achievement = IAchievement(REG.getContractAddress(\"Achievement\"));\n        require(achievement.mint(msg.sender, uint256(keccak256(abi.encodePacked(msg.sender, _achievementId))), string(abi.encodePacked(block.timestamp,achievements[_achievementId].uri))), \"achievement cannot be minted\");\n        \n        emit RequestAchievement(_achievementId, msg.sender, achievements[_achievementId].reward, address(managementKeys[0]));\n\n        return true;\n    }\n\n\n    function hasSelfClaim(address _identity, uint256 _topic) public view returns (bool) {\n        bytes32[] memory claims = ERC735(_identity).getClaimIdsByType(_topic);\n        address c;\n        for (uint256 i = 0;i<claims.length;i++) {\n            (, , c, , ,) = ERC735(_identity).getClaim(claims[i]);\n            //3: CLAIM signer keys, used to sign claims on other identities which need to be revokable.\n            //bytes32(address) : addrToKey(addr)\n            if (ERC725(_identity).keyHasPurpose(bytes32(c), 3) || c == msg.sender) {\n                //true if isuuer is identity's claim key or smart contract identity itself\n                return true;\n            }\n            \n        }\n        return false;\n\n    }\n    function getAllAchievementList() public view returns (bytes32[] list) {\n        return allAchievements;\n    }\n\n    //TODO : achievement with proper balance\n    function getActiveAchievementList() public view returns(bytes32[] list) {\n        return allAchievements;\n    }\n\n    function getLengthOfAchievements() public view returns(uint256 length) {\n        return allAchievements.length;\n    }\n\n    function getAchievementById(bytes32 _achievementId) public view returns(bytes32 id, address creator, address[] issuers, uint256[] claimTopics, bytes32 title, bytes32 explanation, uint256 reward, string uri, uint256 createdAt) {\n        Achievement memory ac = achievements[_achievementId];\n        return (\n            ac.id, \n            ac.creator, \n            ac.issuers, \n            ac.claimTopics, \n            ac.title, \n            ac.explanation, \n            ac.reward, \n            ac.uri,\n            ac.createdAt\n            );\n    }\n\n    function getAchievementByIndex(uint256 _index) public view returns(bytes32 id, address creator, address[] issuers, uint256[] claimTopics, bytes32 title, bytes32 explanation, uint256 reward, string uri, uint256 createdAt) {\n        bytes32 _achievementId = allAchievements[_index];\n        return (\n            achievements[_achievementId].id, \n            achievements[_achievementId].creator, \n            achievements[_achievementId].issuers, \n            achievements[_achievementId].claimTopics, \n            achievements[_achievementId].title, \n            achievements[_achievementId].explanation, \n            achievements[_achievementId].reward, \n            achievements[_achievementId].uri,\n            achievements[_achievementId].createdAt\n            );\n\n    }\n\n    /**\n     * @dev Get achievement id. an achievement ID is unique with given params.\n     * achievementId = keccak256(abi.encodePacked(creator, topic1, issuer1, topic2, issuer2, ...))\n     * @param creator achievement creator\n     * @param topics topics achievement requirements\n     * @param issuers issuers achievement requirements\n     * @return A boolean that indicates if the operation was successful.\n     */\n    function getAchievementId(address creator, uint256[] topics, address[] issuers) public pure returns(bytes32 id) {\n        bytes memory idBytes;\n        \n        require(topics.length == issuers.length, \"topic, issuer length mismatch\");\n        \n        idBytes = abi.encodePacked(idBytes, creator);\n\n        for (uint i = 0;i<topics.length;i++) {\n            idBytes = abi.encodePacked(idBytes, topics[i], issuers[i]);\n        }\n        return keccak256(idBytes);\n    }\n\n}\n",
  "sourcePath": "/Users/coinplug/BangGijin/metabolics2.0/contracts/property/AchievementManager.sol",
  "compiler": {
    "name": "solc",
    "version": "0.4.24+commit.e67f0147.Emscripten.clang"
  },
  "schemaVersion": "2.0.1",
  "updatedAt": "2018-11-30T05:08:57.942Z"
}