{
  "contractName": "AchievementManager",
  "abi": [
    {
      "constant": true,
      "inputs": [],
      "name": "REG",
      "outputs": [
        {
          "name": "",
          "type": "address"
        }
      ],
      "payable": false,
      "stateMutability": "view",
      "type": "function"
    },
    {
      "constant": false,
      "inputs": [
        {
          "name": "_addr",
          "type": "address"
        }
      ],
      "name": "isPermitted",
      "outputs": [
        {
          "name": "",
          "type": "bool"
        }
      ],
      "payable": false,
      "stateMutability": "nonpayable",
      "type": "function"
    },
    {
      "constant": true,
      "inputs": [],
      "name": "minimumDeposit",
      "outputs": [
        {
          "name": "",
          "type": "uint256"
        }
      ],
      "payable": false,
      "stateMutability": "view",
      "type": "function"
    },
    {
      "constant": true,
      "inputs": [],
      "name": "THIS_NAME",
      "outputs": [
        {
          "name": "",
          "type": "bytes32"
        }
      ],
      "payable": false,
      "stateMutability": "view",
      "type": "function"
    },
    {
      "constant": true,
      "inputs": [
        {
          "name": "",
          "type": "bytes32"
        }
      ],
      "name": "achievements",
      "outputs": [
        {
          "name": "id",
          "type": "bytes32"
        },
        {
          "name": "creator",
          "type": "address"
        },
        {
          "name": "explanation",
          "type": "bytes32"
        },
        {
          "name": "reward",
          "type": "uint256"
        },
        {
          "name": "uri",
          "type": "string"
        }
      ],
      "payable": false,
      "stateMutability": "view",
      "type": "function"
    },
    {
      "constant": true,
      "inputs": [
        {
          "name": "",
          "type": "uint256"
        }
      ],
      "name": "allAchievements",
      "outputs": [
        {
          "name": "",
          "type": "bytes32"
        }
      ],
      "payable": false,
      "stateMutability": "view",
      "type": "function"
    },
    {
      "constant": true,
      "inputs": [
        {
          "name": "",
          "type": "bytes32"
        }
      ],
      "name": "balance",
      "outputs": [
        {
          "name": "",
          "type": "uint256"
        }
      ],
      "payable": false,
      "stateMutability": "view",
      "type": "function"
    },
    {
      "constant": true,
      "inputs": [],
      "name": "owner",
      "outputs": [
        {
          "name": "",
          "type": "address"
        }
      ],
      "payable": false,
      "stateMutability": "view",
      "type": "function"
    },
    {
      "constant": false,
      "inputs": [
        {
          "name": "_addr",
          "type": "address"
        }
      ],
      "name": "setRegistry",
      "outputs": [],
      "payable": false,
      "stateMutability": "nonpayable",
      "type": "function"
    },
    {
      "constant": false,
      "inputs": [
        {
          "name": "newOwner",
          "type": "address"
        }
      ],
      "name": "transferOwnership",
      "outputs": [],
      "payable": false,
      "stateMutability": "nonpayable",
      "type": "function"
    },
    {
      "inputs": [],
      "payable": false,
      "stateMutability": "nonpayable",
      "type": "constructor"
    },
    {
      "anonymous": false,
      "inputs": [
        {
          "indexed": true,
          "name": "achievementId",
          "type": "bytes32"
        },
        {
          "indexed": true,
          "name": "topics",
          "type": "uint256[]"
        },
        {
          "indexed": true,
          "name": "issuers",
          "type": "address[]"
        },
        {
          "indexed": false,
          "name": "staked",
          "type": "uint256"
        },
        {
          "indexed": false,
          "name": "uri",
          "type": "string"
        }
      ],
      "name": "CreateAchievement",
      "type": "event"
    },
    {
      "anonymous": false,
      "inputs": [
        {
          "indexed": true,
          "name": "achievementId",
          "type": "bytes32"
        },
        {
          "indexed": false,
          "name": "reward",
          "type": "uint256"
        },
        {
          "indexed": false,
          "name": "charge",
          "type": "uint256"
        }
      ],
      "name": "UpdateAchievement",
      "type": "event"
    },
    {
      "anonymous": false,
      "inputs": [
        {
          "indexed": true,
          "name": "achievementId",
          "type": "bytes32"
        },
        {
          "indexed": false,
          "name": "refund",
          "type": "uint256"
        }
      ],
      "name": "DeleteAchievement",
      "type": "event"
    },
    {
      "anonymous": false,
      "inputs": [
        {
          "indexed": true,
          "name": "achievementId",
          "type": "bytes32"
        },
        {
          "indexed": true,
          "name": "receiver",
          "type": "address"
        },
        {
          "indexed": false,
          "name": "reward",
          "type": "uint256"
        }
      ],
      "name": "RequestAchievement",
      "type": "event"
    },
    {
      "anonymous": false,
      "inputs": [
        {
          "indexed": false,
          "name": "addr",
          "type": "address"
        },
        {
          "indexed": false,
          "name": "name",
          "type": "bytes32"
        },
        {
          "indexed": false,
          "name": "go",
          "type": "bool"
        }
      ],
      "name": "Per",
      "type": "event"
    },
    {
      "anonymous": false,
      "inputs": [
        {
          "indexed": true,
          "name": "previousOwner",
          "type": "address"
        },
        {
          "indexed": true,
          "name": "newOwner",
          "type": "address"
        }
      ],
      "name": "OwnershipTransferred",
      "type": "event"
    },
    {
      "constant": false,
      "inputs": [
        {
          "name": "_addr",
          "type": "address"
        }
      ],
      "name": "isAAttestationAgency",
      "outputs": [
        {
          "name": "",
          "type": "bool"
        }
      ],
      "payable": false,
      "stateMutability": "nonpayable",
      "type": "function"
    },
    {
      "constant": false,
      "inputs": [
        {
          "name": "_topics",
          "type": "uint256[]"
        },
        {
          "name": "_issuers",
          "type": "address[]"
        },
        {
          "name": "_achievementExplanation",
          "type": "bytes32"
        },
        {
          "name": "_reward",
          "type": "uint256"
        },
        {
          "name": "_uri",
          "type": "string"
        }
      ],
      "name": "createAchievement",
      "outputs": [
        {
          "name": "",
          "type": "bool"
        }
      ],
      "payable": true,
      "stateMutability": "payable",
      "type": "function"
    },
    {
      "constant": false,
      "inputs": [
        {
          "name": "_achievementId",
          "type": "bytes32"
        },
        {
          "name": "_reward",
          "type": "uint256"
        }
      ],
      "name": "updateAchievement",
      "outputs": [
        {
          "name": "",
          "type": "bool"
        }
      ],
      "payable": true,
      "stateMutability": "payable",
      "type": "function"
    },
    {
      "constant": false,
      "inputs": [
        {
          "name": "_achievementId",
          "type": "bytes32"
        }
      ],
      "name": "deleteAchievement",
      "outputs": [
        {
          "name": "",
          "type": "bool"
        }
      ],
      "payable": false,
      "stateMutability": "nonpayable",
      "type": "function"
    },
    {
      "constant": false,
      "inputs": [
        {
          "name": "achievementId",
          "type": "bytes32"
        }
      ],
      "name": "requestAchievement",
      "outputs": [
        {
          "name": "",
          "type": "bool"
        }
      ],
      "payable": false,
      "stateMutability": "nonpayable",
      "type": "function"
    },
    {
      "constant": true,
      "inputs": [],
      "name": "getAllAchievementList",
      "outputs": [
        {
          "name": "",
          "type": "bytes32[]"
        }
      ],
      "payable": false,
      "stateMutability": "view",
      "type": "function"
    },
    {
      "constant": true,
      "inputs": [],
      "name": "getActiveAchievementList",
      "outputs": [
        {
          "name": "",
          "type": "bytes32[]"
        }
      ],
      "payable": false,
      "stateMutability": "view",
      "type": "function"
    },
    {
      "constant": true,
      "inputs": [
        {
          "name": "creator",
          "type": "address"
        },
        {
          "name": "topics",
          "type": "uint256[]"
        },
        {
          "name": "issuers",
          "type": "address[]"
        }
      ],
      "name": "getAchievementId",
      "outputs": [
        {
          "name": "",
          "type": "bytes32"
        }
      ],
      "payable": false,
      "stateMutability": "pure",
      "type": "function"
    }
  ],
  "bytecode": "0x6080604052670de0b6b3a764000060035534801561001c57600080fd5b5060008054600160a060020a031916331790557f416368696576656d656e744d616e616765720000000000000000000000000000600255611b20806100626000396000f3006080604052600436106100e25763ffffffff60e060020a60003504166318b6e03281146100e757806322a3ecb7146101095780632f1b9f141461016e57806339363112146101835780633fd8cc4e146101b4578063636bfbab146101d557806364319d0b146101fc5780636b03af841461021157806374f0ce45146102cd57806377aea967146102e5578063857ab0751461030657806389eba421146103a25780638da5cb5b146103ba5780639cb4da08146103cf578063a64a3da3146103e7578063a91ee0dc146103ff578063f2fde38b14610422578063f5010fad14610443575b600080fd5b6100f560043560243561050f565b604080519115158252519081900360200190f35b34801561011557600080fd5b5061011e610597565b60408051602080825283518183015283519192839290830191858101910280838360005b8381101561015a578181015183820152602001610142565b505050509050019250505060405180910390f35b34801561017a57600080fd5b5061011e6105f1565b34801561018f57600080fd5b506101986105f6565b60408051600160a060020a039092168252519081900360200190f35b3480156101c057600080fd5b506100f5600160a060020a0360043516610605565b3480156101e157600080fd5b506101ea6106ac565b60408051918252519081900360200190f35b34801561020857600080fd5b506101ea6106b2565b34801561021d57600080fd5b506102296004356106b8565b60408051868152600160a060020a0386166020808301919091529181018590526060810184905260a06080820181815284519183019190915283519192909160c084019185019080838360005b8381101561028e578181015183820152602001610276565b50505050905090810190601f1680156102bb5780820380516001836020036101000a031916815260200191505b50965050505050505060405180910390f35b3480156102d957600080fd5b506101ea60043561077e565b3480156102f157600080fd5b506100f5600160a060020a036004351661079d565b34801561031257600080fd5b506040805160206004602480358281013584810280870186019097528086526101ea968435600160a060020a031696369660449591949091019291829185019084908082843750506040805187358901803560208181028481018201909552818452989b9a9989019892975090820195509350839250850190849080828437509497506108e59650505050505050565b3480156103ae57600080fd5b506101ea600435610ac5565b3480156103c657600080fd5b50610198610ad7565b3480156103db57600080fd5b506100f5600435610ae6565b3480156103f357600080fd5b506100f5600435610b91565b34801561040b57600080fd5b50610420600160a060020a0360043516611401565b005b34801561042e57600080fd5b50610420600160a060020a0360043516611447565b604080516020600480358082013583810280860185019096528085526100f595369593946024949385019291829185019084908082843750506040805187358901803560208181028481018201909552818452989b9a99890198929750908201955093508392508501908490808284375050604080516020888301358a018035601f8101839004830284018301909452838352979a89359a8a8301359a919990985060609091019650919450908101925081908401838280828437509497506114db9650505050505050565b600082815260046020526040812060010154600160a060020a0316331461053557600080fd5b600083815260046020908152604080832060059081018690558252918290203490819055825185815291820152815185927f409c15ea918971e39c60d842defa9f1480c49f4c482f97824070559e6e34e103928290030190a250600192915050565b606060068054806020026020016040519081016040528092919081815260200182805480156105e657602002820191906000526020600020905b815481526001909101906020018083116105d1575b505050505090505b90565b606090565b600154600160a060020a031681565b600154600254604080517f60d6c7cf0000000000000000000000000000000000000000000000000000000081526004810192909252600160a060020a038481166024840152905160009391909116916360d6c7cf91604480830192602092919082900301818787803b15801561067a57600080fd5b505af115801561068e573d6000803e3d6000fd5b505050506040513d60208110156106a457600080fd5b505192915050565b60035481565b60025481565b60046020818152600092835260409283902080546001808301549483015460058401546006850180548951600261010096831615969096026000190190911694909404601f81018890048802850188019099528884529397600160a060020a0390971696919590949391908301828280156107745780601f1061074957610100808354040283529160200191610774565b820191906000526020600020905b81548152906001019060200180831161075757829003601f168201915b5050505050905085565b600680548290811061078c57fe5b600091825260209091200154905081565b6001546040805160e060020a630d2020dd0281527f4174746573746174696f6e4167656e6379526567697374727900000000000000600482015290516000928392600160a060020a0390911691630d2020dd9160248082019260209290919082900301818787803b15801561081157600080fd5b505af1158015610825573d6000803e3d6000fd5b505050506040513d602081101561083b57600080fd5b5051604080517fc3c5a547000000000000000000000000000000000000000000000000000000008152600160a060020a03868116600483015291519293509083169163c3c5a547916024808201926020929091908290030181600087803b1580156108a557600080fd5b505af11580156108b9573d6000803e3d6000fd5b505050506040513d60208110156108cf57600080fd5b505115156108dc57600080fd5b50600192915050565b600060606000835185511415156108fb57600080fd5b81866040516020018083805190602001908083835b6020831061092f5780518252601f199092019160209182019101610910565b6001836020036101000a03801982511681845116808217855250505050505090500182600160a060020a0316600160a060020a03166c01000000000000000000000000028152601401925050506040516020818303038152906040529150600090505b8451811015610a5f578185828151811015156109aa57fe5b9060200190602002015185838151811015156109c257fe5b906020019060200201516040516020018084805190602001908083835b602083106109fe5780518252601f1990920191602091820191016109df565b51815160209384036101000a6000190180199092169116179052920194855250600160a060020a03929092166c0100000000000000000000000002918301919091525060408051601481840301815260349092019052925050600101610992565b816040518082805190602001908083835b60208310610a8f5780518252601f199092019160209182019101610a70565b5181516020939093036101000a600019018019909116921691909117905260405192018290039091209998505050505050505050565b60056020526000908152604090205481565b600054600160a060020a031681565b6000818152600460205260408120600101548190600160a060020a03163314610b0e57600080fd5b5060008281526005602052604080822080549083905590519091339183156108fc0291849190818181858888f19350505050158015610b51573d6000803e3d6000fd5b5060408051828152905184917ff35d42b9c311ce9dadd88de9b62d1ff91144843421993199963f32fc1c1ce6b2919081900360200190a250600192915050565b6001546040805160e060020a630d2020dd0281527f4964656e746974794d616e61676572000000000000000000000000000000000060048201529051600092839283928392839283928392600160a060020a031691630d2020dd91602480830192602092919082900301818787803b158015610c0c57600080fd5b505af1158015610c20573d6000803e3d6000fd5b505050506040513d6020811015610c3657600080fd5b5051604080517f12459b000000000000000000000000000000000000000000000000000000000081523360048201529051919750600160a060020a038816916312459b00916024808201926020929091908290030181600087803b158015610c9d57600080fd5b505af1158015610cb1573d6000803e3d6000fd5b505050506040513d6020811015610cc757600080fd5b50511515610d5c57604080517f08c379a000000000000000000000000000000000000000000000000000000000815260206004820152603560248201527f6d73672e73656e646572206973206e6f74206964656e7469747920637265617460448201527f6564206279204964656e746974794d616e616765720000000000000000000000606482015290519081900360840190fd5b339350600094505b600088815260046020526040902060030154851015611038576000888152600460205260409020600201805486908110610d9a57fe5b60009182526020808320909101548a8352600490915260409091206003018054600160a060020a039092169187908110610dd057fe5b90600052602060002001546040516020018083600160a060020a0316600160a060020a03166c01000000000000000000000000028152601401828152602001925050506040516020818303038152906040526040518082805190602001908083835b60208310610e515780518252601f199092019160209182019101610e32565b5181516020939093036101000a6000190180199091169216919091179052604080519190930181900381207fc9100bcb000000000000000000000000000000000000000000000000000000008252600482018190529251929650600160a060020a038916945063c9100bcb9350602480820193600093509182900301818387803b158015610ede57600080fd5b505af1158015610ef2573d6000803e3d6000fd5b505050506040513d6000823e601f3d908101601f1916820160405260c0811015610f1b57600080fd5b8151602083015160408401516060850180519395929491939183019291640100000000811115610f4a57600080fd5b82016020810184811115610f5d57600080fd5b8151640100000000811182820187101715610f7757600080fd5b50509291906020018051640100000000811115610f9357600080fd5b82016020810184811115610fa657600080fd5b8151640100000000811182820187101715610fc057600080fd5b50509291906020018051640100000000811115610fdc57600080fd5b82016020810184811115610fef57600080fd5b815164010000000081118282018710171561100957600080fd5b50969b50505050600160a060020a0389161515955061102d94505050505057600080fd5b600190940193610d64565b6000888152600460209081526040808320600590810154925290912054101561106057600080fd5b600088815260046020908152604080832060059081015492529091205461108c9163ffffffff61193616565b6000898152600560208181526040808420949094556004905282822001549151339280156108fc0292909190818181858888f193505050501580156110d5573d6000803e3d6000fd5b506001546040805160e060020a630d2020dd0281527f416368696576656d656e7400000000000000000000000000000000000000000060048201529051600160a060020a0390921691630d2020dd916024808201926020929091908290030181600087803b15801561114657600080fd5b505af115801561115a573d6000803e3d6000fd5b505050506040513d602081101561117057600080fd5b505160408051336c01000000000000000000000000810260208084019190915260348084018e9052845180850390910181526054909301938490528251949550600160a060020a0386169463d3fc986494929392918291908401908083835b602083106111ee5780518252601f1990920191602091820191016111cf565b6001836020036101000a03801982511681845116808217855250505050505090500191505060405180910390206001900442600460008e6000191660001916815260200190815260200160002060060160405160200180838152602001828054600181600116156101000203166002900480156112a25780601f106112805761010080835404028352918201916112a2565b820191906000526020600020905b81548152906001019060200180831161128e575b5050925050506040516020818303038152906040526040518463ffffffff1660e060020a0281526004018084600160a060020a0316600160a060020a0316815260200183815260200180602001828103825283818151815260200191508051906020019080838360005b8381101561132457818101518382015260200161130c565b50505050905090810190601f1680156113515780820380516001836020036101000a031916815260200191505b50945050505050602060405180830381600087803b15801561137257600080fd5b505af1158015611386573d6000803e3d6000fd5b505050506040513d602081101561139c57600080fd5b505115156113a957600080fd5b600088815260046020908152604091829020600501548251908152915133928b927f2b3c50bc6470494ddd6230eeb3cbb0b2a212a4c1c262627fa78f6c5b4bf0d64d92918290030190a3506001979650505050505050565b600054600160a060020a0316331461141857600080fd5b6001805473ffffffffffffffffffffffffffffffffffffffff1916600160a060020a0392909216919091179055565b600054600160a060020a0316331461145e57600080fd5b600160a060020a038116151561147357600080fd5b60008054604051600160a060020a03808516939216917f8be0079c531659141344cd1fd0a4f28419497f9722a3daafe3b4186f6b6457e091a36000805473ffffffffffffffffffffffffffffffffffffffff1916600160a060020a0392909216919091179055565b6000806000806114e9611948565b6114f23361079d565b15156114fd57600080fd5b611508338b8b6108e5565b6000818152600460205260409020549094501561152457600080fd5b60035434101561153357600080fd5b6001546040805160e060020a630d2020dd0281527f546f70696352656769737472790000000000000000000000000000000000000060048201529051600160a060020a0390921691630d2020dd916024808201926020929091908290030181600087803b1580156115a357600080fd5b505af11580156115b7573d6000803e3d6000fd5b505050506040513d60208110156115cd57600080fd5b50519250600091505b89518210156116e35782600160a060020a031663579a69888b848151811015156115fc57fe5b906020019060200201516040518263ffffffff1660e060020a02815260040180828152602001915050602060405180830381600087803b15801561163f57600080fd5b505af1158015611653573d6000803e3d6000fd5b505050506040513d602081101561166957600080fd5b505115156116d857604080517f08c379a000000000000000000000000000000000000000000000000000000000815260206004820152601460248201527f746f706963206e6f742072656769737465726564000000000000000000000000604482015290519081900360640190fd5b6001909101906115d6565b83815233602080830191825260408084018c8152606085018e9052608085018c905260c085018a905260a085018b90526000888152600484529190912084518155925160018401805473ffffffffffffffffffffffffffffffffffffffff1916600160a060020a0390921691909117905551805184939261176b926002850192910190611983565b50606082015180516117879160038401916020909101906119f5565b506080820151600482015560a0820151600582015560c082015180516117b7916006840191602090910190611a3c565b505060068054600181019091557ff652222313e28459528d920b65115c16c04f3efc82aaedc97be59f3f377c0d3f01859055506000848152600560209081526040808320349055518b518c939192839285820192909102908190849084905b8381101561182e578181015183820152602001611816565b5050505090500191505060405180910390208a60405180828051906020019060200280838360005b8381101561186e578181015183820152602001611856565b50505050905001915050604051809103902085600019167ff9eefc381511c2c3dfedd44f6caa6ff37eaab6d10e8a3a8cfb469280d48e71cf348a6040518083815260200180602001828103825283818151815260200191508051906020019080838360005b838110156118eb5781810151838201526020016118d3565b50505050905090810190601f1680156119185780820380516001836020036101000a031916815260200191505b50935050505060405180910390a45060019998505050505050505050565b60008282111561194257fe5b50900390565b6040805160e08101825260008082526020820181905260609282018390528282018390526080820181905260a082015260c081019190915290565b8280548282559060005260206000209081019282156119e5579160200282015b828111156119e5578251825473ffffffffffffffffffffffffffffffffffffffff1916600160a060020a039091161782556020909201916001909101906119a3565b506119f1929150611aa9565b5090565b828054828255906000526020600020908101928215611a30579160200282015b82811115611a30578251825591602001919060010190611a15565b506119f1929150611ada565b828054600181600116156101000203166002900490600052602060002090601f016020900481019282601f10611a7d57805160ff1916838001178555611a30565b82800160010185558215611a305791820182811115611a30578251825591602001919060010190611a15565b6105ee91905b808211156119f157805473ffffffffffffffffffffffffffffffffffffffff19168155600101611aaf565b6105ee91905b808211156119f15760008155600101611ae05600a165627a7a72305820821220710f00e154c1fc86a768390e2cf813beeed98bf5381a02bb79063141a90029",
  "source": "pragma solidity ^0.4.24;\n\nimport \"../openzeppelin-solidity/contracts/math/SafeMath.sol\";\nimport \"../identity/ERC735.sol\";\nimport \"../RegistryUser.sol\";\nimport \"../registry/TopicRegistry.sol\";\nimport \"../interface/IAchievement.sol\";\nimport \"../interface/IIdentityManager.sol\";\nimport \"../interface/IAttestationAgencyRegistry.sol\";\n\n/**\n * @title AchievementManager\n * @dev AchievementManager Contract used to manage achievement system in metadium\n * The permissinoed participant can CRUD the achievement.\n */\ncontract AchievementManager is RegistryUser {\n    using SafeMath for uint256;\n\n    uint256 public minimumDeposit = 1 * 10 ** 18;\n\n    mapping(bytes32 => Achievement) public achievements; // achievementId => achievement\n    mapping(bytes32 => uint256) public balance; // achievementId => balance\n\n    bytes32[] public allAchievements;\n\n    event CreateAchievement(bytes32 indexed achievementId, uint256[] indexed topics, address[] indexed issuers, uint256 staked, string uri);\n    event UpdateAchievement(bytes32 indexed achievementId, uint256 reward, uint256 charge);\n    event DeleteAchievement(bytes32 indexed achievementId, uint256 refund);\n    event RequestAchievement(bytes32 indexed achievementId, address indexed receiver, uint256 reward);\n\n    struct Achievement {\n        bytes32 id;\n        address creator;\n        address[] issuers;\n        uint256[] claimTopics;\n        bytes32 explanation;\n        uint256 reward;\n        string uri;\n    }\n\n    function isAAttestationAgency(address _addr) public returns(bool) {\n        \n        IAttestationAgencyRegistry ar = IAttestationAgencyRegistry(REG.getContractAddress(\"AttestationAgencyRegistry\"));\n        require(ar.isRegistered(_addr) != 0);\n\n        return true;\n    }\n\n    modifier onlyAttestationAgency() {\n        require(isAAttestationAgency(msg.sender));\n        _;\n    }\n\n\n    function AchievementManager() public {\n        THIS_NAME = \"AchievementManager\";\n    }\n\n    /**\n     * @dev Create Achievement. If topic is not exist, register it to the topic registry.\n     * @param _topics registered topics\n     * @param _issuers issuers for each topic\n     * @param _achievementExplanation achievement explanation\n     * @param _reward reward in meta when user request acievement\n     * @param _uri basically used for ipfs id or something\n     * @return A boolean that indicates if the operation was successful.\n     */\n    function createAchievement(uint256[] _topics, address[] _issuers, bytes32 _achievementExplanation, uint256 _reward, string _uri) onlyAttestationAgency public payable returns (bool) {\n\n        //check if achievement is already registered\n        bytes32 achievementId = getAchievementId(msg.sender, _topics, _issuers);\n        require(achievements[achievementId].id == 0);\n\n        //check staking amount used for reward\n        require(msg.value >= minimumDeposit);\n\n        //topics should be registered already\n        TopicRegistry topicRegistry = TopicRegistry(REG.getContractAddress(\"TopicRegistry\"));\n        for(uint256 i=0;i<_topics.length;i++){\n            require(topicRegistry.isRegistered(_topics[i]), 'topic not registered');\n        }\n        \n        Achievement memory newAc;\n        newAc.id = achievementId;\n        newAc.creator = msg.sender;\n        newAc.issuers = _issuers;\n        newAc.claimTopics = _topics;\n        newAc.explanation = _achievementExplanation;\n        newAc.uri = _uri;\n        newAc.reward = _reward;\n\n        achievements[newAc.id] = newAc;\n        allAchievements.push(achievementId);\n        balance[achievementId] = msg.value;\n\n        emit CreateAchievement(achievementId, _topics, _issuers, msg.value, _uri);\n\n        return true;\n    }\n\n    //TODO createAchievementWithNewTopics\n    // /**\n    //  * @dev Create Achievement. If topic is not exist, register it to the topic registry.\n    //  * @param _topics registered topics\n    //  * @param _newTopicExaplanations explanations of new topics\n    //  * @param _issuers issuers for each topic\n    //  * @param _achievementExplanation achievement explanation\n    //  * @param _reward reward in meta when user request acievement\n    //  * @param _uri basically used for ipfs id or something\n    //  * @return A boolean that indicates if the operation was successful.\n    //  */\n    // function createAchievementWithNewTopics(uint256[] _topics, bytes32[] _newTopicExaplanations, address[] _issuers, bytes32 _achievementExplanation, uint256 _reward, string _uri) onlyAttestationAgency public payable returns (bool) {\n\n    //     require((_topics.length + _newTopicExaplanations.length) == issuers.length);\n\n    //     //check staking amount used for reward\n    //     require(msg.value >= minimumDeposit);\n    //     TopicRegistry topicRegistry = TopicRegistry(REG.getContractAddress(\"TopicRegistry\"));\n\n    //     uint256[] memory allTopics = new uint[](_topics.length + _newTopicExaplanations.length);\n\n    //     uint256 i;\n    //     for(i=0;i<_topics.length;i++){\n    //         allTopics[i] = _topics[i];\n    //     }\n\n    //     for(i=_topics.length;i<_topics.length+_newTopicExaplanations.length;i++) {\n    //         allTopics[i] = topicRegistry.registerTopic(msg.sender, _newTopicExaplanations[i]);\n    //     }\n\n    //     //check if achievement is already registered\n    //     bytes32 achievementId = getAchievementId(msg.sender, topics, issuers);\n    //     require(achievements[achievementId].id == 0);\n    //     Achievement memory newAc;\n    //     newAc.id = achievementId;\n    //     newAc.creator = msg.sender;\n    //     newAc.issuers = issuers;\n    //     newAc.claimTopics = topics;\n    //     newAc.explanation = achievementExplanation;\n    //     newAc.uri = uri;\n    //     newAc.reward = reward;\n\n    //     achievements[newAc.id] = newAc;\n    //     allAchievements.push(achievementId);\n    //     balance[achievementId] = msg.value;\n\n    //     return true;\n    // }\n    \n    function updateAchievement(bytes32 _achievementId, uint256 _reward) public payable returns (bool) {\n        //Only creator can charge fund\n        require(achievements[_achievementId].creator == msg.sender);\n\n        achievements[_achievementId].reward = _reward;\n        balance[_achievementId] = msg.value;\n        emit UpdateAchievement(_achievementId, _reward, msg.value);\n        return true;\n    }\n   \n    function deleteAchievement(bytes32 _achievementId) public returns (bool) {\n        //Only creator can refund\n        require(achievements[_achievementId].creator == msg.sender);\n\n        uint256 rest = balance[_achievementId];\n        \n        balance[_achievementId] = 0;\n        msg.sender.transfer(rest);\n        \n        emit DeleteAchievement(_achievementId, rest);\n\n        return true;\n    }\n    /**\n     * @dev Request achievement. If user have proper claims, user get acievement(ERC721) token and meta reward\n     * @param achievementId achievementId user want to request\n     * @return A boolean that indicates if the operation was successful.\n     */\n    function requestAchievement(bytes32 achievementId) public returns (bool) {\n        // check whether msg.sender is deployed using IdentityManager\n        IIdentityManager im = IIdentityManager(REG.getContractAddress(\"IdentityManager\"));\n        require(im.isMetaId(msg.sender), 'msg.sender is not identity created by IdentityManager');\n        \n        uint256 i;\n        ERC735 identity = ERC735(msg.sender);\n        // // check if sender has enough claims\n        for(i=0;i<achievements[achievementId].claimTopics.length;i++) {\n            address issuer;\n            // claimId is made by topic and issuer.\n            bytes32 claimId = keccak256(abi.encodePacked(achievements[achievementId].issuers[i], achievements[achievementId].claimTopics[i]));\n            (, , issuer, , , ) = identity.getClaim(claimId); // getClaim returns (topic, scheme, issuer, signature, data, uri)\n\n            require(issuer != address(0));\n\n        }\n        \n        // give reward to msg.sender(identity contract)\n        require(balance[achievementId] >= achievements[achievementId].reward);\n        balance[achievementId] = balance[achievementId].sub(achievements[achievementId].reward);\n        msg.sender.transfer(achievements[achievementId].reward);\n\n        // mint achievement erc721 to msg.sender;\n        IAchievement achievement = IAchievement(REG.getContractAddress(\"Achievement\"));\n        require(achievement.mint(msg.sender, uint256(keccak256(abi.encodePacked(msg.sender, achievementId))), string(abi.encodePacked(now,achievements[achievementId].uri))));\n        \n        emit RequestAchievement(achievementId, msg.sender, achievements[achievementId].reward);\n\n        return true;\n    }\n   \n    function getAllAchievementList() view public returns (bytes32[]) {\n        return allAchievements;\n    }\n   \n    function getActiveAchievementList() view public returns(bytes32[]) {\n\n    }\n\n    /**\n     * @dev Get achievement id. an achievement ID is unique with given params.\n     * achievementId = keccak256(abi.encodePacked(creator, topic1, issuer1, topic2, issuer2, ...))\n     * @param creator achievement creator\n     * @param topics topics achievement requirements\n     * @param issuers issuers achievement requirements\n     * @return A boolean that indicates if the operation was successful.\n     */\n    function getAchievementId(address creator, uint256[] topics, address[] issuers) pure public returns(bytes32) {\n        bytes memory idBytes;\n        \n        require(topics.length == issuers.length);\n        \n        idBytes = abi.encodePacked(idBytes, creator);\n\n        for(uint i=0;i<topics.length;i++){\n            idBytes = abi.encodePacked(idBytes, topics[i], issuers[i]);\n        }\n        return keccak256(idBytes);\n    }\n\n}\n",
  "sourcePath": "/Users/coinplug/BangGijin/metabolics2.0/contracts/property/AchievementManager.sol",
  "compiler": {
    "name": "solc",
    "version": "0.4.24+commit.e67f0147.Emscripten.clang"
  },
  "schemaVersion": "2.0.1",
  "updatedAt": "2018-10-22T08:34:59.759Z"
}