{
  "contractName": "AchievementManager",
  "abi": [
    {
      "constant": true,
      "inputs": [],
      "name": "REG",
      "outputs": [
        {
          "name": "",
          "type": "address"
        }
      ],
      "payable": false,
      "stateMutability": "view",
      "type": "function"
    },
    {
      "constant": true,
      "inputs": [
        {
          "name": "_addr",
          "type": "address"
        }
      ],
      "name": "isPermitted",
      "outputs": [
        {
          "name": "found",
          "type": "bool"
        }
      ],
      "payable": false,
      "stateMutability": "view",
      "type": "function"
    },
    {
      "constant": true,
      "inputs": [],
      "name": "minimumDeposit",
      "outputs": [
        {
          "name": "",
          "type": "uint256"
        }
      ],
      "payable": false,
      "stateMutability": "view",
      "type": "function"
    },
    {
      "constant": true,
      "inputs": [],
      "name": "THIS_NAME",
      "outputs": [
        {
          "name": "",
          "type": "bytes32"
        }
      ],
      "payable": false,
      "stateMutability": "view",
      "type": "function"
    },
    {
      "constant": true,
      "inputs": [
        {
          "name": "",
          "type": "bytes32"
        }
      ],
      "name": "achievements",
      "outputs": [
        {
          "name": "id",
          "type": "bytes32"
        },
        {
          "name": "title",
          "type": "bytes32"
        },
        {
          "name": "creator",
          "type": "address"
        },
        {
          "name": "explanation",
          "type": "bytes32"
        },
        {
          "name": "reward",
          "type": "uint256"
        },
        {
          "name": "uri",
          "type": "string"
        },
        {
          "name": "createdAt",
          "type": "uint256"
        }
      ],
      "payable": false,
      "stateMutability": "view",
      "type": "function"
    },
    {
      "constant": true,
      "inputs": [
        {
          "name": "",
          "type": "uint256"
        }
      ],
      "name": "allAchievements",
      "outputs": [
        {
          "name": "",
          "type": "bytes32"
        }
      ],
      "payable": false,
      "stateMutability": "view",
      "type": "function"
    },
    {
      "constant": true,
      "inputs": [
        {
          "name": "",
          "type": "bytes32"
        }
      ],
      "name": "balance",
      "outputs": [
        {
          "name": "",
          "type": "uint256"
        }
      ],
      "payable": false,
      "stateMutability": "view",
      "type": "function"
    },
    {
      "constant": true,
      "inputs": [],
      "name": "owner",
      "outputs": [
        {
          "name": "",
          "type": "address"
        }
      ],
      "payable": false,
      "stateMutability": "view",
      "type": "function"
    },
    {
      "constant": false,
      "inputs": [
        {
          "name": "_addr",
          "type": "address"
        }
      ],
      "name": "setRegistry",
      "outputs": [],
      "payable": false,
      "stateMutability": "nonpayable",
      "type": "function"
    },
    {
      "constant": false,
      "inputs": [
        {
          "name": "newOwner",
          "type": "address"
        }
      ],
      "name": "transferOwnership",
      "outputs": [],
      "payable": false,
      "stateMutability": "nonpayable",
      "type": "function"
    },
    {
      "inputs": [],
      "payable": false,
      "stateMutability": "nonpayable",
      "type": "constructor"
    },
    {
      "anonymous": false,
      "inputs": [
        {
          "indexed": true,
          "name": "achievementId",
          "type": "bytes32"
        },
        {
          "indexed": false,
          "name": "topics",
          "type": "uint256[]"
        },
        {
          "indexed": false,
          "name": "issuers",
          "type": "address[]"
        },
        {
          "indexed": false,
          "name": "staked",
          "type": "uint256"
        },
        {
          "indexed": false,
          "name": "uri",
          "type": "string"
        },
        {
          "indexed": false,
          "name": "createdAt",
          "type": "uint256"
        }
      ],
      "name": "CreateAchievement",
      "type": "event"
    },
    {
      "anonymous": false,
      "inputs": [
        {
          "indexed": true,
          "name": "achievementId",
          "type": "bytes32"
        },
        {
          "indexed": false,
          "name": "reward",
          "type": "uint256"
        },
        {
          "indexed": false,
          "name": "charge",
          "type": "uint256"
        }
      ],
      "name": "UpdateAchievement",
      "type": "event"
    },
    {
      "anonymous": false,
      "inputs": [
        {
          "indexed": true,
          "name": "achievementId",
          "type": "bytes32"
        },
        {
          "indexed": false,
          "name": "refund",
          "type": "uint256"
        }
      ],
      "name": "DeleteAchievement",
      "type": "event"
    },
    {
      "anonymous": false,
      "inputs": [
        {
          "indexed": true,
          "name": "achievementId",
          "type": "bytes32"
        },
        {
          "indexed": true,
          "name": "receiver",
          "type": "address"
        },
        {
          "indexed": false,
          "name": "reward",
          "type": "uint256"
        }
      ],
      "name": "RequestAchievement",
      "type": "event"
    },
    {
      "anonymous": false,
      "inputs": [
        {
          "indexed": false,
          "name": "addr",
          "type": "address"
        },
        {
          "indexed": false,
          "name": "name",
          "type": "bytes32"
        },
        {
          "indexed": false,
          "name": "go",
          "type": "bool"
        }
      ],
      "name": "Per",
      "type": "event"
    },
    {
      "anonymous": false,
      "inputs": [
        {
          "indexed": true,
          "name": "previousOwner",
          "type": "address"
        },
        {
          "indexed": true,
          "name": "newOwner",
          "type": "address"
        }
      ],
      "name": "OwnershipTransferred",
      "type": "event"
    },
    {
      "constant": true,
      "inputs": [
        {
          "name": "_addr",
          "type": "address"
        }
      ],
      "name": "isAAttestationAgency",
      "outputs": [
        {
          "name": "found",
          "type": "bool"
        }
      ],
      "payable": false,
      "stateMutability": "view",
      "type": "function"
    },
    {
      "constant": false,
      "inputs": [
        {
          "name": "_topics",
          "type": "uint256[]"
        },
        {
          "name": "_issuers",
          "type": "address[]"
        },
        {
          "name": "_title",
          "type": "bytes32"
        },
        {
          "name": "_achievementExplanation",
          "type": "bytes32"
        },
        {
          "name": "_reward",
          "type": "uint256"
        },
        {
          "name": "_uri",
          "type": "string"
        }
      ],
      "name": "createAchievement",
      "outputs": [
        {
          "name": "success",
          "type": "bool"
        }
      ],
      "payable": true,
      "stateMutability": "payable",
      "type": "function"
    },
    {
      "constant": false,
      "inputs": [
        {
          "name": "_achievementId",
          "type": "bytes32"
        },
        {
          "name": "_reward",
          "type": "uint256"
        }
      ],
      "name": "updateAchievement",
      "outputs": [
        {
          "name": "success",
          "type": "bool"
        }
      ],
      "payable": true,
      "stateMutability": "payable",
      "type": "function"
    },
    {
      "constant": false,
      "inputs": [
        {
          "name": "_achievementId",
          "type": "bytes32"
        }
      ],
      "name": "deleteAchievement",
      "outputs": [
        {
          "name": "success",
          "type": "bool"
        }
      ],
      "payable": false,
      "stateMutability": "nonpayable",
      "type": "function"
    },
    {
      "constant": false,
      "inputs": [
        {
          "name": "_achievementId",
          "type": "bytes32"
        }
      ],
      "name": "requestAchievement",
      "outputs": [
        {
          "name": "success",
          "type": "bool"
        }
      ],
      "payable": false,
      "stateMutability": "nonpayable",
      "type": "function"
    },
    {
      "constant": true,
      "inputs": [],
      "name": "getAllAchievementList",
      "outputs": [
        {
          "name": "list",
          "type": "bytes32[]"
        }
      ],
      "payable": false,
      "stateMutability": "view",
      "type": "function"
    },
    {
      "constant": true,
      "inputs": [],
      "name": "getActiveAchievementList",
      "outputs": [
        {
          "name": "list",
          "type": "bytes32[]"
        }
      ],
      "payable": false,
      "stateMutability": "view",
      "type": "function"
    },
    {
      "constant": true,
      "inputs": [],
      "name": "getLengthOfAchievements",
      "outputs": [
        {
          "name": "length",
          "type": "uint256"
        }
      ],
      "payable": false,
      "stateMutability": "view",
      "type": "function"
    },
    {
      "constant": true,
      "inputs": [
        {
          "name": "_achievementId",
          "type": "bytes32"
        }
      ],
      "name": "getAchievementById",
      "outputs": [
        {
          "name": "id",
          "type": "bytes32"
        },
        {
          "name": "creator",
          "type": "address"
        },
        {
          "name": "issuers",
          "type": "address[]"
        },
        {
          "name": "claimTopics",
          "type": "uint256[]"
        },
        {
          "name": "title",
          "type": "bytes32"
        },
        {
          "name": "explanation",
          "type": "bytes32"
        },
        {
          "name": "reward",
          "type": "uint256"
        },
        {
          "name": "uri",
          "type": "string"
        },
        {
          "name": "createdAt",
          "type": "uint256"
        }
      ],
      "payable": false,
      "stateMutability": "view",
      "type": "function"
    },
    {
      "constant": true,
      "inputs": [
        {
          "name": "_index",
          "type": "uint256"
        }
      ],
      "name": "getAchievementByIndex",
      "outputs": [
        {
          "name": "id",
          "type": "bytes32"
        },
        {
          "name": "creator",
          "type": "address"
        },
        {
          "name": "issuers",
          "type": "address[]"
        },
        {
          "name": "claimTopics",
          "type": "uint256[]"
        },
        {
          "name": "title",
          "type": "bytes32"
        },
        {
          "name": "explanation",
          "type": "bytes32"
        },
        {
          "name": "reward",
          "type": "uint256"
        },
        {
          "name": "uri",
          "type": "string"
        },
        {
          "name": "createdAt",
          "type": "uint256"
        }
      ],
      "payable": false,
      "stateMutability": "view",
      "type": "function"
    },
    {
      "constant": true,
      "inputs": [
        {
          "name": "creator",
          "type": "address"
        },
        {
          "name": "topics",
          "type": "uint256[]"
        },
        {
          "name": "issuers",
          "type": "address[]"
        }
      ],
      "name": "getAchievementId",
      "outputs": [
        {
          "name": "id",
          "type": "bytes32"
        }
      ],
      "payable": false,
      "stateMutability": "pure",
      "type": "function"
    }
  ],
  "bytecode": "0x6080604052670de0b6b3a764000060035534801561001c57600080fd5b5060008054600160a060020a031916331790557f416368696576656d656e744d616e61676572000000000000000000000000000060025561211c806100626000396000f3006080604052600436106101035763ffffffff60e060020a60003504166305b636e3811461010857806318b6e0321461026157806322a3ecb7146102835780632f1b9f141461028357806339363112146102e85780633fd8cc4e14610319578063509257e81461033a578063636bfbab1461036157806364319d0b146103765780636b03af841461038b57806374f0ce451461045857806377aea96714610470578063857ab0751461049157806389eba4211461052d5780638da5cb5b1461054557806397d26ab01461055a5780639cb4da0814610572578063a64a3da31461058a578063a91ee0dc146105a2578063bc4f5a40146105c5578063f2fde38b14610696575b600080fd5b34801561011457600080fd5b506101206004356106b7565b604080518a8152600160a060020a038a166020808301919091526080820188905260a0820187905260c0820186905261010082018490526101209282018381528a51938301939093528951919291606084019160e08501916101408601918d8101910280838360005b838110156101a1578181015183820152602001610189565b5050505090500184810383528a818151815260200191508051906020019060200280838360005b838110156101e05781810151838201526020016101c8565b50505050905001848103825286818151815260200191508051906020019080838360005b8381101561021c578181015183820152602001610204565b50505050905090810190601f1680156102495780820380516001836020036101000a031916815260200191505b509c5050505050505050505050505060405180910390f35b61026f60043560243561088b565b604080519115158252519081900360200190f35b34801561028f57600080fd5b50610298610913565b60408051602080825283518183015283519192839290830191858101910280838360005b838110156102d45781810151838201526020016102bc565b505050509050019250505060405180910390f35b3480156102f457600080fd5b506102fd61096d565b60408051600160a060020a039092168252519081900360200190f35b34801561032557600080fd5b5061026f600160a060020a036004351661097c565b34801561034657600080fd5b5061034f610a23565b60408051918252519081900360200190f35b34801561036d57600080fd5b5061034f610a29565b34801561038257600080fd5b5061034f610a2f565b34801561039757600080fd5b506103a3600435610a35565b604080518881526020808201899052600160a060020a03881692820192909252606081018690526080810185905260c0810183905260e060a0820181815285519183019190915284519192909161010084019186019080838360005b838110156104175781810151838201526020016103ff565b50505050905090810190601f1680156104445780820380516001836020036101000a031916815260200191505b509850505050505050505060405180910390f35b34801561046457600080fd5b5061034f600435610b07565b34801561047c57600080fd5b5061026f600160a060020a0360043516610b26565b34801561049d57600080fd5b5060408051602060046024803582810135848102808701860190975280865261034f968435600160a060020a031696369660449591949091019291829185019084908082843750506040805187358901803560208181028481018201909552818452989b9a998901989297509082019550935083925085019084908082843750949750610c6e9650505050505050565b34801561053957600080fd5b5061034f600435610e4e565b34801561055157600080fd5b506102fd610e60565b34801561056657600080fd5b50610120600435610e6f565b34801561057e57600080fd5b5061026f60043561108d565b34801561059657600080fd5b5061026f600435611138565b3480156105ae57600080fd5b506105c3600160a060020a03600435166119ac565b005b6040805160206004803580820135838102808601850190965280855261026f95369593946024949385019291829185019084908082843750506040805187358901803560208181028481018201909552818452989b9a99890198929750908201955093508392508501908490808284375050604080516020601f60608a01358b0180359182018390048302840183018552818452989b8a359b838c01359b958601359a9199509750608090940195509193509182019181908401838280828437509497506119f29650505050505050565b3480156106a257600080fd5b506105c3600160a060020a0360043516611e8e565b6000806060806000806000606060008060068b8154811015156106d657fe5b600091825260208083209091015480835260048083526040938490208054600282015460018301546005840154600685015460088601546003870180548c51818d0281018d01909d52808d52999c50959a600160a060020a039095169995989787019793969295919460079093019390929189919083018282801561078457602002820191906000526020600020905b8154600160a060020a03168152600190910190602001808311610766575b50505050509650858054806020026020016040519081016040528092919081815260200182805480156107d657602002820191906000526020600020905b8154815260200190600101908083116107c2575b5050855460408051602060026001851615610100026000190190941693909304601f8101849004840282018401909252818152959b50879450925084019050828280156108645780601f1061083957610100808354040283529160200191610864565b820191906000526020600020905b81548152906001019060200180831161084757829003601f168201915b50505050509150995099509950995099509950995099509950509193959799909294969850565b600082815260046020526040812060020154600160a060020a031633146108b157600080fd5b600083815260046020908152604080832060060185905560058252918290203490819055825185815291820152815185927f409c15ea918971e39c60d842defa9f1480c49f4c482f97824070559e6e34e103928290030190a250600192915050565b6060600680548060200260200160405190810160405280929190818152602001828054801561096257602002820191906000526020600020905b8154815260019091019060200180831161094d575b505050505090505b90565b600154600160a060020a031681565b600154600254604080517f60d6c7cf0000000000000000000000000000000000000000000000000000000081526004810192909252600160a060020a038481166024840152905160009391909116916360d6c7cf91604480830192602092919082900301818787803b1580156109f157600080fd5b505af1158015610a05573d6000803e3d6000fd5b505050506040513d6020811015610a1b57600080fd5b505192915050565b60065490565b60035481565b60025481565b6004602090815260009182526040918290208054600180830154600280850154600586015460068701546007880180548b516101009882161598909802600019011694909404601f81018a90048a0287018a01909a5289865295989397600160a060020a03909216969095949093909291830182828015610af75780601f10610acc57610100808354040283529160200191610af7565b820191906000526020600020905b815481529060010190602001808311610ada57829003601f168201915b5050505050908060080154905087565b6006805482908110610b1557fe5b600091825260209091200154905081565b6001546040805160e060020a630d2020dd0281527f4174746573746174696f6e4167656e6379526567697374727900000000000000600482015290516000928392600160a060020a0390911691630d2020dd9160248082019260209290919082900301818787803b158015610b9a57600080fd5b505af1158015610bae573d6000803e3d6000fd5b505050506040513d6020811015610bc457600080fd5b5051604080517fc3c5a547000000000000000000000000000000000000000000000000000000008152600160a060020a03868116600483015291519293509083169163c3c5a547916024808201926020929091908290030181600087803b158015610c2e57600080fd5b505af1158015610c42573d6000803e3d6000fd5b505050506040513d6020811015610c5857600080fd5b50511515610c6557600080fd5b50600192915050565b60006060600083518551141515610c8457600080fd5b81866040516020018083805190602001908083835b60208310610cb85780518252601f199092019160209182019101610c99565b6001836020036101000a03801982511681845116808217855250505050505090500182600160a060020a0316600160a060020a03166c01000000000000000000000000028152601401925050506040516020818303038152906040529150600090505b8451811015610de857818582815181101515610d3357fe5b906020019060200201518583815181101515610d4b57fe5b906020019060200201516040516020018084805190602001908083835b60208310610d875780518252601f199092019160209182019101610d68565b51815160209384036101000a6000190180199092169116179052920194855250600160a060020a03929092166c0100000000000000000000000002918301919091525060408051601481840301815260349092019052925050600101610d1b565b816040518082805190602001908083835b60208310610e185780518252601f199092019160209182019101610df9565b5181516020939093036101000a600019018019909116921691909117905260405192018290039091209998505050505050505050565b60056020526000908152604090205481565b600054600160a060020a031681565b600080606080600080600060606000610e86611f34565b60008b815260046020908152604091829020825161012081018452815481526001820154818401526002820154600160a060020a0316818501526003820180548551818602810186019096528086529194929360608601939290830182828015610f1957602002820191906000526020600020905b8154600160a060020a03168152600190910190602001808311610efb575b5050505050815260200160048201805480602002602001604051908101604052809291908181526020018280548015610f7157602002820191906000526020600020905b815481526020019060010190808311610f5d575b505050918352505060058201546020808301919091526006830154604080840191909152600784018054825160026000196001841615610100020190921691909104601f8101859004850282018501909352828152606090940193929091908301828280156110215780601f10610ff657610100808354040283529160200191611021565b820191906000526020600020905b81548152906001019060200180831161100457829003601f168201915b505050505081526020016008820154815250509050806000015181604001518260600151836080015184602001518560a001518660c001518760e00151886101000151869650859550819150995099509950995099509950995099509950509193959799909294969850565b6000818152600460205260408120600201548190600160a060020a031633146110b557600080fd5b5060008281526005602052604080822080549083905590519091339183156108fc0291849190818181858888f193505050501580156110f8573d6000803e3d6000fd5b5060408051828152905184917ff35d42b9c311ce9dadd88de9b62d1ff91144843421993199963f32fc1c1ce6b2919081900360200190a250600192915050565b6001546040805160e060020a630d2020dd0281527f4964656e746974794d616e61676572000000000000000000000000000000000060048201529051600092839283928392839283928392600160a060020a031691630d2020dd91602480830192602092919082900301818787803b1580156111b357600080fd5b505af11580156111c7573d6000803e3d6000fd5b505050506040513d60208110156111dd57600080fd5b5051604080517f12459b000000000000000000000000000000000000000000000000000000000081523360048201529051919750600160a060020a038816916312459b00916024808201926020929091908290030181600087803b15801561124457600080fd5b505af1158015611258573d6000803e3d6000fd5b505050506040513d602081101561126e57600080fd5b5051151561130357604080517f08c379a000000000000000000000000000000000000000000000000000000000815260206004820152603560248201527f6d73672e73656e646572206973206e6f74206964656e7469747920637265617460448201527f6564206279204964656e746974794d616e616765720000000000000000000000606482015290519081900360840190fd5b339350600094505b600088815260046020819052604090912001548510156115df57600088815260046020526040902060030180548690811061134257fe5b60009182526020808320909101548a83526004918290526040909220018054600160a060020a03909216918790811061137757fe5b90600052602060002001546040516020018083600160a060020a0316600160a060020a03166c01000000000000000000000000028152601401828152602001925050506040516020818303038152906040526040518082805190602001908083835b602083106113f85780518252601f1990920191602091820191016113d9565b5181516020939093036101000a6000190180199091169216919091179052604080519190930181900381207fc9100bcb000000000000000000000000000000000000000000000000000000008252600482018190529251929650600160a060020a038916945063c9100bcb9350602480820193600093509182900301818387803b15801561148557600080fd5b505af1158015611499573d6000803e3d6000fd5b505050506040513d6000823e601f3d908101601f1916820160405260c08110156114c257600080fd5b81516020830151604084015160608501805193959294919391830192916401000000008111156114f157600080fd5b8201602081018481111561150457600080fd5b815164010000000081118282018710171561151e57600080fd5b5050929190602001805164010000000081111561153a57600080fd5b8201602081018481111561154d57600080fd5b815164010000000081118282018710171561156757600080fd5b5050929190602001805164010000000081111561158357600080fd5b8201602081018481111561159657600080fd5b81516401000000008111828201871017156115b057600080fd5b50969b50505050600160a060020a038916151595506115d494505050505057600080fd5b60019094019361130b565b600088815260046020908152604080832060060154600590925290912054101561160857600080fd5b6000888152600460209081526040808320600601546005909252909120546116359163ffffffff611f2216565b60008981526005602090815260408083209390935560049052818120600601549151339280156108fc0292909190818181858888f19350505050158015611680573d6000803e3d6000fd5b506001546040805160e060020a630d2020dd0281527f416368696576656d656e7400000000000000000000000000000000000000000060048201529051600160a060020a0390921691630d2020dd916024808201926020929091908290030181600087803b1580156116f157600080fd5b505af1158015611705573d6000803e3d6000fd5b505050506040513d602081101561171b57600080fd5b505160408051336c01000000000000000000000000810260208084019190915260348084018e9052845180850390910181526054909301938490528251949550600160a060020a0386169463d3fc986494929392918291908401908083835b602083106117995780518252601f19909201916020918201910161177a565b6001836020036101000a03801982511681845116808217855250505050505090500191505060405180910390206001900442600460008e60001916600019168152602001908152602001600020600701604051602001808381526020018280546001816001161561010002031660029004801561184d5780601f1061182b57610100808354040283529182019161184d565b820191906000526020600020905b815481529060010190602001808311611839575b5050925050506040516020818303038152906040526040518463ffffffff1660e060020a0281526004018084600160a060020a0316600160a060020a0316815260200183815260200180602001828103825283818151815260200191508051906020019080838360005b838110156118cf5781810151838201526020016118b7565b50505050905090810190601f1680156118fc5780820380516001836020036101000a031916815260200191505b50945050505050602060405180830381600087803b15801561191d57600080fd5b505af1158015611931573d6000803e3d6000fd5b505050506040513d602081101561194757600080fd5b5051151561195457600080fd5b600088815260046020908152604091829020600601548251908152915133928b927f2b3c50bc6470494ddd6230eeb3cbb0b2a212a4c1c262627fa78f6c5b4bf0d64d92918290030190a3506001979650505050505050565b600054600160a060020a031633146119c357600080fd5b6001805473ffffffffffffffffffffffffffffffffffffffff1916600160a060020a0392909216919091179055565b600080600080611a00611f34565b611a0933610b26565b1515611a1457600080fd5b611a1f338c8c610c6e565b60008181526004602052604090205490945015611a3b57600080fd5b600354341015611a4a57600080fd5b6001546040805160e060020a630d2020dd0281527f546f70696352656769737472790000000000000000000000000000000000000060048201529051600160a060020a0390921691630d2020dd916024808201926020929091908290030181600087803b158015611aba57600080fd5b505af1158015611ace573d6000803e3d6000fd5b505050506040513d6020811015611ae457600080fd5b50519250600091505b8a51821015611bfa5782600160a060020a031663579a69888c84815181101515611b1357fe5b906020019060200201516040518263ffffffff1660e060020a02815260040180828152602001915050602060405180830381600087803b158015611b5657600080fd5b505af1158015611b6a573d6000803e3d6000fd5b505050506040513d6020811015611b8057600080fd5b50511515611bef57604080517f08c379a000000000000000000000000000000000000000000000000000000000815260206004820152601460248201527f746f706963206e6f742072656769737465726564000000000000000000000000604482015290519081900360640190fd5b600190910190611aed565b838152336040808301918252606083018c8152608084018e905260208085018d815260a086018d905260e086018b905260c086018c905242610100870152600089815260048352939093208551815592516001840155925160028301805473ffffffffffffffffffffffffffffffffffffffff1916600160a060020a039092169190911790555180518493611c96926003850192910190611f7f565b5060808201518051611cb2916004840191602090910190611ff1565b5060a0820151600582015560c0820151600682015560e08201518051611ce2916007840191602090910190612038565b5061010082015181600801559050506006849080600181540180825580915050906001820390600052602060002001600090919290919091509060001916905550346005600086600019166000191681526020019081526020016000208190555083600019167fdebdabb26fa499a98c2bec69c54183d67f0ca99a9c5811dc76bb71c6fa568a6d8c8c348a4260405180806020018060200186815260200180602001858152602001848103845289818151815260200191508051906020019060200280838360005b83811015611dc2578181015183820152602001611daa565b50505050905001848103835288818151815260200191508051906020019060200280838360005b83811015611e01578181015183820152602001611de9565b50505050905001848103825286818151815260200191508051906020019080838360005b83811015611e3d578181015183820152602001611e25565b50505050905090810190601f168015611e6a5780820380516001836020036101000a031916815260200191505b509850505050505050505060405180910390a25060019a9950505050505050505050565b600054600160a060020a03163314611ea557600080fd5b600160a060020a0381161515611eba57600080fd5b60008054604051600160a060020a03808516939216917f8be0079c531659141344cd1fd0a4f28419497f9722a3daafe3b4186f6b6457e091a36000805473ffffffffffffffffffffffffffffffffffffffff1916600160a060020a0392909216919091179055565b600082821115611f2e57fe5b50900390565b604080516101208101825260008082526020820181905291810182905260608082018190526080820181905260a0820183905260c0820183905260e082015261010081019190915290565b828054828255906000526020600020908101928215611fe1579160200282015b82811115611fe1578251825473ffffffffffffffffffffffffffffffffffffffff1916600160a060020a03909116178255602090920191600190910190611f9f565b50611fed9291506120a5565b5090565b82805482825590600052602060002090810192821561202c579160200282015b8281111561202c578251825591602001919060010190612011565b50611fed9291506120d6565b828054600181600116156101000203166002900490600052602060002090601f016020900481019282601f1061207957805160ff191683800117855561202c565b8280016001018555821561202c579182018281111561202c578251825591602001919060010190612011565b61096a91905b80821115611fed57805473ffffffffffffffffffffffffffffffffffffffff191681556001016120ab565b61096a91905b80821115611fed57600081556001016120dc5600a165627a7a72305820ace53592d47152393b594e0cc5f01f9c731d3e35924fdafc7b2fe8cf0c71e5fb0029",
  "source": "pragma solidity ^0.4.24;\n\nimport \"../openzeppelin-solidity/contracts/math/SafeMath.sol\";\nimport \"../identity/ERC735.sol\";\nimport \"../RegistryUser.sol\";\nimport \"../registry/TopicRegistry.sol\";\nimport \"../interface/IAchievement.sol\";\nimport \"../interface/IIdentityManager.sol\";\nimport \"../interface/IAttestationAgencyRegistry.sol\";\n\n/**\n * @title AchievementManager\n * @dev AchievementManager Contract used to manage achievement system in metadium\n * The permissinoed participant can CRUD the achievement.\n */\ncontract AchievementManager is RegistryUser {\n    using SafeMath for uint256;\n\n    uint256 public minimumDeposit = 1 * 10 ** 18;\n\n    mapping(bytes32 => Achievement) public achievements; // achievementId => achievement\n    mapping(bytes32 => uint256) public balance; // achievementId => balance\n\n    bytes32[] public allAchievements;\n\n    event CreateAchievement(bytes32 indexed achievementId, uint256[] topics, address[] issuers, uint256 staked, string uri, uint256 createdAt);\n    event UpdateAchievement(bytes32 indexed achievementId, uint256 reward, uint256 charge);\n    event DeleteAchievement(bytes32 indexed achievementId, uint256 refund);\n    event RequestAchievement(bytes32 indexed achievementId, address indexed receiver, uint256 reward);\n\n    struct Achievement {\n        bytes32 id;\n        bytes32 title;\n        address creator;\n        address[] issuers;\n        uint256[] claimTopics;\n        bytes32 explanation;\n        uint256 reward;\n        string uri;\n        uint256 createdAt;\n    }\n\n    function isAAttestationAgency(address _addr) view public returns(bool found) {\n        \n        IAttestationAgencyRegistry ar = IAttestationAgencyRegistry(REG.getContractAddress(\"AttestationAgencyRegistry\"));\n        require(ar.isRegistered(_addr) != 0);\n\n        return true;\n    }\n\n    modifier onlyAttestationAgency() {\n        require(isAAttestationAgency(msg.sender));\n        _;\n    }\n\n\n    constructor() public {\n        THIS_NAME = \"AchievementManager\";\n    }\n\n    /**\n     * @dev Create Achievement. Topics should be registered first.\n     * @param _topics registered topics\n     * @param _issuers issuers for each topic\n     * @param _title title\n     * @param _achievementExplanation achievement explanation\n     * @param _reward reward in meta when user request acievement\n     * @param _uri basically used for ipfs id or something\n     * @return A boolean that indicates if the operation was successful.\n     */\n    function createAchievement(uint256[] _topics, address[] _issuers, bytes32 _title, bytes32 _achievementExplanation, uint256 _reward, string _uri) onlyAttestationAgency public payable returns (bool success) {\n\n        //check if achievement is already registered\n        bytes32 achievementId = getAchievementId(msg.sender, _topics, _issuers);\n        require(achievements[achievementId].id == 0);\n\n        //check staking amount used for reward\n        require(msg.value >= minimumDeposit);\n\n        //topics should be registered already\n        TopicRegistry topicRegistry = TopicRegistry(REG.getContractAddress(\"TopicRegistry\"));\n        for(uint256 i=0;i<_topics.length;i++){\n            require(topicRegistry.isRegistered(_topics[i]), 'topic not registered');\n        }\n        \n        Achievement memory newAc;\n        newAc.id = achievementId;\n        newAc.creator = msg.sender;\n        newAc.issuers = _issuers;\n        newAc.claimTopics = _topics;\n        newAc.title = _title;\n        newAc.explanation = _achievementExplanation;\n        newAc.uri = _uri;\n        newAc.reward = _reward;\n        newAc.createdAt = now;\n\n        achievements[newAc.id] = newAc;\n        allAchievements.push(achievementId);\n        balance[achievementId] = msg.value;\n\n        emit CreateAchievement(achievementId, _topics, _issuers, msg.value, _uri, now);\n\n        return true;\n    }\n\n    //TODO createAchievementWithNewTopics\n    // /**\n    //  * @dev Create Achievement. If topic is not exist, register it to the topic registry.\n    //  * @param _topics registered topics\n    //  * @param _newTopicExaplanations explanations of new topics\n    //  * @param _issuers issuers for each topic\n    //  * @param _achievementExplanation achievement explanation\n    //  * @param _reward reward in meta when user request acievement\n    //  * @param _uri basically used for ipfs id or something\n    //  * @return A boolean that indicates if the operation was successful.\n    //  */\n    // function createAchievementWithNewTopics(uint256[] _topics, bytes32[] _newTopicExaplanations, address[] _issuers, bytes32 _achievementExplanation, uint256 _reward, string _uri) onlyAttestationAgency public payable returns (bool) {\n\n    //     require((_topics.length + _newTopicExaplanations.length) == issuers.length);\n\n    //     //check staking amount used for reward\n    //     require(msg.value >= minimumDeposit);\n    //     TopicRegistry topicRegistry = TopicRegistry(REG.getContractAddress(\"TopicRegistry\"));\n\n    //     uint256[] memory allTopics = new uint[](_topics.length + _newTopicExaplanations.length);\n\n    //     uint256 i;\n    //     for(i=0;i<_topics.length;i++){\n    //         allTopics[i] = _topics[i];\n    //     }\n\n    //     for(i=_topics.length;i<_topics.length+_newTopicExaplanations.length;i++) {\n    //         allTopics[i] = topicRegistry.registerTopic(msg.sender, _newTopicExaplanations[i]);\n    //     }\n\n    //     //check if achievement is already registered\n    //     bytes32 achievementId = getAchievementId(msg.sender, topics, issuers);\n    //     require(achievements[achievementId].id == 0);\n    //     Achievement memory newAc;\n    //     newAc.id = achievementId;\n    //     newAc.creator = msg.sender;\n    //     newAc.issuers = issuers;\n    //     newAc.claimTopics = topics;\n    //     newAc.explanation = achievementExplanation;\n    //     newAc.uri = uri;\n    //     newAc.reward = reward;\n\n    //     achievements[newAc.id] = newAc;\n    //     allAchievements.push(achievementId);\n    //     balance[achievementId] = msg.value;\n\n    //     return true;\n    // }\n    \n\n    /**\n     * @dev Update Achievement. Fund can be charged through this, and reward can be set newly.\n     * @param _achievementId achievementId\n     * @param _reward new reward\n     * @return A boolean that indicates if the operation was successful.\n     */\n    function updateAchievement(bytes32 _achievementId, uint256 _reward) public payable returns (bool success) {\n        //Only creator can charge fund\n        require(achievements[_achievementId].creator == msg.sender);\n\n        achievements[_achievementId].reward = _reward;\n        balance[_achievementId] = msg.value;\n        emit UpdateAchievement(_achievementId, _reward, msg.value);\n        return true;\n    }\n\n    /**\n     * @dev Delete Achievement. This function DOES NOT actually delete achievement.\n     * Just refund to the creator.\n     * @param _achievementId achievementId\n     * @return A boolean that indicates if the operation was successful.\n     */\n    function deleteAchievement(bytes32 _achievementId) public returns (bool success) {\n        //Only creator can refund\n        require(achievements[_achievementId].creator == msg.sender);\n\n        uint256 rest = balance[_achievementId];\n        \n        balance[_achievementId] = 0;\n        msg.sender.transfer(rest);\n        \n        emit DeleteAchievement(_achievementId, rest);\n\n        return true;\n    }\n    /**\n     * @dev Request achievement. If user have proper claims, user get acievement(ERC721) token and meta reward\n     * @param _achievementId _achievementId user want to request\n     * @return A boolean that indicates if the operation was successful.\n     */\n    function requestAchievement(bytes32 _achievementId) public returns (bool success) {\n        // check whether msg.sender is deployed using IdentityManager\n        IIdentityManager im = IIdentityManager(REG.getContractAddress(\"IdentityManager\"));\n        require(im.isMetaId(msg.sender), 'msg.sender is not identity created by IdentityManager');\n        \n        uint256 i;\n        ERC735 identity = ERC735(msg.sender);\n        // // check if sender has enough claims\n        for(i=0;i<achievements[_achievementId].claimTopics.length;i++) {\n            address issuer;\n            // claimId is made by topic and issuer.\n            bytes32 claimId = keccak256(abi.encodePacked(achievements[_achievementId].issuers[i], achievements[_achievementId].claimTopics[i]));\n            (, , issuer, , , ) = identity.getClaim(claimId); // getClaim returns (topic, scheme, issuer, signature, data, uri)\n\n            require(issuer != address(0));\n\n        }\n        \n        // give reward to msg.sender(identity contract)\n        require(balance[_achievementId] >= achievements[_achievementId].reward);\n        balance[_achievementId] = balance[_achievementId].sub(achievements[_achievementId].reward);\n        msg.sender.transfer(achievements[_achievementId].reward);\n\n        // mint achievement erc721 to msg.sender;\n        IAchievement achievement = IAchievement(REG.getContractAddress(\"Achievement\"));\n        require(achievement.mint(msg.sender, uint256(keccak256(abi.encodePacked(msg.sender, _achievementId))), string(abi.encodePacked(now,achievements[_achievementId].uri))));\n        \n        emit RequestAchievement(_achievementId, msg.sender, achievements[_achievementId].reward);\n\n        return true;\n    }\n   \n    function getAllAchievementList() view public returns (bytes32[] list) {\n        return allAchievements;\n    }\n   \n    function getActiveAchievementList() view public returns(bytes32[] list) {\n        return allAchievements;\n    }\n\n    function getLengthOfAchievements() view public returns(uint256 length) {\n        return allAchievements.length;\n    }\n\n    function getAchievementById(bytes32 _achievementId) view public returns(bytes32 id, address creator, address[] issuers, uint256[] claimTopics, bytes32 title, bytes32 explanation, uint256 reward, string uri, uint256 createdAt) {\n        Achievement memory ac = achievements[_achievementId];\n        return (\n            ac.id, \n            ac.creator, \n            ac.issuers, \n            ac.claimTopics, \n            ac.title, \n            ac.explanation, \n            ac.reward, \n            ac.uri,\n            ac.createdAt\n            );\n    }\n\n    function getAchievementByIndex(uint256 _index) view public returns(bytes32 id, address creator, address[] issuers, uint256[] claimTopics, bytes32 title, bytes32 explanation, uint256 reward, string uri, uint256 createdAt) {\n        bytes32 _achievementId = allAchievements[_index];\n        return (\n            achievements[_achievementId].id, \n            achievements[_achievementId].creator, \n            achievements[_achievementId].issuers, \n            achievements[_achievementId].claimTopics, \n            achievements[_achievementId].title, \n            achievements[_achievementId].explanation, \n            achievements[_achievementId].reward, \n            achievements[_achievementId].uri,\n            achievements[_achievementId].createdAt\n            );\n\n    }\n\n    /**\n     * @dev Get achievement id. an achievement ID is unique with given params.\n     * achievementId = keccak256(abi.encodePacked(creator, topic1, issuer1, topic2, issuer2, ...))\n     * @param creator achievement creator\n     * @param topics topics achievement requirements\n     * @param issuers issuers achievement requirements\n     * @return A boolean that indicates if the operation was successful.\n     */\n    function getAchievementId(address creator, uint256[] topics, address[] issuers) pure public returns(bytes32 id) {\n        bytes memory idBytes;\n        \n        require(topics.length == issuers.length);\n        \n        idBytes = abi.encodePacked(idBytes, creator);\n\n        for(uint i=0;i<topics.length;i++){\n            idBytes = abi.encodePacked(idBytes, topics[i], issuers[i]);\n        }\n        return keccak256(idBytes);\n    }\n\n}\n",
  "sourcePath": "/Users/coinplug/BangGijin/metabolics2.0/contracts/property/AchievementManager.sol",
  "compiler": {
    "name": "solc",
    "version": "0.4.24+commit.e67f0147.Emscripten.clang"
  },
  "schemaVersion": "2.0.1",
  "updatedAt": "2018-10-29T05:10:28.661Z"
}