{
  "contractName": "Achievement",
  "abi": [
    {
      "constant": true,
      "inputs": [
        {
          "name": "_interfaceId",
          "type": "bytes4"
        }
      ],
      "name": "supportsInterface",
      "outputs": [
        {
          "name": "",
          "type": "bool"
        }
      ],
      "payable": false,
      "stateMutability": "view",
      "type": "function"
    },
    {
      "constant": true,
      "inputs": [],
      "name": "name",
      "outputs": [
        {
          "name": "",
          "type": "string"
        }
      ],
      "payable": false,
      "stateMutability": "view",
      "type": "function"
    },
    {
      "constant": true,
      "inputs": [
        {
          "name": "_tokenId",
          "type": "uint256"
        }
      ],
      "name": "getApproved",
      "outputs": [
        {
          "name": "",
          "type": "address"
        }
      ],
      "payable": false,
      "stateMutability": "view",
      "type": "function"
    },
    {
      "constant": true,
      "inputs": [],
      "name": "totalSupply",
      "outputs": [
        {
          "name": "",
          "type": "uint256"
        }
      ],
      "payable": false,
      "stateMutability": "view",
      "type": "function"
    },
    {
      "constant": true,
      "inputs": [],
      "name": "InterfaceId_ERC165",
      "outputs": [
        {
          "name": "",
          "type": "bytes4"
        }
      ],
      "payable": false,
      "stateMutability": "view",
      "type": "function"
    },
    {
      "constant": true,
      "inputs": [
        {
          "name": "_owner",
          "type": "address"
        },
        {
          "name": "_index",
          "type": "uint256"
        }
      ],
      "name": "tokenOfOwnerByIndex",
      "outputs": [
        {
          "name": "",
          "type": "uint256"
        }
      ],
      "payable": false,
      "stateMutability": "view",
      "type": "function"
    },
    {
      "constant": true,
      "inputs": [],
      "name": "REG",
      "outputs": [
        {
          "name": "",
          "type": "address"
        }
      ],
      "payable": false,
      "stateMutability": "view",
      "type": "function"
    },
    {
      "constant": false,
      "inputs": [],
      "name": "isPermitted",
      "outputs": [
        {
          "name": "",
          "type": "bool"
        }
      ],
      "payable": false,
      "stateMutability": "nonpayable",
      "type": "function"
    },
    {
      "constant": true,
      "inputs": [],
      "name": "transferEnabled",
      "outputs": [
        {
          "name": "",
          "type": "bool"
        }
      ],
      "payable": false,
      "stateMutability": "view",
      "type": "function"
    },
    {
      "constant": true,
      "inputs": [
        {
          "name": "_tokenId",
          "type": "uint256"
        }
      ],
      "name": "exists",
      "outputs": [
        {
          "name": "",
          "type": "bool"
        }
      ],
      "payable": false,
      "stateMutability": "view",
      "type": "function"
    },
    {
      "constant": true,
      "inputs": [
        {
          "name": "_index",
          "type": "uint256"
        }
      ],
      "name": "tokenByIndex",
      "outputs": [
        {
          "name": "",
          "type": "uint256"
        }
      ],
      "payable": false,
      "stateMutability": "view",
      "type": "function"
    },
    {
      "constant": true,
      "inputs": [
        {
          "name": "_tokenId",
          "type": "uint256"
        }
      ],
      "name": "ownerOf",
      "outputs": [
        {
          "name": "",
          "type": "address"
        }
      ],
      "payable": false,
      "stateMutability": "view",
      "type": "function"
    },
    {
      "constant": true,
      "inputs": [],
      "name": "THIS_NAME",
      "outputs": [
        {
          "name": "",
          "type": "bytes32"
        }
      ],
      "payable": false,
      "stateMutability": "view",
      "type": "function"
    },
    {
      "constant": true,
      "inputs": [
        {
          "name": "_owner",
          "type": "address"
        }
      ],
      "name": "balanceOf",
      "outputs": [
        {
          "name": "",
          "type": "uint256"
        }
      ],
      "payable": false,
      "stateMutability": "view",
      "type": "function"
    },
    {
      "constant": true,
      "inputs": [],
      "name": "owner",
      "outputs": [
        {
          "name": "",
          "type": "address"
        }
      ],
      "payable": false,
      "stateMutability": "view",
      "type": "function"
    },
    {
      "constant": true,
      "inputs": [],
      "name": "symbol",
      "outputs": [
        {
          "name": "",
          "type": "string"
        }
      ],
      "payable": false,
      "stateMutability": "view",
      "type": "function"
    },
    {
      "constant": false,
      "inputs": [
        {
          "name": "_addr",
          "type": "address"
        }
      ],
      "name": "setRegistry",
      "outputs": [],
      "payable": false,
      "stateMutability": "nonpayable",
      "type": "function"
    },
    {
      "constant": true,
      "inputs": [
        {
          "name": "_tokenId",
          "type": "uint256"
        }
      ],
      "name": "tokenURI",
      "outputs": [
        {
          "name": "",
          "type": "string"
        }
      ],
      "payable": false,
      "stateMutability": "view",
      "type": "function"
    },
    {
      "constant": true,
      "inputs": [
        {
          "name": "_owner",
          "type": "address"
        },
        {
          "name": "_operator",
          "type": "address"
        }
      ],
      "name": "isApprovedForAll",
      "outputs": [
        {
          "name": "",
          "type": "bool"
        }
      ],
      "payable": false,
      "stateMutability": "view",
      "type": "function"
    },
    {
      "constant": false,
      "inputs": [
        {
          "name": "newOwner",
          "type": "address"
        }
      ],
      "name": "transferOwnership",
      "outputs": [],
      "payable": false,
      "stateMutability": "nonpayable",
      "type": "function"
    },
    {
      "inputs": [
        {
          "name": "name",
          "type": "string"
        },
        {
          "name": "symbol",
          "type": "string"
        }
      ],
      "payable": false,
      "stateMutability": "nonpayable",
      "type": "constructor"
    },
    {
      "anonymous": false,
      "inputs": [
        {
          "indexed": true,
          "name": "owner",
          "type": "address"
        },
        {
          "indexed": true,
          "name": "metaID",
          "type": "uint256"
        }
      ],
      "name": "Mint",
      "type": "event"
    },
    {
      "anonymous": false,
      "inputs": [
        {
          "indexed": true,
          "name": "owner",
          "type": "address"
        },
        {
          "indexed": true,
          "name": "metaID",
          "type": "uint256"
        }
      ],
      "name": "Burn",
      "type": "event"
    },
    {
      "anonymous": false,
      "inputs": [
        {
          "indexed": false,
          "name": "addr",
          "type": "address"
        },
        {
          "indexed": false,
          "name": "name",
          "type": "bytes32"
        },
        {
          "indexed": false,
          "name": "go",
          "type": "bool"
        }
      ],
      "name": "Per",
      "type": "event"
    },
    {
      "anonymous": false,
      "inputs": [
        {
          "indexed": true,
          "name": "previousOwner",
          "type": "address"
        },
        {
          "indexed": true,
          "name": "newOwner",
          "type": "address"
        }
      ],
      "name": "OwnershipTransferred",
      "type": "event"
    },
    {
      "anonymous": false,
      "inputs": [
        {
          "indexed": true,
          "name": "_from",
          "type": "address"
        },
        {
          "indexed": true,
          "name": "_to",
          "type": "address"
        },
        {
          "indexed": true,
          "name": "_tokenId",
          "type": "uint256"
        }
      ],
      "name": "Transfer",
      "type": "event"
    },
    {
      "anonymous": false,
      "inputs": [
        {
          "indexed": true,
          "name": "_owner",
          "type": "address"
        },
        {
          "indexed": true,
          "name": "_approved",
          "type": "address"
        },
        {
          "indexed": true,
          "name": "_tokenId",
          "type": "uint256"
        }
      ],
      "name": "Approval",
      "type": "event"
    },
    {
      "anonymous": false,
      "inputs": [
        {
          "indexed": true,
          "name": "_owner",
          "type": "address"
        },
        {
          "indexed": true,
          "name": "_operator",
          "type": "address"
        },
        {
          "indexed": false,
          "name": "_approved",
          "type": "bool"
        }
      ],
      "name": "ApprovalForAll",
      "type": "event"
    },
    {
      "constant": false,
      "inputs": [
        {
          "name": "_to",
          "type": "address"
        },
        {
          "name": "_tokenId",
          "type": "uint256"
        },
        {
          "name": "_uri",
          "type": "string"
        }
      ],
      "name": "mint",
      "outputs": [
        {
          "name": "",
          "type": "bool"
        }
      ],
      "payable": false,
      "stateMutability": "nonpayable",
      "type": "function"
    },
    {
      "constant": false,
      "inputs": [
        {
          "name": "_tokenId",
          "type": "uint256"
        }
      ],
      "name": "burn",
      "outputs": [
        {
          "name": "",
          "type": "bool"
        }
      ],
      "payable": false,
      "stateMutability": "nonpayable",
      "type": "function"
    },
    {
      "constant": false,
      "inputs": [],
      "name": "enableTransfer",
      "outputs": [
        {
          "name": "",
          "type": "bool"
        }
      ],
      "payable": false,
      "stateMutability": "nonpayable",
      "type": "function"
    },
    {
      "constant": false,
      "inputs": [],
      "name": "disableTransfer",
      "outputs": [
        {
          "name": "",
          "type": "bool"
        }
      ],
      "payable": false,
      "stateMutability": "nonpayable",
      "type": "function"
    },
    {
      "constant": true,
      "inputs": [
        {
          "name": "_tokenId",
          "type": "uint256"
        }
      ],
      "name": "tokenURIAsBytes",
      "outputs": [
        {
          "name": "",
          "type": "bytes"
        }
      ],
      "payable": false,
      "stateMutability": "view",
      "type": "function"
    },
    {
      "constant": false,
      "inputs": [
        {
          "name": "_from",
          "type": "address"
        },
        {
          "name": "_to",
          "type": "address"
        },
        {
          "name": "_tokenId",
          "type": "uint256"
        }
      ],
      "name": "transferFrom",
      "outputs": [],
      "payable": false,
      "stateMutability": "nonpayable",
      "type": "function"
    },
    {
      "constant": false,
      "inputs": [
        {
          "name": "_from",
          "type": "address"
        },
        {
          "name": "_to",
          "type": "address"
        },
        {
          "name": "_tokenId",
          "type": "uint256"
        }
      ],
      "name": "safeTransferFrom",
      "outputs": [],
      "payable": false,
      "stateMutability": "nonpayable",
      "type": "function"
    },
    {
      "constant": false,
      "inputs": [
        {
          "name": "_from",
          "type": "address"
        },
        {
          "name": "_to",
          "type": "address"
        },
        {
          "name": "_tokenId",
          "type": "uint256"
        },
        {
          "name": "_data",
          "type": "bytes"
        }
      ],
      "name": "safeTransferFrom",
      "outputs": [],
      "payable": false,
      "stateMutability": "nonpayable",
      "type": "function"
    },
    {
      "constant": false,
      "inputs": [
        {
          "name": "_to",
          "type": "address"
        },
        {
          "name": "_tokenId",
          "type": "uint256"
        }
      ],
      "name": "approve",
      "outputs": [],
      "payable": false,
      "stateMutability": "nonpayable",
      "type": "function"
    },
    {
      "constant": false,
      "inputs": [
        {
          "name": "_operator",
          "type": "address"
        },
        {
          "name": "_approved",
          "type": "bool"
        }
      ],
      "name": "setApprovalForAll",
      "outputs": [],
      "payable": false,
      "stateMutability": "nonpayable",
      "type": "function"
    }
  ],
  "bytecode": "0x6080604052600f805460ff191690553480156200001b57600080fd5b5060405162001c7e38038062001c7e833981016040528051602082015190820191018181620000737f01ffc9a700000000000000000000000000000000000000000000000000000000640100000000620001af810204565b620000a77f80ac58cd00000000000000000000000000000000000000000000000000000000640100000000620001af810204565b620000db7f4f558e7900000000000000000000000000000000000000000000000000000000640100000000620001af810204565b8151620000f09060059060208501906200021c565b508051620001069060069060208401906200021c565b506200013b7f780e9d6300000000000000000000000000000000000000000000000000000000640100000000620001af810204565b6200016f7f5b5e139f00000000000000000000000000000000000000000000000000000000640100000000620001af810204565b5050600c8054600160a060020a0319163317905550507f416368696576656d656e74000000000000000000000000000000000000000000600e55620002c1565b7fffffffff000000000000000000000000000000000000000000000000000000008082161415620001df57600080fd5b7fffffffff00000000000000000000000000000000000000000000000000000000166000908152602081905260409020805460ff19166001179055565b828054600181600116156101000203166002900490600052602060002090601f016020900481019282601f106200025f57805160ff19168380011785556200028f565b828001600101855582156200028f579182015b828111156200028f57825182559160200191906001019062000272565b506200029d929150620002a1565b5090565b620002be91905b808211156200029d5760008155600101620002a8565b90565b6119ad80620002d16000396000f30060806040526004361061017f5763ffffffff7c010000000000000000000000000000000000000000000000000000000060003504166301ffc9a7811461018457806306fdde03146101ba578063081812fc14610244578063095ea7b314610278578063108f96df1461029e57806318160ddd146102b657806319fa8f50146102dd57806323b872dd1461030f5780632f745c5914610339578063393631121461035d5780633f6fd7121461037257806342842e0e1461038757806342966c68146103b15780634cd412d5146103c95780634f558e79146103de5780634f6ccce7146103f65780636352211e1461040e57806364319d0b1461042657806370a082311461043b5780638da5cb5b1461045c57806395d89b4114610471578063a22cb46514610486578063a91ee0dc146104ac578063b187984f146104cd578063b88d4fde146104e2578063c87b56dd1461029e578063d3fc986414610551578063e985e9c5146105ba578063f1b50c1d146105e1578063f2fde38b146105f6575b600080fd5b34801561019057600080fd5b506101a6600160e060020a031960043516610617565b604080519115158252519081900360200190f35b3480156101c657600080fd5b506101cf610636565b6040805160208082528351818301528351919283929083019185019080838360005b838110156102095781810151838201526020016101f1565b50505050905090810190601f1680156102365780820380516001836020036101000a031916815260200191505b509250505060405180910390f35b34801561025057600080fd5b5061025c6004356106cd565b60408051600160a060020a039092168252519081900360200190f35b34801561028457600080fd5b5061029c600160a060020a03600435166024356106e8565b005b3480156102aa57600080fd5b506101cf600435610794565b3480156102c257600080fd5b506102cb610849565b60408051918252519081900360200190f35b3480156102e957600080fd5b506102f261084f565b60408051600160e060020a03199092168252519081900360200190f35b34801561031b57600080fd5b5061029c600160a060020a0360043581169060243516604435610873565b34801561034557600080fd5b506102cb600160a060020a0360043516602435610921565b34801561036957600080fd5b5061025c61096e565b34801561037e57600080fd5b506101a661097d565b34801561039357600080fd5b5061029c600160a060020a0360043581169060243516604435610a07565b3480156103bd57600080fd5b506101a6600435610ab0565b3480156103d557600080fd5b506101a6610b1e565b3480156103ea57600080fd5b506101a6600435610b27565b34801561040257600080fd5b506102cb600435610b44565b34801561041a57600080fd5b5061025c600435610b79565b34801561043257600080fd5b506102cb610ba3565b34801561044757600080fd5b506102cb600160a060020a0360043516610ba9565b34801561046857600080fd5b5061025c610bdc565b34801561047d57600080fd5b506101cf610beb565b34801561049257600080fd5b5061029c600160a060020a03600435166024351515610c4c565b3480156104b857600080fd5b5061029c600160a060020a0360043516610cf4565b3480156104d957600080fd5b506101a6610d3a565b3480156104ee57600080fd5b50604080516020601f60643560048181013592830184900484028501840190955281845261029c94600160a060020a038135811695602480359092169560443595369560849401918190840183828082843750949750610d5f9650505050505050565b34801561055d57600080fd5b50604080516020600460443581810135601f81018490048402850184019095528484526101a6948235600160a060020a0316946024803595369594606494920191908190840183828082843750949750610e0f9650505050505050565b3480156105c657600080fd5b506101a6600160a060020a0360043581169060243516610e78565b3480156105ed57600080fd5b506101a6610ea6565b34801561060257600080fd5b5061029c600160a060020a0360043516610ecf565b600160e060020a03191660009081526020819052604090205460ff1690565b60058054604080516020601f60026000196101006001881615020190951694909404938401819004810282018101909252828152606093909290918301828280156106c25780601f10610697576101008083540402835291602001916106c2565b820191906000526020600020905b8154815290600101906020018083116106a557829003601f168201915b505050505090505b90565b600090815260026020526040902054600160a060020a031690565b600f5460ff168061077b5750600d54600e546040805160e060020a6360d6c7cf028152600481019290925233602483015251600160a060020a03909216916360d6c7cf916044808201926020929091908290030181600087803b15801561074e57600080fd5b505af1158015610762573d6000803e3d6000fd5b505050506040513d602081101561077857600080fd5b50515b151561078657600080fd5b6107908282610f64565b5050565b606061079f82610b27565b15156107aa57600080fd5b6000828152600b602090815260409182902080548351601f60026000196101006001861615020190931692909204918201849004840281018401909452808452909183018282801561083d5780601f106108125761010080835404028352916020019161083d565b820191906000526020600020905b81548152906001019060200180831161082057829003601f168201915b50505050509050919050565b60095490565b7f01ffc9a70000000000000000000000000000000000000000000000000000000081565b600f5460ff16806109065750600d54600e546040805160e060020a6360d6c7cf028152600481019290925233602483015251600160a060020a03909216916360d6c7cf916044808201926020929091908290030181600087803b1580156108d957600080fd5b505af11580156108ed573d6000803e3d6000fd5b505050506040513d602081101561090357600080fd5b50515b151561091157600080fd5b61091c83838361101a565b505050565b600061092c83610ba9565b821061093757600080fd5b600160a060020a038316600090815260076020526040902080548390811061095b57fe5b9060005260206000200154905092915050565b600d54600160a060020a031681565b600d54600e546040805160e060020a6360d6c7cf028152600481019290925233602483015251600092600160a060020a0316916360d6c7cf91604480830192602092919082900301818787803b1580156109d657600080fd5b505af11580156109ea573d6000803e3d6000fd5b505050506040513d6020811015610a0057600080fd5b5051905090565b600f5460ff1680610a9a5750600d54600e546040805160e060020a6360d6c7cf028152600481019290925233602483015251600160a060020a03909216916360d6c7cf916044808201926020929091908290030181600087803b158015610a6d57600080fd5b505af1158015610a81573d6000803e3d6000fd5b505050506040513d6020811015610a9757600080fd5b50515b1515610aa557600080fd5b61091c8383836110bd565b6000610aba61097d565b1515610ac557600080fd5b610ad7610ad183610b79565b836110d9565b81610ae183610b79565b600160a060020a03167fcc16f5dbb4873280815c1ee09dbd06736cffcc184412cf7a71a0fdb75d397ca560405160405180910390a3506001919050565b600f5460ff1681565b600090815260016020526040902054600160a060020a0316151590565b6000610b4e610849565b8210610b5957600080fd5b6009805483908110610b6757fe5b90600052602060002001549050919050565b600081815260016020526040812054600160a060020a0316801515610b9d57600080fd5b92915050565b600e5481565b6000600160a060020a0382161515610bc057600080fd5b50600160a060020a031660009081526003602052604090205490565b600c54600160a060020a031681565b60068054604080516020601f60026000196101006001881615020190951694909404938401819004810282018101909252828152606093909290918301828280156106c25780601f10610697576101008083540402835291602001916106c2565b600f5460ff1680610cdf5750600d54600e546040805160e060020a6360d6c7cf028152600481019290925233602483015251600160a060020a03909216916360d6c7cf916044808201926020929091908290030181600087803b158015610cb257600080fd5b505af1158015610cc6573d6000803e3d6000fd5b505050506040513d6020811015610cdc57600080fd5b50515b1515610cea57600080fd5b61079082826111d3565b600c54600160a060020a03163314610d0b57600080fd5b600d805473ffffffffffffffffffffffffffffffffffffffff1916600160a060020a0392909216919091179055565b6000610d4461097d565b1515610d4f57600080fd5b50600f805460ff19169055600190565b600f5460ff1680610df25750600d54600e546040805160e060020a6360d6c7cf028152600481019290925233602483015251600160a060020a03909216916360d6c7cf916044808201926020929091908290030181600087803b158015610dc557600080fd5b505af1158015610dd9573d6000803e3d6000fd5b505050506040513d6020811015610def57600080fd5b50515b1515610dfd57600080fd5b610e0984848484611257565b50505050565b6000610e1961097d565b1515610e2457600080fd5b610e2e8484611279565b610e3883836112c8565b6040518390600160a060020a038616907f0f6798a560793a54c3bcfe86a93cde1e73087d944c0ea20544137d412139688590600090a35060019392505050565b600160a060020a03918216600090815260046020908152604080832093909416825291909152205460ff1690565b6000610eb061097d565b1515610ebb57600080fd5b50600f805460ff1916600190811790915590565b600c54600160a060020a03163314610ee657600080fd5b600160a060020a0381161515610efb57600080fd5b600c54604051600160a060020a038084169216907f8be0079c531659141344cd1fd0a4f28419497f9722a3daafe3b4186f6b6457e090600090a3600c805473ffffffffffffffffffffffffffffffffffffffff1916600160a060020a0392909216919091179055565b6000610f6f82610b79565b9050600160a060020a038381169082161415610f8a57600080fd5b33600160a060020a0382161480610fa65750610fa68133610e78565b1515610fb157600080fd5b600082815260026020526040808220805473ffffffffffffffffffffffffffffffffffffffff1916600160a060020a0387811691821790925591518593918516917f8c5be1e5ebec7d5bd14f71427d1e84f3dd0314c0f7b2291e5b200ac8c7c3b92591a4505050565b61102433826112fb565b151561102f57600080fd5b600160a060020a038316151561104457600080fd5b600160a060020a038216151561105957600080fd5b611063838261135a565b61106d83826113c9565b61107782826114d0565b8082600160a060020a031684600160a060020a03167fddf252ad1be2c89b69c2b068fc378daa952ba7f163c4a11628f55a4df523b3ef60405160405180910390a4505050565b61091c8383836020604051908101604052806000815250610d5f565b60008060006110e88585611519565b6000848152600b60205260409020546002600019610100600184161502019091160415611126576000848152600b602052604081206111269161187e565b6000848152600a602052604090205460095490935061114c90600163ffffffff61156916565b915060098281548110151561115d57fe5b906000526020600020015490508060098481548110151561117a57fe5b6000918252602082200191909155600980548490811061119657fe5b60009182526020909120015560098054906111b59060001983016118c5565b506000938452600a6020526040808520859055908452909220555050565b600160a060020a0382163314156111e957600080fd5b336000818152600460209081526040808320600160a060020a03871680855290835292819020805460ff1916861515908117909155815190815290519293927f17307eab39ab6107e8899845ad3d59bd9653f200f220920489ca2b5937696c31929181900390910190a35050565b611262848484610873565b61126e8484848461157b565b1515610e0957600080fd5b61128382826116e8565b600980546000838152600a60205260408120829055600182018355919091527f6e1540171b6c0c960b71a7020d9f60077f6af931a8bbf590da0223dacf75c7af015550565b6112d182610b27565b15156112dc57600080fd5b6000828152600b60209081526040909120825161091c928401906118e9565b60008061130783610b79565b905080600160a060020a031684600160a060020a03161480611342575083600160a060020a0316611337846106cd565b600160a060020a0316145b8061135257506113528185610e78565b949350505050565b81600160a060020a031661136d82610b79565b600160a060020a03161461138057600080fd5b600081815260026020526040902054600160a060020a031615610790576000908152600260205260409020805473ffffffffffffffffffffffffffffffffffffffff1916905550565b60008060006113d88585611743565b600084815260086020908152604080832054600160a060020a038916845260079092529091205490935061141390600163ffffffff61156916565b600160a060020a03861660009081526007602052604090208054919350908390811061143b57fe5b90600052602060002001549050806007600087600160a060020a0316600160a060020a031681526020019081526020016000208481548110151561147b57fe5b6000918252602080832090910192909255600160a060020a03871681526007909152604090208054906114b29060001983016118c5565b50600093845260086020526040808520859055908452909220555050565b60006114dc83836117d9565b50600160a060020a039091166000908152600760209081526040808320805460018101825590845282842081018590559383526008909152902055565b611523828261135a565b61152d82826113c9565b6040518190600090600160a060020a038516907fddf252ad1be2c89b69c2b068fc378daa952ba7f163c4a11628f55a4df523b3ef908390a45050565b60008282111561157557fe5b50900390565b60008061159085600160a060020a0316611869565b151561159f57600191506116df565b6040517f150b7a020000000000000000000000000000000000000000000000000000000081523360048201818152600160a060020a03898116602485015260448401889052608060648501908152875160848601528751918a169463150b7a0294938c938b938b93909160a490910190602085019080838360005b8381101561163257818101518382015260200161161a565b50505050905090810190601f16801561165f5780820380516001836020036101000a031916815260200191505b5095505050505050602060405180830381600087803b15801561168157600080fd5b505af1158015611695573d6000803e3d6000fd5b505050506040513d60208110156116ab57600080fd5b5051600160e060020a031981167f150b7a020000000000000000000000000000000000000000000000000000000014925090505b50949350505050565b600160a060020a03821615156116fd57600080fd5b61170782826114d0565b6040518190600160a060020a038416906000907fddf252ad1be2c89b69c2b068fc378daa952ba7f163c4a11628f55a4df523b3ef908290a45050565b81600160a060020a031661175682610b79565b600160a060020a03161461176957600080fd5b600160a060020a03821660009081526003602052604090205461179390600163ffffffff61156916565b600160a060020a03909216600090815260036020908152604080832094909455918152600190915220805473ffffffffffffffffffffffffffffffffffffffff19169055565b600081815260016020526040902054600160a060020a0316156117fb57600080fd5b6000818152600160208181526040808420805473ffffffffffffffffffffffffffffffffffffffff1916600160a060020a038816908117909155845260039091529091205461184991611871565b600160a060020a0390921660009081526003602052604090209190915550565b6000903b1190565b81810182811015610b9d57fe5b50805460018160011615610100020316600290046000825580601f106118a457506118c2565b601f0160209004906000526020600020908101906118c29190611967565b50565b81548183558181111561091c5760008381526020902061091c918101908301611967565b828054600181600116156101000203166002900490600052602060002090601f016020900481019282601f1061192a57805160ff1916838001178555611957565b82800160010185558215611957579182015b8281111561195757825182559160200191906001019061193c565b50611963929150611967565b5090565b6106ca91905b80821115611963576000815560010161196d5600a165627a7a72305820e50d14cc88b91b01722b46c20018be7fce19e85385948c376147cd2f46bdef7c0029",
  "source": "pragma solidity ^0.4.24;\n\nimport \"../openzeppelin-solidity/contracts/token/ERC721/ERC721Token.sol\";\nimport \"../openzeppelin-solidity/contracts/ownership/Ownable.sol\";\nimport \"../RegistryUser.sol\";\n\n/**\n * @title MetaID\n * This provides a public mint and burn functions for testing purposes,\n * and a public setter for metadata URI\n */\ncontract Achievement is ERC721Token, RegistryUser {\n    event Mint(address indexed owner, uint256 indexed metaID);\n    event Burn(address indexed owner, uint256 indexed metaID);\n    \n    bool public transferEnabled = false;\n\n    modifier isTradable() {\n        require(transferEnabled || REG.getPermission(THIS_NAME, msg.sender));\n        _;\n    }\n    function Achievement(string name, string symbol) public ERC721Token(name, symbol){\n        THIS_NAME = \"Achievement\";\n    }\n\n    /**\n     * @dev Function to mint ERC721 Token.\n     * @param _to The address that will receive the minted tokens.\n     * @param _tokenId the token index of newly minted token.\n     * @param _uri the metaID that the newly minted token would get.\n     * @return A boolean that indicates if the operation was successful.\n     */\n    function mint(address _to, uint256 _tokenId, string _uri) permissioned public returns (bool) {\n        super._mint(_to, _tokenId);\n        super._setTokenURI(_tokenId, _uri);\n        emit Mint(_to, _tokenId);\n        return true;\n    }\n\n    /**\n     * @dev Function to burn ERC721 Token.\n     * @param _tokenId the token index of burning token.\n     * @return A boolean that indicates if the operation was successful.\n     */\n    function burn(uint256 _tokenId) permissioned public returns (bool){\n        super._burn(ownerOf(_tokenId), _tokenId);\n        emit Burn(ownerOf(_tokenId), _tokenId);\n        return true;\n    }\n\n    function enableTransfer() permissioned public returns (bool) {\n        transferEnabled = true;\n        return true;\n    }\n\n    function disableTransfer() permissioned public returns (bool) {\n        transferEnabled = false;\n        return true;\n    }\n    /**\n     * @dev Returns an URI as bytes for a given token ID\n     * @dev Throws if the token ID does not exist. May return an empty string.\n     * @param _tokenId uint256 ID of the token to query\n     */\n    function tokenURIAsBytes(uint256 _tokenId) public view returns (bytes) {\n        require(exists(_tokenId));\n        return bytes(tokenURIs[_tokenId]);\n    }\n\n    function transferFrom(address _from, address _to, uint256 _tokenId) isTradable public {\n        super.transferFrom(_from, _to, _tokenId);\n    }\n\n    function safeTransferFrom(address _from, address _to, uint256 _tokenId) isTradable public {\n        super.safeTransferFrom(_from, _to, _tokenId);\n    }\n\n    function safeTransferFrom(address _from, address _to, uint256 _tokenId, bytes _data) isTradable public {\n        super.safeTransferFrom(_from, _to, _tokenId, _data);\n    }\n    \n\n    function approve(address _to, uint256 _tokenId) isTradable public{\n        super.approve(_to, _tokenId);\n    }\n\n    function setApprovalForAll(address _operator, bool _approved) isTradable public {\n        super.setApprovalForAll(_operator, _approved);\n    }\n}\n",
  "sourcePath": "/Users/coinplug/BangGijin/metabolics2.0/contracts/property/Achievement.sol",
  "compiler": {
    "name": "solc",
    "version": "0.4.24+commit.e67f0147.Emscripten.clang"
  },
  "schemaVersion": "2.0.1",
  "updatedAt": "2018-10-10T08:44:25.106Z"
}