{
  "contractName": "AchievementManager",
  "abi": [
    {
      "constant": true,
      "inputs": [],
      "name": "REG",
      "outputs": [
        {
          "name": "",
          "type": "address"
        }
      ],
      "payable": false,
      "stateMutability": "view",
      "type": "function"
    },
    {
      "constant": false,
      "inputs": [],
      "name": "isPermitted",
      "outputs": [
        {
          "name": "",
          "type": "bool"
        }
      ],
      "payable": false,
      "stateMutability": "nonpayable",
      "type": "function"
    },
    {
      "constant": true,
      "inputs": [],
      "name": "minimumDeposit",
      "outputs": [
        {
          "name": "",
          "type": "uint256"
        }
      ],
      "payable": false,
      "stateMutability": "view",
      "type": "function"
    },
    {
      "constant": true,
      "inputs": [],
      "name": "THIS_NAME",
      "outputs": [
        {
          "name": "",
          "type": "bytes32"
        }
      ],
      "payable": false,
      "stateMutability": "view",
      "type": "function"
    },
    {
      "constant": true,
      "inputs": [
        {
          "name": "",
          "type": "bytes32"
        }
      ],
      "name": "achievements",
      "outputs": [
        {
          "name": "id",
          "type": "bytes32"
        },
        {
          "name": "creator",
          "type": "address"
        },
        {
          "name": "explanation",
          "type": "bytes32"
        },
        {
          "name": "reward",
          "type": "uint256"
        },
        {
          "name": "uri",
          "type": "string"
        }
      ],
      "payable": false,
      "stateMutability": "view",
      "type": "function"
    },
    {
      "constant": true,
      "inputs": [
        {
          "name": "",
          "type": "uint256"
        }
      ],
      "name": "allAchievements",
      "outputs": [
        {
          "name": "",
          "type": "bytes32"
        }
      ],
      "payable": false,
      "stateMutability": "view",
      "type": "function"
    },
    {
      "constant": true,
      "inputs": [
        {
          "name": "",
          "type": "bytes32"
        }
      ],
      "name": "balance",
      "outputs": [
        {
          "name": "",
          "type": "uint256"
        }
      ],
      "payable": false,
      "stateMutability": "view",
      "type": "function"
    },
    {
      "constant": true,
      "inputs": [],
      "name": "owner",
      "outputs": [
        {
          "name": "",
          "type": "address"
        }
      ],
      "payable": false,
      "stateMutability": "view",
      "type": "function"
    },
    {
      "constant": false,
      "inputs": [
        {
          "name": "_addr",
          "type": "address"
        }
      ],
      "name": "setRegistry",
      "outputs": [],
      "payable": false,
      "stateMutability": "nonpayable",
      "type": "function"
    },
    {
      "constant": false,
      "inputs": [
        {
          "name": "newOwner",
          "type": "address"
        }
      ],
      "name": "transferOwnership",
      "outputs": [],
      "payable": false,
      "stateMutability": "nonpayable",
      "type": "function"
    },
    {
      "inputs": [],
      "payable": false,
      "stateMutability": "nonpayable",
      "type": "constructor"
    },
    {
      "anonymous": false,
      "inputs": [
        {
          "indexed": false,
          "name": "addr",
          "type": "address"
        },
        {
          "indexed": false,
          "name": "name",
          "type": "bytes32"
        },
        {
          "indexed": false,
          "name": "go",
          "type": "bool"
        }
      ],
      "name": "Per",
      "type": "event"
    },
    {
      "anonymous": false,
      "inputs": [
        {
          "indexed": true,
          "name": "previousOwner",
          "type": "address"
        },
        {
          "indexed": true,
          "name": "newOwner",
          "type": "address"
        }
      ],
      "name": "OwnershipTransferred",
      "type": "event"
    },
    {
      "constant": false,
      "inputs": [
        {
          "name": "topics",
          "type": "uint256[]"
        },
        {
          "name": "issuers",
          "type": "address[]"
        },
        {
          "name": "topicExplanations",
          "type": "bytes32[]"
        },
        {
          "name": "achievementExplanation",
          "type": "bytes32"
        },
        {
          "name": "reward",
          "type": "uint256"
        },
        {
          "name": "uri",
          "type": "string"
        }
      ],
      "name": "createAchievement",
      "outputs": [
        {
          "name": "",
          "type": "bool"
        }
      ],
      "payable": true,
      "stateMutability": "payable",
      "type": "function"
    },
    {
      "constant": false,
      "inputs": [
        {
          "name": "achievementId",
          "type": "bytes32"
        },
        {
          "name": "topics",
          "type": "uint256[]"
        },
        {
          "name": "topicExplanations",
          "type": "bytes32[]"
        },
        {
          "name": "achievementExplanation",
          "type": "bytes32"
        },
        {
          "name": "reward",
          "type": "uint256"
        },
        {
          "name": "ipfs",
          "type": "string"
        }
      ],
      "name": "updateAchievement",
      "outputs": [
        {
          "name": "",
          "type": "bool"
        }
      ],
      "payable": true,
      "stateMutability": "payable",
      "type": "function"
    },
    {
      "constant": false,
      "inputs": [
        {
          "name": "achievementId",
          "type": "bytes32"
        }
      ],
      "name": "deleteAchievement",
      "outputs": [
        {
          "name": "",
          "type": "bool"
        }
      ],
      "payable": false,
      "stateMutability": "nonpayable",
      "type": "function"
    },
    {
      "constant": false,
      "inputs": [
        {
          "name": "achievementId",
          "type": "bytes32"
        }
      ],
      "name": "requestAchievement",
      "outputs": [
        {
          "name": "",
          "type": "bool"
        }
      ],
      "payable": false,
      "stateMutability": "nonpayable",
      "type": "function"
    },
    {
      "constant": true,
      "inputs": [],
      "name": "getAllAchievementList",
      "outputs": [
        {
          "name": "",
          "type": "bytes32[]"
        }
      ],
      "payable": false,
      "stateMutability": "view",
      "type": "function"
    },
    {
      "constant": true,
      "inputs": [],
      "name": "getActiveAchievementList",
      "outputs": [
        {
          "name": "",
          "type": "bytes32[]"
        }
      ],
      "payable": false,
      "stateMutability": "view",
      "type": "function"
    },
    {
      "constant": true,
      "inputs": [
        {
          "name": "creator",
          "type": "address"
        },
        {
          "name": "topics",
          "type": "uint256[]"
        },
        {
          "name": "issuers",
          "type": "address[]"
        }
      ],
      "name": "getAchievementId",
      "outputs": [
        {
          "name": "",
          "type": "bytes32"
        }
      ],
      "payable": false,
      "stateMutability": "pure",
      "type": "function"
    }
  ],
  "bytecode": "0x6080604052670de0b6b3a764000060035534801561001c57600080fd5b5060008054600160a060020a031916331790557f416368696576656d656e744d616e616765720000000000000000000000000000600255611901806100626000396000f3006080604052600436106100d75763ffffffff60e060020a60003504166322a3ecb781146100dc5780632f1b9f141461014157806339363112146101565780633f6fd712146101875780636061fa53146101b0578063636bfbab1461028157806364319d0b146102a85780636b03af84146102bd57806374f0ce4514610379578063857ab0751461039157806389eba4211461042d5780638da5cb5b1461044557806397e9ccdb1461045a5780639cb4da081461055f578063a64a3da314610577578063a91ee0dc1461058f578063f2fde38b146105b2575b600080fd5b3480156100e857600080fd5b506100f16105d3565b60408051602080825283518183015283519192839290830191858101910280838360005b8381101561012d578181015183820152602001610115565b505050509050019250505060405180910390f35b34801561014d57600080fd5b506100f161062d565b34801561016257600080fd5b5061016b610632565b60408051600160a060020a039092168252519081900360200190f35b34801561019357600080fd5b5061019c610641565b604080519115158252519081900360200190f35b60408051602060046024803582810135848102808701860190975280865261019c96843596369660449591949091019291829185019084908082843750506040805187358901803560208181028481018201909552818452989b9a99890198929750908201955093508392508501908490808284375050604080516020888301358a018035601f8101839004830284018301909452838352979a89359a8a8301359a919990985060609091019650919450908101925081908401838280828437509497506106e19650505050505050565b34801561028d57600080fd5b506102966106ed565b60408051918252519081900360200190f35b3480156102b457600080fd5b506102966106f3565b3480156102c957600080fd5b506102d56004356106f9565b60408051868152600160a060020a0386166020808301919091529181018590526060810184905260a06080820181815284519183019190915283519192909160c084019185019080838360005b8381101561033a578181015183820152602001610322565b50505050905090810190601f1680156103675780820380516001836020036101000a031916815260200191505b50965050505050505060405180910390f35b34801561038557600080fd5b506102966004356107bf565b34801561039d57600080fd5b50604080516020600460248035828101358481028087018601909752808652610296968435600160a060020a031696369660449591949091019291829185019084908082843750506040805187358901803560208181028481018201909552818452989b9a9989019892975090820195509350839250850190849080828437509497506107de9650505050505050565b34801561043957600080fd5b506102966004356109be565b34801561045157600080fd5b5061016b6109d0565b6040805160206004803580820135838102808601850190965280855261019c95369593946024949385019291829185019084908082843750506040805187358901803560208181028481018201909552818452989b9a998901989297509082019550935083925085019084908082843750506040805187358901803560208181028481018201909552818452989b9a99890198929750908201955093508392508501908490808284375050604080516020888301358a018035601f8101839004830284018301909452838352979a89359a8a8301359a919990985060609091019650919450908101925081908401838280828437509497506109df9650505050505050565b34801561056b57600080fd5b5061019c600435610e74565b34801561058357600080fd5b5061019c600435610e7a565b34801561059b57600080fd5b506105b0600160a060020a036004351661163d565b005b3480156105be57600080fd5b506105b0600160a060020a0360043516611683565b6060600680548060200260200160405190810160405280929190818152602001828054801561062257602002820191906000526020600020905b8154815260019091019060200180831161060d575b505050505090505b90565b606090565b600154600160a060020a031681565b600154600254604080517f60d6c7cf000000000000000000000000000000000000000000000000000000008152600481019290925233602483015251600092600160a060020a0316916360d6c7cf91604480830192602092919082900301818787803b1580156106b057600080fd5b505af11580156106c4573d6000803e3d6000fd5b505050506040513d60208110156106da57600080fd5b5051905090565b60009695505050505050565b60035481565b60025481565b60046020818152600092835260409283902080546001808301549483015460058401546006850180548951600261010096831615969096026000190190911694909404601f81018890048802850188019099528884529397600160a060020a0390971696919590949391908301828280156107b55780601f1061078a576101008083540402835291602001916107b5565b820191906000526020600020905b81548152906001019060200180831161079857829003601f168201915b5050505050905085565b60068054829081106107cd57fe5b600091825260209091200154905081565b600060606000835185511415156107f457600080fd5b81866040516020018083805190602001908083835b602083106108285780518252601f199092019160209182019101610809565b6001836020036101000a03801982511681845116808217855250505050505090500182600160a060020a0316600160a060020a03166c01000000000000000000000000028152601401925050506040516020818303038152906040529150600090505b8451811015610958578185828151811015156108a357fe5b9060200190602002015185838151811015156108bb57fe5b906020019060200201516040516020018084805190602001908083835b602083106108f75780518252601f1990920191602091820191016108d8565b51815160209384036101000a6000190180199092169116179052920194855250600160a060020a03929092166c010000000000000000000000000291830191909152506040805160148184030181526034909201905292505060010161088b565b816040518082805190602001908083835b602083106109885780518252601f199092019160209182019101610969565b5181516020939093036101000a600019018019909116921691909117905260405192018290039091209998505050505050505050565b60056020526000908152604090205481565b600054600160a060020a031681565b60008060008060008060006109f2611729565b6109fd338f8f6107de565b60008181526004602052604090205490975015610a1957600080fd5b600354341015610a2857600080fd5b600154604080517f0d2020dd0000000000000000000000000000000000000000000000000000000081527f546f70696352656769737472790000000000000000000000000000000000000060048201529051600160a060020a0390921691630d2020dd916024808201926020929091908290030181600087803b158015610aae57600080fd5b505af1158015610ac2573d6000803e3d6000fd5b505050506040513d6020811015610ad857600080fd5b50519550600094505b8d51851015610cec5785600160a060020a031663716588968f87815181101515610b0757fe5b906020019060200201516040518263ffffffff1660e060020a028152600401808281526020019150506040805180830381600087803b158015610b4957600080fd5b505af1158015610b5d573d6000803e3d6000fd5b505050506040513d6040811015610b7357600080fd5b5080516020909101519093509150600160a060020a0383161515610c5c5785600160a060020a031663c8d1d23e8f87815181101515610bae57fe5b90602001906020020151338f89815181101515610bc757fe5b60209081029091018101516040805160e060020a63ffffffff88160281526004810195909552600160a060020a039093166024850152604484015290516064808401938290030181600087803b158015610c2057600080fd5b505af1158015610c34573d6000803e3d6000fd5b505050506040513d6020811015610c4a57600080fd5b50511515610c5757600080fd5b610ce1565b8b85815181101515610c6a57fe5b602090810290910101518214610ce157604080517f08c379a000000000000000000000000000000000000000000000000000000000815260206004820152601a60248201527f546f706963206578706c616e6174696f6e204d69736d61746368000000000000604482015290519081900360640190fd5b600190940193610ae1565b8681600001906000191690816000191681525050338160200190600160a060020a03169081600160a060020a0316815250508c81604001819052508d81606001819052508a81608001906000191690816000191681525050888160c00181905250898160a001818152505080600460008360000151600019166000191681526020019081526020016000206000820151816000019060001916905560208201518160010160006101000a815481600160a060020a030219169083600160a060020a031602179055506040820151816002019080519060200190610dd0929190611764565b5060608201518051610dec9160038401916020909101906117d6565b506080820151600482015560a0820151600582015560c08201518051610e1c91600684019160209091019061181d565b50506006805460018181019092557ff652222313e28459528d920b65115c16c04f3efc82aaedc97be59f3f377c0d3f018990556000898152600560205260409020349055985050505050505050509695505050505050565b50600090565b600154604080517f0d2020dd0000000000000000000000000000000000000000000000000000000081527f4964656e746974794d616e61676572000000000000000000000000000000000060048201529051600092839283928392839283928392600160a060020a031691630d2020dd91602480830192602092919082900301818787803b158015610f0b57600080fd5b505af1158015610f1f573d6000803e3d6000fd5b505050506040513d6020811015610f3557600080fd5b5051604080517f12459b000000000000000000000000000000000000000000000000000000000081523360048201529051919750600160a060020a038816916312459b00916024808201926020929091908290030181600087803b158015610f9c57600080fd5b505af1158015610fb0573d6000803e3d6000fd5b505050506040513d6020811015610fc657600080fd5b5051151561105b57604080517f08c379a000000000000000000000000000000000000000000000000000000000815260206004820152603560248201527f6d73672e73656e646572206973206e6f74206964656e7469747920637265617460448201527f6564206279204964656e746974794d616e616765720000000000000000000000606482015290519081900360840190fd5b339350600094505b60008881526004602052604090206003015485101561133757600088815260046020526040902060020180548690811061109957fe5b60009182526020808320909101548a8352600490915260409091206003018054600160a060020a0390921691879081106110cf57fe5b90600052602060002001546040516020018083600160a060020a0316600160a060020a03166c01000000000000000000000000028152601401828152602001925050506040516020818303038152906040526040518082805190602001908083835b602083106111505780518252601f199092019160209182019101611131565b5181516020939093036101000a6000190180199091169216919091179052604080519190930181900381207fc9100bcb000000000000000000000000000000000000000000000000000000008252600482018190529251929650600160a060020a038916945063c9100bcb9350602480820193600093509182900301818387803b1580156111dd57600080fd5b505af11580156111f1573d6000803e3d6000fd5b505050506040513d6000823e601f3d908101601f1916820160405260c081101561121a57600080fd5b815160208301516040840151606085018051939592949193918301929164010000000081111561124957600080fd5b8201602081018481111561125c57600080fd5b815164010000000081118282018710171561127657600080fd5b5050929190602001805164010000000081111561129257600080fd5b820160208101848111156112a557600080fd5b81516401000000008111828201871017156112bf57600080fd5b505092919060200180516401000000008111156112db57600080fd5b820160208101848111156112ee57600080fd5b815164010000000081118282018710171561130857600080fd5b50969b50505050600160a060020a0389161515955061132c94505050505057600080fd5b600190940193611063565b6000888152600460209081526040808320600590810154925290912054101561135f57600080fd5b600088815260046020908152604080832060059081015492529091205461138b9163ffffffff61171716565b6000898152600560208181526040808420949094556004905282822001549151339280156108fc0292909190818181858888f193505050501580156113d4573d6000803e3d6000fd5b50600154604080517f0d2020dd0000000000000000000000000000000000000000000000000000000081527f416368696576656d656e7400000000000000000000000000000000000000000060048201529051600160a060020a0390921691630d2020dd916024808201926020929091908290030181600087803b15801561145b57600080fd5b505af115801561146f573d6000803e3d6000fd5b505050506040513d602081101561148557600080fd5b505160408051336c01000000000000000000000000810260208084019190915260348084018e9052845180850390910181526054909301938490528251949550600160a060020a0386169463d3fc986494929392918291908401908083835b602083106115035780518252601f1990920191602091820191016114e4565b51815160209384036101000a60001901801990921691161790526040805192909401829003822042838301528451808403830181528386019586905263ffffffff8a1660e060020a02909552600160a060020a0388166044840190815260648401829052606060848501908152865160a4860152865192985095965094935060c4909201919085019080838360005b838110156115aa578181015183820152602001611592565b50505050905090810190601f1680156115d75780820380516001836020036101000a031916815260200191505b50945050505050602060405180830381600087803b1580156115f857600080fd5b505af115801561160c573d6000803e3d6000fd5b505050506040513d602081101561162257600080fd5b5051151561162f57600080fd5b506001979650505050505050565b600054600160a060020a0316331461165457600080fd5b6001805473ffffffffffffffffffffffffffffffffffffffff1916600160a060020a0392909216919091179055565b600054600160a060020a0316331461169a57600080fd5b600160a060020a03811615156116af57600080fd5b60008054604051600160a060020a03808516939216917f8be0079c531659141344cd1fd0a4f28419497f9722a3daafe3b4186f6b6457e091a36000805473ffffffffffffffffffffffffffffffffffffffff1916600160a060020a0392909216919091179055565b60008282111561172357fe5b50900390565b6040805160e08101825260008082526020820181905260609282018390528282018390526080820181905260a082015260c081019190915290565b8280548282559060005260206000209081019282156117c6579160200282015b828111156117c6578251825473ffffffffffffffffffffffffffffffffffffffff1916600160a060020a03909116178255602090920191600190910190611784565b506117d292915061188a565b5090565b828054828255906000526020600020908101928215611811579160200282015b828111156118115782518255916020019190600101906117f6565b506117d29291506118bb565b828054600181600116156101000203166002900490600052602060002090601f016020900481019282601f1061185e57805160ff1916838001178555611811565b8280016001018555821561181157918201828111156118115782518255916020019190600101906117f6565b61062a91905b808211156117d257805473ffffffffffffffffffffffffffffffffffffffff19168155600101611890565b61062a91905b808211156117d257600081556001016118c15600a165627a7a72305820922751a3aee378f332eeb2ecf78a4d7f3daf7f56095f75fd0b109988791330d80029",
  "source": "pragma solidity ^0.4.24;\n\nimport \"../openzeppelin-solidity/contracts/math/SafeMath.sol\";\nimport \"../identity/ERC735.sol\";\nimport \"../RegistryUser.sol\";\nimport \"../registry/TopicRegistry.sol\";\nimport \"../interface/IAchievement.sol\";\nimport \"../interface/IIdentityManager.sol\";\n\n\n/**\n * @title AchievementManager\n * @dev AchievementManager Contract used to manage achievement system in metadium\n * The permissinoed participant can CRUD the achievement.\n */\ncontract AchievementManager is RegistryUser {\n    using SafeMath for uint256;\n\n    uint256 public minimumDeposit = 1 * 10 ** 18;\n\n    mapping(bytes32 => Achievement) public achievements; // achievementId => achievement\n    mapping(bytes32 => uint256) public balance; // achievementId => balance\n\n    bytes32[] public allAchievements;\n\n    struct Achievement {\n        bytes32 id;\n        address creator;\n        address[] issuers;\n        uint256[] claimTopics;\n        bytes32 explanation;\n        uint256 reward;\n        string uri;\n    }\n\n    function AchievementManager() public {\n        THIS_NAME = \"AchievementManager\";\n    }\n\n    function createAchievement(uint256[] topics, address[] issuers, bytes32[] topicExplanations, bytes32 achievementExplanation, uint256 reward, string uri) public payable returns (bool) {\n        \n        //check if achievement is already registered\n        bytes32 achievementId = getAchievementId(msg.sender, topics, issuers);\n        require(achievements[achievementId].id == 0);\n\n        //check staking amount used for reward\n        require(msg.value >= minimumDeposit);\n        TopicRegistry topicRegistry = TopicRegistry(REG.getContractAddress(\"TopicRegistry\"));\n\n        //check topics. Register topics if not exist on the topic registry\n        //revert if topic and explanation do not match on the topic registry\n        for(uint256 i=0;i<topics.length;i++) {\n            \n            bytes32 _id;\n            address _issuer;\n            bytes32 _explanation;\n            (_issuer, _explanation) = topicRegistry.getTopic(topics[i]);\n\n            if(_issuer == address(0)) {\n                //if topic is not registered, register topic\n                //require(topicRegistry.registerTopic(topics[i], issuers[i], topicExplanations[i]), 'New Topic cannot be registered');\n                require(topicRegistry.registerTopic(topics[i], msg.sender, topicExplanations[i]));\n\n            } else {\n\n                //if topic is not registered, check the topic and explanation\n                // require(_issuer == issuers[i], 'Topic issuer Mismatch');\n                require(_explanation == topicExplanations[i], 'Topic explanation Mismatch');\n                \n            }\n        }\n        \n        Achievement memory newAc;\n        newAc.id = achievementId;\n        newAc.creator = msg.sender;\n        newAc.issuers = issuers;\n        newAc.claimTopics = topics;\n        newAc.explanation = achievementExplanation;\n        newAc.uri = uri;\n        newAc.reward = reward;\n\n        achievements[newAc.id] = newAc;\n        allAchievements.push(achievementId);\n        balance[achievementId] = msg.value;\n\n        return true;\n    }\n   \n    function updateAchievement(bytes32 achievementId, uint256[] topics, bytes32[] topicExplanations, bytes32 achievementExplanation, uint256 reward, string ipfs) public payable returns (bool) {\n    }\n   \n    function deleteAchievement(bytes32 achievementId) public returns (bool) {\n\n    }\n   \n    function requestAchievement(bytes32 achievementId) public returns (bool) {\n        // check whether msg.sender is deployed using IdentityManager\n        IIdentityManager im = IIdentityManager(REG.getContractAddress(\"IdentityManager\"));\n        require(im.isMetaId(msg.sender), 'msg.sender is not identity created by IdentityManager');\n        \n        uint256 i;\n        ERC735 identity = ERC735(msg.sender);\n        // // check if sender has enough claims\n        for(i=0;i<achievements[achievementId].claimTopics.length;i++) {\n            address issuer;\n            // claimId is made by topic and issuer.\n            bytes32 claimId = keccak256(abi.encodePacked(achievements[achievementId].issuers[i], achievements[achievementId].claimTopics[i]));\n            (, , issuer, , , ) = identity.getClaim(claimId); // getClaim returns (topic, scheme, issuer, signature, data, uri)\n\n            require(issuer != address(0));\n\n        }\n        \n        // give reward to msg.sender(identity contract)\n        require(balance[achievementId] >= achievements[achievementId].reward);\n        balance[achievementId] = balance[achievementId].sub(achievements[achievementId].reward);\n        msg.sender.transfer(achievements[achievementId].reward);\n\n        // mint achievement erc721 to msg.sender;\n        IAchievement achievement = IAchievement(REG.getContractAddress(\"Achievement\"));\n        require(achievement.mint(msg.sender, uint256(keccak256(abi.encodePacked(msg.sender, achievementId))), string(abi.encodePacked(now))));\n\n        return true;\n    }\n   \n    function getAllAchievementList() view public returns (bytes32[]) {\n        return allAchievements;\n    }\n   \n    function getActiveAchievementList() view public returns(bytes32[]) {\n\n    }\n\n    function getAchievementId(address creator, uint256[] topics, address[] issuers) pure public returns(bytes32) {\n        bytes memory idBytes;\n        \n        require(topics.length == issuers.length);\n        \n        idBytes = abi.encodePacked(idBytes, creator);\n\n        for(uint i=0;i<topics.length;i++){\n            idBytes = abi.encodePacked(idBytes, topics[i], issuers[i]);\n        }\n        return keccak256(idBytes);\n    }\n\n}\n",
  "sourcePath": "/Users/coinplug/BangGijin/metabolics2.0/contracts/property/AchievementManager.sol",
  "compiler": {
    "name": "solc",
    "version": "0.4.24+commit.e67f0147.Emscripten.clang"
  },
  "schemaVersion": "2.0.1",
  "updatedAt": "2018-10-04T08:04:42.657Z"
}