{
  "contractName": "AttestationAgencyRegistry",
  "abi": [
    {
      "constant": true,
      "inputs": [],
      "name": "attestationAgencyNum",
      "outputs": [
        {
          "name": "",
          "type": "uint256"
        }
      ],
      "payable": false,
      "stateMutability": "view",
      "type": "function"
    },
    {
      "constant": true,
      "inputs": [],
      "name": "REG",
      "outputs": [
        {
          "name": "",
          "type": "address"
        }
      ],
      "payable": false,
      "stateMutability": "view",
      "type": "function"
    },
    {
      "constant": true,
      "inputs": [
        {
          "name": "_addr",
          "type": "address"
        }
      ],
      "name": "isPermitted",
      "outputs": [
        {
          "name": "found",
          "type": "bool"
        }
      ],
      "payable": false,
      "stateMutability": "view",
      "type": "function"
    },
    {
      "constant": true,
      "inputs": [],
      "name": "THIS_NAME",
      "outputs": [
        {
          "name": "",
          "type": "bytes32"
        }
      ],
      "payable": false,
      "stateMutability": "view",
      "type": "function"
    },
    {
      "constant": false,
      "inputs": [],
      "name": "renounceOwnership",
      "outputs": [],
      "payable": false,
      "stateMutability": "nonpayable",
      "type": "function"
    },
    {
      "constant": true,
      "inputs": [],
      "name": "owner",
      "outputs": [
        {
          "name": "",
          "type": "address"
        }
      ],
      "payable": false,
      "stateMutability": "view",
      "type": "function"
    },
    {
      "constant": true,
      "inputs": [],
      "name": "isOwner",
      "outputs": [
        {
          "name": "",
          "type": "bool"
        }
      ],
      "payable": false,
      "stateMutability": "view",
      "type": "function"
    },
    {
      "constant": false,
      "inputs": [
        {
          "name": "_addr",
          "type": "address"
        }
      ],
      "name": "setRegistry",
      "outputs": [],
      "payable": false,
      "stateMutability": "nonpayable",
      "type": "function"
    },
    {
      "constant": true,
      "inputs": [
        {
          "name": "",
          "type": "address"
        }
      ],
      "name": "isAAregistered",
      "outputs": [
        {
          "name": "",
          "type": "uint256"
        }
      ],
      "payable": false,
      "stateMutability": "view",
      "type": "function"
    },
    {
      "constant": false,
      "inputs": [
        {
          "name": "newOwner",
          "type": "address"
        }
      ],
      "name": "transferOwnership",
      "outputs": [],
      "payable": false,
      "stateMutability": "nonpayable",
      "type": "function"
    },
    {
      "constant": true,
      "inputs": [
        {
          "name": "",
          "type": "uint256"
        }
      ],
      "name": "attestationAgencies",
      "outputs": [
        {
          "name": "addr",
          "type": "address"
        },
        {
          "name": "title",
          "type": "bytes32"
        },
        {
          "name": "explanation",
          "type": "bytes32"
        },
        {
          "name": "createdAt",
          "type": "uint256"
        }
      ],
      "payable": false,
      "stateMutability": "view",
      "type": "function"
    },
    {
      "inputs": [],
      "payable": false,
      "stateMutability": "nonpayable",
      "type": "constructor"
    },
    {
      "anonymous": false,
      "inputs": [
        {
          "indexed": true,
          "name": "aa",
          "type": "address"
        },
        {
          "indexed": true,
          "name": "title",
          "type": "bytes32"
        },
        {
          "indexed": false,
          "name": "explanation",
          "type": "bytes32"
        }
      ],
      "name": "RegisterAttestationAgency",
      "type": "event"
    },
    {
      "anonymous": false,
      "inputs": [
        {
          "indexed": true,
          "name": "aa",
          "type": "address"
        },
        {
          "indexed": true,
          "name": "title",
          "type": "bytes32"
        },
        {
          "indexed": false,
          "name": "explanation",
          "type": "bytes32"
        }
      ],
      "name": "UpdateAttestationAgency",
      "type": "event"
    },
    {
      "anonymous": false,
      "inputs": [
        {
          "indexed": true,
          "name": "previousOwner",
          "type": "address"
        },
        {
          "indexed": true,
          "name": "newOwner",
          "type": "address"
        }
      ],
      "name": "OwnershipTransferred",
      "type": "event"
    },
    {
      "constant": false,
      "inputs": [
        {
          "name": "_addr",
          "type": "address"
        },
        {
          "name": "_title",
          "type": "bytes32"
        },
        {
          "name": "_explanation",
          "type": "bytes32"
        }
      ],
      "name": "registerAttestationAgency",
      "outputs": [
        {
          "name": "success",
          "type": "bool"
        }
      ],
      "payable": false,
      "stateMutability": "nonpayable",
      "type": "function"
    },
    {
      "constant": false,
      "inputs": [
        {
          "name": "_addr",
          "type": "address"
        },
        {
          "name": "_title",
          "type": "bytes32"
        },
        {
          "name": "_explanation",
          "type": "bytes32"
        }
      ],
      "name": "updateAttestationAgency",
      "outputs": [
        {
          "name": "success",
          "type": "bool"
        }
      ],
      "payable": false,
      "stateMutability": "nonpayable",
      "type": "function"
    },
    {
      "constant": true,
      "inputs": [
        {
          "name": "_addr",
          "type": "address"
        }
      ],
      "name": "isRegistered",
      "outputs": [
        {
          "name": "found",
          "type": "uint256"
        }
      ],
      "payable": false,
      "stateMutability": "view",
      "type": "function"
    },
    {
      "constant": true,
      "inputs": [
        {
          "name": "_num",
          "type": "uint256"
        }
      ],
      "name": "getAttestationAgencySingle",
      "outputs": [
        {
          "name": "addr",
          "type": "address"
        },
        {
          "name": "title",
          "type": "bytes32"
        },
        {
          "name": "explanation",
          "type": "bytes32"
        },
        {
          "name": "createdAt",
          "type": "uint256"
        }
      ],
      "payable": false,
      "stateMutability": "view",
      "type": "function"
    },
    {
      "constant": true,
      "inputs": [
        {
          "name": "_from",
          "type": "uint256"
        },
        {
          "name": "_to",
          "type": "uint256"
        }
      ],
      "name": "getAttestationAgenciesFromTo",
      "outputs": [
        {
          "name": "addrs",
          "type": "address[]"
        },
        {
          "name": "titles",
          "type": "bytes32[]"
        },
        {
          "name": "descs",
          "type": "bytes32[]"
        },
        {
          "name": "createds",
          "type": "uint256[]"
        }
      ],
      "payable": false,
      "stateMutability": "view",
      "type": "function"
    }
  ],
  "bytecode": "0x608060405234801561001057600080fd5b50336000806101000a81548173ffffffffffffffffffffffffffffffffffffffff021916908373ffffffffffffffffffffffffffffffffffffffff1602179055506000809054906101000a900473ffffffffffffffffffffffffffffffffffffffff1673ffffffffffffffffffffffffffffffffffffffff16600073ffffffffffffffffffffffffffffffffffffffff167f8be0079c531659141344cd1fd0a4f28419497f9722a3daafe3b4186f6b6457e060405160405180910390a37f4174746573746174696f6e4167656e637952656769737472790000000000000060028160001916905550600160038190555073ffffffffffffffffffffffffffffffffffffffff6004600080815260200190815260200160002060000160006101000a81548173ffffffffffffffffffffffffffffffffffffffff021916908373ffffffffffffffffffffffffffffffffffffffff1602179055507f4d6574616469756d2053656c66536f7665726569676e000000000000000000006004600080815260200190815260200160002060010181600019169055507f4d6574616469756d2053656c66536f7665726569676e00000000000000000000600460008081526020019081526020016000206002018160001916905550426004600080815260200190815260200160002060030181905550611435806102116000396000f3006080604052600436106100e6576000357c0100000000000000000000000000000000000000000000000000000000900463ffffffff168063100d5c7d146100eb578063171edef31461011657806339363112146101a85780633fd8cc4e146101ff57806364319d0b1461025a578063715018a61461028d5780638cb2f616146102a45780638da5cb5b1461031b5780638f32d59b14610372578063a833b2af146103a1578063a91ee0dc14610418578063c1af23861461045b578063c3c5a547146105bf578063ef352df414610616578063f2fde38b1461066d578063f32b94a3146106b0575b600080fd5b3480156100f757600080fd5b50610100610742565b6040518082815260200191505060405180910390f35b34801561012257600080fd5b5061014160048036038101908080359060200190929190505050610748565b604051808573ffffffffffffffffffffffffffffffffffffffff1673ffffffffffffffffffffffffffffffffffffffff1681526020018460001916600019168152602001836000191660001916815260200182815260200194505050505060405180910390f35b3480156101b457600080fd5b506101bd6107d9565b604051808273ffffffffffffffffffffffffffffffffffffffff1673ffffffffffffffffffffffffffffffffffffffff16815260200191505060405180910390f35b34801561020b57600080fd5b50610240600480360381019080803573ffffffffffffffffffffffffffffffffffffffff1690602001909291905050506107ff565b604051808215151515815260200191505060405180910390f35b34801561026657600080fd5b5061026f610912565b60405180826000191660001916815260200191505060405180910390f35b34801561029957600080fd5b506102a2610918565b005b3480156102b057600080fd5b50610301600480360381019080803573ffffffffffffffffffffffffffffffffffffffff169060200190929190803560001916906020019092919080356000191690602001909291905050506109ea565b604051808215151515815260200191505060405180910390f35b34801561032757600080fd5b50610330610be5565b604051808273ffffffffffffffffffffffffffffffffffffffff1673ffffffffffffffffffffffffffffffffffffffff16815260200191505060405180910390f35b34801561037e57600080fd5b50610387610c0e565b604051808215151515815260200191505060405180910390f35b3480156103ad57600080fd5b506103fe600480360381019080803573ffffffffffffffffffffffffffffffffffffffff16906020019092919080356000191690602001909291908035600019169060200190929190505050610c65565b604051808215151515815260200191505060405180910390f35b34801561042457600080fd5b50610459600480360381019080803573ffffffffffffffffffffffffffffffffffffffff169060200190929190505050610f0f565b005b34801561046757600080fd5b506104906004803603810190808035906020019092919080359060200190929190505050610f66565b6040518080602001806020018060200180602001858103855289818151815260200191508051906020019060200280838360005b838110156104df5780820151818401526020810190506104c4565b50505050905001858103845288818151815260200191508051906020019060200280838360005b83811015610521578082015181840152602081019050610506565b50505050905001858103835287818151815260200191508051906020019060200280838360005b83811015610563578082015181840152602081019050610548565b50505050905001858103825286818151815260200191508051906020019060200280838360005b838110156105a557808201518184015260208101905061058a565b505050509050019850505050505050505060405180910390f35b3480156105cb57600080fd5b50610600600480360381019080803573ffffffffffffffffffffffffffffffffffffffff16906020019092919050505061123f565b6040518082815260200191505060405180910390f35b34801561062257600080fd5b50610657600480360381019080803573ffffffffffffffffffffffffffffffffffffffff169060200190929190505050611288565b6040518082815260200191505060405180910390f35b34801561067957600080fd5b506106ae600480360381019080803573ffffffffffffffffffffffffffffffffffffffff1690602001909291905050506112a0565b005b3480156106bc57600080fd5b506106db600480360381019080803590602001909291905050506112bf565b604051808573ffffffffffffffffffffffffffffffffffffffff1673ffffffffffffffffffffffffffffffffffffffff1681526020018460001916600019168152602001836000191660001916815260200182815260200194505050505060405180910390f35b60035481565b6000806000806004600086815260200190815260200160002060000160009054906101000a900473ffffffffffffffffffffffffffffffffffffffff1660046000878152602001908152602001600020600101546004600088815260200190815260200160002060020154600460008981526020019081526020016000206003015493509350935093509193509193565b600160009054906101000a900473ffffffffffffffffffffffffffffffffffffffff1681565b6000600160009054906101000a900473ffffffffffffffffffffffffffffffffffffffff1673ffffffffffffffffffffffffffffffffffffffff166360d6c7cf600254846040518363ffffffff167c01000000000000000000000000000000000000000000000000000000000281526004018083600019166000191681526020018273ffffffffffffffffffffffffffffffffffffffff1673ffffffffffffffffffffffffffffffffffffffff16815260200192505050602060405180830381600087803b1580156108d057600080fd5b505af11580156108e4573d6000803e3d6000fd5b505050506040513d60208110156108fa57600080fd5b81019080805190602001909291905050509050919050565b60025481565b610920610c0e565b151561092b57600080fd5b600073ffffffffffffffffffffffffffffffffffffffff166000809054906101000a900473ffffffffffffffffffffffffffffffffffffffff1673ffffffffffffffffffffffffffffffffffffffff167f8be0079c531659141344cd1fd0a4f28419497f9722a3daafe3b4186f6b6457e060405160405180910390a360008060006101000a81548173ffffffffffffffffffffffffffffffffffffffff021916908373ffffffffffffffffffffffffffffffffffffffff160217905550565b6000806109f6336107ff565b1515610a6a576040517f08c379a000000000000000000000000000000000000000000000000000000000815260040180806020018281038252600d8152602001807f4e6f205065726d697373696f6e0000000000000000000000000000000000000081525060200191505060405180910390fd5b600560008673ffffffffffffffffffffffffffffffffffffffff1673ffffffffffffffffffffffffffffffffffffffff16815260200190815260200160002054905060008114151515610b25576040517f08c379a00000000000000000000000000000000000000000000000000000000081526004018080602001828103825260168152602001807f6e756d6265722073686f756c64206e6f6e2d7a65726f0000000000000000000081525060200191505060405180910390fd5b836004600083815260200190815260200160002060010181600019169055508260046000838152602001908152602001600020600201816000191690555042600460008381526020019081526020016000206003018190555083600019168573ffffffffffffffffffffffffffffffffffffffff167f481565c56072c7b776b6cf2187914459bb17db4c7b6bc859fb7e6efd4ff759d98560405180826000191660001916815260200191505060405180910390a360019150509392505050565b60008060009054906101000a900473ffffffffffffffffffffffffffffffffffffffff16905090565b60008060009054906101000a900473ffffffffffffffffffffffffffffffffffffffff1673ffffffffffffffffffffffffffffffffffffffff163373ffffffffffffffffffffffffffffffffffffffff1614905090565b6000610c70336107ff565b1515610ce4576040517f08c379a000000000000000000000000000000000000000000000000000000000815260040180806020018281038252600d8152602001807f4e6f205065726d697373696f6e0000000000000000000000000000000000000081525060200191505060405180910390fd5b6000600560008673ffffffffffffffffffffffffffffffffffffffff1673ffffffffffffffffffffffffffffffffffffffff16815260200190815260200160002054141515610d9b576040517f08c379a000000000000000000000000000000000000000000000000000000000815260040180806020018281038252600c8152602001807f7a65726f2061646472657373000000000000000000000000000000000000000081525060200191505060405180910390fd5b8360046000600354815260200190815260200160002060000160006101000a81548173ffffffffffffffffffffffffffffffffffffffff021916908373ffffffffffffffffffffffffffffffffffffffff1602179055508260046000600354815260200190815260200160002060010181600019169055508160046000600354815260200190815260200160002060020181600019169055504260046000600354815260200190815260200160002060030181905550600354600560008673ffffffffffffffffffffffffffffffffffffffff1673ffffffffffffffffffffffffffffffffffffffff1681526020019081526020016000208190555060036000815480929190600101919050555082600019168473ffffffffffffffffffffffffffffffffffffffff167ffff216d1859c44a6cd5fc407d460ef0236d9f1b8f4de519d3a429c145d8405838460405180826000191660001916815260200191505060405180910390a3600190509392505050565b610f17610c0e565b1515610f2257600080fd5b80600160006101000a81548173ffffffffffffffffffffffffffffffffffffffff021916908373ffffffffffffffffffffffffffffffffffffffff16021790555050565b60608060608060608060608060006003548a108015610f855750898b11155b1515610ff9576040517f08c379a00000000000000000000000000000000000000000000000000000000081526004018080602001828103825260108152602001807f66726f6d20746f206d69736d617463680000000000000000000000000000000081525060200191505060405180910390fd5b60018b8b030160405190808252806020026020018201604052801561102d5781602001602082028038833980820191505090505b50945060018b8b03016040519080825280602002602001820160405280156110645781602001602082028038833980820191505090505b50935060018b8b030160405190808252806020026020018201604052801561109b5781602001602082028038833980820191505090505b50925060018b8b03016040519080825280602002602001820160405280156110d25781602001602082028038833980820191505090505b5091508a90505b8981111515611225576004600082815260200190815260200160002060000160009054906101000a900473ffffffffffffffffffffffffffffffffffffffff16858c830381518110151561112957fe5b9060200190602002019073ffffffffffffffffffffffffffffffffffffffff16908173ffffffffffffffffffffffffffffffffffffffff16815250506004600082815260200190815260200160002060020154848c830381518110151561118c57fe5b9060200190602002019060001916908160001916815250506004600082815260200190815260200160002060010154838c83038151811015156111cb57fe5b9060200190602002019060001916908160001916815250506004600082815260200190815260200160002060030154828c830381518110151561120a57fe5b906020019060200201818152505080806001019150506110d9565b848385849850985098509850505050505092959194509250565b6000600560008373ffffffffffffffffffffffffffffffffffffffff1673ffffffffffffffffffffffffffffffffffffffff168152602001908152602001600020549050919050565b60056020528060005260406000206000915090505481565b6112a8610c0e565b15156112b357600080fd5b6112bc8161130f565b50565b60046020528060005260406000206000915090508060000160009054906101000a900473ffffffffffffffffffffffffffffffffffffffff16908060010154908060020154908060030154905084565b600073ffffffffffffffffffffffffffffffffffffffff168173ffffffffffffffffffffffffffffffffffffffff161415151561134b57600080fd5b8073ffffffffffffffffffffffffffffffffffffffff166000809054906101000a900473ffffffffffffffffffffffffffffffffffffffff1673ffffffffffffffffffffffffffffffffffffffff167f8be0079c531659141344cd1fd0a4f28419497f9722a3daafe3b4186f6b6457e060405160405180910390a3806000806101000a81548173ffffffffffffffffffffffffffffffffffffffff021916908373ffffffffffffffffffffffffffffffffffffffff160217905550505600a165627a7a723058209fb0507cb9287fb497b88f5fd83218b4bda983178c5d036c218822ca207042f60029",
  "source": "pragma solidity ^0.4.24;\n\nimport \"../RegistryUser.sol\";\n\n/// @title AttestationAgencyRegistry\n/// @author genie\n/// @notice Attestation Agency Registry.\n/// @dev  Attestation Agency can be registered when create achievement or the permissioned user can create.\ncontract AttestationAgencyRegistry is RegistryUser {\n    \n    struct AttestationAgency {\n        address addr;\n        bytes32 title;\n        bytes32 explanation;\n        uint256 createdAt;\n        // code for \n        // bool type isEnterprise;\n         \n    }\n    uint256 public attestationAgencyNum;\n\n    mapping(uint256=>AttestationAgency) public attestationAgencies;\n    mapping(address=>uint256) public isAAregistered;\n    \n    event RegisterAttestationAgency(address indexed aa, bytes32 indexed title, bytes32 explanation);\n    event UpdateAttestationAgency(address indexed aa, bytes32 indexed title, bytes32 explanation);\n\n\n    /**\n     * @dev Metadium SelfSovereign address is used to self claim.\n     */\n    constructor() public {\n        THIS_NAME = \"AttestationAgencyRegistry\";\n        attestationAgencyNum = 1;\n\n        attestationAgencies[0].addr = 0xFFfFfFffFFfffFFfFFfFFFFFffFFFffffFfFFFfF;\n        attestationAgencies[0].title = \"Metadium SelfSovereign\";\n        attestationAgencies[0].explanation = \"Metadium SelfSovereign\";\n        attestationAgencies[0].createdAt = block.timestamp;\n    }\n\n    /**\n     * @dev Register Attestation Agency\n     * @param _addr address to register\n     * @param _title title\n     * @param _explanation explanation\n     * @return A boolean that indicates if the operation was successful.\n     */\n    function registerAttestationAgency(address _addr, bytes32 _title, bytes32 _explanation) public permissioned returns (bool success) {\n        require(isAAregistered[_addr] == 0, \"zero address\");\n        \n        attestationAgencies[attestationAgencyNum].addr = _addr;\n        attestationAgencies[attestationAgencyNum].title = _title;\n        attestationAgencies[attestationAgencyNum].explanation = _explanation;\n        attestationAgencies[attestationAgencyNum].createdAt = block.timestamp;\n\n        isAAregistered[_addr] = attestationAgencyNum;\n\n        attestationAgencyNum++;\n\n        emit RegisterAttestationAgency(_addr, _title, _explanation);\n\n        return true;\n    }   \n\n    /**\n     * @dev Update Attestation Agency\n     * @param _addr address to register\n     * @param _title title\n     * @param _explanation explanation\n     * @return A boolean that indicates if the operation was successful.\n     */\n    function updateAttestationAgency(address _addr, bytes32 _title, bytes32 _explanation) public permissioned returns (bool success) {\n        uint256 _num = isAAregistered[_addr];\n        require(_num != 0, \"number should non-zero\");\n        \n        attestationAgencies[_num].title = _title;\n        attestationAgencies[_num].explanation = _explanation;\n        attestationAgencies[_num].createdAt = block.timestamp;\n\n        emit UpdateAttestationAgency(_addr, _title, _explanation);\n\n        return true;\n\n    }\n\n    function isRegistered(address _addr) public view returns(uint256 found) {\n        return isAAregistered[_addr];\n    }\n\n    function getAttestationAgencySingle(uint256 _num) public view returns(address addr, bytes32 title, bytes32 explanation, uint256 createdAt) {\n        return (\n            attestationAgencies[_num].addr,\n            attestationAgencies[_num].title,\n            attestationAgencies[_num].explanation,\n            attestationAgencies[_num].createdAt\n        );\n    }\n\n    function getAttestationAgenciesFromTo(uint256 _from, uint256 _to)\n    public\n    view\n    returns(address[] addrs, bytes32[] titles, bytes32[] descs, uint256[] createds)\n    {\n        \n        require(_to<attestationAgencyNum && _from <= _to, \"from to mismatch\");\n        \n        address[] memory saddrs = new address[](_to-_from+1);\n        bytes32[] memory sdescs = new bytes32[](_to-_from+1);\n        bytes32[] memory stitles = new bytes32[](_to-_from+1);\n        uint256[] memory screateds = new uint256[](_to-_from+1);\n\n        for (uint256 i = _from;i<=_to;i++) {\n            saddrs[i-_from] = attestationAgencies[i].addr;\n            sdescs[i-_from] = attestationAgencies[i].explanation;\n            stitles[i-_from] = attestationAgencies[i].title;\n            screateds[i-_from] = attestationAgencies[i].createdAt;\n        }\n\n        return (saddrs, stitles, sdescs, screateds);\n    } \n    \n\n}\n",
  "sourcePath": "/Users/hexoul/Documents/Metadium/metabolics/contracts/registry/AttestationAgencyRegistry.sol",
  "compiler": {
    "name": "solc",
    "version": "0.4.24+commit.e67f0147.Emscripten.clang"
  },
  "schemaVersion": "2.0.1",
  "updatedAt": "2019-03-18T02:30:31.162Z"
}