{
  "contractName": "AttestationAgencyRegistry",
  "abi": [
    {
      "constant": true,
      "inputs": [],
      "name": "REG",
      "outputs": [
        {
          "name": "",
          "type": "address"
        }
      ],
      "payable": false,
      "stateMutability": "view",
      "type": "function"
    },
    {
      "constant": false,
      "inputs": [
        {
          "name": "_addr",
          "type": "address"
        }
      ],
      "name": "isPermitted",
      "outputs": [
        {
          "name": "",
          "type": "bool"
        }
      ],
      "payable": false,
      "stateMutability": "nonpayable",
      "type": "function"
    },
    {
      "constant": true,
      "inputs": [],
      "name": "THIS_NAME",
      "outputs": [
        {
          "name": "",
          "type": "bytes32"
        }
      ],
      "payable": false,
      "stateMutability": "view",
      "type": "function"
    },
    {
      "constant": true,
      "inputs": [],
      "name": "owner",
      "outputs": [
        {
          "name": "",
          "type": "address"
        }
      ],
      "payable": false,
      "stateMutability": "view",
      "type": "function"
    },
    {
      "constant": false,
      "inputs": [
        {
          "name": "_addr",
          "type": "address"
        }
      ],
      "name": "setRegistry",
      "outputs": [],
      "payable": false,
      "stateMutability": "nonpayable",
      "type": "function"
    },
    {
      "constant": true,
      "inputs": [
        {
          "name": "",
          "type": "address"
        }
      ],
      "name": "isAAregistered",
      "outputs": [
        {
          "name": "",
          "type": "uint256"
        }
      ],
      "payable": false,
      "stateMutability": "view",
      "type": "function"
    },
    {
      "constant": false,
      "inputs": [
        {
          "name": "newOwner",
          "type": "address"
        }
      ],
      "name": "transferOwnership",
      "outputs": [],
      "payable": false,
      "stateMutability": "nonpayable",
      "type": "function"
    },
    {
      "constant": true,
      "inputs": [
        {
          "name": "",
          "type": "uint256"
        }
      ],
      "name": "attestationAgencies",
      "outputs": [
        {
          "name": "addr",
          "type": "address"
        },
        {
          "name": "title",
          "type": "bytes32"
        },
        {
          "name": "description",
          "type": "bytes32"
        },
        {
          "name": "createdAt",
          "type": "uint256"
        }
      ],
      "payable": false,
      "stateMutability": "view",
      "type": "function"
    },
    {
      "inputs": [],
      "payable": false,
      "stateMutability": "nonpayable",
      "type": "constructor"
    },
    {
      "anonymous": false,
      "inputs": [
        {
          "indexed": true,
          "name": "aa",
          "type": "address"
        },
        {
          "indexed": true,
          "name": "title",
          "type": "bytes32"
        },
        {
          "indexed": false,
          "name": "description",
          "type": "bytes32"
        }
      ],
      "name": "RegisterAttestationAgency",
      "type": "event"
    },
    {
      "anonymous": false,
      "inputs": [
        {
          "indexed": true,
          "name": "aa",
          "type": "address"
        },
        {
          "indexed": true,
          "name": "title",
          "type": "bytes32"
        },
        {
          "indexed": false,
          "name": "description",
          "type": "bytes32"
        }
      ],
      "name": "UpdateAttestationAgency",
      "type": "event"
    },
    {
      "anonymous": false,
      "inputs": [
        {
          "indexed": false,
          "name": "addr",
          "type": "address"
        },
        {
          "indexed": false,
          "name": "name",
          "type": "bytes32"
        },
        {
          "indexed": false,
          "name": "go",
          "type": "bool"
        }
      ],
      "name": "Per",
      "type": "event"
    },
    {
      "anonymous": false,
      "inputs": [
        {
          "indexed": true,
          "name": "previousOwner",
          "type": "address"
        },
        {
          "indexed": true,
          "name": "newOwner",
          "type": "address"
        }
      ],
      "name": "OwnershipTransferred",
      "type": "event"
    },
    {
      "constant": false,
      "inputs": [
        {
          "name": "_addr",
          "type": "address"
        },
        {
          "name": "_title",
          "type": "bytes32"
        },
        {
          "name": "_description",
          "type": "bytes32"
        }
      ],
      "name": "registerAttestationAgency",
      "outputs": [
        {
          "name": "",
          "type": "bool"
        }
      ],
      "payable": false,
      "stateMutability": "nonpayable",
      "type": "function"
    },
    {
      "constant": false,
      "inputs": [
        {
          "name": "_num",
          "type": "uint256"
        },
        {
          "name": "_addr",
          "type": "address"
        },
        {
          "name": "_title",
          "type": "bytes32"
        },
        {
          "name": "_description",
          "type": "bytes32"
        }
      ],
      "name": "updateAttestationAgency",
      "outputs": [
        {
          "name": "",
          "type": "bool"
        }
      ],
      "payable": false,
      "stateMutability": "nonpayable",
      "type": "function"
    },
    {
      "constant": true,
      "inputs": [
        {
          "name": "_addr",
          "type": "address"
        }
      ],
      "name": "isRegistered",
      "outputs": [
        {
          "name": "",
          "type": "uint256"
        }
      ],
      "payable": false,
      "stateMutability": "view",
      "type": "function"
    },
    {
      "constant": true,
      "inputs": [
        {
          "name": "_num",
          "type": "uint256"
        }
      ],
      "name": "getAttestationAgencySingle",
      "outputs": [
        {
          "name": "",
          "type": "address"
        },
        {
          "name": "",
          "type": "bytes32"
        },
        {
          "name": "",
          "type": "bytes32"
        },
        {
          "name": "",
          "type": "uint256"
        }
      ],
      "payable": false,
      "stateMutability": "view",
      "type": "function"
    },
    {
      "constant": true,
      "inputs": [
        {
          "name": "_from",
          "type": "uint256"
        },
        {
          "name": "_to",
          "type": "uint256"
        }
      ],
      "name": "getAttestationAgenciesFromTo",
      "outputs": [
        {
          "name": "",
          "type": "address[]"
        },
        {
          "name": "",
          "type": "bytes32[]"
        },
        {
          "name": "",
          "type": "bytes32[]"
        },
        {
          "name": "",
          "type": "uint256[]"
        }
      ],
      "payable": false,
      "stateMutability": "view",
      "type": "function"
    }
  ],
  "bytecode": "0x608060405234801561001057600080fd5b5060008054600160a060020a0319908116331782557f4174746573746174696f6e4167656e6379526567697374727900000000000000600255600160035590805260046020527f17ef568e3e12ab5b9c7254a8d58478811de00f9e6eb34345acd53bf8fd09d3ec8054909116600160a060020a031790557f4d6574616469756d44656661756c7400000000000000000000000000000000007f17ef568e3e12ab5b9c7254a8d58478811de00f9e6eb34345acd53bf8fd09d3ed8190557f17ef568e3e12ab5b9c7254a8d58478811de00f9e6eb34345acd53bf8fd09d3ee55427f17ef568e3e12ab5b9c7254a8d58478811de00f9e6eb34345acd53bf8fd09d3ef556109e0806101206000396000f3006080604052600436106100c45763ffffffff7c0100000000000000000000000000000000000000000000000000000000600035041663171edef381146100c957806339363112146101115780633fd8cc4e14610142578063474374ee1461017757806364319d0b146101a15780638da5cb5b146101c8578063a833b2af146101dd578063a91ee0dc14610204578063c1af238614610227578063c3c5a54714610365578063ef352df414610386578063f2fde38b146103a7578063f32b94a3146103c8575b600080fd5b3480156100d557600080fd5b506100e16004356103e0565b60408051600160a060020a0390951685526020850193909352838301919091526060830152519081900360800190f35b34801561011d57600080fd5b50610126610412565b60408051600160a060020a039092168252519081900360200190f35b34801561014e57600080fd5b50610163600160a060020a0360043516610421565b604080519115158252519081900360200190f35b34801561018357600080fd5b50610163600435600160a060020a03602435166044356064356104c8565b3480156101ad57600080fd5b506101b6610592565b60408051918252519081900360200190f35b3480156101d457600080fd5b50610126610598565b3480156101e957600080fd5b50610163600160a060020a03600435166024356044356105a7565b34801561021057600080fd5b50610225600160a060020a0360043516610699565b005b34801561023357600080fd5b506102426004356024356106df565b6040518080602001806020018060200180602001858103855289818151815260200191508051906020019060200280838360005b8381101561028e578181015183820152602001610276565b50505050905001858103845288818151815260200191508051906020019060200280838360005b838110156102cd5781810151838201526020016102b5565b50505050905001858103835287818151815260200191508051906020019060200280838360005b8381101561030c5781810151838201526020016102f4565b50505050905001858103825286818151815260200191508051906020019060200280838360005b8381101561034b578181015183820152602001610333565b505050509050019850505050505050505060405180910390f35b34801561037157600080fd5b506101b6600160a060020a03600435166108c2565b34801561039257600080fd5b506101b6600160a060020a03600435166108dd565b3480156103b357600080fd5b50610225600160a060020a03600435166108ef565b3480156103d457600080fd5b506100e1600435610983565b6000908152600460205260409020805460018201546002830154600390930154600160a060020a039092169390929190565b600154600160a060020a031681565b600154600254604080517f60d6c7cf0000000000000000000000000000000000000000000000000000000081526004810192909252600160a060020a038481166024840152905160009391909116916360d6c7cf91604480830192602092919082900301818787803b15801561049657600080fd5b505af11580156104aa573d6000803e3d6000fd5b505050506040513d60208110156104c057600080fd5b505192915050565b60006104d333610421565b15156104de57600080fd5b600160a060020a038416600090815260056020526040902054851461050257600080fd5b600085815260046020908152604091829020805473ffffffffffffffffffffffffffffffffffffffff1916600160a060020a038816908117825560018201879055600282018690554260039092019190915582518581529251869391927f481565c56072c7b776b6cf2187914459bb17db4c7b6bc859fb7e6efd4ff759d9928290030190a3506001949350505050565b60025481565b600054600160a060020a031681565b60006105b233610421565b15156105bd57600080fd5b600160a060020a038416600090815260056020526040902054156105e057600080fd5b600380546000908152600460209081526040808320805473ffffffffffffffffffffffffffffffffffffffff1916600160a060020a038a169081179091558454845281842060019081018990558554855282852060020188905585548552828520429087015585548286526005855294839020859055939093019093558251858152925186937ffff216d1859c44a6cd5fc407d460ef0236d9f1b8f4de519d3a429c145d84058392908290030190a35060019392505050565b600054600160a060020a031633146106b057600080fd5b6001805473ffffffffffffffffffffffffffffffffffffffff1916600160a060020a0392909216919091179055565b60608060608060608060608060006003548a1080156106fd5750898b105b151561070857600080fd5b8a8a03600101604051908082528060200260200182016040528015610737578160200160208202803883390190505b5094508a8a03600101604051908082528060200260200182016040528015610769578160200160208202803883390190505b5093508a8a0360010160405190808252806020026020018201604052801561079b578160200160208202803883390190505b5092508a8a036001016040519080825280602002602001820160405280156107cd578160200160208202803883390190505b5091508a90505b8981116108b0576000818152600460205260409020548551600160a060020a039091169086908d840390811061080657fe5b600160a060020a039092166020928302909101820152600082815260049091526040902060020154845185908d840390811061083e57fe5b6020908102909101810191909152600082815260049091526040902060010154835184908d840390811061086e57fe5b6020908102909101810191909152600082815260049091526040902060030154825183908d840390811061089e57fe5b602090810290910101526001016107d4565b50929990985090965090945092505050565b600160a060020a031660009081526005602052604090205490565b60056020526000908152604090205481565b600054600160a060020a0316331461090657600080fd5b600160a060020a038116151561091b57600080fd5b60008054604051600160a060020a03808516939216917f8be0079c531659141344cd1fd0a4f28419497f9722a3daafe3b4186f6b6457e091a36000805473ffffffffffffffffffffffffffffffffffffffff1916600160a060020a0392909216919091179055565b6004602052600090815260409020805460018201546002830154600390930154600160a060020a03909216929091845600a165627a7a723058204e59c45e3fd990692aee0dd9bbf0e2c6a9b2924f48479095b267b63fc6b4f8f20029",
  "source": "pragma solidity ^0.4.24;\n\nimport \"../RegistryUser.sol\";\n\n/// @title AttestationAgencyRegistry\n/// @author genie\n/// @notice Attestation Agency Registry.\n/// @dev  Attestation Agency can be registered when create achievement or the permissioned user can create.\ncontract AttestationAgencyRegistry is RegistryUser {\n    \n    struct AttestationAgency {\n        address addr;\n        bytes32 title;\n        bytes32 description;\n        uint256 createdAt;\n        // code for \n        // bool type isEnterprise;\n         \n    }\n    uint256 attestationAgencyNum;\n\n    mapping(uint256=>AttestationAgency) public attestationAgencies;\n    mapping(address=>uint256) public isAAregistered;\n    \n    event RegisterAttestationAgency(address indexed aa, bytes32 indexed title, bytes32 description);\n    event UpdateAttestationAgency(address indexed aa, bytes32 indexed title, bytes32 description);\n\n    function AttestationAgencyRegistry() public {\n        THIS_NAME = \"AttestationAgencyRegistry\";\n        attestationAgencyNum = 1;\n\n        attestationAgencies[0].addr = 0xFFfFfFffFFfffFFfFFfFFFFFffFFFffffFfFFFfF;\n        attestationAgencies[0].title = 'MetadiumDefault';\n        attestationAgencies[0].description = 'MetadiumDefault';\n        attestationAgencies[0].createdAt = now;\n    }\n\n    /**\n     * @dev Register Attestation Agency\n     * @param _addr address to register\n     * @param _title title\n     * @param _description description\n     * @return A boolean that indicates if the operation was successful.\n     */\n    function registerAttestationAgency(address _addr, bytes32 _title, bytes32 _description) permissioned public returns (bool) {\n        require(isAAregistered[_addr] == 0);\n        \n        attestationAgencies[attestationAgencyNum].addr = _addr;\n        attestationAgencies[attestationAgencyNum].title = _title;\n        attestationAgencies[attestationAgencyNum].description = _description;\n        attestationAgencies[attestationAgencyNum].createdAt = now;\n\n        isAAregistered[_addr] = attestationAgencyNum;\n\n        attestationAgencyNum++;\n\n        emit RegisterAttestationAgency(_addr, _title, _description);\n\n        return true;\n    }   \n\n    /**\n     * @dev Update Attestation Agency\n     * @param _num index of the AA\n     * @param _addr address to register\n     * @param _title title\n     * @param _description description\n     * @return A boolean that indicates if the operation was successful.\n     */\n    function updateAttestationAgency(uint256 _num, address _addr, bytes32 _title, bytes32 _description) permissioned public returns (bool) {\n        \n        require(isAAregistered[_addr] == _num);\n\n        attestationAgencies[_num].addr = _addr;\n        attestationAgencies[_num].title = _title;\n        attestationAgencies[_num].description = _description;\n        attestationAgencies[_num].createdAt = now;\n\n        emit UpdateAttestationAgency(_addr, _title, _description);\n\n        return true;\n\n    }\n\n    function isRegistered(address _addr) view public returns(uint256){\n        return isAAregistered[_addr];\n    }\n\n    function getAttestationAgencySingle(uint256 _num) view public returns(address, bytes32, bytes32, uint256) {\n        return (\n            attestationAgencies[_num].addr,\n            attestationAgencies[_num].title,\n            attestationAgencies[_num].description,\n            attestationAgencies[_num].createdAt\n        );\n    }\n\n    function getAttestationAgenciesFromTo(uint256 _from, uint256 _to) view public returns(address[], bytes32[], bytes32[], uint256[]){\n        \n        require(_to<attestationAgencyNum && _from < _to);\n        \n        address[] memory saddrs = new address[](_to-_from+1);\n        bytes32[] memory sdescs = new bytes32[](_to-_from+1);\n        bytes32[] memory stitles = new bytes32[](_to-_from+1);\n        uint256[] memory screateds = new uint256[](_to-_from+1);\n\n        for(uint256 i=_from;i<=_to;i++){\n            saddrs[i-_from] = attestationAgencies[i].addr;\n            sdescs[i-_from] = attestationAgencies[i].description;\n            stitles[i-_from] = attestationAgencies[i].title;\n            screateds[i-_from] = attestationAgencies[i].createdAt;\n        }\n\n        return (saddrs, stitles, sdescs, screateds);\n    } \n    \n\n}\n",
  "sourcePath": "/Users/coinplug/BangGijin/metabolics2.0/contracts/registry/AttestationAgencyRegistry.sol",
  "compiler": {
    "name": "solc",
    "version": "0.4.24+commit.e67f0147.Emscripten.clang"
  },
  "schemaVersion": "2.0.1",
  "updatedAt": "2018-10-23T09:00:50.350Z"
}