{
  "contractName": "AttestationAgencyRegistry",
  "abi": [
    {
      "constant": true,
      "inputs": [],
      "name": "attestationAgencyNum",
      "outputs": [
        {
          "name": "",
          "type": "uint256"
        }
      ],
      "payable": false,
      "stateMutability": "view",
      "type": "function"
    },
    {
      "constant": true,
      "inputs": [],
      "name": "REG",
      "outputs": [
        {
          "name": "",
          "type": "address"
        }
      ],
      "payable": false,
      "stateMutability": "view",
      "type": "function"
    },
    {
      "constant": true,
      "inputs": [
        {
          "name": "_addr",
          "type": "address"
        }
      ],
      "name": "isPermitted",
      "outputs": [
        {
          "name": "found",
          "type": "bool"
        }
      ],
      "payable": false,
      "stateMutability": "view",
      "type": "function"
    },
    {
      "constant": true,
      "inputs": [],
      "name": "THIS_NAME",
      "outputs": [
        {
          "name": "",
          "type": "bytes32"
        }
      ],
      "payable": false,
      "stateMutability": "view",
      "type": "function"
    },
    {
      "constant": true,
      "inputs": [],
      "name": "owner",
      "outputs": [
        {
          "name": "",
          "type": "address"
        }
      ],
      "payable": false,
      "stateMutability": "view",
      "type": "function"
    },
    {
      "constant": false,
      "inputs": [
        {
          "name": "_addr",
          "type": "address"
        }
      ],
      "name": "setRegistry",
      "outputs": [],
      "payable": false,
      "stateMutability": "nonpayable",
      "type": "function"
    },
    {
      "constant": true,
      "inputs": [
        {
          "name": "",
          "type": "address"
        }
      ],
      "name": "isAAregistered",
      "outputs": [
        {
          "name": "",
          "type": "uint256"
        }
      ],
      "payable": false,
      "stateMutability": "view",
      "type": "function"
    },
    {
      "constant": false,
      "inputs": [
        {
          "name": "newOwner",
          "type": "address"
        }
      ],
      "name": "transferOwnership",
      "outputs": [],
      "payable": false,
      "stateMutability": "nonpayable",
      "type": "function"
    },
    {
      "constant": true,
      "inputs": [
        {
          "name": "",
          "type": "uint256"
        }
      ],
      "name": "attestationAgencies",
      "outputs": [
        {
          "name": "addr",
          "type": "address"
        },
        {
          "name": "title",
          "type": "bytes32"
        },
        {
          "name": "explanation",
          "type": "bytes32"
        },
        {
          "name": "createdAt",
          "type": "uint256"
        }
      ],
      "payable": false,
      "stateMutability": "view",
      "type": "function"
    },
    {
      "inputs": [],
      "payable": false,
      "stateMutability": "nonpayable",
      "type": "constructor"
    },
    {
      "anonymous": false,
      "inputs": [
        {
          "indexed": true,
          "name": "aa",
          "type": "address"
        },
        {
          "indexed": true,
          "name": "title",
          "type": "bytes32"
        },
        {
          "indexed": false,
          "name": "explanation",
          "type": "bytes32"
        }
      ],
      "name": "RegisterAttestationAgency",
      "type": "event"
    },
    {
      "anonymous": false,
      "inputs": [
        {
          "indexed": true,
          "name": "aa",
          "type": "address"
        },
        {
          "indexed": true,
          "name": "title",
          "type": "bytes32"
        },
        {
          "indexed": false,
          "name": "explanation",
          "type": "bytes32"
        }
      ],
      "name": "UpdateAttestationAgency",
      "type": "event"
    },
    {
      "anonymous": false,
      "inputs": [
        {
          "indexed": true,
          "name": "previousOwner",
          "type": "address"
        },
        {
          "indexed": true,
          "name": "newOwner",
          "type": "address"
        }
      ],
      "name": "OwnershipTransferred",
      "type": "event"
    },
    {
      "constant": false,
      "inputs": [
        {
          "name": "_addr",
          "type": "address"
        },
        {
          "name": "_title",
          "type": "bytes32"
        },
        {
          "name": "_explanation",
          "type": "bytes32"
        }
      ],
      "name": "registerAttestationAgency",
      "outputs": [
        {
          "name": "success",
          "type": "bool"
        }
      ],
      "payable": false,
      "stateMutability": "nonpayable",
      "type": "function"
    },
    {
      "constant": false,
      "inputs": [
        {
          "name": "_addr",
          "type": "address"
        },
        {
          "name": "_title",
          "type": "bytes32"
        },
        {
          "name": "_explanation",
          "type": "bytes32"
        }
      ],
      "name": "updateAttestationAgency",
      "outputs": [
        {
          "name": "success",
          "type": "bool"
        }
      ],
      "payable": false,
      "stateMutability": "nonpayable",
      "type": "function"
    },
    {
      "constant": true,
      "inputs": [
        {
          "name": "_addr",
          "type": "address"
        }
      ],
      "name": "isRegistered",
      "outputs": [
        {
          "name": "found",
          "type": "uint256"
        }
      ],
      "payable": false,
      "stateMutability": "view",
      "type": "function"
    },
    {
      "constant": true,
      "inputs": [
        {
          "name": "_num",
          "type": "uint256"
        }
      ],
      "name": "getAttestationAgencySingle",
      "outputs": [
        {
          "name": "addr",
          "type": "address"
        },
        {
          "name": "title",
          "type": "bytes32"
        },
        {
          "name": "explanation",
          "type": "bytes32"
        },
        {
          "name": "createdAt",
          "type": "uint256"
        }
      ],
      "payable": false,
      "stateMutability": "view",
      "type": "function"
    },
    {
      "constant": true,
      "inputs": [
        {
          "name": "_from",
          "type": "uint256"
        },
        {
          "name": "_to",
          "type": "uint256"
        }
      ],
      "name": "getAttestationAgenciesFromTo",
      "outputs": [
        {
          "name": "addrs",
          "type": "address[]"
        },
        {
          "name": "titles",
          "type": "bytes32[]"
        },
        {
          "name": "descs",
          "type": "bytes32[]"
        },
        {
          "name": "createds",
          "type": "uint256[]"
        }
      ],
      "payable": false,
      "stateMutability": "view",
      "type": "function"
    }
  ],
  "bytecode": "0x608060405234801561001057600080fd5b5060008054600160a060020a0319908116331782557f4174746573746174696f6e4167656e6379526567697374727900000000000000600255600160035590805260046020527f17ef568e3e12ab5b9c7254a8d58478811de00f9e6eb34345acd53bf8fd09d3ec8054909116600160a060020a031790557f4d6574616469756d2053656c66536f7665726569676e000000000000000000007f17ef568e3e12ab5b9c7254a8d58478811de00f9e6eb34345acd53bf8fd09d3ed8190557f17ef568e3e12ab5b9c7254a8d58478811de00f9e6eb34345acd53bf8fd09d3ee55427f17ef568e3e12ab5b9c7254a8d58478811de00f9e6eb34345acd53bf8fd09d3ef55610b5d806101206000396000f3006080604052600436106100cf5763ffffffff7c0100000000000000000000000000000000000000000000000000000000600035041663100d5c7d81146100d4578063171edef3146100fb57806339363112146101435780633fd8cc4e1461017457806364319d0b146101a95780638cb2f616146101be5780638da5cb5b146101e5578063a833b2af146101fa578063a91ee0dc14610221578063c1af238614610244578063c3c5a54714610382578063ef352df4146103a3578063f2fde38b146103c4578063f32b94a3146103e5575b600080fd5b3480156100e057600080fd5b506100e96103fd565b60408051918252519081900360200190f35b34801561010757600080fd5b50610113600435610403565b60408051600160a060020a0390951685526020850193909352838301919091526060830152519081900360800190f35b34801561014f57600080fd5b50610158610435565b60408051600160a060020a039092168252519081900360200190f35b34801561018057600080fd5b50610195600160a060020a0360043516610444565b604080519115158252519081900360200190f35b3480156101b557600080fd5b506100e96104eb565b3480156101ca57600080fd5b50610195600160a060020a03600435166024356044356104f1565b3480156101f157600080fd5b50610158610633565b34801561020657600080fd5b50610195600160a060020a0360043516602435604435610642565b34801561022d57600080fd5b50610242600160a060020a03600435166107ca565b005b34801561025057600080fd5b5061025f600435602435610810565b6040518080602001806020018060200180602001858103855289818151815260200191508051906020019060200280838360005b838110156102ab578181015183820152602001610293565b50505050905001858103845288818151815260200191508051906020019060200280838360005b838110156102ea5781810151838201526020016102d2565b50505050905001858103835287818151815260200191508051906020019060200280838360005b83811015610329578181015183820152602001610311565b50505050905001858103825286818151815260200191508051906020019060200280838360005b83811015610368578181015183820152602001610350565b505050509050019850505050505050505060405180910390f35b34801561038e57600080fd5b506100e9600160a060020a0360043516610a3f565b3480156103af57600080fd5b506100e9600160a060020a0360043516610a5a565b3480156103d057600080fd5b50610242600160a060020a0360043516610a6c565b3480156103f157600080fd5b50610113600435610b00565b60035481565b6000908152600460205260409020805460018201546002830154600390930154600160a060020a039092169390929190565b600154600160a060020a031681565b600154600254604080517f60d6c7cf0000000000000000000000000000000000000000000000000000000081526004810192909252600160a060020a038481166024840152905160009391909116916360d6c7cf91604480830192602092919082900301818787803b1580156104b957600080fd5b505af11580156104cd573d6000803e3d6000fd5b505050506040513d60208110156104e357600080fd5b505192915050565b60025481565b6000806104fd33610444565b1515610553576040805160e560020a62461bcd02815260206004820152600d60248201527f4e6f205065726d697373696f6e00000000000000000000000000000000000000604482015290519081900360640190fd5b50600160a060020a0384166000908152600560205260409020548015156105c4576040805160e560020a62461bcd02815260206004820152601660248201527f6e756d6265722073686f756c64206e6f6e2d7a65726f00000000000000000000604482015290519081900360640190fd5b600081815260046020908152604091829020600181018790556002810186905542600390910155815185815291518692600160a060020a038916927f481565c56072c7b776b6cf2187914459bb17db4c7b6bc859fb7e6efd4ff759d992918290030190a3506001949350505050565b600054600160a060020a031681565b600061064d33610444565b15156106a3576040805160e560020a62461bcd02815260206004820152600d60248201527f4e6f205065726d697373696f6e00000000000000000000000000000000000000604482015290519081900360640190fd5b600160a060020a03841660009081526005602052604090205415610711576040805160e560020a62461bcd02815260206004820152600c60248201527f7a65726f20616464726573730000000000000000000000000000000000000000604482015290519081900360640190fd5b600380546000908152600460209081526040808320805473ffffffffffffffffffffffffffffffffffffffff1916600160a060020a038a169081179091558454845281842060019081018990558554855282852060020188905585548552828520429087015585548286526005855294839020859055939093019093558251858152925186937ffff216d1859c44a6cd5fc407d460ef0236d9f1b8f4de519d3a429c145d84058392908290030190a35060019392505050565b600054600160a060020a031633146107e157600080fd5b6001805473ffffffffffffffffffffffffffffffffffffffff1916600160a060020a0392909216919091179055565b60608060608060608060608060006003548a10801561082f5750898b11155b1515610885576040805160e560020a62461bcd02815260206004820152601060248201527f66726f6d20746f206d69736d6174636800000000000000000000000000000000604482015290519081900360640190fd5b8a8a036001016040519080825280602002602001820160405280156108b4578160200160208202803883390190505b5094508a8a036001016040519080825280602002602001820160405280156108e6578160200160208202803883390190505b5093508a8a03600101604051908082528060200260200182016040528015610918578160200160208202803883390190505b5092508a8a0360010160405190808252806020026020018201604052801561094a578160200160208202803883390190505b5091508a90505b898111610a2d576000818152600460205260409020548551600160a060020a039091169086908d840390811061098357fe5b600160a060020a039092166020928302909101820152600082815260049091526040902060020154845185908d84039081106109bb57fe5b6020908102909101810191909152600082815260049091526040902060010154835184908d84039081106109eb57fe5b6020908102909101810191909152600082815260049091526040902060030154825183908d8403908110610a1b57fe5b60209081029091010152600101610951565b50929990985090965090945092505050565b600160a060020a031660009081526005602052604090205490565b60056020526000908152604090205481565b600054600160a060020a03163314610a8357600080fd5b600160a060020a0381161515610a9857600080fd5b60008054604051600160a060020a03808516939216917f8be0079c531659141344cd1fd0a4f28419497f9722a3daafe3b4186f6b6457e091a36000805473ffffffffffffffffffffffffffffffffffffffff1916600160a060020a0392909216919091179055565b6004602052600090815260409020805460018201546002830154600390930154600160a060020a03909216929091845600a165627a7a723058206a7d253ef0229e46c974cde5f50ab9345e958a4e3af7deb35459cbda6bce4c230029",
  "source": "pragma solidity ^0.4.24;\n\nimport \"../RegistryUser.sol\";\n\n/// @title AttestationAgencyRegistry\n/// @author genie\n/// @notice Attestation Agency Registry.\n/// @dev  Attestation Agency can be registered when create achievement or the permissioned user can create.\ncontract AttestationAgencyRegistry is RegistryUser {\n    \n    struct AttestationAgency {\n        address addr;\n        bytes32 title;\n        bytes32 explanation;\n        uint256 createdAt;\n        // code for \n        // bool type isEnterprise;\n         \n    }\n    uint256 public attestationAgencyNum;\n\n    mapping(uint256=>AttestationAgency) public attestationAgencies;\n    mapping(address=>uint256) public isAAregistered;\n    \n    event RegisterAttestationAgency(address indexed aa, bytes32 indexed title, bytes32 explanation);\n    event UpdateAttestationAgency(address indexed aa, bytes32 indexed title, bytes32 explanation);\n\n\n    /**\n     * @dev Metadium SelfSovereign address is used to self claim.\n     */\n    constructor() public {\n        THIS_NAME = \"AttestationAgencyRegistry\";\n        attestationAgencyNum = 1;\n\n        attestationAgencies[0].addr = 0xFFfFfFffFFfffFFfFFfFFFFFffFFFffffFfFFFfF;\n        attestationAgencies[0].title = \"Metadium SelfSovereign\";\n        attestationAgencies[0].explanation = \"Metadium SelfSovereign\";\n        attestationAgencies[0].createdAt = block.timestamp;\n    }\n\n    /**\n     * @dev Register Attestation Agency\n     * @param _addr address to register\n     * @param _title title\n     * @param _explanation explanation\n     * @return A boolean that indicates if the operation was successful.\n     */\n    function registerAttestationAgency(address _addr, bytes32 _title, bytes32 _explanation) public permissioned returns (bool success) {\n        require(isAAregistered[_addr] == 0, \"zero address\");\n        \n        attestationAgencies[attestationAgencyNum].addr = _addr;\n        attestationAgencies[attestationAgencyNum].title = _title;\n        attestationAgencies[attestationAgencyNum].explanation = _explanation;\n        attestationAgencies[attestationAgencyNum].createdAt = block.timestamp;\n\n        isAAregistered[_addr] = attestationAgencyNum;\n\n        attestationAgencyNum++;\n\n        emit RegisterAttestationAgency(_addr, _title, _explanation);\n\n        return true;\n    }   \n\n    /**\n     * @dev Update Attestation Agency\n     * @param _addr address to register\n     * @param _title title\n     * @param _explanation explanation\n     * @return A boolean that indicates if the operation was successful.\n     */\n    function updateAttestationAgency(address _addr, bytes32 _title, bytes32 _explanation) public permissioned returns (bool success) {\n        uint256 _num = isAAregistered[_addr];\n        require(_num != 0, \"number should non-zero\");\n        \n        attestationAgencies[_num].title = _title;\n        attestationAgencies[_num].explanation = _explanation;\n        attestationAgencies[_num].createdAt = block.timestamp;\n\n        emit UpdateAttestationAgency(_addr, _title, _explanation);\n\n        return true;\n\n    }\n\n    function isRegistered(address _addr) public view returns(uint256 found) {\n        return isAAregistered[_addr];\n    }\n\n    function getAttestationAgencySingle(uint256 _num) public view returns(address addr, bytes32 title, bytes32 explanation, uint256 createdAt) {\n        return (\n            attestationAgencies[_num].addr,\n            attestationAgencies[_num].title,\n            attestationAgencies[_num].explanation,\n            attestationAgencies[_num].createdAt\n        );\n    }\n\n    function getAttestationAgenciesFromTo(uint256 _from, uint256 _to)\n    public\n    view\n    returns(address[] addrs, bytes32[] titles, bytes32[] descs, uint256[] createds)\n    {\n        \n        require(_to<attestationAgencyNum && _from <= _to, \"from to mismatch\");\n        \n        address[] memory saddrs = new address[](_to-_from+1);\n        bytes32[] memory sdescs = new bytes32[](_to-_from+1);\n        bytes32[] memory stitles = new bytes32[](_to-_from+1);\n        uint256[] memory screateds = new uint256[](_to-_from+1);\n\n        for (uint256 i = _from;i<=_to;i++) {\n            saddrs[i-_from] = attestationAgencies[i].addr;\n            sdescs[i-_from] = attestationAgencies[i].explanation;\n            stitles[i-_from] = attestationAgencies[i].title;\n            screateds[i-_from] = attestationAgencies[i].createdAt;\n        }\n\n        return (saddrs, stitles, sdescs, screateds);\n    } \n    \n\n}\n",
  "sourcePath": "/Users/coinplug/BangGijin/metabolics2.0/contracts/registry/AttestationAgencyRegistry.sol",
  "compiler": {
    "name": "solc",
    "version": "0.4.24+commit.e67f0147.Emscripten.clang"
  },
  "schemaVersion": "2.0.1",
  "updatedAt": "2018-12-05T09:00:16.384Z"
}