{
  "contractName": "AttestationAgencyRegistry",
  "abi": [
    {
      "constant": true,
      "inputs": [],
      "name": "REG",
      "outputs": [
        {
          "name": "",
          "type": "address"
        }
      ],
      "payable": false,
      "stateMutability": "view",
      "type": "function"
    },
    {
      "constant": false,
      "inputs": [],
      "name": "isPermitted",
      "outputs": [
        {
          "name": "",
          "type": "bool"
        }
      ],
      "payable": false,
      "stateMutability": "nonpayable",
      "type": "function"
    },
    {
      "constant": true,
      "inputs": [],
      "name": "THIS_NAME",
      "outputs": [
        {
          "name": "",
          "type": "bytes32"
        }
      ],
      "payable": false,
      "stateMutability": "view",
      "type": "function"
    },
    {
      "constant": true,
      "inputs": [],
      "name": "owner",
      "outputs": [
        {
          "name": "",
          "type": "address"
        }
      ],
      "payable": false,
      "stateMutability": "view",
      "type": "function"
    },
    {
      "constant": false,
      "inputs": [
        {
          "name": "_addr",
          "type": "address"
        }
      ],
      "name": "setRegistry",
      "outputs": [],
      "payable": false,
      "stateMutability": "nonpayable",
      "type": "function"
    },
    {
      "constant": true,
      "inputs": [
        {
          "name": "",
          "type": "address"
        }
      ],
      "name": "isAARegisterd",
      "outputs": [
        {
          "name": "",
          "type": "uint256"
        }
      ],
      "payable": false,
      "stateMutability": "view",
      "type": "function"
    },
    {
      "constant": false,
      "inputs": [
        {
          "name": "newOwner",
          "type": "address"
        }
      ],
      "name": "transferOwnership",
      "outputs": [],
      "payable": false,
      "stateMutability": "nonpayable",
      "type": "function"
    },
    {
      "constant": true,
      "inputs": [
        {
          "name": "",
          "type": "uint256"
        }
      ],
      "name": "attestationAgencies",
      "outputs": [
        {
          "name": "addr",
          "type": "address"
        },
        {
          "name": "title",
          "type": "bytes32"
        },
        {
          "name": "description",
          "type": "bytes32"
        }
      ],
      "payable": false,
      "stateMutability": "view",
      "type": "function"
    },
    {
      "inputs": [],
      "payable": false,
      "stateMutability": "nonpayable",
      "type": "constructor"
    },
    {
      "anonymous": false,
      "inputs": [
        {
          "indexed": false,
          "name": "addr",
          "type": "address"
        },
        {
          "indexed": false,
          "name": "name",
          "type": "bytes32"
        },
        {
          "indexed": false,
          "name": "go",
          "type": "bool"
        }
      ],
      "name": "Per",
      "type": "event"
    },
    {
      "anonymous": false,
      "inputs": [
        {
          "indexed": true,
          "name": "previousOwner",
          "type": "address"
        },
        {
          "indexed": true,
          "name": "newOwner",
          "type": "address"
        }
      ],
      "name": "OwnershipTransferred",
      "type": "event"
    },
    {
      "constant": false,
      "inputs": [
        {
          "name": "_addr",
          "type": "address"
        },
        {
          "name": "_title",
          "type": "bytes32"
        },
        {
          "name": "_description",
          "type": "bytes32"
        }
      ],
      "name": "registerAttestationAgency",
      "outputs": [
        {
          "name": "",
          "type": "bool"
        }
      ],
      "payable": false,
      "stateMutability": "nonpayable",
      "type": "function"
    },
    {
      "constant": true,
      "inputs": [
        {
          "name": "_num",
          "type": "uint256"
        }
      ],
      "name": "getAttestationAgencySingle",
      "outputs": [
        {
          "name": "",
          "type": "address"
        },
        {
          "name": "",
          "type": "bytes32"
        },
        {
          "name": "",
          "type": "bytes32"
        }
      ],
      "payable": false,
      "stateMutability": "view",
      "type": "function"
    },
    {
      "constant": true,
      "inputs": [
        {
          "name": "_from",
          "type": "uint256"
        },
        {
          "name": "_to",
          "type": "uint256"
        }
      ],
      "name": "getAttestationAgenciesFromTo",
      "outputs": [
        {
          "name": "",
          "type": "address[]"
        },
        {
          "name": "",
          "type": "bytes32[]"
        },
        {
          "name": "",
          "type": "bytes32[]"
        }
      ],
      "payable": false,
      "stateMutability": "view",
      "type": "function"
    }
  ],
  "bytecode": "0x608060405234801561001057600080fd5b5060008054600160a060020a0319908116331782557f4174746573746174696f6e4167656e6379526567697374727900000000000000600255600160055590805260036020527f3617319a054d772f909f7c479a2cebe5066e836a939412e32403c99029b92eff8054909116600160a060020a031790557f4d6574616469756d44656661756c7400000000000000000000000000000000007f3617319a054d772f909f7c479a2cebe5066e836a939412e32403c99029b92f008190557f3617319a054d772f909f7c479a2cebe5066e836a939412e32403c99029b92f01556107cd806100fd6000396000f3006080604052600436106100ae5763ffffffff7c0100000000000000000000000000000000000000000000000000000000600035041663171edef381146100b357806339363112146100f35780633f6fd7121461012457806364319d0b1461014d5780638da5cb5b14610174578063a833b2af14610189578063a91ee0dc146101b0578063ae7b9ae9146101d3578063c1af2386146101f4578063f2fde38b146102ed578063f32b94a31461030e575b600080fd5b3480156100bf57600080fd5b506100cb600435610326565b60408051600160a060020a039094168452602084019290925282820152519081900360600190f35b3480156100ff57600080fd5b5061010861034f565b60408051600160a060020a039092168252519081900360200190f35b34801561013057600080fd5b5061013961035e565b604080519115158252519081900360200190f35b34801561015957600080fd5b506101626103fe565b60408051918252519081900360200190f35b34801561018057600080fd5b50610108610404565b34801561019557600080fd5b50610139600160a060020a0360043516602435604435610413565b3480156101bc57600080fd5b506101d1600160a060020a03600435166104c2565b005b3480156101df57600080fd5b50610162600160a060020a0360043516610508565b34801561020057600080fd5b5061020f60043560243561051a565b60405180806020018060200180602001848103845287818151815260200191508051906020019060200280838360005b8381101561025757818101518382015260200161023f565b50505050905001848103835286818151815260200191508051906020019060200280838360005b8381101561029657818101518382015260200161027e565b50505050905001848103825285818151815260200191508051906020019060200280838360005b838110156102d55781810151838201526020016102bd565b50505050905001965050505050505060405180910390f35b3480156102f957600080fd5b506101d1600160a060020a03600435166106e2565b34801561031a57600080fd5b506100cb600435610776565b600090815260036020526040902080546001820154600290920154600160a060020a0390911692565b600154600160a060020a031681565b600154600254604080517f60d6c7cf000000000000000000000000000000000000000000000000000000008152600481019290925233602483015251600092600160a060020a0316916360d6c7cf91604480830192602092919082900301818787803b1580156103cd57600080fd5b505af11580156103e1573d6000803e3d6000fd5b505050506040513d60208110156103f757600080fd5b5051905090565b60025481565b600054600160a060020a031681565b600061041d61035e565b151561042857600080fd5b600160a060020a0384166000908152600460205260409020541561044b57600080fd5b50600580546000908152600360209081526040808320805473ffffffffffffffffffffffffffffffffffffffff1916600160a060020a039890981697881790558354835280832060019081019690965583548352808320600201949094558254958252600490529190912083905591810190915590565b600054600160a060020a031633146104d957600080fd5b6001805473ffffffffffffffffffffffffffffffffffffffff1916600160a060020a0392909216919091179055565b60046020526000908152604090205481565b60608060606000806000806005548810151561053557600080fd5b50875b878110156105cc5760058054600090815260036020908152604080832054885460018181018b558a8652848620909101805473ffffffffffffffffffffffffffffffffffffffff1916600160a060020a0390931692909217909155845484528184206002015488548083018a5589865284862001559354835282208301548554808501875586845291909220015501610538565b8382848280548060200260200160405190810160405280929190818152602001828054801561062457602002820191906000526020600020905b8154600160a060020a03168152600190910190602001808311610606575b505050505092508180548060200260200160405190810160405280929190818152602001828054801561067757602002820191906000526020600020905b81548152600190910190602001808311610662575b50505050509150808054806020026020016040519081016040528092919081815260200182805480156106ca57602002820191906000526020600020905b815481526001909101906020018083116106b5575b50505050509050965096509650505050509250925092565b600054600160a060020a031633146106f957600080fd5b600160a060020a038116151561070e57600080fd5b60008054604051600160a060020a03808516939216917f8be0079c531659141344cd1fd0a4f28419497f9722a3daafe3b4186f6b6457e091a36000805473ffffffffffffffffffffffffffffffffffffffff1916600160a060020a0392909216919091179055565b600360205260009081526040902080546001820154600290920154600160a060020a039091169190835600a165627a7a72305820663053a1e7f9c8d89dd2eba464f6a817ff68b29efd0aa4a90668ef96e78c51c70029",
  "source": "pragma solidity ^0.4.24;\n\nimport \"../RegistryUser.sol\";\n\n/// @title AttestationAgencyRegistry\n/// @author genie\n/// @notice Attestation Agency Registry.\n/// @dev  Attestation Agency can be registered when create achievement or the permissioned user can create.\ncontract AttestationAgencyRegistry is RegistryUser {\n    \n    struct AttestationAgency {\n        address addr;\n        bytes32 title;\n        bytes32 description;\n        // code for \n        // bool type isEnterprise;\n         \n    }\n\n    mapping(uint256=>AttestationAgency) public attestationAgencies;\n    mapping(address=>uint256) public isAARegisterd;\n    uint256 attestationAgencyNum;\n\n    function AttestationAgencyRegistry() public {\n        THIS_NAME = \"AttestationAgencyRegistry\";\n        attestationAgencyNum = 1;\n\n        attestationAgencies[0].addr = 0xFFFFFFFFFFFFFFFFFFFFFFFFFFFFFFFFFFFFFFFF;\n        attestationAgencies[0].title = 'MetadiumDefault';\n        attestationAgencies[0].description = 'MetadiumDefault';\n    }\n\n    function registerAttestationAgency(address _addr, bytes32 _title, bytes32 _description) permissioned public returns (bool) {\n        require(isAARegisterd[_addr] == 0);\n        \n        attestationAgencies[attestationAgencyNum].addr = _addr;\n        attestationAgencies[attestationAgencyNum].title = _title;\n        attestationAgencies[attestationAgencyNum].description = _description;\n\n        isAARegisterd[_addr] = attestationAgencyNum;\n\n        attestationAgencyNum++;\n\n        return true;\n    }   \n\n    function getAttestationAgencySingle(uint256 _num) view public returns(address, bytes32, bytes32) {\n        return (\n            attestationAgencies[_num].addr,\n            attestationAgencies[_num].title,\n            attestationAgencies[_num].description\n        );\n    }\n\n    function getAttestationAgenciesFromTo(uint256 _from, uint256 _to) view public returns(address[], bytes32[], bytes32[]){\n        \n        require(_to<attestationAgencyNum);\n        \n        address[] storage saddrs;\n        bytes32[] storage sdescs;\n        bytes32[] storage stitles;\n\n        for(uint256 i=_from;i<_to;i++){\n            saddrs.push(attestationAgencies[attestationAgencyNum].addr);\n            sdescs.push(attestationAgencies[attestationAgencyNum].description);\n            stitles.push(attestationAgencies[attestationAgencyNum].title);\n        }\n\n        return (saddrs, stitles, sdescs);\n    } \n    \n\n}\n",
  "sourcePath": "/Users/coinplug/BangGijin/metabolics2.0/contracts/registry/AttestationAgencyRegistry.sol",
  "compiler": {
    "name": "solc",
    "version": "0.4.24+commit.e67f0147.Emscripten.clang"
  },
  "schemaVersion": "2.0.1",
  "updatedAt": "2018-10-22T04:51:30.663Z"
}