{
  "contractName": "AttestationAgencyRegistry",
  "abi": [
    {
      "constant": true,
      "inputs": [],
      "name": "REG",
      "outputs": [
        {
          "name": "",
          "type": "address"
        }
      ],
      "payable": false,
      "stateMutability": "view",
      "type": "function"
    },
    {
      "constant": false,
      "inputs": [],
      "name": "isPermitted",
      "outputs": [
        {
          "name": "",
          "type": "bool"
        }
      ],
      "payable": false,
      "stateMutability": "nonpayable",
      "type": "function"
    },
    {
      "constant": true,
      "inputs": [],
      "name": "THIS_NAME",
      "outputs": [
        {
          "name": "",
          "type": "bytes32"
        }
      ],
      "payable": false,
      "stateMutability": "view",
      "type": "function"
    },
    {
      "constant": true,
      "inputs": [],
      "name": "owner",
      "outputs": [
        {
          "name": "",
          "type": "address"
        }
      ],
      "payable": false,
      "stateMutability": "view",
      "type": "function"
    },
    {
      "constant": false,
      "inputs": [
        {
          "name": "_addr",
          "type": "address"
        }
      ],
      "name": "setRegistry",
      "outputs": [],
      "payable": false,
      "stateMutability": "nonpayable",
      "type": "function"
    },
    {
      "constant": true,
      "inputs": [
        {
          "name": "",
          "type": "address"
        }
      ],
      "name": "isAARegisterd",
      "outputs": [
        {
          "name": "",
          "type": "bool"
        }
      ],
      "payable": false,
      "stateMutability": "view",
      "type": "function"
    },
    {
      "constant": false,
      "inputs": [
        {
          "name": "newOwner",
          "type": "address"
        }
      ],
      "name": "transferOwnership",
      "outputs": [],
      "payable": false,
      "stateMutability": "nonpayable",
      "type": "function"
    },
    {
      "constant": true,
      "inputs": [
        {
          "name": "",
          "type": "uint256"
        }
      ],
      "name": "attestationAgencies",
      "outputs": [
        {
          "name": "addr",
          "type": "address"
        },
        {
          "name": "description",
          "type": "bytes32"
        },
        {
          "name": "title",
          "type": "bytes32"
        }
      ],
      "payable": false,
      "stateMutability": "view",
      "type": "function"
    },
    {
      "inputs": [],
      "payable": false,
      "stateMutability": "nonpayable",
      "type": "constructor"
    },
    {
      "anonymous": false,
      "inputs": [
        {
          "indexed": false,
          "name": "addr",
          "type": "address"
        },
        {
          "indexed": false,
          "name": "name",
          "type": "bytes32"
        },
        {
          "indexed": false,
          "name": "go",
          "type": "bool"
        }
      ],
      "name": "Per",
      "type": "event"
    },
    {
      "anonymous": false,
      "inputs": [
        {
          "indexed": true,
          "name": "previousOwner",
          "type": "address"
        },
        {
          "indexed": true,
          "name": "newOwner",
          "type": "address"
        }
      ],
      "name": "OwnershipTransferred",
      "type": "event"
    },
    {
      "constant": false,
      "inputs": [
        {
          "name": "_addr",
          "type": "address"
        },
        {
          "name": "_description",
          "type": "bytes32"
        }
      ],
      "name": "registerAttestationAgency",
      "outputs": [
        {
          "name": "",
          "type": "bool"
        }
      ],
      "payable": false,
      "stateMutability": "nonpayable",
      "type": "function"
    },
    {
      "constant": true,
      "inputs": [
        {
          "name": "from",
          "type": "uint256"
        },
        {
          "name": "to",
          "type": "uint256"
        }
      ],
      "name": "getAttestationAgenciesFromTo",
      "outputs": [
        {
          "name": "",
          "type": "address[]"
        },
        {
          "name": "",
          "type": "bytes32[]"
        }
      ],
      "payable": false,
      "stateMutability": "view",
      "type": "function"
    }
  ],
  "bytecode": "0x608060405234801561001057600080fd5b5060008054600160a060020a031916331790557f4174746573746174696f6e4167656e63795265676973747279000000000000006002556106c3806100566000396000f3006080604052600436106100a35763ffffffff7c01000000000000000000000000000000000000000000000000000000006000350416633936311281146100a85780633f6fd712146100d957806364319d0b146101025780638da5cb5b14610129578063a91ee0dc1461013e578063ae7b9ae914610161578063c1af238614610182578063c7d9ed9314610236578063f2fde38b1461025a578063f32b94a31461027b575b600080fd5b3480156100b457600080fd5b506100bd6102bb565b60408051600160a060020a039092168252519081900360200190f35b3480156100e557600080fd5b506100ee6102ca565b604080519115158252519081900360200190f35b34801561010e57600080fd5b5061011761036a565b60408051918252519081900360200190f35b34801561013557600080fd5b506100bd610370565b34801561014a57600080fd5b5061015f600160a060020a036004351661037f565b005b34801561016d57600080fd5b506100ee600160a060020a03600435166103c5565b34801561018e57600080fd5b5061019d6004356024356103da565b604051808060200180602001838103835285818151815260200191508051906020019060200280838360005b838110156101e15781810151838201526020016101c9565b50505050905001838103825284818151815260200191508051906020019060200280838360005b83811015610220578181015183820152602001610208565b5050505090500194505050505060405180910390f35b34801561024257600080fd5b506100ee600160a060020a036004351660243561052e565b34801561026657600080fd5b5061015f600160a060020a03600435166105d8565b34801561028757600080fd5b5061029360043561066c565b60408051600160a060020a039094168452602084019290925282820152519081900360600190f35b600154600160a060020a031681565b600154600254604080517f60d6c7cf000000000000000000000000000000000000000000000000000000008152600481019290925233602483015251600092600160a060020a0316916360d6c7cf91604480830192602092919082900301818787803b15801561033957600080fd5b505af115801561034d573d6000803e3d6000fd5b505050506040513d602081101561036357600080fd5b5051905090565b60025481565b600054600160a060020a031681565b600054600160a060020a0316331461039657600080fd5b6001805473ffffffffffffffffffffffffffffffffffffffff1916600160a060020a0392909216919091179055565b60046020526000908152604090205460ff1681565b6060806000806000600554861015156103f257600080fd5b50855b8581101561046f5760058054600090815260036020908152604080832054875460018181018a55898652848620909101805473ffffffffffffffffffffffffffffffffffffffff1916600160a060020a039093169290921790915593548352822083015485548085018755868452919092200155016103f5565b8282818054806020026020016040519081016040528092919081815260200182805480156104c657602002820191906000526020600020905b8154600160a060020a031681526001909101906020018083116104a8575b505050505091508080548060200260200160405190810160405280929190818152602001828054801561051957602002820191906000526020600020905b81548152600190910190602001808311610504575b50505050509050945094505050509250929050565b60006105386102ca565b151561054357600080fd5b600160a060020a03831660009081526004602052604090205460ff161561056957600080fd5b506005805460009081526003602090815260408083208054600160a060020a03881673ffffffffffffffffffffffffffffffffffffffff19909116811790915584548452818420600190810187905585548101909555835260049091529020805460ff19168217905592915050565b600054600160a060020a031633146105ef57600080fd5b600160a060020a038116151561060457600080fd5b60008054604051600160a060020a03808516939216917f8be0079c531659141344cd1fd0a4f28419497f9722a3daafe3b4186f6b6457e091a36000805473ffffffffffffffffffffffffffffffffffffffff1916600160a060020a0392909216919091179055565b600360205260009081526040902080546001820154600290920154600160a060020a039091169190835600a165627a7a723058203a763058a2fa82d22f85120cf3b30c0f5298414b5ef01f76ae65f2bffa957bf20029",
  "source": "pragma solidity ^0.4.24;\n\nimport \"../RegistryUser.sol\";\n\n/// @title AttestationAgencyRegistry\n/// @author genie\n/// @notice Attestation Agency Registry.\n/// @dev  Attestation Agency can be registered when create achievement or the permissioned user can create.\ncontract AttestationAgencyRegistry is RegistryUser {\n    \n    struct AttestationAgency {\n        address addr;\n        bytes32 description;\n        // code for \n        // bool type isEnterprise;\n         bytes32 title;\n    }\n\n    mapping(uint256=>AttestationAgency) public attestationAgencies;\n    mapping(address=>bool) public isAARegisterd;\n    uint256 attestationAgencyNum;\n\n    function AttestationAgencyRegistry() public {\n        THIS_NAME = \"AttestationAgencyRegistry\";\n    }\n\n    function registerAttestationAgency(address _addr, bytes32 _description) permissioned public returns (bool) {\n        require(!isAARegisterd[_addr]);\n        \n        attestationAgencies[attestationAgencyNum].addr = _addr;\n        attestationAgencies[attestationAgencyNum].description = _description;\n\n        attestationAgencyNum++;\n        isAARegisterd[_addr] = true;\n        return true;\n    }   \n    \n    function getAttestationAgenciesFromTo(uint256 from, uint256 to) view public returns(address[], bytes32[]){\n        \n        require(to<attestationAgencyNum);\n        \n        address[] storage saddrs;\n        bytes32[] storage sdescs;\n\n        for(uint256 i=from;i<to;i++){\n            saddrs.push(attestationAgencies[attestationAgencyNum].addr);\n            sdescs.push(attestationAgencies[attestationAgencyNum].description);\n        }\n\n        return (saddrs, sdescs);\n    } \n    \n\n}\n",
  "sourcePath": "/Users/coinplug/BangGijin/metabolics2.0/contracts/registry/AttestationAgencyRegistry.sol",
  "compiler": {
    "name": "solc",
    "version": "0.4.24+commit.e67f0147.Emscripten.clang"
  },
  "schemaVersion": "2.0.1",
  "updatedAt": "2018-10-08T08:14:57.276Z"
}