{
  "contractName": "AttestationAgencyRegistry",
  "abi": [
    {
      "constant": true,
      "inputs": [],
      "name": "attestationAgencyNum",
      "outputs": [
        {
          "name": "",
          "type": "uint256"
        }
      ],
      "payable": false,
      "stateMutability": "view",
      "type": "function"
    },
    {
      "constant": true,
      "inputs": [],
      "name": "REG",
      "outputs": [
        {
          "name": "",
          "type": "address"
        }
      ],
      "payable": false,
      "stateMutability": "view",
      "type": "function"
    },
    {
      "constant": true,
      "inputs": [
        {
          "name": "_addr",
          "type": "address"
        }
      ],
      "name": "isPermitted",
      "outputs": [
        {
          "name": "found",
          "type": "bool"
        }
      ],
      "payable": false,
      "stateMutability": "view",
      "type": "function"
    },
    {
      "constant": true,
      "inputs": [],
      "name": "THIS_NAME",
      "outputs": [
        {
          "name": "",
          "type": "bytes32"
        }
      ],
      "payable": false,
      "stateMutability": "view",
      "type": "function"
    },
    {
      "constant": true,
      "inputs": [],
      "name": "owner",
      "outputs": [
        {
          "name": "",
          "type": "address"
        }
      ],
      "payable": false,
      "stateMutability": "view",
      "type": "function"
    },
    {
      "constant": false,
      "inputs": [
        {
          "name": "_addr",
          "type": "address"
        }
      ],
      "name": "setRegistry",
      "outputs": [],
      "payable": false,
      "stateMutability": "nonpayable",
      "type": "function"
    },
    {
      "constant": true,
      "inputs": [
        {
          "name": "",
          "type": "address"
        }
      ],
      "name": "isAAregistered",
      "outputs": [
        {
          "name": "",
          "type": "uint256"
        }
      ],
      "payable": false,
      "stateMutability": "view",
      "type": "function"
    },
    {
      "constant": false,
      "inputs": [
        {
          "name": "newOwner",
          "type": "address"
        }
      ],
      "name": "transferOwnership",
      "outputs": [],
      "payable": false,
      "stateMutability": "nonpayable",
      "type": "function"
    },
    {
      "constant": true,
      "inputs": [
        {
          "name": "",
          "type": "uint256"
        }
      ],
      "name": "attestationAgencies",
      "outputs": [
        {
          "name": "addr",
          "type": "address"
        },
        {
          "name": "title",
          "type": "bytes32"
        },
        {
          "name": "explanation",
          "type": "bytes32"
        },
        {
          "name": "createdAt",
          "type": "uint256"
        }
      ],
      "payable": false,
      "stateMutability": "view",
      "type": "function"
    },
    {
      "inputs": [],
      "payable": false,
      "stateMutability": "nonpayable",
      "type": "constructor"
    },
    {
      "anonymous": false,
      "inputs": [
        {
          "indexed": true,
          "name": "aa",
          "type": "address"
        },
        {
          "indexed": true,
          "name": "title",
          "type": "bytes32"
        },
        {
          "indexed": false,
          "name": "explanation",
          "type": "bytes32"
        }
      ],
      "name": "RegisterAttestationAgency",
      "type": "event"
    },
    {
      "anonymous": false,
      "inputs": [
        {
          "indexed": true,
          "name": "aa",
          "type": "address"
        },
        {
          "indexed": true,
          "name": "title",
          "type": "bytes32"
        },
        {
          "indexed": false,
          "name": "explanation",
          "type": "bytes32"
        }
      ],
      "name": "UpdateAttestationAgency",
      "type": "event"
    },
    {
      "anonymous": false,
      "inputs": [
        {
          "indexed": false,
          "name": "addr",
          "type": "address"
        },
        {
          "indexed": false,
          "name": "name",
          "type": "bytes32"
        },
        {
          "indexed": false,
          "name": "go",
          "type": "bool"
        }
      ],
      "name": "Per",
      "type": "event"
    },
    {
      "anonymous": false,
      "inputs": [
        {
          "indexed": true,
          "name": "previousOwner",
          "type": "address"
        },
        {
          "indexed": true,
          "name": "newOwner",
          "type": "address"
        }
      ],
      "name": "OwnershipTransferred",
      "type": "event"
    },
    {
      "constant": false,
      "inputs": [
        {
          "name": "_addr",
          "type": "address"
        },
        {
          "name": "_title",
          "type": "bytes32"
        },
        {
          "name": "_explanation",
          "type": "bytes32"
        }
      ],
      "name": "registerAttestationAgency",
      "outputs": [
        {
          "name": "success",
          "type": "bool"
        }
      ],
      "payable": false,
      "stateMutability": "nonpayable",
      "type": "function"
    },
    {
      "constant": false,
      "inputs": [
        {
          "name": "_num",
          "type": "uint256"
        },
        {
          "name": "_addr",
          "type": "address"
        },
        {
          "name": "_title",
          "type": "bytes32"
        },
        {
          "name": "_explanation",
          "type": "bytes32"
        }
      ],
      "name": "updateAttestationAgency",
      "outputs": [
        {
          "name": "success",
          "type": "bool"
        }
      ],
      "payable": false,
      "stateMutability": "nonpayable",
      "type": "function"
    },
    {
      "constant": true,
      "inputs": [
        {
          "name": "_addr",
          "type": "address"
        }
      ],
      "name": "isRegistered",
      "outputs": [
        {
          "name": "found",
          "type": "uint256"
        }
      ],
      "payable": false,
      "stateMutability": "view",
      "type": "function"
    },
    {
      "constant": true,
      "inputs": [
        {
          "name": "_num",
          "type": "uint256"
        }
      ],
      "name": "getAttestationAgencySingle",
      "outputs": [
        {
          "name": "addr",
          "type": "address"
        },
        {
          "name": "title",
          "type": "bytes32"
        },
        {
          "name": "explanation",
          "type": "bytes32"
        },
        {
          "name": "createdAt",
          "type": "uint256"
        }
      ],
      "payable": false,
      "stateMutability": "view",
      "type": "function"
    },
    {
      "constant": true,
      "inputs": [
        {
          "name": "_from",
          "type": "uint256"
        },
        {
          "name": "_to",
          "type": "uint256"
        }
      ],
      "name": "getAttestationAgenciesFromTo",
      "outputs": [
        {
          "name": "addrs",
          "type": "address[]"
        },
        {
          "name": "titles",
          "type": "bytes32[]"
        },
        {
          "name": "descs",
          "type": "bytes32[]"
        },
        {
          "name": "createds",
          "type": "uint256[]"
        }
      ],
      "payable": false,
      "stateMutability": "view",
      "type": "function"
    }
  ],
  "bytecode": "0x608060405234801561001057600080fd5b5060008054600160a060020a0319908116331782557f4174746573746174696f6e4167656e6379526567697374727900000000000000600255600160035590805260046020527f17ef568e3e12ab5b9c7254a8d58478811de00f9e6eb34345acd53bf8fd09d3ec8054909116600160a060020a031790557f4d6574616469756d44656661756c7400000000000000000000000000000000007f17ef568e3e12ab5b9c7254a8d58478811de00f9e6eb34345acd53bf8fd09d3ed8190557f17ef568e3e12ab5b9c7254a8d58478811de00f9e6eb34345acd53bf8fd09d3ee55427f17ef568e3e12ab5b9c7254a8d58478811de00f9e6eb34345acd53bf8fd09d3ef55610a06806101206000396000f3006080604052600436106100cf5763ffffffff7c0100000000000000000000000000000000000000000000000000000000600035041663100d5c7d81146100d4578063171edef3146100fb57806339363112146101435780633fd8cc4e14610174578063474374ee146101a957806364319d0b146101d35780638da5cb5b146101e8578063a833b2af146101fd578063a91ee0dc14610224578063c1af238614610247578063c3c5a54714610385578063ef352df4146103a6578063f2fde38b146103c7578063f32b94a3146103e8575b600080fd5b3480156100e057600080fd5b506100e9610400565b60408051918252519081900360200190f35b34801561010757600080fd5b50610113600435610406565b60408051600160a060020a0390951685526020850193909352838301919091526060830152519081900360800190f35b34801561014f57600080fd5b50610158610438565b60408051600160a060020a039092168252519081900360200190f35b34801561018057600080fd5b50610195600160a060020a0360043516610447565b604080519115158252519081900360200190f35b3480156101b557600080fd5b50610195600435600160a060020a03602435166044356064356104ee565b3480156101df57600080fd5b506100e96105b8565b3480156101f457600080fd5b506101586105be565b34801561020957600080fd5b50610195600160a060020a03600435166024356044356105cd565b34801561023057600080fd5b50610245600160a060020a03600435166106bf565b005b34801561025357600080fd5b50610262600435602435610705565b6040518080602001806020018060200180602001858103855289818151815260200191508051906020019060200280838360005b838110156102ae578181015183820152602001610296565b50505050905001858103845288818151815260200191508051906020019060200280838360005b838110156102ed5781810151838201526020016102d5565b50505050905001858103835287818151815260200191508051906020019060200280838360005b8381101561032c578181015183820152602001610314565b50505050905001858103825286818151815260200191508051906020019060200280838360005b8381101561036b578181015183820152602001610353565b505050509050019850505050505050505060405180910390f35b34801561039157600080fd5b506100e9600160a060020a03600435166108e8565b3480156103b257600080fd5b506100e9600160a060020a0360043516610903565b3480156103d357600080fd5b50610245600160a060020a0360043516610915565b3480156103f457600080fd5b506101136004356109a9565b60035481565b6000908152600460205260409020805460018201546002830154600390930154600160a060020a039092169390929190565b600154600160a060020a031681565b600154600254604080517f60d6c7cf0000000000000000000000000000000000000000000000000000000081526004810192909252600160a060020a038481166024840152905160009391909116916360d6c7cf91604480830192602092919082900301818787803b1580156104bc57600080fd5b505af11580156104d0573d6000803e3d6000fd5b505050506040513d60208110156104e657600080fd5b505192915050565b60006104f933610447565b151561050457600080fd5b600160a060020a038416600090815260056020526040902054851461052857600080fd5b600085815260046020908152604091829020805473ffffffffffffffffffffffffffffffffffffffff1916600160a060020a038816908117825560018201879055600282018690554260039092019190915582518581529251869391927f481565c56072c7b776b6cf2187914459bb17db4c7b6bc859fb7e6efd4ff759d9928290030190a3506001949350505050565b60025481565b600054600160a060020a031681565b60006105d833610447565b15156105e357600080fd5b600160a060020a0384166000908152600560205260409020541561060657600080fd5b600380546000908152600460209081526040808320805473ffffffffffffffffffffffffffffffffffffffff1916600160a060020a038a169081179091558454845281842060019081018990558554855282852060020188905585548552828520429087015585548286526005855294839020859055939093019093558251858152925186937ffff216d1859c44a6cd5fc407d460ef0236d9f1b8f4de519d3a429c145d84058392908290030190a35060019392505050565b600054600160a060020a031633146106d657600080fd5b6001805473ffffffffffffffffffffffffffffffffffffffff1916600160a060020a0392909216919091179055565b60608060608060608060608060006003548a1080156107235750898b105b151561072e57600080fd5b8a8a0360010160405190808252806020026020018201604052801561075d578160200160208202803883390190505b5094508a8a0360010160405190808252806020026020018201604052801561078f578160200160208202803883390190505b5093508a8a036001016040519080825280602002602001820160405280156107c1578160200160208202803883390190505b5092508a8a036001016040519080825280602002602001820160405280156107f3578160200160208202803883390190505b5091508a90505b8981116108d6576000818152600460205260409020548551600160a060020a039091169086908d840390811061082c57fe5b600160a060020a039092166020928302909101820152600082815260049091526040902060020154845185908d840390811061086457fe5b6020908102909101810191909152600082815260049091526040902060010154835184908d840390811061089457fe5b6020908102909101810191909152600082815260049091526040902060030154825183908d84039081106108c457fe5b602090810290910101526001016107fa565b50929990985090965090945092505050565b600160a060020a031660009081526005602052604090205490565b60056020526000908152604090205481565b600054600160a060020a0316331461092c57600080fd5b600160a060020a038116151561094157600080fd5b60008054604051600160a060020a03808516939216917f8be0079c531659141344cd1fd0a4f28419497f9722a3daafe3b4186f6b6457e091a36000805473ffffffffffffffffffffffffffffffffffffffff1916600160a060020a0392909216919091179055565b6004602052600090815260409020805460018201546002830154600390930154600160a060020a03909216929091845600a165627a7a72305820d429907900fc4d85063d5456fd15c5939170fd0b0e50da8d3cce2f412e3b6f3f0029",
  "source": "pragma solidity ^0.4.24;\n\nimport \"../RegistryUser.sol\";\n\n/// @title AttestationAgencyRegistry\n/// @author genie\n/// @notice Attestation Agency Registry.\n/// @dev  Attestation Agency can be registered when create achievement or the permissioned user can create.\ncontract AttestationAgencyRegistry is RegistryUser {\n    \n    struct AttestationAgency {\n        address addr;\n        bytes32 title;\n        bytes32 explanation;\n        uint256 createdAt;\n        // code for \n        // bool type isEnterprise;\n         \n    }\n    uint256 public attestationAgencyNum;\n\n    mapping(uint256=>AttestationAgency) public attestationAgencies;\n    mapping(address=>uint256) public isAAregistered;\n    \n    event RegisterAttestationAgency(address indexed aa, bytes32 indexed title, bytes32 explanation);\n    event UpdateAttestationAgency(address indexed aa, bytes32 indexed title, bytes32 explanation);\n\n    constructor() public {\n        THIS_NAME = \"AttestationAgencyRegistry\";\n        attestationAgencyNum = 1;\n\n        attestationAgencies[0].addr = 0xFFfFfFffFFfffFFfFFfFFFFFffFFFffffFfFFFfF;\n        attestationAgencies[0].title = 'MetadiumDefault';\n        attestationAgencies[0].explanation = 'MetadiumDefault';\n        attestationAgencies[0].createdAt = now;\n    }\n\n    /**\n     * @dev Register Attestation Agency\n     * @param _addr address to register\n     * @param _title title\n     * @param _explanation explanation\n     * @return A boolean that indicates if the operation was successful.\n     */\n    function registerAttestationAgency(address _addr, bytes32 _title, bytes32 _explanation) permissioned public returns (bool success) {\n        require(isAAregistered[_addr] == 0);\n        \n        attestationAgencies[attestationAgencyNum].addr = _addr;\n        attestationAgencies[attestationAgencyNum].title = _title;\n        attestationAgencies[attestationAgencyNum].explanation = _explanation;\n        attestationAgencies[attestationAgencyNum].createdAt = now;\n\n        isAAregistered[_addr] = attestationAgencyNum;\n\n        attestationAgencyNum++;\n\n        emit RegisterAttestationAgency(_addr, _title, _explanation);\n\n        return true;\n    }   \n\n    /**\n     * @dev Update Attestation Agency\n     * @param _num index of the AA\n     * @param _addr address to register\n     * @param _title title\n     * @param _explanation explanation\n     * @return A boolean that indicates if the operation was successful.\n     */\n    function updateAttestationAgency(uint256 _num, address _addr, bytes32 _title, bytes32 _explanation) permissioned public returns (bool success) {\n        \n        require(isAAregistered[_addr] == _num);\n\n        attestationAgencies[_num].addr = _addr;\n        attestationAgencies[_num].title = _title;\n        attestationAgencies[_num].explanation = _explanation;\n        attestationAgencies[_num].createdAt = now;\n\n        emit UpdateAttestationAgency(_addr, _title, _explanation);\n\n        return true;\n\n    }\n\n    function isRegistered(address _addr) view public returns(uint256 found){\n        return isAAregistered[_addr];\n    }\n\n    function getAttestationAgencySingle(uint256 _num) view public returns(address addr, bytes32 title, bytes32 explanation, uint256 createdAt) {\n        return (\n            attestationAgencies[_num].addr,\n            attestationAgencies[_num].title,\n            attestationAgencies[_num].explanation,\n            attestationAgencies[_num].createdAt\n        );\n    }\n\n    function getAttestationAgenciesFromTo(uint256 _from, uint256 _to) view public returns(address[] addrs, bytes32[] titles, bytes32[] descs, uint256[] createds){\n        \n        require(_to<attestationAgencyNum && _from < _to);\n        \n        address[] memory saddrs = new address[](_to-_from+1);\n        bytes32[] memory sdescs = new bytes32[](_to-_from+1);\n        bytes32[] memory stitles = new bytes32[](_to-_from+1);\n        uint256[] memory screateds = new uint256[](_to-_from+1);\n\n        for(uint256 i=_from;i<=_to;i++){\n            saddrs[i-_from] = attestationAgencies[i].addr;\n            sdescs[i-_from] = attestationAgencies[i].explanation;\n            stitles[i-_from] = attestationAgencies[i].title;\n            screateds[i-_from] = attestationAgencies[i].createdAt;\n        }\n\n        return (saddrs, stitles, sdescs, screateds);\n    } \n    \n\n}\n",
  "sourcePath": "/Users/coinplug/BangGijin/metabolics2.0/contracts/registry/AttestationAgencyRegistry.sol",
  "compiler": {
    "name": "solc",
    "version": "0.4.24+commit.e67f0147.Emscripten.clang"
  },
  "schemaVersion": "2.0.1",
  "updatedAt": "2018-10-29T09:32:39.202Z"
}