{
  "contractName": "AttestationAgencyRegistry",
  "abi": [
    {
      "constant": true,
      "inputs": [],
      "name": "REG",
      "outputs": [
        {
          "name": "",
          "type": "address"
        }
      ],
      "payable": false,
      "stateMutability": "view",
      "type": "function"
    },
    {
      "constant": false,
      "inputs": [
        {
          "name": "_addr",
          "type": "address"
        }
      ],
      "name": "isPermitted",
      "outputs": [
        {
          "name": "",
          "type": "bool"
        }
      ],
      "payable": false,
      "stateMutability": "nonpayable",
      "type": "function"
    },
    {
      "constant": true,
      "inputs": [],
      "name": "THIS_NAME",
      "outputs": [
        {
          "name": "",
          "type": "bytes32"
        }
      ],
      "payable": false,
      "stateMutability": "view",
      "type": "function"
    },
    {
      "constant": true,
      "inputs": [],
      "name": "owner",
      "outputs": [
        {
          "name": "",
          "type": "address"
        }
      ],
      "payable": false,
      "stateMutability": "view",
      "type": "function"
    },
    {
      "constant": false,
      "inputs": [
        {
          "name": "_addr",
          "type": "address"
        }
      ],
      "name": "setRegistry",
      "outputs": [],
      "payable": false,
      "stateMutability": "nonpayable",
      "type": "function"
    },
    {
      "constant": true,
      "inputs": [
        {
          "name": "",
          "type": "address"
        }
      ],
      "name": "isAAregistered",
      "outputs": [
        {
          "name": "",
          "type": "uint256"
        }
      ],
      "payable": false,
      "stateMutability": "view",
      "type": "function"
    },
    {
      "constant": false,
      "inputs": [
        {
          "name": "newOwner",
          "type": "address"
        }
      ],
      "name": "transferOwnership",
      "outputs": [],
      "payable": false,
      "stateMutability": "nonpayable",
      "type": "function"
    },
    {
      "constant": true,
      "inputs": [
        {
          "name": "",
          "type": "uint256"
        }
      ],
      "name": "attestationAgencies",
      "outputs": [
        {
          "name": "addr",
          "type": "address"
        },
        {
          "name": "title",
          "type": "bytes32"
        },
        {
          "name": "description",
          "type": "bytes32"
        }
      ],
      "payable": false,
      "stateMutability": "view",
      "type": "function"
    },
    {
      "inputs": [],
      "payable": false,
      "stateMutability": "nonpayable",
      "type": "constructor"
    },
    {
      "anonymous": false,
      "inputs": [
        {
          "indexed": true,
          "name": "aa",
          "type": "address"
        },
        {
          "indexed": true,
          "name": "title",
          "type": "bytes32"
        },
        {
          "indexed": false,
          "name": "description",
          "type": "bytes32"
        }
      ],
      "name": "RegisterAttestationAgency",
      "type": "event"
    },
    {
      "anonymous": false,
      "inputs": [
        {
          "indexed": true,
          "name": "aa",
          "type": "address"
        },
        {
          "indexed": true,
          "name": "title",
          "type": "bytes32"
        },
        {
          "indexed": false,
          "name": "description",
          "type": "bytes32"
        }
      ],
      "name": "UpdateAttestationAgency",
      "type": "event"
    },
    {
      "anonymous": false,
      "inputs": [
        {
          "indexed": false,
          "name": "addr",
          "type": "address"
        },
        {
          "indexed": false,
          "name": "name",
          "type": "bytes32"
        },
        {
          "indexed": false,
          "name": "go",
          "type": "bool"
        }
      ],
      "name": "Per",
      "type": "event"
    },
    {
      "anonymous": false,
      "inputs": [
        {
          "indexed": true,
          "name": "previousOwner",
          "type": "address"
        },
        {
          "indexed": true,
          "name": "newOwner",
          "type": "address"
        }
      ],
      "name": "OwnershipTransferred",
      "type": "event"
    },
    {
      "constant": false,
      "inputs": [
        {
          "name": "_addr",
          "type": "address"
        },
        {
          "name": "_title",
          "type": "bytes32"
        },
        {
          "name": "_description",
          "type": "bytes32"
        }
      ],
      "name": "registerAttestationAgency",
      "outputs": [
        {
          "name": "",
          "type": "bool"
        }
      ],
      "payable": false,
      "stateMutability": "nonpayable",
      "type": "function"
    },
    {
      "constant": false,
      "inputs": [
        {
          "name": "_num",
          "type": "uint256"
        },
        {
          "name": "_addr",
          "type": "address"
        },
        {
          "name": "_title",
          "type": "bytes32"
        },
        {
          "name": "_description",
          "type": "bytes32"
        }
      ],
      "name": "updateAttestationAgency",
      "outputs": [
        {
          "name": "",
          "type": "bool"
        }
      ],
      "payable": false,
      "stateMutability": "nonpayable",
      "type": "function"
    },
    {
      "constant": true,
      "inputs": [
        {
          "name": "_addr",
          "type": "address"
        }
      ],
      "name": "isRegistered",
      "outputs": [
        {
          "name": "",
          "type": "uint256"
        }
      ],
      "payable": false,
      "stateMutability": "view",
      "type": "function"
    },
    {
      "constant": true,
      "inputs": [
        {
          "name": "_num",
          "type": "uint256"
        }
      ],
      "name": "getAttestationAgencySingle",
      "outputs": [
        {
          "name": "",
          "type": "address"
        },
        {
          "name": "",
          "type": "bytes32"
        },
        {
          "name": "",
          "type": "bytes32"
        }
      ],
      "payable": false,
      "stateMutability": "view",
      "type": "function"
    },
    {
      "constant": true,
      "inputs": [
        {
          "name": "_from",
          "type": "uint256"
        },
        {
          "name": "_to",
          "type": "uint256"
        }
      ],
      "name": "getAttestationAgenciesFromTo",
      "outputs": [
        {
          "name": "",
          "type": "address[]"
        },
        {
          "name": "",
          "type": "bytes32[]"
        },
        {
          "name": "",
          "type": "bytes32[]"
        }
      ],
      "payable": false,
      "stateMutability": "view",
      "type": "function"
    }
  ],
  "bytecode": "0x608060405234801561001057600080fd5b5060008054600160a060020a0319908116331782557f4174746573746174696f6e4167656e6379526567697374727900000000000000600255600160055590805260036020527f3617319a054d772f909f7c479a2cebe5066e836a939412e32403c99029b92eff8054909116600160a060020a031790557f4d6574616469756d44656661756c7400000000000000000000000000000000007f3617319a054d772f909f7c479a2cebe5066e836a939412e32403c99029b92f008190557f3617319a054d772f909f7c479a2cebe5066e836a939412e32403c99029b92f0155610916806100fd6000396000f3006080604052600436106100c45763ffffffff7c0100000000000000000000000000000000000000000000000000000000600035041663171edef381146100c957806339363112146101095780633fd8cc4e1461013a578063474374ee1461016f57806364319d0b146101995780638da5cb5b146101c0578063a833b2af146101d5578063a91ee0dc146101fc578063c1af23861461021f578063c3c5a54714610318578063ef352df414610339578063f2fde38b1461035a578063f32b94a31461037b575b600080fd5b3480156100d557600080fd5b506100e1600435610393565b60408051600160a060020a039094168452602084019290925282820152519081900360600190f35b34801561011557600080fd5b5061011e6103bc565b60408051600160a060020a039092168252519081900360200190f35b34801561014657600080fd5b5061015b600160a060020a03600435166103cb565b604080519115158252519081900360200190f35b34801561017b57600080fd5b5061015b600435600160a060020a0360243516604435606435610472565b3480156101a557600080fd5b506101ae610543565b60408051918252519081900360200190f35b3480156101cc57600080fd5b5061011e610549565b3480156101e157600080fd5b5061015b600160a060020a0360043516602435604435610558565b34801561020857600080fd5b5061021d600160a060020a036004351661063e565b005b34801561022b57600080fd5b5061023a600435602435610684565b60405180806020018060200180602001848103845287818151815260200191508051906020019060200280838360005b8381101561028257818101518382015260200161026a565b50505050905001848103835286818151815260200191508051906020019060200280838360005b838110156102c15781810151838201526020016102a9565b50505050905001848103825285818151815260200191508051906020019060200280838360005b838110156103005781810151838201526020016102e8565b50505050905001965050505050505060405180910390f35b34801561032457600080fd5b506101ae600160a060020a03600435166107fe565b34801561034557600080fd5b506101ae600160a060020a0360043516610819565b34801561036657600080fd5b5061021d600160a060020a036004351661082b565b34801561038757600080fd5b506100e16004356108bf565b600090815260036020526040902080546001820154600290920154600160a060020a0390911692565b600154600160a060020a031681565b600154600254604080517f60d6c7cf0000000000000000000000000000000000000000000000000000000081526004810192909252600160a060020a038481166024840152905160009391909116916360d6c7cf91604480830192602092919082900301818787803b15801561044057600080fd5b505af1158015610454573d6000803e3d6000fd5b505050506040513d602081101561046a57600080fd5b505192915050565b600061047d336103cb565b151561048857600080fd5b600160a060020a03841660009081526004602052604090205485146104ac57600080fd5b600580546000908152600360209081526040808320805473ffffffffffffffffffffffffffffffffffffffff1916600160a060020a038a16908117909155845484528184206001018890559354835291829020600201859055815185815291518693927f481565c56072c7b776b6cf2187914459bb17db4c7b6bc859fb7e6efd4ff759d992908290030190a3506001949350505050565b60025481565b600054600160a060020a031681565b6000610563336103cb565b151561056e57600080fd5b600160a060020a0384166000908152600460205260409020541561059157600080fd5b600580546000908152600360209081526040808320805473ffffffffffffffffffffffffffffffffffffffff1916600160a060020a038a169081179091558454845281842060019081018990558554855282852060020188905585548286526004855294839020859055939093019093558251858152925186937ffff216d1859c44a6cd5fc407d460ef0236d9f1b8f4de519d3a429c145d84058392908290030190a35060019392505050565b600054600160a060020a0316331461065557600080fd5b6001805473ffffffffffffffffffffffffffffffffffffffff1916600160a060020a0392909216919091179055565b60608060608060608060006005548810801561069f57508789105b15156106aa57600080fd5b8888036001016040519080825280602002602001820160405280156106d9578160200160208202803883390190505b50935088880360010160405190808252806020026020018201604052801561070b578160200160208202803883390190505b50925088880360010160405190808252806020026020018201604052801561073d578160200160208202803883390190505b5091508890505b8781116107f0576000818152600360205260409020548451600160a060020a039091169085908b840390811061077657fe5b600160a060020a039092166020928302909101820152600082815260039091526040902060020154835184908b84039081106107ae57fe5b6020908102909101810191909152600082815260039091526040902060010154825183908b84039081106107de57fe5b60209081029091010152600101610744565b509197919650945092505050565b600160a060020a031660009081526004602052604090205490565b60046020526000908152604090205481565b600054600160a060020a0316331461084257600080fd5b600160a060020a038116151561085757600080fd5b60008054604051600160a060020a03808516939216917f8be0079c531659141344cd1fd0a4f28419497f9722a3daafe3b4186f6b6457e091a36000805473ffffffffffffffffffffffffffffffffffffffff1916600160a060020a0392909216919091179055565b600360205260009081526040902080546001820154600290920154600160a060020a039091169190835600a165627a7a723058209c5779804b4fbfb44ef2c08e7a06f51fea22ad6851e38c9450c2c2e3c2fc18300029",
  "source": "pragma solidity ^0.4.24;\n\nimport \"../RegistryUser.sol\";\n\n/// @title AttestationAgencyRegistry\n/// @author genie\n/// @notice Attestation Agency Registry.\n/// @dev  Attestation Agency can be registered when create achievement or the permissioned user can create.\ncontract AttestationAgencyRegistry is RegistryUser {\n    \n    struct AttestationAgency {\n        address addr;\n        bytes32 title;\n        bytes32 description;\n        // code for \n        // bool type isEnterprise;\n         \n    }\n\n    mapping(uint256=>AttestationAgency) public attestationAgencies;\n    mapping(address=>uint256) public isAAregistered;\n\n    uint256 attestationAgencyNum;\n    \n    event RegisterAttestationAgency(address indexed aa, bytes32 indexed title, bytes32 description);\n    event UpdateAttestationAgency(address indexed aa, bytes32 indexed title, bytes32 description);\n\n    function AttestationAgencyRegistry() public {\n        THIS_NAME = \"AttestationAgencyRegistry\";\n        attestationAgencyNum = 1;\n\n        attestationAgencies[0].addr = 0xFFfFfFffFFfffFFfFFfFFFFFffFFFffffFfFFFfF;\n        attestationAgencies[0].title = 'MetadiumDefault';\n        attestationAgencies[0].description = 'MetadiumDefault';\n    }\n\n    function registerAttestationAgency(address _addr, bytes32 _title, bytes32 _description) permissioned public returns (bool) {\n        require(isAAregistered[_addr] == 0);\n        \n        attestationAgencies[attestationAgencyNum].addr = _addr;\n        attestationAgencies[attestationAgencyNum].title = _title;\n        attestationAgencies[attestationAgencyNum].description = _description;\n\n        isAAregistered[_addr] = attestationAgencyNum;\n\n        attestationAgencyNum++;\n\n        emit RegisterAttestationAgency(_addr, _title, _description);\n\n        return true;\n    }   \n\n    function updateAttestationAgency(uint256 _num, address _addr, bytes32 _title, bytes32 _description) permissioned public returns (bool) {\n        \n        require(isAAregistered[_addr] == _num);\n\n        attestationAgencies[attestationAgencyNum].addr = _addr;\n        attestationAgencies[attestationAgencyNum].title = _title;\n        attestationAgencies[attestationAgencyNum].description = _description;\n\n        emit UpdateAttestationAgency(_addr, _title, _description);\n\n        return true;\n\n    }\n    function isRegistered(address _addr) view public returns(uint256){\n        return isAAregistered[_addr];\n    }\n\n    function getAttestationAgencySingle(uint256 _num) view public returns(address, bytes32, bytes32) {\n        return (\n            attestationAgencies[_num].addr,\n            attestationAgencies[_num].title,\n            attestationAgencies[_num].description\n        );\n    }\n\n    function getAttestationAgenciesFromTo(uint256 _from, uint256 _to) view public returns(address[], bytes32[], bytes32[]){\n        \n        require(_to<attestationAgencyNum && _from < _to);\n        \n        address[] memory saddrs = new address[](_to-_from+1);\n        bytes32[] memory sdescs = new bytes32[](_to-_from+1);\n        bytes32[] memory stitles = new bytes32[](_to-_from+1);\n\n        for(uint256 i=_from;i<=_to;i++){\n            saddrs[i-_from] = attestationAgencies[i].addr;\n            sdescs[i-_from] = attestationAgencies[i].description;\n            stitles[i-_from] = attestationAgencies[i].title;\n        }\n\n        return (saddrs, stitles, sdescs);\n    } \n    \n\n}\n",
  "sourcePath": "/Users/coinplug/BangGijin/metabolics2.0/contracts/registry/AttestationAgencyRegistry.sol",
  "compiler": {
    "name": "solc",
    "version": "0.4.24+commit.e67f0147.Emscripten.clang"
  },
  "schemaVersion": "2.0.1",
  "updatedAt": "2018-10-23T05:48:07.484Z"
}