{
  "contractName": "CappedToken",
  "abi": [
    {
      "constant": true,
      "inputs": [],
      "name": "mintingFinished",
      "outputs": [
        {
          "name": "",
          "type": "bool"
        }
      ],
      "payable": false,
      "stateMutability": "view",
      "type": "function"
    },
    {
      "constant": false,
      "inputs": [
        {
          "name": "_spender",
          "type": "address"
        },
        {
          "name": "_value",
          "type": "uint256"
        }
      ],
      "name": "approve",
      "outputs": [
        {
          "name": "",
          "type": "bool"
        }
      ],
      "payable": false,
      "stateMutability": "nonpayable",
      "type": "function"
    },
    {
      "constant": true,
      "inputs": [],
      "name": "totalSupply",
      "outputs": [
        {
          "name": "",
          "type": "uint256"
        }
      ],
      "payable": false,
      "stateMutability": "view",
      "type": "function"
    },
    {
      "constant": false,
      "inputs": [
        {
          "name": "_from",
          "type": "address"
        },
        {
          "name": "_to",
          "type": "address"
        },
        {
          "name": "_value",
          "type": "uint256"
        }
      ],
      "name": "transferFrom",
      "outputs": [
        {
          "name": "",
          "type": "bool"
        }
      ],
      "payable": false,
      "stateMutability": "nonpayable",
      "type": "function"
    },
    {
      "constant": true,
      "inputs": [],
      "name": "cap",
      "outputs": [
        {
          "name": "",
          "type": "uint256"
        }
      ],
      "payable": false,
      "stateMutability": "view",
      "type": "function"
    },
    {
      "constant": false,
      "inputs": [
        {
          "name": "_spender",
          "type": "address"
        },
        {
          "name": "_subtractedValue",
          "type": "uint256"
        }
      ],
      "name": "decreaseApproval",
      "outputs": [
        {
          "name": "",
          "type": "bool"
        }
      ],
      "payable": false,
      "stateMutability": "nonpayable",
      "type": "function"
    },
    {
      "constant": true,
      "inputs": [
        {
          "name": "_owner",
          "type": "address"
        }
      ],
      "name": "balanceOf",
      "outputs": [
        {
          "name": "",
          "type": "uint256"
        }
      ],
      "payable": false,
      "stateMutability": "view",
      "type": "function"
    },
    {
      "constant": false,
      "inputs": [],
      "name": "finishMinting",
      "outputs": [
        {
          "name": "",
          "type": "bool"
        }
      ],
      "payable": false,
      "stateMutability": "nonpayable",
      "type": "function"
    },
    {
      "constant": true,
      "inputs": [],
      "name": "owner",
      "outputs": [
        {
          "name": "",
          "type": "address"
        }
      ],
      "payable": false,
      "stateMutability": "view",
      "type": "function"
    },
    {
      "constant": false,
      "inputs": [
        {
          "name": "_to",
          "type": "address"
        },
        {
          "name": "_value",
          "type": "uint256"
        }
      ],
      "name": "transfer",
      "outputs": [
        {
          "name": "",
          "type": "bool"
        }
      ],
      "payable": false,
      "stateMutability": "nonpayable",
      "type": "function"
    },
    {
      "constant": false,
      "inputs": [
        {
          "name": "_spender",
          "type": "address"
        },
        {
          "name": "_addedValue",
          "type": "uint256"
        }
      ],
      "name": "increaseApproval",
      "outputs": [
        {
          "name": "",
          "type": "bool"
        }
      ],
      "payable": false,
      "stateMutability": "nonpayable",
      "type": "function"
    },
    {
      "constant": true,
      "inputs": [
        {
          "name": "_owner",
          "type": "address"
        },
        {
          "name": "_spender",
          "type": "address"
        }
      ],
      "name": "allowance",
      "outputs": [
        {
          "name": "",
          "type": "uint256"
        }
      ],
      "payable": false,
      "stateMutability": "view",
      "type": "function"
    },
    {
      "constant": false,
      "inputs": [
        {
          "name": "newOwner",
          "type": "address"
        }
      ],
      "name": "transferOwnership",
      "outputs": [],
      "payable": false,
      "stateMutability": "nonpayable",
      "type": "function"
    },
    {
      "inputs": [
        {
          "name": "_cap",
          "type": "uint256"
        }
      ],
      "payable": false,
      "stateMutability": "nonpayable",
      "type": "constructor"
    },
    {
      "anonymous": false,
      "inputs": [
        {
          "indexed": true,
          "name": "to",
          "type": "address"
        },
        {
          "indexed": false,
          "name": "amount",
          "type": "uint256"
        }
      ],
      "name": "Mint",
      "type": "event"
    },
    {
      "anonymous": false,
      "inputs": [],
      "name": "MintFinished",
      "type": "event"
    },
    {
      "anonymous": false,
      "inputs": [
        {
          "indexed": true,
          "name": "previousOwner",
          "type": "address"
        },
        {
          "indexed": true,
          "name": "newOwner",
          "type": "address"
        }
      ],
      "name": "OwnershipTransferred",
      "type": "event"
    },
    {
      "anonymous": false,
      "inputs": [
        {
          "indexed": true,
          "name": "owner",
          "type": "address"
        },
        {
          "indexed": true,
          "name": "spender",
          "type": "address"
        },
        {
          "indexed": false,
          "name": "value",
          "type": "uint256"
        }
      ],
      "name": "Approval",
      "type": "event"
    },
    {
      "anonymous": false,
      "inputs": [
        {
          "indexed": true,
          "name": "from",
          "type": "address"
        },
        {
          "indexed": true,
          "name": "to",
          "type": "address"
        },
        {
          "indexed": false,
          "name": "value",
          "type": "uint256"
        }
      ],
      "name": "Transfer",
      "type": "event"
    },
    {
      "constant": false,
      "inputs": [
        {
          "name": "_to",
          "type": "address"
        },
        {
          "name": "_amount",
          "type": "uint256"
        }
      ],
      "name": "mint",
      "outputs": [
        {
          "name": "",
          "type": "bool"
        }
      ],
      "payable": false,
      "stateMutability": "nonpayable",
      "type": "function"
    }
  ],
  "bytecode": "0x60806040526003805460a060020a60ff021916905534801561002057600080fd5b50604051602080610aba833981016040525160038054600160a060020a031916331790556000811161005157600080fd5b600455610a57806100636000396000f3006080604052600436106100cf5763ffffffff7c010000000000000000000000000000000000000000000000000000000060003504166305d2035b81146100d4578063095ea7b3146100fd57806318160ddd1461012157806323b872dd14610148578063355274ea1461017257806340c10f191461018757806366188463146101ab57806370a08231146101cf5780637d64bcb4146101f05780638da5cb5b14610205578063a9059cbb14610236578063d73dd6231461025a578063dd62ed3e1461027e578063f2fde38b146102a5575b600080fd5b3480156100e057600080fd5b506100e96102c8565b604080519115158252519081900360200190f35b34801561010957600080fd5b506100e9600160a060020a03600435166024356102d8565b34801561012d57600080fd5b5061013661033e565b60408051918252519081900360200190f35b34801561015457600080fd5b506100e9600160a060020a0360043581169060243516604435610344565b34801561017e57600080fd5b506101366104bb565b34801561019357600080fd5b506100e9600160a060020a03600435166024356104c1565b3480156101b757600080fd5b506100e9600160a060020a0360043516602435610524565b3480156101db57600080fd5b50610136600160a060020a0360043516610614565b3480156101fc57600080fd5b506100e961062f565b34801561021157600080fd5b5061021a6106b3565b60408051600160a060020a039092168252519081900360200190f35b34801561024257600080fd5b506100e9600160a060020a03600435166024356106c2565b34801561026657600080fd5b506100e9600160a060020a03600435166024356107a3565b34801561028a57600080fd5b50610136600160a060020a036004358116906024351661083c565b3480156102b157600080fd5b506102c6600160a060020a0360043516610867565b005b60035460a060020a900460ff1681565b336000818152600260209081526040808320600160a060020a038716808552908352818420869055815186815291519394909390927f8c5be1e5ebec7d5bd14f71427d1e84f3dd0314c0f7b2291e5b200ac8c7c3b925928290030190a350600192915050565b60015490565b6000600160a060020a038316151561035b57600080fd5b600160a060020a03841660009081526020819052604090205482111561038057600080fd5b600160a060020a03841660009081526002602090815260408083203384529091529020548211156103b057600080fd5b600160a060020a0384166000908152602081905260409020546103d9908363ffffffff6108fc16565b600160a060020a03808616600090815260208190526040808220939093559085168152205461040e908363ffffffff61090e16565b600160a060020a03808516600090815260208181526040808320949094559187168152600282528281203382529091522054610450908363ffffffff6108fc16565b600160a060020a03808616600081815260026020908152604080832033845282529182902094909455805186815290519287169391927fddf252ad1be2c89b69c2b068fc378daa952ba7f163c4a11628f55a4df523b3ef929181900390910190a35060019392505050565b60045481565b600354600090600160a060020a031633146104db57600080fd5b60035460a060020a900460ff16156104f257600080fd5b600454600154610508908463ffffffff61090e16565b111561051357600080fd5b61051d8383610921565b9392505050565b336000908152600260209081526040808320600160a060020a03861684529091528120548083111561057957336000908152600260209081526040808320600160a060020a03881684529091528120556105ae565b610589818463ffffffff6108fc16565b336000908152600260209081526040808320600160a060020a03891684529091529020555b336000818152600260209081526040808320600160a060020a0389168085529083529281902054815190815290519293927f8c5be1e5ebec7d5bd14f71427d1e84f3dd0314c0f7b2291e5b200ac8c7c3b925929181900390910190a35060019392505050565b600160a060020a031660009081526020819052604090205490565b600354600090600160a060020a0316331461064957600080fd5b60035460a060020a900460ff161561066057600080fd5b6003805474ff0000000000000000000000000000000000000000191660a060020a1790556040517fae5184fba832cb2b1f702aca6117b8d265eaf03ad33eb133f19dde0f5920fa0890600090a150600190565b600354600160a060020a031681565b6000600160a060020a03831615156106d957600080fd5b336000908152602081905260409020548211156106f557600080fd5b33600090815260208190526040902054610715908363ffffffff6108fc16565b3360009081526020819052604080822092909255600160a060020a03851681522054610747908363ffffffff61090e16565b600160a060020a038416600081815260208181526040918290209390935580518581529051919233927fddf252ad1be2c89b69c2b068fc378daa952ba7f163c4a11628f55a4df523b3ef9281900390910190a350600192915050565b336000908152600260209081526040808320600160a060020a03861684529091528120546107d7908363ffffffff61090e16565b336000818152600260209081526040808320600160a060020a0389168085529083529281902085905580519485525191937f8c5be1e5ebec7d5bd14f71427d1e84f3dd0314c0f7b2291e5b200ac8c7c3b925929081900390910190a350600192915050565b600160a060020a03918216600090815260026020908152604080832093909416825291909152205490565b600354600160a060020a0316331461087e57600080fd5b600160a060020a038116151561089357600080fd5b600354604051600160a060020a038084169216907f8be0079c531659141344cd1fd0a4f28419497f9722a3daafe3b4186f6b6457e090600090a36003805473ffffffffffffffffffffffffffffffffffffffff1916600160a060020a0392909216919091179055565b60008282111561090857fe5b50900390565b8181018281101561091b57fe5b92915050565b600354600090600160a060020a0316331461093b57600080fd5b60035460a060020a900460ff161561095257600080fd5b600154610965908363ffffffff61090e16565b600155600160a060020a038316600090815260208190526040902054610991908363ffffffff61090e16565b600160a060020a03841660008181526020818152604091829020939093558051858152905191927f0f6798a560793a54c3bcfe86a93cde1e73087d944c0ea20544137d412139688592918290030190a2604080518381529051600160a060020a038516916000917fddf252ad1be2c89b69c2b068fc378daa952ba7f163c4a11628f55a4df523b3ef9181900360200190a3506001929150505600a165627a7a72305820edccc7e3e02f238cca923ab2cb77b81682792a7da6a40509c924dc055a34f2d10029",
  "source": "pragma solidity ^0.4.21;\n\nimport \"./MintableToken.sol\";\n\n\n/**\n * @title Capped token\n * @dev Mintable token with a token cap.\n */\ncontract CappedToken is MintableToken {\n\n  uint256 public cap;\n\n  function CappedToken(uint256 _cap) public {\n    require(_cap > 0);\n    cap = _cap;\n  }\n\n  /**\n   * @dev Function to mint tokens\n   * @param _to The address that will receive the minted tokens.\n   * @param _amount The amount of tokens to mint.\n   * @return A boolean that indicates if the operation was successful.\n   */\n  function mint(address _to, uint256 _amount) onlyOwner canMint public returns (bool) {\n    require(totalSupply_.add(_amount) <= cap);\n\n    return super.mint(_to, _amount);\n  }\n\n}\n",
  "sourcePath": "/Users/coinplug/BangGijin/metabolics2.0/contracts/openzeppelin-solidity/contracts/token/ERC20/CappedToken.sol",
  "compiler": {
    "name": "solc",
    "version": "0.4.24+commit.e67f0147.Emscripten.clang"
  },
  "schemaVersion": "2.0.1",
  "updatedAt": "2018-11-30T05:06:27.625Z"
}