{
  "contractName": "Destructible",
  "abi": [
    {
      "constant": true,
      "inputs": [],
      "name": "MANAGEMENT_KEY",
      "outputs": [
        {
          "name": "",
          "type": "uint256"
        }
      ],
      "payable": false,
      "stateMutability": "view",
      "type": "function"
    },
    {
      "constant": true,
      "inputs": [],
      "name": "actionThreshold",
      "outputs": [
        {
          "name": "",
          "type": "uint256"
        }
      ],
      "payable": false,
      "stateMutability": "view",
      "type": "function"
    },
    {
      "constant": true,
      "inputs": [
        {
          "name": "addr",
          "type": "address"
        }
      ],
      "name": "addrToKey",
      "outputs": [
        {
          "name": "",
          "type": "bytes32"
        }
      ],
      "payable": false,
      "stateMutability": "pure",
      "type": "function"
    },
    {
      "constant": true,
      "inputs": [],
      "name": "managementThreshold",
      "outputs": [
        {
          "name": "",
          "type": "uint256"
        }
      ],
      "payable": false,
      "stateMutability": "view",
      "type": "function"
    },
    {
      "constant": true,
      "inputs": [],
      "name": "numKeys",
      "outputs": [
        {
          "name": "",
          "type": "uint256"
        }
      ],
      "payable": false,
      "stateMutability": "view",
      "type": "function"
    },
    {
      "constant": false,
      "inputs": [
        {
          "name": "_recipient",
          "type": "address"
        }
      ],
      "name": "destroyAndSend",
      "outputs": [],
      "payable": false,
      "stateMutability": "nonpayable",
      "type": "function"
    }
  ],
  "bytecode": "0x608060405260016000556001805534801561001957600080fd5b50610331806100296000396000f3006080604052600436106100775763ffffffff7c0100000000000000000000000000000000000000000000000000000000600035041663058b316c811461007c57806338f4edd4146100a357806363f14c3c146100b8578063aa0a5142146100e6578063c9d24ecc146100fb578063f5074f4114610110575b600080fd5b34801561008857600080fd5b50610091610140565b60408051918252519081900360200190f35b3480156100af57600080fd5b50610091610145565b3480156100c457600080fd5b5061009173ffffffffffffffffffffffffffffffffffffffff6004351661014b565b3480156100f257600080fd5b50610091610164565b34801561010757600080fd5b5061009161016a565b34801561011c57600080fd5b5061013e73ffffffffffffffffffffffffffffffffffffffff60043516610171565b005b600181565b60015481565b73ffffffffffffffffffffffffffffffffffffffff1690565b60005481565b6004545b90565b6101796101bf565b151561018457600080fd5b73ffffffffffffffffffffffffffffffffffffffff811615156101a657600080fd5b8073ffffffffffffffffffffffffffffffffffffffff16ff5b6000333014156101d15750600161016e565b6000546001146101e057600080fd5b6101fc6101ec3361014b565b600290600163ffffffff61020116565b905090565b600061020b6102e5565b600084815260208681526040808320815181546080948102820185019093526060810183815290939192849284919084018282801561026957602002820191906000526020600020905b815481526020019060010190808311610255575b505050918352505060018201546020820152600290910154604091820152810151909250151561029c57600092506102dc565b5060005b8151518110156102dc5781518051859190839081106102bb57fe5b9060200190602002015114156102d457600192506102dc565b6001016102a0565b50509392505050565b6040805160608181018352815260006020820181905291810191909152905600a165627a7a72305820c6b9d3e4935b475cd85148822039df7ee3c1959115d38893c9d9070cd78d329c0029",
  "source": "pragma solidity ^0.4.24;\n\nimport \"./KeyBase.sol\";\n\n/// @title Destructible\n/// @author genie\n/// @notice Base contract that can be destroyed by MANAGEMENT_KEY or the identity itself\n/// @dev Inspired by https://github.com/OpenZeppelin/zeppelin-solidity/blob/master/contracts/lifecycle/Destructible.sol\n\ncontract Destructible is KeyBase {\n    /// @dev Transfers the current balance and terminates the contract\n    /// @param _recipient All funds in contract will be sent to this recipient\n    function destroyAndSend(address _recipient)\n        public\n        onlyManagementOrSelf\n    {\n        require(_recipient != address(0));\n        selfdestruct(_recipient);\n    }\n}",
  "sourcePath": "/Users/coinplug/BangGijin/metabolics2.0/contracts/identity/Destructible.sol",
  "compiler": {
    "name": "solc",
    "version": "0.4.24+commit.e67f0147.Emscripten.clang"
  },
  "schemaVersion": "2.0.1",
  "updatedAt": "2018-10-23T00:48:27.045Z"
}