{
  "contractName": "IdentityManager",
  "abi": [
    {
      "constant": true,
      "inputs": [],
      "name": "REG",
      "outputs": [
        {
          "name": "",
          "type": "address"
        }
      ],
      "payable": false,
      "stateMutability": "view",
      "type": "function"
    },
    {
      "constant": true,
      "inputs": [
        {
          "name": "_addr",
          "type": "address"
        }
      ],
      "name": "isPermitted",
      "outputs": [
        {
          "name": "found",
          "type": "bool"
        }
      ],
      "payable": false,
      "stateMutability": "view",
      "type": "function"
    },
    {
      "constant": true,
      "inputs": [],
      "name": "THIS_NAME",
      "outputs": [
        {
          "name": "",
          "type": "bytes32"
        }
      ],
      "payable": false,
      "stateMutability": "view",
      "type": "function"
    },
    {
      "constant": false,
      "inputs": [],
      "name": "renounceOwnership",
      "outputs": [],
      "payable": false,
      "stateMutability": "nonpayable",
      "type": "function"
    },
    {
      "constant": true,
      "inputs": [
        {
          "name": "",
          "type": "uint256"
        }
      ],
      "name": "metaIds",
      "outputs": [
        {
          "name": "",
          "type": "address"
        }
      ],
      "payable": false,
      "stateMutability": "view",
      "type": "function"
    },
    {
      "constant": true,
      "inputs": [],
      "name": "owner",
      "outputs": [
        {
          "name": "",
          "type": "address"
        }
      ],
      "payable": false,
      "stateMutability": "view",
      "type": "function"
    },
    {
      "constant": true,
      "inputs": [],
      "name": "isOwner",
      "outputs": [
        {
          "name": "",
          "type": "bool"
        }
      ],
      "payable": false,
      "stateMutability": "view",
      "type": "function"
    },
    {
      "constant": false,
      "inputs": [
        {
          "name": "_addr",
          "type": "address"
        }
      ],
      "name": "setRegistry",
      "outputs": [],
      "payable": false,
      "stateMutability": "nonpayable",
      "type": "function"
    },
    {
      "constant": false,
      "inputs": [
        {
          "name": "newOwner",
          "type": "address"
        }
      ],
      "name": "transferOwnership",
      "outputs": [],
      "payable": false,
      "stateMutability": "nonpayable",
      "type": "function"
    },
    {
      "inputs": [],
      "payable": false,
      "stateMutability": "nonpayable",
      "type": "constructor"
    },
    {
      "anonymous": false,
      "inputs": [
        {
          "indexed": true,
          "name": "managementKey",
          "type": "address"
        },
        {
          "indexed": false,
          "name": "metaId",
          "type": "address"
        }
      ],
      "name": "CreateMetaId",
      "type": "event"
    },
    {
      "anonymous": false,
      "inputs": [
        {
          "indexed": true,
          "name": "previousOwner",
          "type": "address"
        },
        {
          "indexed": true,
          "name": "newOwner",
          "type": "address"
        }
      ],
      "name": "OwnershipTransferred",
      "type": "event"
    },
    {
      "constant": false,
      "inputs": [
        {
          "name": "_managementKey",
          "type": "address"
        }
      ],
      "name": "createMetaId",
      "outputs": [
        {
          "name": "success",
          "type": "bool"
        }
      ],
      "payable": false,
      "stateMutability": "nonpayable",
      "type": "function"
    },
    {
      "constant": false,
      "inputs": [
        {
          "name": "_metaId",
          "type": "address"
        },
        {
          "name": "_managementKey",
          "type": "address"
        }
      ],
      "name": "addMetaId",
      "outputs": [
        {
          "name": "success",
          "type": "bool"
        }
      ],
      "payable": false,
      "stateMutability": "nonpayable",
      "type": "function"
    },
    {
      "constant": true,
      "inputs": [],
      "name": "getDeployedMetaIds",
      "outputs": [
        {
          "name": "addrs",
          "type": "address[]"
        }
      ],
      "payable": false,
      "stateMutability": "view",
      "type": "function"
    },
    {
      "constant": true,
      "inputs": [
        {
          "name": "_addr",
          "type": "address"
        }
      ],
      "name": "isMetaId",
      "outputs": [
        {
          "name": "found",
          "type": "bool"
        }
      ],
      "payable": false,
      "stateMutability": "view",
      "type": "function"
    },
    {
      "constant": true,
      "inputs": [],
      "name": "getLengthOfMetaIds",
      "outputs": [
        {
          "name": "length",
          "type": "uint256"
        }
      ],
      "payable": false,
      "stateMutability": "view",
      "type": "function"
    }
  ],
  "bytecode": "0x608060405234801561001057600080fd5b50336000806101000a81548173ffffffffffffffffffffffffffffffffffffffff021916908373ffffffffffffffffffffffffffffffffffffffff1602179055506000809054906101000a900473ffffffffffffffffffffffffffffffffffffffff1673ffffffffffffffffffffffffffffffffffffffff16600073ffffffffffffffffffffffffffffffffffffffff167f8be0079c531659141344cd1fd0a4f28419497f9722a3daafe3b4186f6b6457e060405160405180910390a37f4964656e746974794d616e61676572000000000000000000000000000000000060028160001916905550617ef0806101076000396000f300608060405260043610620000df576000357c0100000000000000000000000000000000000000000000000000000000900463ffffffff16806312459b0014620000e45780633936311214620001425780633fd8cc4e146200019c57806357296f0714620001fa57806364319d0b1462000228578063715018a6146200025e57806373fd4e8f1462000278578063828baa8014620002e85780638da5cb5b14620003665780638f32d59b14620003c0578063a91ee0dc14620003f2578063ab1796cf1462000438578063df483f5314620004a9578063f2fde38b1462000507575b600080fd5b348015620000f157600080fd5b5062000128600480360381019080803573ffffffffffffffffffffffffffffffffffffffff1690602001909291905050506200054d565b604051808215151515815260200191505060405180910390f35b3480156200014f57600080fd5b506200015a620005a3565b604051808273ffffffffffffffffffffffffffffffffffffffff1673ffffffffffffffffffffffffffffffffffffffff16815260200191505060405180910390f35b348015620001a957600080fd5b50620001e0600480360381019080803573ffffffffffffffffffffffffffffffffffffffff169060200190929190505050620005c9565b604051808215151515815260200191505060405180910390f35b3480156200020757600080fd5b5062000212620006df565b6040518082815260200191505060405180910390f35b3480156200023557600080fd5b5062000240620006ec565b60405180826000191660001916815260200191505060405180910390f35b3480156200026b57600080fd5b5062000276620006f2565b005b3480156200028557600080fd5b50620002a660048036038101908080359060200190929190505050620007c7565b604051808273ffffffffffffffffffffffffffffffffffffffff1673ffffffffffffffffffffffffffffffffffffffff16815260200191505060405180910390f35b348015620002f557600080fd5b506200034c600480360381019080803573ffffffffffffffffffffffffffffffffffffffff169060200190929190803573ffffffffffffffffffffffffffffffffffffffff16906020019092919050505062000806565b604051808215151515815260200191505060405180910390f35b3480156200037357600080fd5b506200037e620009ca565b604051808273ffffffffffffffffffffffffffffffffffffffff1673ffffffffffffffffffffffffffffffffffffffff16815260200191505060405180910390f35b348015620003cd57600080fd5b50620003d8620009f3565b604051808215151515815260200191505060405180910390f35b348015620003ff57600080fd5b5062000436600480360381019080803573ffffffffffffffffffffffffffffffffffffffff16906020019092919050505062000a4a565b005b3480156200044557600080fd5b506200045062000aa4565b6040518080602001828103825283818151815260200191508051906020019060200280838360005b838110156200049557808201518184015260208101905062000478565b505050509050019250505060405180910390f35b348015620004b657600080fd5b50620004ed600480360381019080803573ffffffffffffffffffffffffffffffffffffffff16906020019092919050505062000b34565b604051808215151515815260200191505060405180910390f35b3480156200051457600080fd5b506200054b600480360381019080803573ffffffffffffffffffffffffffffffffffffffff16906020019092919050505062000e00565b005b6000600460008373ffffffffffffffffffffffffffffffffffffffff1673ffffffffffffffffffffffffffffffffffffffff16815260200190815260200160002060009054906101000a900460ff169050919050565b600160009054906101000a900473ffffffffffffffffffffffffffffffffffffffff1681565b6000600160009054906101000a900473ffffffffffffffffffffffffffffffffffffffff1673ffffffffffffffffffffffffffffffffffffffff166360d6c7cf600254846040518363ffffffff167c01000000000000000000000000000000000000000000000000000000000281526004018083600019166000191681526020018273ffffffffffffffffffffffffffffffffffffffff1673ffffffffffffffffffffffffffffffffffffffff16815260200192505050602060405180830381600087803b1580156200069b57600080fd5b505af1158015620006b0573d6000803e3d6000fd5b505050506040513d6020811015620006c757600080fd5b81019080805190602001909291905050509050919050565b6000600380549050905090565b60025481565b620006fc620009f3565b15156200070857600080fd5b600073ffffffffffffffffffffffffffffffffffffffff166000809054906101000a900473ffffffffffffffffffffffffffffffffffffffff1673ffffffffffffffffffffffffffffffffffffffff167f8be0079c531659141344cd1fd0a4f28419497f9722a3daafe3b4186f6b6457e060405160405180910390a360008060006101000a81548173ffffffffffffffffffffffffffffffffffffffff021916908373ffffffffffffffffffffffffffffffffffffffff160217905550565b600381815481101515620007d757fe5b906000526020600020016000915054906101000a900473ffffffffffffffffffffffffffffffffffffffff1681565b60006200081333620005c9565b151562000888576040517f08c379a000000000000000000000000000000000000000000000000000000000815260040180806020018281038252600d8152602001807f4e6f205065726d697373696f6e0000000000000000000000000000000000000081525060200191505060405180910390fd5b60038390806001815401808255809150509060018203906000526020600020016000909192909190916101000a81548173ffffffffffffffffffffffffffffffffffffffff021916908373ffffffffffffffffffffffffffffffffffffffff160217905550506001600460008573ffffffffffffffffffffffffffffffffffffffff1673ffffffffffffffffffffffffffffffffffffffff16815260200190815260200160002060006101000a81548160ff0219169083151502179055508173ffffffffffffffffffffffffffffffffffffffff167f530662d7f09b3ad99f1a6c386579d429bed60b5cb0ffd969d5367a601bab347184604051808273ffffffffffffffffffffffffffffffffffffffff1673ffffffffffffffffffffffffffffffffffffffff16815260200191505060405180910390a26001905092915050565b60008060009054906101000a900473ffffffffffffffffffffffffffffffffffffffff16905090565b60008060009054906101000a900473ffffffffffffffffffffffffffffffffffffffff1673ffffffffffffffffffffffffffffffffffffffff163373ffffffffffffffffffffffffffffffffffffffff1614905090565b62000a54620009f3565b151562000a6057600080fd5b80600160006101000a81548173ffffffffffffffffffffffffffffffffffffffff021916908373ffffffffffffffffffffffffffffffffffffffff16021790555050565b6060600380548060200260200160405190810160405280929190818152602001828054801562000b2a57602002820191906000526020600020905b8160009054906101000a900473ffffffffffffffffffffffffffffffffffffffff1673ffffffffffffffffffffffffffffffffffffffff168152602001906001019080831162000adf575b5050505050905090565b60008062000b4233620005c9565b151562000bb7576040517f08c379a000000000000000000000000000000000000000000000000000000000815260040180806020018281038252600d8152602001807f4e6f205065726d697373696f6e0000000000000000000000000000000000000081525060200191505060405180910390fd5b600073ffffffffffffffffffffffffffffffffffffffff168373ffffffffffffffffffffffffffffffffffffffff161415151562000c5d576040517f08c379a000000000000000000000000000000000000000000000000000000000815260040180806020018281038252600e8152602001807f616464726573732069732030783000000000000000000000000000000000000081525060200191505060405180910390fd5b8262000c6862000f1f565b808273ffffffffffffffffffffffffffffffffffffffff1673ffffffffffffffffffffffffffffffffffffffff168152602001915050604051809103906000f08015801562000cbb573d6000803e3d6000fd5b50905060038190806001815401808255809150509060018203906000526020600020016000909192909190916101000a81548173ffffffffffffffffffffffffffffffffffffffff021916908373ffffffffffffffffffffffffffffffffffffffff160217905550506001600460008373ffffffffffffffffffffffffffffffffffffffff1673ffffffffffffffffffffffffffffffffffffffff16815260200190815260200160002060006101000a81548160ff0219169083151502179055508273ffffffffffffffffffffffffffffffffffffffff167f530662d7f09b3ad99f1a6c386579d429bed60b5cb0ffd969d5367a601bab347182604051808273ffffffffffffffffffffffffffffffffffffffff1673ffffffffffffffffffffffffffffffffffffffff16815260200191505060405180910390a26001915050919050565b62000e0a620009f3565b151562000e1657600080fd5b62000e218162000e24565b50565b600073ffffffffffffffffffffffffffffffffffffffff168173ffffffffffffffffffffffffffffffffffffffff161415151562000e6157600080fd5b8073ffffffffffffffffffffffffffffffffffffffff166000809054906101000a900473ffffffffffffffffffffffffffffffffffffffff1673ffffffffffffffffffffffffffffffffffffffff167f8be0079c531659141344cd1fd0a4f28419497f9722a3daafe3b4186f6b6457e060405160405180910390a3806000806101000a81548173ffffffffffffffffffffffffffffffffffffffff021916908373ffffffffffffffffffffffffffffffffffffffff16021790555050565b604051616f948062000f3183390190560060806040526001600055600180556000600560006101000a81548160ff02191690831515021790555060016007553480156200003a57600080fd5b5060405160208062006f948339810180604052810190808051906020019092919050505060006001600660006200007f6200030e640100000000026401000000009004565b7bffffffffffffffffffffffffffffffffffffffffffffffffffffffff19167bffffffffffffffffffffffffffffffffffffffffffffffffffffffff1916815260200190815260200160002060006101000a81548160ff0219169083151502179055506001600660006200010162000339640100000000026401000000009004565b7bffffffffffffffffffffffffffffffffffffffffffffffffffffffff19167bffffffffffffffffffffffffffffffffffffffffffffffffffffffff1916815260200190815260200160002060006101000a81548160ff0219169083151502179055506001600660006200018362000442640100000000026401000000009004565b7bffffffffffffffffffffffffffffffffffffffffffffffffffffffff19167bffffffffffffffffffffffffffffffffffffffffffffffffffffffff1916815260200190815260200160002060006101000a81548160ff0219169083151502179055506200020082620004dc640100000000026401000000009004565b90506200021f81600180620004ff640100000000026401000000009004565b6200023d8160026001620004ff640100000000026401000000009004565b6200025b8160036001620004ff640100000000026401000000009004565b6001600081905550600180819055506001600660006200028962000442640100000000026401000000009004565b620002a262000339640100000000026401000000009004565b187bffffffffffffffffffffffffffffffffffffffffffffffffffffffff19167bffffffffffffffffffffffffffffffffffffffffffffffffffffffff1916815260200190815260200160002060006101000a81548160ff02191690831515021790555050506200063a565b60006301ffc9a77c010000000000000000000000000000000000000000000000000000000002905090565b60006353d413c57c01000000000000000000000000000000000000000000000000000000000263747442d37c01000000000000000000000000000000000000000000000000000000000263b61d27f67c010000000000000000000000000000000000000000000000000000000002631d3812407c010000000000000000000000000000000000000000000000000000000002639010f7267c01000000000000000000000000000000000000000000000000000000000263d202158d7c0100000000000000000000000000000000000000000000000000000000026312aaac707c010000000000000000000000000000000000000000000000000000000002181818181818905090565b6000634eee424a7c01000000000000000000000000000000000000000000000000000000000263b1a34e0d7c01000000000000000000000000000000000000000000000000000000000263262b54f57c01000000000000000000000000000000000000000000000000000000000263c9100bcb7c010000000000000000000000000000000000000000000000000000000002181818905090565b60008173ffffffffffffffffffffffffffffffffffffffff166001029050919050565b6200052783838360026200055f6401000000000262005d941790939291906401000000009004565b808284600019167f480000bb1edad8ca1470381cc334b1917fbd51c6531f3a623ea8e0ec7e38a6e960405160405180910390a4505050565b6000846000016000856000191660001916815260200190815260200160002090508060000183908060018154018082558091505090600182039060005260206000200160009091929091909150555060006001028160020154600019161415620005da57838160020181600019169055508181600101819055505b84600101600084815260200190815260200160002084908060018154018082558091505090600182039060005260206000200160009091929091909150906000191690555084600201600081548092919060010191905055505050505050565b61694a806200064a6000396000f3006080604052600436106102e0576000357c0100000000000000000000000000000000000000000000000000000000900463ffffffff16806301ffc9a7146102e257806302e7491e146103465780630440b43a146103af578063058b316c146103da57806312aaac7014610405578063190db862146104a1578063199029861461050a5780631d203be8146105355780631d381240146105e4578063237434f014610641578063251de3e91461068a578063262b54f5146106b55780632d32d442146107375780632e7700f01461076257806338f4edd41461078d5780633b8a12c8146107b85780633f4ba83a1461086f57806349991ec8146108865780634da34c2c146108b15780634eee424a146109a857806353d413c5146109f15780635c975abb14610a445780635d7bc3fc14610a735780635dccebba14610abc57806363f14c3c14610ba35780636e4c431114610c02578063710ca55014610c79578063724a4b3b14610ca4578063747442d314610d4257806375e5598c14610d93578063765b304214610dbe5780637d96fa5814610e5057806382d0944614610eb95780638456cb5914610ee45780639010f72614610efb5780639e140cc814610f7d578063a550f0c714610fa8578063aa0a514214610fd3578063ae62838614610ffe578063affed0e014611029578063b132734e14611054578063b1a34e0d1461107f578063b1e9f64c146111bc578063b61d27f6146111e7578063b9133d631461128e578063bf2f20ad146112b9578063c32b351814611322578063c6702187146113dd578063c9100bcb14611408578063c9d24ecc146115cb578063ccfe5868146115f6578063d087d28814611623578063d202158d1461164e578063dbfa74b7146116a1578063e0610ba3146116cc578063e804c01b14611853578063e99896b8146118f4578063ead09fab14611921578063f22d08a61461194c578063f5074f4114611977578063f7444137146119ba578063fc0fc84914611a8b575b005b3480156102ee57600080fd5b5061032c60048036038101908080357bffffffffffffffffffffffffffffffffffffffffffffffffffffffff19169060200190929190505050611ab6565b604051808215151515815260200191505060405180910390f35b34801561035257600080fd5b5061035b611b1e565b60405180827bffffffffffffffffffffffffffffffffffffffffffffffffffffffff19167bffffffffffffffffffffffffffffffffffffffffffffffffffffffff1916815260200191505060405180910390f35b3480156103bb57600080fd5b506103c4611b49565b6040518082815260200191505060405180910390f35b3480156103e657600080fd5b506103ef611b4e565b6040518082815260200191505060405180910390f35b34801561041157600080fd5b506104346004803603810190808035600019169060200190929190505050611b53565b60405180806020018481526020018360001916600019168152602001828103825285818151815260200191508051906020019060200280838360005b8381101561048b578082015181840152602081019050610470565b5050505090500194505050505060405180910390f35b3480156104ad57600080fd5b506104ec600480360381019080803573ffffffffffffffffffffffffffffffffffffffff16906020019092919080359060200190929190505050611c1d565b60405180826000191660001916815260200191505060405180910390f35b34801561051657600080fd5b5061051f611cec565b6040518082815260200191505060405180910390f35b34801561054157600080fd5b506105c6600480360381019080803573ffffffffffffffffffffffffffffffffffffffff16906020019092919080359060200190929190803590602001908201803590602001908080601f0160208091040260200160405190810160405280939291908181526020018383808284378201915050505050509192919290505050611cf6565b60405180826000191660001916815260200191505060405180910390f35b3480156105f057600080fd5b5061062760048036038101908080356000191690602001909291908035906020019092919080359060200190929190505050611e1b565b604051808215151515815260200191505060405180910390f35b34801561064d57600080fd5b506106706004803603810190808035600019169060200190929190505050611e87565b604051808215151515815260200191505060405180910390f35b34801561069657600080fd5b5061069f611efe565b6040518082815260200191505060405180910390f35b3480156106c157600080fd5b506106e060048036038101908080359060200190929190505050611f03565b6040518080602001828103825283818151815260200191508051906020019060200280838360005b83811015610723578082015181840152602081019050610708565b505050509050019250505060405180910390f35b34801561074357600080fd5b5061074c611f72565b6040518082815260200191505060405180910390f35b34801561076e57600080fd5b50610777611f77565b6040518082815260200191505060405180910390f35b34801561079957600080fd5b506107a2611f81565b6040518082815260200191505060405180910390f35b3480156107c457600080fd5b5061082d6004803603810190808035600019169060200190929190803590602001908201803590602001908080601f0160208091040260200160405190810160405280939291908181526020018383808284378201915050505050509192919290505050611f87565b604051808273ffffffffffffffffffffffffffffffffffffffff1673ffffffffffffffffffffffffffffffffffffffff16815260200191505060405180910390f35b34801561087b57600080fd5b506108846120bb565b005b34801561089257600080fd5b5061089b612132565b6040518082815260200191505060405180910390f35b3480156108bd57600080fd5b50610992600480360381019080803573ffffffffffffffffffffffffffffffffffffffff16906020019092919080359060200190929190803590602001908201803590602001908080601f016020809104026020016040519081016040528093929190818152602001838380828437820191505050505050919291929080359060200190929190803590602001908201803590602001908080601f0160208091040260200160405190810160405280939291908181526020018383808284378201915050505050509192919290505050612137565b6040518082815260200191505060405180910390f35b3480156109b457600080fd5b506109d76004803603810190808035600019169060200190929190505050612314565b604051808215151515815260200191505060405180910390f35b3480156109fd57600080fd5b50610a2a600480360381019080803560001916906020019092919080359060200190929190505050612aef565b604051808215151515815260200191505060405180910390f35b348015610a5057600080fd5b50610a59612b9d565b604051808215151515815260200191505060405180910390f35b348015610a7f57600080fd5b50610aa26004803603810190808035600019169060200190929190505050612bb0565b604051808215151515815260200191505060405180910390f35b348015610ac857600080fd5b50610ae76004803603810190808035906020019092919050505061309a565b604051808573ffffffffffffffffffffffffffffffffffffffff1673ffffffffffffffffffffffffffffffffffffffff16815260200184815260200180602001838152602001828103825284818151815260200191508051906020019080838360005b83811015610b65578082015181840152602081019050610b4a565b50505050905090810190601f168015610b925780820380516001836020036101000a031916815260200191505b509550505050505060405180910390f35b348015610baf57600080fd5b50610be4600480360381019080803573ffffffffffffffffffffffffffffffffffffffff169060200190929190505050613182565b60405180826000191660001916815260200191505060405180910390f35b348015610c0e57600080fd5b50610c3760048036038101908080359060200190929190803590602001909291905050506131a5565b604051808273ffffffffffffffffffffffffffffffffffffffff1673ffffffffffffffffffffffffffffffffffffffff16815260200191505060405180910390f35b348015610c8557600080fd5b50610c8e6131f2565b6040518082815260200191505060405180910390f35b348015610cb057600080fd5b50610d286004803603810190808035600019169060200190929190803573ffffffffffffffffffffffffffffffffffffffff16906020019092919080357bffffffffffffffffffffffffffffffffffffffffffffffffffffffff191690602001909291908035151590602001909291905050506131f7565b604051808215151515815260200191505060405180910390f35b348015610d4e57600080fd5b50610d796004803603810190808035906020019092919080351515906020019092919050505061326e565b604051808215151515815260200191505060405180910390f35b348015610d9f57600080fd5b50610da861329f565b6040518082815260200191505060405180910390f35b348015610dca57600080fd5b50610e366004803603810190808035600019169060200190929190803573ffffffffffffffffffffffffffffffffffffffff16906020019092919080357bffffffffffffffffffffffffffffffffffffffffffffffffffffffff191690602001909291905050506132a4565b604051808215151515815260200191505060405180910390f35b348015610e5c57600080fd5b50610e6561336a565b60405180827bffffffffffffffffffffffffffffffffffffffffffffffffffffffff19167bffffffffffffffffffffffffffffffffffffffffffffffffffffffff1916815260200191505060405180910390f35b348015610ec557600080fd5b50610ece613473565b6040518082815260200191505060405180910390f35b348015610ef057600080fd5b50610ef9613478565b005b348015610f0757600080fd5b50610f26600480360381019080803590602001909291905050506134f0565b6040518080602001828103825283818151815260200191508051906020019060200280838360005b83811015610f69578082015181840152602081019050610f4e565b505050509050019250505060405180910390f35b348015610f8957600080fd5b50610f92613562565b6040518082815260200191505060405180910390f35b348015610fb457600080fd5b50610fbd613567565b6040518082815260200191505060405180910390f35b348015610fdf57600080fd5b50610fe861356c565b6040518082815260200191505060405180910390f35b34801561100a57600080fd5b50611013613572565b6040518082815260200191505060405180910390f35b34801561103557600080fd5b5061103e613577565b6040518082815260200191505060405180910390f35b34801561106057600080fd5b5061106961357d565b6040518082815260200191505060405180910390f35b34801561108b57600080fd5b506111a66004803603810190808035906020019092919080359060200190929190803573ffffffffffffffffffffffffffffffffffffffff169060200190929190803590602001908201803590602001908080601f0160208091040260200160405190810160405280939291908181526020018383808284378201915050505050509192919290803590602001908201803590602001908080601f0160208091040260200160405190810160405280939291908181526020018383808284378201915050505050509192919290803590602001908201803590602001908080601f0160208091040260200160405190810160405280939291908181526020018383808284378201915050505050509192919290505050613582565b6040518082815260200191505060405180910390f35b3480156111c857600080fd5b506111d1613b1a565b6040518082815260200191505060405180910390f35b3480156111f357600080fd5b50611278600480360381019080803573ffffffffffffffffffffffffffffffffffffffff16906020019092919080359060200190929190803590602001908201803590602001908080601f0160208091040260200160405190810160405280939291908181526020018383808284378201915050505050509192919290505050613b1f565b6040518082815260200191505060405180910390f35b34801561129a57600080fd5b506112a3613b52565b6040518082815260200191505060405180910390f35b3480156112c557600080fd5b506112ce613b57565b60405180827bffffffffffffffffffffffffffffffffffffffffffffffffffffffff19167bffffffffffffffffffffffffffffffffffffffffffffffffffffffff1916815260200191505060405180910390f35b34801561132e57600080fd5b50611389600480360381019080803590602001908201803590602001908080601f0160208091040260200160405190810160405280939291908181526020018383808284378201915050505050509192919290505050613bf1565b60405180827bffffffffffffffffffffffffffffffffffffffffffffffffffffffff19167bffffffffffffffffffffffffffffffffffffffffffffffffffffffff1916815260200191505060405180910390f35b3480156113e957600080fd5b506113f2613ce7565b6040518082815260200191505060405180910390f35b34801561141457600080fd5b506114376004803603810190808035600019169060200190929190505050613cec565b604051808781526020018681526020018573ffffffffffffffffffffffffffffffffffffffff1673ffffffffffffffffffffffffffffffffffffffff168152602001806020018060200180602001848103845287818151815260200191508051906020019080838360005b838110156114bd5780820151818401526020810190506114a2565b50505050905090810190601f1680156114ea5780820380516001836020036101000a031916815260200191505b50848103835286818151815260200191508051906020019080838360005b83811015611523578082015181840152602081019050611508565b50505050905090810190601f1680156115505780820380516001836020036101000a031916815260200191505b50848103825285818151815260200191508051906020019080838360005b8381101561158957808201518184015260208101905061156e565b50505050905090810190601f1680156115b65780820380516001836020036101000a031916815260200191505b50995050505050505050505060405180910390f35b3480156115d757600080fd5b506115e0613feb565b6040518082815260200191505060405180910390f35b34801561160257600080fd5b5061162160048036038101908080359060200190929190505050613ff7565b005b34801561162f57600080fd5b5061163861405e565b6040518082815260200191505060405180910390f35b34801561165a57600080fd5b50611687600480360381019080803560001916906020019092919080359060200190929190505050614068565b604051808215151515815260200191505060405180910390f35b3480156116ad57600080fd5b506116b6614088565b6040518082815260200191505060405180910390f35b3480156116d857600080fd5b506118396004803603810190808035906020019092919080359060200190929190803573ffffffffffffffffffffffffffffffffffffffff169060200190929190803590602001908201803590602001908080601f0160208091040260200160405190810160405280939291908181526020018383808284378201915050505050509192919290803590602001908201803590602001908080601f0160208091040260200160405190810160405280939291908181526020018383808284378201915050505050509192919290803590602001908201803590602001908080601f0160208091040260200160405190810160405280939291908181526020018383808284378201915050505050509192919290803590602001908201803590602001908080601f016020809104026020016040519081016040528093929190818152602001838380828437820191505050505050919291929050505061408d565b604051808215151515815260200191505060405180910390f35b34801561185f57600080fd5b506118da6004803603810190808035906020019092919080351515906020019092919080359060200190929190803590602001908201803590602001908080601f016020809104026020016040519081016040528093929190818152602001838380828437820191505050505050919291929050505061457a565b604051808215151515815260200191505060405180910390f35b34801561190057600080fd5b5061191f600480360381019080803590602001909291905050506146eb565b005b34801561192d57600080fd5b50611936614752565b6040518082815260200191505060405180910390f35b34801561195857600080fd5b50611961614757565b6040518082815260200191505060405180910390f35b34801561198357600080fd5b506119b8600480360381019080803573ffffffffffffffffffffffffffffffffffffffff16906020019092919050505061475c565b005b3480156119c657600080fd5b50611a75600480360381019080803573ffffffffffffffffffffffffffffffffffffffff169060200190929190803573ffffffffffffffffffffffffffffffffffffffff16906020019092919080359060200190929190803590602001908201803590602001908080601f0160208091040260200160405190810160405280939291908181526020018383808284378201915050505050509192919290803590602001909291905050506147c4565b6040518082815260200191505060405180910390f35b348015611a9757600080fd5b50611aa061493a565b6040518082815260200191505060405180910390f35b600060066000837bffffffffffffffffffffffffffffffffffffffffffffffffffffffff19167bffffffffffffffffffffffffffffffffffffffffffffffffffffffff1916815260200190815260200160002060009054906101000a900460ff169050919050565b60006301ffc9a77c010000000000000000000000000000000000000000000000000000000002905090565b600381565b600181565b6060600080611b606164cd565b6002600001600086600019166000191681526020019081526020016000206060604051908101604052908160008201805480602002602001604051908101604052809291908181526020018280548015611bd957602002820191906000526020600020905b815481526020019060010190808311611bc5575b505050505081526020016001820154815260200160028201546000191660001916815250509050806000015193508060200151925080604001519150509193909250565b60008282604051602001808373ffffffffffffffffffffffffffffffffffffffff1673ffffffffffffffffffffffffffffffffffffffff166c01000000000000000000000000028152601401828152602001925050506040516020818303038152906040526040518082805190602001908083835b602083101515611cb75780518252602082019150602081019050602083039250611c92565b6001836020036101000a0380198251168184511680821785525050505050509050019150506040518091039020905092915050565b6000600c54905090565b6000838383604051602001808473ffffffffffffffffffffffffffffffffffffffff1673ffffffffffffffffffffffffffffffffffffffff166c0100000000000000000000000002815260140183815260200182805190602001908083835b602083101515611d7a5780518252602082019150602081019050602083039250611d55565b6001836020036101000a03801982511681845116808217855250505050505090500193505050506040516020818303038152906040526040518082805190602001908083835b602083101515611de55780518252602082019150602081019050602083039250611dc0565b6001836020036101000a038019825116818451168082178552505050505050905001915050604051809103902090509392505050565b6000611e25614940565b1515611e3057600080fd5b600560009054906101000a900460ff16151515611e4c57600080fd5b611e62848460026149b59092919063ffffffff16565b15611e705760009050611e80565b611e7b848484614ad2565b600190505b9392505050565b60008073ffffffffffffffffffffffffffffffffffffffff16600a6000846000191660001916815260200190815260200160002060020160009054906101000a900473ffffffffffffffffffffffffffffffffffffffff1673ffffffffffffffffffffffffffffffffffffffff1614159050919050565b600381565b6060600b6000838152602001908152602001600020805480602002602001604051908101604052809291908181526020018280548015611f6657602002820191906000526020600020905b81546000191681526020019060010190808311611f4e575b50505050509050919050565b600281565b6000600754905090565b60015481565b60006120b3826040805190810160405280601c81526020017f19457468657265756d205369676e6564204d6573736167653a0a333200000000815250856040516020018083805190602001908083835b602083101515611ffc5780518252602082019150602081019050602083039250611fd7565b6001836020036101000a0380198251168184511680821785525050505050509050018260001916600019168152602001925050506040516020818303038152906040526040518082805190602001908083835b602083101515612074578051825260208201915060208101905060208303925061204f565b6001836020036101000a038019825116818451168082178552505050505050905001915050604051809103902060001916614b2290919063ffffffff16565b905092915050565b6120c3614940565b15156120ce57600080fd5b600560009054906101000a900460ff1615156120e957600080fd5b6000600560006101000a81548160ff0219169083151502179055507f730c1faaa977b67dacf1e2451ef54556e04a07d577785ff79f6d31f73502efc960405160405180910390a1565b600181565b600080600560009054906101000a900460ff1615151561215657600080fd5b600754841415156121cf576040517f08c379a000000000000000000000000000000000000000000000000000000000815260040180806020018281038252600e8152602001807f6e6f6e6365206d69736d6174636800000000000000000000000000000000000081525060200191505060405180910390fd5b6122fa87878787604051602001808573ffffffffffffffffffffffffffffffffffffffff1673ffffffffffffffffffffffffffffffffffffffff166c0100000000000000000000000002815260140184815260200183805190602001908083835b6020831015156122555780518252602082019150602081019050602083039250612230565b6001836020036101000a0380198251168184511680821785525050505050509050018281526020019450505050506040516020818303038152906040526040518082805190602001908083835b6020831015156122c757805182526020820191506020810190506020830392506122a2565b6001836020036101000a038019825116818451168082178552505050505050905001915050604051809103902084611f87565b905061230881888888614c1a565b91505095945050505050565b600061231e6164f2565b600080600560009054906101000a900460ff1615151561233d57600080fd5b846000600a6000836000191660001916815260200190815260200160002060020160009054906101000a900473ffffffffffffffffffffffffffffffffffffffff16905060008173ffffffffffffffffffffffffffffffffffffffff16141515156123a757600080fd5b6123af614940565b156123b957612501565b8073ffffffffffffffffffffffffffffffffffffffff163373ffffffffffffffffffffffffffffffffffffffff1614156123f257612500565b6124226123fd61336a565b8273ffffffffffffffffffffffffffffffffffffffff16614e7390919063ffffffff16565b156124fa578073ffffffffffffffffffffffffffffffffffffffff1663d202158d61244c33613182565b60026040518363ffffffff167c010000000000000000000000000000000000000000000000000000000002815260040180836000191660001916815260200182815260200192505050602060405180830381600087803b1580156124af57600080fd5b505af11580156124c3573d6000803e3d6000fd5b505050506040513d60208110156124d957600080fd5b810190808051906020019092919050505015156124f557600080fd5b6124ff565b600080fd5b5b5b600a6000886000191660001916815260200190815260200160002060c0604051908101604052908160008201548152602001600182015481526020016002820160009054906101000a900473ffffffffffffffffffffffffffffffffffffffff1673ffffffffffffffffffffffffffffffffffffffff1673ffffffffffffffffffffffffffffffffffffffff168152602001600382018054600181600116156101000203166002900480601f01602080910402602001604051908101604052809291908181526020018280546001816001161561010002031660029004801561262b5780601f106126005761010080835404028352916020019161262b565b820191906000526020600020905b81548152906001019060200180831161260e57829003601f168201915b50505050508152602001600482018054600181600116156101000203166002900480601f0160208091040260200160405190810160405280929190818152602001828054600181600116156101000203166002900480156126cd5780601f106126a2576101008083540402835291602001916126cd565b820191906000526020600020905b8154815290600101906020018083116126b057829003601f168201915b50505050508152602001600582018054600181600116156101000203166002900480601f01602080910402602001604051908101604052809291908181526020018280546001816001161561010002031660029004801561276f5780601f106127445761010080835404028352916020019161276f565b820191906000526020600020905b81548152906001019060200180831161275257829003601f168201915b5050505050815250509450600073ffffffffffffffffffffffffffffffffffffffff16856040015173ffffffffffffffffffffffffffffffffffffffff16141515156127ba57600080fd5b600a6000886000191660001916815260200190815260200160002060008082016000905560018201600090556002820160006101000a81549073ffffffffffffffffffffffffffffffffffffffff021916905560038201600061281d919061653f565b60048201600061282d919061653f565b60058201600061283d9190616587565b5050600b6000866000015181526020019081526020016000209350600092505b838054905083101561291b578660001916848481548110151561287c57fe5b906000526020600020015460001916141561290e578360018580549050038154811015156128a657fe5b906000526020600020015484848154811015156128bf57fe5b9060005260206000200181600019169055508360018580549050038154811015156128e657fe5b90600052602060002001600090558380548091906001900361290891906165cf565b5061291b565b828060010193505061285d565b600c6000815480929190600190039190505550846040015173ffffffffffffffffffffffffffffffffffffffff16856000015188600019167f3cf57863a89432c61c4a27073c6ee39e8a764bff5a05aebfbcdcdc80b2e6130a886020015189606001518a608001518b60a0015160405180858152602001806020018060200180602001848103845287818151815260200191508051906020019080838360005b838110156129d65780820151818401526020810190506129bb565b50505050905090810190601f168015612a035780820380516001836020036101000a031916815260200191505b50848103835286818151815260200191508051906020019080838360005b83811015612a3c578082015181840152602081019050612a21565b50505050905090810190601f168015612a695780820380516001836020036101000a031916815260200191505b50848103825285818151815260200191508051906020019080838360005b83811015612aa2578082015181840152602081019050612a87565b50505050905090810190601f168015612acf5780820380516001836020036101000a031916815260200191505b5097505050505050505060405180910390a4600195505050505050919050565b600080612afa614940565b1515612b0557600080fd5b600560009054906101000a900460ff16151515612b2157600080fd5b612b37848460026149b59092919063ffffffff16565b1515612b465760009150612b96565b612b5c84846002614f5a9092919063ffffffff16565b9050808385600019167f585a4aef50f8267a92b32412b331b20f7f8b96f2245b253b9cc50dcc621d339760405160405180910390a4600191505b5092915050565b600560009054906101000a900460ff1681565b6000612bba6164f2565b600560009054906101000a900460ff16151515612bd657600080fd5b826000600a6000836000191660001916815260200190815260200160002060020160009054906101000a900473ffffffffffffffffffffffffffffffffffffffff16905060008173ffffffffffffffffffffffffffffffffffffffff1614151515612c4057600080fd5b612c48614940565b15612c5257612d9a565b8073ffffffffffffffffffffffffffffffffffffffff163373ffffffffffffffffffffffffffffffffffffffff161415612c8b57612d99565b612cbb612c9661336a565b8273ffffffffffffffffffffffffffffffffffffffff16614e7390919063ffffffff16565b15612d93578073ffffffffffffffffffffffffffffffffffffffff1663d202158d612ce533613182565b60026040518363ffffffff167c010000000000000000000000000000000000000000000000000000000002815260040180836000191660001916815260200182815260200192505050602060405180830381600087803b158015612d4857600080fd5b505af1158015612d5c573d6000803e3d6000fd5b505050506040513d6020811015612d7257600080fd5b81019080805190602001909291905050501515612d8e57600080fd5b612d98565b600080fd5b5b5b600a6000866000191660001916815260200190815260200160002060c0604051908101604052908160008201548152602001600182015481526020016002820160009054906101000a900473ffffffffffffffffffffffffffffffffffffffff1673ffffffffffffffffffffffffffffffffffffffff1673ffffffffffffffffffffffffffffffffffffffff168152602001600382018054600181600116156101000203166002900480601f016020809104026020016040519081016040528092919081815260200182805460018160011615610100020316600290048015612ec45780601f10612e9957610100808354040283529160200191612ec4565b820191906000526020600020905b815481529060010190602001808311612ea757829003601f168201915b50505050508152602001600482018054600181600116156101000203166002900480601f016020809104026020016040519081016040528092919081815260200182805460018160011615610100020316600290048015612f665780601f10612f3b57610100808354040283529160200191612f66565b820191906000526020600020905b815481529060010190602001808311612f4957829003601f168201915b50505050508152602001600582018054600181600116156101000203166002900480601f0160208091040260200160405190810160405280929190818152602001828054600181600116156101000203166002900480156130085780601f10612fdd57610100808354040283529160200191613008565b820191906000526020600020905b815481529060010190602001808311612feb57829003601f168201915b5050505050815250509250600073ffffffffffffffffffffffffffffffffffffffff16836040015173ffffffffffffffffffffffffffffffffffffffff161415151561305357600080fd5b6130748360000151846020015185604001518660600151876080015161519f565b151561308d5761308385612314565b5060009350613092565b600193505b505050919050565b60086020528060005260406000206000915090508060000160009054906101000a900473ffffffffffffffffffffffffffffffffffffffff1690806001015490806002018054600181600116156101000203166002900480601f0160208091040260200160405190810160405280929190818152602001828054600181600116156101000203166002900480156131725780601f1061314757610100808354040283529160200191613172565b820191906000526020600020905b81548152906001019060200180831161315557829003601f168201915b5050505050908060030154905084565b60008173ffffffffffffffffffffffffffffffffffffffff166001029050919050565b6009602052816000526040600020818154811015156131c057fe5b906000526020600020016000915091509054906101000a900473ffffffffffffffffffffffffffffffffffffffff1681565b600181565b6000613201614940565b151561320c57600080fd5b600560009054906101000a900460ff1615151561322857600080fd5b61323c85600261536f90919063ffffffff16565b151561324757600080fd5b61326185858585600261543190949392919063ffffffff16565b5060019050949350505050565b6000600560009054906101000a900460ff1615151561328c57600080fd5b613297338484615508565b905092915050565b600281565b600060026000016000856000191660001916815260200190815260200160002060030160008473ffffffffffffffffffffffffffffffffffffffff1673ffffffffffffffffffffffffffffffffffffffff1681526020019081526020016000206000837bffffffffffffffffffffffffffffffffffffffffffffffffffffffff19167bffffffffffffffffffffffffffffffffffffffffffffffffffffffff1916815260200190815260200160002060009054906101000a900460ff1690509392505050565b60006353d413c57c01000000000000000000000000000000000000000000000000000000000263747442d37c01000000000000000000000000000000000000000000000000000000000263b61d27f67c010000000000000000000000000000000000000000000000000000000002631d3812407c010000000000000000000000000000000000000000000000000000000002639010f7267c01000000000000000000000000000000000000000000000000000000000263d202158d7c0100000000000000000000000000000000000000000000000000000000026312aaac707c010000000000000000000000000000000000000000000000000000000002181818181818905090565b600181565b613480614940565b151561348b57600080fd5b600560009054906101000a900460ff161515156134a757600080fd5b6001600560006101000a81548160ff0219169083151502179055507f4b314b34e912fda7f95e7d23e9c8c95f82f0aff1984e4ce592a0b005f905562460405160405180910390a1565b60606002600101600083815260200190815260200160002080548060200260200160405190810160405280929190818152602001828054801561355657602002820191906000526020600020905b8154600019168152602001906001019080831161353e575b50505050509050919050565b600481565b600281565b60005481565b600481565b60075481565b600881565b600080600080600560009054906101000a900460ff161515156135a457600080fd5b6135b18a8a8a8a8a61519f565b15156135bc57600080fd5b6135c4614940565b925082151561386c573073ffffffffffffffffffffffffffffffffffffffff1663b61d27f630600080366040518563ffffffff167c0100000000000000000000000000000000000000000000000000000000028152600401808573ffffffffffffffffffffffffffffffffffffffff1673ffffffffffffffffffffffffffffffffffffffff168152602001848152602001806020018281038252848482818152602001925080828437820191505095505050505050602060405180830381600087803b15801561369357600080fd5b505af11580156136a7573d6000803e3d6000fd5b505050506040513d60208110156136bd57600080fd5b810190808051906020019092919050505093508773ffffffffffffffffffffffffffffffffffffffff168a857fe6b6db97dedfb44cbced367387e40b3f92dbee1b1be87f9367f7b673532b0d698c8b8b8b60405180858152602001806020018060200180602001848103845287818151815260200191508051906020019080838360005b8381101561375c578082015181840152602081019050613741565b50505050905090810190601f1680156137895780820380516001836020036101000a031916815260200191505b50848103835286818151815260200191508051906020019080838360005b838110156137c25780820151818401526020810190506137a7565b50505050905090810190601f1680156137ef5780820380516001836020036101000a031916815260200191505b50848103825285818151815260200191508051906020019080838360005b8381101561382857808201518184015260208101905061380d565b50505050905090810190601f1680156138555780820380516001836020036101000a031916815260200191505b5097505050505050505060405180910390a4613b0d565b613876888b611c1d565b9150600073ffffffffffffffffffffffffffffffffffffffff16600a6000846000191660001916815260200190815260200160002060020160009054906101000a900473ffffffffffffffffffffffffffffffffffffffff1673ffffffffffffffffffffffffffffffffffffffff1614156138ff576138fa828b8b8b8b8b8b615a8d565b613b0c565b600a6000836000191660001916815260200190815260200160002090508881600101819055508681600301908051906020019061393d9291906165fb565b50858160040190805190602001906139569291906165fb565b508481600501908051906020019061396f92919061667b565b508773ffffffffffffffffffffffffffffffffffffffff168a83600019167f3bab293fc00db832d7619a9299914251b8747c036867ec056cbd506f60135b138c8b8b8b60405180858152602001806020018060200180602001848103845287818151815260200191508051906020019080838360005b83811015613a005780820151818401526020810190506139e5565b50505050905090810190601f168015613a2d5780820380516001836020036101000a031916815260200191505b50848103835286818151815260200191508051906020019080838360005b83811015613a66578082015181840152602081019050613a4b565b50505050905090810190601f168015613a935780820380516001836020036101000a031916815260200191505b50848103825285818151815260200191508051906020019080838360005b83811015613acc578082015181840152602081019050613ab1565b50505050905090810190601f168015613af95780820380516001836020036101000a031916815260200191505b5097505050505050505060405180910390a45b5b5050509695505050505050565b600581565b6000600560009054906101000a900460ff16151515613b3d57600080fd5b613b4933858585614c1a565b90509392505050565b600781565b6000634eee424a7c01000000000000000000000000000000000000000000000000000000000263b1a34e0d7c01000000000000000000000000000000000000000000000000000000000263262b54f57c01000000000000000000000000000000000000000000000000000000000263c9100bcb7c010000000000000000000000000000000000000000000000000000000002181818905090565b60008060008090505b6004811015613cdd576008810260ff7f0100000000000000000000000000000000000000000000000000000000000000028583815181101515613c3957fe5b9060200101517f010000000000000000000000000000000000000000000000000000000000000090047f010000000000000000000000000000000000000000000000000000000000000002167effffffffffffffffffffffffffffffffffffffffffffffffffffffffffffff19167bffffffffffffffffffffffffffffffffffffffffffffffffffffffff19169060020a9004821791508080600101915050613bfa565b8192505050919050565b600381565b60008060006060806060613cfe6164f2565b600a6000896000191660001916815260200190815260200160002060c0604051908101604052908160008201548152602001600182015481526020016002820160009054906101000a900473ffffffffffffffffffffffffffffffffffffffff1673ffffffffffffffffffffffffffffffffffffffff1673ffffffffffffffffffffffffffffffffffffffff168152602001600382018054600181600116156101000203166002900480601f016020809104026020016040519081016040528092919081815260200182805460018160011615610100020316600290048015613e285780601f10613dfd57610100808354040283529160200191613e28565b820191906000526020600020905b815481529060010190602001808311613e0b57829003601f168201915b50505050508152602001600482018054600181600116156101000203166002900480601f016020809104026020016040519081016040528092919081815260200182805460018160011615610100020316600290048015613eca5780601f10613e9f57610100808354040283529160200191613eca565b820191906000526020600020905b815481529060010190602001808311613ead57829003601f168201915b50505050508152602001600582018054600181600116156101000203166002900480601f016020809104026020016040519081016040528092919081815260200182805460018160011615610100020316600290048015613f6c5780601f10613f4157610100808354040283529160200191613f6c565b820191906000526020600020905b815481529060010190602001808311613f4f57829003601f168201915b5050505050815250509050600073ffffffffffffffffffffffffffffffffffffffff16816040015173ffffffffffffffffffffffffffffffffffffffff1614151515613fb757600080fd5b80600001519650806020015195508060400151945080606001519350806080015192508060a0015191505091939550919395565b60006002800154905090565b6000600560009054906101000a900460ff1615151561401557600080fd5b61401d614940565b151561402857600080fd5b60008211151561403757600080fd5b61404160016134f0565b51905080821115151561405357600080fd5b816000819055505050565b6000600754905090565b6000614080838360026149b59092919063ffffffff16565b905092915050565b600581565b600080600080600560009054906101000a900460ff161515156140af57600080fd5b6140bc8b8b8b8b8b61519f565b15156140c757600080fd5b61429c8b8b8b8b8b8b604051602001808781526020018681526020018573ffffffffffffffffffffffffffffffffffffffff1673ffffffffffffffffffffffffffffffffffffffff166c0100000000000000000000000002815260140184805190602001908083835b6020831015156141555780518252602082019150602081019050602083039250614130565b6001836020036101000a03801982511681845116808217855250505050505090500183805190602001908083835b6020831015156141a85780518252602082019150602081019050602083039250614183565b6001836020036101000a03801982511681845116808217855250505050505090500182805190602001908083835b6020831015156141fb57805182526020820191506020810190506020830392506141d6565b6001836020036101000a03801982511681845116808217855250505050505090500196505050505050506040516020818303038152906040526040518082805190602001908083835b6020831015156142695780518252602082019150602081019050602083039250614244565b6001836020036101000a038019825116818451168082178552505050505050905001915050604051809103902086611f87565b92506142bd6142aa84613182565b600160026149b59092919063ffffffff16565b15156142c857600080fd5b6142d2898c611c1d565b9150600073ffffffffffffffffffffffffffffffffffffffff16600a6000846000191660001916815260200190815260200160002060020160009054906101000a900473ffffffffffffffffffffffffffffffffffffffff1673ffffffffffffffffffffffffffffffffffffffff16141561435b57614356828c8c8c8c8c8c615a8d565b614568565b600a600083600019166000191681526020019081526020016000209050898160010181905550878160030190805190602001906143999291906165fb565b50868160040190805190602001906143b29291906165fb565b50858160050190805190602001906143cb92919061667b565b508873ffffffffffffffffffffffffffffffffffffffff168b83600019167f3bab293fc00db832d7619a9299914251b8747c036867ec056cbd506f60135b138d8c8c8c60405180858152602001806020018060200180602001848103845287818151815260200191508051906020019080838360005b8381101561445c578082015181840152602081019050614441565b50505050905090810190601f1680156144895780820380516001836020036101000a031916815260200191505b50848103835286818151815260200191508051906020019080838360005b838110156144c25780820151818401526020810190506144a7565b50505050905090810190601f1680156144ef5780820380516001836020036101000a031916815260200191505b50848103825285818151815260200191508051906020019080838360005b8381101561452857808201518184015260208101905061450d565b50505050905090810190601f1680156145555780820380516001836020036101000a031916815260200191505b5097505050505050505060405180910390a45b60019350505050979650505050505050565b600080600560009054906101000a900460ff1615151561459957600080fd5b60075484141515614612576040517f08c379a000000000000000000000000000000000000000000000000000000000815260040180806020018281038252600e8152602001807f6e6f6e6365206d69736d6174636800000000000000000000000000000000000081525060200191505060405180910390fd5b6146d38686866040516020018084815260200183151515157f010000000000000000000000000000000000000000000000000000000000000002815260010182815260200193505050506040516020818303038152906040526040518082805190602001908083835b6020831015156146a0578051825260208201915060208101905060208303925061467b565b6001836020036101000a038019825116818451168082178552505050505050905001915050604051809103902084611f87565b90506146e0818787615508565b915050949350505050565b6000600560009054906101000a900460ff1615151561470957600080fd5b614711614940565b151561471c57600080fd5b60008211151561472b57600080fd5b61473560026134f0565b51905080821115151561474757600080fd5b816001819055505050565b600681565b600281565b614764614940565b151561476f57600080fd5b600073ffffffffffffffffffffffffffffffffffffffff168173ffffffffffffffffffffffffffffffffffffffff16141515156147ab57600080fd5b8073ffffffffffffffffffffffffffffffffffffffff16ff5b60008585858585604051602001808673ffffffffffffffffffffffffffffffffffffffff1673ffffffffffffffffffffffffffffffffffffffff166c010000000000000000000000000281526014018573ffffffffffffffffffffffffffffffffffffffff1673ffffffffffffffffffffffffffffffffffffffff166c0100000000000000000000000002815260140184815260200183805190602001908083835b60208310151561488b5780518252602082019150602081019050602083039250614866565b6001836020036101000a038019825116818451168082178552505050505050905001828152602001955050505050506040516020818303038152906040526040518082805190602001908083835b6020831015156148fe57805182526020820191506020810190506020830392506148d9565b6001836020036101000a038019825116818451168082178552505050505050905001915050604051809103902060019004905095945050505050565b600c5481565b60003073ffffffffffffffffffffffffffffffffffffffff163373ffffffffffffffffffffffffffffffffffffffff16141561497f57600190506149b2565b600160005414151561499057600080fd5b6149af61499c33613182565b600160026149b59092919063ffffffff16565b90505b90565b60006149bf6164cd565b600085600001600086600019166000191681526020019081526020016000206060604051908101604052908160008201805480602002602001604051908101604052809291908181526020018280548015614a3957602002820191906000526020600020905b815481526020019060010190808311614a25575b50505050508152602001600182015481526020016002820154600019166000191681525050915060006001028260400151600019161415614a7d5760009250614ac9565b600090505b816000015151811015614ac85783826000015182815181101515614aa257fe5b906020019060200201511415614abb5760019250614ac9565b8080600101915050614a82565b5b50509392505050565b614aea8383836002615d94909392919063ffffffff16565b808284600019167f480000bb1edad8ca1470381cc334b1917fbd51c6531f3a623ea8e0ec7e38a6e960405160405180910390a4505050565b60008060008060418551141515614b3c5760009350614c11565b6020850151925060408501519150606085015160001a9050601b8160ff161015614b6757601b810190505b601b8160ff1614158015614b7f5750601c8160ff1614155b15614b8d5760009350614c11565b600186828585604051600081526020016040526040518085600019166000191681526020018460ff1660ff1681526020018360001916600019168152602001826000191660001916815260200194505050505060206040516020810390808403906000865af1158015614c04573d6000803e3d6000fd5b5050506020604051035193505b50505092915050565b600080614c256166fb565b614c30878786615e6e565b9150614c41308787876007546147c4565b9250848673ffffffffffffffffffffffffffffffffffffffff16847f8afcfabcb00e47a53a8fc3e9f23ff47ee1926194bb1350dd007c50b412a6cee8876040518080602001828103825283818151815260200191508051906020019080838360005b83811015614cbe578082015181840152602081019050614ca3565b50505050905090810190601f168015614ceb5780820380516001836020036101000a031916815260200191505b509250505060405180910390a46007600081548092919060010191905055506080604051908101604052808773ffffffffffffffffffffffffffffffffffffffff1681526020018681526020018581526020018381525090506000821415614d5f57614d598382600061618e565b50614e66565b806008600085815260200190815260200160002060008201518160000160006101000a81548173ffffffffffffffffffffffffffffffffffffffff021916908373ffffffffffffffffffffffffffffffffffffffff160217905550602082015181600101556040820151816002019080519060200190614de092919061673a565b5060608201518160030155905050600960008481526020019081526020016000208790806001815401808255809150509060018203906000526020600020016000909192909190916101000a81548173ffffffffffffffffffffffffffffffffffffffff021916908373ffffffffffffffffffffffffffffffffffffffff160217905550505b8292505050949350505050565b6000806000614ea5856301ffc9a77c01000000000000000000000000000000000000000000000000000000000261647c565b80925081935050506000821480614ebc5750600081145b15614eca5760009250614f52565b614ef78563ffffffff7c01000000000000000000000000000000000000000000000000000000000261647c565b80925081935050506000821480614f0f575060008114155b15614f1d5760009250614f52565b614f27858561647c565b8092508193505050600182148015614f3f5750600181145b15614f4d5760019250614f52565b600092505b505092915050565b600080600080866000016000876000191660001916815260200190815260200160002060010154935086600001600087600019166000191681526020019081526020016000206000019250600091505b828054905082101561507157848383815481101515614fc557fe5b9060005260206000200154141561506457826001848054905003815481101515614feb57fe5b9060005260206000200154838381548110151561500457fe5b906000526020600020018190555082600184805490500381548110151561502757fe5b90600052602060002001600090558280548091906001900361504991906167ba565b50866002016000815480929190600190039190505550615071565b8180600101925050614faa565b6000838054905014156150bf578660000160008760001916600019168152602001908152602001600020600080820160006150ac91906167e6565b6001820160009055600282016000905550505b8660010160008681526020019081526020016000209050600091505b808054905082101561519557856000191681838154811015156150fa57fe5b90600052602060002001546000191614156151885780600182805490500381548110151561512457fe5b9060005260206000200154818381548110151561513d57fe5b90600052602060002001816000191690555080600182805490500381548110151561516457fe5b90600052602060002001600090558080548091906001900361518691906165cf565b505b81806001019250506150db565b5050509392505050565b6000806001861415615360576151bf6151b9308986611cf6565b85611f87565b90508073ffffffffffffffffffffffffffffffffffffffff168573ffffffffffffffffffffffffffffffffffffffff1614156151fe5760019150615365565b3073ffffffffffffffffffffffffffffffffffffffff168573ffffffffffffffffffffffffffffffffffffffff1614156152585761525161523e82613182565b600360026149b59092919063ffffffff16565b9150615365565b61528861526361336a565b8673ffffffffffffffffffffffffffffffffffffffff16614e7390919063ffffffff16565b15615357578473ffffffffffffffffffffffffffffffffffffffff1663d202158d6152b283613182565b60036040518363ffffffff167c010000000000000000000000000000000000000000000000000000000002815260040180836000191660001916815260200182815260200192505050602060405180830381600087803b15801561531557600080fd5b505af1158015615329573d6000803e3d6000fd5b505050506040513d602081101561533f57600080fd5b81019080805190602001909291905050509150615365565b60009150615365565b600091505b5095945050505050565b60006153796164cd565b836000016000846000191660001916815260200190815260200160002060606040519081016040529081600082018054806020026020016040519081016040528092919081815260200182805480156153f157602002820191906000526020600020905b8154815260200190600101908083116153dd575b5050505050815260200160018201548152602001600282015460001916600019168152505090506000600102816040015160001916141591505092915050565b60008086600001600087600019166000191681526020019081526020016000209050828160030160008773ffffffffffffffffffffffffffffffffffffffff1673ffffffffffffffffffffffffffffffffffffffff1681526020019081526020016000206000867bffffffffffffffffffffffffffffffffffffffffffffffffffffffff19167bffffffffffffffffffffffffffffffffffffffffffffffffffffffff1916815260200190815260200160002060006101000a81548160ff0219169083151502179055508291505095945050505050565b6000806000806000861415151561551e57600080fd5b60086000878152602001908152602001600020925060008360000160009054906101000a900473ffffffffffffffffffffffffffffffffffffffff1673ffffffffffffffffffffffffffffffffffffffff161415151561557d57600080fd5b615648878460000160009054906101000a900473ffffffffffffffffffffffffffffffffffffffff16856002018054600181600116156101000203166002900480601f01602080910402602001604051908101604052809291908181526020018280546001816001161561010002031660029004801561563e5780601f106156135761010080835404028352916020019161563e565b820191906000526020600020905b81548152906001019060200180831161562157829003601f168201915b5050505050615e6e565b50857fb3932da477fe5d6c8ff2eafef050c0f3a1af18fc07121001482600f36f3715d886604051808215151515815260200191505060405180910390a260096000878152602001908152602001600020915084151561583d57600090505b8180549050811015615834578673ffffffffffffffffffffffffffffffffffffffff1682828154811015156156d757fe5b9060005260206000200160009054906101000a900473ffffffffffffffffffffffffffffffffffffffff1673ffffffffffffffffffffffffffffffffffffffff1614156158275781600183805490500381548110151561573357fe5b9060005260206000200160009054906101000a900473ffffffffffffffffffffffffffffffffffffffff16828281548110151561576c57fe5b9060005260206000200160006101000a81548173ffffffffffffffffffffffffffffffffffffffff021916908373ffffffffffffffffffffffffffffffffffffffff1602179055508160018380549050038154811015156157c957fe5b9060005260206000200160006101000a81549073ffffffffffffffffffffffffffffffffffffffff02191690558180548091906001900361580a9190616807565b506001836003016000828254019250508190555060019350615a83565b80806001019150506156a6565b60009350615a83565b600090505b81805490508110156158ce578673ffffffffffffffffffffffffffffffffffffffff16828281548110151561587357fe5b9060005260206000200160009054906101000a900473ffffffffffffffffffffffffffffffffffffffff1673ffffffffffffffffffffffffffffffffffffffff16141515156158c157600080fd5b8080600101915050615842565b818790806001815401808255809150509060018203906000526020600020016000909192909190916101000a81548173ffffffffffffffffffffffffffffffffffffffff021916908373ffffffffffffffffffffffffffffffffffffffff1602179055505060018360030160008282540392505081905550600083600301541415615a7e57615a778684608060405190810160405290816000820160009054906101000a900473ffffffffffffffffffffffffffffffffffffffff1673ffffffffffffffffffffffffffffffffffffffff1673ffffffffffffffffffffffffffffffffffffffff16815260200160018201548152602001600282018054600181600116156101000203166002900480601f016020809104026020016040519081016040528092919081815260200182805460018160011615610100020316600290048015615a5d5780601f10615a3257610100808354040283529160200191615a5d565b820191906000526020600020905b815481529060010190602001808311615a4057829003601f168201915b50505050508152602001600382015481525050600161618e565b9350615a83565b600193505b5050509392505050565b60c0604051908101604052808781526020018681526020018573ffffffffffffffffffffffffffffffffffffffff16815260200184815260200183815260200182815250600a60008960001916600019168152602001908152602001600020600082015181600001556020820151816001015560408201518160020160006101000a81548173ffffffffffffffffffffffffffffffffffffffff021916908373ffffffffffffffffffffffffffffffffffffffff1602179055506060820151816003019080519060200190615b6392919061673a565b506080820151816004019080519060200190615b8092919061673a565b5060a0820151816005019080519060200190615b9d929190616833565b50905050600b60008781526020019081526020016000208790806001815401808255809150509060018203906000526020600020016000909192909190915090600019169055506001600c5401600c819055508373ffffffffffffffffffffffffffffffffffffffff168688600019167f46149b18aa084502c3f12bc75e19eda8bda8d102b82cce8474677a6d0d5f43c58887878760405180858152602001806020018060200180602001848103845287818151815260200191508051906020019080838360005b83811015615c80578082015181840152602081019050615c65565b50505050905090810190601f168015615cad5780820380516001836020036101000a031916815260200191505b50848103835286818151815260200191508051906020019080838360005b83811015615ce6578082015181840152602081019050615ccb565b50505050905090810190601f168015615d135780820380516001836020036101000a031916815260200191505b50848103825285818151815260200191508051906020019080838360005b83811015615d4c578082015181840152602081019050615d31565b50505050905090810190601f168015615d795780820380516001836020036101000a031916815260200191505b5097505050505050505060405180910390a450505050505050565b6000846000016000856000191660001916815260200190815260200160002090508060000183908060018154018082558091505090600182039060005260206000200160009091929091909150555060006001028160020154600019161415615e0e57838160020181600019169055508181600101819055505b84600101600084815260200190815260200160002084908060018154018082558091505090600182039060005260206000200160009091929091909150906000191690555084600201600081548092919060010191905055505050505050565b60003073ffffffffffffffffffffffffffffffffffffffff168373ffffffffffffffffffffffffffffffffffffffff161415615fb8573073ffffffffffffffffffffffffffffffffffffffff168473ffffffffffffffffffffffffffffffffffffffff161415615ee2576000549050615fb3565b615f01615eee85613182565b600160026149b59092919063ffffffff16565b80615f9b5750615f26615f1385613182565b600760026149b59092919063ffffffff16565b8015615f9a5750631d3812407c0100000000000000000000000000000000000000000000000000000000027bffffffffffffffffffffffffffffffffffffffffffffffffffffffff1916615f7983613bf1565b7bffffffffffffffffffffffffffffffffffffffffffffffffffffffff1916145b5b15615fad576001600054039050615fb2565b600080fd5b5b616187565b600073ffffffffffffffffffffffffffffffffffffffff168373ffffffffffffffffffffffffffffffffffffffff1614151515615ff457600080fd5b3073ffffffffffffffffffffffffffffffffffffffff168473ffffffffffffffffffffffffffffffffffffffff161415616032576001549050616186565b61605061603e85613182565b6002806149b59092919063ffffffff16565b80616076575061607561606285613182565b600660026149b59092919063ffffffff16565b5b8061616f575061609b61608885613182565b600860026149b59092919063ffffffff16565b801561616e5750600260000160006160b286613182565b6000191660001916815260200190815260200160002060030160008473ffffffffffffffffffffffffffffffffffffffff1673ffffffffffffffffffffffffffffffffffffffff168152602001908152602001600020600061611384613bf1565b7bffffffffffffffffffffffffffffffffffffffffffffffffffffffff19167bffffffffffffffffffffffffffffffffffffffffffffffffffffffff1916815260200190815260200160002060009054906101000a900460ff165b5b156161805760018054039050616185565b600080fd5b5b5b9392505050565b6000806000846000015173ffffffffffffffffffffffffffffffffffffffff16141515156161bb57600080fd5b836000015173ffffffffffffffffffffffffffffffffffffffff168460200151856040015160405180828051906020019080838360005b8381101561620d5780820151818401526020810190506161f2565b50505050905090810190601f16801561623a5780820380516001836020036101000a031916815260200191505b5091505060006040518083038185875af1925050509050801515616322578360200151846000015173ffffffffffffffffffffffffffffffffffffffff16867fe10c49d9f7c71da23262367013434763cfdb2332267641728d25cd712c5c6a6887604001516040518080602001828103825283818151815260200191508051906020019080838360005b838110156162df5780820151818401526020810190506162c4565b50505050905090810190601f16801561630c5780820380516001836020036101000a031916815260200191505b509250505060405180910390a460009150616474565b8360200151846000015173ffffffffffffffffffffffffffffffffffffffff16867f1f920dbda597d7bf95035464170fa58d0a4b57f13a1c315ace6793b9f63688b887604001516040518080602001828103825283818151815260200191508051906020019080838360005b838110156163a957808201518184015260208101905061638e565b50505050905090810190601f1680156163d65780820380516001836020036101000a031916815260200191505b509250505060405180910390a48215156163f35760019150616474565b60086000868152602001908152602001600020600080820160006101000a81549073ffffffffffffffffffffffffffffffffffffffff02191690556001820160009055600282016000616446919061653f565b6003820160009055505060096000868152602001908152602001600020600061646f91906168b3565b600191505b509392505050565b60008060006301ffc9a77c010000000000000000000000000000000000000000000000000000000002905060405181815284600482015260208160208389617530fa93508051925050509250929050565b6060604051908101604052806060815260200160008152602001600080191681525090565b60c0604051908101604052806000815260200160008152602001600073ffffffffffffffffffffffffffffffffffffffff1681526020016060815260200160608152602001606081525090565b50805460018160011615610100020316600290046000825580601f106165655750616584565b601f01602090049060005260206000209081019061658391906168d4565b5b50565b50805460018160011615610100020316600290046000825580601f106165ad57506165cc565b601f0160209004906000526020600020908101906165cb91906168d4565b5b50565b8154818355818111156165f6578183600052602060002091820191016165f591906168f9565b5b505050565b828054600181600116156101000203166002900490600052602060002090601f016020900481019282601f1061663c57805160ff191683800117855561666a565b8280016001018555821561666a579182015b8281111561666957825182559160200191906001019061664e565b5b50905061667791906168d4565b5090565b828054600181600116156101000203166002900490600052602060002090601f016020900481019282601f106166bc57805160ff19168380011785556166ea565b828001600101855582156166ea579182015b828111156166e95782518255916020019190600101906166ce565b5b5090506166f791906168d4565b5090565b608060405190810160405280600073ffffffffffffffffffffffffffffffffffffffff1681526020016000815260200160608152602001600081525090565b828054600181600116156101000203166002900490600052602060002090601f016020900481019282601f1061677b57805160ff19168380011785556167a9565b828001600101855582156167a9579182015b828111156167a857825182559160200191906001019061678d565b5b5090506167b691906168d4565b5090565b8154818355818111156167e1578183600052602060002091820191016167e091906168d4565b5b505050565b508054600082559060005260206000209081019061680491906168d4565b50565b81548183558181111561682e5781836000526020600020918201910161682d91906168d4565b5b505050565b828054600181600116156101000203166002900490600052602060002090601f016020900481019282601f1061687457805160ff19168380011785556168a2565b828001600101855582156168a2579182015b828111156168a1578251825591602001919060010190616886565b5b5090506168af91906168d4565b5090565b50805460008255906000526020600020908101906168d191906168d4565b50565b6168f691905b808211156168f25760008160009055506001016168da565b5090565b90565b61691b91905b808211156169175760008160009055506001016168ff565b5090565b905600a165627a7a723058206e721e2ef0ca63970015b9d78b1187b72171f9d7d760588d7e6e51e107b332790029a165627a7a72305820ffe49ef9740feebac462d45c6d49e450190d2d47b0a225d852c40ac2f0eb4e970029",
  "source": "pragma solidity ^0.4.24;\n\nimport \"openzeppelin-solidity/contracts/ownership/Ownable.sol\";\nimport \"./identity/MetaIdentity.sol\";\nimport \"./RegistryUser.sol\";\n\n\n/**\n * @title IdentityManager\n * @dev IdentityManager is factory contract to make identity\n * permissoined sender can create metadium identity through this contract\n */\ncontract IdentityManager is RegistryUser {\n    //Hold the list of MetaIds\n    //CreateMetaId\n    \n    address[] public metaIds;\n    mapping(address=>bool) metaIdExistence;\n\n    event CreateMetaId(address indexed managementKey, address metaId);\n    \n    constructor() public {\n        THIS_NAME = \"IdentityManager\";\n    }\n\n\n    /**\n     * @dev Create Metadium Identity which is based upon erc725-735 \n     * @param _managementKey basic managementKey to use\n     * @return A boolean that indicates if the operation was successful.\n     */\n    function createMetaId(address _managementKey) public permissioned returns (bool success) {\n        require(_managementKey != address(0), \"address is 0x0\");\n\n        address newMetaId = new MetaIdentity(_managementKey);\n        metaIds.push(newMetaId);\n        metaIdExistence[newMetaId] = true;\n\n        emit CreateMetaId(_managementKey, newMetaId);\n\n        return true;\n\n    }\n    /**\n     * @dev Add MetaId to the list. This function is for migration.\n     * @param _metaId meta id address\n     * @return A boolean that indicates if the operation was successful.\n     */\n    function addMetaId(address _metaId, address _managementKey) public permissioned returns (bool success) {\n        metaIds.push(_metaId);\n        metaIdExistence[_metaId] = true;\n\n        emit CreateMetaId(_managementKey, _metaId);\n        \n        return true;\n    }\n\n    function getDeployedMetaIds() public view returns(address[] addrs) {\n        return metaIds;\n    }\n\n    function isMetaId(address _addr) public view returns(bool found) {\n        return metaIdExistence[_addr];\n    }\n\n    function getLengthOfMetaIds() public view returns(uint256 length) {\n        return metaIds.length;\n    }\n\n}",
  "sourcePath": "/Users/hexoul/Documents/Metadium/metabolics/contracts/IdentityManager.sol",
  "compiler": {
    "name": "solc",
    "version": "0.4.24+commit.e67f0147.Emscripten.clang"
  },
  "schemaVersion": "2.0.1",
  "updatedAt": "2019-03-18T02:30:31.118Z"
}