{
  "contractName": "Identity",
  "abi": [
    {
      "constant": true,
      "inputs": [
        {
          "name": "interfaceID",
          "type": "bytes4"
        }
      ],
      "name": "supportsInterface",
      "outputs": [
        {
          "name": "",
          "type": "bool"
        }
      ],
      "payable": false,
      "stateMutability": "view",
      "type": "function"
    },
    {
      "constant": true,
      "inputs": [],
      "name": "ERC165ID",
      "outputs": [
        {
          "name": "",
          "type": "bytes4"
        }
      ],
      "payable": false,
      "stateMutability": "pure",
      "type": "function"
    },
    {
      "constant": true,
      "inputs": [],
      "name": "REGISTRY_TOPIC",
      "outputs": [
        {
          "name": "",
          "type": "uint256"
        }
      ],
      "payable": false,
      "stateMutability": "view",
      "type": "function"
    },
    {
      "constant": true,
      "inputs": [],
      "name": "MANAGEMENT_KEY",
      "outputs": [
        {
          "name": "",
          "type": "uint256"
        }
      ],
      "payable": false,
      "stateMutability": "view",
      "type": "function"
    },
    {
      "constant": true,
      "inputs": [
        {
          "name": "_key",
          "type": "bytes32"
        }
      ],
      "name": "getKey",
      "outputs": [
        {
          "name": "purposes",
          "type": "uint256[]"
        },
        {
          "name": "keyType",
          "type": "uint256"
        },
        {
          "name": "key",
          "type": "bytes32"
        }
      ],
      "payable": false,
      "stateMutability": "view",
      "type": "function"
    },
    {
      "constant": true,
      "inputs": [
        {
          "name": "issuer",
          "type": "address"
        },
        {
          "name": "topic",
          "type": "uint256"
        }
      ],
      "name": "getClaimId",
      "outputs": [
        {
          "name": "",
          "type": "bytes32"
        }
      ],
      "payable": false,
      "stateMutability": "pure",
      "type": "function"
    },
    {
      "constant": true,
      "inputs": [
        {
          "name": "subject",
          "type": "address"
        },
        {
          "name": "topic",
          "type": "uint256"
        },
        {
          "name": "data",
          "type": "bytes"
        }
      ],
      "name": "claimToSign",
      "outputs": [
        {
          "name": "",
          "type": "bytes32"
        }
      ],
      "payable": false,
      "stateMutability": "pure",
      "type": "function"
    },
    {
      "constant": false,
      "inputs": [
        {
          "name": "_key",
          "type": "bytes32"
        },
        {
          "name": "_purpose",
          "type": "uint256"
        },
        {
          "name": "_keyType",
          "type": "uint256"
        }
      ],
      "name": "addKey",
      "outputs": [
        {
          "name": "success",
          "type": "bool"
        }
      ],
      "payable": false,
      "stateMutability": "nonpayable",
      "type": "function"
    },
    {
      "constant": true,
      "inputs": [
        {
          "name": "_claimId",
          "type": "bytes32"
        }
      ],
      "name": "isClaimExist",
      "outputs": [
        {
          "name": "",
          "type": "bool"
        }
      ],
      "payable": false,
      "stateMutability": "view",
      "type": "function"
    },
    {
      "constant": true,
      "inputs": [],
      "name": "CONTRACT_SCHEME",
      "outputs": [
        {
          "name": "",
          "type": "uint256"
        }
      ],
      "payable": false,
      "stateMutability": "view",
      "type": "function"
    },
    {
      "constant": true,
      "inputs": [
        {
          "name": "_topic",
          "type": "uint256"
        }
      ],
      "name": "getClaimIdsByType",
      "outputs": [
        {
          "name": "claimIds",
          "type": "bytes32[]"
        }
      ],
      "payable": false,
      "stateMutability": "view",
      "type": "function"
    },
    {
      "constant": true,
      "inputs": [],
      "name": "RSA_TYPE",
      "outputs": [
        {
          "name": "",
          "type": "uint256"
        }
      ],
      "payable": false,
      "stateMutability": "view",
      "type": "function"
    },
    {
      "constant": true,
      "inputs": [],
      "name": "getTransactionCount",
      "outputs": [
        {
          "name": "",
          "type": "uint256"
        }
      ],
      "payable": false,
      "stateMutability": "view",
      "type": "function"
    },
    {
      "constant": true,
      "inputs": [],
      "name": "actionThreshold",
      "outputs": [
        {
          "name": "",
          "type": "uint256"
        }
      ],
      "payable": false,
      "stateMutability": "view",
      "type": "function"
    },
    {
      "constant": true,
      "inputs": [
        {
          "name": "toSign",
          "type": "bytes32"
        },
        {
          "name": "signature",
          "type": "bytes"
        }
      ],
      "name": "getSignatureAddress",
      "outputs": [
        {
          "name": "",
          "type": "address"
        }
      ],
      "payable": false,
      "stateMutability": "pure",
      "type": "function"
    },
    {
      "constant": false,
      "inputs": [],
      "name": "unpause",
      "outputs": [],
      "payable": false,
      "stateMutability": "nonpayable",
      "type": "function"
    },
    {
      "constant": true,
      "inputs": [],
      "name": "ECDSA_TYPE",
      "outputs": [
        {
          "name": "",
          "type": "uint256"
        }
      ],
      "payable": false,
      "stateMutability": "view",
      "type": "function"
    },
    {
      "constant": false,
      "inputs": [
        {
          "name": "_to",
          "type": "address"
        },
        {
          "name": "_value",
          "type": "uint256"
        },
        {
          "name": "_data",
          "type": "bytes"
        },
        {
          "name": "_nonce",
          "type": "uint256"
        },
        {
          "name": "_sig",
          "type": "bytes"
        }
      ],
      "name": "delegatedExecute",
      "outputs": [
        {
          "name": "executionId",
          "type": "uint256"
        }
      ],
      "payable": false,
      "stateMutability": "nonpayable",
      "type": "function"
    },
    {
      "constant": false,
      "inputs": [
        {
          "name": "_claimId",
          "type": "bytes32"
        }
      ],
      "name": "removeClaim",
      "outputs": [
        {
          "name": "success",
          "type": "bool"
        }
      ],
      "payable": false,
      "stateMutability": "nonpayable",
      "type": "function"
    },
    {
      "constant": false,
      "inputs": [
        {
          "name": "_key",
          "type": "bytes32"
        },
        {
          "name": "_purpose",
          "type": "uint256"
        }
      ],
      "name": "removeKey",
      "outputs": [
        {
          "name": "success",
          "type": "bool"
        }
      ],
      "payable": false,
      "stateMutability": "nonpayable",
      "type": "function"
    },
    {
      "constant": true,
      "inputs": [],
      "name": "paused",
      "outputs": [
        {
          "name": "",
          "type": "bool"
        }
      ],
      "payable": false,
      "stateMutability": "view",
      "type": "function"
    },
    {
      "constant": false,
      "inputs": [
        {
          "name": "_claimId",
          "type": "bytes32"
        }
      ],
      "name": "refreshClaim",
      "outputs": [
        {
          "name": "",
          "type": "bool"
        }
      ],
      "payable": false,
      "stateMutability": "nonpayable",
      "type": "function"
    },
    {
      "constant": true,
      "inputs": [
        {
          "name": "",
          "type": "uint256"
        }
      ],
      "name": "execution",
      "outputs": [
        {
          "name": "to",
          "type": "address"
        },
        {
          "name": "value",
          "type": "uint256"
        },
        {
          "name": "data",
          "type": "bytes"
        },
        {
          "name": "needsApprove",
          "type": "uint256"
        }
      ],
      "payable": false,
      "stateMutability": "view",
      "type": "function"
    },
    {
      "constant": true,
      "inputs": [
        {
          "name": "addr",
          "type": "address"
        }
      ],
      "name": "addrToKey",
      "outputs": [
        {
          "name": "",
          "type": "bytes32"
        }
      ],
      "payable": false,
      "stateMutability": "pure",
      "type": "function"
    },
    {
      "constant": true,
      "inputs": [
        {
          "name": "",
          "type": "uint256"
        },
        {
          "name": "",
          "type": "uint256"
        }
      ],
      "name": "approved",
      "outputs": [
        {
          "name": "",
          "type": "address"
        }
      ],
      "payable": false,
      "stateMutability": "view",
      "type": "function"
    },
    {
      "constant": true,
      "inputs": [],
      "name": "METAID_TOPIC",
      "outputs": [
        {
          "name": "",
          "type": "uint256"
        }
      ],
      "payable": false,
      "stateMutability": "view",
      "type": "function"
    },
    {
      "constant": false,
      "inputs": [
        {
          "name": "_key",
          "type": "bytes32"
        },
        {
          "name": "_to",
          "type": "address"
        },
        {
          "name": "_func",
          "type": "bytes4"
        },
        {
          "name": "_executable",
          "type": "bool"
        }
      ],
      "name": "setFunc",
      "outputs": [
        {
          "name": "success",
          "type": "bool"
        }
      ],
      "payable": false,
      "stateMutability": "nonpayable",
      "type": "function"
    },
    {
      "constant": false,
      "inputs": [
        {
          "name": "_id",
          "type": "uint256"
        },
        {
          "name": "_approve",
          "type": "bool"
        }
      ],
      "name": "approve",
      "outputs": [
        {
          "name": "success",
          "type": "bool"
        }
      ],
      "payable": false,
      "stateMutability": "nonpayable",
      "type": "function"
    },
    {
      "constant": true,
      "inputs": [],
      "name": "ACTION_KEY",
      "outputs": [
        {
          "name": "",
          "type": "uint256"
        }
      ],
      "payable": false,
      "stateMutability": "view",
      "type": "function"
    },
    {
      "constant": true,
      "inputs": [
        {
          "name": "_key",
          "type": "bytes32"
        },
        {
          "name": "_to",
          "type": "address"
        },
        {
          "name": "_func",
          "type": "bytes4"
        }
      ],
      "name": "keyCanExecute",
      "outputs": [
        {
          "name": "executable",
          "type": "bool"
        }
      ],
      "payable": false,
      "stateMutability": "view",
      "type": "function"
    },
    {
      "constant": true,
      "inputs": [],
      "name": "ERC725ID",
      "outputs": [
        {
          "name": "",
          "type": "bytes4"
        }
      ],
      "payable": false,
      "stateMutability": "pure",
      "type": "function"
    },
    {
      "constant": true,
      "inputs": [],
      "name": "ECDSA_SCHEME",
      "outputs": [
        {
          "name": "",
          "type": "uint256"
        }
      ],
      "payable": false,
      "stateMutability": "view",
      "type": "function"
    },
    {
      "constant": false,
      "inputs": [],
      "name": "pause",
      "outputs": [],
      "payable": false,
      "stateMutability": "nonpayable",
      "type": "function"
    },
    {
      "constant": true,
      "inputs": [
        {
          "name": "_purpose",
          "type": "uint256"
        }
      ],
      "name": "getKeysByPurpose",
      "outputs": [
        {
          "name": "keys",
          "type": "bytes32[]"
        }
      ],
      "payable": false,
      "stateMutability": "view",
      "type": "function"
    },
    {
      "constant": true,
      "inputs": [],
      "name": "ENCRYPTION_KEY",
      "outputs": [
        {
          "name": "",
          "type": "uint256"
        }
      ],
      "payable": false,
      "stateMutability": "view",
      "type": "function"
    },
    {
      "constant": true,
      "inputs": [],
      "name": "RESIDENCE_TOPIC",
      "outputs": [
        {
          "name": "",
          "type": "uint256"
        }
      ],
      "payable": false,
      "stateMutability": "view",
      "type": "function"
    },
    {
      "constant": true,
      "inputs": [],
      "name": "managementThreshold",
      "outputs": [
        {
          "name": "",
          "type": "uint256"
        }
      ],
      "payable": false,
      "stateMutability": "view",
      "type": "function"
    },
    {
      "constant": true,
      "inputs": [],
      "name": "PROFILE_TOPIC",
      "outputs": [
        {
          "name": "",
          "type": "uint256"
        }
      ],
      "payable": false,
      "stateMutability": "view",
      "type": "function"
    },
    {
      "constant": true,
      "inputs": [],
      "name": "nonce",
      "outputs": [
        {
          "name": "",
          "type": "uint256"
        }
      ],
      "payable": false,
      "stateMutability": "view",
      "type": "function"
    },
    {
      "constant": true,
      "inputs": [],
      "name": "CUSTOM_KEY",
      "outputs": [
        {
          "name": "",
          "type": "uint256"
        }
      ],
      "payable": false,
      "stateMutability": "view",
      "type": "function"
    },
    {
      "constant": false,
      "inputs": [
        {
          "name": "_topic",
          "type": "uint256"
        },
        {
          "name": "_scheme",
          "type": "uint256"
        },
        {
          "name": "issuer",
          "type": "address"
        },
        {
          "name": "_signature",
          "type": "bytes"
        },
        {
          "name": "_data",
          "type": "bytes"
        },
        {
          "name": "_uri",
          "type": "string"
        }
      ],
      "name": "addClaim",
      "outputs": [
        {
          "name": "claimRequestId",
          "type": "uint256"
        }
      ],
      "payable": false,
      "stateMutability": "nonpayable",
      "type": "function"
    },
    {
      "constant": true,
      "inputs": [],
      "name": "LABEL_TOPIC",
      "outputs": [
        {
          "name": "",
          "type": "uint256"
        }
      ],
      "payable": false,
      "stateMutability": "view",
      "type": "function"
    },
    {
      "constant": false,
      "inputs": [
        {
          "name": "_to",
          "type": "address"
        },
        {
          "name": "_value",
          "type": "uint256"
        },
        {
          "name": "_data",
          "type": "bytes"
        }
      ],
      "name": "execute",
      "outputs": [
        {
          "name": "executionId",
          "type": "uint256"
        }
      ],
      "payable": false,
      "stateMutability": "nonpayable",
      "type": "function"
    },
    {
      "constant": true,
      "inputs": [],
      "name": "RESTORE_KEY",
      "outputs": [
        {
          "name": "",
          "type": "uint256"
        }
      ],
      "payable": false,
      "stateMutability": "view",
      "type": "function"
    },
    {
      "constant": true,
      "inputs": [],
      "name": "ERC735ID",
      "outputs": [
        {
          "name": "",
          "type": "bytes4"
        }
      ],
      "payable": false,
      "stateMutability": "pure",
      "type": "function"
    },
    {
      "constant": true,
      "inputs": [
        {
          "name": "b",
          "type": "bytes"
        }
      ],
      "name": "getFunctionSignature",
      "outputs": [
        {
          "name": "",
          "type": "bytes4"
        }
      ],
      "payable": false,
      "stateMutability": "pure",
      "type": "function"
    },
    {
      "constant": true,
      "inputs": [],
      "name": "CLAIM_SIGNER_KEY",
      "outputs": [
        {
          "name": "",
          "type": "uint256"
        }
      ],
      "payable": false,
      "stateMutability": "view",
      "type": "function"
    },
    {
      "constant": true,
      "inputs": [
        {
          "name": "_claimId",
          "type": "bytes32"
        }
      ],
      "name": "getClaim",
      "outputs": [
        {
          "name": "topic",
          "type": "uint256"
        },
        {
          "name": "scheme",
          "type": "uint256"
        },
        {
          "name": "issuer",
          "type": "address"
        },
        {
          "name": "signature",
          "type": "bytes"
        },
        {
          "name": "data",
          "type": "bytes"
        },
        {
          "name": "uri",
          "type": "string"
        }
      ],
      "payable": false,
      "stateMutability": "view",
      "type": "function"
    },
    {
      "constant": true,
      "inputs": [],
      "name": "numKeys",
      "outputs": [
        {
          "name": "",
          "type": "uint256"
        }
      ],
      "payable": false,
      "stateMutability": "view",
      "type": "function"
    },
    {
      "constant": false,
      "inputs": [
        {
          "name": "threshold",
          "type": "uint256"
        }
      ],
      "name": "changeManagementThreshold",
      "outputs": [],
      "payable": false,
      "stateMutability": "nonpayable",
      "type": "function"
    },
    {
      "constant": true,
      "inputs": [
        {
          "name": "_key",
          "type": "bytes32"
        },
        {
          "name": "purpose",
          "type": "uint256"
        }
      ],
      "name": "keyHasPurpose",
      "outputs": [
        {
          "name": "exists",
          "type": "bool"
        }
      ],
      "payable": false,
      "stateMutability": "view",
      "type": "function"
    },
    {
      "constant": true,
      "inputs": [],
      "name": "ASSIST_KEY",
      "outputs": [
        {
          "name": "",
          "type": "uint256"
        }
      ],
      "payable": false,
      "stateMutability": "view",
      "type": "function"
    },
    {
      "constant": false,
      "inputs": [
        {
          "name": "_topic",
          "type": "uint256"
        },
        {
          "name": "_scheme",
          "type": "uint256"
        },
        {
          "name": "issuer",
          "type": "address"
        },
        {
          "name": "_signature",
          "type": "bytes"
        },
        {
          "name": "_data",
          "type": "bytes"
        },
        {
          "name": "_uri",
          "type": "string"
        },
        {
          "name": "_idSignature",
          "type": "bytes"
        }
      ],
      "name": "addClaimByProxy",
      "outputs": [
        {
          "name": "success",
          "type": "bool"
        }
      ],
      "payable": false,
      "stateMutability": "nonpayable",
      "type": "function"
    },
    {
      "constant": false,
      "inputs": [
        {
          "name": "_id",
          "type": "uint256"
        },
        {
          "name": "_approve",
          "type": "bool"
        },
        {
          "name": "_nonce",
          "type": "uint256"
        },
        {
          "name": "_sig",
          "type": "bytes"
        }
      ],
      "name": "delegatedApprove",
      "outputs": [
        {
          "name": "success",
          "type": "bool"
        }
      ],
      "payable": false,
      "stateMutability": "nonpayable",
      "type": "function"
    },
    {
      "constant": false,
      "inputs": [
        {
          "name": "threshold",
          "type": "uint256"
        }
      ],
      "name": "changeActionThreshold",
      "outputs": [],
      "payable": false,
      "stateMutability": "nonpayable",
      "type": "function"
    },
    {
      "constant": true,
      "inputs": [],
      "name": "DELEGATE_KEY",
      "outputs": [
        {
          "name": "",
          "type": "uint256"
        }
      ],
      "payable": false,
      "stateMutability": "view",
      "type": "function"
    },
    {
      "constant": true,
      "inputs": [],
      "name": "RSA_SCHEME",
      "outputs": [
        {
          "name": "",
          "type": "uint256"
        }
      ],
      "payable": false,
      "stateMutability": "view",
      "type": "function"
    },
    {
      "constant": false,
      "inputs": [
        {
          "name": "_recipient",
          "type": "address"
        }
      ],
      "name": "destroyAndSend",
      "outputs": [],
      "payable": false,
      "stateMutability": "nonpayable",
      "type": "function"
    },
    {
      "constant": true,
      "inputs": [],
      "name": "numClaims",
      "outputs": [
        {
          "name": "",
          "type": "uint256"
        }
      ],
      "payable": false,
      "stateMutability": "view",
      "type": "function"
    },
    {
      "inputs": [
        {
          "name": "_keys",
          "type": "bytes32[]"
        },
        {
          "name": "_purposes",
          "type": "uint256[]"
        },
        {
          "name": "_managementThreshold",
          "type": "uint256"
        },
        {
          "name": "_actionThreshold",
          "type": "uint256"
        },
        {
          "name": "_issuers",
          "type": "address[]"
        },
        {
          "name": "_topics",
          "type": "uint256[]"
        },
        {
          "name": "_signatures",
          "type": "bytes"
        },
        {
          "name": "_datas",
          "type": "bytes"
        },
        {
          "name": "_uris",
          "type": "string"
        },
        {
          "name": "_sizes",
          "type": "uint8[]"
        }
      ],
      "payable": false,
      "stateMutability": "nonpayable",
      "type": "constructor"
    },
    {
      "payable": true,
      "stateMutability": "payable",
      "type": "fallback"
    },
    {
      "anonymous": false,
      "inputs": [
        {
          "indexed": true,
          "name": "claimRequestId",
          "type": "uint256"
        },
        {
          "indexed": true,
          "name": "topic",
          "type": "uint256"
        },
        {
          "indexed": false,
          "name": "scheme",
          "type": "uint256"
        },
        {
          "indexed": true,
          "name": "issuer",
          "type": "address"
        },
        {
          "indexed": false,
          "name": "signature",
          "type": "bytes"
        },
        {
          "indexed": false,
          "name": "data",
          "type": "bytes"
        },
        {
          "indexed": false,
          "name": "uri",
          "type": "string"
        }
      ],
      "name": "ClaimRequested",
      "type": "event"
    },
    {
      "anonymous": false,
      "inputs": [
        {
          "indexed": true,
          "name": "claimId",
          "type": "bytes32"
        },
        {
          "indexed": true,
          "name": "topic",
          "type": "uint256"
        },
        {
          "indexed": false,
          "name": "scheme",
          "type": "uint256"
        },
        {
          "indexed": true,
          "name": "issuer",
          "type": "address"
        },
        {
          "indexed": false,
          "name": "signature",
          "type": "bytes"
        },
        {
          "indexed": false,
          "name": "data",
          "type": "bytes"
        },
        {
          "indexed": false,
          "name": "uri",
          "type": "string"
        }
      ],
      "name": "ClaimAdded",
      "type": "event"
    },
    {
      "anonymous": false,
      "inputs": [
        {
          "indexed": true,
          "name": "claimId",
          "type": "bytes32"
        },
        {
          "indexed": true,
          "name": "topic",
          "type": "uint256"
        },
        {
          "indexed": false,
          "name": "scheme",
          "type": "uint256"
        },
        {
          "indexed": true,
          "name": "issuer",
          "type": "address"
        },
        {
          "indexed": false,
          "name": "signature",
          "type": "bytes"
        },
        {
          "indexed": false,
          "name": "data",
          "type": "bytes"
        },
        {
          "indexed": false,
          "name": "uri",
          "type": "string"
        }
      ],
      "name": "ClaimRemoved",
      "type": "event"
    },
    {
      "anonymous": false,
      "inputs": [
        {
          "indexed": true,
          "name": "claimId",
          "type": "bytes32"
        },
        {
          "indexed": true,
          "name": "topic",
          "type": "uint256"
        },
        {
          "indexed": false,
          "name": "scheme",
          "type": "uint256"
        },
        {
          "indexed": true,
          "name": "issuer",
          "type": "address"
        },
        {
          "indexed": false,
          "name": "signature",
          "type": "bytes"
        },
        {
          "indexed": false,
          "name": "data",
          "type": "bytes"
        },
        {
          "indexed": false,
          "name": "uri",
          "type": "string"
        }
      ],
      "name": "ClaimChanged",
      "type": "event"
    },
    {
      "anonymous": false,
      "inputs": [
        {
          "indexed": true,
          "name": "key",
          "type": "bytes32"
        },
        {
          "indexed": true,
          "name": "purpose",
          "type": "uint256"
        },
        {
          "indexed": true,
          "name": "keyType",
          "type": "uint256"
        }
      ],
      "name": "KeyAdded",
      "type": "event"
    },
    {
      "anonymous": false,
      "inputs": [
        {
          "indexed": true,
          "name": "key",
          "type": "bytes32"
        },
        {
          "indexed": true,
          "name": "purpose",
          "type": "uint256"
        },
        {
          "indexed": true,
          "name": "keyType",
          "type": "uint256"
        }
      ],
      "name": "KeyRemoved",
      "type": "event"
    },
    {
      "anonymous": false,
      "inputs": [
        {
          "indexed": true,
          "name": "executionId",
          "type": "uint256"
        },
        {
          "indexed": true,
          "name": "to",
          "type": "address"
        },
        {
          "indexed": true,
          "name": "value",
          "type": "uint256"
        },
        {
          "indexed": false,
          "name": "data",
          "type": "bytes"
        }
      ],
      "name": "ExecutionRequested",
      "type": "event"
    },
    {
      "anonymous": false,
      "inputs": [
        {
          "indexed": true,
          "name": "executionId",
          "type": "uint256"
        },
        {
          "indexed": true,
          "name": "to",
          "type": "address"
        },
        {
          "indexed": true,
          "name": "value",
          "type": "uint256"
        },
        {
          "indexed": false,
          "name": "data",
          "type": "bytes"
        }
      ],
      "name": "Executed",
      "type": "event"
    },
    {
      "anonymous": false,
      "inputs": [
        {
          "indexed": true,
          "name": "executionId",
          "type": "uint256"
        },
        {
          "indexed": false,
          "name": "approved",
          "type": "bool"
        }
      ],
      "name": "Approved",
      "type": "event"
    },
    {
      "anonymous": false,
      "inputs": [
        {
          "indexed": true,
          "name": "executionId",
          "type": "uint256"
        },
        {
          "indexed": true,
          "name": "to",
          "type": "address"
        },
        {
          "indexed": true,
          "name": "value",
          "type": "uint256"
        },
        {
          "indexed": false,
          "name": "data",
          "type": "bytes"
        }
      ],
      "name": "ExecutionFailed",
      "type": "event"
    },
    {
      "anonymous": false,
      "inputs": [],
      "name": "LogPause",
      "type": "event"
    },
    {
      "anonymous": false,
      "inputs": [],
      "name": "LogUnpause",
      "type": "event"
    }
  ],
  "bytecode": "0x6080604052600160008190558080556005805460ff191690556007553480156200002857600080fd5b5060405162005c8e38038062005c8e83398101604090815281516020830151918301516060840151608085015160a086015160c087015160e08801516101008901516101208a0151978a01999889019896979596948501959385019492830193918301929081019101600160066000620000aa6401000000006200027f810204565b7fffffffff0000000000000000000000000000000000000000000000000000000016815260208101919091526040016000908120805460ff19169215159290921790915560019060069062000107640100000000620002a4810204565b7fffffffff0000000000000000000000000000000000000000000000000000000016815260208101919091526040016000908120805460ff19169215159290921790915560019060069062000164640100000000620002c8810204565b7fffffffff000000000000000000000000000000000000000000000000000000001681526020810191909152604001600020805460ff1916911515919091179055620001ba8a8a640100000000620002ec810204565b620001d0868683640100000000620003cc810204565b620001e78a8a8a8a640100000000620004df810204565b620002008686868686866401000000006200065f810204565b60016006600062000219640100000000620002c8810204565b6200022c640100000000620002a4810204565b187fffffffff000000000000000000000000000000000000000000000000000000001681526020810191909152604001600020805460ff1916911515919091179055506200159398505050505050505050565b7f01ffc9a7000000000000000000000000000000000000000000000000000000005b90565b7fdc3d2a7b0000000000000000000000000000000000000000000000000000000090565b7f107653790000000000000000000000000000000000000000000000000000000090565b600080825184511415156200030057600080fd5b600191505b8351821015620003c65783600183038151811015156200032157fe5b906020019060200201519050806000191684838151811015156200034157fe5b602090810290910101511180620003ae5750835181908590849081106200036457fe5b60209081029091010151148015620003ae575082600183038151811015156200038957fe5b906020019060200201518383815181101515620003a257fe5b90602001906020020151115b1515620003ba57600080fd5b60019091019062000305565b50505050565b60008083518551141515620003e057600080fd5b8251845160030214620003f257600080fd5b600191505b8451821015620004d85784600183038151811015156200041357fe5b90602001906020020151905080600160a060020a031685838151811015156200043857fe5b90602001906020020151600160a060020a0316141580620004c0575080600160a060020a031685838151811015156200046d57fe5b90602001906020020151600160a060020a0316148015620004c0575083600183038151811015156200049b57fe5b906020019060200201518483815181101515620004b457fe5b90602001906020020151115b1515620004cc57600080fd5b600190910190620003f7565b5050505050565b6000806000808751600014156200055b576200050433640100000000620008c7810204565b91506200051d82600180640100000000620008d3810204565b620005358260026001640100000000620008d3810204565b6200054d8260036001640100000000620008d3810204565b600193506001925062000616565b5060005b87518110156200061657620005b688828151811015156200057c57fe5b9060200190602002015188838151811015156200059557fe5b906020019060200201516001620008d3640100000000026401000000009004565b60018782815181101515620005c757fe5b906020019060200201511415620005e4576001909201916200060d565b60028782815181101515620005f557fe5b9060200190602002015114156200060d576001909301925b6001016200055f565b600086116200062457600080fd5b828611156200063257600080fd5b600085116200064057600080fd5b838511156200064e57600080fd5b505050600092909255600155505050565b62000669620014b2565b60608060005b8951811015620008bb5783518551620006b491908790600385029081106200069357fe5b602090810290910101518a9190640100000000620045eb6200092482021704565b9250620006f884600160200201518683600302600101815181101515620006d757fe5b60209081029091010151899190640100000000620045eb6200092482021704565b91506200074989828151811015156200070d57fe5b9060200190602002015160018c848151811015156200072857fe5b90602001906020020151868662000a10640100000000026401000000009004565b15156200075557600080fd5b6200082b620007a48b838151811015156200076c57fe5b906020019060200201518b848151811015156200078557fe5b9060200190602002015162000bbb640100000000026401000000009004565b8a83815181101515620007b357fe5b9060200190602002015160018d85815181101515620007ce57fe5b6020908102909101015187876200081c8b600260200201518d8a600302600201815181101515620007fb57fe5b602090810290910101518f9190640100000000620046b262000c6a82021704565b64010000000062000c8a810204565b84816003028151811015156200083d57fe5b6020908102919091010151845160ff90911601845284518590600383026001019081106200086757fe5b6020908102909101015160ff16846001602002018051909101905284518590600260038402019081106200089757fe5b6020908102909101015160ff1684600260200201805190910190526001016200066f565b50505050505050505050565b600160a060020a031690565b620008f0600284848464010000000062003e2162000f1182021704565b6040518190839085907f480000bb1edad8ca1470381cc334b1917fbd51c6531f3a623ea8e0ec7e38a6e990600090a4505050565b6060806000808460ff166040519080825280601f01601f1916602001820160405280156200095c578160200160208202803883390190505b509250600091508590505b8460ff16860181101562000a055786818151811015156200098457fe5b9060200101517f010000000000000000000000000000000000000000000000000000000000000090047f0100000000000000000000000000000000000000000000000000000000000000028383806001019450815181101515620009e457fe5b906020010190600160f860020a031916908160001a90535060010162000967565b509095945050505050565b600080600186141562000bac5762000a4762000a3730898664010000000062000f83810204565b8564010000000062001084810204565b905080600160a060020a031685600160a060020a0316141562000a6e576001915062000bb1565b600160a060020a03851630141562000ab95762000ab162000a9882640100000000620008c7810204565b600290600364010000000062002fda620011a282021704565b915062000bb1565b62000aef62000ad0640100000000620002a4810204565b600160a060020a03871690640100000000620033966200129182021704565b1562000bac57600160a060020a03851663d202158d62000b1883640100000000620008c7810204565b604080517c010000000000000000000000000000000000000000000000000000000063ffffffff85160281526004810192909252600360248301525160448083019260209291908290030181600087803b15801562000b7657600080fd5b505af115801562000b8b573d6000803e3d6000fd5b505050506040513d602081101562000ba257600080fd5b5051915062000bb1565b600091505b5095945050505050565b600082826040516020018083600160a060020a0316600160a060020a03166c01000000000000000000000000028152601401828152602001925050506040516020818303038152906040526040518082805190602001908083835b6020831062000c375780518252601f19909201916020918201910162000c16565b5181516020939093036101000a600019018019909116921691909117905260405192018290039091209695505050505050565b606062000c8284848464010000000062000924810204565b949350505050565b6040805160c0810182528781526020808201888152600160a060020a03888116848601908152606085018981526080860189905260a0860188905260008e8152600a865296909620855181559251600184015551600283018054600160a060020a031916919092161790559251805192939262000d0e9260038501920190620014d1565b506080820151805162000d2c916004840191602090910190620014d1565b5060a0820151805162000d4a916005840191602090910190620014d1565b5050506000868152600b60209081526040808320805460018181018355918552838520018b9055600c80549091019055805188815260808184018181528851918301919091528751600160a060020a038a16958c958e957f46149b18aa084502c3f12bc75e19eda8bda8d102b82cce8474677a6d0d5f43c5958e958d958d958d959394929392850192606086019260a0870192918a01918190849084905b8381101562000e0257818101518382015260200162000de8565b50505050905090810190601f16801562000e305780820380516001836020036101000a031916815260200191505b50848103835286518152865160209182019188019080838360005b8381101562000e6557818101518382015260200162000e4b565b50505050905090810190601f16801562000e935780820380516001836020036101000a031916815260200191505b50848103825285518152855160209182019187019080838360005b8381101562000ec857818101518382015260200162000eae565b50505050905090810190601f16801562000ef65780820380516001836020036101000a031916815260200191505b5097505050505050505060405180910390a450505050505050565b6000838152602085815260408220805460018101825581845291909220018390556002810154151562000f4d5760028101849055600181018290555b50506000908152600180840160209081526040832080548084018255908452922090910191909155600290910180549091019055565b60008383836040516020018084600160a060020a0316600160a060020a03166c0100000000000000000000000002815260140183815260200182805190602001908083835b6020831062000fe95780518252601f19909201916020918201910162000fc8565b6001836020036101000a03801982511681845116808217855250505050505090500193505050506040516020818303038152906040526040518082805190602001908083835b60208310620010505780518252601f1990920191602091820191016200102f565b5181516020939093036101000a60001901801990911692169190911790526040519201829003909120979650505050505050565b60006200119b826040805190810160405280601c81526020017f19457468657265756d205369676e6564204d6573736167653a0a333200000000815250856040516020018083805190602001908083835b60208310620010f65780518252601f199092019160209182019101620010d5565b51815160209384036101000a600019018019909216911617905292019384525060408051808503815293820190819052835193945092839250908401908083835b60208310620011585780518252601f19909201916020918201910162001137565b5181516020939093036101000a60001901801990911692169190911790526040519201829003909120939250506401000000006200138a81026200310517049050565b9392505050565b6000620011ae62001556565b60008481526020868152604080832081518154608094810282018501909352606081018381529093919284928491908401828280156200120e57602002820191906000526020600020905b815481526020019060010190808311620011f9575b505050918352505060018201546020820152600290910154604091820152810151909250151562001243576000925062001288565b5060005b815151811015620012885781518051859190839081106200126457fe5b9060200190602002015114156200127f576001925062001288565b60010162001247565b50509392505050565b60008080620012ca857f01ffc9a70000000000000000000000000000000000000000000000000000000064010000000062001466810204565b9092509050811580620012db575080155b15620012eb576000925062001382565b62001320857fffffffff0000000000000000000000000000000000000000000000000000000064010000000062001466810204565b90925090508115806200133257508015155b1562001342576000925062001382565b62001357858564010000000062001466810204565b90925090506001821480156200136d5750806001145b156200137d576001925062001382565b600092505b505092915050565b60008060008084516041141515620013a657600093506200145d565b50505060208201516040830151606084015160001a601b60ff82161015620013cc57601b015b8060ff16601b14158015620013e557508060ff16601c14155b15620013f557600093506200145d565b60408051600080825260208083018085528a905260ff8516838501526060830187905260808301869052925160019360a0808501949193601f19840193928390039091019190865af115801562001450573d6000803e3d6000fd5b5050506020604051035193505b50505092915050565b6040517f01ffc9a70000000000000000000000000000000000000000000000000000000080825260048201839052600091829190602081818189617530fa905190969095509350505050565b6060604051908101604052806003906020820280388339509192915050565b828054600181600116156101000203166002900490600052602060002090601f016020900481019282601f106200151457805160ff191683800117855562001544565b8280016001018555821562001544579182015b828111156200154457825182559160200191906001019062001527565b506200155292915062001576565b5090565b604080516060818101835281526000602082018190529181019190915290565b620002a191905b808211156200155257600081556001016200157d565b6146eb80620015a36000396000f3006080604052600436106102a55763ffffffff60e060020a60003504166301ffc9a781146102a757806302e7491e146102dd5780630440b43a1461030f578063058b316c1461033657806312aaac701461034b578063190db862146103c45780631d203be8146103e85780631d38124014610451578063237434f01461046f578063251de3e91461030f578063262b54f5146104875780632d32d442146104ef5780632e7700f01461050457806338f4edd4146105195780633b8a12c81461052e5780633f4ba83a146105a857806349991ec8146103365780634da34c2c146105bd5780634eee424a1461066a57806353d413c5146106825780635c975abb1461069d5780635d7bc3fc146106b25780635dccebba146106ca57806363f14c3c146107815780636e4c4311146107a2578063710ca55014610336578063724a4b3b146107bd578063747442d3146107f357806375e5598c146104ef578063765b3042146108105780637d96fa581461084157806382d09446146103365780638456cb59146108565780639010f7261461086b5780639e140cc814610883578063a550f0c7146104ef578063aa0a514214610898578063ae62838614610883578063affed0e0146108ad578063b132734e146108c2578063b1a34e0d146108d7578063b1e9f64c146109bf578063b61d27f6146109d4578063b9133d6314610a3d578063bf2f20ad14610a52578063c32b351814610a67578063c67021871461030f578063c9100bcb14610ac0578063c9d24ecc14610c43578063ccfe586814610c58578063d202158d14610c70578063dbfa74b7146109bf578063e0610ba314610c8b578063e804c01b14610db1578063e99896b814610e16578063ead09fab14610e2e578063f22d08a6146104ef578063f5074f4114610e43578063fc0fc84914610e64575b005b3480156102b357600080fd5b506102c9600160e060020a031960043516610e79565b604080519115158252519081900360200190f35b3480156102e957600080fd5b506102f2610e98565b60408051600160e060020a03199092168252519081900360200190f35b34801561031b57600080fd5b50610324610ebd565b60408051918252519081900360200190f35b34801561034257600080fd5b50610324610ec2565b34801561035757600080fd5b50610363600435610ec7565b60408051602080820185905291810183905260608082528551908201528451909182916080830191878101910280838360005b838110156103ae578181015183820152602001610396565b5050505090500194505050505060405180910390f35b3480156103d057600080fd5b50610324600160a060020a0360043516602435610f6c565b3480156103f457600080fd5b50604080516020600460443581810135601f8101849004840285018401909552848452610324948235600160a060020a03169460248035953695946064949201919081908401838280828437509497506110199650505050505050565b34801561045d57600080fd5b506102c9600435602435604435611119565b34801561047b57600080fd5b506102c9600435611172565b34801561049357600080fd5b5061049f600435611192565b60408051602080825283518183015283519192839290830191858101910280838360005b838110156104db5781810151838201526020016104c3565b505050509050019250505060405180910390f35b3480156104fb57600080fd5b506103246111f5565b34801561051057600080fd5b506103246111fa565b34801561052557600080fd5b50610324611200565b34801561053a57600080fd5b5060408051602060046024803582810135601f810185900485028601850190965285855261058c9583359536956044949193909101919081908401838280828437509497506112069650505050505050565b60408051600160a060020a039092168252519081900360200190f35b3480156105b457600080fd5b506102a5611309565b3480156105c957600080fd5b50604080516020600460443581810135601f8101849004840285018401909552848452610324948235600160a060020a031694602480359536959460649492019190819084018382808284375050604080516020601f818a01358b0180359182018390048302840183018552818452989b8a359b909a9099940197509195509182019350915081908401838280828437509497506113629650505050505050565b34801561067657600080fd5b506102c96004356114fd565b34801561068e57600080fd5b506102c9600435602435611b06565b3480156106a957600080fd5b506102c9611b9d565b3480156106be57600080fd5b506102c9600435611ba6565b3480156106d657600080fd5b506106e2600435611f0f565b6040518085600160a060020a0316600160a060020a0316815260200184815260200180602001838152602001828103825284818151815260200191508051906020019080838360005b8381101561074357818101518382015260200161072b565b50505050905090810190601f1680156107705780820380516001836020036101000a031916815260200191505b509550505050505060405180910390f35b34801561078d57600080fd5b50610324600160a060020a0360043516611fcb565b3480156107ae57600080fd5b5061058c600435602435611fd7565b3480156107c957600080fd5b506102c9600435600160a060020a0360243516600160e060020a031960443516606435151561200e565b3480156107ff57600080fd5b506102c9600435602435151561206f565b34801561081c57600080fd5b506102c9600435600160a060020a0360243516600160e060020a03196044351661208d565b34801561084d57600080fd5b506102f26120cf565b34801561086257600080fd5b506102a56120f3565b34801561087757600080fd5b5061049f60043561214e565b34801561088f57600080fd5b506103246121af565b3480156108a457600080fd5b506103246121b4565b3480156108b957600080fd5b506103246121ba565b3480156108ce57600080fd5b506103246121c0565b3480156108e357600080fd5b50604080516020601f606435600481810135928301849004840285018401909552818452610324948035946024803595600160a060020a0360443516953695608494930191819084018382808284375050604080516020601f89358b018035918201839004830284018301909452808352979a99988101979196509182019450925082915084018382808284375050604080516020601f89358b018035918201839004830284018301909452808352979a9998810197919650918201945092508291508401838280828437509497506121c59650505050505050565b3480156109cb57600080fd5b50610324612676565b3480156109e057600080fd5b50604080516020600460443581810135601f8101849004840285018401909552848452610324948235600160a060020a031694602480359536959460649492019190819084018382808284375094975061267b9650505050505050565b348015610a4957600080fd5b506103246126a2565b348015610a5e57600080fd5b506102f26126a7565b348015610a7357600080fd5b506040805160206004803580820135601f81018490048402850184019095528484526102f29436949293602493928401919081908401838280828437509497506126cb9650505050505050565b348015610acc57600080fd5b50610ad8600435612733565b6040518087815260200186815260200185600160a060020a0316600160a060020a03168152602001806020018060200180602001848103845287818151815260200191508051906020019080838360005b83811015610b41578181015183820152602001610b29565b50505050905090810190601f168015610b6e5780820380516001836020036101000a031916815260200191505b50848103835286518152865160209182019188019080838360005b83811015610ba1578181015183820152602001610b89565b50505050905090810190601f168015610bce5780820380516001836020036101000a031916815260200191505b50848103825285518152855160209182019187019080838360005b83811015610c01578181015183820152602001610be9565b50505050905090810190601f168015610c2e5780820380516001836020036101000a031916815260200191505b50995050505050505050505060405180910390f35b348015610c4f57600080fd5b50610324612989565b348015610c6457600080fd5b506102a560043561298f565b348015610c7c57600080fd5b506102c96004356024356129e2565b348015610c9757600080fd5b50604080516020601f6064356004818101359283018490048402850184019095528184526102c9948035946024803595600160a060020a0360443516953695608494930191819084018382808284375050604080516020601f89358b018035918201839004830284018301909452808352979a99988101979196509182019450925082915084018382808284375050604080516020601f89358b018035918201839004830284018301909452808352979a99988101979196509182019450925082915084018382808284375050604080516020601f89358b018035918201839004830284018301909452808352979a9998810197919650918201945092508291508401838280828437509497506129f69650505050505050565b348015610dbd57600080fd5b50604080516020601f6064356004818101359283018490048402850184019095528184526102c994803594602480351515956044359536956084949301918190840183828082843750949750612e179650505050505050565b348015610e2257600080fd5b506102a5600435612f16565b348015610e3a57600080fd5b50610324612f69565b348015610e4f57600080fd5b506102a5600160a060020a0360043516612f6e565b348015610e7057600080fd5b50610324612fa2565b600160e060020a03191660009081526006602052604090205460ff1690565b7f01ffc9a7000000000000000000000000000000000000000000000000000000005b90565b600381565b600181565b6060600080610ed4614437565b60008581526002602090815260409182902082518154608093810282018401909452606081018481529093919284928491840182828015610f3457602002820191906000526020600020905b815481526020019060010190808311610f20575b505050918352505060018201546020808301919091526002909201546040918201528251918301519201519097919650945092505050565b600082826040516020018083600160a060020a0316600160a060020a03166c01000000000000000000000000028152601401828152602001925050506040516020818303038152906040526040518082805190602001908083835b60208310610fe65780518252601f199092019160209182019101610fc7565b5181516020939093036101000a600019018019909116921691909117905260405192018290039091209695505050505050565b60008383836040516020018084600160a060020a0316600160a060020a03166c0100000000000000000000000002815260140183815260200182805190602001908083835b6020831061107d5780518252601f19909201916020918201910161105e565b6001836020036101000a03801982511681845116808217855250505050505090500193505050506040516020818303038152906040526040518082805190602001908083835b602083106110e25780518252601f1990920191602091820191016110c3565b6001836020036101000a038019825116818451168082178552505050505050905001915050604051809103902090505b9392505050565b6000611123612fa8565b151561112e57600080fd5b60055460ff161561113e57600080fd5b6111506002858563ffffffff612fda16565b1561115d57506000611112565b6111688484846130be565b5060019392505050565b6000908152600a6020526040902060020154600160a060020a0316151590565b6000818152600b60209081526040918290208054835181840281018401909452808452606093928301828280156111e957602002820191906000526020600020905b815481526001909101906020018083116111d4575b50505050509050919050565b600281565b60075490565b60015481565b6000611112826040805190810160405280601c81526020017f19457468657265756d205369676e6564204d6573736167653a0a333200000000815250856040516020018083805190602001908083835b602083106112755780518252601f199092019160209182019101611256565b51815160209384036101000a600019018019909216911617905292019384525060408051808503815293820190819052835193945092839250908401908083835b602083106112d55780518252601f1990920191602091820191016112b6565b5181516020939093036101000a60001901801990911692169190911790526040519201829003909120939250506131059050565b611311612fa8565b151561131c57600080fd5b60055460ff16151561132d57600080fd5b6005805460ff191690556040517f730c1faaa977b67dacf1e2451ef54556e04a07d577785ff79f6d31f73502efc990600090a1565b600554600090819060ff161561137757600080fd5b60075484146113e757604080517f08c379a000000000000000000000000000000000000000000000000000000000815260206004820152600e60248201527f6e6f6e6365206d69736d61746368000000000000000000000000000000000000604482015290519081900360640190fd5b6114e2878787876040516020018085600160a060020a0316600160a060020a03166c0100000000000000000000000002815260140184815260200183805190602001908083835b6020831061144d5780518252601f19909201916020918201910161142e565b51815160209384036101000a6000190180199092169116179052920193845250604080518085038152938201908190528351939650945084935085019190508083835b602083106114af5780518252601f199092019160209182019101611490565b6001836020036101000a038019825116818451168082178552505050505050905001915050604051809103902084611206565b90506114f0818888886131da565b91505b5095945050505050565b6000611507614457565b600554600090819060ff161561151c57600080fd5b6000858152600a60205260409020600201548590600160a060020a031680151561154557600080fd5b61154d612fa8565b1561155757611630565b33600160a060020a038216141561156d57611630565b61158e6115786120cf565b600160a060020a0383169063ffffffff61339616565b1561162b5780600160a060020a031663d202158d6115ab33611fcb565b6040805160e060020a63ffffffff85160281526004810192909252600260248301525160448083019260209291908290030181600087803b1580156115ef57600080fd5b505af1158015611603573d6000803e3d6000fd5b505050506040513d602081101561161957600080fd5b5051151561162657600080fd5b611630565b600080fd5b6000878152600a6020908152604091829020825160c0810184528154815260018083015482850152600280840154600160a060020a0316838701526003840180548751601f9482161561010002600019019091169290920492830186900486028201860190965281815291949293606086019391908301828280156116f65780601f106116cb576101008083540402835291602001916116f6565b820191906000526020600020905b8154815290600101906020018083116116d957829003601f168201915b505050918352505060048201805460408051602060026001851615610100026000190190941693909304601f810184900484028201840190925281815293820193929183018282801561178a5780601f1061175f5761010080835404028352916020019161178a565b820191906000526020600020905b81548152906001019060200180831161176d57829003601f168201915b505050918352505060058201805460408051602060026001851615610100026000190190941693909304601f810184900484028201840190925281815293820193929183018282801561181e5780601f106117f35761010080835404028352916020019161181e565b820191906000526020600020905b81548152906001019060200180831161180157829003601f168201915b505050919092525050506040810151909550600160a060020a0316151561184457600080fd5b6000878152600a6020526040812081815560018101829055600281018054600160a060020a03191690559061187c6003830182614497565b61188a600483016000614497565b611898600583016000614497565b505084516000908152600b60205260408120945092505b835483101561194f57835487908590859081106118c857fe5b6000918252602090912001541415611944578354849060001981019081106118ec57fe5b9060005260206000200154848481548110151561190557fe5b60009182526020909120015583548490600019810190811061192357fe5b6000918252602082200155835461193e8560001983016144de565b5061194f565b6001909201916118af565b600c60008154809291906001900391905055508460400151600160a060020a0316856000015188600019167f3cf57863a89432c61c4a27073c6ee39e8a764bff5a05aebfbcdcdc80b2e6130a886020015189606001518a608001518b60a0015160405180858152602001806020018060200180602001848103845287818151815260200191508051906020019080838360005b838110156119fa5781810151838201526020016119e2565b50505050905090810190601f168015611a275780820380516001836020036101000a031916815260200191505b50848103835286518152865160209182019188019080838360005b83811015611a5a578181015183820152602001611a42565b50505050905090810190601f168015611a875780820380516001836020036101000a031916815260200191505b50848103825285518152855160209182019187019080838360005b83811015611aba578181015183820152602001611aa2565b50505050905090810190601f168015611ae75780820380516001836020036101000a031916815260200191505b5097505050505050505060405180910390a45060019695505050505050565b600080611b11612fa8565b1515611b1c57600080fd5b60055460ff1615611b2c57600080fd5b611b3e6002858563ffffffff612fda16565b1515611b4d5760009150611b96565b611b5f6002858563ffffffff61344d16565b6040519091508190849086907f585a4aef50f8267a92b32412b331b20f7f8b96f2245b253b9cc50dcc621d339790600090a4600191505b5092915050565b60055460ff1681565b6000611bb0614457565b60055460ff1615611bc057600080fd5b6000838152600a60205260409020600201548390600160a060020a0316801515611be957600080fd5b611bf1612fa8565b15611bfb57611cb4565b33600160a060020a0382161415611c1157611cb4565b611c1c6115786120cf565b1561162b5780600160a060020a031663d202158d611c3933611fcb565b6040805160e060020a63ffffffff85160281526004810192909252600260248301525160448083019260209291908290030181600087803b158015611c7d57600080fd5b505af1158015611c91573d6000803e3d6000fd5b505050506040513d6020811015611ca757600080fd5b50511515611cb457600080fd5b6000858152600a6020908152604091829020825160c0810184528154815260018083015482850152600280840154600160a060020a0316838701526003840180548751601f948216156101000260001901909116929092049283018690048602820186019096528181529194929360608601939190830182828015611d7a5780601f10611d4f57610100808354040283529160200191611d7a565b820191906000526020600020905b815481529060010190602001808311611d5d57829003601f168201915b505050918352505060048201805460408051602060026001851615610100026000190190941693909304601f8101849004840282018401909252818152938201939291830182828015611e0e5780601f10611de357610100808354040283529160200191611e0e565b820191906000526020600020905b815481529060010190602001808311611df157829003601f168201915b505050918352505060058201805460408051602060026001851615610100026000190190941693909304601f8101849004840282018401909252818152938201939291830182828015611ea25780601f10611e7757610100808354040283529160200191611ea2565b820191906000526020600020905b815481529060010190602001808311611e8557829003601f168201915b505050919092525050506040810151909350600160a060020a03161515611ec857600080fd5b611ee9836000015184602001518560400151866060015187608001516135f8565b1515611f0257611ef8856114fd565b5060009350611f07565b600193505b505050919050565b60086020908152600091825260409182902080546001808301546002808501805488516101009582161595909502600019011691909104601f8101879004870284018701909752868352600160a060020a03909316959094919291830182828015611fbb5780601f10611f9057610100808354040283529160200191611fbb565b820191906000526020600020905b815481529060010190602001808311611f9e57829003601f168201915b5050505050908060030154905084565b600160a060020a031690565b600960205281600052604060002081815481101515611ff257fe5b600091825260209091200154600160a060020a03169150829050565b6000612018612fa8565b151561202357600080fd5b60055460ff161561203357600080fd5b61204460028663ffffffff61372f16565b151561204f57600080fd5b61206360028686868663ffffffff6137c116565b50600195945050505050565b60055460009060ff161561208257600080fd5b61111233848461380a565b6000838152600260209081526040808320600160a060020a03861684526003018252808320600160e060020a03198516845290915290205460ff169392505050565b7fdc3d2a7b0000000000000000000000000000000000000000000000000000000090565b6120fb612fa8565b151561210657600080fd5b60055460ff161561211657600080fd5b6005805460ff191660011790556040517f4b314b34e912fda7f95e7d23e9c8c95f82f0aff1984e4ce592a0b005f905562490600090a1565b6000818152600360209081526040918290208054835181840281018401909452808452606093928301828280156111e95760200282019190600052602060002090815481526001909101906020018083116111d45750505050509050919050565b600481565b60005481565b60075481565b600881565b60055460009081908190819060ff16156121de57600080fd5b6121eb8a8a8a8a8a6135f8565b15156121f657600080fd5b6121fe612fa8565b925082151561244c576040517fb61d27f600000000000000000000000000000000000000000000000000000000815230600482018181526000602484018190526060604485019081523660648601819052939463b61d27f694869484939192909190608401848480828437820191505095505050505050602060405180830381600087803b15801561228f57600080fd5b505af11580156122a3573d6000803e3d6000fd5b505050506040513d60208110156122b957600080fd5b8101908080519060200190929190505050935087600160a060020a03168a857fe6b6db97dedfb44cbced367387e40b3f92dbee1b1be87f9367f7b673532b0d698c8b8b8b60405180858152602001806020018060200180602001848103845287818151815260200191508051906020019080838360005b83811015612348578181015183820152602001612330565b50505050905090810190601f1680156123755780820380516001836020036101000a031916815260200191505b50848103835286518152865160209182019188019080838360005b838110156123a8578181015183820152602001612390565b50505050905090810190601f1680156123d55780820380516001836020036101000a031916815260200191505b50848103825285518152855160209182019187019080838360005b838110156124085781810151838201526020016123f0565b50505050905090810190601f1680156124355780820380516001836020036101000a031916815260200191505b5097505050505050505060405180910390a4612669565b612456888b610f6c565b6000818152600a6020526040902060020154909250600160a060020a0316151561248e57612489828b8b8b8b8b8b613ba9565b612669565b506000818152600a60209081526040909120600181018a9055875190916124bc9160038401918a0190614507565b5085516124d29060048301906020890190614507565b5084516124e89060058301906020880190614507565b5087600160a060020a03168a83600019167f3bab293fc00db832d7619a9299914251b8747c036867ec056cbd506f60135b138c8b8b8b60405180858152602001806020018060200180602001848103845287818151815260200191508051906020019080838360005b83811015612569578181015183820152602001612551565b50505050905090810190601f1680156125965780820380516001836020036101000a031916815260200191505b50848103835286518152865160209182019188019080838360005b838110156125c95781810151838201526020016125b1565b50505050905090810190601f1680156125f65780820380516001836020036101000a031916815260200191505b50848103825285518152855160209182019187019080838360005b83811015612629578181015183820152602001612611565b50505050905090810190601f1680156126565780820380516001836020036101000a031916815260200191505b5097505050505050505060405180910390a45b5050509695505050505050565b600581565b60055460009060ff161561268e57600080fd5b61269a338585856131da565b949350505050565b600781565b7f107653790000000000000000000000000000000000000000000000000000000090565b600080805b6004811015611b96578060080284828151811015156126eb57fe5b60209101015160029190910a60f860020a918290049091027fff00000000000000000000000000000000000000000000000000000000000000160491909117906001016126d0565b60008060006060806060612745614457565b6000888152600a6020908152604091829020825160c0810184528154815260018083015482850152600280840154600160a060020a0316838701526003840180548751601f94821615610100026000190190911692909204928301869004860282018601909652818152919492936060860193919083018282801561280b5780601f106127e05761010080835404028352916020019161280b565b820191906000526020600020905b8154815290600101906020018083116127ee57829003601f168201915b505050918352505060048201805460408051602060026001851615610100026000190190941693909304601f810184900484028201840190925281815293820193929183018282801561289f5780601f106128745761010080835404028352916020019161289f565b820191906000526020600020905b81548152906001019060200180831161288257829003601f168201915b505050918352505060058201805460408051602060026001851615610100026000190190941693909304601f81018490048402820184019092528181529382019392918301828280156129335780601f1061290857610100808354040283529160200191612933565b820191906000526020600020905b81548152906001019060200180831161291657829003601f168201915b505050919092525050506040810151909150600160a060020a0316151561295957600080fd5b8051602082015160408301516060840151608085015160a090950151939c929b5090995097509195509350915050565b60045490565b60055460009060ff16156129a257600080fd5b6129aa612fa8565b15156129b557600080fd5b600082116129c257600080fd5b6129cc600161214e565b519050808211156129dc57600080fd5b50600055565b60006111126002848463ffffffff612fda16565b60055460009081908190819060ff1615612a0f57600080fd5b612a1c8b8b8b8b8b6135f8565b1515612a2757600080fd5b612bc08b8b8b8b8b8b6040516020018087815260200186815260200185600160a060020a0316600160a060020a03166c0100000000000000000000000002815260140184805190602001908083835b60208310612a955780518252601f199092019160209182019101612a76565b51815160209384036101000a600019018019909216911617905286519190930192860191508083835b60208310612add5780518252601f199092019160209182019101612abe565b51815160209384036101000a600019018019909216911617905285519190930192850191508083835b60208310612b255780518252601f199092019160209182019101612b06565b6001836020036101000a03801982511681845116808217855250505050505090500196505050505050506040516020818303038152906040526040518082805190602001908083835b60208310612b8d5780518252601f199092019160209182019101612b6e565b6001836020036101000a038019825116818451168082178552505050505050905001915050604051809103902086611206565b9250612bde612bce84611fcb565b600290600163ffffffff612fda16565b1515612be957600080fd5b612bf3898c610f6c565b6000818152600a6020526040902060020154909250600160a060020a03161515612c2b57612c26828c8c8c8c8c8c613ba9565b612e06565b506000818152600a60209081526040909120600181018b905588519091612c599160038401918b0190614507565b508651612c6f90600483019060208a0190614507565b508551612c859060058301906020890190614507565b5088600160a060020a03168b83600019167f3bab293fc00db832d7619a9299914251b8747c036867ec056cbd506f60135b138d8c8c8c60405180858152602001806020018060200180602001848103845287818151815260200191508051906020019080838360005b83811015612d06578181015183820152602001612cee565b50505050905090810190601f168015612d335780820380516001836020036101000a031916815260200191505b50848103835286518152865160209182019188019080838360005b83811015612d66578181015183820152602001612d4e565b50505050905090810190601f168015612d935780820380516001836020036101000a031916815260200191505b50848103825285518152855160209182019187019080838360005b83811015612dc6578181015183820152602001612dae565b50505050905090810190601f168015612df35780820380516001836020036101000a031916815260200191505b5097505050505050505060405180910390a45b5060019a9950505050505050505050565b600554600090819060ff1615612e2c57600080fd5b6007548414612e9c57604080517f08c379a000000000000000000000000000000000000000000000000000000000815260206004820152600e60248201527f6e6f6e6365206d69736d61746368000000000000000000000000000000000000604482015290519081900360640190fd5b60408051602080820189905260f860020a88151502828401526041808301889052835180840390910181526061909201928390528151612eff9391829190840190808383602083106114af5780518252601f199092019160209182019101611490565b9050612f0c81878761380a565b9695505050505050565b60055460009060ff1615612f2957600080fd5b612f31612fa8565b1515612f3c57600080fd5b60008211612f4957600080fd5b612f53600261214e565b51905080821115612f6357600080fd5b50600155565b600681565b612f76612fa8565b1515612f8157600080fd5b600160a060020a0381161515612f9657600080fd5b80600160a060020a0316ff5b600c5481565b600033301415612fba57506001610eba565b600054600114612fc957600080fd5b612fd5612bce33611fcb565b905090565b6000612fe4614437565b600084815260208681526040808320815181546080948102820185019093526060810183815290939192849284919084018282801561304257602002820191906000526020600020905b81548152602001906001019080831161302e575b505050918352505060018201546020820152600290910154604091820152810151909250151561307557600092506130b5565b5060005b8151518110156130b557815180518591908390811061309457fe5b9060200190602002015114156130ad57600192506130b5565b600101613079565b50509392505050565b6130d1600284848463ffffffff613e2116565b6040518190839085907f480000bb1edad8ca1470381cc334b1917fbd51c6531f3a623ea8e0ec7e38a6e990600090a4505050565b6000806000808451604114151561311f57600093506131d1565b50505060208201516040830151606084015160001a601b60ff8216101561314457601b015b8060ff16601b1415801561315c57508060ff16601c14155b1561316a57600093506131d1565b60408051600080825260208083018085528a905260ff8516838501526060830187905260808301869052925160019360a0808501949193601f19840193928390039091019190865af11580156131c4573d6000803e3d6000fd5b5050506020604051035193505b50505092915050565b6000806131e5614585565b6131f0878786613e92565b915061320130878787600754614043565b92508486600160a060020a0316847f8afcfabcb00e47a53a8fc3e9f23ff47ee1926194bb1350dd007c50b412a6cee8876040518080602001828103825283818151815260200191508051906020019080838360005b8381101561326e578181015183820152602001613256565b50505050905090810190601f16801561329b5780820380516001836020036101000a031916815260200191505b509250505060405180910390a45060078054600101905560408051608081018252600160a060020a038716815260208101869052908101849052606081018290528115156132f5576132ef83826000614169565b5061338c565b60008381526008602090815260409182902083518154600160a060020a031916600160a060020a03909116178155838201516001820155918301518051849392613346926002850192910190614507565b50606091909101516003909101556000838152600960209081526040822080546001810182559083529120018054600160a060020a031916600160a060020a0389161790555b5050949350505050565b600080806133c4857f01ffc9a7000000000000000000000000000000000000000000000000000000006143eb565b90925090508115806133d4575080155b156133e25760009250613445565b6133f485600160e060020a03196143eb565b909250905081158061340557508015155b156134135760009250613445565b61341d85856143eb565b90925090506001821480156134325750806001145b156134405760019250613445565b600092505b505092915050565b6000828152602084905260408120600181015491805b825482101561350d5784838381548110151561347b57fe5b906000526020600020015414156135025782548390600019810190811061349e57fe5b906000526020600020015483838154811015156134b757fe5b6000918252602090912001558254839060001981019081106134d557fe5b600091825260208220015582546134f08460001983016144de565b5060028701805460001901905561350d565b600190910190613463565b8254151561353f5760008681526020889052604081209061352e82826145b7565b506000600182018190556002909101555b5050600083815260018601602052604081205b80548210156135ee578054869082908490811061356b57fe5b60009182526020909120015414156135e35780548190600019810190811061358f57fe5b906000526020600020015481838154811015156135a857fe5b6000918252602090912001558054819060001981019081106135c657fe5b600091825260208220015580546135e18260001983016144de565b505b600190910190613552565b5050509392505050565b600080600186141561372657613618613612308986611019565b85611206565b905080600160a060020a031685600160a060020a0316141561363d57600191506114f3565b600160a060020a0385163014156136715761366a61365a82611fcb565b600290600363ffffffff612fda16565b91506114f3565b61369261367c6120cf565b600160a060020a0387169063ffffffff61339616565b156137265784600160a060020a031663d202158d6136af83611fcb565b6040805160e060020a63ffffffff85160281526004810192909252600360248301525160448083019260209291908290030181600087803b1580156136f357600080fd5b505af1158015613707573d6000803e3d6000fd5b505050506040513d602081101561371d57600080fd5b505191506114f3565b600091506114f3565b6000613739614437565b600083815260208581526040918290208251815460809381028201840190945260608101848152909391928492849184018282801561379757602002820191906000526020600020905b815481526020019060010190808311613783575b50505091835250506001820154602082015260029091015460409182015201511515949350505050565b600093845260209485526040808520600160a060020a0394909416855260039093018552828420600160e060020a031992909216845293529020805460ff191682151517905590565b600080808085151561381b57600080fd5b60008681526008602052604090208054909350600160a060020a0316151561384257600080fd5b825460028085018054604080516020601f60001960018616156101000201909416959095049283018590048502810185019091528181526138e9948c94600160a060020a03909116939192908301828280156138df5780601f106138b4576101008083540402835291602001916138df565b820191906000526020600020905b8154815290600101906020018083116138c257829003601f168201915b5050505050613e92565b50604080518615158152905187917fb3932da477fe5d6c8ff2eafef050c0f3a1af18fc07121001482600f36f3715d8919081900360200190a260008681526009602052604090209150841515613a3c575060005b8154811015613a335786600160a060020a0316828281548110151561395e57fe5b600091825260209091200154600160a060020a03161415613a2b5781548290600019810190811061398b57fe5b6000918252602090912001548254600160a060020a03909116908390839081106139b157fe5b60009182526020909120018054600160a060020a031916600160a060020a03929092169190911790558154829060001981019081106139ec57fe5b60009182526020909120018054600160a060020a03191690558154613a158360001983016144de565b50600383018054600190810190915593506135ee565b60010161393d565b600093506135ee565b5060005b8154811015613a895786600160a060020a03168282815481101515613a6157fe5b600091825260209091200154600160a060020a03161415613a8157600080fd5b600101613a40565b8154600181018355600083815260209020018054600160a060020a031916600160a060020a03891617905560038301805460001901908190551515613ba057604080516080810182528454600160a060020a031681526001808601546020808401919091526002808801805486516101009582161595909502600019011691909104601f81018390048302840183018652808452613b99958c95948a949186019390929091830182828015613b7f5780601f10613b5457610100808354040283529160200191613b7f565b820191906000526020600020905b815481529060010190602001808311613b6257829003601f168201915b505050505081526020016003820154815250506001614169565b93506135ee565b600193506135ee565b6040805160c0810182528781526020808201888152600160a060020a03888116848601908152606085018981526080860189905260a0860188905260008e8152600a865296909620855181559251600184015551600283018054600160a060020a0319169190921617905592518051929392613c2b9260038501920190614507565b5060808201518051613c47916004840191602090910190614507565b5060a08201518051613c63916005840191602090910190614507565b5050506000868152600b60209081526040808320805460018181018355918552838520018b9055600c80549091019055805188815260808184018181528851918301919091528751600160a060020a038a16958c958e957f46149b18aa084502c3f12bc75e19eda8bda8d102b82cce8474677a6d0d5f43c5958e958d958d958d959394929392850192606086019260a0870192918a01918190849084905b83811015613d19578181015183820152602001613d01565b50505050905090810190601f168015613d465780820380516001836020036101000a031916815260200191505b50848103835286518152865160209182019188019080838360005b83811015613d79578181015183820152602001613d61565b50505050905090810190601f168015613da65780820380516001836020036101000a031916815260200191505b50848103825285518152855160209182019187019080838360005b83811015613dd9578181015183820152602001613dc1565b50505050905090810190601f168015613e065780820380516001836020036101000a031916815260200191505b5097505050505050505060405180910390a450505050505050565b60008381526020858152604082208054600181018255818452919092200183905560028101541515613e5c5760028101849055600181018290555b50506000908152600180840160209081526040832080548084018255908452922090910191909155600290910180549091019055565b6000600160a060020a038316301415613f3d57600160a060020a038416301415613ebf5750600054613f38565b613ecb612bce85611fcb565b80613f2a5750613eed613edd85611fcb565b600290600763ffffffff612fda16565b8015613f2a57507f1d38124000000000000000000000000000000000000000000000000000000000613f1e836126cb565b600160e060020a031916145b1561162b5750600054600019015b611112565b600160a060020a0383161515613f5257600080fd5b600160a060020a038416301415613f6c5750600154611112565b613f87613f7885611fcb565b6002908163ffffffff612fda16565b80613fa95750613fa9613f9985611fcb565b600290600663ffffffff612fda16565b806140315750613fcb613fbb85611fcb565b600290600863ffffffff612fda16565b8015614031575060026000613fdf86611fcb565b815260208082019290925260409081016000908120600160a060020a0387168252600301909252812090614012846126cb565b600160e060020a031916815260208101919091526040016000205460ff165b1561162b575060015460001901611112565b600085858585856040516020018086600160a060020a0316600160a060020a03166c0100000000000000000000000002815260140185600160a060020a0316600160a060020a03166c0100000000000000000000000002815260140184815260200183805190602001908083835b602083106140d05780518252601f1990920191602091820191016140b1565b51815160209384036101000a600019018019909216911617905292019384525060408051808503815293820190819052835193975095508594508601925081905083835b602083106141335780518252601f199092019160209182019101614114565b5181516020939093036101000a600019018019909116921691909117905260405192018290039091209998505050505050505050565b81516000908190600160a060020a0316151561418457600080fd5b8360000151600160a060020a03168460200151856040015160405180828051906020019080838360005b838110156141c65781810151838201526020016141ae565b50505050905090810190601f1680156141f35780820380516001836020036101000a031916815260200191505b5091505060006040518083038185875af19250505090508015156142cb5783602001518460000151600160a060020a0316867fe10c49d9f7c71da23262367013434763cfdb2332267641728d25cd712c5c6a6887604001516040518080602001828103825283818151815260200191508051906020019080838360005b83811015614288578181015183820152602001614270565b50505050905090810190601f1680156142b55780820380516001836020036101000a031916815260200191505b509250505060405180910390a4600091506143e3565b83602001518460000151600160a060020a0316867f1f920dbda597d7bf95035464170fa58d0a4b57f13a1c315ace6793b9f63688b887604001516040518080602001828103825283818151815260200191508051906020019080838360005b8381101561434257818101518382015260200161432a565b50505050905090810190601f16801561436f5780820380516001836020036101000a031916815260200191505b509250505060405180910390a482151561438c57600191506143e3565b60008581526008602052604081208054600160a060020a031916815560018101829055906143bd6002830182614497565b5060006003919091018190558581526009602052604081206143de916145b7565b600191505b509392505050565b6040517f01ffc9a70000000000000000000000000000000000000000000000000000000080825260048201839052600091829190602081818189617530fa905190969095509350505050565b604080516060818101835281526000602082018190529181019190915290565b60c06040519081016040528060008152602001600081526020016000600160a060020a031681526020016060815260200160608152602001606081525090565b50805460018160011615610100020316600290046000825580601f106144bd57506144db565b601f0160209004906000526020600020908101906144db91906145d1565b50565b815481835581811115614502576000838152602090206145029181019083016145d1565b505050565b828054600181600116156101000203166002900490600052602060002090601f016020900481019282601f1061454857805160ff1916838001178555614575565b82800160010185558215614575579182015b8281111561457557825182559160200191906001019061455a565b506145819291506145d1565b5090565b6080604051908101604052806000600160a060020a031681526020016000815260200160608152602001600081525090565b50805460008255906000526020600020908101906144db91905b610eba91905b8082111561458157600081556001016145d7565b6060806000808460ff166040519080825280601f01601f191660200182016040528015614622578160200160208202803883390190505b509250600091508590505b8460ff1686018110156146a757868181518110151561464857fe5b90602001015160f860020a900460f860020a02838380600101945081518110151561466f57fe5b9060200101907effffffffffffffffffffffffffffffffffffffffffffffffffffffffffffff1916908160001a90535060010161462d565b509095945050505050565b606061269a8484846145eb5600a165627a7a723058208e4d0785cc3e80d594d75aed927fe0aec113ace9504a17295afce588956362440029",
  "source": "pragma solidity ^0.4.24;\n\nimport \"./Destructible.sol\";\nimport \"./ERC735.sol\";\nimport \"./KeyGetters.sol\";\nimport \"./KeyManager.sol\";\nimport \"./MultiSig.sol\";\nimport \"./ClaimManager.sol\";\nimport \"./Slice.sol\";\n\n/// @title Identity\n/// @author Mircea Pasoi\n/// @notice Identity contract implementing both ERC 725 and ERC 735\n\ncontract Identity is KeyManager, MultiSig, ClaimManager, Destructible, KeyGetters {\n    using Slice for bytes;\n    using Slice for string;\n\n    /// @dev Constructor for Identity contract. If no initial keys are passed then\n    ///  `msg.sender` is used as an initial MANAGEMENT_KEY, ACTION_KEY and CLAIM_SIGNER_KEY\n    /// @param _keys Keys to start contract with, in ascending order; in case of equality, purposes must be ascending\n    /// @param _purposes Key purposes (in the same order as _keys)\n    /// @param _issuers Claim issuers to start contract with, in ascending order; in case of equality, topics must be ascending\n    /// @param _managementThreshold Multi-sig threshold for MANAGEMENT_KEY\n    /// @param _actionThreshold Multi-sig threshold for ACTION_KEY\n    /// @param _topics Claim topics (in the same order as _issuers)\n    /// @param _signatures All the initial claim signatures concatenated in one bytes array\n    /// @param _datas All the initial claim data concatenated in one bytes array\n    /// @param _uris All the initial claim URIs concatenated in one string\n    /// @param _sizes Triples of signature, claim data, URI sizes (each must be  256)\n    constructor\n    (\n        bytes32[] _keys,\n        uint256[] _purposes,\n        uint256 _managementThreshold,\n        uint256 _actionThreshold,\n        address[] _issuers,\n        uint256[] _topics,\n        // TODO: Pass bytes[] signatures, bytes[] data and string[] uris once ABIEncoderV2 is out\n        bytes _signatures,\n        bytes _datas,\n        string _uris,\n        uint8[] _sizes\n    )\n    public {\n        _validateKeys(_keys, _purposes);\n        _validateClaims(_issuers, _topics, _sizes);\n\n        _addKeys(_keys, _purposes, _managementThreshold, _actionThreshold);\n        _addClaims(_issuers, _topics, _signatures, _datas, _uris, _sizes);\n\n        // Supports both ERC 725 & 735\n        supportedInterfaces[ERC725ID() ^ ERC735ID()] = true;\n    }\n\n    // Fallback function accepts Ether transactions\n    // solhint-disable-next-line no-empty-blocks\n    function () external payable {\n    }\n\n    /// @dev Validate keys are sorted and unique\n    /// @param _keys Keys to start contract with, in ascending order; in case of equality, purposes must be ascending\n    /// @param _purposes Key purposes (in the same order as _keys)\n    function _validateKeys\n    (\n        bytes32[] _keys,\n        uint256[] _purposes\n    )\n    private\n    pure\n    {\n        // Validate keys are sorted and unique\n        require(_keys.length == _purposes.length);\n        for (uint i = 1; i < _keys.length; i++) {\n            // Expect input to be in sorted order, first by keys, then by purposes\n            // Sorted order guarantees (key, purpose) pairs are unique and we can use\n            // _addKey insteaad of addKey (which also checks for existance)\n            bytes32 prevKey = _keys[i - 1];\n            require(_keys[i] > prevKey || (_keys[i] == prevKey && _purposes[i] > _purposes[i - 1]));\n        }\n    }\n\n    /// @dev Add keys to contract and set multi-sig thresholds\n    /// @param _keys Keys to start contract with, in ascending order; in case of equality, purposes must be ascending\n    /// @param _purposes Key purposes (in the same order as _keys)\n    /// @param _managementThreshold Multi-sig threshold for MANAGEMENT_KEY\n    /// @param _actionThreshold Multi-sig threshold for ACTION_KEY\n    function _addKeys\n    (\n        bytes32[] _keys,\n        uint256[] _purposes,\n        uint256 _managementThreshold,\n        uint256 _actionThreshold\n    )\n    private\n    {\n        uint256 actionCount;\n        uint256 managementCount;\n        if (_keys.length == 0) {\n            bytes32 senderKey = addrToKey(msg.sender);\n            // Add key that deployed the contract for MANAGEMENT, ACTION, CLAIM\n            _addKey(senderKey, MANAGEMENT_KEY, ECDSA_TYPE);\n            _addKey(senderKey, ACTION_KEY, ECDSA_TYPE);\n            _addKey(senderKey, CLAIM_SIGNER_KEY, ECDSA_TYPE);\n            actionCount = 1;\n            managementCount = 1;\n        } else {\n            // Add constructor keys\n            for (uint i = 0; i < _keys.length; i++) {\n                _addKey(_keys[i], _purposes[i], ECDSA_TYPE);\n                if (_purposes[i] == MANAGEMENT_KEY) {\n                    managementCount++;\n                } else if (_purposes[i] == ACTION_KEY) {\n                    actionCount++;\n                }\n            }\n        }\n\n        require(_managementThreshold > 0);\n        require(_managementThreshold <= managementCount);\n        require(_actionThreshold > 0);\n        require(_actionThreshold <= actionCount);\n        managementThreshold = _managementThreshold;\n        actionThreshold = _actionThreshold;\n    }\n\n    /// @dev Validate claims are sorted and unique\n    /// @param _issuers Claim issuers to start contract with, in ascending order; in case of equality, topics must be ascending\n    /// @param _topics Claim topics (in the same order as _issuers)\n    /// @param _sizes Triples of signature, claim data, URI sizes (each must be  256)\n    function _validateClaims\n    (\n        address[] _issuers,\n        uint256[] _topics,\n        uint8[] _sizes\n    )\n    private\n    pure\n    {\n        // Validate claims are sorted and unique\n        require(_issuers.length == _topics.length);\n        require(3 * _topics.length == _sizes.length);\n        for (uint i = 1; i < _issuers.length; i++) {\n            // Expect input to be in sorted order, first by issuer, then by topic\n            // Sorted order guarantees (issuer, topic) pairs are unique\n            address prevIssuer = _issuers[i - 1];\n            require(_issuers[i] != prevIssuer || (_issuers[i] == prevIssuer && _topics[i] > _topics[i - 1]));\n        }\n    }\n\n    /// @dev Add claims to contract without an URI\n    /// @param _issuers Claim issuers to start contract with, in ascending order; in case of equality, topics must be ascending\n    /// @param _topics Claim topics (in the same order as _issuers)\n    /// @param _signatures All the initial claim signatures concatenated in one bytes array\n    /// @param _datas All the initial claim data concatenated in one bytes array\n    /// @param _uris All the initial claim URIs concatenated in one string\n    /// @param _sizes Triples of signature, claim data, URI sizes (each must be  256)\n    function _addClaims\n    (\n        address[] _issuers,\n        uint256[] _topics,\n        bytes _signatures,\n        bytes _datas,\n        string _uris,\n        uint8[] _sizes\n    )\n    private\n    {\n        // Add constructor claims\n        uint[3] memory offset;\n        bytes memory signature;\n        bytes memory data;\n        for (uint i = 0; i < _issuers.length; i++) {\n            // Check signature\n            signature = _signatures.slice(offset[0], _sizes[3 * i]);\n            data = _datas.slice(offset[1], _sizes[3 * i + 1]);\n            require(_validSignature(_topics[i], ECDSA_SCHEME, _issuers[i], signature, data));\n            // Add claim\n            _addClaim(\n                getClaimId(_issuers[i], _topics[i]),\n                _topics[i],\n                ECDSA_SCHEME,\n                _issuers[i],\n                signature,\n                data,\n                _uris.slice(offset[2], _sizes[3 * i + 2])\n            );\n            offset[0] += _sizes[3 * i];\n            offset[1] += _sizes[3 * i + 1];\n            offset[2] += _sizes[3 * i + 2];\n        }\n    }\n}",
  "sourcePath": "/Users/coinplug/BangGijin/metabolics2.0/contracts/identity/Identity.sol",
  "compiler": {
    "name": "solc",
    "version": "0.4.24+commit.e67f0147.Emscripten.clang"
  },
  "schemaVersion": "2.0.1",
  "updatedAt": "2018-11-16T09:41:02.232Z"
}