{
  "contractName": "IdentityManager",
  "abi": [
    {
      "constant": true,
      "inputs": [],
      "name": "REG",
      "outputs": [
        {
          "name": "",
          "type": "address"
        }
      ],
      "payable": false,
      "stateMutability": "view",
      "type": "function"
    },
    {
      "constant": false,
      "inputs": [],
      "name": "isPermitted",
      "outputs": [
        {
          "name": "",
          "type": "bool"
        }
      ],
      "payable": false,
      "stateMutability": "nonpayable",
      "type": "function"
    },
    {
      "constant": true,
      "inputs": [],
      "name": "THIS_NAME",
      "outputs": [
        {
          "name": "",
          "type": "bytes32"
        }
      ],
      "payable": false,
      "stateMutability": "view",
      "type": "function"
    },
    {
      "constant": true,
      "inputs": [
        {
          "name": "",
          "type": "uint256"
        }
      ],
      "name": "metaIds",
      "outputs": [
        {
          "name": "",
          "type": "address"
        }
      ],
      "payable": false,
      "stateMutability": "view",
      "type": "function"
    },
    {
      "constant": true,
      "inputs": [],
      "name": "owner",
      "outputs": [
        {
          "name": "",
          "type": "address"
        }
      ],
      "payable": false,
      "stateMutability": "view",
      "type": "function"
    },
    {
      "constant": false,
      "inputs": [
        {
          "name": "_addr",
          "type": "address"
        }
      ],
      "name": "setRegistry",
      "outputs": [],
      "payable": false,
      "stateMutability": "nonpayable",
      "type": "function"
    },
    {
      "constant": false,
      "inputs": [
        {
          "name": "newOwner",
          "type": "address"
        }
      ],
      "name": "transferOwnership",
      "outputs": [],
      "payable": false,
      "stateMutability": "nonpayable",
      "type": "function"
    },
    {
      "inputs": [],
      "payable": false,
      "stateMutability": "nonpayable",
      "type": "constructor"
    },
    {
      "anonymous": false,
      "inputs": [
        {
          "indexed": false,
          "name": "addr",
          "type": "address"
        },
        {
          "indexed": false,
          "name": "name",
          "type": "bytes32"
        },
        {
          "indexed": false,
          "name": "go",
          "type": "bool"
        }
      ],
      "name": "Per",
      "type": "event"
    },
    {
      "anonymous": false,
      "inputs": [
        {
          "indexed": true,
          "name": "previousOwner",
          "type": "address"
        },
        {
          "indexed": true,
          "name": "newOwner",
          "type": "address"
        }
      ],
      "name": "OwnershipTransferred",
      "type": "event"
    },
    {
      "constant": false,
      "inputs": [
        {
          "name": "_managementKey",
          "type": "address"
        }
      ],
      "name": "createMetaId",
      "outputs": [
        {
          "name": "",
          "type": "bool"
        }
      ],
      "payable": false,
      "stateMutability": "nonpayable",
      "type": "function"
    },
    {
      "constant": true,
      "inputs": [],
      "name": "getDeployedMetaIds",
      "outputs": [
        {
          "name": "",
          "type": "address[]"
        }
      ],
      "payable": false,
      "stateMutability": "view",
      "type": "function"
    },
    {
      "constant": true,
      "inputs": [
        {
          "name": "_addr",
          "type": "address"
        }
      ],
      "name": "isMetaId",
      "outputs": [
        {
          "name": "",
          "type": "bool"
        }
      ],
      "payable": false,
      "stateMutability": "view",
      "type": "function"
    },
    {
      "constant": true,
      "inputs": [],
      "name": "getLengthOfMetaIds",
      "outputs": [
        {
          "name": "",
          "type": "uint256"
        }
      ],
      "payable": false,
      "stateMutability": "view",
      "type": "function"
    }
  ],
  "bytecode": "0x608060405234801561001057600080fd5b5060008054600160a060020a031916331790557f4964656e746974794d616e616765720000000000000000000000000000000000600255614ebe806100566000396000f3006080604052600436106100ae5763ffffffff7c010000000000000000000000000000000000000000000000000000000060003504166312459b0081146100b357806339363112146100e85780633f6fd7121461011957806357296f071461012e57806364319d0b1461015557806373fd4e8f1461016a5780638da5cb5b14610182578063a91ee0dc14610197578063ab1796cf146101ba578063df483f531461021f578063f2fde38b14610240575b600080fd5b3480156100bf57600080fd5b506100d4600160a060020a0360043516610261565b604080519115158252519081900360200190f35b3480156100f457600080fd5b506100fd61027f565b60408051600160a060020a039092168252519081900360200190f35b34801561012557600080fd5b506100d461028e565b34801561013a57600080fd5b5061014361032e565b60408051918252519081900360200190f35b34801561016157600080fd5b50610143610334565b34801561017657600080fd5b506100fd60043561033a565b34801561018e57600080fd5b506100fd610362565b3480156101a357600080fd5b506101b8600160a060020a0360043516610371565b005b3480156101c657600080fd5b506101cf6103b7565b60408051602080825283518183015283519192839290830191858101910280838360005b8381101561020b5781810151838201526020016101f3565b505050509050019250505060405180910390f35b34801561022b57600080fd5b506100d4600160a060020a0360043516610419565b34801561024c57600080fd5b506101b8600160a060020a03600435166104de565b600160a060020a031660009081526004602052604090205460ff1690565b600154600160a060020a031681565b600154600254604080517f60d6c7cf000000000000000000000000000000000000000000000000000000008152600481019290925233602483015251600092600160a060020a0316916360d6c7cf91604480830192602092919082900301818787803b1580156102fd57600080fd5b505af1158015610311573d6000803e3d6000fd5b505050506040513d602081101561032757600080fd5b5051905090565b60035490565b60025481565b600380548290811061034857fe5b600091825260209091200154600160a060020a0316905081565b600054600160a060020a031681565b600054600160a060020a0316331461038857600080fd5b6001805473ffffffffffffffffffffffffffffffffffffffff1916600160a060020a0392909216919091179055565b6060600380548060200260200160405190810160405280929190818152602001828054801561040f57602002820191906000526020600020905b8154600160a060020a031681526001909101906020018083116103f1575b5050505050905090565b60008061042461028e565b151561042f57600080fd5b82610438610572565b600160a060020a03909116815260405190819003602001906000f080158015610465573d6000803e3d6000fd5b506003805460018181019092557fc2575a0e9e593c00f959f8c92f12db2869c3395a3b0502d05e2516446f71f85b018054600160a060020a0390931673ffffffffffffffffffffffffffffffffffffffff1990931683179055600091825260046020526040909120805460ff1916909117905550919050565b600054600160a060020a031633146104f557600080fd5b600160a060020a038116151561050a57600080fd5b60008054604051600160a060020a03808516939216917f8be0079c531659141344cd1fd0a4f28419497f9722a3daafe3b4186f6b6457e091a36000805473ffffffffffffffffffffffffffffffffffffffff1916600160a060020a0392909216919091179055565b60405161490f80620005848339019056006080604052600160008190558080556005805460ff191690556007553480156200002857600080fd5b506040516020806200490f833981016040525160006001600682620000556401000000006200022b810204565b7fffffffff0000000000000000000000000000000000000000000000000000000016815260208101919091526040016000908120805460ff191692151592909217909155600190600690620000b26401000000006200024f810204565b7fffffffff0000000000000000000000000000000000000000000000000000000016815260208101919091526040016000908120805460ff1916921515929092179091556001906006906200010f64010000000062000273810204565b7fffffffff000000000000000000000000000000000000000000000000000000001681526020810191909152604001600020805460ff1916911515919091179055620001648264010000000062000297810204565b90506200017d81600180640100000000620002a3810204565b620001958160026001640100000000620002a3810204565b620001ad8160036001640100000000620002a3810204565b60016000818155818055600690620001cd64010000000062000273810204565b620001e06401000000006200024f810204565b187fffffffff000000000000000000000000000000000000000000000000000000001681526020810191909152604001600020805460ff191691151591909117905550620003669050565b7f01ffc9a70000000000000000000000000000000000000000000000000000000090565b7fdc3d2a7b0000000000000000000000000000000000000000000000000000000090565b7f107653790000000000000000000000000000000000000000000000000000000090565b600160a060020a031690565b620002c06002848484640100000000620042fc620002f482021704565b6040518190839085907f480000bb1edad8ca1470381cc334b1917fbd51c6531f3a623ea8e0ec7e38a6e990600090a4505050565b60008381526020858152604082208054600181018255818452919092200183905560028101541515620003305760028101849055600181018290555b50506000908152600180840160209081526040832080548084018255908452922090910191909155600290910180549091019055565b61459980620003766000396000f30060806040526004361061029a5763ffffffff60e060020a60003504166301ffc9a7811461029c57806302e7491e146102d25780630440b43a14610304578063058b316c1461032b57806312aaac7014610340578063190db862146103b95780631d203be8146103dd5780631d38124014610446578063251de3e914610304578063262b54f5146104645780632d32d442146104cc5780632e7700f0146104e157806338f4edd4146104f65780633b8a12c81461050b5780633f4ba83a1461058557806349991ec81461032b5780634da34c2c1461059a5780634eee424a1461064757806353d413c51461065f5780635c975abb1461067a5780635d7bc3fc1461068f5780635dccebba146106a757806363f14c3c1461075e5780636e4c43111461077f578063710ca5501461032b578063724a4b3b1461079a578063747442d3146107d057806375e5598c146104cc578063765b3042146107ed5780637d96fa581461081e57806382d094461461032b5780638456cb59146108335780639010f726146108485780639e140cc814610860578063a550f0c7146104cc578063aa0a514214610875578063ae62838614610860578063affed0e01461088a578063b132734e1461089f578063b1a34e0d146108b4578063b1e9f64c1461099c578063b2ec6e49146109b1578063b61d27f614610a20578063b9133d6314610a89578063bf2f20ad14610a9e578063c32b351814610ab3578063c670218714610304578063c9100bcb14610b0c578063c9d24ecc14610c8f578063ccfe586814610ca4578063d202158d14610cbc578063dbfa74b71461099c578063e0610ba314610cd7578063e99896b814610dfd578063ead09fab14610e15578063f22d08a6146104cc578063f5074f4114610e2a578063fc0fc84914610e4b575b005b3480156102a857600080fd5b506102be600160e060020a031960043516610e60565b604080519115158252519081900360200190f35b3480156102de57600080fd5b506102e7610e7f565b60408051600160e060020a03199092168252519081900360200190f35b34801561031057600080fd5b50610319610ea4565b60408051918252519081900360200190f35b34801561033757600080fd5b50610319610ea9565b34801561034c57600080fd5b50610358600435610eae565b60408051602080820185905291810183905260608082528551908201528451909182916080830191878101910280838360005b838110156103a357818101518382015260200161038b565b5050505090500194505050505060405180910390f35b3480156103c557600080fd5b50610319600160a060020a0360043516602435610f53565b3480156103e957600080fd5b50604080516020600460443581810135601f8101849004840285018401909552848452610319948235600160a060020a03169460248035953695946064949201919081908401838280828437509497506110009650505050505050565b34801561045257600080fd5b506102be600435602435604435611100565b34801561047057600080fd5b5061047c600435611159565b60408051602080825283518183015283519192839290830191858101910280838360005b838110156104b85781810151838201526020016104a0565b505050509050019250505060405180910390f35b3480156104d857600080fd5b506103196111bc565b3480156104ed57600080fd5b506103196111c1565b34801561050257600080fd5b506103196111c7565b34801561051757600080fd5b5060408051602060046024803582810135601f81018590048502860185019096528585526105699583359536956044949193909101919081908401838280828437509497506111cd9650505050505050565b60408051600160a060020a039092168252519081900360200190f35b34801561059157600080fd5b5061029a6112d0565b3480156105a657600080fd5b50604080516020600460443581810135601f8101849004840285018401909552848452610319948235600160a060020a031694602480359536959460649492019190819084018382808284375050604080516020601f818a01358b0180359182018390048302840183018552818452989b8a359b909a9099940197509195509182019350915081908401838280828437509497506113299650505050505050565b34801561065357600080fd5b506102be600435611445565b34801561066b57600080fd5b506102be600435602435611a4e565b34801561068657600080fd5b506102be611ae5565b34801561069b57600080fd5b506102be600435611aee565b3480156106b357600080fd5b506106bf600435611e57565b6040518085600160a060020a0316600160a060020a0316815260200184815260200180602001838152602001828103825284818151815260200191508051906020019080838360005b83811015610720578181015183820152602001610708565b50505050905090810190601f16801561074d5780820380516001836020036101000a031916815260200191505b509550505050505060405180910390f35b34801561076a57600080fd5b50610319600160a060020a0360043516611f13565b34801561078b57600080fd5b50610569600435602435611f1f565b3480156107a657600080fd5b506102be600435600160a060020a0360243516600160e060020a0319604435166064351515611f56565b3480156107dc57600080fd5b506102be6004356024351515611fb7565b3480156107f957600080fd5b506102be600435600160a060020a0360243516600160e060020a031960443516612504565b34801561082a57600080fd5b506102e7612546565b34801561083f57600080fd5b5061029a61256a565b34801561085457600080fd5b5061047c6004356125c5565b34801561086c57600080fd5b50610319612626565b34801561088157600080fd5b5061031961262b565b34801561089657600080fd5b50610319612631565b3480156108ab57600080fd5b50610319612637565b3480156108c057600080fd5b50604080516020601f606435600481810135928301849004840285018401909552818452610319948035946024803595600160a060020a0360443516953695608494930191819084018382808284375050604080516020601f89358b018035918201839004830284018301909452808352979a99988101979196509182019450925082915084018382808284375050604080516020601f89358b018035918201839004830284018301909452808352979a99988101979196509182019450925082915084018382808284375094975061263c9650505050505050565b3480156109a857600080fd5b50610319612aed565b3480156109bd57600080fd5b50604080516020601f60643560048181013592830184900484028501840190955281845261029a94600160a060020a038135811695602480359092169560443595369560849401918190840183828082843750949750612af29650505050505050565b348015610a2c57600080fd5b50604080516020600460443581810135601f8101849004840285018401909552848452610319948235600160a060020a0316946024803595369594606494920191908190840183828082843750949750612af89650505050505050565b348015610a9557600080fd5b50610319612e2a565b348015610aaa57600080fd5b506102e7612e2f565b348015610abf57600080fd5b506040805160206004803580820135601f81018490048402850184019095528484526102e7943694929360249392840191908190840183828082843750949750612e539650505050505050565b348015610b1857600080fd5b50610b24600435612ed7565b6040518087815260200186815260200185600160a060020a0316600160a060020a03168152602001806020018060200180602001848103845287818151815260200191508051906020019080838360005b83811015610b8d578181015183820152602001610b75565b50505050905090810190601f168015610bba5780820380516001836020036101000a031916815260200191505b50848103835286518152865160209182019188019080838360005b83811015610bed578181015183820152602001610bd5565b50505050905090810190601f168015610c1a5780820380516001836020036101000a031916815260200191505b50848103825285518152855160209182019187019080838360005b83811015610c4d578181015183820152602001610c35565b50505050905090810190601f168015610c7a5780820380516001836020036101000a031916815260200191505b50995050505050505050505060405180910390f35b348015610c9b57600080fd5b5061031961312d565b348015610cb057600080fd5b5061029a600435613133565b348015610cc857600080fd5b506102be600435602435613186565b348015610ce357600080fd5b50604080516020601f606435600481810135928301849004840285018401909552818452610319948035946024803595600160a060020a0360443516953695608494930191819084018382808284375050604080516020601f89358b018035918201839004830284018301909452808352979a99988101979196509182019450925082915084018382808284375050604080516020601f89358b018035918201839004830284018301909452808352979a99988101979196509182019450925082915084018382808284375050604080516020601f89358b018035918201839004830284018301909452808352979a99988101979196509182019450925082915084018382808284375094975061319a9650505050505050565b348015610e0957600080fd5b5061029a6004356135a8565b348015610e2157600080fd5b506103196135fb565b348015610e3657600080fd5b5061029a600160a060020a0360043516613600565b348015610e5757600080fd5b50610319613634565b600160e060020a03191660009081526006602052604090205460ff1690565b7f01ffc9a7000000000000000000000000000000000000000000000000000000005b90565b600381565b600181565b6060600080610ebb6143b9565b60008581526002602090815260409182902082518154608093810282018401909452606081018481529093919284928491840182828015610f1b57602002820191906000526020600020905b815481526020019060010190808311610f07575b505050918352505060018201546020808301919091526002909201546040918201528251918301519201519097919650945092505050565b600082826040516020018083600160a060020a0316600160a060020a03166c01000000000000000000000000028152601401828152602001925050506040516020818303038152906040526040518082805190602001908083835b60208310610fcd5780518252601f199092019160209182019101610fae565b5181516020939093036101000a600019018019909116921691909117905260405192018290039091209695505050505050565b60008383836040516020018084600160a060020a0316600160a060020a03166c0100000000000000000000000002815260140183815260200182805190602001908083835b602083106110645780518252601f199092019160209182019101611045565b6001836020036101000a03801982511681845116808217855250505050505090500193505050506040516020818303038152906040526040518082805190602001908083835b602083106110c95780518252601f1990920191602091820191016110aa565b6001836020036101000a038019825116818451168082178552505050505050905001915050604051809103902090505b9392505050565b600061110a61363a565b151561111557600080fd5b60055460ff161561112557600080fd5b6111376002858563ffffffff61366c16565b15611144575060006110f9565b61114f848484613747565b5060019392505050565b6000818152600b60209081526040918290208054835181840281018401909452808452606093928301828280156111b057602002820191906000526020600020905b8154815260019091019060200180831161119b575b50505050509050919050565b600281565b60075490565b60015481565b60006110f9826040805190810160405280601c81526020017f19457468657265756d205369676e6564204d6573736167653a0a333200000000815250856040516020018083805190602001908083835b6020831061123c5780518252601f19909201916020918201910161121d565b51815160209384036101000a600019018019909216911617905292019384525060408051808503815293820190819052835193945092839250908401908083835b6020831061129c5780518252601f19909201916020918201910161127d565b5181516020939093036101000a600019018019909116921691909117905260405192018290039091209392505061378e9050565b6112d861363a565b15156112e357600080fd5b60055460ff1615156112f457600080fd5b6005805460ff191690556040517f730c1faaa977b67dacf1e2451ef54556e04a07d577785ff79f6d31f73502efc990600090a1565b600554600090819060ff161561133e57600080fd5b611439878787876040516020018085600160a060020a0316600160a060020a03166c0100000000000000000000000002815260140184815260200183805190602001908083835b602083106113a45780518252601f199092019160209182019101611385565b51815160209384036101000a6000190180199092169116179052920193845250604080518085038152938201908190528351939650945084935085019190508083835b602083106114065780518252601f1990920191602091820191016113e7565b6001836020036101000a0380198251168184511680821785525050505050509050019150506040518091039020846111cd565b90505095945050505050565b600061144f6143d9565b600554600090819060ff161561146457600080fd5b6000858152600a60205260409020600201548590600160a060020a031680151561148d57600080fd5b61149561363a565b1561149f57611578565b33600160a060020a03821614156114b557611578565b6114d66114c0612546565b600160a060020a0383169063ffffffff61385e16565b156115735780600160a060020a031663d202158d6114f333611f13565b6040805160e060020a63ffffffff85160281526004810192909252600260248301525160448083019260209291908290030181600087803b15801561153757600080fd5b505af115801561154b573d6000803e3d6000fd5b505050506040513d602081101561156157600080fd5b5051151561156e57600080fd5b611578565b600080fd5b6000878152600a6020908152604091829020825160c0810184528154815260018083015482850152600280840154600160a060020a0316838701526003840180548751601f94821615610100026000190190911692909204928301869004860282018601909652818152919492936060860193919083018282801561163e5780601f106116135761010080835404028352916020019161163e565b820191906000526020600020905b81548152906001019060200180831161162157829003601f168201915b505050918352505060048201805460408051602060026001851615610100026000190190941693909304601f81018490048402820184019092528181529382019392918301828280156116d25780601f106116a7576101008083540402835291602001916116d2565b820191906000526020600020905b8154815290600101906020018083116116b557829003601f168201915b505050918352505060058201805460408051602060026001851615610100026000190190941693909304601f81018490048402820184019092528181529382019392918301828280156117665780601f1061173b57610100808354040283529160200191611766565b820191906000526020600020905b81548152906001019060200180831161174957829003601f168201915b505050919092525050506040810151909550600160a060020a0316151561178c57600080fd5b6000878152600a6020526040812081815560018101829055600281018054600160a060020a0319169055906117c46003830182614419565b6117d2600483016000614419565b6117e0600583016000614419565b505084516000908152600b60205260408120945092505b8354831015611897578354879085908590811061181057fe5b600091825260209091200154141561188c5783548490600019810190811061183457fe5b9060005260206000200154848481548110151561184d57fe5b60009182526020909120015583548490600019810190811061186b57fe5b60009182526020822001558354611886856000198301614460565b50611897565b6001909201916117f7565b600c60008154809291906001900391905055508460400151600160a060020a0316856000015188600019167f3cf57863a89432c61c4a27073c6ee39e8a764bff5a05aebfbcdcdc80b2e6130a886020015189606001518a608001518b60a0015160405180858152602001806020018060200180602001848103845287818151815260200191508051906020019080838360005b8381101561194257818101518382015260200161192a565b50505050905090810190601f16801561196f5780820380516001836020036101000a031916815260200191505b50848103835286518152865160209182019188019080838360005b838110156119a257818101518382015260200161198a565b50505050905090810190601f1680156119cf5780820380516001836020036101000a031916815260200191505b50848103825285518152855160209182019187019080838360005b83811015611a025781810151838201526020016119ea565b50505050905090810190601f168015611a2f5780820380516001836020036101000a031916815260200191505b5097505050505050505060405180910390a45060019695505050505050565b600080611a5961363a565b1515611a6457600080fd5b60055460ff1615611a7457600080fd5b611a866002858563ffffffff61366c16565b1515611a955760009150611ade565b611aa76002858563ffffffff61391516565b6040519091508190849086907f585a4aef50f8267a92b32412b331b20f7f8b96f2245b253b9cc50dcc621d339790600090a4600191505b5092915050565b60055460ff1681565b6000611af86143d9565b60055460ff1615611b0857600080fd5b6000838152600a60205260409020600201548390600160a060020a0316801515611b3157600080fd5b611b3961363a565b15611b4357611bfc565b33600160a060020a0382161415611b5957611bfc565b611b646114c0612546565b156115735780600160a060020a031663d202158d611b8133611f13565b6040805160e060020a63ffffffff85160281526004810192909252600260248301525160448083019260209291908290030181600087803b158015611bc557600080fd5b505af1158015611bd9573d6000803e3d6000fd5b505050506040513d6020811015611bef57600080fd5b50511515611bfc57600080fd5b6000858152600a6020908152604091829020825160c0810184528154815260018083015482850152600280840154600160a060020a0316838701526003840180548751601f948216156101000260001901909116929092049283018690048602820186019096528181529194929360608601939190830182828015611cc25780601f10611c9757610100808354040283529160200191611cc2565b820191906000526020600020905b815481529060010190602001808311611ca557829003601f168201915b505050918352505060048201805460408051602060026001851615610100026000190190941693909304601f8101849004840282018401909252818152938201939291830182828015611d565780601f10611d2b57610100808354040283529160200191611d56565b820191906000526020600020905b815481529060010190602001808311611d3957829003601f168201915b505050918352505060058201805460408051602060026001851615610100026000190190941693909304601f8101849004840282018401909252818152938201939291830182828015611dea5780601f10611dbf57610100808354040283529160200191611dea565b820191906000526020600020905b815481529060010190602001808311611dcd57829003601f168201915b505050919092525050506040810151909350600160a060020a03161515611e1057600080fd5b611e3183600001518460200151856040015186606001518760800151613ac0565b1515611e4a57611e4085611445565b5060009350611e4f565b600193505b505050919050565b60086020908152600091825260409182902080546001808301546002808501805488516101009582161595909502600019011691909104601f8101879004870284018701909752868352600160a060020a03909316959094919291830182828015611f035780601f10611ed857610100808354040283529160200191611f03565b820191906000526020600020905b815481529060010190602001808311611ee657829003601f168201915b5050505050908060030154905084565b600160a060020a031690565b600960205281600052604060002081815481101515611f3a57fe5b600091825260209091200154600160a060020a03169150829050565b6000611f6061363a565b1515611f6b57600080fd5b60055460ff1615611f7b57600080fd5b611f8c60028663ffffffff613bfd16565b1515611f9757600080fd5b611fab60028686868663ffffffff613c8f16565b50600195945050505050565b60055460009081908190819060ff1615611fd057600080fd5b851515611fdc57600080fd5b60008681526008602052604090208054909350600160a060020a0316151561200357600080fd5b8254600160a060020a031630141561212e5761203161202133611f13565b600290600163ffffffff61366c16565b1561203b57612129565b61205761204733611f13565b600290600763ffffffff61366c16565b8015612123575060028084018054604080516020601f60001961010060018716150201909416959095049283018590048502810185019091528181527f1d38124000000000000000000000000000000000000000000000000000000000936121179391929083018282801561210d5780601f106120e25761010080835404028352916020019161210d565b820191906000526020600020905b8154815290600101906020018083116120f057829003601f168201915b5050505050612e53565b600160e060020a031916145b15611573575b612259565b61214961213a33611f13565b6002908163ffffffff61366c16565b1561215357612259565b61216f61215f33611f13565b600290600663ffffffff61366c16565b1561217957612259565b61219561218533611f13565b600290600863ffffffff61366c16565b80156122535750600260006121a933611f13565b8152602080820192909252604090810160009081208654600160a060020a0316825260030183528181206002808801805485516000196101006001841615020190911692909204601f8101879004870283018701909552848252919492936122349391929183018282801561210d5780601f106120e25761010080835404028352916020019161210d565b600160e060020a031916815260208101919091526040016000205460ff165b15611573575b604080518615158152905187917fb3932da477fe5d6c8ff2eafef050c0f3a1af18fc07121001482600f36f3715d8919081900360200190a2600086815260096020526040902091508415156123a3575060005b815481101561239a57815433908390839081106122c557fe5b600091825260209091200154600160a060020a03161415612392578154829060001981019081106122f257fe5b6000918252602090912001548254600160a060020a039091169083908390811061231857fe5b60009182526020909120018054600160a060020a031916600160a060020a039290921691909117905581548290600019810190811061235357fe5b60009182526020909120018054600160a060020a0319169055815461237c836000198301614460565b50600383018054600190810190915593506124fb565b6001016122ac565b600093506124fb565b5060005b81548110156123e857815433908390839081106123c057fe5b600091825260209091200154600160a060020a031614156123e057600080fd5b6001016123a7565b8154600181018355600083815260209020018054600160a060020a03191633179055600383018054600019019081905515156124f657604080516080810182528454600160a060020a031681526001808601546020808401919091526002808801805486516101009582161595909502600019011691909104601f810183900483028401830186528084526124ef958c95948a9491860193909290918301828280156124d55780601f106124aa576101008083540402835291602001916124d5565b820191906000526020600020905b8154815290600101906020018083116124b857829003601f168201915b505050505081526020016003820154815250506001613cdc565b93506124fb565b600193505b50505092915050565b6000838152600260209081526040808320600160a060020a03861684526003018252808320600160e060020a03198516845290915290205460ff169392505050565b7fdc3d2a7b0000000000000000000000000000000000000000000000000000000090565b61257261363a565b151561257d57600080fd5b60055460ff161561258d57600080fd5b6005805460ff191660011790556040517f4b314b34e912fda7f95e7d23e9c8c95f82f0aff1984e4ce592a0b005f905562490600090a1565b6000818152600360209081526040918290208054835181840281018401909452808452606093928301828280156111b057602002820191906000526020600020908154815260019091019060200180831161119b5750505050509050919050565b600481565b60005481565b60075481565b600881565b60055460009081908190819060ff161561265557600080fd5b6126628a8a8a8a8a613ac0565b151561266d57600080fd5b61267561363a565b92508215156128c3576040517fb61d27f600000000000000000000000000000000000000000000000000000000815230600482018181526000602484018190526060604485019081523660648601819052939463b61d27f694869484939192909190608401848480828437820191505095505050505050602060405180830381600087803b15801561270657600080fd5b505af115801561271a573d6000803e3d6000fd5b505050506040513d602081101561273057600080fd5b8101908080519060200190929190505050935087600160a060020a03168a857fe6b6db97dedfb44cbced367387e40b3f92dbee1b1be87f9367f7b673532b0d698c8b8b8b60405180858152602001806020018060200180602001848103845287818151815260200191508051906020019080838360005b838110156127bf5781810151838201526020016127a7565b50505050905090810190601f1680156127ec5780820380516001836020036101000a031916815260200191505b50848103835286518152865160209182019188019080838360005b8381101561281f578181015183820152602001612807565b50505050905090810190601f16801561284c5780820380516001836020036101000a031916815260200191505b50848103825285518152855160209182019187019080838360005b8381101561287f578181015183820152602001612867565b50505050905090810190601f1680156128ac5780820380516001836020036101000a031916815260200191505b5097505050505050505060405180910390a4612ae0565b6128cd888b610f53565b6000818152600a6020526040902060020154909250600160a060020a0316151561290557612900828b8b8b8b8b8b613f5e565b612ae0565b506000818152600a60209081526040909120600181018a9055875190916129339160038401918a0190614489565b5085516129499060048301906020890190614489565b50845161295f9060058301906020880190614489565b5087600160a060020a03168a83600019167f3bab293fc00db832d7619a9299914251b8747c036867ec056cbd506f60135b138c8b8b8b60405180858152602001806020018060200180602001848103845287818151815260200191508051906020019080838360005b838110156129e05781810151838201526020016129c8565b50505050905090810190601f168015612a0d5780820380516001836020036101000a031916815260200191505b50848103835286518152865160209182019188019080838360005b83811015612a40578181015183820152602001612a28565b50505050905090810190601f168015612a6d5780820380516001836020036101000a031916815260200191505b50848103825285518152855160209182019187019080838360005b83811015612aa0578181015183820152602001612a88565b50505050905090810190601f168015612acd5780820380516001836020036101000a031916815260200191505b5097505050505050505060405180910390a45b5050509695505050505050565b600581565b50505050565b600080612b03614507565b60055460ff1615612b1357600080fd5b600160a060020a038616301415612bb05733301415612b36576000549150612bab565b612b4261202133611f13565b15612b54576001600054039150612bab565b612b6061204733611f13565b8015612b9d57507f1d38124000000000000000000000000000000000000000000000000000000000612b9185612e53565b600160e060020a031916145b156115735760016000540391505b612c90565b600160a060020a0386161515612bc557600080fd5b33301415612bd7576001549150612c90565b612be361213a33611f13565b15612bf45760018054039150612c90565b612c0061215f33611f13565b15612c115760018054039150612c90565b612c1d61218533611f13565b8015612c83575060026000612c3133611f13565b815260208082019290925260409081016000908120600160a060020a038a168252600301909252812090612c6486612e53565b600160e060020a031916815260208101919091526040016000205460ff165b1561157357600180540391505b612c9f308787876007546141d6565b92508486600160a060020a0316847f8afcfabcb00e47a53a8fc3e9f23ff47ee1926194bb1350dd007c50b412a6cee8876040518080602001828103825283818151815260200191508051906020019080838360005b83811015612d0c578181015183820152602001612cf4565b50505050905090810190601f168015612d395780820380516001836020036101000a031916815260200191505b509250505060405180910390a45060078054600101905560408051608081018252600160a060020a03871681526020810186905290810184905260608101829052811515612d9357612d8d83826000613cdc565b50612e21565b60008381526008602090815260409182902083518154600160a060020a031916600160a060020a03909116178155838201516001820155918301518051849392612de4926002850192910190614489565b50606091909101516003909101556000838152600960209081526040822080546001810182559083529120018054600160a060020a031916331790555b50509392505050565b600781565b7f107653790000000000000000000000000000000000000000000000000000000090565b600080805b6004811015611ade57806008028482815181101515612e7357fe5b60209101015160029190910a7f0100000000000000000000000000000000000000000000000000000000000000918290049091027fff0000000000000000000000000000000000000000000000000000000000000016049190911790600101612e58565b60008060006060806060612ee96143d9565b6000888152600a6020908152604091829020825160c0810184528154815260018083015482850152600280840154600160a060020a0316838701526003840180548751601f948216156101000260001901909116929092049283018690048602820186019096528181529194929360608601939190830182828015612faf5780601f10612f8457610100808354040283529160200191612faf565b820191906000526020600020905b815481529060010190602001808311612f9257829003601f168201915b505050918352505060048201805460408051602060026001851615610100026000190190941693909304601f81018490048402820184019092528181529382019392918301828280156130435780601f1061301857610100808354040283529160200191613043565b820191906000526020600020905b81548152906001019060200180831161302657829003601f168201915b505050918352505060058201805460408051602060026001851615610100026000190190941693909304601f81018490048402820184019092528181529382019392918301828280156130d75780601f106130ac576101008083540402835291602001916130d7565b820191906000526020600020905b8154815290600101906020018083116130ba57829003601f168201915b505050919092525050506040810151909150600160a060020a031615156130fd57600080fd5b8051602082015160408301516060840151608085015160a090950151939c929b5090995097509195509350915050565b60045490565b60055460009060ff161561314657600080fd5b61314e61363a565b151561315957600080fd5b6000821161316657600080fd5b61317060016125c5565b5190508082111561318057600080fd5b50600055565b60006110f96002848463ffffffff61366c16565b60055460009081908190819060ff16156131b357600080fd5b6131c08b8b8b8b8b613ac0565b15156131cb57600080fd5b6133648b8b8b8b8b8b6040516020018087815260200186815260200185600160a060020a0316600160a060020a03166c0100000000000000000000000002815260140184805190602001908083835b602083106132395780518252601f19909201916020918201910161321a565b51815160209384036101000a600019018019909216911617905286519190930192860191508083835b602083106132815780518252601f199092019160209182019101613262565b51815160209384036101000a600019018019909216911617905285519190930192850191508083835b602083106132c95780518252601f1990920191602091820191016132aa565b6001836020036101000a03801982511681845116808217855250505050505090500196505050505050506040516020818303038152906040526040518082805190602001908083835b602083106133315780518252601f199092019160209182019101613312565b6001836020036101000a0380198251168184511680821785525050505050509050019150506040518091039020866111cd565b925061337261202184611f13565b151561337d57600080fd5b613387898c610f53565b6000818152600a6020526040902060020154909250600160a060020a031615156133bf576133ba828c8c8c8c8c8c613f5e565b61359a565b506000818152600a60209081526040909120600181018b9055885190916133ed9160038401918b0190614489565b50865161340390600483019060208a0190614489565b5085516134199060058301906020890190614489565b5088600160a060020a03168b83600019167f3bab293fc00db832d7619a9299914251b8747c036867ec056cbd506f60135b138d8c8c8c60405180858152602001806020018060200180602001848103845287818151815260200191508051906020019080838360005b8381101561349a578181015183820152602001613482565b50505050905090810190601f1680156134c75780820380516001836020036101000a031916815260200191505b50848103835286518152865160209182019188019080838360005b838110156134fa5781810151838201526020016134e2565b50505050905090810190601f1680156135275780820380516001836020036101000a031916815260200191505b50848103825285518152855160209182019187019080838360005b8381101561355a578181015183820152602001613542565b50505050905090810190601f1680156135875780820380516001836020036101000a031916815260200191505b5097505050505050505060405180910390a45b505050979650505050505050565b60055460009060ff16156135bb57600080fd5b6135c361363a565b15156135ce57600080fd5b600082116135db57600080fd5b6135e560026125c5565b519050808211156135f557600080fd5b50600155565b600681565b61360861363a565b151561361357600080fd5b600160a060020a038116151561362857600080fd5b80600160a060020a0316ff5b600c5481565b60003330141561364c57506001610ea1565b60005460011461365b57600080fd5b61366761202133611f13565b905090565b60006136766143b9565b60008481526020868152604080832081518154608094810282018501909352606081018381529093919284928491908401828280156136d457602002820191906000526020600020905b8154815260200190600101908083116136c0575b50505091835250506001820154602082015260029091015460409182015281015190925015156137075760009250612e21565b5060005b815151811015612e2157815180518591908390811061372657fe5b90602001906020020151141561373f5760019250612e21565b60010161370b565b61375a600284848463ffffffff6142fc16565b6040518190839085907f480000bb1edad8ca1470381cc334b1917fbd51c6531f3a623ea8e0ec7e38a6e990600090a4505050565b600080600080845160411415156137a857600093506124fb565b50505060208201516040830151606084015160001a601b60ff821610156137cd57601b015b8060ff16601b141580156137e557508060ff16601c14155b156137f357600093506124fb565b60408051600080825260208083018085528a905260ff8516838501526060830187905260808301869052925160019360a0808501949193601f19840193928390039091019190865af115801561384d573d6000803e3d6000fd5b5050506020604051035193506124fb565b6000808061388c857f01ffc9a70000000000000000000000000000000000000000000000000000000061436d565b909250905081158061389c575080155b156138aa576000925061390d565b6138bc85600160e060020a031961436d565b90925090508115806138cd57508015155b156138db576000925061390d565b6138e5858561436d565b90925090506001821480156138fa5750806001145b15613908576001925061390d565b600092505b505092915050565b6000828152602084905260408120600181015491805b82548210156139d55784838381548110151561394357fe5b906000526020600020015414156139ca5782548390600019810190811061396657fe5b9060005260206000200154838381548110151561397f57fe5b60009182526020909120015582548390600019810190811061399d57fe5b600091825260208220015582546139b8846000198301614460565b506002870180546000190190556139d5565b60019091019061392b565b82541515613a07576000868152602088905260408120906139f68282614539565b506000600182018190556002909101555b5050600083815260018601602052604081205b8054821015613ab65780548690829084908110613a3357fe5b6000918252602090912001541415613aab57805481906000198101908110613a5757fe5b90600052602060002001548183815481101515613a7057fe5b600091825260209091200155805481906000198101908110613a8e57fe5b60009182526020822001558054613aa9826000198301614460565b505b600190910190613a1a565b5050509392505050565b6000806001861415613bee57613ae0613ada308986611000565b856111cd565b905080600160a060020a031685600160a060020a03161415613b055760019150613bf3565b600160a060020a038516301415613b3957613b32613b2282611f13565b600290600363ffffffff61366c16565b9150613bf3565b613b5a613b44612546565b600160a060020a0387169063ffffffff61385e16565b15613bee5784600160a060020a031663d202158d613b7783611f13565b6040805160e060020a63ffffffff85160281526004810192909252600360248301525160448083019260209291908290030181600087803b158015613bbb57600080fd5b505af1158015613bcf573d6000803e3d6000fd5b505050506040513d6020811015613be557600080fd5b50519150613bf3565b600091505b5095945050505050565b6000613c076143b9565b6000838152602085815260409182902082518154608093810282018401909452606081018481529093919284928491840182828015613c6557602002820191906000526020600020905b815481526020019060010190808311613c51575b50505091835250506001820154602082015260029091015460409182015201511515949350505050565b600093845260209485526040808520600160a060020a03909416855260039093018552828420600160e060020a0319909216845293528120805492151560ff199093169290921790915590565b81516000908190600160a060020a03161515613cf757600080fd5b8360000151600160a060020a03168460200151856040015160405180828051906020019080838360005b83811015613d39578181015183820152602001613d21565b50505050905090810190601f168015613d665780820380516001836020036101000a031916815260200191505b5091505060006040518083038185875af1925050509050801515613e3e5783602001518460000151600160a060020a0316867fe10c49d9f7c71da23262367013434763cfdb2332267641728d25cd712c5c6a6887604001516040518080602001828103825283818151815260200191508051906020019080838360005b83811015613dfb578181015183820152602001613de3565b50505050905090810190601f168015613e285780820380516001836020036101000a031916815260200191505b509250505060405180910390a460009150613f56565b83602001518460000151600160a060020a0316867f1f920dbda597d7bf95035464170fa58d0a4b57f13a1c315ace6793b9f63688b887604001516040518080602001828103825283818151815260200191508051906020019080838360005b83811015613eb5578181015183820152602001613e9d565b50505050905090810190601f168015613ee25780820380516001836020036101000a031916815260200191505b509250505060405180910390a4821515613eff5760019150613f56565b60008581526008602052604081208054600160a060020a03191681556001810182905590613f306002830182614419565b506000600391909101819055858152600960205260408120613f5191614539565b600191505b509392505050565b6040805160c0810182528781526020808201888152600160a060020a03888116848601908152606085018981526080860189905260a0860188905260008e8152600a865296909620855181559251600184015551600283018054600160a060020a0319169190921617905592518051929392613fe09260038501920190614489565b5060808201518051613ffc916004840191602090910190614489565b5060a08201518051614018916005840191602090910190614489565b5050506000868152600b60209081526040808320805460018181018355918552838520018b9055600c80549091019055805188815260808184018181528851918301919091528751600160a060020a038a16958c958e957f46149b18aa084502c3f12bc75e19eda8bda8d102b82cce8474677a6d0d5f43c5958e958d958d958d959394929392850192606086019260a0870192918a01918190849084905b838110156140ce5781810151838201526020016140b6565b50505050905090810190601f1680156140fb5780820380516001836020036101000a031916815260200191505b50848103835286518152865160209182019188019080838360005b8381101561412e578181015183820152602001614116565b50505050905090810190601f16801561415b5780820380516001836020036101000a031916815260200191505b50848103825285518152855160209182019187019080838360005b8381101561418e578181015183820152602001614176565b50505050905090810190601f1680156141bb5780820380516001836020036101000a031916815260200191505b5097505050505050505060405180910390a450505050505050565b600085858585856040516020018086600160a060020a0316600160a060020a03166c0100000000000000000000000002815260140185600160a060020a0316600160a060020a03166c0100000000000000000000000002815260140184815260200183805190602001908083835b602083106142635780518252601f199092019160209182019101614244565b51815160209384036101000a600019018019909216911617905292019384525060408051808503815293820190819052835193975095508594508601925081905083835b602083106142c65780518252601f1990920191602091820191016142a7565b5181516020939093036101000a600019018019909116921691909117905260405192018290039091209998505050505050505050565b600083815260208581526040822080546001810182558184529190922001839055600281015415156143375760028101849055600181018290555b50506000908152600180840160209081526040832080548084018255908452922090910191909155600290910180549091019055565b6040517f01ffc9a70000000000000000000000000000000000000000000000000000000080825260048201839052600091829190602081818189617530fa905190969095509350505050565b604080516060818101835281526000602082018190529181019190915290565b60c06040519081016040528060008152602001600081526020016000600160a060020a031681526020016060815260200160608152602001606081525090565b50805460018160011615610100020316600290046000825580601f1061443f575061445d565b601f01602090049060005260206000209081019061445d9190614553565b50565b81548183558181111561448457600083815260209020614484918101908301614553565b505050565b828054600181600116156101000203166002900490600052602060002090601f016020900481019282601f106144ca57805160ff19168380011785556144f7565b828001600101855582156144f7579182015b828111156144f75782518255916020019190600101906144dc565b50614503929150614553565b5090565b6080604051908101604052806000600160a060020a031681526020016000815260200160608152602001600081525090565b508054600082559060005260206000209081019061445d91905b610ea191905b8082111561450357600081556001016145595600a165627a7a723058202a67a6dfb11eac2575110ee1ac4e6657150e6fc22d399993cf7a828e77cf17780029a165627a7a72305820ae88a3b32b59a2abb8b8497178591ff576a599433b5ada724558a546258a425d0029",
  "source": "pragma solidity ^0.4.24;\n\nimport \"./openzeppelin-solidity/contracts/ownership/Ownable.sol\";\nimport \"./identity/MetaIdentity.sol\";\nimport \"./RegistryUser.sol\";\n\ncontract IdentityManager is RegistryUser {\n    //Hold the list of MetaIds\n    //CreateMetaId\n    // event\n    address[] public metaIds;\n    mapping(address=>bool) metaIdExistence;\n\n    function IdentityManager() public {\n        THIS_NAME = \"IdentityManager\";\n    }\n    function createMetaId(address _managementKey) permissioned public returns (bool) {\n        address newMetaId = new MetaIdentity(_managementKey);\n        metaIds.push(newMetaId);\n        metaIdExistence[newMetaId] = true;\n        //give reward to newMetaId\n\n        //give first achievement to new MetaId\n\n    }\n\n    function getDeployedMetaIds() public view returns(address[]) {\n        return metaIds;\n    }\n    function isMetaId(address _addr) public view returns(bool) {\n        return metaIdExistence[_addr];\n    }\n    function getLengthOfMetaIds() public view returns(uint256) {\n        return metaIds.length;\n    }\n}",
  "sourcePath": "/Users/coinplug/BangGijin/metabolics2.0/contracts/IdentityManager.sol",
  "compiler": {
    "name": "solc",
    "version": "0.4.24+commit.e67f0147.Emscripten.clang"
  },
  "schemaVersion": "2.0.1",
  "updatedAt": "2018-10-10T08:44:25.066Z"
}