{
  "contractName": "Identity",
  "abi": [
    {
      "constant": true,
      "inputs": [
        {
          "name": "interfaceID",
          "type": "bytes4"
        }
      ],
      "name": "supportsInterface",
      "outputs": [
        {
          "name": "",
          "type": "bool"
        }
      ],
      "payable": false,
      "stateMutability": "view",
      "type": "function"
    },
    {
      "constant": true,
      "inputs": [],
      "name": "ERC165ID",
      "outputs": [
        {
          "name": "",
          "type": "bytes4"
        }
      ],
      "payable": false,
      "stateMutability": "pure",
      "type": "function"
    },
    {
      "constant": true,
      "inputs": [],
      "name": "REGISTRY_TOPIC",
      "outputs": [
        {
          "name": "",
          "type": "uint256"
        }
      ],
      "payable": false,
      "stateMutability": "view",
      "type": "function"
    },
    {
      "constant": true,
      "inputs": [],
      "name": "MANAGEMENT_KEY",
      "outputs": [
        {
          "name": "",
          "type": "uint256"
        }
      ],
      "payable": false,
      "stateMutability": "view",
      "type": "function"
    },
    {
      "constant": true,
      "inputs": [
        {
          "name": "_key",
          "type": "bytes32"
        }
      ],
      "name": "getKey",
      "outputs": [
        {
          "name": "purposes",
          "type": "uint256[]"
        },
        {
          "name": "keyType",
          "type": "uint256"
        },
        {
          "name": "key",
          "type": "bytes32"
        }
      ],
      "payable": false,
      "stateMutability": "view",
      "type": "function"
    },
    {
      "constant": true,
      "inputs": [
        {
          "name": "issuer",
          "type": "address"
        },
        {
          "name": "topic",
          "type": "uint256"
        }
      ],
      "name": "getClaimId",
      "outputs": [
        {
          "name": "",
          "type": "bytes32"
        }
      ],
      "payable": false,
      "stateMutability": "pure",
      "type": "function"
    },
    {
      "constant": true,
      "inputs": [
        {
          "name": "subject",
          "type": "address"
        },
        {
          "name": "topic",
          "type": "uint256"
        },
        {
          "name": "data",
          "type": "bytes"
        }
      ],
      "name": "claimToSign",
      "outputs": [
        {
          "name": "",
          "type": "bytes32"
        }
      ],
      "payable": false,
      "stateMutability": "pure",
      "type": "function"
    },
    {
      "constant": false,
      "inputs": [
        {
          "name": "_key",
          "type": "bytes32"
        },
        {
          "name": "_purpose",
          "type": "uint256"
        },
        {
          "name": "_keyType",
          "type": "uint256"
        }
      ],
      "name": "addKey",
      "outputs": [
        {
          "name": "success",
          "type": "bool"
        }
      ],
      "payable": false,
      "stateMutability": "nonpayable",
      "type": "function"
    },
    {
      "constant": true,
      "inputs": [],
      "name": "CONTRACT_SCHEME",
      "outputs": [
        {
          "name": "",
          "type": "uint256"
        }
      ],
      "payable": false,
      "stateMutability": "view",
      "type": "function"
    },
    {
      "constant": true,
      "inputs": [
        {
          "name": "_topic",
          "type": "uint256"
        }
      ],
      "name": "getClaimIdsByType",
      "outputs": [
        {
          "name": "claimIds",
          "type": "bytes32[]"
        }
      ],
      "payable": false,
      "stateMutability": "view",
      "type": "function"
    },
    {
      "constant": true,
      "inputs": [],
      "name": "RSA_TYPE",
      "outputs": [
        {
          "name": "",
          "type": "uint256"
        }
      ],
      "payable": false,
      "stateMutability": "view",
      "type": "function"
    },
    {
      "constant": true,
      "inputs": [],
      "name": "actionThreshold",
      "outputs": [
        {
          "name": "",
          "type": "uint256"
        }
      ],
      "payable": false,
      "stateMutability": "view",
      "type": "function"
    },
    {
      "constant": true,
      "inputs": [
        {
          "name": "toSign",
          "type": "bytes32"
        },
        {
          "name": "signature",
          "type": "bytes"
        }
      ],
      "name": "getSignatureAddress",
      "outputs": [
        {
          "name": "",
          "type": "address"
        }
      ],
      "payable": false,
      "stateMutability": "pure",
      "type": "function"
    },
    {
      "constant": false,
      "inputs": [],
      "name": "unpause",
      "outputs": [],
      "payable": false,
      "stateMutability": "nonpayable",
      "type": "function"
    },
    {
      "constant": true,
      "inputs": [],
      "name": "ECDSA_TYPE",
      "outputs": [
        {
          "name": "",
          "type": "uint256"
        }
      ],
      "payable": false,
      "stateMutability": "view",
      "type": "function"
    },
    {
      "constant": false,
      "inputs": [
        {
          "name": "_claimId",
          "type": "bytes32"
        }
      ],
      "name": "removeClaim",
      "outputs": [
        {
          "name": "success",
          "type": "bool"
        }
      ],
      "payable": false,
      "stateMutability": "nonpayable",
      "type": "function"
    },
    {
      "constant": false,
      "inputs": [
        {
          "name": "_key",
          "type": "bytes32"
        },
        {
          "name": "_purpose",
          "type": "uint256"
        }
      ],
      "name": "removeKey",
      "outputs": [
        {
          "name": "success",
          "type": "bool"
        }
      ],
      "payable": false,
      "stateMutability": "nonpayable",
      "type": "function"
    },
    {
      "constant": true,
      "inputs": [],
      "name": "paused",
      "outputs": [
        {
          "name": "",
          "type": "bool"
        }
      ],
      "payable": false,
      "stateMutability": "view",
      "type": "function"
    },
    {
      "constant": false,
      "inputs": [
        {
          "name": "_claimId",
          "type": "bytes32"
        }
      ],
      "name": "refreshClaim",
      "outputs": [
        {
          "name": "",
          "type": "bool"
        }
      ],
      "payable": false,
      "stateMutability": "nonpayable",
      "type": "function"
    },
    {
      "constant": true,
      "inputs": [
        {
          "name": "",
          "type": "uint256"
        }
      ],
      "name": "execution",
      "outputs": [
        {
          "name": "to",
          "type": "address"
        },
        {
          "name": "value",
          "type": "uint256"
        },
        {
          "name": "data",
          "type": "bytes"
        },
        {
          "name": "needsApprove",
          "type": "uint256"
        }
      ],
      "payable": false,
      "stateMutability": "view",
      "type": "function"
    },
    {
      "constant": true,
      "inputs": [
        {
          "name": "addr",
          "type": "address"
        }
      ],
      "name": "addrToKey",
      "outputs": [
        {
          "name": "",
          "type": "bytes32"
        }
      ],
      "payable": false,
      "stateMutability": "pure",
      "type": "function"
    },
    {
      "constant": true,
      "inputs": [
        {
          "name": "",
          "type": "uint256"
        },
        {
          "name": "",
          "type": "uint256"
        }
      ],
      "name": "approved",
      "outputs": [
        {
          "name": "",
          "type": "address"
        }
      ],
      "payable": false,
      "stateMutability": "view",
      "type": "function"
    },
    {
      "constant": true,
      "inputs": [],
      "name": "METAID_TOPIC",
      "outputs": [
        {
          "name": "",
          "type": "uint256"
        }
      ],
      "payable": false,
      "stateMutability": "view",
      "type": "function"
    },
    {
      "constant": false,
      "inputs": [
        {
          "name": "_id",
          "type": "uint256"
        },
        {
          "name": "_approve",
          "type": "bool"
        }
      ],
      "name": "approve",
      "outputs": [
        {
          "name": "success",
          "type": "bool"
        }
      ],
      "payable": false,
      "stateMutability": "nonpayable",
      "type": "function"
    },
    {
      "constant": true,
      "inputs": [],
      "name": "ACTION_KEY",
      "outputs": [
        {
          "name": "",
          "type": "uint256"
        }
      ],
      "payable": false,
      "stateMutability": "view",
      "type": "function"
    },
    {
      "constant": true,
      "inputs": [],
      "name": "ERC725ID",
      "outputs": [
        {
          "name": "",
          "type": "bytes4"
        }
      ],
      "payable": false,
      "stateMutability": "pure",
      "type": "function"
    },
    {
      "constant": true,
      "inputs": [],
      "name": "ECDSA_SCHEME",
      "outputs": [
        {
          "name": "",
          "type": "uint256"
        }
      ],
      "payable": false,
      "stateMutability": "view",
      "type": "function"
    },
    {
      "constant": false,
      "inputs": [],
      "name": "pause",
      "outputs": [],
      "payable": false,
      "stateMutability": "nonpayable",
      "type": "function"
    },
    {
      "constant": true,
      "inputs": [
        {
          "name": "_purpose",
          "type": "uint256"
        }
      ],
      "name": "getKeysByPurpose",
      "outputs": [
        {
          "name": "keys",
          "type": "bytes32[]"
        }
      ],
      "payable": false,
      "stateMutability": "view",
      "type": "function"
    },
    {
      "constant": true,
      "inputs": [],
      "name": "ENCRYPTION_KEY",
      "outputs": [
        {
          "name": "",
          "type": "uint256"
        }
      ],
      "payable": false,
      "stateMutability": "view",
      "type": "function"
    },
    {
      "constant": true,
      "inputs": [],
      "name": "RESIDENCE_TOPIC",
      "outputs": [
        {
          "name": "",
          "type": "uint256"
        }
      ],
      "payable": false,
      "stateMutability": "view",
      "type": "function"
    },
    {
      "constant": true,
      "inputs": [],
      "name": "managementThreshold",
      "outputs": [
        {
          "name": "",
          "type": "uint256"
        }
      ],
      "payable": false,
      "stateMutability": "view",
      "type": "function"
    },
    {
      "constant": true,
      "inputs": [],
      "name": "PROFILE_TOPIC",
      "outputs": [
        {
          "name": "",
          "type": "uint256"
        }
      ],
      "payable": false,
      "stateMutability": "view",
      "type": "function"
    },
    {
      "constant": true,
      "inputs": [],
      "name": "nonce",
      "outputs": [
        {
          "name": "",
          "type": "uint256"
        }
      ],
      "payable": false,
      "stateMutability": "view",
      "type": "function"
    },
    {
      "constant": true,
      "inputs": [],
      "name": "CUSTOM_KEY",
      "outputs": [
        {
          "name": "",
          "type": "uint256"
        }
      ],
      "payable": false,
      "stateMutability": "view",
      "type": "function"
    },
    {
      "constant": false,
      "inputs": [
        {
          "name": "_topic",
          "type": "uint256"
        },
        {
          "name": "_scheme",
          "type": "uint256"
        },
        {
          "name": "issuer",
          "type": "address"
        },
        {
          "name": "_signature",
          "type": "bytes"
        },
        {
          "name": "_data",
          "type": "bytes"
        },
        {
          "name": "_uri",
          "type": "string"
        }
      ],
      "name": "addClaim",
      "outputs": [
        {
          "name": "claimRequestId",
          "type": "uint256"
        }
      ],
      "payable": false,
      "stateMutability": "nonpayable",
      "type": "function"
    },
    {
      "constant": true,
      "inputs": [],
      "name": "LABEL_TOPIC",
      "outputs": [
        {
          "name": "",
          "type": "uint256"
        }
      ],
      "payable": false,
      "stateMutability": "view",
      "type": "function"
    },
    {
      "constant": false,
      "inputs": [
        {
          "name": "_to",
          "type": "address"
        },
        {
          "name": "_value",
          "type": "uint256"
        },
        {
          "name": "_data",
          "type": "bytes"
        }
      ],
      "name": "execute",
      "outputs": [
        {
          "name": "executionId",
          "type": "uint256"
        }
      ],
      "payable": false,
      "stateMutability": "nonpayable",
      "type": "function"
    },
    {
      "constant": true,
      "inputs": [],
      "name": "RESTORE_KEY",
      "outputs": [
        {
          "name": "",
          "type": "uint256"
        }
      ],
      "payable": false,
      "stateMutability": "view",
      "type": "function"
    },
    {
      "constant": true,
      "inputs": [],
      "name": "ERC735ID",
      "outputs": [
        {
          "name": "",
          "type": "bytes4"
        }
      ],
      "payable": false,
      "stateMutability": "pure",
      "type": "function"
    },
    {
      "constant": true,
      "inputs": [],
      "name": "CLAIM_SIGNER_KEY",
      "outputs": [
        {
          "name": "",
          "type": "uint256"
        }
      ],
      "payable": false,
      "stateMutability": "view",
      "type": "function"
    },
    {
      "constant": true,
      "inputs": [
        {
          "name": "_claimId",
          "type": "bytes32"
        }
      ],
      "name": "getClaim",
      "outputs": [
        {
          "name": "topic",
          "type": "uint256"
        },
        {
          "name": "scheme",
          "type": "uint256"
        },
        {
          "name": "issuer",
          "type": "address"
        },
        {
          "name": "signature",
          "type": "bytes"
        },
        {
          "name": "data",
          "type": "bytes"
        },
        {
          "name": "uri",
          "type": "string"
        }
      ],
      "payable": false,
      "stateMutability": "view",
      "type": "function"
    },
    {
      "constant": true,
      "inputs": [],
      "name": "numKeys",
      "outputs": [
        {
          "name": "",
          "type": "uint256"
        }
      ],
      "payable": false,
      "stateMutability": "view",
      "type": "function"
    },
    {
      "constant": false,
      "inputs": [
        {
          "name": "threshold",
          "type": "uint256"
        }
      ],
      "name": "changeManagementThreshold",
      "outputs": [],
      "payable": false,
      "stateMutability": "nonpayable",
      "type": "function"
    },
    {
      "constant": true,
      "inputs": [
        {
          "name": "_key",
          "type": "bytes32"
        },
        {
          "name": "purpose",
          "type": "uint256"
        }
      ],
      "name": "keyHasPurpose",
      "outputs": [
        {
          "name": "exists",
          "type": "bool"
        }
      ],
      "payable": false,
      "stateMutability": "view",
      "type": "function"
    },
    {
      "constant": true,
      "inputs": [],
      "name": "ASSIST_KEY",
      "outputs": [
        {
          "name": "",
          "type": "uint256"
        }
      ],
      "payable": false,
      "stateMutability": "view",
      "type": "function"
    },
    {
      "constant": false,
      "inputs": [
        {
          "name": "_topic",
          "type": "uint256"
        },
        {
          "name": "_scheme",
          "type": "uint256"
        },
        {
          "name": "issuer",
          "type": "address"
        },
        {
          "name": "_signature",
          "type": "bytes"
        },
        {
          "name": "_data",
          "type": "bytes"
        },
        {
          "name": "_uri",
          "type": "string"
        },
        {
          "name": "_idSignature",
          "type": "bytes"
        }
      ],
      "name": "addClaimByProxy",
      "outputs": [
        {
          "name": "claimRequestId",
          "type": "uint256"
        }
      ],
      "payable": false,
      "stateMutability": "nonpayable",
      "type": "function"
    },
    {
      "constant": false,
      "inputs": [
        {
          "name": "threshold",
          "type": "uint256"
        }
      ],
      "name": "changeActionThreshold",
      "outputs": [],
      "payable": false,
      "stateMutability": "nonpayable",
      "type": "function"
    },
    {
      "constant": true,
      "inputs": [],
      "name": "DELEGATE_KEY",
      "outputs": [
        {
          "name": "",
          "type": "uint256"
        }
      ],
      "payable": false,
      "stateMutability": "view",
      "type": "function"
    },
    {
      "constant": true,
      "inputs": [],
      "name": "RSA_SCHEME",
      "outputs": [
        {
          "name": "",
          "type": "uint256"
        }
      ],
      "payable": false,
      "stateMutability": "view",
      "type": "function"
    },
    {
      "constant": false,
      "inputs": [
        {
          "name": "_recipient",
          "type": "address"
        }
      ],
      "name": "destroyAndSend",
      "outputs": [],
      "payable": false,
      "stateMutability": "nonpayable",
      "type": "function"
    },
    {
      "constant": true,
      "inputs": [],
      "name": "numClaims",
      "outputs": [
        {
          "name": "",
          "type": "uint256"
        }
      ],
      "payable": false,
      "stateMutability": "view",
      "type": "function"
    },
    {
      "inputs": [
        {
          "name": "_keys",
          "type": "bytes32[]"
        },
        {
          "name": "_purposes",
          "type": "uint256[]"
        },
        {
          "name": "_managementThreshold",
          "type": "uint256"
        },
        {
          "name": "_actionThreshold",
          "type": "uint256"
        },
        {
          "name": "_issuers",
          "type": "address[]"
        },
        {
          "name": "_topics",
          "type": "uint256[]"
        },
        {
          "name": "_signatures",
          "type": "bytes"
        },
        {
          "name": "_datas",
          "type": "bytes"
        },
        {
          "name": "_uris",
          "type": "string"
        },
        {
          "name": "_sizes",
          "type": "uint8[]"
        }
      ],
      "payable": false,
      "stateMutability": "nonpayable",
      "type": "constructor"
    },
    {
      "payable": true,
      "stateMutability": "payable",
      "type": "fallback"
    },
    {
      "anonymous": false,
      "inputs": [
        {
          "indexed": true,
          "name": "claimRequestId",
          "type": "uint256"
        },
        {
          "indexed": true,
          "name": "topic",
          "type": "uint256"
        },
        {
          "indexed": false,
          "name": "scheme",
          "type": "uint256"
        },
        {
          "indexed": true,
          "name": "issuer",
          "type": "address"
        },
        {
          "indexed": false,
          "name": "signature",
          "type": "bytes"
        },
        {
          "indexed": false,
          "name": "data",
          "type": "bytes"
        },
        {
          "indexed": false,
          "name": "uri",
          "type": "string"
        }
      ],
      "name": "ClaimRequested",
      "type": "event"
    },
    {
      "anonymous": false,
      "inputs": [
        {
          "indexed": true,
          "name": "claimId",
          "type": "bytes32"
        },
        {
          "indexed": true,
          "name": "topic",
          "type": "uint256"
        },
        {
          "indexed": false,
          "name": "scheme",
          "type": "uint256"
        },
        {
          "indexed": true,
          "name": "issuer",
          "type": "address"
        },
        {
          "indexed": false,
          "name": "signature",
          "type": "bytes"
        },
        {
          "indexed": false,
          "name": "data",
          "type": "bytes"
        },
        {
          "indexed": false,
          "name": "uri",
          "type": "string"
        }
      ],
      "name": "ClaimAdded",
      "type": "event"
    },
    {
      "anonymous": false,
      "inputs": [
        {
          "indexed": true,
          "name": "claimId",
          "type": "bytes32"
        },
        {
          "indexed": true,
          "name": "topic",
          "type": "uint256"
        },
        {
          "indexed": false,
          "name": "scheme",
          "type": "uint256"
        },
        {
          "indexed": true,
          "name": "issuer",
          "type": "address"
        },
        {
          "indexed": false,
          "name": "signature",
          "type": "bytes"
        },
        {
          "indexed": false,
          "name": "data",
          "type": "bytes"
        },
        {
          "indexed": false,
          "name": "uri",
          "type": "string"
        }
      ],
      "name": "ClaimRemoved",
      "type": "event"
    },
    {
      "anonymous": false,
      "inputs": [
        {
          "indexed": true,
          "name": "claimId",
          "type": "bytes32"
        },
        {
          "indexed": true,
          "name": "topic",
          "type": "uint256"
        },
        {
          "indexed": false,
          "name": "scheme",
          "type": "uint256"
        },
        {
          "indexed": true,
          "name": "issuer",
          "type": "address"
        },
        {
          "indexed": false,
          "name": "signature",
          "type": "bytes"
        },
        {
          "indexed": false,
          "name": "data",
          "type": "bytes"
        },
        {
          "indexed": false,
          "name": "uri",
          "type": "string"
        }
      ],
      "name": "ClaimChanged",
      "type": "event"
    },
    {
      "anonymous": false,
      "inputs": [
        {
          "indexed": true,
          "name": "key",
          "type": "bytes32"
        },
        {
          "indexed": true,
          "name": "purpose",
          "type": "uint256"
        },
        {
          "indexed": true,
          "name": "keyType",
          "type": "uint256"
        }
      ],
      "name": "KeyAdded",
      "type": "event"
    },
    {
      "anonymous": false,
      "inputs": [
        {
          "indexed": true,
          "name": "key",
          "type": "bytes32"
        },
        {
          "indexed": true,
          "name": "purpose",
          "type": "uint256"
        },
        {
          "indexed": true,
          "name": "keyType",
          "type": "uint256"
        }
      ],
      "name": "KeyRemoved",
      "type": "event"
    },
    {
      "anonymous": false,
      "inputs": [
        {
          "indexed": true,
          "name": "executionId",
          "type": "uint256"
        },
        {
          "indexed": true,
          "name": "to",
          "type": "address"
        },
        {
          "indexed": true,
          "name": "value",
          "type": "uint256"
        },
        {
          "indexed": false,
          "name": "data",
          "type": "bytes"
        }
      ],
      "name": "ExecutionRequested",
      "type": "event"
    },
    {
      "anonymous": false,
      "inputs": [
        {
          "indexed": true,
          "name": "executionId",
          "type": "uint256"
        },
        {
          "indexed": true,
          "name": "to",
          "type": "address"
        },
        {
          "indexed": true,
          "name": "value",
          "type": "uint256"
        },
        {
          "indexed": false,
          "name": "data",
          "type": "bytes"
        }
      ],
      "name": "Executed",
      "type": "event"
    },
    {
      "anonymous": false,
      "inputs": [
        {
          "indexed": true,
          "name": "executionId",
          "type": "uint256"
        },
        {
          "indexed": false,
          "name": "approved",
          "type": "bool"
        }
      ],
      "name": "Approved",
      "type": "event"
    },
    {
      "anonymous": false,
      "inputs": [
        {
          "indexed": true,
          "name": "executionId",
          "type": "uint256"
        },
        {
          "indexed": true,
          "name": "to",
          "type": "address"
        },
        {
          "indexed": true,
          "name": "value",
          "type": "uint256"
        },
        {
          "indexed": false,
          "name": "data",
          "type": "bytes"
        }
      ],
      "name": "ExecutionFailed",
      "type": "event"
    },
    {
      "anonymous": false,
      "inputs": [],
      "name": "LogPause",
      "type": "event"
    },
    {
      "anonymous": false,
      "inputs": [],
      "name": "LogUnpause",
      "type": "event"
    }
  ],
  "bytecode": "0x6080604052600160008190558080556005805460ff191690556007553480156200002857600080fd5b50604051620054173803806200541783398101604090815281516020830151918301516060840151608085015160a086015160c087015160e08801516101008901516101208a0151978a01999889019896979596948501959385019492830193918301929081019101600160066000620000aa6401000000006200027f810204565b7fffffffff0000000000000000000000000000000000000000000000000000000016815260208101919091526040016000908120805460ff19169215159290921790915560019060069062000107640100000000620002a4810204565b7fffffffff0000000000000000000000000000000000000000000000000000000016815260208101919091526040016000908120805460ff19169215159290921790915560019060069062000164640100000000620002c8810204565b7fffffffff000000000000000000000000000000000000000000000000000000001681526020810191909152604001600020805460ff1916911515919091179055620001ba8a8a640100000000620002ec810204565b620001d0868683640100000000620003cc810204565b620001e78a8a8a8a640100000000620004df810204565b620002008686868686866401000000006200065f810204565b60016006600062000219640100000000620002c8810204565b6200022c640100000000620002a4810204565b187fffffffff000000000000000000000000000000000000000000000000000000001681526020810191909152604001600020805460ff1916911515919091179055506200159398505050505050505050565b7f01ffc9a7000000000000000000000000000000000000000000000000000000005b90565b7fdc3d2a7b0000000000000000000000000000000000000000000000000000000090565b7f107653790000000000000000000000000000000000000000000000000000000090565b600080825184511415156200030057600080fd5b600191505b8351821015620003c65783600183038151811015156200032157fe5b906020019060200201519050806000191684838151811015156200034157fe5b602090810290910101511180620003ae5750835181908590849081106200036457fe5b60209081029091010151148015620003ae575082600183038151811015156200038957fe5b906020019060200201518383815181101515620003a257fe5b90602001906020020151115b1515620003ba57600080fd5b60019091019062000305565b50505050565b60008083518551141515620003e057600080fd5b8251845160030214620003f257600080fd5b600191505b8451821015620004d85784600183038151811015156200041357fe5b90602001906020020151905080600160a060020a031685838151811015156200043857fe5b90602001906020020151600160a060020a0316141580620004c0575080600160a060020a031685838151811015156200046d57fe5b90602001906020020151600160a060020a0316148015620004c0575083600183038151811015156200049b57fe5b906020019060200201518483815181101515620004b457fe5b90602001906020020151115b1515620004cc57600080fd5b600190910190620003f7565b5050505050565b6000806000808751600014156200055b576200050433640100000000620008c7810204565b91506200051d82600180640100000000620008d3810204565b620005358260026001640100000000620008d3810204565b6200054d8260036001640100000000620008d3810204565b600193506001925062000616565b5060005b87518110156200061657620005b688828151811015156200057c57fe5b9060200190602002015188838151811015156200059557fe5b906020019060200201516001620008d3640100000000026401000000009004565b60018782815181101515620005c757fe5b906020019060200201511415620005e4576001909201916200060d565b60028782815181101515620005f557fe5b9060200190602002015114156200060d576001909301925b6001016200055f565b600086116200062457600080fd5b828611156200063257600080fd5b600085116200064057600080fd5b838511156200064e57600080fd5b505050600092909255600155505050565b62000669620014b2565b60608060005b8951811015620008bb5783518551620006b491908790600385029081106200069357fe5b602090810290910101518a919064010000000062003d346200092482021704565b9250620006f884600160200201518683600302600101815181101515620006d757fe5b6020908102909101015189919064010000000062003d346200092482021704565b91506200074989828151811015156200070d57fe5b9060200190602002015160018c848151811015156200072857fe5b90602001906020020151868662000a10640100000000026401000000009004565b15156200075557600080fd5b6200082b620007a48b838151811015156200076c57fe5b906020019060200201518b848151811015156200078557fe5b9060200190602002015162000bbb640100000000026401000000009004565b8a83815181101515620007b357fe5b9060200190602002015160018d85815181101515620007ce57fe5b6020908102909101015187876200081c8b600260200201518d8a600302600201815181101515620007fb57fe5b602090810290910101518f919064010000000062003e3362000c6a82021704565b64010000000062000c8a810204565b84816003028151811015156200083d57fe5b6020908102919091010151845160ff90911601845284518590600383026001019081106200086757fe5b6020908102909101015160ff16846001602002018051909101905284518590600260038402019081106200089757fe5b6020908102909101015160ff1684600260200201805190910190526001016200066f565b50505050505050505050565b600160a060020a031690565b620008f0600284848464010000000062003ac362000f1182021704565b6040518190839085907f480000bb1edad8ca1470381cc334b1917fbd51c6531f3a623ea8e0ec7e38a6e990600090a4505050565b6060806000808460ff166040519080825280601f01601f1916602001820160405280156200095c578160200160208202803883390190505b509250600091508590505b8460ff16860181101562000a055786818151811015156200098457fe5b9060200101517f010000000000000000000000000000000000000000000000000000000000000090047f0100000000000000000000000000000000000000000000000000000000000000028383806001019450815181101515620009e457fe5b906020010190600160f860020a031916908160001a90535060010162000967565b509095945050505050565b600080600186141562000bac5762000a4762000a3730898664010000000062000f83810204565b8564010000000062001084810204565b905080600160a060020a031685600160a060020a0316141562000a6e576001915062000bb1565b600160a060020a03851630141562000ab95762000ab162000a9882640100000000620008c7810204565b600290600364010000000062002f13620011a282021704565b915062000bb1565b62000aef62000ad0640100000000620002a4810204565b600160a060020a038716906401000000006200310e6200129182021704565b1562000bac57600160a060020a03851663d202158d62000b1883640100000000620008c7810204565b604080517c010000000000000000000000000000000000000000000000000000000063ffffffff85160281526004810192909252600360248301525160448083019260209291908290030181600087803b15801562000b7657600080fd5b505af115801562000b8b573d6000803e3d6000fd5b505050506040513d602081101562000ba257600080fd5b5051915062000bb1565b600091505b5095945050505050565b600082826040516020018083600160a060020a0316600160a060020a03166c01000000000000000000000000028152601401828152602001925050506040516020818303038152906040526040518082805190602001908083835b6020831062000c375780518252601f19909201916020918201910162000c16565b5181516020939093036101000a600019018019909116921691909117905260405192018290039091209695505050505050565b606062000c8284848464010000000062000924810204565b949350505050565b6040805160c0810182528781526020808201888152600160a060020a03888116848601908152606085018981526080860189905260a0860188905260008e8152600a865296909620855181559251600184015551600283018054600160a060020a031916919092161790559251805192939262000d0e9260038501920190620014d1565b506080820151805162000d2c916004840191602090910190620014d1565b5060a0820151805162000d4a916005840191602090910190620014d1565b5050506000868152600b60209081526040808320805460018181018355918552838520018b9055600c80549091019055805188815260808184018181528851918301919091528751600160a060020a038a16958c958e957f46149b18aa084502c3f12bc75e19eda8bda8d102b82cce8474677a6d0d5f43c5958e958d958d958d959394929392850192606086019260a0870192918a01918190849084905b8381101562000e0257818101518382015260200162000de8565b50505050905090810190601f16801562000e305780820380516001836020036101000a031916815260200191505b50848103835286518152865160209182019188019080838360005b8381101562000e6557818101518382015260200162000e4b565b50505050905090810190601f16801562000e935780820380516001836020036101000a031916815260200191505b50848103825285518152855160209182019187019080838360005b8381101562000ec857818101518382015260200162000eae565b50505050905090810190601f16801562000ef65780820380516001836020036101000a031916815260200191505b5097505050505050505060405180910390a450505050505050565b6000838152602085815260408220805460018101825581845291909220018390556002810154151562000f4d5760028101849055600181018290555b50506000908152600180840160209081526040832080548084018255908452922090910191909155600290910180549091019055565b60008383836040516020018084600160a060020a0316600160a060020a03166c0100000000000000000000000002815260140183815260200182805190602001908083835b6020831062000fe95780518252601f19909201916020918201910162000fc8565b6001836020036101000a03801982511681845116808217855250505050505090500193505050506040516020818303038152906040526040518082805190602001908083835b60208310620010505780518252601f1990920191602091820191016200102f565b5181516020939093036101000a60001901801990911692169190911790526040519201829003909120979650505050505050565b60006200119b826040805190810160405280601c81526020017f19457468657265756d205369676e6564204d6573736167653a0a333200000000815250856040516020018083805190602001908083835b60208310620010f65780518252601f199092019160209182019101620010d5565b51815160209384036101000a600019018019909216911617905292019384525060408051808503815293820190819052835193945092839250908401908083835b60208310620011585780518252601f19909201916020918201910162001137565b5181516020939093036101000a60001901801990911692169190911790526040519201829003909120939250506401000000006200138a81026200303e17049050565b9392505050565b6000620011ae62001556565b60008481526020868152604080832081518154608094810282018501909352606081018381529093919284928491908401828280156200120e57602002820191906000526020600020905b815481526020019060010190808311620011f9575b505050918352505060018201546020820152600290910154604091820152810151909250151562001243576000925062001288565b5060005b815151811015620012885781518051859190839081106200126457fe5b9060200190602002015114156200127f576001925062001288565b60010162001247565b50509392505050565b60008080620012ca857f01ffc9a70000000000000000000000000000000000000000000000000000000064010000000062001466810204565b9092509050811580620012db575080155b15620012eb576000925062001382565b62001320857fffffffff0000000000000000000000000000000000000000000000000000000064010000000062001466810204565b90925090508115806200133257508015155b1562001342576000925062001382565b62001357858564010000000062001466810204565b90925090506001821480156200136d5750806001145b156200137d576001925062001382565b600092505b505092915050565b60008060008084516041141515620013a657600093506200145d565b50505060208201516040830151606084015160001a601b60ff82161015620013cc57601b015b8060ff16601b14158015620013e557508060ff16601c14155b15620013f557600093506200145d565b60408051600080825260208083018085528a905260ff8516838501526060830187905260808301869052925160019360a0808501949193601f19840193928390039091019190865af115801562001450573d6000803e3d6000fd5b5050506020604051035193505b50505092915050565b6040517f01ffc9a70000000000000000000000000000000000000000000000000000000080825260048201839052600091829190602081818189617530fa905190969095509350505050565b6060604051908101604052806003906020820280388339509192915050565b828054600181600116156101000203166002900490600052602060002090601f016020900481019282601f106200151457805160ff191683800117855562001544565b8280016001018555821562001544579182015b828111156200154457825182559160200191906001019062001527565b506200155292915062001576565b5090565b604080516060818101835281526000602082018190529181019190915290565b620002a191905b808211156200155257600081556001016200157d565b613e7480620015a36000396000f3006080604052600436106102585763ffffffff60e060020a60003504166301ffc9a7811461025a57806302e7491e146102905780630440b43a146102c2578063058b316c146102e957806312aaac70146102fe578063190db862146103775780631d203be81461039b5780631d38124014610404578063251de3e9146102c2578063262b54f5146104225780632d32d4421461048a57806338f4edd41461049f5780633b8a12c8146104b45780633f4ba83a1461052e57806349991ec8146102e95780634eee424a1461054357806353d413c51461055b5780635c975abb146105765780635d7bc3fc1461058b5780635dccebba146105a357806363f14c3c1461065a5780636e4c43111461067b578063710ca550146102e9578063747442d31461069657806375e5598c1461048a5780637d96fa58146106b357806382d09446146102e95780638456cb59146106c85780639010f726146106dd5780639e140cc8146106f5578063a550f0c71461048a578063aa0a51421461070a578063ae628386146106f5578063affed0e01461071f578063b132734e14610734578063b1a34e0d14610749578063b1e9f64c14610831578063b61d27f614610846578063b9133d63146108af578063bf2f20ad146108c4578063c6702187146102c2578063c9100bcb146108d9578063c9d24ecc14610a5c578063ccfe586814610a71578063d202158d14610a89578063dbfa74b714610831578063e0610ba314610aa4578063e99896b814610bca578063ead09fab14610be2578063f22d08a61461048a578063f5074f4114610bf7578063fc0fc84914610c18575b005b34801561026657600080fd5b5061027c600160e060020a031960043516610c2d565b604080519115158252519081900360200190f35b34801561029c57600080fd5b506102a5610c4c565b60408051600160e060020a03199092168252519081900360200190f35b3480156102ce57600080fd5b506102d7610c71565b60408051918252519081900360200190f35b3480156102f557600080fd5b506102d7610c76565b34801561030a57600080fd5b50610316600435610c7b565b60408051602080820185905291810183905260608082528551908201528451909182916080830191878101910280838360005b83811015610361578181015183820152602001610349565b5050505090500194505050505060405180910390f35b34801561038357600080fd5b506102d7600160a060020a0360043516602435610d20565b3480156103a757600080fd5b50604080516020600460443581810135601f81018490048402850184019095528484526102d7948235600160a060020a0316946024803595369594606494920191908190840183828082843750949750610dcd9650505050505050565b34801561041057600080fd5b5061027c600435602435604435610ecd565b34801561042e57600080fd5b5061043a600435610f26565b60408051602080825283518183015283519192839290830191858101910280838360005b8381101561047657818101518382015260200161045e565b505050509050019250505060405180910390f35b34801561049657600080fd5b506102d7610f89565b3480156104ab57600080fd5b506102d7610f8e565b3480156104c057600080fd5b5060408051602060046024803582810135601f8101859004850286018501909652858552610512958335953695604494919390910191908190840183828082843750949750610f949650505050505050565b60408051600160a060020a039092168252519081900360200190f35b34801561053a57600080fd5b50610258611097565b34801561054f57600080fd5b5061027c6004356110f0565b34801561056757600080fd5b5061027c6004356024356116f9565b34801561058257600080fd5b5061027c611790565b34801561059757600080fd5b5061027c600435611799565b3480156105af57600080fd5b506105bb600435611b02565b6040518085600160a060020a0316600160a060020a0316815260200184815260200180602001838152602001828103825284818151815260200191508051906020019080838360005b8381101561061c578181015183820152602001610604565b50505050905090810190601f1680156106495780820380516001836020036101000a031916815260200191505b509550505050505060405180910390f35b34801561066657600080fd5b506102d7600160a060020a0360043516611bbe565b34801561068757600080fd5b50610512600435602435611bca565b3480156106a257600080fd5b5061027c6004356024351515611c01565b3480156106bf57600080fd5b506102a5611f5c565b3480156106d457600080fd5b50610258611f80565b3480156106e957600080fd5b5061043a600435611fdb565b34801561070157600080fd5b506102d761203c565b34801561071657600080fd5b506102d7612041565b34801561072b57600080fd5b506102d7612047565b34801561074057600080fd5b506102d761204d565b34801561075557600080fd5b50604080516020601f6064356004818101359283018490048402850184019095528184526102d7948035946024803595600160a060020a0360443516953695608494930191819084018382808284375050604080516020601f89358b018035918201839004830284018301909452808352979a99988101979196509182019450925082915084018382808284375050604080516020601f89358b018035918201839004830284018301909452808352979a9998810197919650918201945092508291508401838280828437509497506120529650505050505050565b34801561083d57600080fd5b506102d7612503565b34801561085257600080fd5b50604080516020600460443581810135601f81018490048402850184019095528484526102d7948235600160a060020a03169460248035953695946064949201919081908401838280828437509497506125089650505050505050565b3480156108bb57600080fd5b506102d7612755565b3480156108d057600080fd5b506102a561275a565b3480156108e557600080fd5b506108f160043561277e565b6040518087815260200186815260200185600160a060020a0316600160a060020a03168152602001806020018060200180602001848103845287818151815260200191508051906020019080838360005b8381101561095a578181015183820152602001610942565b50505050905090810190601f1680156109875780820380516001836020036101000a031916815260200191505b50848103835286518152865160209182019188019080838360005b838110156109ba5781810151838201526020016109a2565b50505050905090810190601f1680156109e75780820380516001836020036101000a031916815260200191505b50848103825285518152855160209182019187019080838360005b83811015610a1a578181015183820152602001610a02565b50505050905090810190601f168015610a475780820380516001836020036101000a031916815260200191505b50995050505050505050505060405180910390f35b348015610a6857600080fd5b506102d76129d4565b348015610a7d57600080fd5b506102586004356129da565b348015610a9557600080fd5b5061027c600435602435612a2d565b348015610ab057600080fd5b50604080516020601f6064356004818101359283018490048402850184019095528184526102d7948035946024803595600160a060020a0360443516953695608494930191819084018382808284375050604080516020601f89358b018035918201839004830284018301909452808352979a99988101979196509182019450925082915084018382808284375050604080516020601f89358b018035918201839004830284018301909452808352979a99988101979196509182019450925082915084018382808284375050604080516020601f89358b018035918201839004830284018301909452808352979a999881019791965091820194509250829150840183828082843750949750612a419650505050505050565b348015610bd657600080fd5b50610258600435612e4f565b348015610bee57600080fd5b506102d7612ea2565b348015610c0357600080fd5b50610258600160a060020a0360043516612ea7565b348015610c2457600080fd5b506102d7612edb565b600160e060020a03191660009081526006602052604090205460ff1690565b7f01ffc9a7000000000000000000000000000000000000000000000000000000005b90565b600381565b600181565b6060600080610c88613b80565b60008581526002602090815260409182902082518154608093810282018401909452606081018481529093919284928491840182828015610ce857602002820191906000526020600020905b815481526020019060010190808311610cd4575b505050918352505060018201546020808301919091526002909201546040918201528251918301519201519097919650945092505050565b600082826040516020018083600160a060020a0316600160a060020a03166c01000000000000000000000000028152601401828152602001925050506040516020818303038152906040526040518082805190602001908083835b60208310610d9a5780518252601f199092019160209182019101610d7b565b5181516020939093036101000a600019018019909116921691909117905260405192018290039091209695505050505050565b60008383836040516020018084600160a060020a0316600160a060020a03166c0100000000000000000000000002815260140183815260200182805190602001908083835b60208310610e315780518252601f199092019160209182019101610e12565b6001836020036101000a03801982511681845116808217855250505050505090500193505050506040516020818303038152906040526040518082805190602001908083835b60208310610e965780518252601f199092019160209182019101610e77565b6001836020036101000a038019825116818451168082178552505050505050905001915050604051809103902090505b9392505050565b6000610ed7612ee1565b1515610ee257600080fd5b60055460ff1615610ef257600080fd5b610f046002858563ffffffff612f1316565b15610f1157506000610ec6565b610f1c848484612ff7565b5060019392505050565b6000818152600b6020908152604091829020805483518184028101840190945280845260609392830182828015610f7d57602002820191906000526020600020905b81548152600190910190602001808311610f68575b50505050509050919050565b600281565b60015481565b6000610ec6826040805190810160405280601c81526020017f19457468657265756d205369676e6564204d6573736167653a0a333200000000815250856040516020018083805190602001908083835b602083106110035780518252601f199092019160209182019101610fe4565b51815160209384036101000a600019018019909216911617905292019384525060408051808503815293820190819052835193945092839250908401908083835b602083106110635780518252601f199092019160209182019101611044565b5181516020939093036101000a600019018019909116921691909117905260405192018290039091209392505061303e9050565b61109f612ee1565b15156110aa57600080fd5b60055460ff1615156110bb57600080fd5b6005805460ff191690556040517f730c1faaa977b67dacf1e2451ef54556e04a07d577785ff79f6d31f73502efc990600090a1565b60006110fa613ba0565b600554600090819060ff161561110f57600080fd5b6000858152600a60205260409020600201548590600160a060020a031680151561113857600080fd5b611140612ee1565b1561114a57611223565b33600160a060020a038216141561116057611223565b61118161116b611f5c565b600160a060020a0383169063ffffffff61310e16565b1561121e5780600160a060020a031663d202158d61119e33611bbe565b6040805160e060020a63ffffffff85160281526004810192909252600260248301525160448083019260209291908290030181600087803b1580156111e257600080fd5b505af11580156111f6573d6000803e3d6000fd5b505050506040513d602081101561120c57600080fd5b5051151561121957600080fd5b611223565b600080fd5b6000878152600a6020908152604091829020825160c0810184528154815260018083015482850152600280840154600160a060020a0316838701526003840180548751601f9482161561010002600019019091169290920492830186900486028201860190965281815291949293606086019391908301828280156112e95780601f106112be576101008083540402835291602001916112e9565b820191906000526020600020905b8154815290600101906020018083116112cc57829003601f168201915b505050918352505060048201805460408051602060026001851615610100026000190190941693909304601f810184900484028201840190925281815293820193929183018282801561137d5780601f106113525761010080835404028352916020019161137d565b820191906000526020600020905b81548152906001019060200180831161136057829003601f168201915b505050918352505060058201805460408051602060026001851615610100026000190190941693909304601f81018490048402820184019092528181529382019392918301828280156114115780601f106113e657610100808354040283529160200191611411565b820191906000526020600020905b8154815290600101906020018083116113f457829003601f168201915b505050919092525050506040810151909550600160a060020a0316151561143757600080fd5b6000878152600a6020526040812081815560018101829055600281018054600160a060020a03191690559061146f6003830182613be0565b61147d600483016000613be0565b61148b600583016000613be0565b505084516000908152600b60205260408120945092505b835483101561154257835487908590859081106114bb57fe5b6000918252602090912001541415611537578354849060001981019081106114df57fe5b906000526020600020015484848154811015156114f857fe5b60009182526020909120015583548490600019810190811061151657fe5b60009182526020822001558354611531856000198301613c27565b50611542565b6001909201916114a2565b600c60008154809291906001900391905055508460400151600160a060020a0316856000015188600019167f3cf57863a89432c61c4a27073c6ee39e8a764bff5a05aebfbcdcdc80b2e6130a886020015189606001518a608001518b60a0015160405180858152602001806020018060200180602001848103845287818151815260200191508051906020019080838360005b838110156115ed5781810151838201526020016115d5565b50505050905090810190601f16801561161a5780820380516001836020036101000a031916815260200191505b50848103835286518152865160209182019188019080838360005b8381101561164d578181015183820152602001611635565b50505050905090810190601f16801561167a5780820380516001836020036101000a031916815260200191505b50848103825285518152855160209182019187019080838360005b838110156116ad578181015183820152602001611695565b50505050905090810190601f1680156116da5780820380516001836020036101000a031916815260200191505b5097505050505050505060405180910390a45060019695505050505050565b600080611704612ee1565b151561170f57600080fd5b60055460ff161561171f57600080fd5b6117316002858563ffffffff612f1316565b15156117405760009150611789565b6117526002858563ffffffff6131c516565b6040519091508190849086907f585a4aef50f8267a92b32412b331b20f7f8b96f2245b253b9cc50dcc621d339790600090a4600191505b5092915050565b60055460ff1681565b60006117a3613ba0565b60055460ff16156117b357600080fd5b6000838152600a60205260409020600201548390600160a060020a03168015156117dc57600080fd5b6117e4612ee1565b156117ee576118a7565b33600160a060020a0382161415611804576118a7565b61180f61116b611f5c565b1561121e5780600160a060020a031663d202158d61182c33611bbe565b6040805160e060020a63ffffffff85160281526004810192909252600260248301525160448083019260209291908290030181600087803b15801561187057600080fd5b505af1158015611884573d6000803e3d6000fd5b505050506040513d602081101561189a57600080fd5b505115156118a757600080fd5b6000858152600a6020908152604091829020825160c0810184528154815260018083015482850152600280840154600160a060020a0316838701526003840180548751601f94821615610100026000190190911692909204928301869004860282018601909652818152919492936060860193919083018282801561196d5780601f106119425761010080835404028352916020019161196d565b820191906000526020600020905b81548152906001019060200180831161195057829003601f168201915b505050918352505060048201805460408051602060026001851615610100026000190190941693909304601f8101849004840282018401909252818152938201939291830182828015611a015780601f106119d657610100808354040283529160200191611a01565b820191906000526020600020905b8154815290600101906020018083116119e457829003601f168201915b505050918352505060058201805460408051602060026001851615610100026000190190941693909304601f8101849004840282018401909252818152938201939291830182828015611a955780601f10611a6a57610100808354040283529160200191611a95565b820191906000526020600020905b815481529060010190602001808311611a7857829003601f168201915b505050919092525050506040810151909350600160a060020a03161515611abb57600080fd5b611adc83600001518460200151856040015186606001518760800151613366565b1515611af557611aeb856110f0565b5060009350611afa565b600193505b505050919050565b60086020908152600091825260409182902080546001808301546002808501805488516101009582161595909502600019011691909104601f8101879004870284018701909752868352600160a060020a03909316959094919291830182828015611bae5780601f10611b8357610100808354040283529160200191611bae565b820191906000526020600020905b815481529060010190602001808311611b9157829003601f168201915b5050505050908060030154905084565b600160a060020a031690565b600960205281600052604060002081815481101515611be557fe5b600091825260209091200154600160a060020a03169150829050565b60055460009081908190819060ff1615611c1a57600080fd5b851515611c2657600080fd5b60008681526008602052604090208054909350600160a060020a03161515611c4d57600080fd5b8254600160a060020a0316301415611c8b57611c7b611c6b33611bbe565b600290600163ffffffff612f1316565b1515611c8657600080fd5b611cb1565b611ca6611c9733611bbe565b6002908163ffffffff612f1316565b1515611cb157600080fd5b604080518615158152905187917fb3932da477fe5d6c8ff2eafef050c0f3a1af18fc07121001482600f36f3715d8919081900360200190a260008681526009602052604090209150841515611dfb575060005b8154811015611df25781543390839083908110611d1d57fe5b600091825260209091200154600160a060020a03161415611dea57815482906000198101908110611d4a57fe5b6000918252602090912001548254600160a060020a0390911690839083908110611d7057fe5b60009182526020909120018054600160a060020a031916600160a060020a0392909216919091179055815482906000198101908110611dab57fe5b60009182526020909120018054600160a060020a03191690558154611dd4836000198301613c27565b5060038301805460019081019091559350611f53565b600101611d04565b60009350611f53565b5060005b8154811015611e405781543390839083908110611e1857fe5b600091825260209091200154600160a060020a03161415611e3857600080fd5b600101611dff565b8154600181018355600083815260209020018054600160a060020a0319163317905560038301805460001901908190551515611f4e57604080516080810182528454600160a060020a031681526001808601546020808401919091526002808801805486516101009582161595909502600019011691909104601f81018390048302840183018652808452611f47958c95948a949186019390929091830182828015611f2d5780601f10611f0257610100808354040283529160200191611f2d565b820191906000526020600020905b815481529060010190602001808311611f1057829003601f168201915b5050505050815260200160038201548152505060016134a3565b9350611f53565b600193505b50505092915050565b7fdc3d2a7b0000000000000000000000000000000000000000000000000000000090565b611f88612ee1565b1515611f9357600080fd5b60055460ff1615611fa357600080fd5b6005805460ff191660011790556040517f4b314b34e912fda7f95e7d23e9c8c95f82f0aff1984e4ce592a0b005f905562490600090a1565b600081815260036020908152604091829020805483518184028101840190945280845260609392830182828015610f7d576020028201919060005260206000209081548152600190910190602001808311610f685750505050509050919050565b600481565b60005481565b60075481565b600881565b60055460009081908190819060ff161561206b57600080fd5b6120788a8a8a8a8a613366565b151561208357600080fd5b61208b612ee1565b92508215156122d9576040517fb61d27f600000000000000000000000000000000000000000000000000000000815230600482018181526000602484018190526060604485019081523660648601819052939463b61d27f694869484939192909190608401848480828437820191505095505050505050602060405180830381600087803b15801561211c57600080fd5b505af1158015612130573d6000803e3d6000fd5b505050506040513d602081101561214657600080fd5b8101908080519060200190929190505050935087600160a060020a03168a857fe6b6db97dedfb44cbced367387e40b3f92dbee1b1be87f9367f7b673532b0d698c8b8b8b60405180858152602001806020018060200180602001848103845287818151815260200191508051906020019080838360005b838110156121d55781810151838201526020016121bd565b50505050905090810190601f1680156122025780820380516001836020036101000a031916815260200191505b50848103835286518152865160209182019188019080838360005b8381101561223557818101518382015260200161221d565b50505050905090810190601f1680156122625780820380516001836020036101000a031916815260200191505b50848103825285518152855160209182019187019080838360005b8381101561229557818101518382015260200161227d565b50505050905090810190601f1680156122c25780820380516001836020036101000a031916815260200191505b5097505050505050505060405180910390a46124f6565b6122e3888b610d20565b6000818152600a6020526040902060020154909250600160a060020a0316151561231b57612316828b8b8b8b8b8b613725565b6124f6565b506000818152600a60209081526040909120600181018a9055875190916123499160038401918a0190613c50565b50855161235f9060048301906020890190613c50565b5084516123759060058301906020880190613c50565b5087600160a060020a03168a83600019167f3bab293fc00db832d7619a9299914251b8747c036867ec056cbd506f60135b138c8b8b8b60405180858152602001806020018060200180602001848103845287818151815260200191508051906020019080838360005b838110156123f65781810151838201526020016123de565b50505050905090810190601f1680156124235780820380516001836020036101000a031916815260200191505b50848103835286518152865160209182019188019080838360005b8381101561245657818101518382015260200161243e565b50505050905090810190601f1680156124835780820380516001836020036101000a031916815260200191505b50848103825285518152855160209182019187019080838360005b838110156124b657818101518382015260200161249e565b50505050905090810190601f1680156124e35780820380516001836020036101000a031916815260200191505b5097505050505050505060405180910390a45b5050509695505050505050565b600581565b6000806000612515613cce565b60055460ff161561252557600080fd5b600160a060020a038716301415612574573330141561254857600054925061256f565b612554611c6b33611bbe565b9150811561256957600160005403925061256f565b60005492505b6125ba565b600160a060020a038716151561258957600080fd5b3330141561259b5760015492506125ba565b6125a7611c9733611bbe565b15156125b257600080fd5b600180540392505b6125c93088888860075461399d565b93508587600160a060020a0316857f8afcfabcb00e47a53a8fc3e9f23ff47ee1926194bb1350dd007c50b412a6cee8886040518080602001828103825283818151815260200191508051906020019080838360005b8381101561263657818101518382015260200161261e565b50505050905090810190601f1680156126635780820380516001836020036101000a031916815260200191505b509250505060405180910390a45060078054600101905560408051608081018252600160a060020a038816815260208101879052908101859052606081018390528215156126bd576126b7848260006134a3565b5061274b565b60008481526008602090815260409182902083518154600160a060020a031916600160a060020a0390911617815583820151600182015591830151805184939261270e926002850192910190613c50565b50606091909101516003909101556000848152600960209081526040822080546001810182559083529120018054600160a060020a031916331790555b5050509392505050565b600781565b7f107653790000000000000000000000000000000000000000000000000000000090565b60008060006060806060612790613ba0565b6000888152600a6020908152604091829020825160c0810184528154815260018083015482850152600280840154600160a060020a0316838701526003840180548751601f9482161561010002600019019091169290920492830186900486028201860190965281815291949293606086019391908301828280156128565780601f1061282b57610100808354040283529160200191612856565b820191906000526020600020905b81548152906001019060200180831161283957829003601f168201915b505050918352505060048201805460408051602060026001851615610100026000190190941693909304601f81018490048402820184019092528181529382019392918301828280156128ea5780601f106128bf576101008083540402835291602001916128ea565b820191906000526020600020905b8154815290600101906020018083116128cd57829003601f168201915b505050918352505060058201805460408051602060026001851615610100026000190190941693909304601f810184900484028201840190925281815293820193929183018282801561297e5780601f106129535761010080835404028352916020019161297e565b820191906000526020600020905b81548152906001019060200180831161296157829003601f168201915b505050919092525050506040810151909150600160a060020a031615156129a457600080fd5b8051602082015160408301516060840151608085015160a090950151939c929b5090995097509195509350915050565b60045490565b60055460009060ff16156129ed57600080fd5b6129f5612ee1565b1515612a0057600080fd5b60008211612a0d57600080fd5b612a176001611fdb565b51905080821115612a2757600080fd5b50600055565b6000610ec66002848463ffffffff612f1316565b60055460009081908190819060ff1615612a5a57600080fd5b612a678b8b8b8b8b613366565b1515612a7257600080fd5b612c0b8b8b8b8b8b8b6040516020018087815260200186815260200185600160a060020a0316600160a060020a03166c0100000000000000000000000002815260140184805190602001908083835b60208310612ae05780518252601f199092019160209182019101612ac1565b51815160209384036101000a600019018019909216911617905286519190930192860191508083835b60208310612b285780518252601f199092019160209182019101612b09565b51815160209384036101000a600019018019909216911617905285519190930192850191508083835b60208310612b705780518252601f199092019160209182019101612b51565b6001836020036101000a03801982511681845116808217855250505050505090500196505050505050506040516020818303038152906040526040518082805190602001908083835b60208310612bd85780518252601f199092019160209182019101612bb9565b6001836020036101000a038019825116818451168082178552505050505050905001915050604051809103902086610f94565b9250612c19611c6b84611bbe565b1515612c2457600080fd5b612c2e898c610d20565b6000818152600a6020526040902060020154909250600160a060020a03161515612c6657612c61828c8c8c8c8c8c613725565b612e41565b506000818152600a60209081526040909120600181018b905588519091612c949160038401918b0190613c50565b508651612caa90600483019060208a0190613c50565b508551612cc09060058301906020890190613c50565b5088600160a060020a03168b83600019167f3bab293fc00db832d7619a9299914251b8747c036867ec056cbd506f60135b138d8c8c8c60405180858152602001806020018060200180602001848103845287818151815260200191508051906020019080838360005b83811015612d41578181015183820152602001612d29565b50505050905090810190601f168015612d6e5780820380516001836020036101000a031916815260200191505b50848103835286518152865160209182019188019080838360005b83811015612da1578181015183820152602001612d89565b50505050905090810190601f168015612dce5780820380516001836020036101000a031916815260200191505b50848103825285518152855160209182019187019080838360005b83811015612e01578181015183820152602001612de9565b50505050905090810190601f168015612e2e5780820380516001836020036101000a031916815260200191505b5097505050505050505060405180910390a45b505050979650505050505050565b60055460009060ff1615612e6257600080fd5b612e6a612ee1565b1515612e7557600080fd5b60008211612e8257600080fd5b612e8c6002611fdb565b51905080821115612e9c57600080fd5b50600155565b600681565b612eaf612ee1565b1515612eba57600080fd5b600160a060020a0381161515612ecf57600080fd5b80600160a060020a0316ff5b600c5481565b600033301415612ef357506001610c6e565b600054600114612f0257600080fd5b612f0e611c6b33611bbe565b905090565b6000612f1d613b80565b6000848152602086815260408083208151815460809481028201850190935260608101838152909391928492849190840182828015612f7b57602002820191906000526020600020905b815481526020019060010190808311612f67575b5050509183525050600182015460208201526002909101546040918201528101519092501515612fae5760009250612fee565b5060005b815151811015612fee578151805185919083908110612fcd57fe5b906020019060200201511415612fe65760019250612fee565b600101612fb2565b50509392505050565b61300a600284848463ffffffff613ac316565b6040518190839085907f480000bb1edad8ca1470381cc334b1917fbd51c6531f3a623ea8e0ec7e38a6e990600090a4505050565b600080600080845160411415156130585760009350611f53565b50505060208201516040830151606084015160001a601b60ff8216101561307d57601b015b8060ff16601b1415801561309557508060ff16601c14155b156130a35760009350611f53565b60408051600080825260208083018085528a905260ff8516838501526060830187905260808301869052925160019360a0808501949193601f19840193928390039091019190865af11580156130fd573d6000803e3d6000fd5b505050602060405103519350611f53565b6000808061313c857f01ffc9a700000000000000000000000000000000000000000000000000000000613b34565b909250905081158061314c575080155b1561315a57600092506131bd565b61316c85600160e060020a0319613b34565b909250905081158061317d57508015155b1561318b57600092506131bd565b6131958585613b34565b90925090506001821480156131aa5750806001145b156131b857600192506131bd565b600092505b505092915050565b6000828152602084905260408120600181015491805b8254821015613285578483838154811015156131f357fe5b9060005260206000200154141561327a5782548390600019810190811061321657fe5b9060005260206000200154838381548110151561322f57fe5b60009182526020909120015582548390600019810190811061324d57fe5b60009182526020822001558254613268846000198301613c27565b50600287018054600019019055613285565b6001909101906131db565b825415156132b7576000868152602088905260408120906132a68282613d00565b506000600182018190556002909101555b5050600083815260018601602052604081205b805482101561274b57805486908290849081106132e357fe5b600091825260209091200154141561335b5780548190600019810190811061330757fe5b9060005260206000200154818381548110151561332057fe5b60009182526020909120015580548190600019810190811061333e57fe5b60009182526020822001558054613359826000198301613c27565b505b6001909101906132ca565b600080600186141561349457613386613380308986610dcd565b85610f94565b905080600160a060020a031685600160a060020a031614156133ab5760019150613499565b600160a060020a0385163014156133df576133d86133c882611bbe565b600290600363ffffffff612f1316565b9150613499565b6134006133ea611f5c565b600160a060020a0387169063ffffffff61310e16565b156134945784600160a060020a031663d202158d61341d83611bbe565b6040805160e060020a63ffffffff85160281526004810192909252600360248301525160448083019260209291908290030181600087803b15801561346157600080fd5b505af1158015613475573d6000803e3d6000fd5b505050506040513d602081101561348b57600080fd5b50519150613499565b600091505b5095945050505050565b81516000908190600160a060020a031615156134be57600080fd5b8360000151600160a060020a03168460200151856040015160405180828051906020019080838360005b838110156135005781810151838201526020016134e8565b50505050905090810190601f16801561352d5780820380516001836020036101000a031916815260200191505b5091505060006040518083038185875af19250505090508015156136055783602001518460000151600160a060020a0316867fe10c49d9f7c71da23262367013434763cfdb2332267641728d25cd712c5c6a6887604001516040518080602001828103825283818151815260200191508051906020019080838360005b838110156135c25781810151838201526020016135aa565b50505050905090810190601f1680156135ef5780820380516001836020036101000a031916815260200191505b509250505060405180910390a46000915061371d565b83602001518460000151600160a060020a0316867f1f920dbda597d7bf95035464170fa58d0a4b57f13a1c315ace6793b9f63688b887604001516040518080602001828103825283818151815260200191508051906020019080838360005b8381101561367c578181015183820152602001613664565b50505050905090810190601f1680156136a95780820380516001836020036101000a031916815260200191505b509250505060405180910390a48215156136c6576001915061371d565b60008581526008602052604081208054600160a060020a031916815560018101829055906136f76002830182613be0565b50600060039190910181905585815260096020526040812061371891613d00565b600191505b509392505050565b6040805160c0810182528781526020808201888152600160a060020a03888116848601908152606085018981526080860189905260a0860188905260008e8152600a865296909620855181559251600184015551600283018054600160a060020a03191691909216179055925180519293926137a79260038501920190613c50565b50608082015180516137c3916004840191602090910190613c50565b5060a082015180516137df916005840191602090910190613c50565b5050506000868152600b60209081526040808320805460018181018355918552838520018b9055600c80549091019055805188815260808184018181528851918301919091528751600160a060020a038a16958c958e957f46149b18aa084502c3f12bc75e19eda8bda8d102b82cce8474677a6d0d5f43c5958e958d958d958d959394929392850192606086019260a0870192918a01918190849084905b8381101561389557818101518382015260200161387d565b50505050905090810190601f1680156138c25780820380516001836020036101000a031916815260200191505b50848103835286518152865160209182019188019080838360005b838110156138f55781810151838201526020016138dd565b50505050905090810190601f1680156139225780820380516001836020036101000a031916815260200191505b50848103825285518152855160209182019187019080838360005b8381101561395557818101518382015260200161393d565b50505050905090810190601f1680156139825780820380516001836020036101000a031916815260200191505b5097505050505050505060405180910390a450505050505050565b600085858585856040516020018086600160a060020a0316600160a060020a03166c0100000000000000000000000002815260140185600160a060020a0316600160a060020a03166c0100000000000000000000000002815260140184815260200183805190602001908083835b60208310613a2a5780518252601f199092019160209182019101613a0b565b51815160209384036101000a600019018019909216911617905292019384525060408051808503815293820190819052835193975095508594508601925081905083835b60208310613a8d5780518252601f199092019160209182019101613a6e565b5181516020939093036101000a600019018019909116921691909117905260405192018290039091209998505050505050505050565b60008381526020858152604082208054600181018255818452919092200183905560028101541515613afe5760028101849055600181018290555b50506000908152600180840160209081526040832080548084018255908452922090910191909155600290910180549091019055565b6040517f01ffc9a70000000000000000000000000000000000000000000000000000000080825260048201839052600091829190602081818189617530fa905190969095509350505050565b604080516060818101835281526000602082018190529181019190915290565b60c06040519081016040528060008152602001600081526020016000600160a060020a031681526020016060815260200160608152602001606081525090565b50805460018160011615610100020316600290046000825580601f10613c065750613c24565b601f016020900490600052602060002090810190613c249190613d1a565b50565b815481835581811115613c4b57600083815260209020613c4b918101908301613d1a565b505050565b828054600181600116156101000203166002900490600052602060002090601f016020900481019282601f10613c9157805160ff1916838001178555613cbe565b82800160010185558215613cbe579182015b82811115613cbe578251825591602001919060010190613ca3565b50613cca929150613d1a565b5090565b6080604051908101604052806000600160a060020a031681526020016000815260200160608152602001600081525090565b5080546000825590600052602060002090810190613c2491905b610c6e91905b80821115613cca5760008155600101613d20565b6060806000808460ff166040519080825280601f01601f191660200182016040528015613d6b578160200160208202803883390190505b509250600091508590505b8460ff168601811015613e28578681815181101515613d9157fe5b9060200101517f010000000000000000000000000000000000000000000000000000000000000090047f0100000000000000000000000000000000000000000000000000000000000000028383806001019450815181101515613df057fe5b9060200101907effffffffffffffffffffffffffffffffffffffffffffffffffffffffffffff1916908160001a905350600101613d76565b509095945050505050565b6060613e40848484613d34565b9493505050505600a165627a7a72305820e0d40698a171d8205beb66c163b20a996c891c9356d28ea164cbcbc0ca93ce260029",
  "source": "pragma solidity ^0.4.24;\n\nimport \"./Destructible.sol\";\nimport \"./ERC735.sol\";\nimport \"./KeyGetters.sol\";\nimport \"./KeyManager.sol\";\nimport \"./MultiSig.sol\";\nimport \"./ClaimManager.sol\";\nimport \"./Slice.sol\";\n\n/// @title Identity\n/// @author Mircea Pasoi\n/// @notice Identity contract implementing both ERC 725 and ERC 735\n\ncontract Identity is KeyManager, MultiSig, ClaimManager, Destructible, KeyGetters {\n    using Slice for bytes;\n    using Slice for string;\n\n    /// @dev Constructor for Identity contract. If no initial keys are passed then\n    ///  `msg.sender` is used as an initial MANAGEMENT_KEY, ACTION_KEY and CLAIM_SIGNER_KEY\n    /// @param _keys Keys to start contract with, in ascending order; in case of equality, purposes must be ascending\n    /// @param _purposes Key purposes (in the same order as _keys)\n    /// @param _issuers Claim issuers to start contract with, in ascending order; in case of equality, topics must be ascending\n    /// @param _managementThreshold Multi-sig threshold for MANAGEMENT_KEY\n    /// @param _actionThreshold Multi-sig threshold for ACTION_KEY\n    /// @param _topics Claim topics (in the same order as _issuers)\n    /// @param _signatures All the initial claim signatures concatenated in one bytes array\n    /// @param _datas All the initial claim data concatenated in one bytes array\n    /// @param _uris All the initial claim URIs concatenated in one string\n    /// @param _sizes Triples of signature, claim data, URI sizes (each must be  256)\n    constructor\n    (\n        bytes32[] _keys,\n        uint256[] _purposes,\n        uint256 _managementThreshold,\n        uint256 _actionThreshold,\n        address[] _issuers,\n        uint256[] _topics,\n        // TODO: Pass bytes[] signatures, bytes[] data and string[] uris once ABIEncoderV2 is out\n        bytes _signatures,\n        bytes _datas,\n        string _uris,\n        uint8[] _sizes\n    )\n    public {\n        _validateKeys(_keys, _purposes);\n        _validateClaims(_issuers, _topics, _sizes);\n\n        _addKeys(_keys, _purposes, _managementThreshold, _actionThreshold);\n        _addClaims(_issuers, _topics, _signatures, _datas, _uris, _sizes);\n\n        // Supports both ERC 725 & 735\n        supportedInterfaces[ERC725ID() ^ ERC735ID()] = true;\n    }\n\n    // Fallback function accepts Ether transactions\n    // solhint-disable-next-line no-empty-blocks\n    function () external payable {\n    }\n\n    /// @dev Validate keys are sorted and unique\n    /// @param _keys Keys to start contract with, in ascending order; in case of equality, purposes must be ascending\n    /// @param _purposes Key purposes (in the same order as _keys)\n    function _validateKeys\n    (\n        bytes32[] _keys,\n        uint256[] _purposes\n    )\n    private\n    pure\n    {\n        // Validate keys are sorted and unique\n        require(_keys.length == _purposes.length);\n        for (uint i = 1; i < _keys.length; i++) {\n            // Expect input to be in sorted order, first by keys, then by purposes\n            // Sorted order guarantees (key, purpose) pairs are unique and we can use\n            // _addKey insteaad of addKey (which also checks for existance)\n            bytes32 prevKey = _keys[i - 1];\n            require(_keys[i] > prevKey || (_keys[i] == prevKey && _purposes[i] > _purposes[i - 1]));\n        }\n    }\n\n    /// @dev Add keys to contract and set multi-sig thresholds\n    /// @param _keys Keys to start contract with, in ascending order; in case of equality, purposes must be ascending\n    /// @param _purposes Key purposes (in the same order as _keys)\n    /// @param _managementThreshold Multi-sig threshold for MANAGEMENT_KEY\n    /// @param _actionThreshold Multi-sig threshold for ACTION_KEY\n    function _addKeys\n    (\n        bytes32[] _keys,\n        uint256[] _purposes,\n        uint256 _managementThreshold,\n        uint256 _actionThreshold\n    )\n    private\n    {\n        uint256 actionCount;\n        uint256 managementCount;\n        if (_keys.length == 0) {\n            bytes32 senderKey = addrToKey(msg.sender);\n            // Add key that deployed the contract for MANAGEMENT, ACTION, CLAIM\n            _addKey(senderKey, MANAGEMENT_KEY, ECDSA_TYPE);\n            _addKey(senderKey, ACTION_KEY, ECDSA_TYPE);\n            _addKey(senderKey, CLAIM_SIGNER_KEY, ECDSA_TYPE);\n            actionCount = 1;\n            managementCount = 1;\n        } else {\n            // Add constructor keys\n            for (uint i = 0; i < _keys.length; i++) {\n                _addKey(_keys[i], _purposes[i], ECDSA_TYPE);\n                if (_purposes[i] == MANAGEMENT_KEY) {\n                    managementCount++;\n                } else\n                if (_purposes[i] == ACTION_KEY) {\n                    actionCount++;\n                }\n            }\n        }\n\n        require(_managementThreshold > 0);\n        require(_managementThreshold <= managementCount);\n        require(_actionThreshold > 0);\n        require(_actionThreshold <= actionCount);\n        managementThreshold = _managementThreshold;\n        actionThreshold = _actionThreshold;\n    }\n\n    /// @dev Validate claims are sorted and unique\n    /// @param _issuers Claim issuers to start contract with, in ascending order; in case of equality, topics must be ascending\n    /// @param _topics Claim topics (in the same order as _issuers)\n    /// @param _sizes Triples of signature, claim data, URI sizes (each must be  256)\n    function _validateClaims\n    (\n        address[] _issuers,\n        uint256[] _topics,\n        uint8[] _sizes\n    )\n    private\n    pure\n    {\n        // Validate claims are sorted and unique\n        require(_issuers.length == _topics.length);\n        require(3 * _topics.length == _sizes.length);\n        for (uint i = 1; i < _issuers.length; i++) {\n            // Expect input to be in sorted order, first by issuer, then by topic\n            // Sorted order guarantees (issuer, topic) pairs are unique\n            address prevIssuer = _issuers[i - 1];\n            require(_issuers[i] != prevIssuer || (_issuers[i] == prevIssuer && _topics[i] > _topics[i - 1]));\n        }\n    }\n\n    /// @dev Add claims to contract without an URI\n    /// @param _issuers Claim issuers to start contract with, in ascending order; in case of equality, topics must be ascending\n    /// @param _topics Claim topics (in the same order as _issuers)\n    /// @param _signatures All the initial claim signatures concatenated in one bytes array\n    /// @param _datas All the initial claim data concatenated in one bytes array\n    /// @param _uris All the initial claim URIs concatenated in one string\n    /// @param _sizes Triples of signature, claim data, URI sizes (each must be  256)\n    function _addClaims\n    (\n        address[] _issuers,\n        uint256[] _topics,\n        bytes _signatures,\n        bytes _datas,\n        string _uris,\n        uint8[] _sizes\n    )\n    private\n    {\n        // Add constructor claims\n        uint[3] memory offset;\n        bytes memory signature;\n        bytes memory data;\n        for (uint i = 0; i < _issuers.length; i++) {\n            // Check signature\n            signature = _signatures.slice(offset[0], _sizes[3 * i]);\n            data = _datas.slice(offset[1], _sizes[3 * i + 1]);\n            require(_validSignature(_topics[i], ECDSA_SCHEME, _issuers[i], signature, data));\n            // Add claim\n            _addClaim(\n                getClaimId(_issuers[i], _topics[i]),\n                _topics[i],\n                ECDSA_SCHEME,\n                _issuers[i],\n                signature,\n                data,\n                _uris.slice(offset[2], _sizes[3 * i + 2])\n            );\n            offset[0] += _sizes[3 * i];\n            offset[1] += _sizes[3 * i + 1];\n            offset[2] += _sizes[3 * i + 2];\n        }\n    }\n}",
  "sourcePath": "/Users/coinplug/BangGijin/metabolics2.0/contracts/identity/Identity.sol",
  "compiler": {
    "name": "solc",
    "version": "0.4.24+commit.e67f0147.Emscripten.clang"
  },
  "schemaVersion": "2.0.1",
  "updatedAt": "2018-10-08T08:14:57.224Z"
}