{
  "contractName": "IdentityManager",
  "abi": [
    {
      "constant": true,
      "inputs": [],
      "name": "REG",
      "outputs": [
        {
          "name": "",
          "type": "address"
        }
      ],
      "payable": false,
      "stateMutability": "view",
      "type": "function"
    },
    {
      "constant": true,
      "inputs": [
        {
          "name": "_addr",
          "type": "address"
        }
      ],
      "name": "isPermitted",
      "outputs": [
        {
          "name": "found",
          "type": "bool"
        }
      ],
      "payable": false,
      "stateMutability": "view",
      "type": "function"
    },
    {
      "constant": true,
      "inputs": [],
      "name": "THIS_NAME",
      "outputs": [
        {
          "name": "",
          "type": "bytes32"
        }
      ],
      "payable": false,
      "stateMutability": "view",
      "type": "function"
    },
    {
      "constant": true,
      "inputs": [
        {
          "name": "",
          "type": "uint256"
        }
      ],
      "name": "metaIds",
      "outputs": [
        {
          "name": "",
          "type": "address"
        }
      ],
      "payable": false,
      "stateMutability": "view",
      "type": "function"
    },
    {
      "constant": true,
      "inputs": [],
      "name": "owner",
      "outputs": [
        {
          "name": "",
          "type": "address"
        }
      ],
      "payable": false,
      "stateMutability": "view",
      "type": "function"
    },
    {
      "constant": false,
      "inputs": [
        {
          "name": "_addr",
          "type": "address"
        }
      ],
      "name": "setRegistry",
      "outputs": [],
      "payable": false,
      "stateMutability": "nonpayable",
      "type": "function"
    },
    {
      "constant": false,
      "inputs": [
        {
          "name": "newOwner",
          "type": "address"
        }
      ],
      "name": "transferOwnership",
      "outputs": [],
      "payable": false,
      "stateMutability": "nonpayable",
      "type": "function"
    },
    {
      "inputs": [],
      "payable": false,
      "stateMutability": "nonpayable",
      "type": "constructor"
    },
    {
      "anonymous": false,
      "inputs": [
        {
          "indexed": true,
          "name": "managementKey",
          "type": "address"
        },
        {
          "indexed": false,
          "name": "metaId",
          "type": "address"
        }
      ],
      "name": "CreateMetaId",
      "type": "event"
    },
    {
      "anonymous": false,
      "inputs": [
        {
          "indexed": true,
          "name": "previousOwner",
          "type": "address"
        },
        {
          "indexed": true,
          "name": "newOwner",
          "type": "address"
        }
      ],
      "name": "OwnershipTransferred",
      "type": "event"
    },
    {
      "constant": false,
      "inputs": [
        {
          "name": "_managementKey",
          "type": "address"
        }
      ],
      "name": "createMetaId",
      "outputs": [
        {
          "name": "success",
          "type": "bool"
        }
      ],
      "payable": false,
      "stateMutability": "nonpayable",
      "type": "function"
    },
    {
      "constant": false,
      "inputs": [
        {
          "name": "_metaId",
          "type": "address"
        },
        {
          "name": "_managementKey",
          "type": "address"
        }
      ],
      "name": "addMetaId",
      "outputs": [
        {
          "name": "success",
          "type": "bool"
        }
      ],
      "payable": false,
      "stateMutability": "nonpayable",
      "type": "function"
    },
    {
      "constant": true,
      "inputs": [],
      "name": "getDeployedMetaIds",
      "outputs": [
        {
          "name": "addrs",
          "type": "address[]"
        }
      ],
      "payable": false,
      "stateMutability": "view",
      "type": "function"
    },
    {
      "constant": true,
      "inputs": [
        {
          "name": "_addr",
          "type": "address"
        }
      ],
      "name": "isMetaId",
      "outputs": [
        {
          "name": "found",
          "type": "bool"
        }
      ],
      "payable": false,
      "stateMutability": "view",
      "type": "function"
    },
    {
      "constant": true,
      "inputs": [],
      "name": "getLengthOfMetaIds",
      "outputs": [
        {
          "name": "length",
          "type": "uint256"
        }
      ],
      "payable": false,
      "stateMutability": "view",
      "type": "function"
    }
  ],
  "bytecode": "0x608060405234801561001057600080fd5b5060008054600160a060020a031916331790557f4964656e746974794d616e6167657200000000000000000000000000000000006002556152a9806100566000396000f3006080604052600436106100b95763ffffffff7c010000000000000000000000000000000000000000000000000000000060003504166312459b0081146100be57806339363112146100f35780633fd8cc4e1461012457806357296f071461014557806364319d0b1461016c57806373fd4e8f14610181578063828baa80146101995780638da5cb5b146101c0578063a91ee0dc146101d5578063ab1796cf146101f8578063df483f531461025d578063f2fde38b1461027e575b600080fd5b3480156100ca57600080fd5b506100df600160a060020a036004351661029f565b604080519115158252519081900360200190f35b3480156100ff57600080fd5b506101086102bd565b60408051600160a060020a039092168252519081900360200190f35b34801561013057600080fd5b506100df600160a060020a03600435166102cc565b34801561015157600080fd5b5061015a610373565b60408051918252519081900360200190f35b34801561017857600080fd5b5061015a610379565b34801561018d57600080fd5b5061010860043561037f565b3480156101a557600080fd5b506100df600160a060020a03600435811690602435166103a7565b3480156101cc57600080fd5b506101086104d1565b3480156101e157600080fd5b506101f6600160a060020a03600435166104e0565b005b34801561020457600080fd5b5061020d610526565b60408051602080825283518183015283519192839290830191858101910280838360005b83811015610249578181015183820152602001610231565b505050509050019250505060405180910390f35b34801561026957600080fd5b506100df600160a060020a0360043516610588565b34801561028a57600080fd5b506101f6600160a060020a0360043516610766565b600160a060020a031660009081526004602052604090205460ff1690565b600154600160a060020a031681565b600154600254604080517f60d6c7cf0000000000000000000000000000000000000000000000000000000081526004810192909252600160a060020a038481166024840152905160009391909116916360d6c7cf91604480830192602092919082900301818787803b15801561034157600080fd5b505af1158015610355573d6000803e3d6000fd5b505050506040513d602081101561036b57600080fd5b505192915050565b60035490565b60025481565b600380548290811061038d57fe5b600091825260209091200154600160a060020a0316905081565b60006103b2336102cc565b151561041f57604080517f08c379a000000000000000000000000000000000000000000000000000000000815260206004820152600d60248201527f4e6f205065726d697373696f6e00000000000000000000000000000000000000604482015290519081900360640190fd5b6003805460018082019092557fc2575a0e9e593c00f959f8c92f12db2869c3395a3b0502d05e2516446f71f85b01805473ffffffffffffffffffffffffffffffffffffffff1916600160a060020a03868116918217909255600081815260046020908152604091829020805460ff1916909517909455805191825251918516927f530662d7f09b3ad99f1a6c386579d429bed60b5cb0ffd969d5367a601bab347192918290030190a250600192915050565b600054600160a060020a031681565b600054600160a060020a031633146104f757600080fd5b6001805473ffffffffffffffffffffffffffffffffffffffff1916600160a060020a0392909216919091179055565b6060600380548060200260200160405190810160405280929190818152602001828054801561057e57602002820191906000526020600020905b8154600160a060020a03168152600190910190602001808311610560575b5050505050905090565b600080610594336102cc565b151561060157604080517f08c379a000000000000000000000000000000000000000000000000000000000815260206004820152600d60248201527f4e6f205065726d697373696f6e00000000000000000000000000000000000000604482015290519081900360640190fd5b600160a060020a038316151561067857604080517f08c379a000000000000000000000000000000000000000000000000000000000815260206004820152600e60248201527f6164647265737320697320307830000000000000000000000000000000000000604482015290519081900360640190fd5b826106816107fa565b600160a060020a03909116815260405190819003602001906000f0801580156106ae573d6000803e3d6000fd5b506003805460018082019092557fc2575a0e9e593c00f959f8c92f12db2869c3395a3b0502d05e2516446f71f85b01805473ffffffffffffffffffffffffffffffffffffffff1916600160a060020a03848116918217909255600081815260046020908152604091829020805460ff1916909517909455805191825251939450908616927f530662d7f09b3ad99f1a6c386579d429bed60b5cb0ffd969d5367a601bab3471929181900390910190a250600192915050565b600054600160a060020a0316331461077d57600080fd5b600160a060020a038116151561079257600080fd5b60008054604051600160a060020a03808516939216917f8be0079c531659141344cd1fd0a4f28419497f9722a3daafe3b4186f6b6457e091a36000805473ffffffffffffffffffffffffffffffffffffffff1916600160a060020a0392909216919091179055565b604051614a72806200080c8339019056006080604052600160008190558080556005805460ff191690556007553480156200002857600080fd5b5060405160208062004a72833981016040525160006001600682620000556401000000006200022b810204565b7fffffffff0000000000000000000000000000000000000000000000000000000016815260208101919091526040016000908120805460ff191692151592909217909155600190600690620000b26401000000006200024f810204565b7fffffffff0000000000000000000000000000000000000000000000000000000016815260208101919091526040016000908120805460ff1916921515929092179091556001906006906200010f64010000000062000273810204565b7fffffffff000000000000000000000000000000000000000000000000000000001681526020810191909152604001600020805460ff1916911515919091179055620001648264010000000062000297810204565b90506200017d81600180640100000000620002a3810204565b620001958160026001640100000000620002a3810204565b620001ad8160036001640100000000620002a3810204565b60016000818155818055600690620001cd64010000000062000273810204565b620001e06401000000006200024f810204565b187fffffffff000000000000000000000000000000000000000000000000000000001681526020810191909152604001600020805460ff191691151591909117905550620003669050565b7f01ffc9a70000000000000000000000000000000000000000000000000000000090565b7fdc3d2a7b0000000000000000000000000000000000000000000000000000000090565b7f107653790000000000000000000000000000000000000000000000000000000090565b600160a060020a031690565b620002c060028484846401000000006200402c620002f482021704565b6040518190839085907f480000bb1edad8ca1470381cc334b1917fbd51c6531f3a623ea8e0ec7e38a6e990600090a4505050565b60008381526020858152604082208054600181018255818452919092200183905560028101541515620003305760028101849055600181018290555b50506000908152600180840160209081526040832080548084018255908452922090910191909155600290910180549091019055565b6146fc80620003766000396000f3006080604052600436106102c65763ffffffff60e060020a60003504166301ffc9a781146102c857806302e7491e146102fe5780630440b43a14610330578063058b316c1461035757806312aaac701461036c578063190db862146103e557806319902986146104095780631d203be81461041e5780631d38124014610487578063237434f0146104a5578063251de3e914610330578063262b54f5146104bd5780632d32d442146105255780632e7700f01461053a57806338f4edd41461054f5780633b8a12c8146105645780633f4ba83a146105de57806349991ec8146103575780634da34c2c146105f35780634eee424a146106a057806353d413c5146106b85780635c975abb146106d35780635d7bc3fc146106e85780635dccebba1461070057806363f14c3c146107b75780636e4c4311146107d8578063710ca55014610357578063724a4b3b146107f3578063747442d31461082957806375e5598c14610525578063765b3042146108465780637d96fa581461087757806382d09446146103575780638456cb591461088c5780639010f726146108a15780639e140cc8146108b9578063a550f0c714610525578063aa0a5142146108ce578063ae628386146108b9578063affed0e0146108e3578063b132734e146108f8578063b1a34e0d1461090d578063b1e9f64c146109f5578063b61d27f614610a0a578063b9133d6314610a73578063bf2f20ad14610a88578063c32b351814610a9d578063c670218714610330578063c9100bcb14610af6578063c9d24ecc14610c79578063ccfe586814610c8e578063d087d2881461053a578063d202158d14610ca6578063dbfa74b7146109f5578063e0610ba314610cc1578063e804c01b14610de7578063e99896b814610e4c578063ead09fab14610e64578063f22d08a614610525578063f5074f4114610e79578063f744413714610e9a578063fc0fc84914610f0b575b005b3480156102d457600080fd5b506102ea600160e060020a031960043516610f20565b604080519115158252519081900360200190f35b34801561030a57600080fd5b50610313610f3f565b60408051600160e060020a03199092168252519081900360200190f35b34801561033c57600080fd5b50610345610f64565b60408051918252519081900360200190f35b34801561036357600080fd5b50610345610f69565b34801561037857600080fd5b50610384600435610f6e565b60408051602080820185905291810183905260608082528551908201528451909182916080830191878101910280838360005b838110156103cf5781810151838201526020016103b7565b5050505090500194505050505060405180910390f35b3480156103f157600080fd5b50610345600160a060020a0360043516602435611013565b34801561041557600080fd5b506103456110c0565b34801561042a57600080fd5b50604080516020600460443581810135601f8101849004840285018401909552848452610345948235600160a060020a03169460248035953695946064949201919081908401838280828437509497506110c69650505050505050565b34801561049357600080fd5b506102ea6004356024356044356111c6565b3480156104b157600080fd5b506102ea60043561121f565b3480156104c957600080fd5b506104d560043561123f565b60408051602080825283518183015283519192839290830191858101910280838360005b838110156105115781810151838201526020016104f9565b505050509050019250505060405180910390f35b34801561053157600080fd5b506103456112a2565b34801561054657600080fd5b506103456112a7565b34801561055b57600080fd5b506103456112ad565b34801561057057600080fd5b5060408051602060046024803582810135601f81018590048502860185019096528585526105c29583359536956044949193909101919081908401838280828437509497506112b39650505050505050565b60408051600160a060020a039092168252519081900360200190f35b3480156105ea57600080fd5b506102c66113b6565b3480156105ff57600080fd5b50604080516020600460443581810135601f8101849004840285018401909552848452610345948235600160a060020a031694602480359536959460649492019190819084018382808284375050604080516020601f818a01358b0180359182018390048302840183018552818452989b8a359b909a90999401975091955091820193509150819084018382808284375094975061140f9650505050505050565b3480156106ac57600080fd5b506102ea6004356115aa565b3480156106c457600080fd5b506102ea600435602435611bb3565b3480156106df57600080fd5b506102ea611c4a565b3480156106f457600080fd5b506102ea600435611c53565b34801561070c57600080fd5b50610718600435611fbc565b6040518085600160a060020a0316600160a060020a0316815260200184815260200180602001838152602001828103825284818151815260200191508051906020019080838360005b83811015610779578181015183820152602001610761565b50505050905090810190601f1680156107a65780820380516001836020036101000a031916815260200191505b509550505050505060405180910390f35b3480156107c357600080fd5b50610345600160a060020a0360043516612078565b3480156107e457600080fd5b506105c2600435602435612084565b3480156107ff57600080fd5b506102ea600435600160a060020a0360243516600160e060020a03196044351660643515156120bb565b34801561083557600080fd5b506102ea600435602435151561211c565b34801561085257600080fd5b506102ea600435600160a060020a0360243516600160e060020a03196044351661213a565b34801561088357600080fd5b5061031361217c565b34801561089857600080fd5b506102c66121a0565b3480156108ad57600080fd5b506104d56004356121fb565b3480156108c557600080fd5b5061034561225c565b3480156108da57600080fd5b50610345612261565b3480156108ef57600080fd5b50610345612267565b34801561090457600080fd5b5061034561226d565b34801561091957600080fd5b50604080516020601f606435600481810135928301849004840285018401909552818452610345948035946024803595600160a060020a0360443516953695608494930191819084018382808284375050604080516020601f89358b018035918201839004830284018301909452808352979a99988101979196509182019450925082915084018382808284375050604080516020601f89358b018035918201839004830284018301909452808352979a9998810197919650918201945092508291508401838280828437509497506122729650505050505050565b348015610a0157600080fd5b50610345612723565b348015610a1657600080fd5b50604080516020600460443581810135601f8101849004840285018401909552848452610345948235600160a060020a03169460248035953695946064949201919081908401838280828437509497506127289650505050505050565b348015610a7f57600080fd5b5061034561274f565b348015610a9457600080fd5b50610313612754565b348015610aa957600080fd5b506040805160206004803580820135601f81018490048402850184019095528484526103139436949293602493928401919081908401838280828437509497506127789650505050505050565b348015610b0257600080fd5b50610b0e6004356127fc565b6040518087815260200186815260200185600160a060020a0316600160a060020a03168152602001806020018060200180602001848103845287818151815260200191508051906020019080838360005b83811015610b77578181015183820152602001610b5f565b50505050905090810190601f168015610ba45780820380516001836020036101000a031916815260200191505b50848103835286518152865160209182019188019080838360005b83811015610bd7578181015183820152602001610bbf565b50505050905090810190601f168015610c045780820380516001836020036101000a031916815260200191505b50848103825285518152855160209182019187019080838360005b83811015610c37578181015183820152602001610c1f565b50505050905090810190601f168015610c645780820380516001836020036101000a031916815260200191505b50995050505050505050505060405180910390f35b348015610c8557600080fd5b50610345612a52565b348015610c9a57600080fd5b506102c6600435612a58565b348015610cb257600080fd5b506102ea600435602435612aab565b348015610ccd57600080fd5b50604080516020601f6064356004818101359283018490048402850184019095528184526102ea948035946024803595600160a060020a0360443516953695608494930191819084018382808284375050604080516020601f89358b018035918201839004830284018301909452808352979a99988101979196509182019450925082915084018382808284375050604080516020601f89358b018035918201839004830284018301909452808352979a99988101979196509182019450925082915084018382808284375050604080516020601f89358b018035918201839004830284018301909452808352979a999881019791965091820194509250829150840183828082843750949750612abf9650505050505050565b348015610df357600080fd5b50604080516020601f6064356004818101359283018490048402850184019095528184526102ea94803594602480351515956044359536956084949301918190840183828082843750949750612ee09650505050505050565b348015610e5857600080fd5b506102c6600435612ffb565b348015610e7057600080fd5b5061034561304e565b348015610e8557600080fd5b506102c6600160a060020a0360043516613053565b348015610ea657600080fd5b50604080516020601f60643560048181013592830184900484028501840190955281845261034594600160a060020a03813581169560248035909216956044359536956084940191819084018382808284375094975050933594506130879350505050565b348015610f1757600080fd5b506103456131ad565b600160e060020a03191660009081526006602052604090205460ff1690565b7f01ffc9a7000000000000000000000000000000000000000000000000000000005b90565b600381565b600181565b6060600080610f7b61451c565b60008581526002602090815260409182902082518154608093810282018401909452606081018481529093919284928491840182828015610fdb57602002820191906000526020600020905b815481526020019060010190808311610fc7575b505050918352505060018201546020808301919091526002909201546040918201528251918301519201519097919650945092505050565b600082826040516020018083600160a060020a0316600160a060020a03166c01000000000000000000000000028152601401828152602001925050506040516020818303038152906040526040518082805190602001908083835b6020831061108d5780518252601f19909201916020918201910161106e565b5181516020939093036101000a600019018019909116921691909117905260405192018290039091209695505050505050565b600c5490565b60008383836040516020018084600160a060020a0316600160a060020a03166c0100000000000000000000000002815260140183815260200182805190602001908083835b6020831061112a5780518252601f19909201916020918201910161110b565b6001836020036101000a03801982511681845116808217855250505050505090500193505050506040516020818303038152906040526040518082805190602001908083835b6020831061118f5780518252601f199092019160209182019101611170565b6001836020036101000a038019825116818451168082178552505050505050905001915050604051809103902090505b9392505050565b60006111d06131b3565b15156111db57600080fd5b60055460ff16156111eb57600080fd5b6111fd6002858563ffffffff6131e516565b1561120a575060006111bf565b6112158484846132c9565b5060019392505050565b6000908152600a6020526040902060020154600160a060020a0316151590565b6000818152600b602090815260409182902080548351818402810184019094528084526060939283018282801561129657602002820191906000526020600020905b81548152600190910190602001808311611281575b50505050509050919050565b600281565b60075490565b60015481565b60006111bf826040805190810160405280601c81526020017f19457468657265756d205369676e6564204d6573736167653a0a333200000000815250856040516020018083805190602001908083835b602083106113225780518252601f199092019160209182019101611303565b51815160209384036101000a600019018019909216911617905292019384525060408051808503815293820190819052835193945092839250908401908083835b602083106113825780518252601f199092019160209182019101611363565b5181516020939093036101000a60001901801990911692169190911790526040519201829003909120939250506133109050565b6113be6131b3565b15156113c957600080fd5b60055460ff1615156113da57600080fd5b6005805460ff191690556040517f730c1faaa977b67dacf1e2451ef54556e04a07d577785ff79f6d31f73502efc990600090a1565b600554600090819060ff161561142457600080fd5b600754841461149457604080517f08c379a000000000000000000000000000000000000000000000000000000000815260206004820152600e60248201527f6e6f6e6365206d69736d61746368000000000000000000000000000000000000604482015290519081900360640190fd5b61158f878787876040516020018085600160a060020a0316600160a060020a03166c0100000000000000000000000002815260140184815260200183805190602001908083835b602083106114fa5780518252601f1990920191602091820191016114db565b51815160209384036101000a6000190180199092169116179052920193845250604080518085038152938201908190528351939650945084935085019190508083835b6020831061155c5780518252601f19909201916020918201910161153d565b6001836020036101000a0380198251168184511680821785525050505050509050019150506040518091039020846112b3565b905061159d818888886133e5565b91505b5095945050505050565b60006115b461453c565b600554600090819060ff16156115c957600080fd5b6000858152600a60205260409020600201548590600160a060020a03168015156115f257600080fd5b6115fa6131b3565b15611604576116dd565b33600160a060020a038216141561161a576116dd565b61163b61162561217c565b600160a060020a0383169063ffffffff6135a116565b156116d85780600160a060020a031663d202158d61165833612078565b6040805160e060020a63ffffffff85160281526004810192909252600260248301525160448083019260209291908290030181600087803b15801561169c57600080fd5b505af11580156116b0573d6000803e3d6000fd5b505050506040513d60208110156116c657600080fd5b505115156116d357600080fd5b6116dd565b600080fd5b6000878152600a6020908152604091829020825160c0810184528154815260018083015482850152600280840154600160a060020a0316838701526003840180548751601f9482161561010002600019019091169290920492830186900486028201860190965281815291949293606086019391908301828280156117a35780601f10611778576101008083540402835291602001916117a3565b820191906000526020600020905b81548152906001019060200180831161178657829003601f168201915b505050918352505060048201805460408051602060026001851615610100026000190190941693909304601f81018490048402820184019092528181529382019392918301828280156118375780601f1061180c57610100808354040283529160200191611837565b820191906000526020600020905b81548152906001019060200180831161181a57829003601f168201915b505050918352505060058201805460408051602060026001851615610100026000190190941693909304601f81018490048402820184019092528181529382019392918301828280156118cb5780601f106118a0576101008083540402835291602001916118cb565b820191906000526020600020905b8154815290600101906020018083116118ae57829003601f168201915b505050919092525050506040810151909550600160a060020a031615156118f157600080fd5b6000878152600a6020526040812081815560018101829055600281018054600160a060020a031916905590611929600383018261457c565b61193760048301600061457c565b61194560058301600061457c565b505084516000908152600b60205260408120945092505b83548310156119fc578354879085908590811061197557fe5b60009182526020909120015414156119f15783548490600019810190811061199957fe5b906000526020600020015484848154811015156119b257fe5b6000918252602090912001558354849060001981019081106119d057fe5b600091825260208220015583546119eb8560001983016145c3565b506119fc565b60019092019161195c565b600c60008154809291906001900391905055508460400151600160a060020a0316856000015188600019167f3cf57863a89432c61c4a27073c6ee39e8a764bff5a05aebfbcdcdc80b2e6130a886020015189606001518a608001518b60a0015160405180858152602001806020018060200180602001848103845287818151815260200191508051906020019080838360005b83811015611aa7578181015183820152602001611a8f565b50505050905090810190601f168015611ad45780820380516001836020036101000a031916815260200191505b50848103835286518152865160209182019188019080838360005b83811015611b07578181015183820152602001611aef565b50505050905090810190601f168015611b345780820380516001836020036101000a031916815260200191505b50848103825285518152855160209182019187019080838360005b83811015611b67578181015183820152602001611b4f565b50505050905090810190601f168015611b945780820380516001836020036101000a031916815260200191505b5097505050505050505060405180910390a45060019695505050505050565b600080611bbe6131b3565b1515611bc957600080fd5b60055460ff1615611bd957600080fd5b611beb6002858563ffffffff6131e516565b1515611bfa5760009150611c43565b611c0c6002858563ffffffff61365816565b6040519091508190849086907f585a4aef50f8267a92b32412b331b20f7f8b96f2245b253b9cc50dcc621d339790600090a4600191505b5092915050565b60055460ff1681565b6000611c5d61453c565b60055460ff1615611c6d57600080fd5b6000838152600a60205260409020600201548390600160a060020a0316801515611c9657600080fd5b611c9e6131b3565b15611ca857611d61565b33600160a060020a0382161415611cbe57611d61565b611cc961162561217c565b156116d85780600160a060020a031663d202158d611ce633612078565b6040805160e060020a63ffffffff85160281526004810192909252600260248301525160448083019260209291908290030181600087803b158015611d2a57600080fd5b505af1158015611d3e573d6000803e3d6000fd5b505050506040513d6020811015611d5457600080fd5b50511515611d6157600080fd5b6000858152600a6020908152604091829020825160c0810184528154815260018083015482850152600280840154600160a060020a0316838701526003840180548751601f948216156101000260001901909116929092049283018690048602820186019096528181529194929360608601939190830182828015611e275780601f10611dfc57610100808354040283529160200191611e27565b820191906000526020600020905b815481529060010190602001808311611e0a57829003601f168201915b505050918352505060048201805460408051602060026001851615610100026000190190941693909304601f8101849004840282018401909252818152938201939291830182828015611ebb5780601f10611e9057610100808354040283529160200191611ebb565b820191906000526020600020905b815481529060010190602001808311611e9e57829003601f168201915b505050918352505060058201805460408051602060026001851615610100026000190190941693909304601f8101849004840282018401909252818152938201939291830182828015611f4f5780601f10611f2457610100808354040283529160200191611f4f565b820191906000526020600020905b815481529060010190602001808311611f3257829003601f168201915b505050919092525050506040810151909350600160a060020a03161515611f7557600080fd5b611f9683600001518460200151856040015186606001518760800151613803565b1515611faf57611fa5856115aa565b5060009350611fb4565b600193505b505050919050565b60086020908152600091825260409182902080546001808301546002808501805488516101009582161595909502600019011691909104601f8101879004870284018701909752868352600160a060020a039093169590949192918301828280156120685780601f1061203d57610100808354040283529160200191612068565b820191906000526020600020905b81548152906001019060200180831161204b57829003601f168201915b5050505050908060030154905084565b600160a060020a031690565b60096020528160005260406000208181548110151561209f57fe5b600091825260209091200154600160a060020a03169150829050565b60006120c56131b3565b15156120d057600080fd5b60055460ff16156120e057600080fd5b6120f160028663ffffffff61393a16565b15156120fc57600080fd5b61211060028686868663ffffffff6139cc16565b50600195945050505050565b60055460009060ff161561212f57600080fd5b6111bf338484613a15565b6000838152600260209081526040808320600160a060020a03861684526003018252808320600160e060020a03198516845290915290205460ff169392505050565b7fdc3d2a7b0000000000000000000000000000000000000000000000000000000090565b6121a86131b3565b15156121b357600080fd5b60055460ff16156121c357600080fd5b6005805460ff191660011790556040517f4b314b34e912fda7f95e7d23e9c8c95f82f0aff1984e4ce592a0b005f905562490600090a1565b6000818152600360209081526040918290208054835181840281018401909452808452606093928301828280156112965760200282019190600052602060002090815481526001909101906020018083116112815750505050509050919050565b600481565b60005481565b60075481565b600881565b60055460009081908190819060ff161561228b57600080fd5b6122988a8a8a8a8a613803565b15156122a357600080fd5b6122ab6131b3565b92508215156124f9576040517fb61d27f600000000000000000000000000000000000000000000000000000000815230600482018181526000602484018190526060604485019081523660648601819052939463b61d27f694869484939192909190608401848480828437820191505095505050505050602060405180830381600087803b15801561233c57600080fd5b505af1158015612350573d6000803e3d6000fd5b505050506040513d602081101561236657600080fd5b8101908080519060200190929190505050935087600160a060020a03168a857fe6b6db97dedfb44cbced367387e40b3f92dbee1b1be87f9367f7b673532b0d698c8b8b8b60405180858152602001806020018060200180602001848103845287818151815260200191508051906020019080838360005b838110156123f55781810151838201526020016123dd565b50505050905090810190601f1680156124225780820380516001836020036101000a031916815260200191505b50848103835286518152865160209182019188019080838360005b8381101561245557818101518382015260200161243d565b50505050905090810190601f1680156124825780820380516001836020036101000a031916815260200191505b50848103825285518152855160209182019187019080838360005b838110156124b557818101518382015260200161249d565b50505050905090810190601f1680156124e25780820380516001836020036101000a031916815260200191505b5097505050505050505060405180910390a4612716565b612503888b611013565b6000818152600a6020526040902060020154909250600160a060020a0316151561253b57612536828b8b8b8b8b8b613db4565b612716565b506000818152600a60209081526040909120600181018a9055875190916125699160038401918a01906145ec565b50855161257f90600483019060208901906145ec565b50845161259590600583019060208801906145ec565b5087600160a060020a03168a83600019167f3bab293fc00db832d7619a9299914251b8747c036867ec056cbd506f60135b138c8b8b8b60405180858152602001806020018060200180602001848103845287818151815260200191508051906020019080838360005b838110156126165781810151838201526020016125fe565b50505050905090810190601f1680156126435780820380516001836020036101000a031916815260200191505b50848103835286518152865160209182019188019080838360005b8381101561267657818101518382015260200161265e565b50505050905090810190601f1680156126a35780820380516001836020036101000a031916815260200191505b50848103825285518152855160209182019187019080838360005b838110156126d65781810151838201526020016126be565b50505050905090810190601f1680156127035780820380516001836020036101000a031916815260200191505b5097505050505050505060405180910390a45b5050509695505050505050565b600581565b60055460009060ff161561273b57600080fd5b612747338585856133e5565b949350505050565b600781565b7f107653790000000000000000000000000000000000000000000000000000000090565b600080805b6004811015611c435780600802848281518110151561279857fe5b60209101015160029190910a7f0100000000000000000000000000000000000000000000000000000000000000918290049091027fff000000000000000000000000000000000000000000000000000000000000001604919091179060010161277d565b6000806000606080606061280e61453c565b6000888152600a6020908152604091829020825160c0810184528154815260018083015482850152600280840154600160a060020a0316838701526003840180548751601f9482161561010002600019019091169290920492830186900486028201860190965281815291949293606086019391908301828280156128d45780601f106128a9576101008083540402835291602001916128d4565b820191906000526020600020905b8154815290600101906020018083116128b757829003601f168201915b505050918352505060048201805460408051602060026001851615610100026000190190941693909304601f81018490048402820184019092528181529382019392918301828280156129685780601f1061293d57610100808354040283529160200191612968565b820191906000526020600020905b81548152906001019060200180831161294b57829003601f168201915b505050918352505060058201805460408051602060026001851615610100026000190190941693909304601f81018490048402820184019092528181529382019392918301828280156129fc5780601f106129d1576101008083540402835291602001916129fc565b820191906000526020600020905b8154815290600101906020018083116129df57829003601f168201915b505050919092525050506040810151909150600160a060020a03161515612a2257600080fd5b8051602082015160408301516060840151608085015160a090950151939c929b5090995097509195509350915050565b60045490565b60055460009060ff1615612a6b57600080fd5b612a736131b3565b1515612a7e57600080fd5b60008211612a8b57600080fd5b612a9560016121fb565b51905080821115612aa557600080fd5b50600055565b60006111bf6002848463ffffffff6131e516565b60055460009081908190819060ff1615612ad857600080fd5b612ae58b8b8b8b8b613803565b1515612af057600080fd5b612c898b8b8b8b8b8b6040516020018087815260200186815260200185600160a060020a0316600160a060020a03166c0100000000000000000000000002815260140184805190602001908083835b60208310612b5e5780518252601f199092019160209182019101612b3f565b51815160209384036101000a600019018019909216911617905286519190930192860191508083835b60208310612ba65780518252601f199092019160209182019101612b87565b51815160209384036101000a600019018019909216911617905285519190930192850191508083835b60208310612bee5780518252601f199092019160209182019101612bcf565b6001836020036101000a03801982511681845116808217855250505050505090500196505050505050506040516020818303038152906040526040518082805190602001908083835b60208310612c565780518252601f199092019160209182019101612c37565b6001836020036101000a0380198251168184511680821785525050505050509050019150506040518091039020866112b3565b9250612ca7612c9784612078565b600290600163ffffffff6131e516565b1515612cb257600080fd5b612cbc898c611013565b6000818152600a6020526040902060020154909250600160a060020a03161515612cf457612cef828c8c8c8c8c8c613db4565b612ecf565b506000818152600a60209081526040909120600181018b905588519091612d229160038401918b01906145ec565b508651612d3890600483019060208a01906145ec565b508551612d4e90600583019060208901906145ec565b5088600160a060020a03168b83600019167f3bab293fc00db832d7619a9299914251b8747c036867ec056cbd506f60135b138d8c8c8c60405180858152602001806020018060200180602001848103845287818151815260200191508051906020019080838360005b83811015612dcf578181015183820152602001612db7565b50505050905090810190601f168015612dfc5780820380516001836020036101000a031916815260200191505b50848103835286518152865160209182019188019080838360005b83811015612e2f578181015183820152602001612e17565b50505050905090810190601f168015612e5c5780820380516001836020036101000a031916815260200191505b50848103825285518152855160209182019187019080838360005b83811015612e8f578181015183820152602001612e77565b50505050905090810190601f168015612ebc5780820380516001836020036101000a031916815260200191505b5097505050505050505060405180910390a45b5060019a9950505050505050505050565b600554600090819060ff1615612ef557600080fd5b6007548414612f6557604080517f08c379a000000000000000000000000000000000000000000000000000000000815260206004820152600e60248201527f6e6f6e6365206d69736d61746368000000000000000000000000000000000000604482015290519081900360640190fd5b6040805160208082018990527f010000000000000000000000000000000000000000000000000000000000000088151502828401526041808301889052835180840390910181526061909201928390528151612fe493918291908401908083836020831061155c5780518252601f19909201916020918201910161153d565b9050612ff1818787613a15565b9695505050505050565b60055460009060ff161561300e57600080fd5b6130166131b3565b151561302157600080fd5b6000821161302e57600080fd5b61303860026121fb565b5190508082111561304857600080fd5b50600155565b600681565b61305b6131b3565b151561306657600080fd5b600160a060020a038116151561307b57600080fd5b80600160a060020a0316ff5b600085858585856040516020018086600160a060020a0316600160a060020a03166c0100000000000000000000000002815260140185600160a060020a0316600160a060020a03166c0100000000000000000000000002815260140184815260200183805190602001908083835b602083106131145780518252601f1990920191602091820191016130f5565b51815160209384036101000a600019018019909216911617905292019384525060408051808503815293820190819052835193975095508594508601925081905083835b602083106131775780518252601f199092019160209182019101613158565b5181516020939093036101000a600019018019909116921691909117905260405192018290039091209998505050505050505050565b600c5481565b6000333014156131c557506001610f61565b6000546001146131d457600080fd5b6131e0612c9733612078565b905090565b60006131ef61451c565b600084815260208681526040808320815181546080948102820185019093526060810183815290939192849284919084018282801561324d57602002820191906000526020600020905b815481526020019060010190808311613239575b505050918352505060018201546020820152600290910154604091820152810151909250151561328057600092506132c0565b5060005b8151518110156132c057815180518591908390811061329f57fe5b9060200190602002015114156132b857600192506132c0565b600101613284565b50509392505050565b6132dc600284848463ffffffff61402c16565b6040518190839085907f480000bb1edad8ca1470381cc334b1917fbd51c6531f3a623ea8e0ec7e38a6e990600090a4505050565b6000806000808451604114151561332a57600093506133dc565b50505060208201516040830151606084015160001a601b60ff8216101561334f57601b015b8060ff16601b1415801561336757508060ff16601c14155b1561337557600093506133dc565b60408051600080825260208083018085528a905260ff8516838501526060830187905260808301869052925160019360a0808501949193601f19840193928390039091019190865af11580156133cf573d6000803e3d6000fd5b5050506020604051035193505b50505092915050565b6000806133f061466a565b6133fb87878661409d565b915061340c30878787600754613087565b92508486600160a060020a0316847f8afcfabcb00e47a53a8fc3e9f23ff47ee1926194bb1350dd007c50b412a6cee8876040518080602001828103825283818151815260200191508051906020019080838360005b83811015613479578181015183820152602001613461565b50505050905090810190601f1680156134a65780820380516001836020036101000a031916815260200191505b509250505060405180910390a45060078054600101905560408051608081018252600160a060020a03871681526020810186905290810184905260608101829052811515613500576134fa8382600061424e565b50613597565b60008381526008602090815260409182902083518154600160a060020a031916600160a060020a039091161781558382015160018201559183015180518493926135519260028501929101906145ec565b50606091909101516003909101556000838152600960209081526040822080546001810182559083529120018054600160a060020a031916600160a060020a0389161790555b5050949350505050565b600080806135cf857f01ffc9a7000000000000000000000000000000000000000000000000000000006144d0565b90925090508115806135df575080155b156135ed5760009250613650565b6135ff85600160e060020a03196144d0565b909250905081158061361057508015155b1561361e5760009250613650565b61362885856144d0565b909250905060018214801561363d5750806001145b1561364b5760019250613650565b600092505b505092915050565b6000828152602084905260408120600181015491805b82548210156137185784838381548110151561368657fe5b9060005260206000200154141561370d578254839060001981019081106136a957fe5b906000526020600020015483838154811015156136c257fe5b6000918252602090912001558254839060001981019081106136e057fe5b600091825260208220015582546136fb8460001983016145c3565b50600287018054600019019055613718565b60019091019061366e565b8254151561374a57600086815260208890526040812090613739828261469c565b506000600182018190556002909101555b5050600083815260018601602052604081205b80548210156137f9578054869082908490811061377657fe5b60009182526020909120015414156137ee5780548190600019810190811061379a57fe5b906000526020600020015481838154811015156137b357fe5b6000918252602090912001558054819060001981019081106137d157fe5b600091825260208220015580546137ec8260001983016145c3565b505b60019091019061375d565b5050509392505050565b60008060018614156139315761382361381d3089866110c6565b856112b3565b905080600160a060020a031685600160a060020a0316141561384857600191506115a0565b600160a060020a03851630141561387c5761387561386582612078565b600290600363ffffffff6131e516565b91506115a0565b61389d61388761217c565b600160a060020a0387169063ffffffff6135a116565b156139315784600160a060020a031663d202158d6138ba83612078565b6040805160e060020a63ffffffff85160281526004810192909252600360248301525160448083019260209291908290030181600087803b1580156138fe57600080fd5b505af1158015613912573d6000803e3d6000fd5b505050506040513d602081101561392857600080fd5b505191506115a0565b600091506115a0565b600061394461451c565b60008381526020858152604091829020825181546080938102820184019094526060810184815290939192849284918401828280156139a257602002820191906000526020600020905b81548152602001906001019080831161398e575b50505091835250506001820154602082015260029091015460409182015201511515949350505050565b600093845260209485526040808520600160a060020a0394909416855260039093018552828420600160e060020a031992909216845293529020805460ff191682151517905590565b6000808080851515613a2657600080fd5b60008681526008602052604090208054909350600160a060020a03161515613a4d57600080fd5b825460028085018054604080516020601f6000196001861615610100020190941695909504928301859004850281018501909152818152613af4948c94600160a060020a0390911693919290830182828015613aea5780601f10613abf57610100808354040283529160200191613aea565b820191906000526020600020905b815481529060010190602001808311613acd57829003601f168201915b505050505061409d565b50604080518615158152905187917fb3932da477fe5d6c8ff2eafef050c0f3a1af18fc07121001482600f36f3715d8919081900360200190a260008681526009602052604090209150841515613c47575060005b8154811015613c3e5786600160a060020a03168282815481101515613b6957fe5b600091825260209091200154600160a060020a03161415613c3657815482906000198101908110613b9657fe5b6000918252602090912001548254600160a060020a0390911690839083908110613bbc57fe5b60009182526020909120018054600160a060020a031916600160a060020a0392909216919091179055815482906000198101908110613bf757fe5b60009182526020909120018054600160a060020a03191690558154613c208360001983016145c3565b50600383018054600190810190915593506137f9565b600101613b48565b600093506137f9565b5060005b8154811015613c945786600160a060020a03168282815481101515613c6c57fe5b600091825260209091200154600160a060020a03161415613c8c57600080fd5b600101613c4b565b8154600181018355600083815260209020018054600160a060020a031916600160a060020a03891617905560038301805460001901908190551515613dab57604080516080810182528454600160a060020a031681526001808601546020808401919091526002808801805486516101009582161595909502600019011691909104601f81018390048302840183018652808452613da4958c95948a949186019390929091830182828015613d8a5780601f10613d5f57610100808354040283529160200191613d8a565b820191906000526020600020905b815481529060010190602001808311613d6d57829003601f168201915b50505050508152602001600382015481525050600161424e565b93506137f9565b600193506137f9565b6040805160c0810182528781526020808201888152600160a060020a03888116848601908152606085018981526080860189905260a0860188905260008e8152600a865296909620855181559251600184015551600283018054600160a060020a0319169190921617905592518051929392613e3692600385019201906145ec565b5060808201518051613e529160048401916020909101906145ec565b5060a08201518051613e6e9160058401916020909101906145ec565b5050506000868152600b60209081526040808320805460018181018355918552838520018b9055600c80549091019055805188815260808184018181528851918301919091528751600160a060020a038a16958c958e957f46149b18aa084502c3f12bc75e19eda8bda8d102b82cce8474677a6d0d5f43c5958e958d958d958d959394929392850192606086019260a0870192918a01918190849084905b83811015613f24578181015183820152602001613f0c565b50505050905090810190601f168015613f515780820380516001836020036101000a031916815260200191505b50848103835286518152865160209182019188019080838360005b83811015613f84578181015183820152602001613f6c565b50505050905090810190601f168015613fb15780820380516001836020036101000a031916815260200191505b50848103825285518152855160209182019187019080838360005b83811015613fe4578181015183820152602001613fcc565b50505050905090810190601f1680156140115780820380516001836020036101000a031916815260200191505b5097505050505050505060405180910390a450505050505050565b600083815260208581526040822080546001810182558184529190922001839055600281015415156140675760028101849055600181018290555b50506000908152600180840160209081526040832080548084018255908452922090910191909155600290910180549091019055565b6000600160a060020a03831630141561414857600160a060020a0384163014156140ca5750600054614143565b6140d6612c9785612078565b8061413557506140f86140e885612078565b600290600763ffffffff6131e516565b801561413557507f1d3812400000000000000000000000000000000000000000000000000000000061412983612778565b600160e060020a031916145b156116d85750600054600019015b6111bf565b600160a060020a038316151561415d57600080fd5b600160a060020a03841630141561417757506001546111bf565b61419261418385612078565b6002908163ffffffff6131e516565b806141b457506141b46141a485612078565b600290600663ffffffff6131e516565b8061423c57506141d66141c685612078565b600290600863ffffffff6131e516565b801561423c5750600260006141ea86612078565b815260208082019290925260409081016000908120600160a060020a038716825260030190925281209061421d84612778565b600160e060020a031916815260208101919091526040016000205460ff165b156116d85750600154600019016111bf565b81516000908190600160a060020a0316151561426957600080fd5b8360000151600160a060020a03168460200151856040015160405180828051906020019080838360005b838110156142ab578181015183820152602001614293565b50505050905090810190601f1680156142d85780820380516001836020036101000a031916815260200191505b5091505060006040518083038185875af19250505090508015156143b05783602001518460000151600160a060020a0316867fe10c49d9f7c71da23262367013434763cfdb2332267641728d25cd712c5c6a6887604001516040518080602001828103825283818151815260200191508051906020019080838360005b8381101561436d578181015183820152602001614355565b50505050905090810190601f16801561439a5780820380516001836020036101000a031916815260200191505b509250505060405180910390a4600091506144c8565b83602001518460000151600160a060020a0316867f1f920dbda597d7bf95035464170fa58d0a4b57f13a1c315ace6793b9f63688b887604001516040518080602001828103825283818151815260200191508051906020019080838360005b8381101561442757818101518382015260200161440f565b50505050905090810190601f1680156144545780820380516001836020036101000a031916815260200191505b509250505060405180910390a482151561447157600191506144c8565b60008581526008602052604081208054600160a060020a031916815560018101829055906144a2600283018261457c565b5060006003919091018190558581526009602052604081206144c39161469c565b600191505b509392505050565b6040517f01ffc9a70000000000000000000000000000000000000000000000000000000080825260048201839052600091829190602081818189617530fa905190969095509350505050565b604080516060818101835281526000602082018190529181019190915290565b60c06040519081016040528060008152602001600081526020016000600160a060020a031681526020016060815260200160608152602001606081525090565b50805460018160011615610100020316600290046000825580601f106145a257506145c0565b601f0160209004906000526020600020908101906145c091906146b6565b50565b8154818355818111156145e7576000838152602090206145e79181019083016146b6565b505050565b828054600181600116156101000203166002900490600052602060002090601f016020900481019282601f1061462d57805160ff191683800117855561465a565b8280016001018555821561465a579182015b8281111561465a57825182559160200191906001019061463f565b506146669291506146b6565b5090565b6080604051908101604052806000600160a060020a031681526020016000815260200160608152602001600081525090565b50805460008255906000526020600020908101906145c091905b610f6191905b8082111561466657600081556001016146bc5600a165627a7a72305820023b983309fa8a5f2c5ecf166946a47dad9903264fa4b40a70ec00eeb80761630029a165627a7a72305820ee40d465bf4ee00d5873318ed455cd545776fbb0053cc00ef022916ae5f557df0029",
  "source": "pragma solidity ^0.4.24;\n\nimport \"./openzeppelin-solidity/contracts/ownership/Ownable.sol\";\nimport \"./identity/MetaIdentity.sol\";\nimport \"./RegistryUser.sol\";\n\n\n/**\n * @title IdentityManager\n * @dev IdentityManager is factory contract to make identity\n * permissoined sender can create metadium identity through this contract\n */\ncontract IdentityManager is RegistryUser {\n    //Hold the list of MetaIds\n    //CreateMetaId\n    \n    address[] public metaIds;\n    mapping(address=>bool) metaIdExistence;\n\n    event CreateMetaId(address indexed managementKey, address metaId);\n    \n    constructor() public {\n        THIS_NAME = \"IdentityManager\";\n    }\n\n\n    /**\n     * @dev Create Metadium Identity which is based upon erc725-735 \n     * @param _managementKey basic managementKey to use\n     * @return A boolean that indicates if the operation was successful.\n     */\n    function createMetaId(address _managementKey) public permissioned returns (bool success) {\n        require(_managementKey != address(0), \"address is 0x0\");\n\n        address newMetaId = new MetaIdentity(_managementKey);\n        metaIds.push(newMetaId);\n        metaIdExistence[newMetaId] = true;\n\n        emit CreateMetaId(_managementKey, newMetaId);\n\n        return true;\n\n    }\n    /**\n     * @dev Add MetaId to the list. This function is for migration.\n     * @param _metaId meta id address\n     * @return A boolean that indicates if the operation was successful.\n     */\n    function addMetaId(address _metaId, address _managementKey) public permissioned returns (bool success) {\n        metaIds.push(_metaId);\n        metaIdExistence[_metaId] = true;\n\n        emit CreateMetaId(_managementKey, _metaId);\n        \n        return true;\n    }\n\n    function getDeployedMetaIds() public view returns(address[] addrs) {\n        return metaIds;\n    }\n\n    function isMetaId(address _addr) public view returns(bool found) {\n        return metaIdExistence[_addr];\n    }\n\n    function getLengthOfMetaIds() public view returns(uint256 length) {\n        return metaIds.length;\n    }\n\n}",
  "sourcePath": "/Users/coinplug/BangGijin/metabolics2.0/contracts/IdentityManager.sol",
  "compiler": {
    "name": "solc",
    "version": "0.4.24+commit.e67f0147.Emscripten.clang"
  },
  "schemaVersion": "2.0.1",
  "updatedAt": "2018-11-20T02:35:08.394Z"
}