{
  "contractName": "IdentityManager",
  "abi": [
    {
      "constant": true,
      "inputs": [],
      "name": "REG",
      "outputs": [
        {
          "name": "",
          "type": "address"
        }
      ],
      "payable": false,
      "stateMutability": "view",
      "type": "function"
    },
    {
      "constant": false,
      "inputs": [],
      "name": "isPermitted",
      "outputs": [
        {
          "name": "",
          "type": "bool"
        }
      ],
      "payable": false,
      "stateMutability": "nonpayable",
      "type": "function"
    },
    {
      "constant": true,
      "inputs": [],
      "name": "THIS_NAME",
      "outputs": [
        {
          "name": "",
          "type": "bytes32"
        }
      ],
      "payable": false,
      "stateMutability": "view",
      "type": "function"
    },
    {
      "constant": true,
      "inputs": [
        {
          "name": "",
          "type": "uint256"
        }
      ],
      "name": "metaIds",
      "outputs": [
        {
          "name": "",
          "type": "address"
        }
      ],
      "payable": false,
      "stateMutability": "view",
      "type": "function"
    },
    {
      "constant": true,
      "inputs": [],
      "name": "owner",
      "outputs": [
        {
          "name": "",
          "type": "address"
        }
      ],
      "payable": false,
      "stateMutability": "view",
      "type": "function"
    },
    {
      "constant": false,
      "inputs": [
        {
          "name": "_addr",
          "type": "address"
        }
      ],
      "name": "setRegistry",
      "outputs": [],
      "payable": false,
      "stateMutability": "nonpayable",
      "type": "function"
    },
    {
      "constant": false,
      "inputs": [
        {
          "name": "newOwner",
          "type": "address"
        }
      ],
      "name": "transferOwnership",
      "outputs": [],
      "payable": false,
      "stateMutability": "nonpayable",
      "type": "function"
    },
    {
      "inputs": [],
      "payable": false,
      "stateMutability": "nonpayable",
      "type": "constructor"
    },
    {
      "anonymous": false,
      "inputs": [
        {
          "indexed": false,
          "name": "addr",
          "type": "address"
        },
        {
          "indexed": false,
          "name": "name",
          "type": "bytes32"
        },
        {
          "indexed": false,
          "name": "go",
          "type": "bool"
        }
      ],
      "name": "Per",
      "type": "event"
    },
    {
      "anonymous": false,
      "inputs": [
        {
          "indexed": true,
          "name": "previousOwner",
          "type": "address"
        },
        {
          "indexed": true,
          "name": "newOwner",
          "type": "address"
        }
      ],
      "name": "OwnershipTransferred",
      "type": "event"
    },
    {
      "constant": false,
      "inputs": [
        {
          "name": "_managementKey",
          "type": "address"
        }
      ],
      "name": "createMetaId",
      "outputs": [
        {
          "name": "",
          "type": "bool"
        }
      ],
      "payable": false,
      "stateMutability": "nonpayable",
      "type": "function"
    },
    {
      "constant": true,
      "inputs": [],
      "name": "getDeployedMetaIds",
      "outputs": [
        {
          "name": "",
          "type": "address[]"
        }
      ],
      "payable": false,
      "stateMutability": "view",
      "type": "function"
    },
    {
      "constant": true,
      "inputs": [
        {
          "name": "_addr",
          "type": "address"
        }
      ],
      "name": "isMetaId",
      "outputs": [
        {
          "name": "",
          "type": "bool"
        }
      ],
      "payable": false,
      "stateMutability": "view",
      "type": "function"
    },
    {
      "constant": true,
      "inputs": [],
      "name": "getLengthOfMetaIds",
      "outputs": [
        {
          "name": "",
          "type": "uint256"
        }
      ],
      "payable": false,
      "stateMutability": "view",
      "type": "function"
    }
  ],
  "bytecode": "0x608060405234801561001057600080fd5b5060008054600160a060020a031916331790557f4964656e746974794d616e616765720000000000000000000000000000000000600255614685806100566000396000f3006080604052600436106100ae5763ffffffff7c010000000000000000000000000000000000000000000000000000000060003504166312459b0081146100b357806339363112146100e85780633f6fd7121461011957806357296f071461012e57806364319d0b1461015557806373fd4e8f1461016a5780638da5cb5b14610182578063a91ee0dc14610197578063ab1796cf146101ba578063df483f531461021f578063f2fde38b14610240575b600080fd5b3480156100bf57600080fd5b506100d4600160a060020a0360043516610261565b604080519115158252519081900360200190f35b3480156100f457600080fd5b506100fd61027f565b60408051600160a060020a039092168252519081900360200190f35b34801561012557600080fd5b506100d461028e565b34801561013a57600080fd5b5061014361032e565b60408051918252519081900360200190f35b34801561016157600080fd5b50610143610334565b34801561017657600080fd5b506100fd60043561033a565b34801561018e57600080fd5b506100fd610362565b3480156101a357600080fd5b506101b8600160a060020a0360043516610371565b005b3480156101c657600080fd5b506101cf6103b7565b60408051602080825283518183015283519192839290830191858101910280838360005b8381101561020b5781810151838201526020016101f3565b505050509050019250505060405180910390f35b34801561022b57600080fd5b506100d4600160a060020a0360043516610419565b34801561024c57600080fd5b506101b8600160a060020a03600435166104de565b600160a060020a031660009081526004602052604090205460ff1690565b600154600160a060020a031681565b600154600254604080517f60d6c7cf000000000000000000000000000000000000000000000000000000008152600481019290925233602483015251600092600160a060020a0316916360d6c7cf91604480830192602092919082900301818787803b1580156102fd57600080fd5b505af1158015610311573d6000803e3d6000fd5b505050506040513d602081101561032757600080fd5b5051905090565b60035490565b60025481565b600380548290811061034857fe5b600091825260209091200154600160a060020a0316905081565b600054600160a060020a031681565b600054600160a060020a0316331461038857600080fd5b6001805473ffffffffffffffffffffffffffffffffffffffff1916600160a060020a0392909216919091179055565b6060600380548060200260200160405190810160405280929190818152602001828054801561040f57602002820191906000526020600020905b8154600160a060020a031681526001909101906020018083116103f1575b5050505050905090565b60008061042461028e565b151561042f57600080fd5b82610438610572565b600160a060020a03909116815260405190819003602001906000f080158015610465573d6000803e3d6000fd5b506003805460018181019092557fc2575a0e9e593c00f959f8c92f12db2869c3395a3b0502d05e2516446f71f85b018054600160a060020a0390931673ffffffffffffffffffffffffffffffffffffffff1990931683179055600091825260046020526040909120805460ff1916909117905550919050565b600054600160a060020a031633146104f557600080fd5b600160a060020a038116151561050a57600080fd5b60008054604051600160a060020a03808516939216917f8be0079c531659141344cd1fd0a4f28419497f9722a3daafe3b4186f6b6457e091a36000805473ffffffffffffffffffffffffffffffffffffffff1916600160a060020a0392909216919091179055565b6040516140d680620005848339019056006080604052600160008190558080556005805460ff191690556007553480156200002857600080fd5b50604051602080620040d6833981016040525160006001600682620000556401000000006200022b810204565b7fffffffff0000000000000000000000000000000000000000000000000000000016815260208101919091526040016000908120805460ff191692151592909217909155600190600690620000b26401000000006200024f810204565b7fffffffff0000000000000000000000000000000000000000000000000000000016815260208101919091526040016000908120805460ff1916921515929092179091556001906006906200010f64010000000062000273810204565b7fffffffff000000000000000000000000000000000000000000000000000000001681526020810191909152604001600020805460ff1916911515919091179055620001648264010000000062000297810204565b90506200017d81600180640100000000620002a3810204565b620001958160026001640100000000620002a3810204565b620001ad8160036001640100000000620002a3810204565b60016000818155818055600690620001cd64010000000062000273810204565b620001e06401000000006200024f810204565b187fffffffff000000000000000000000000000000000000000000000000000000001681526020810191909152604001600020805460ff191691151591909117905550620003669050565b7f01ffc9a70000000000000000000000000000000000000000000000000000000090565b7fdc3d2a7b0000000000000000000000000000000000000000000000000000000090565b7f107653790000000000000000000000000000000000000000000000000000000090565b600160a060020a031690565b620002c0600284848464010000000062003ac3620002f482021704565b6040518190839085907f480000bb1edad8ca1470381cc334b1917fbd51c6531f3a623ea8e0ec7e38a6e990600090a4505050565b60008381526020858152604082208054600181018255818452919092200183905560028101541515620003305760028101849055600181018290555b50506000908152600180840160209081526040832080548084018255908452922090910191909155600290910180549091019055565b613d6080620003766000396000f3006080604052600436106102585763ffffffff60e060020a60003504166301ffc9a7811461025a57806302e7491e146102905780630440b43a146102c2578063058b316c146102e957806312aaac70146102fe578063190db862146103775780631d203be81461039b5780631d38124014610404578063251de3e9146102c2578063262b54f5146104225780632d32d4421461048a57806338f4edd41461049f5780633b8a12c8146104b45780633f4ba83a1461052e57806349991ec8146102e95780634eee424a1461054357806353d413c51461055b5780635c975abb146105765780635d7bc3fc1461058b5780635dccebba146105a357806363f14c3c1461065a5780636e4c43111461067b578063710ca550146102e9578063747442d31461069657806375e5598c1461048a5780637d96fa58146106b357806382d09446146102e95780638456cb59146106c85780639010f726146106dd5780639e140cc8146106f5578063a550f0c71461048a578063aa0a51421461070a578063ae628386146106f5578063affed0e01461071f578063b132734e14610734578063b1a34e0d14610749578063b1e9f64c14610831578063b61d27f614610846578063b9133d63146108af578063bf2f20ad146108c4578063c6702187146102c2578063c9100bcb146108d9578063c9d24ecc14610a5c578063ccfe586814610a71578063d202158d14610a89578063dbfa74b714610831578063e0610ba314610aa4578063e99896b814610bca578063ead09fab14610be2578063f22d08a61461048a578063f5074f4114610bf7578063fc0fc84914610c18575b005b34801561026657600080fd5b5061027c600160e060020a031960043516610c2d565b604080519115158252519081900360200190f35b34801561029c57600080fd5b506102a5610c4c565b60408051600160e060020a03199092168252519081900360200190f35b3480156102ce57600080fd5b506102d7610c71565b60408051918252519081900360200190f35b3480156102f557600080fd5b506102d7610c76565b34801561030a57600080fd5b50610316600435610c7b565b60408051602080820185905291810183905260608082528551908201528451909182916080830191878101910280838360005b83811015610361578181015183820152602001610349565b5050505090500194505050505060405180910390f35b34801561038357600080fd5b506102d7600160a060020a0360043516602435610d20565b3480156103a757600080fd5b50604080516020600460443581810135601f81018490048402850184019095528484526102d7948235600160a060020a0316946024803595369594606494920191908190840183828082843750949750610dcd9650505050505050565b34801561041057600080fd5b5061027c600435602435604435610ecd565b34801561042e57600080fd5b5061043a600435610f26565b60408051602080825283518183015283519192839290830191858101910280838360005b8381101561047657818101518382015260200161045e565b505050509050019250505060405180910390f35b34801561049657600080fd5b506102d7610f89565b3480156104ab57600080fd5b506102d7610f8e565b3480156104c057600080fd5b5060408051602060046024803582810135601f8101859004850286018501909652858552610512958335953695604494919390910191908190840183828082843750949750610f949650505050505050565b60408051600160a060020a039092168252519081900360200190f35b34801561053a57600080fd5b50610258611097565b34801561054f57600080fd5b5061027c6004356110f0565b34801561056757600080fd5b5061027c6004356024356116f9565b34801561058257600080fd5b5061027c611790565b34801561059757600080fd5b5061027c600435611799565b3480156105af57600080fd5b506105bb600435611b02565b6040518085600160a060020a0316600160a060020a0316815260200184815260200180602001838152602001828103825284818151815260200191508051906020019080838360005b8381101561061c578181015183820152602001610604565b50505050905090810190601f1680156106495780820380516001836020036101000a031916815260200191505b509550505050505060405180910390f35b34801561066657600080fd5b506102d7600160a060020a0360043516611bbe565b34801561068757600080fd5b50610512600435602435611bca565b3480156106a257600080fd5b5061027c6004356024351515611c01565b3480156106bf57600080fd5b506102a5611f5c565b3480156106d457600080fd5b50610258611f80565b3480156106e957600080fd5b5061043a600435611fdb565b34801561070157600080fd5b506102d761203c565b34801561071657600080fd5b506102d7612041565b34801561072b57600080fd5b506102d7612047565b34801561074057600080fd5b506102d761204d565b34801561075557600080fd5b50604080516020601f6064356004818101359283018490048402850184019095528184526102d7948035946024803595600160a060020a0360443516953695608494930191819084018382808284375050604080516020601f89358b018035918201839004830284018301909452808352979a99988101979196509182019450925082915084018382808284375050604080516020601f89358b018035918201839004830284018301909452808352979a9998810197919650918201945092508291508401838280828437509497506120529650505050505050565b34801561083d57600080fd5b506102d7612503565b34801561085257600080fd5b50604080516020600460443581810135601f81018490048402850184019095528484526102d7948235600160a060020a03169460248035953695946064949201919081908401838280828437509497506125089650505050505050565b3480156108bb57600080fd5b506102d7612755565b3480156108d057600080fd5b506102a561275a565b3480156108e557600080fd5b506108f160043561277e565b6040518087815260200186815260200185600160a060020a0316600160a060020a03168152602001806020018060200180602001848103845287818151815260200191508051906020019080838360005b8381101561095a578181015183820152602001610942565b50505050905090810190601f1680156109875780820380516001836020036101000a031916815260200191505b50848103835286518152865160209182019188019080838360005b838110156109ba5781810151838201526020016109a2565b50505050905090810190601f1680156109e75780820380516001836020036101000a031916815260200191505b50848103825285518152855160209182019187019080838360005b83811015610a1a578181015183820152602001610a02565b50505050905090810190601f168015610a475780820380516001836020036101000a031916815260200191505b50995050505050505050505060405180910390f35b348015610a6857600080fd5b506102d76129d4565b348015610a7d57600080fd5b506102586004356129da565b348015610a9557600080fd5b5061027c600435602435612a2d565b348015610ab057600080fd5b50604080516020601f6064356004818101359283018490048402850184019095528184526102d7948035946024803595600160a060020a0360443516953695608494930191819084018382808284375050604080516020601f89358b018035918201839004830284018301909452808352979a99988101979196509182019450925082915084018382808284375050604080516020601f89358b018035918201839004830284018301909452808352979a99988101979196509182019450925082915084018382808284375050604080516020601f89358b018035918201839004830284018301909452808352979a999881019791965091820194509250829150840183828082843750949750612a419650505050505050565b348015610bd657600080fd5b50610258600435612e4f565b348015610bee57600080fd5b506102d7612ea2565b348015610c0357600080fd5b50610258600160a060020a0360043516612ea7565b348015610c2457600080fd5b506102d7612edb565b600160e060020a03191660009081526006602052604090205460ff1690565b7f01ffc9a7000000000000000000000000000000000000000000000000000000005b90565b600381565b600181565b6060600080610c88613b80565b60008581526002602090815260409182902082518154608093810282018401909452606081018481529093919284928491840182828015610ce857602002820191906000526020600020905b815481526020019060010190808311610cd4575b505050918352505060018201546020808301919091526002909201546040918201528251918301519201519097919650945092505050565b600082826040516020018083600160a060020a0316600160a060020a03166c01000000000000000000000000028152601401828152602001925050506040516020818303038152906040526040518082805190602001908083835b60208310610d9a5780518252601f199092019160209182019101610d7b565b5181516020939093036101000a600019018019909116921691909117905260405192018290039091209695505050505050565b60008383836040516020018084600160a060020a0316600160a060020a03166c0100000000000000000000000002815260140183815260200182805190602001908083835b60208310610e315780518252601f199092019160209182019101610e12565b6001836020036101000a03801982511681845116808217855250505050505090500193505050506040516020818303038152906040526040518082805190602001908083835b60208310610e965780518252601f199092019160209182019101610e77565b6001836020036101000a038019825116818451168082178552505050505050905001915050604051809103902090505b9392505050565b6000610ed7612ee1565b1515610ee257600080fd5b60055460ff1615610ef257600080fd5b610f046002858563ffffffff612f1316565b15610f1157506000610ec6565b610f1c848484612ff7565b5060019392505050565b6000818152600b6020908152604091829020805483518184028101840190945280845260609392830182828015610f7d57602002820191906000526020600020905b81548152600190910190602001808311610f68575b50505050509050919050565b600281565b60015481565b6000610ec6826040805190810160405280601c81526020017f19457468657265756d205369676e6564204d6573736167653a0a333200000000815250856040516020018083805190602001908083835b602083106110035780518252601f199092019160209182019101610fe4565b51815160209384036101000a600019018019909216911617905292019384525060408051808503815293820190819052835193945092839250908401908083835b602083106110635780518252601f199092019160209182019101611044565b5181516020939093036101000a600019018019909116921691909117905260405192018290039091209392505061303e9050565b61109f612ee1565b15156110aa57600080fd5b60055460ff1615156110bb57600080fd5b6005805460ff191690556040517f730c1faaa977b67dacf1e2451ef54556e04a07d577785ff79f6d31f73502efc990600090a1565b60006110fa613ba0565b600554600090819060ff161561110f57600080fd5b6000858152600a60205260409020600201548590600160a060020a031680151561113857600080fd5b611140612ee1565b1561114a57611223565b33600160a060020a038216141561116057611223565b61118161116b611f5c565b600160a060020a0383169063ffffffff61310e16565b1561121e5780600160a060020a031663d202158d61119e33611bbe565b6040805160e060020a63ffffffff85160281526004810192909252600260248301525160448083019260209291908290030181600087803b1580156111e257600080fd5b505af11580156111f6573d6000803e3d6000fd5b505050506040513d602081101561120c57600080fd5b5051151561121957600080fd5b611223565b600080fd5b6000878152600a6020908152604091829020825160c0810184528154815260018083015482850152600280840154600160a060020a0316838701526003840180548751601f9482161561010002600019019091169290920492830186900486028201860190965281815291949293606086019391908301828280156112e95780601f106112be576101008083540402835291602001916112e9565b820191906000526020600020905b8154815290600101906020018083116112cc57829003601f168201915b505050918352505060048201805460408051602060026001851615610100026000190190941693909304601f810184900484028201840190925281815293820193929183018282801561137d5780601f106113525761010080835404028352916020019161137d565b820191906000526020600020905b81548152906001019060200180831161136057829003601f168201915b505050918352505060058201805460408051602060026001851615610100026000190190941693909304601f81018490048402820184019092528181529382019392918301828280156114115780601f106113e657610100808354040283529160200191611411565b820191906000526020600020905b8154815290600101906020018083116113f457829003601f168201915b505050919092525050506040810151909550600160a060020a0316151561143757600080fd5b6000878152600a6020526040812081815560018101829055600281018054600160a060020a03191690559061146f6003830182613be0565b61147d600483016000613be0565b61148b600583016000613be0565b505084516000908152600b60205260408120945092505b835483101561154257835487908590859081106114bb57fe5b6000918252602090912001541415611537578354849060001981019081106114df57fe5b906000526020600020015484848154811015156114f857fe5b60009182526020909120015583548490600019810190811061151657fe5b60009182526020822001558354611531856000198301613c27565b50611542565b6001909201916114a2565b600c60008154809291906001900391905055508460400151600160a060020a0316856000015188600019167f3cf57863a89432c61c4a27073c6ee39e8a764bff5a05aebfbcdcdc80b2e6130a886020015189606001518a608001518b60a0015160405180858152602001806020018060200180602001848103845287818151815260200191508051906020019080838360005b838110156115ed5781810151838201526020016115d5565b50505050905090810190601f16801561161a5780820380516001836020036101000a031916815260200191505b50848103835286518152865160209182019188019080838360005b8381101561164d578181015183820152602001611635565b50505050905090810190601f16801561167a5780820380516001836020036101000a031916815260200191505b50848103825285518152855160209182019187019080838360005b838110156116ad578181015183820152602001611695565b50505050905090810190601f1680156116da5780820380516001836020036101000a031916815260200191505b5097505050505050505060405180910390a45060019695505050505050565b600080611704612ee1565b151561170f57600080fd5b60055460ff161561171f57600080fd5b6117316002858563ffffffff612f1316565b15156117405760009150611789565b6117526002858563ffffffff6131c516565b6040519091508190849086907f585a4aef50f8267a92b32412b331b20f7f8b96f2245b253b9cc50dcc621d339790600090a4600191505b5092915050565b60055460ff1681565b60006117a3613ba0565b60055460ff16156117b357600080fd5b6000838152600a60205260409020600201548390600160a060020a03168015156117dc57600080fd5b6117e4612ee1565b156117ee576118a7565b33600160a060020a0382161415611804576118a7565b61180f61116b611f5c565b1561121e5780600160a060020a031663d202158d61182c33611bbe565b6040805160e060020a63ffffffff85160281526004810192909252600260248301525160448083019260209291908290030181600087803b15801561187057600080fd5b505af1158015611884573d6000803e3d6000fd5b505050506040513d602081101561189a57600080fd5b505115156118a757600080fd5b6000858152600a6020908152604091829020825160c0810184528154815260018083015482850152600280840154600160a060020a0316838701526003840180548751601f94821615610100026000190190911692909204928301869004860282018601909652818152919492936060860193919083018282801561196d5780601f106119425761010080835404028352916020019161196d565b820191906000526020600020905b81548152906001019060200180831161195057829003601f168201915b505050918352505060048201805460408051602060026001851615610100026000190190941693909304601f8101849004840282018401909252818152938201939291830182828015611a015780601f106119d657610100808354040283529160200191611a01565b820191906000526020600020905b8154815290600101906020018083116119e457829003601f168201915b505050918352505060058201805460408051602060026001851615610100026000190190941693909304601f8101849004840282018401909252818152938201939291830182828015611a955780601f10611a6a57610100808354040283529160200191611a95565b820191906000526020600020905b815481529060010190602001808311611a7857829003601f168201915b505050919092525050506040810151909350600160a060020a03161515611abb57600080fd5b611adc83600001518460200151856040015186606001518760800151613366565b1515611af557611aeb856110f0565b5060009350611afa565b600193505b505050919050565b60086020908152600091825260409182902080546001808301546002808501805488516101009582161595909502600019011691909104601f8101879004870284018701909752868352600160a060020a03909316959094919291830182828015611bae5780601f10611b8357610100808354040283529160200191611bae565b820191906000526020600020905b815481529060010190602001808311611b9157829003601f168201915b5050505050908060030154905084565b600160a060020a031690565b600960205281600052604060002081815481101515611be557fe5b600091825260209091200154600160a060020a03169150829050565b60055460009081908190819060ff1615611c1a57600080fd5b851515611c2657600080fd5b60008681526008602052604090208054909350600160a060020a03161515611c4d57600080fd5b8254600160a060020a0316301415611c8b57611c7b611c6b33611bbe565b600290600163ffffffff612f1316565b1515611c8657600080fd5b611cb1565b611ca6611c9733611bbe565b6002908163ffffffff612f1316565b1515611cb157600080fd5b604080518615158152905187917fb3932da477fe5d6c8ff2eafef050c0f3a1af18fc07121001482600f36f3715d8919081900360200190a260008681526009602052604090209150841515611dfb575060005b8154811015611df25781543390839083908110611d1d57fe5b600091825260209091200154600160a060020a03161415611dea57815482906000198101908110611d4a57fe5b6000918252602090912001548254600160a060020a0390911690839083908110611d7057fe5b60009182526020909120018054600160a060020a031916600160a060020a0392909216919091179055815482906000198101908110611dab57fe5b60009182526020909120018054600160a060020a03191690558154611dd4836000198301613c27565b5060038301805460019081019091559350611f53565b600101611d04565b60009350611f53565b5060005b8154811015611e405781543390839083908110611e1857fe5b600091825260209091200154600160a060020a03161415611e3857600080fd5b600101611dff565b8154600181018355600083815260209020018054600160a060020a0319163317905560038301805460001901908190551515611f4e57604080516080810182528454600160a060020a031681526001808601546020808401919091526002808801805486516101009582161595909502600019011691909104601f81018390048302840183018652808452611f47958c95948a949186019390929091830182828015611f2d5780601f10611f0257610100808354040283529160200191611f2d565b820191906000526020600020905b815481529060010190602001808311611f1057829003601f168201915b5050505050815260200160038201548152505060016134a3565b9350611f53565b600193505b50505092915050565b7fdc3d2a7b0000000000000000000000000000000000000000000000000000000090565b611f88612ee1565b1515611f9357600080fd5b60055460ff1615611fa357600080fd5b6005805460ff191660011790556040517f4b314b34e912fda7f95e7d23e9c8c95f82f0aff1984e4ce592a0b005f905562490600090a1565b600081815260036020908152604091829020805483518184028101840190945280845260609392830182828015610f7d576020028201919060005260206000209081548152600190910190602001808311610f685750505050509050919050565b600481565b60005481565b60075481565b600881565b60055460009081908190819060ff161561206b57600080fd5b6120788a8a8a8a8a613366565b151561208357600080fd5b61208b612ee1565b92508215156122d9576040517fb61d27f600000000000000000000000000000000000000000000000000000000815230600482018181526000602484018190526060604485019081523660648601819052939463b61d27f694869484939192909190608401848480828437820191505095505050505050602060405180830381600087803b15801561211c57600080fd5b505af1158015612130573d6000803e3d6000fd5b505050506040513d602081101561214657600080fd5b8101908080519060200190929190505050935087600160a060020a03168a857fe6b6db97dedfb44cbced367387e40b3f92dbee1b1be87f9367f7b673532b0d698c8b8b8b60405180858152602001806020018060200180602001848103845287818151815260200191508051906020019080838360005b838110156121d55781810151838201526020016121bd565b50505050905090810190601f1680156122025780820380516001836020036101000a031916815260200191505b50848103835286518152865160209182019188019080838360005b8381101561223557818101518382015260200161221d565b50505050905090810190601f1680156122625780820380516001836020036101000a031916815260200191505b50848103825285518152855160209182019187019080838360005b8381101561229557818101518382015260200161227d565b50505050905090810190601f1680156122c25780820380516001836020036101000a031916815260200191505b5097505050505050505060405180910390a46124f6565b6122e3888b610d20565b6000818152600a6020526040902060020154909250600160a060020a0316151561231b57612316828b8b8b8b8b8b613725565b6124f6565b506000818152600a60209081526040909120600181018a9055875190916123499160038401918a0190613c50565b50855161235f9060048301906020890190613c50565b5084516123759060058301906020880190613c50565b5087600160a060020a03168a83600019167f3bab293fc00db832d7619a9299914251b8747c036867ec056cbd506f60135b138c8b8b8b60405180858152602001806020018060200180602001848103845287818151815260200191508051906020019080838360005b838110156123f65781810151838201526020016123de565b50505050905090810190601f1680156124235780820380516001836020036101000a031916815260200191505b50848103835286518152865160209182019188019080838360005b8381101561245657818101518382015260200161243e565b50505050905090810190601f1680156124835780820380516001836020036101000a031916815260200191505b50848103825285518152855160209182019187019080838360005b838110156124b657818101518382015260200161249e565b50505050905090810190601f1680156124e35780820380516001836020036101000a031916815260200191505b5097505050505050505060405180910390a45b5050509695505050505050565b600581565b6000806000612515613cce565b60055460ff161561252557600080fd5b600160a060020a038716301415612574573330141561254857600054925061256f565b612554611c6b33611bbe565b9150811561256957600160005403925061256f565b60005492505b6125ba565b600160a060020a038716151561258957600080fd5b3330141561259b5760015492506125ba565b6125a7611c9733611bbe565b15156125b257600080fd5b600180540392505b6125c93088888860075461399d565b93508587600160a060020a0316857f8afcfabcb00e47a53a8fc3e9f23ff47ee1926194bb1350dd007c50b412a6cee8886040518080602001828103825283818151815260200191508051906020019080838360005b8381101561263657818101518382015260200161261e565b50505050905090810190601f1680156126635780820380516001836020036101000a031916815260200191505b509250505060405180910390a45060078054600101905560408051608081018252600160a060020a038816815260208101879052908101859052606081018390528215156126bd576126b7848260006134a3565b5061274b565b60008481526008602090815260409182902083518154600160a060020a031916600160a060020a0390911617815583820151600182015591830151805184939261270e926002850192910190613c50565b50606091909101516003909101556000848152600960209081526040822080546001810182559083529120018054600160a060020a031916331790555b5050509392505050565b600781565b7f107653790000000000000000000000000000000000000000000000000000000090565b60008060006060806060612790613ba0565b6000888152600a6020908152604091829020825160c0810184528154815260018083015482850152600280840154600160a060020a0316838701526003840180548751601f9482161561010002600019019091169290920492830186900486028201860190965281815291949293606086019391908301828280156128565780601f1061282b57610100808354040283529160200191612856565b820191906000526020600020905b81548152906001019060200180831161283957829003601f168201915b505050918352505060048201805460408051602060026001851615610100026000190190941693909304601f81018490048402820184019092528181529382019392918301828280156128ea5780601f106128bf576101008083540402835291602001916128ea565b820191906000526020600020905b8154815290600101906020018083116128cd57829003601f168201915b505050918352505060058201805460408051602060026001851615610100026000190190941693909304601f810184900484028201840190925281815293820193929183018282801561297e5780601f106129535761010080835404028352916020019161297e565b820191906000526020600020905b81548152906001019060200180831161296157829003601f168201915b505050919092525050506040810151909150600160a060020a031615156129a457600080fd5b8051602082015160408301516060840151608085015160a090950151939c929b5090995097509195509350915050565b60045490565b60055460009060ff16156129ed57600080fd5b6129f5612ee1565b1515612a0057600080fd5b60008211612a0d57600080fd5b612a176001611fdb565b51905080821115612a2757600080fd5b50600055565b6000610ec66002848463ffffffff612f1316565b60055460009081908190819060ff1615612a5a57600080fd5b612a678b8b8b8b8b613366565b1515612a7257600080fd5b612c0b8b8b8b8b8b8b6040516020018087815260200186815260200185600160a060020a0316600160a060020a03166c0100000000000000000000000002815260140184805190602001908083835b60208310612ae05780518252601f199092019160209182019101612ac1565b51815160209384036101000a600019018019909216911617905286519190930192860191508083835b60208310612b285780518252601f199092019160209182019101612b09565b51815160209384036101000a600019018019909216911617905285519190930192850191508083835b60208310612b705780518252601f199092019160209182019101612b51565b6001836020036101000a03801982511681845116808217855250505050505090500196505050505050506040516020818303038152906040526040518082805190602001908083835b60208310612bd85780518252601f199092019160209182019101612bb9565b6001836020036101000a038019825116818451168082178552505050505050905001915050604051809103902086610f94565b9250612c19611c6b84611bbe565b1515612c2457600080fd5b612c2e898c610d20565b6000818152600a6020526040902060020154909250600160a060020a03161515612c6657612c61828c8c8c8c8c8c613725565b612e41565b506000818152600a60209081526040909120600181018b905588519091612c949160038401918b0190613c50565b508651612caa90600483019060208a0190613c50565b508551612cc09060058301906020890190613c50565b5088600160a060020a03168b83600019167f3bab293fc00db832d7619a9299914251b8747c036867ec056cbd506f60135b138d8c8c8c60405180858152602001806020018060200180602001848103845287818151815260200191508051906020019080838360005b83811015612d41578181015183820152602001612d29565b50505050905090810190601f168015612d6e5780820380516001836020036101000a031916815260200191505b50848103835286518152865160209182019188019080838360005b83811015612da1578181015183820152602001612d89565b50505050905090810190601f168015612dce5780820380516001836020036101000a031916815260200191505b50848103825285518152855160209182019187019080838360005b83811015612e01578181015183820152602001612de9565b50505050905090810190601f168015612e2e5780820380516001836020036101000a031916815260200191505b5097505050505050505060405180910390a45b505050979650505050505050565b60055460009060ff1615612e6257600080fd5b612e6a612ee1565b1515612e7557600080fd5b60008211612e8257600080fd5b612e8c6002611fdb565b51905080821115612e9c57600080fd5b50600155565b600681565b612eaf612ee1565b1515612eba57600080fd5b600160a060020a0381161515612ecf57600080fd5b80600160a060020a0316ff5b600c5481565b600033301415612ef357506001610c6e565b600054600114612f0257600080fd5b612f0e611c6b33611bbe565b905090565b6000612f1d613b80565b6000848152602086815260408083208151815460809481028201850190935260608101838152909391928492849190840182828015612f7b57602002820191906000526020600020905b815481526020019060010190808311612f67575b5050509183525050600182015460208201526002909101546040918201528101519092501515612fae5760009250612fee565b5060005b815151811015612fee578151805185919083908110612fcd57fe5b906020019060200201511415612fe65760019250612fee565b600101612fb2565b50509392505050565b61300a600284848463ffffffff613ac316565b6040518190839085907f480000bb1edad8ca1470381cc334b1917fbd51c6531f3a623ea8e0ec7e38a6e990600090a4505050565b600080600080845160411415156130585760009350611f53565b50505060208201516040830151606084015160001a601b60ff8216101561307d57601b015b8060ff16601b1415801561309557508060ff16601c14155b156130a35760009350611f53565b60408051600080825260208083018085528a905260ff8516838501526060830187905260808301869052925160019360a0808501949193601f19840193928390039091019190865af11580156130fd573d6000803e3d6000fd5b505050602060405103519350611f53565b6000808061313c857f01ffc9a700000000000000000000000000000000000000000000000000000000613b34565b909250905081158061314c575080155b1561315a57600092506131bd565b61316c85600160e060020a0319613b34565b909250905081158061317d57508015155b1561318b57600092506131bd565b6131958585613b34565b90925090506001821480156131aa5750806001145b156131b857600192506131bd565b600092505b505092915050565b6000828152602084905260408120600181015491805b8254821015613285578483838154811015156131f357fe5b9060005260206000200154141561327a5782548390600019810190811061321657fe5b9060005260206000200154838381548110151561322f57fe5b60009182526020909120015582548390600019810190811061324d57fe5b60009182526020822001558254613268846000198301613c27565b50600287018054600019019055613285565b6001909101906131db565b825415156132b7576000868152602088905260408120906132a68282613d00565b506000600182018190556002909101555b5050600083815260018601602052604081205b805482101561274b57805486908290849081106132e357fe5b600091825260209091200154141561335b5780548190600019810190811061330757fe5b9060005260206000200154818381548110151561332057fe5b60009182526020909120015580548190600019810190811061333e57fe5b60009182526020822001558054613359826000198301613c27565b505b6001909101906132ca565b600080600186141561349457613386613380308986610dcd565b85610f94565b905080600160a060020a031685600160a060020a031614156133ab5760019150613499565b600160a060020a0385163014156133df576133d86133c882611bbe565b600290600363ffffffff612f1316565b9150613499565b6134006133ea611f5c565b600160a060020a0387169063ffffffff61310e16565b156134945784600160a060020a031663d202158d61341d83611bbe565b6040805160e060020a63ffffffff85160281526004810192909252600360248301525160448083019260209291908290030181600087803b15801561346157600080fd5b505af1158015613475573d6000803e3d6000fd5b505050506040513d602081101561348b57600080fd5b50519150613499565b600091505b5095945050505050565b81516000908190600160a060020a031615156134be57600080fd5b8360000151600160a060020a03168460200151856040015160405180828051906020019080838360005b838110156135005781810151838201526020016134e8565b50505050905090810190601f16801561352d5780820380516001836020036101000a031916815260200191505b5091505060006040518083038185875af19250505090508015156136055783602001518460000151600160a060020a0316867fe10c49d9f7c71da23262367013434763cfdb2332267641728d25cd712c5c6a6887604001516040518080602001828103825283818151815260200191508051906020019080838360005b838110156135c25781810151838201526020016135aa565b50505050905090810190601f1680156135ef5780820380516001836020036101000a031916815260200191505b509250505060405180910390a46000915061371d565b83602001518460000151600160a060020a0316867f1f920dbda597d7bf95035464170fa58d0a4b57f13a1c315ace6793b9f63688b887604001516040518080602001828103825283818151815260200191508051906020019080838360005b8381101561367c578181015183820152602001613664565b50505050905090810190601f1680156136a95780820380516001836020036101000a031916815260200191505b509250505060405180910390a48215156136c6576001915061371d565b60008581526008602052604081208054600160a060020a031916815560018101829055906136f76002830182613be0565b50600060039190910181905585815260096020526040812061371891613d00565b600191505b509392505050565b6040805160c0810182528781526020808201888152600160a060020a03888116848601908152606085018981526080860189905260a0860188905260008e8152600a865296909620855181559251600184015551600283018054600160a060020a03191691909216179055925180519293926137a79260038501920190613c50565b50608082015180516137c3916004840191602090910190613c50565b5060a082015180516137df916005840191602090910190613c50565b5050506000868152600b60209081526040808320805460018181018355918552838520018b9055600c80549091019055805188815260808184018181528851918301919091528751600160a060020a038a16958c958e957f46149b18aa084502c3f12bc75e19eda8bda8d102b82cce8474677a6d0d5f43c5958e958d958d958d959394929392850192606086019260a0870192918a01918190849084905b8381101561389557818101518382015260200161387d565b50505050905090810190601f1680156138c25780820380516001836020036101000a031916815260200191505b50848103835286518152865160209182019188019080838360005b838110156138f55781810151838201526020016138dd565b50505050905090810190601f1680156139225780820380516001836020036101000a031916815260200191505b50848103825285518152855160209182019187019080838360005b8381101561395557818101518382015260200161393d565b50505050905090810190601f1680156139825780820380516001836020036101000a031916815260200191505b5097505050505050505060405180910390a450505050505050565b600085858585856040516020018086600160a060020a0316600160a060020a03166c0100000000000000000000000002815260140185600160a060020a0316600160a060020a03166c0100000000000000000000000002815260140184815260200183805190602001908083835b60208310613a2a5780518252601f199092019160209182019101613a0b565b51815160209384036101000a600019018019909216911617905292019384525060408051808503815293820190819052835193975095508594508601925081905083835b60208310613a8d5780518252601f199092019160209182019101613a6e565b5181516020939093036101000a600019018019909116921691909117905260405192018290039091209998505050505050505050565b60008381526020858152604082208054600181018255818452919092200183905560028101541515613afe5760028101849055600181018290555b50506000908152600180840160209081526040832080548084018255908452922090910191909155600290910180549091019055565b6040517f01ffc9a70000000000000000000000000000000000000000000000000000000080825260048201839052600091829190602081818189617530fa905190969095509350505050565b604080516060818101835281526000602082018190529181019190915290565b60c06040519081016040528060008152602001600081526020016000600160a060020a031681526020016060815260200160608152602001606081525090565b50805460018160011615610100020316600290046000825580601f10613c065750613c24565b601f016020900490600052602060002090810190613c249190613d1a565b50565b815481835581811115613c4b57600083815260209020613c4b918101908301613d1a565b505050565b828054600181600116156101000203166002900490600052602060002090601f016020900481019282601f10613c9157805160ff1916838001178555613cbe565b82800160010185558215613cbe579182015b82811115613cbe578251825591602001919060010190613ca3565b50613cca929150613d1a565b5090565b6080604051908101604052806000600160a060020a031681526020016000815260200160608152602001600081525090565b5080546000825590600052602060002090810190613c2491905b610c6e91905b80821115613cca5760008155600101613d205600a165627a7a72305820e6a464d7b34f80dc69ecf383c6ef7bb59043c392ec799b5754dbc27eb64bd5100029a165627a7a72305820642024eb594ecb2f3f26ac7e90547f77bcea0a93bdca2f373f8c4faa284e1be70029",
  "source": "pragma solidity ^0.4.24;\n\nimport \"./openzeppelin-solidity/contracts/ownership/Ownable.sol\";\nimport \"./identity/MetaIdentity.sol\";\nimport \"./RegistryUser.sol\";\n\ncontract IdentityManager is RegistryUser {\n    //Hold the list of MetaIds\n    //CreateMetaId\n    // event\n    address[] public metaIds;\n    mapping(address=>bool) metaIdExistence;\n\n    function IdentityManager() public {\n        THIS_NAME = \"IdentityManager\";\n    }\n    function createMetaId(address _managementKey) permissioned public returns (bool) {\n        address newMetaId = new MetaIdentity(_managementKey);\n        metaIds.push(newMetaId);\n        metaIdExistence[newMetaId] = true;\n        //give reward to newMetaId\n\n        //give first achievement to new MetaId\n\n    }\n\n    function getDeployedMetaIds() public view returns(address[]) {\n        return metaIds;\n    }\n    function isMetaId(address _addr) public view returns(bool) {\n        return metaIdExistence[_addr];\n    }\n    function getLengthOfMetaIds() public view returns(uint256) {\n        return metaIds.length;\n    }\n}",
  "sourcePath": "/Users/coinplug/BangGijin/metabolics2.0/contracts/IdentityManager.sol",
  "compiler": {
    "name": "solc",
    "version": "0.4.24+commit.e67f0147.Emscripten.clang"
  },
  "schemaVersion": "2.0.1",
  "updatedAt": "2018-10-08T08:14:57.196Z"
}