{
  "contractName": "Identity",
  "abi": [
    {
      "constant": true,
      "inputs": [
        {
          "name": "interfaceID",
          "type": "bytes4"
        }
      ],
      "name": "supportsInterface",
      "outputs": [
        {
          "name": "",
          "type": "bool"
        }
      ],
      "payable": false,
      "stateMutability": "view",
      "type": "function"
    },
    {
      "constant": true,
      "inputs": [],
      "name": "ERC165ID",
      "outputs": [
        {
          "name": "",
          "type": "bytes4"
        }
      ],
      "payable": false,
      "stateMutability": "pure",
      "type": "function"
    },
    {
      "constant": true,
      "inputs": [],
      "name": "REGISTRY_TOPIC",
      "outputs": [
        {
          "name": "",
          "type": "uint256"
        }
      ],
      "payable": false,
      "stateMutability": "view",
      "type": "function"
    },
    {
      "constant": true,
      "inputs": [],
      "name": "MANAGEMENT_KEY",
      "outputs": [
        {
          "name": "",
          "type": "uint256"
        }
      ],
      "payable": false,
      "stateMutability": "view",
      "type": "function"
    },
    {
      "constant": true,
      "inputs": [
        {
          "name": "_key",
          "type": "bytes32"
        }
      ],
      "name": "getKey",
      "outputs": [
        {
          "name": "purposes",
          "type": "uint256[]"
        },
        {
          "name": "keyType",
          "type": "uint256"
        },
        {
          "name": "key",
          "type": "bytes32"
        }
      ],
      "payable": false,
      "stateMutability": "view",
      "type": "function"
    },
    {
      "constant": true,
      "inputs": [
        {
          "name": "issuer",
          "type": "address"
        },
        {
          "name": "topic",
          "type": "uint256"
        }
      ],
      "name": "getClaimId",
      "outputs": [
        {
          "name": "",
          "type": "bytes32"
        }
      ],
      "payable": false,
      "stateMutability": "pure",
      "type": "function"
    },
    {
      "constant": true,
      "inputs": [
        {
          "name": "subject",
          "type": "address"
        },
        {
          "name": "topic",
          "type": "uint256"
        },
        {
          "name": "data",
          "type": "bytes"
        }
      ],
      "name": "claimToSign",
      "outputs": [
        {
          "name": "",
          "type": "bytes32"
        }
      ],
      "payable": false,
      "stateMutability": "pure",
      "type": "function"
    },
    {
      "constant": false,
      "inputs": [
        {
          "name": "_key",
          "type": "bytes32"
        },
        {
          "name": "_purpose",
          "type": "uint256"
        },
        {
          "name": "_keyType",
          "type": "uint256"
        }
      ],
      "name": "addKey",
      "outputs": [
        {
          "name": "success",
          "type": "bool"
        }
      ],
      "payable": false,
      "stateMutability": "nonpayable",
      "type": "function"
    },
    {
      "constant": true,
      "inputs": [],
      "name": "CONTRACT_SCHEME",
      "outputs": [
        {
          "name": "",
          "type": "uint256"
        }
      ],
      "payable": false,
      "stateMutability": "view",
      "type": "function"
    },
    {
      "constant": true,
      "inputs": [
        {
          "name": "_topic",
          "type": "uint256"
        }
      ],
      "name": "getClaimIdsByType",
      "outputs": [
        {
          "name": "claimIds",
          "type": "bytes32[]"
        }
      ],
      "payable": false,
      "stateMutability": "view",
      "type": "function"
    },
    {
      "constant": true,
      "inputs": [],
      "name": "RSA_TYPE",
      "outputs": [
        {
          "name": "",
          "type": "uint256"
        }
      ],
      "payable": false,
      "stateMutability": "view",
      "type": "function"
    },
    {
      "constant": true,
      "inputs": [],
      "name": "getTransactionCount",
      "outputs": [
        {
          "name": "",
          "type": "uint256"
        }
      ],
      "payable": false,
      "stateMutability": "view",
      "type": "function"
    },
    {
      "constant": true,
      "inputs": [],
      "name": "actionThreshold",
      "outputs": [
        {
          "name": "",
          "type": "uint256"
        }
      ],
      "payable": false,
      "stateMutability": "view",
      "type": "function"
    },
    {
      "constant": true,
      "inputs": [
        {
          "name": "toSign",
          "type": "bytes32"
        },
        {
          "name": "signature",
          "type": "bytes"
        }
      ],
      "name": "getSignatureAddress",
      "outputs": [
        {
          "name": "",
          "type": "address"
        }
      ],
      "payable": false,
      "stateMutability": "pure",
      "type": "function"
    },
    {
      "constant": false,
      "inputs": [],
      "name": "unpause",
      "outputs": [],
      "payable": false,
      "stateMutability": "nonpayable",
      "type": "function"
    },
    {
      "constant": true,
      "inputs": [],
      "name": "ECDSA_TYPE",
      "outputs": [
        {
          "name": "",
          "type": "uint256"
        }
      ],
      "payable": false,
      "stateMutability": "view",
      "type": "function"
    },
    {
      "constant": false,
      "inputs": [
        {
          "name": "_to",
          "type": "address"
        },
        {
          "name": "_value",
          "type": "uint256"
        },
        {
          "name": "_data",
          "type": "bytes"
        },
        {
          "name": "_nonce",
          "type": "uint256"
        },
        {
          "name": "_sig",
          "type": "bytes"
        }
      ],
      "name": "delegatedExecute",
      "outputs": [
        {
          "name": "executionId",
          "type": "uint256"
        }
      ],
      "payable": false,
      "stateMutability": "nonpayable",
      "type": "function"
    },
    {
      "constant": false,
      "inputs": [
        {
          "name": "_claimId",
          "type": "bytes32"
        }
      ],
      "name": "removeClaim",
      "outputs": [
        {
          "name": "success",
          "type": "bool"
        }
      ],
      "payable": false,
      "stateMutability": "nonpayable",
      "type": "function"
    },
    {
      "constant": false,
      "inputs": [
        {
          "name": "_key",
          "type": "bytes32"
        },
        {
          "name": "_purpose",
          "type": "uint256"
        }
      ],
      "name": "removeKey",
      "outputs": [
        {
          "name": "success",
          "type": "bool"
        }
      ],
      "payable": false,
      "stateMutability": "nonpayable",
      "type": "function"
    },
    {
      "constant": true,
      "inputs": [],
      "name": "paused",
      "outputs": [
        {
          "name": "",
          "type": "bool"
        }
      ],
      "payable": false,
      "stateMutability": "view",
      "type": "function"
    },
    {
      "constant": false,
      "inputs": [
        {
          "name": "_claimId",
          "type": "bytes32"
        }
      ],
      "name": "refreshClaim",
      "outputs": [
        {
          "name": "",
          "type": "bool"
        }
      ],
      "payable": false,
      "stateMutability": "nonpayable",
      "type": "function"
    },
    {
      "constant": true,
      "inputs": [
        {
          "name": "",
          "type": "uint256"
        }
      ],
      "name": "execution",
      "outputs": [
        {
          "name": "to",
          "type": "address"
        },
        {
          "name": "value",
          "type": "uint256"
        },
        {
          "name": "data",
          "type": "bytes"
        },
        {
          "name": "needsApprove",
          "type": "uint256"
        }
      ],
      "payable": false,
      "stateMutability": "view",
      "type": "function"
    },
    {
      "constant": true,
      "inputs": [
        {
          "name": "addr",
          "type": "address"
        }
      ],
      "name": "addrToKey",
      "outputs": [
        {
          "name": "",
          "type": "bytes32"
        }
      ],
      "payable": false,
      "stateMutability": "pure",
      "type": "function"
    },
    {
      "constant": true,
      "inputs": [
        {
          "name": "",
          "type": "uint256"
        },
        {
          "name": "",
          "type": "uint256"
        }
      ],
      "name": "approved",
      "outputs": [
        {
          "name": "",
          "type": "address"
        }
      ],
      "payable": false,
      "stateMutability": "view",
      "type": "function"
    },
    {
      "constant": true,
      "inputs": [],
      "name": "METAID_TOPIC",
      "outputs": [
        {
          "name": "",
          "type": "uint256"
        }
      ],
      "payable": false,
      "stateMutability": "view",
      "type": "function"
    },
    {
      "constant": false,
      "inputs": [
        {
          "name": "_key",
          "type": "bytes32"
        },
        {
          "name": "_to",
          "type": "address"
        },
        {
          "name": "_func",
          "type": "bytes4"
        },
        {
          "name": "_executable",
          "type": "bool"
        }
      ],
      "name": "setFunc",
      "outputs": [
        {
          "name": "success",
          "type": "bool"
        }
      ],
      "payable": false,
      "stateMutability": "nonpayable",
      "type": "function"
    },
    {
      "constant": false,
      "inputs": [
        {
          "name": "_id",
          "type": "uint256"
        },
        {
          "name": "_approve",
          "type": "bool"
        }
      ],
      "name": "approve",
      "outputs": [
        {
          "name": "success",
          "type": "bool"
        }
      ],
      "payable": false,
      "stateMutability": "nonpayable",
      "type": "function"
    },
    {
      "constant": true,
      "inputs": [],
      "name": "ACTION_KEY",
      "outputs": [
        {
          "name": "",
          "type": "uint256"
        }
      ],
      "payable": false,
      "stateMutability": "view",
      "type": "function"
    },
    {
      "constant": true,
      "inputs": [
        {
          "name": "_key",
          "type": "bytes32"
        },
        {
          "name": "_to",
          "type": "address"
        },
        {
          "name": "_func",
          "type": "bytes4"
        }
      ],
      "name": "keyCanExecute",
      "outputs": [
        {
          "name": "executable",
          "type": "bool"
        }
      ],
      "payable": false,
      "stateMutability": "view",
      "type": "function"
    },
    {
      "constant": true,
      "inputs": [],
      "name": "ERC725ID",
      "outputs": [
        {
          "name": "",
          "type": "bytes4"
        }
      ],
      "payable": false,
      "stateMutability": "pure",
      "type": "function"
    },
    {
      "constant": true,
      "inputs": [],
      "name": "ECDSA_SCHEME",
      "outputs": [
        {
          "name": "",
          "type": "uint256"
        }
      ],
      "payable": false,
      "stateMutability": "view",
      "type": "function"
    },
    {
      "constant": false,
      "inputs": [],
      "name": "pause",
      "outputs": [],
      "payable": false,
      "stateMutability": "nonpayable",
      "type": "function"
    },
    {
      "constant": true,
      "inputs": [
        {
          "name": "_purpose",
          "type": "uint256"
        }
      ],
      "name": "getKeysByPurpose",
      "outputs": [
        {
          "name": "keys",
          "type": "bytes32[]"
        }
      ],
      "payable": false,
      "stateMutability": "view",
      "type": "function"
    },
    {
      "constant": true,
      "inputs": [],
      "name": "ENCRYPTION_KEY",
      "outputs": [
        {
          "name": "",
          "type": "uint256"
        }
      ],
      "payable": false,
      "stateMutability": "view",
      "type": "function"
    },
    {
      "constant": true,
      "inputs": [],
      "name": "RESIDENCE_TOPIC",
      "outputs": [
        {
          "name": "",
          "type": "uint256"
        }
      ],
      "payable": false,
      "stateMutability": "view",
      "type": "function"
    },
    {
      "constant": true,
      "inputs": [],
      "name": "managementThreshold",
      "outputs": [
        {
          "name": "",
          "type": "uint256"
        }
      ],
      "payable": false,
      "stateMutability": "view",
      "type": "function"
    },
    {
      "constant": true,
      "inputs": [],
      "name": "PROFILE_TOPIC",
      "outputs": [
        {
          "name": "",
          "type": "uint256"
        }
      ],
      "payable": false,
      "stateMutability": "view",
      "type": "function"
    },
    {
      "constant": true,
      "inputs": [],
      "name": "nonce",
      "outputs": [
        {
          "name": "",
          "type": "uint256"
        }
      ],
      "payable": false,
      "stateMutability": "view",
      "type": "function"
    },
    {
      "constant": true,
      "inputs": [],
      "name": "CUSTOM_KEY",
      "outputs": [
        {
          "name": "",
          "type": "uint256"
        }
      ],
      "payable": false,
      "stateMutability": "view",
      "type": "function"
    },
    {
      "constant": false,
      "inputs": [
        {
          "name": "_topic",
          "type": "uint256"
        },
        {
          "name": "_scheme",
          "type": "uint256"
        },
        {
          "name": "issuer",
          "type": "address"
        },
        {
          "name": "_signature",
          "type": "bytes"
        },
        {
          "name": "_data",
          "type": "bytes"
        },
        {
          "name": "_uri",
          "type": "string"
        }
      ],
      "name": "addClaim",
      "outputs": [
        {
          "name": "claimRequestId",
          "type": "uint256"
        }
      ],
      "payable": false,
      "stateMutability": "nonpayable",
      "type": "function"
    },
    {
      "constant": true,
      "inputs": [],
      "name": "LABEL_TOPIC",
      "outputs": [
        {
          "name": "",
          "type": "uint256"
        }
      ],
      "payable": false,
      "stateMutability": "view",
      "type": "function"
    },
    {
      "constant": false,
      "inputs": [
        {
          "name": "_sender",
          "type": "address"
        },
        {
          "name": "_to",
          "type": "address"
        },
        {
          "name": "_value",
          "type": "uint256"
        },
        {
          "name": "_date",
          "type": "bytes"
        }
      ],
      "name": "preExecute",
      "outputs": [],
      "payable": false,
      "stateMutability": "nonpayable",
      "type": "function"
    },
    {
      "constant": false,
      "inputs": [
        {
          "name": "_to",
          "type": "address"
        },
        {
          "name": "_value",
          "type": "uint256"
        },
        {
          "name": "_data",
          "type": "bytes"
        }
      ],
      "name": "execute",
      "outputs": [
        {
          "name": "executionId",
          "type": "uint256"
        }
      ],
      "payable": false,
      "stateMutability": "nonpayable",
      "type": "function"
    },
    {
      "constant": true,
      "inputs": [],
      "name": "RESTORE_KEY",
      "outputs": [
        {
          "name": "",
          "type": "uint256"
        }
      ],
      "payable": false,
      "stateMutability": "view",
      "type": "function"
    },
    {
      "constant": true,
      "inputs": [],
      "name": "ERC735ID",
      "outputs": [
        {
          "name": "",
          "type": "bytes4"
        }
      ],
      "payable": false,
      "stateMutability": "pure",
      "type": "function"
    },
    {
      "constant": true,
      "inputs": [
        {
          "name": "b",
          "type": "bytes"
        }
      ],
      "name": "getFunctionSignature",
      "outputs": [
        {
          "name": "",
          "type": "bytes4"
        }
      ],
      "payable": false,
      "stateMutability": "pure",
      "type": "function"
    },
    {
      "constant": true,
      "inputs": [],
      "name": "CLAIM_SIGNER_KEY",
      "outputs": [
        {
          "name": "",
          "type": "uint256"
        }
      ],
      "payable": false,
      "stateMutability": "view",
      "type": "function"
    },
    {
      "constant": true,
      "inputs": [
        {
          "name": "_claimId",
          "type": "bytes32"
        }
      ],
      "name": "getClaim",
      "outputs": [
        {
          "name": "topic",
          "type": "uint256"
        },
        {
          "name": "scheme",
          "type": "uint256"
        },
        {
          "name": "issuer",
          "type": "address"
        },
        {
          "name": "signature",
          "type": "bytes"
        },
        {
          "name": "data",
          "type": "bytes"
        },
        {
          "name": "uri",
          "type": "string"
        }
      ],
      "payable": false,
      "stateMutability": "view",
      "type": "function"
    },
    {
      "constant": true,
      "inputs": [],
      "name": "numKeys",
      "outputs": [
        {
          "name": "",
          "type": "uint256"
        }
      ],
      "payable": false,
      "stateMutability": "view",
      "type": "function"
    },
    {
      "constant": false,
      "inputs": [
        {
          "name": "threshold",
          "type": "uint256"
        }
      ],
      "name": "changeManagementThreshold",
      "outputs": [],
      "payable": false,
      "stateMutability": "nonpayable",
      "type": "function"
    },
    {
      "constant": true,
      "inputs": [
        {
          "name": "_key",
          "type": "bytes32"
        },
        {
          "name": "purpose",
          "type": "uint256"
        }
      ],
      "name": "keyHasPurpose",
      "outputs": [
        {
          "name": "exists",
          "type": "bool"
        }
      ],
      "payable": false,
      "stateMutability": "view",
      "type": "function"
    },
    {
      "constant": true,
      "inputs": [],
      "name": "ASSIST_KEY",
      "outputs": [
        {
          "name": "",
          "type": "uint256"
        }
      ],
      "payable": false,
      "stateMutability": "view",
      "type": "function"
    },
    {
      "constant": false,
      "inputs": [
        {
          "name": "_topic",
          "type": "uint256"
        },
        {
          "name": "_scheme",
          "type": "uint256"
        },
        {
          "name": "issuer",
          "type": "address"
        },
        {
          "name": "_signature",
          "type": "bytes"
        },
        {
          "name": "_data",
          "type": "bytes"
        },
        {
          "name": "_uri",
          "type": "string"
        },
        {
          "name": "_idSignature",
          "type": "bytes"
        }
      ],
      "name": "addClaimByProxy",
      "outputs": [
        {
          "name": "claimRequestId",
          "type": "uint256"
        }
      ],
      "payable": false,
      "stateMutability": "nonpayable",
      "type": "function"
    },
    {
      "constant": false,
      "inputs": [
        {
          "name": "threshold",
          "type": "uint256"
        }
      ],
      "name": "changeActionThreshold",
      "outputs": [],
      "payable": false,
      "stateMutability": "nonpayable",
      "type": "function"
    },
    {
      "constant": true,
      "inputs": [],
      "name": "DELEGATE_KEY",
      "outputs": [
        {
          "name": "",
          "type": "uint256"
        }
      ],
      "payable": false,
      "stateMutability": "view",
      "type": "function"
    },
    {
      "constant": true,
      "inputs": [],
      "name": "RSA_SCHEME",
      "outputs": [
        {
          "name": "",
          "type": "uint256"
        }
      ],
      "payable": false,
      "stateMutability": "view",
      "type": "function"
    },
    {
      "constant": false,
      "inputs": [
        {
          "name": "_recipient",
          "type": "address"
        }
      ],
      "name": "destroyAndSend",
      "outputs": [],
      "payable": false,
      "stateMutability": "nonpayable",
      "type": "function"
    },
    {
      "constant": true,
      "inputs": [],
      "name": "numClaims",
      "outputs": [
        {
          "name": "",
          "type": "uint256"
        }
      ],
      "payable": false,
      "stateMutability": "view",
      "type": "function"
    },
    {
      "inputs": [
        {
          "name": "_keys",
          "type": "bytes32[]"
        },
        {
          "name": "_purposes",
          "type": "uint256[]"
        },
        {
          "name": "_managementThreshold",
          "type": "uint256"
        },
        {
          "name": "_actionThreshold",
          "type": "uint256"
        },
        {
          "name": "_issuers",
          "type": "address[]"
        },
        {
          "name": "_topics",
          "type": "uint256[]"
        },
        {
          "name": "_signatures",
          "type": "bytes"
        },
        {
          "name": "_datas",
          "type": "bytes"
        },
        {
          "name": "_uris",
          "type": "string"
        },
        {
          "name": "_sizes",
          "type": "uint8[]"
        }
      ],
      "payable": false,
      "stateMutability": "nonpayable",
      "type": "constructor"
    },
    {
      "payable": true,
      "stateMutability": "payable",
      "type": "fallback"
    },
    {
      "anonymous": false,
      "inputs": [
        {
          "indexed": true,
          "name": "claimRequestId",
          "type": "uint256"
        },
        {
          "indexed": true,
          "name": "topic",
          "type": "uint256"
        },
        {
          "indexed": false,
          "name": "scheme",
          "type": "uint256"
        },
        {
          "indexed": true,
          "name": "issuer",
          "type": "address"
        },
        {
          "indexed": false,
          "name": "signature",
          "type": "bytes"
        },
        {
          "indexed": false,
          "name": "data",
          "type": "bytes"
        },
        {
          "indexed": false,
          "name": "uri",
          "type": "string"
        }
      ],
      "name": "ClaimRequested",
      "type": "event"
    },
    {
      "anonymous": false,
      "inputs": [
        {
          "indexed": true,
          "name": "claimId",
          "type": "bytes32"
        },
        {
          "indexed": true,
          "name": "topic",
          "type": "uint256"
        },
        {
          "indexed": false,
          "name": "scheme",
          "type": "uint256"
        },
        {
          "indexed": true,
          "name": "issuer",
          "type": "address"
        },
        {
          "indexed": false,
          "name": "signature",
          "type": "bytes"
        },
        {
          "indexed": false,
          "name": "data",
          "type": "bytes"
        },
        {
          "indexed": false,
          "name": "uri",
          "type": "string"
        }
      ],
      "name": "ClaimAdded",
      "type": "event"
    },
    {
      "anonymous": false,
      "inputs": [
        {
          "indexed": true,
          "name": "claimId",
          "type": "bytes32"
        },
        {
          "indexed": true,
          "name": "topic",
          "type": "uint256"
        },
        {
          "indexed": false,
          "name": "scheme",
          "type": "uint256"
        },
        {
          "indexed": true,
          "name": "issuer",
          "type": "address"
        },
        {
          "indexed": false,
          "name": "signature",
          "type": "bytes"
        },
        {
          "indexed": false,
          "name": "data",
          "type": "bytes"
        },
        {
          "indexed": false,
          "name": "uri",
          "type": "string"
        }
      ],
      "name": "ClaimRemoved",
      "type": "event"
    },
    {
      "anonymous": false,
      "inputs": [
        {
          "indexed": true,
          "name": "claimId",
          "type": "bytes32"
        },
        {
          "indexed": true,
          "name": "topic",
          "type": "uint256"
        },
        {
          "indexed": false,
          "name": "scheme",
          "type": "uint256"
        },
        {
          "indexed": true,
          "name": "issuer",
          "type": "address"
        },
        {
          "indexed": false,
          "name": "signature",
          "type": "bytes"
        },
        {
          "indexed": false,
          "name": "data",
          "type": "bytes"
        },
        {
          "indexed": false,
          "name": "uri",
          "type": "string"
        }
      ],
      "name": "ClaimChanged",
      "type": "event"
    },
    {
      "anonymous": false,
      "inputs": [
        {
          "indexed": true,
          "name": "key",
          "type": "bytes32"
        },
        {
          "indexed": true,
          "name": "purpose",
          "type": "uint256"
        },
        {
          "indexed": true,
          "name": "keyType",
          "type": "uint256"
        }
      ],
      "name": "KeyAdded",
      "type": "event"
    },
    {
      "anonymous": false,
      "inputs": [
        {
          "indexed": true,
          "name": "key",
          "type": "bytes32"
        },
        {
          "indexed": true,
          "name": "purpose",
          "type": "uint256"
        },
        {
          "indexed": true,
          "name": "keyType",
          "type": "uint256"
        }
      ],
      "name": "KeyRemoved",
      "type": "event"
    },
    {
      "anonymous": false,
      "inputs": [
        {
          "indexed": true,
          "name": "executionId",
          "type": "uint256"
        },
        {
          "indexed": true,
          "name": "to",
          "type": "address"
        },
        {
          "indexed": true,
          "name": "value",
          "type": "uint256"
        },
        {
          "indexed": false,
          "name": "data",
          "type": "bytes"
        }
      ],
      "name": "ExecutionRequested",
      "type": "event"
    },
    {
      "anonymous": false,
      "inputs": [
        {
          "indexed": true,
          "name": "executionId",
          "type": "uint256"
        },
        {
          "indexed": true,
          "name": "to",
          "type": "address"
        },
        {
          "indexed": true,
          "name": "value",
          "type": "uint256"
        },
        {
          "indexed": false,
          "name": "data",
          "type": "bytes"
        }
      ],
      "name": "Executed",
      "type": "event"
    },
    {
      "anonymous": false,
      "inputs": [
        {
          "indexed": true,
          "name": "executionId",
          "type": "uint256"
        },
        {
          "indexed": false,
          "name": "approved",
          "type": "bool"
        }
      ],
      "name": "Approved",
      "type": "event"
    },
    {
      "anonymous": false,
      "inputs": [
        {
          "indexed": true,
          "name": "executionId",
          "type": "uint256"
        },
        {
          "indexed": true,
          "name": "to",
          "type": "address"
        },
        {
          "indexed": true,
          "name": "value",
          "type": "uint256"
        },
        {
          "indexed": false,
          "name": "data",
          "type": "bytes"
        }
      ],
      "name": "ExecutionFailed",
      "type": "event"
    },
    {
      "anonymous": false,
      "inputs": [],
      "name": "LogPause",
      "type": "event"
    },
    {
      "anonymous": false,
      "inputs": [],
      "name": "LogUnpause",
      "type": "event"
    }
  ],
  "bytecode": "0x6080604052600160008190558080556005805460ff191690556007553480156200002857600080fd5b5060405162005bfc38038062005bfc83398101604090815281516020830151918301516060840151608085015160a086015160c087015160e08801516101008901516101208a0151978a01999889019896979596948501959385019492830193918301929081019101600160066000620000aa6401000000006200027f810204565b7fffffffff0000000000000000000000000000000000000000000000000000000016815260208101919091526040016000908120805460ff19169215159290921790915560019060069062000107640100000000620002a4810204565b7fffffffff0000000000000000000000000000000000000000000000000000000016815260208101919091526040016000908120805460ff19169215159290921790915560019060069062000164640100000000620002c8810204565b7fffffffff000000000000000000000000000000000000000000000000000000001681526020810191909152604001600020805460ff1916911515919091179055620001ba8a8a640100000000620002ec810204565b620001d0868683640100000000620003cc810204565b620001e78a8a8a8a640100000000620004df810204565b620002008686868686866401000000006200065f810204565b60016006600062000219640100000000620002c8810204565b6200022c640100000000620002a4810204565b187fffffffff000000000000000000000000000000000000000000000000000000001681526020810191909152604001600020805460ff1916911515919091179055506200159398505050505050505050565b7f01ffc9a7000000000000000000000000000000000000000000000000000000005b90565b7fdc3d2a7b0000000000000000000000000000000000000000000000000000000090565b7f107653790000000000000000000000000000000000000000000000000000000090565b600080825184511415156200030057600080fd5b600191505b8351821015620003c65783600183038151811015156200032157fe5b906020019060200201519050806000191684838151811015156200034157fe5b602090810290910101511180620003ae5750835181908590849081106200036457fe5b60209081029091010151148015620003ae575082600183038151811015156200038957fe5b906020019060200201518383815181101515620003a257fe5b90602001906020020151115b1515620003ba57600080fd5b60019091019062000305565b50505050565b60008083518551141515620003e057600080fd5b8251845160030214620003f257600080fd5b600191505b8451821015620004d85784600183038151811015156200041357fe5b90602001906020020151905080600160a060020a031685838151811015156200043857fe5b90602001906020020151600160a060020a0316141580620004c0575080600160a060020a031685838151811015156200046d57fe5b90602001906020020151600160a060020a0316148015620004c0575083600183038151811015156200049b57fe5b906020019060200201518483815181101515620004b457fe5b90602001906020020151115b1515620004cc57600080fd5b600190910190620003f7565b5050505050565b6000806000808751600014156200055b576200050433640100000000620008c7810204565b91506200051d82600180640100000000620008d3810204565b620005358260026001640100000000620008d3810204565b6200054d8260036001640100000000620008d3810204565b600193506001925062000616565b5060005b87518110156200061657620005b688828151811015156200057c57fe5b9060200190602002015188838151811015156200059557fe5b906020019060200201516001620008d3640100000000026401000000009004565b60018782815181101515620005c757fe5b906020019060200201511415620005e4576001909201916200060d565b60028782815181101515620005f557fe5b9060200190602002015114156200060d576001909301925b6001016200055f565b600086116200062457600080fd5b828611156200063257600080fd5b600085116200064057600080fd5b838511156200064e57600080fd5b505050600092909255600155505050565b62000669620014b2565b60608060005b8951811015620008bb5783518551620006b491908790600385029081106200069357fe5b602090810290910101518a9190640100000000620045516200092482021704565b9250620006f884600160200201518683600302600101815181101515620006d757fe5b60209081029091010151899190640100000000620045516200092482021704565b91506200074989828151811015156200070d57fe5b9060200190602002015160018c848151811015156200072857fe5b90602001906020020151868662000a10640100000000026401000000009004565b15156200075557600080fd5b6200082b620007a48b838151811015156200076c57fe5b906020019060200201518b848151811015156200078557fe5b9060200190602002015162000bbb640100000000026401000000009004565b8a83815181101515620007b357fe5b9060200190602002015160018d85815181101515620007ce57fe5b6020908102909101015187876200081c8b600260200201518d8a600302600201815181101515620007fb57fe5b602090810290910101518f91906401000000006200461862000c6a82021704565b64010000000062000c8a810204565b84816003028151811015156200083d57fe5b6020908102919091010151845160ff90911601845284518590600383026001019081106200086757fe5b6020908102909101015160ff16846001602002018051909101905284518590600260038402019081106200089757fe5b6020908102909101015160ff1684600260200201805190910190526001016200066f565b50505050505050505050565b600160a060020a031690565b620008f06002848484640100000000620042e062000f1182021704565b6040518190839085907f480000bb1edad8ca1470381cc334b1917fbd51c6531f3a623ea8e0ec7e38a6e990600090a4505050565b6060806000808460ff166040519080825280601f01601f1916602001820160405280156200095c578160200160208202803883390190505b509250600091508590505b8460ff16860181101562000a055786818151811015156200098457fe5b9060200101517f010000000000000000000000000000000000000000000000000000000000000090047f0100000000000000000000000000000000000000000000000000000000000000028383806001019450815181101515620009e457fe5b906020010190600160f860020a031916908160001a90535060010162000967565b509095945050505050565b600080600186141562000bac5762000a4762000a3730898664010000000062000f83810204565b8564010000000062001084810204565b905080600160a060020a031685600160a060020a0316141562000a6e576001915062000bb1565b600160a060020a03851630141562000ab95762000ab162000a9882640100000000620008c7810204565b600290600364010000000062003650620011a282021704565b915062000bb1565b62000aef62000ad0640100000000620002a4810204565b600160a060020a03871690640100000000620038426200129182021704565b1562000bac57600160a060020a03851663d202158d62000b1883640100000000620008c7810204565b604080517c010000000000000000000000000000000000000000000000000000000063ffffffff85160281526004810192909252600360248301525160448083019260209291908290030181600087803b15801562000b7657600080fd5b505af115801562000b8b573d6000803e3d6000fd5b505050506040513d602081101562000ba257600080fd5b5051915062000bb1565b600091505b5095945050505050565b600082826040516020018083600160a060020a0316600160a060020a03166c01000000000000000000000000028152601401828152602001925050506040516020818303038152906040526040518082805190602001908083835b6020831062000c375780518252601f19909201916020918201910162000c16565b5181516020939093036101000a600019018019909116921691909117905260405192018290039091209695505050505050565b606062000c8284848464010000000062000924810204565b949350505050565b6040805160c0810182528781526020808201888152600160a060020a03888116848601908152606085018981526080860189905260a0860188905260008e8152600a865296909620855181559251600184015551600283018054600160a060020a031916919092161790559251805192939262000d0e9260038501920190620014d1565b506080820151805162000d2c916004840191602090910190620014d1565b5060a0820151805162000d4a916005840191602090910190620014d1565b5050506000868152600b60209081526040808320805460018181018355918552838520018b9055600c80549091019055805188815260808184018181528851918301919091528751600160a060020a038a16958c958e957f46149b18aa084502c3f12bc75e19eda8bda8d102b82cce8474677a6d0d5f43c5958e958d958d958d959394929392850192606086019260a0870192918a01918190849084905b8381101562000e0257818101518382015260200162000de8565b50505050905090810190601f16801562000e305780820380516001836020036101000a031916815260200191505b50848103835286518152865160209182019188019080838360005b8381101562000e6557818101518382015260200162000e4b565b50505050905090810190601f16801562000e935780820380516001836020036101000a031916815260200191505b50848103825285518152855160209182019187019080838360005b8381101562000ec857818101518382015260200162000eae565b50505050905090810190601f16801562000ef65780820380516001836020036101000a031916815260200191505b5097505050505050505060405180910390a450505050505050565b6000838152602085815260408220805460018101825581845291909220018390556002810154151562000f4d5760028101849055600181018290555b50506000908152600180840160209081526040832080548084018255908452922090910191909155600290910180549091019055565b60008383836040516020018084600160a060020a0316600160a060020a03166c0100000000000000000000000002815260140183815260200182805190602001908083835b6020831062000fe95780518252601f19909201916020918201910162000fc8565b6001836020036101000a03801982511681845116808217855250505050505090500193505050506040516020818303038152906040526040518082805190602001908083835b60208310620010505780518252601f1990920191602091820191016200102f565b5181516020939093036101000a60001901801990911692169190911790526040519201829003909120979650505050505050565b60006200119b826040805190810160405280601c81526020017f19457468657265756d205369676e6564204d6573736167653a0a333200000000815250856040516020018083805190602001908083835b60208310620010f65780518252601f199092019160209182019101620010d5565b51815160209384036101000a600019018019909216911617905292019384525060408051808503815293820190819052835193945092839250908401908083835b60208310620011585780518252601f19909201916020918201910162001137565b5181516020939093036101000a60001901801990911692169190911790526040519201829003909120939250506401000000006200138a81026200377217049050565b9392505050565b6000620011ae62001556565b60008481526020868152604080832081518154608094810282018501909352606081018381529093919284928491908401828280156200120e57602002820191906000526020600020905b815481526020019060010190808311620011f9575b505050918352505060018201546020820152600290910154604091820152810151909250151562001243576000925062001288565b5060005b815151811015620012885781518051859190839081106200126457fe5b9060200190602002015114156200127f576001925062001288565b60010162001247565b50509392505050565b60008080620012ca857f01ffc9a70000000000000000000000000000000000000000000000000000000064010000000062001466810204565b9092509050811580620012db575080155b15620012eb576000925062001382565b62001320857fffffffff0000000000000000000000000000000000000000000000000000000064010000000062001466810204565b90925090508115806200133257508015155b1562001342576000925062001382565b62001357858564010000000062001466810204565b90925090506001821480156200136d5750806001145b156200137d576001925062001382565b600092505b505092915050565b60008060008084516041141515620013a657600093506200145d565b50505060208201516040830151606084015160001a601b60ff82161015620013cc57601b015b8060ff16601b14158015620013e557508060ff16601c14155b15620013f557600093506200145d565b60408051600080825260208083018085528a905260ff8516838501526060830187905260808301869052925160019360a0808501949193601f19840193928390039091019190865af115801562001450573d6000803e3d6000fd5b5050506020604051035193505b50505092915050565b6040517f01ffc9a70000000000000000000000000000000000000000000000000000000080825260048201839052600091829190602081818189617530fa905190969095509350505050565b6060604051908101604052806003906020820280388339509192915050565b828054600181600116156101000203166002900490600052602060002090601f016020900481019282601f106200151457805160ff191683800117855562001544565b8280016001018555821562001544579182015b828111156200154457825182559160200191906001019062001527565b506200155292915062001576565b5090565b604080516060818101835281526000602082018190529181019190915290565b620002a191905b808211156200155257600081556001016200157d565b61465980620015a36000396000f30060806040526004361061029a5763ffffffff60e060020a60003504166301ffc9a7811461029c57806302e7491e146102d25780630440b43a14610304578063058b316c1461032b57806312aaac7014610340578063190db862146103b95780631d203be8146103dd5780631d38124014610446578063251de3e914610304578063262b54f5146104645780632d32d442146104cc5780632e7700f0146104e157806338f4edd4146104f65780633b8a12c81461050b5780633f4ba83a1461058557806349991ec81461032b5780634da34c2c1461059a5780634eee424a1461064757806353d413c51461065f5780635c975abb1461067a5780635d7bc3fc1461068f5780635dccebba146106a757806363f14c3c1461075e5780636e4c43111461077f578063710ca5501461032b578063724a4b3b1461079a578063747442d3146107d057806375e5598c146104cc578063765b3042146107ed5780637d96fa581461081e57806382d094461461032b5780638456cb59146108335780639010f726146108485780639e140cc814610860578063a550f0c7146104cc578063aa0a514214610875578063ae62838614610860578063affed0e01461088a578063b132734e1461089f578063b1a34e0d146108b4578063b1e9f64c1461099c578063b2ec6e49146109b1578063b61d27f614610a20578063b9133d6314610a89578063bf2f20ad14610a9e578063c32b351814610ab3578063c670218714610304578063c9100bcb14610b0c578063c9d24ecc14610c8f578063ccfe586814610ca4578063d202158d14610cbc578063dbfa74b71461099c578063e0610ba314610cd7578063e99896b814610dfd578063ead09fab14610e15578063f22d08a6146104cc578063f5074f4114610e2a578063fc0fc84914610e4b575b005b3480156102a857600080fd5b506102be600160e060020a031960043516610e60565b604080519115158252519081900360200190f35b3480156102de57600080fd5b506102e7610e7f565b60408051600160e060020a03199092168252519081900360200190f35b34801561031057600080fd5b50610319610ea4565b60408051918252519081900360200190f35b34801561033757600080fd5b50610319610ea9565b34801561034c57600080fd5b50610358600435610eae565b60408051602080820185905291810183905260608082528551908201528451909182916080830191878101910280838360005b838110156103a357818101518382015260200161038b565b5050505090500194505050505060405180910390f35b3480156103c557600080fd5b50610319600160a060020a0360043516602435610f53565b3480156103e957600080fd5b50604080516020600460443581810135601f8101849004840285018401909552848452610319948235600160a060020a03169460248035953695946064949201919081908401838280828437509497506110009650505050505050565b34801561045257600080fd5b506102be600435602435604435611100565b34801561047057600080fd5b5061047c600435611159565b60408051602080825283518183015283519192839290830191858101910280838360005b838110156104b85781810151838201526020016104a0565b505050509050019250505060405180910390f35b3480156104d857600080fd5b506103196111bc565b3480156104ed57600080fd5b506103196111c1565b34801561050257600080fd5b506103196111c7565b34801561051757600080fd5b5060408051602060046024803582810135601f81018590048502860185019096528585526105699583359536956044949193909101919081908401838280828437509497506111cd9650505050505050565b60408051600160a060020a039092168252519081900360200190f35b34801561059157600080fd5b5061029a6112d0565b3480156105a657600080fd5b50604080516020600460443581810135601f8101849004840285018401909552848452610319948235600160a060020a031694602480359536959460649492019190819084018382808284375050604080516020601f818a01358b0180359182018390048302840183018552818452989b8a359b909a9099940197509195509182019350915081908401838280828437509497506113299650505050505050565b34801561065357600080fd5b506102be600435611445565b34801561066b57600080fd5b506102be600435602435611a4e565b34801561068657600080fd5b506102be611ae5565b34801561069b57600080fd5b506102be600435611aee565b3480156106b357600080fd5b506106bf600435611e57565b6040518085600160a060020a0316600160a060020a0316815260200184815260200180602001838152602001828103825284818151815260200191508051906020019080838360005b83811015610720578181015183820152602001610708565b50505050905090810190601f16801561074d5780820380516001836020036101000a031916815260200191505b509550505050505060405180910390f35b34801561076a57600080fd5b50610319600160a060020a0360043516611f13565b34801561078b57600080fd5b50610569600435602435611f1f565b3480156107a657600080fd5b506102be600435600160a060020a0360243516600160e060020a0319604435166064351515611f56565b3480156107dc57600080fd5b506102be6004356024351515611fb7565b3480156107f957600080fd5b506102be600435600160a060020a0360243516600160e060020a031960443516612504565b34801561082a57600080fd5b506102e7612546565b34801561083f57600080fd5b5061029a61256a565b34801561085457600080fd5b5061047c6004356125c5565b34801561086c57600080fd5b50610319612626565b34801561088157600080fd5b5061031961262b565b34801561089657600080fd5b50610319612631565b3480156108ab57600080fd5b50610319612637565b3480156108c057600080fd5b50604080516020601f606435600481810135928301849004840285018401909552818452610319948035946024803595600160a060020a0360443516953695608494930191819084018382808284375050604080516020601f89358b018035918201839004830284018301909452808352979a99988101979196509182019450925082915084018382808284375050604080516020601f89358b018035918201839004830284018301909452808352979a99988101979196509182019450925082915084018382808284375094975061263c9650505050505050565b3480156109a857600080fd5b50610319612aed565b3480156109bd57600080fd5b50604080516020601f60643560048181013592830184900484028501840190955281845261029a94600160a060020a038135811695602480359092169560443595369560849401918190840183828082843750949750612af29650505050505050565b348015610a2c57600080fd5b50604080516020600460443581810135601f8101849004840285018401909552848452610319948235600160a060020a0316946024803595369594606494920191908190840183828082843750949750612af89650505050505050565b348015610a9557600080fd5b50610319612e2a565b348015610aaa57600080fd5b506102e7612e2f565b348015610abf57600080fd5b506040805160206004803580820135601f81018490048402850184019095528484526102e7943694929360249392840191908190840183828082843750949750612e539650505050505050565b348015610b1857600080fd5b50610b24600435612ebb565b6040518087815260200186815260200185600160a060020a0316600160a060020a03168152602001806020018060200180602001848103845287818151815260200191508051906020019080838360005b83811015610b8d578181015183820152602001610b75565b50505050905090810190601f168015610bba5780820380516001836020036101000a031916815260200191505b50848103835286518152865160209182019188019080838360005b83811015610bed578181015183820152602001610bd5565b50505050905090810190601f168015610c1a5780820380516001836020036101000a031916815260200191505b50848103825285518152855160209182019187019080838360005b83811015610c4d578181015183820152602001610c35565b50505050905090810190601f168015610c7a5780820380516001836020036101000a031916815260200191505b50995050505050505050505060405180910390f35b348015610c9b57600080fd5b50610319613111565b348015610cb057600080fd5b5061029a600435613117565b348015610cc857600080fd5b506102be60043560243561316a565b348015610ce357600080fd5b50604080516020601f606435600481810135928301849004840285018401909552818452610319948035946024803595600160a060020a0360443516953695608494930191819084018382808284375050604080516020601f89358b018035918201839004830284018301909452808352979a99988101979196509182019450925082915084018382808284375050604080516020601f89358b018035918201839004830284018301909452808352979a99988101979196509182019450925082915084018382808284375050604080516020601f89358b018035918201839004830284018301909452808352979a99988101979196509182019450925082915084018382808284375094975061317e9650505050505050565b348015610e0957600080fd5b5061029a60043561358c565b348015610e2157600080fd5b506103196135df565b348015610e3657600080fd5b5061029a600160a060020a03600435166135e4565b348015610e5757600080fd5b50610319613618565b600160e060020a03191660009081526006602052604090205460ff1690565b7f01ffc9a7000000000000000000000000000000000000000000000000000000005b90565b600381565b600181565b6060600080610ebb61439d565b60008581526002602090815260409182902082518154608093810282018401909452606081018481529093919284928491840182828015610f1b57602002820191906000526020600020905b815481526020019060010190808311610f07575b505050918352505060018201546020808301919091526002909201546040918201528251918301519201519097919650945092505050565b600082826040516020018083600160a060020a0316600160a060020a03166c01000000000000000000000000028152601401828152602001925050506040516020818303038152906040526040518082805190602001908083835b60208310610fcd5780518252601f199092019160209182019101610fae565b5181516020939093036101000a600019018019909116921691909117905260405192018290039091209695505050505050565b60008383836040516020018084600160a060020a0316600160a060020a03166c0100000000000000000000000002815260140183815260200182805190602001908083835b602083106110645780518252601f199092019160209182019101611045565b6001836020036101000a03801982511681845116808217855250505050505090500193505050506040516020818303038152906040526040518082805190602001908083835b602083106110c95780518252601f1990920191602091820191016110aa565b6001836020036101000a038019825116818451168082178552505050505050905001915050604051809103902090505b9392505050565b600061110a61361e565b151561111557600080fd5b60055460ff161561112557600080fd5b6111376002858563ffffffff61365016565b15611144575060006110f9565b61114f84848461372b565b5060019392505050565b6000818152600b60209081526040918290208054835181840281018401909452808452606093928301828280156111b057602002820191906000526020600020905b8154815260019091019060200180831161119b575b50505050509050919050565b600281565b60075490565b60015481565b60006110f9826040805190810160405280601c81526020017f19457468657265756d205369676e6564204d6573736167653a0a333200000000815250856040516020018083805190602001908083835b6020831061123c5780518252601f19909201916020918201910161121d565b51815160209384036101000a600019018019909216911617905292019384525060408051808503815293820190819052835193945092839250908401908083835b6020831061129c5780518252601f19909201916020918201910161127d565b5181516020939093036101000a60001901801990911692169190911790526040519201829003909120939250506137729050565b6112d861361e565b15156112e357600080fd5b60055460ff1615156112f457600080fd5b6005805460ff191690556040517f730c1faaa977b67dacf1e2451ef54556e04a07d577785ff79f6d31f73502efc990600090a1565b600554600090819060ff161561133e57600080fd5b611439878787876040516020018085600160a060020a0316600160a060020a03166c0100000000000000000000000002815260140184815260200183805190602001908083835b602083106113a45780518252601f199092019160209182019101611385565b51815160209384036101000a6000190180199092169116179052920193845250604080518085038152938201908190528351939650945084935085019190508083835b602083106114065780518252601f1990920191602091820191016113e7565b6001836020036101000a0380198251168184511680821785525050505050509050019150506040518091039020846111cd565b90505095945050505050565b600061144f6143bd565b600554600090819060ff161561146457600080fd5b6000858152600a60205260409020600201548590600160a060020a031680151561148d57600080fd5b61149561361e565b1561149f57611578565b33600160a060020a03821614156114b557611578565b6114d66114c0612546565b600160a060020a0383169063ffffffff61384216565b156115735780600160a060020a031663d202158d6114f333611f13565b6040805160e060020a63ffffffff85160281526004810192909252600260248301525160448083019260209291908290030181600087803b15801561153757600080fd5b505af115801561154b573d6000803e3d6000fd5b505050506040513d602081101561156157600080fd5b5051151561156e57600080fd5b611578565b600080fd5b6000878152600a6020908152604091829020825160c0810184528154815260018083015482850152600280840154600160a060020a0316838701526003840180548751601f94821615610100026000190190911692909204928301869004860282018601909652818152919492936060860193919083018282801561163e5780601f106116135761010080835404028352916020019161163e565b820191906000526020600020905b81548152906001019060200180831161162157829003601f168201915b505050918352505060048201805460408051602060026001851615610100026000190190941693909304601f81018490048402820184019092528181529382019392918301828280156116d25780601f106116a7576101008083540402835291602001916116d2565b820191906000526020600020905b8154815290600101906020018083116116b557829003601f168201915b505050918352505060058201805460408051602060026001851615610100026000190190941693909304601f81018490048402820184019092528181529382019392918301828280156117665780601f1061173b57610100808354040283529160200191611766565b820191906000526020600020905b81548152906001019060200180831161174957829003601f168201915b505050919092525050506040810151909550600160a060020a0316151561178c57600080fd5b6000878152600a6020526040812081815560018101829055600281018054600160a060020a0319169055906117c460038301826143fd565b6117d26004830160006143fd565b6117e06005830160006143fd565b505084516000908152600b60205260408120945092505b8354831015611897578354879085908590811061181057fe5b600091825260209091200154141561188c5783548490600019810190811061183457fe5b9060005260206000200154848481548110151561184d57fe5b60009182526020909120015583548490600019810190811061186b57fe5b60009182526020822001558354611886856000198301614444565b50611897565b6001909201916117f7565b600c60008154809291906001900391905055508460400151600160a060020a0316856000015188600019167f3cf57863a89432c61c4a27073c6ee39e8a764bff5a05aebfbcdcdc80b2e6130a886020015189606001518a608001518b60a0015160405180858152602001806020018060200180602001848103845287818151815260200191508051906020019080838360005b8381101561194257818101518382015260200161192a565b50505050905090810190601f16801561196f5780820380516001836020036101000a031916815260200191505b50848103835286518152865160209182019188019080838360005b838110156119a257818101518382015260200161198a565b50505050905090810190601f1680156119cf5780820380516001836020036101000a031916815260200191505b50848103825285518152855160209182019187019080838360005b83811015611a025781810151838201526020016119ea565b50505050905090810190601f168015611a2f5780820380516001836020036101000a031916815260200191505b5097505050505050505060405180910390a45060019695505050505050565b600080611a5961361e565b1515611a6457600080fd5b60055460ff1615611a7457600080fd5b611a866002858563ffffffff61365016565b1515611a955760009150611ade565b611aa76002858563ffffffff6138f916565b6040519091508190849086907f585a4aef50f8267a92b32412b331b20f7f8b96f2245b253b9cc50dcc621d339790600090a4600191505b5092915050565b60055460ff1681565b6000611af86143bd565b60055460ff1615611b0857600080fd5b6000838152600a60205260409020600201548390600160a060020a0316801515611b3157600080fd5b611b3961361e565b15611b4357611bfc565b33600160a060020a0382161415611b5957611bfc565b611b646114c0612546565b156115735780600160a060020a031663d202158d611b8133611f13565b6040805160e060020a63ffffffff85160281526004810192909252600260248301525160448083019260209291908290030181600087803b158015611bc557600080fd5b505af1158015611bd9573d6000803e3d6000fd5b505050506040513d6020811015611bef57600080fd5b50511515611bfc57600080fd5b6000858152600a6020908152604091829020825160c0810184528154815260018083015482850152600280840154600160a060020a0316838701526003840180548751601f948216156101000260001901909116929092049283018690048602820186019096528181529194929360608601939190830182828015611cc25780601f10611c9757610100808354040283529160200191611cc2565b820191906000526020600020905b815481529060010190602001808311611ca557829003601f168201915b505050918352505060048201805460408051602060026001851615610100026000190190941693909304601f8101849004840282018401909252818152938201939291830182828015611d565780601f10611d2b57610100808354040283529160200191611d56565b820191906000526020600020905b815481529060010190602001808311611d3957829003601f168201915b505050918352505060058201805460408051602060026001851615610100026000190190941693909304601f8101849004840282018401909252818152938201939291830182828015611dea5780601f10611dbf57610100808354040283529160200191611dea565b820191906000526020600020905b815481529060010190602001808311611dcd57829003601f168201915b505050919092525050506040810151909350600160a060020a03161515611e1057600080fd5b611e3183600001518460200151856040015186606001518760800151613aa4565b1515611e4a57611e4085611445565b5060009350611e4f565b600193505b505050919050565b60086020908152600091825260409182902080546001808301546002808501805488516101009582161595909502600019011691909104601f8101879004870284018701909752868352600160a060020a03909316959094919291830182828015611f035780601f10611ed857610100808354040283529160200191611f03565b820191906000526020600020905b815481529060010190602001808311611ee657829003601f168201915b5050505050908060030154905084565b600160a060020a031690565b600960205281600052604060002081815481101515611f3a57fe5b600091825260209091200154600160a060020a03169150829050565b6000611f6061361e565b1515611f6b57600080fd5b60055460ff1615611f7b57600080fd5b611f8c60028663ffffffff613be116565b1515611f9757600080fd5b611fab60028686868663ffffffff613c7316565b50600195945050505050565b60055460009081908190819060ff1615611fd057600080fd5b851515611fdc57600080fd5b60008681526008602052604090208054909350600160a060020a0316151561200357600080fd5b8254600160a060020a031630141561212e5761203161202133611f13565b600290600163ffffffff61365016565b1561203b57612129565b61205761204733611f13565b600290600763ffffffff61365016565b8015612123575060028084018054604080516020601f60001961010060018716150201909416959095049283018590048502810185019091528181527f1d38124000000000000000000000000000000000000000000000000000000000936121179391929083018282801561210d5780601f106120e25761010080835404028352916020019161210d565b820191906000526020600020905b8154815290600101906020018083116120f057829003601f168201915b5050505050612e53565b600160e060020a031916145b15611573575b612259565b61214961213a33611f13565b6002908163ffffffff61365016565b1561215357612259565b61216f61215f33611f13565b600290600663ffffffff61365016565b1561217957612259565b61219561218533611f13565b600290600863ffffffff61365016565b80156122535750600260006121a933611f13565b8152602080820192909252604090810160009081208654600160a060020a0316825260030183528181206002808801805485516000196101006001841615020190911692909204601f8101879004870283018701909552848252919492936122349391929183018282801561210d5780601f106120e25761010080835404028352916020019161210d565b600160e060020a031916815260208101919091526040016000205460ff165b15611573575b604080518615158152905187917fb3932da477fe5d6c8ff2eafef050c0f3a1af18fc07121001482600f36f3715d8919081900360200190a2600086815260096020526040902091508415156123a3575060005b815481101561239a57815433908390839081106122c557fe5b600091825260209091200154600160a060020a03161415612392578154829060001981019081106122f257fe5b6000918252602090912001548254600160a060020a039091169083908390811061231857fe5b60009182526020909120018054600160a060020a031916600160a060020a039290921691909117905581548290600019810190811061235357fe5b60009182526020909120018054600160a060020a0319169055815461237c836000198301614444565b50600383018054600190810190915593506124fb565b6001016122ac565b600093506124fb565b5060005b81548110156123e857815433908390839081106123c057fe5b600091825260209091200154600160a060020a031614156123e057600080fd5b6001016123a7565b8154600181018355600083815260209020018054600160a060020a03191633179055600383018054600019019081905515156124f657604080516080810182528454600160a060020a031681526001808601546020808401919091526002808801805486516101009582161595909502600019011691909104601f810183900483028401830186528084526124ef958c95948a9491860193909290918301828280156124d55780601f106124aa576101008083540402835291602001916124d5565b820191906000526020600020905b8154815290600101906020018083116124b857829003601f168201915b505050505081526020016003820154815250506001613cc0565b93506124fb565b600193505b50505092915050565b6000838152600260209081526040808320600160a060020a03861684526003018252808320600160e060020a03198516845290915290205460ff169392505050565b7fdc3d2a7b0000000000000000000000000000000000000000000000000000000090565b61257261361e565b151561257d57600080fd5b60055460ff161561258d57600080fd5b6005805460ff191660011790556040517f4b314b34e912fda7f95e7d23e9c8c95f82f0aff1984e4ce592a0b005f905562490600090a1565b6000818152600360209081526040918290208054835181840281018401909452808452606093928301828280156111b057602002820191906000526020600020908154815260019091019060200180831161119b5750505050509050919050565b600481565b60005481565b60075481565b600881565b60055460009081908190819060ff161561265557600080fd5b6126628a8a8a8a8a613aa4565b151561266d57600080fd5b61267561361e565b92508215156128c3576040517fb61d27f600000000000000000000000000000000000000000000000000000000815230600482018181526000602484018190526060604485019081523660648601819052939463b61d27f694869484939192909190608401848480828437820191505095505050505050602060405180830381600087803b15801561270657600080fd5b505af115801561271a573d6000803e3d6000fd5b505050506040513d602081101561273057600080fd5b8101908080519060200190929190505050935087600160a060020a03168a857fe6b6db97dedfb44cbced367387e40b3f92dbee1b1be87f9367f7b673532b0d698c8b8b8b60405180858152602001806020018060200180602001848103845287818151815260200191508051906020019080838360005b838110156127bf5781810151838201526020016127a7565b50505050905090810190601f1680156127ec5780820380516001836020036101000a031916815260200191505b50848103835286518152865160209182019188019080838360005b8381101561281f578181015183820152602001612807565b50505050905090810190601f16801561284c5780820380516001836020036101000a031916815260200191505b50848103825285518152855160209182019187019080838360005b8381101561287f578181015183820152602001612867565b50505050905090810190601f1680156128ac5780820380516001836020036101000a031916815260200191505b5097505050505050505060405180910390a4612ae0565b6128cd888b610f53565b6000818152600a6020526040902060020154909250600160a060020a0316151561290557612900828b8b8b8b8b8b613f42565b612ae0565b506000818152600a60209081526040909120600181018a9055875190916129339160038401918a019061446d565b508551612949906004830190602089019061446d565b50845161295f906005830190602088019061446d565b5087600160a060020a03168a83600019167f3bab293fc00db832d7619a9299914251b8747c036867ec056cbd506f60135b138c8b8b8b60405180858152602001806020018060200180602001848103845287818151815260200191508051906020019080838360005b838110156129e05781810151838201526020016129c8565b50505050905090810190601f168015612a0d5780820380516001836020036101000a031916815260200191505b50848103835286518152865160209182019188019080838360005b83811015612a40578181015183820152602001612a28565b50505050905090810190601f168015612a6d5780820380516001836020036101000a031916815260200191505b50848103825285518152855160209182019187019080838360005b83811015612aa0578181015183820152602001612a88565b50505050905090810190601f168015612acd5780820380516001836020036101000a031916815260200191505b5097505050505050505060405180910390a45b5050509695505050505050565b600581565b50505050565b600080612b036144eb565b60055460ff1615612b1357600080fd5b600160a060020a038616301415612bb05733301415612b36576000549150612bab565b612b4261202133611f13565b15612b54576001600054039150612bab565b612b6061204733611f13565b8015612b9d57507f1d38124000000000000000000000000000000000000000000000000000000000612b9185612e53565b600160e060020a031916145b156115735760016000540391505b612c90565b600160a060020a0386161515612bc557600080fd5b33301415612bd7576001549150612c90565b612be361213a33611f13565b15612bf45760018054039150612c90565b612c0061215f33611f13565b15612c115760018054039150612c90565b612c1d61218533611f13565b8015612c83575060026000612c3133611f13565b815260208082019290925260409081016000908120600160a060020a038a168252600301909252812090612c6486612e53565b600160e060020a031916815260208101919091526040016000205460ff165b1561157357600180540391505b612c9f308787876007546141ba565b92508486600160a060020a0316847f8afcfabcb00e47a53a8fc3e9f23ff47ee1926194bb1350dd007c50b412a6cee8876040518080602001828103825283818151815260200191508051906020019080838360005b83811015612d0c578181015183820152602001612cf4565b50505050905090810190601f168015612d395780820380516001836020036101000a031916815260200191505b509250505060405180910390a45060078054600101905560408051608081018252600160a060020a03871681526020810186905290810184905260608101829052811515612d9357612d8d83826000613cc0565b50612e21565b60008381526008602090815260409182902083518154600160a060020a031916600160a060020a03909116178155838201516001820155918301518051849392612de492600285019291019061446d565b50606091909101516003909101556000838152600960209081526040822080546001810182559083529120018054600160a060020a031916331790555b50509392505050565b600781565b7f107653790000000000000000000000000000000000000000000000000000000090565b600080805b6004811015611ade57806008028482815181101515612e7357fe5b60209101015160029190910a60f860020a918290049091027fff0000000000000000000000000000000000000000000000000000000000000016049190911790600101612e58565b60008060006060806060612ecd6143bd565b6000888152600a6020908152604091829020825160c0810184528154815260018083015482850152600280840154600160a060020a0316838701526003840180548751601f948216156101000260001901909116929092049283018690048602820186019096528181529194929360608601939190830182828015612f935780601f10612f6857610100808354040283529160200191612f93565b820191906000526020600020905b815481529060010190602001808311612f7657829003601f168201915b505050918352505060048201805460408051602060026001851615610100026000190190941693909304601f81018490048402820184019092528181529382019392918301828280156130275780601f10612ffc57610100808354040283529160200191613027565b820191906000526020600020905b81548152906001019060200180831161300a57829003601f168201915b505050918352505060058201805460408051602060026001851615610100026000190190941693909304601f81018490048402820184019092528181529382019392918301828280156130bb5780601f10613090576101008083540402835291602001916130bb565b820191906000526020600020905b81548152906001019060200180831161309e57829003601f168201915b505050919092525050506040810151909150600160a060020a031615156130e157600080fd5b8051602082015160408301516060840151608085015160a090950151939c929b5090995097509195509350915050565b60045490565b60055460009060ff161561312a57600080fd5b61313261361e565b151561313d57600080fd5b6000821161314a57600080fd5b61315460016125c5565b5190508082111561316457600080fd5b50600055565b60006110f96002848463ffffffff61365016565b60055460009081908190819060ff161561319757600080fd5b6131a48b8b8b8b8b613aa4565b15156131af57600080fd5b6133488b8b8b8b8b8b6040516020018087815260200186815260200185600160a060020a0316600160a060020a03166c0100000000000000000000000002815260140184805190602001908083835b6020831061321d5780518252601f1990920191602091820191016131fe565b51815160209384036101000a600019018019909216911617905286519190930192860191508083835b602083106132655780518252601f199092019160209182019101613246565b51815160209384036101000a600019018019909216911617905285519190930192850191508083835b602083106132ad5780518252601f19909201916020918201910161328e565b6001836020036101000a03801982511681845116808217855250505050505090500196505050505050506040516020818303038152906040526040518082805190602001908083835b602083106133155780518252601f1990920191602091820191016132f6565b6001836020036101000a0380198251168184511680821785525050505050509050019150506040518091039020866111cd565b925061335661202184611f13565b151561336157600080fd5b61336b898c610f53565b6000818152600a6020526040902060020154909250600160a060020a031615156133a35761339e828c8c8c8c8c8c613f42565b61357e565b506000818152600a60209081526040909120600181018b9055885190916133d19160038401918b019061446d565b5086516133e790600483019060208a019061446d565b5085516133fd906005830190602089019061446d565b5088600160a060020a03168b83600019167f3bab293fc00db832d7619a9299914251b8747c036867ec056cbd506f60135b138d8c8c8c60405180858152602001806020018060200180602001848103845287818151815260200191508051906020019080838360005b8381101561347e578181015183820152602001613466565b50505050905090810190601f1680156134ab5780820380516001836020036101000a031916815260200191505b50848103835286518152865160209182019188019080838360005b838110156134de5781810151838201526020016134c6565b50505050905090810190601f16801561350b5780820380516001836020036101000a031916815260200191505b50848103825285518152855160209182019187019080838360005b8381101561353e578181015183820152602001613526565b50505050905090810190601f16801561356b5780820380516001836020036101000a031916815260200191505b5097505050505050505060405180910390a45b505050979650505050505050565b60055460009060ff161561359f57600080fd5b6135a761361e565b15156135b257600080fd5b600082116135bf57600080fd5b6135c960026125c5565b519050808211156135d957600080fd5b50600155565b600681565b6135ec61361e565b15156135f757600080fd5b600160a060020a038116151561360c57600080fd5b80600160a060020a0316ff5b600c5481565b60003330141561363057506001610ea1565b60005460011461363f57600080fd5b61364b61202133611f13565b905090565b600061365a61439d565b60008481526020868152604080832081518154608094810282018501909352606081018381529093919284928491908401828280156136b857602002820191906000526020600020905b8154815260200190600101908083116136a4575b50505091835250506001820154602082015260029091015460409182015281015190925015156136eb5760009250612e21565b5060005b815151811015612e2157815180518591908390811061370a57fe5b9060200190602002015114156137235760019250612e21565b6001016136ef565b61373e600284848463ffffffff6142e016565b6040518190839085907f480000bb1edad8ca1470381cc334b1917fbd51c6531f3a623ea8e0ec7e38a6e990600090a4505050565b6000806000808451604114151561378c57600093506124fb565b50505060208201516040830151606084015160001a601b60ff821610156137b157601b015b8060ff16601b141580156137c957508060ff16601c14155b156137d757600093506124fb565b60408051600080825260208083018085528a905260ff8516838501526060830187905260808301869052925160019360a0808501949193601f19840193928390039091019190865af1158015613831573d6000803e3d6000fd5b5050506020604051035193506124fb565b60008080613870857f01ffc9a700000000000000000000000000000000000000000000000000000000614351565b9092509050811580613880575080155b1561388e57600092506138f1565b6138a085600160e060020a0319614351565b90925090508115806138b157508015155b156138bf57600092506138f1565b6138c98585614351565b90925090506001821480156138de5750806001145b156138ec57600192506138f1565b600092505b505092915050565b6000828152602084905260408120600181015491805b82548210156139b95784838381548110151561392757fe5b906000526020600020015414156139ae5782548390600019810190811061394a57fe5b9060005260206000200154838381548110151561396357fe5b60009182526020909120015582548390600019810190811061398157fe5b6000918252602082200155825461399c846000198301614444565b506002870180546000190190556139b9565b60019091019061390f565b825415156139eb576000868152602088905260408120906139da828261451d565b506000600182018190556002909101555b5050600083815260018601602052604081205b8054821015613a9a5780548690829084908110613a1757fe5b6000918252602090912001541415613a8f57805481906000198101908110613a3b57fe5b90600052602060002001548183815481101515613a5457fe5b600091825260209091200155805481906000198101908110613a7257fe5b60009182526020822001558054613a8d826000198301614444565b505b6001909101906139fe565b5050509392505050565b6000806001861415613bd257613ac4613abe308986611000565b856111cd565b905080600160a060020a031685600160a060020a03161415613ae95760019150613bd7565b600160a060020a038516301415613b1d57613b16613b0682611f13565b600290600363ffffffff61365016565b9150613bd7565b613b3e613b28612546565b600160a060020a0387169063ffffffff61384216565b15613bd25784600160a060020a031663d202158d613b5b83611f13565b6040805160e060020a63ffffffff85160281526004810192909252600360248301525160448083019260209291908290030181600087803b158015613b9f57600080fd5b505af1158015613bb3573d6000803e3d6000fd5b505050506040513d6020811015613bc957600080fd5b50519150613bd7565b600091505b5095945050505050565b6000613beb61439d565b6000838152602085815260409182902082518154608093810282018401909452606081018481529093919284928491840182828015613c4957602002820191906000526020600020905b815481526020019060010190808311613c35575b50505091835250506001820154602082015260029091015460409182015201511515949350505050565b600093845260209485526040808520600160a060020a03909416855260039093018552828420600160e060020a0319909216845293528120805492151560ff199093169290921790915590565b81516000908190600160a060020a03161515613cdb57600080fd5b8360000151600160a060020a03168460200151856040015160405180828051906020019080838360005b83811015613d1d578181015183820152602001613d05565b50505050905090810190601f168015613d4a5780820380516001836020036101000a031916815260200191505b5091505060006040518083038185875af1925050509050801515613e225783602001518460000151600160a060020a0316867fe10c49d9f7c71da23262367013434763cfdb2332267641728d25cd712c5c6a6887604001516040518080602001828103825283818151815260200191508051906020019080838360005b83811015613ddf578181015183820152602001613dc7565b50505050905090810190601f168015613e0c5780820380516001836020036101000a031916815260200191505b509250505060405180910390a460009150613f3a565b83602001518460000151600160a060020a0316867f1f920dbda597d7bf95035464170fa58d0a4b57f13a1c315ace6793b9f63688b887604001516040518080602001828103825283818151815260200191508051906020019080838360005b83811015613e99578181015183820152602001613e81565b50505050905090810190601f168015613ec65780820380516001836020036101000a031916815260200191505b509250505060405180910390a4821515613ee35760019150613f3a565b60008581526008602052604081208054600160a060020a03191681556001810182905590613f1460028301826143fd565b506000600391909101819055858152600960205260408120613f359161451d565b600191505b509392505050565b6040805160c0810182528781526020808201888152600160a060020a03888116848601908152606085018981526080860189905260a0860188905260008e8152600a865296909620855181559251600184015551600283018054600160a060020a0319169190921617905592518051929392613fc4926003850192019061446d565b5060808201518051613fe091600484019160209091019061446d565b5060a08201518051613ffc91600584019160209091019061446d565b5050506000868152600b60209081526040808320805460018181018355918552838520018b9055600c80549091019055805188815260808184018181528851918301919091528751600160a060020a038a16958c958e957f46149b18aa084502c3f12bc75e19eda8bda8d102b82cce8474677a6d0d5f43c5958e958d958d958d959394929392850192606086019260a0870192918a01918190849084905b838110156140b257818101518382015260200161409a565b50505050905090810190601f1680156140df5780820380516001836020036101000a031916815260200191505b50848103835286518152865160209182019188019080838360005b838110156141125781810151838201526020016140fa565b50505050905090810190601f16801561413f5780820380516001836020036101000a031916815260200191505b50848103825285518152855160209182019187019080838360005b8381101561417257818101518382015260200161415a565b50505050905090810190601f16801561419f5780820380516001836020036101000a031916815260200191505b5097505050505050505060405180910390a450505050505050565b600085858585856040516020018086600160a060020a0316600160a060020a03166c0100000000000000000000000002815260140185600160a060020a0316600160a060020a03166c0100000000000000000000000002815260140184815260200183805190602001908083835b602083106142475780518252601f199092019160209182019101614228565b51815160209384036101000a600019018019909216911617905292019384525060408051808503815293820190819052835193975095508594508601925081905083835b602083106142aa5780518252601f19909201916020918201910161428b565b5181516020939093036101000a600019018019909116921691909117905260405192018290039091209998505050505050505050565b6000838152602085815260408220805460018101825581845291909220018390556002810154151561431b5760028101849055600181018290555b50506000908152600180840160209081526040832080548084018255908452922090910191909155600290910180549091019055565b6040517f01ffc9a70000000000000000000000000000000000000000000000000000000080825260048201839052600091829190602081818189617530fa905190969095509350505050565b604080516060818101835281526000602082018190529181019190915290565b60c06040519081016040528060008152602001600081526020016000600160a060020a031681526020016060815260200160608152602001606081525090565b50805460018160011615610100020316600290046000825580601f106144235750614441565b601f0160209004906000526020600020908101906144419190614537565b50565b81548183558181111561446857600083815260209020614468918101908301614537565b505050565b828054600181600116156101000203166002900490600052602060002090601f016020900481019282601f106144ae57805160ff19168380011785556144db565b828001600101855582156144db579182015b828111156144db5782518255916020019190600101906144c0565b506144e7929150614537565b5090565b6080604051908101604052806000600160a060020a031681526020016000815260200160608152602001600081525090565b508054600082559060005260206000209081019061444191905b610ea191905b808211156144e7576000815560010161453d565b6060806000808460ff166040519080825280601f01601f191660200182016040528015614588578160200160208202803883390190505b509250600091508590505b8460ff16860181101561460d5786818151811015156145ae57fe5b90602001015160f860020a900460f860020a0283838060010194508151811015156145d557fe5b9060200101907effffffffffffffffffffffffffffffffffffffffffffffffffffffffffffff1916908160001a905350600101614593565b509095945050505050565b6060614625848484614551565b9493505050505600a165627a7a723058209e9258082879b571917e0b6bdee826c7aab9d2f900878c423642bd04b4889be60029",
  "source": "pragma solidity ^0.4.24;\n\nimport \"./Destructible.sol\";\nimport \"./ERC735.sol\";\nimport \"./KeyGetters.sol\";\nimport \"./KeyManager.sol\";\nimport \"./MultiSig.sol\";\nimport \"./ClaimManager.sol\";\nimport \"./Slice.sol\";\n\n/// @title Identity\n/// @author Mircea Pasoi\n/// @notice Identity contract implementing both ERC 725 and ERC 735\n\ncontract Identity is KeyManager, MultiSig, ClaimManager, Destructible, KeyGetters {\n    using Slice for bytes;\n    using Slice for string;\n\n    /// @dev Constructor for Identity contract. If no initial keys are passed then\n    ///  `msg.sender` is used as an initial MANAGEMENT_KEY, ACTION_KEY and CLAIM_SIGNER_KEY\n    /// @param _keys Keys to start contract with, in ascending order; in case of equality, purposes must be ascending\n    /// @param _purposes Key purposes (in the same order as _keys)\n    /// @param _issuers Claim issuers to start contract with, in ascending order; in case of equality, topics must be ascending\n    /// @param _managementThreshold Multi-sig threshold for MANAGEMENT_KEY\n    /// @param _actionThreshold Multi-sig threshold for ACTION_KEY\n    /// @param _topics Claim topics (in the same order as _issuers)\n    /// @param _signatures All the initial claim signatures concatenated in one bytes array\n    /// @param _datas All the initial claim data concatenated in one bytes array\n    /// @param _uris All the initial claim URIs concatenated in one string\n    /// @param _sizes Triples of signature, claim data, URI sizes (each must be  256)\n    constructor\n    (\n        bytes32[] _keys,\n        uint256[] _purposes,\n        uint256 _managementThreshold,\n        uint256 _actionThreshold,\n        address[] _issuers,\n        uint256[] _topics,\n        // TODO: Pass bytes[] signatures, bytes[] data and string[] uris once ABIEncoderV2 is out\n        bytes _signatures,\n        bytes _datas,\n        string _uris,\n        uint8[] _sizes\n    )\n    public {\n        _validateKeys(_keys, _purposes);\n        _validateClaims(_issuers, _topics, _sizes);\n\n        _addKeys(_keys, _purposes, _managementThreshold, _actionThreshold);\n        _addClaims(_issuers, _topics, _signatures, _datas, _uris, _sizes);\n\n        // Supports both ERC 725 & 735\n        supportedInterfaces[ERC725ID() ^ ERC735ID()] = true;\n    }\n\n    // Fallback function accepts Ether transactions\n    // solhint-disable-next-line no-empty-blocks\n    function () external payable {\n    }\n\n    /// @dev Validate keys are sorted and unique\n    /// @param _keys Keys to start contract with, in ascending order; in case of equality, purposes must be ascending\n    /// @param _purposes Key purposes (in the same order as _keys)\n    function _validateKeys\n    (\n        bytes32[] _keys,\n        uint256[] _purposes\n    )\n    private\n    pure\n    {\n        // Validate keys are sorted and unique\n        require(_keys.length == _purposes.length);\n        for (uint i = 1; i < _keys.length; i++) {\n            // Expect input to be in sorted order, first by keys, then by purposes\n            // Sorted order guarantees (key, purpose) pairs are unique and we can use\n            // _addKey insteaad of addKey (which also checks for existance)\n            bytes32 prevKey = _keys[i - 1];\n            require(_keys[i] > prevKey || (_keys[i] == prevKey && _purposes[i] > _purposes[i - 1]));\n        }\n    }\n\n    /// @dev Add keys to contract and set multi-sig thresholds\n    /// @param _keys Keys to start contract with, in ascending order; in case of equality, purposes must be ascending\n    /// @param _purposes Key purposes (in the same order as _keys)\n    /// @param _managementThreshold Multi-sig threshold for MANAGEMENT_KEY\n    /// @param _actionThreshold Multi-sig threshold for ACTION_KEY\n    function _addKeys\n    (\n        bytes32[] _keys,\n        uint256[] _purposes,\n        uint256 _managementThreshold,\n        uint256 _actionThreshold\n    )\n    private\n    {\n        uint256 actionCount;\n        uint256 managementCount;\n        if (_keys.length == 0) {\n            bytes32 senderKey = addrToKey(msg.sender);\n            // Add key that deployed the contract for MANAGEMENT, ACTION, CLAIM\n            _addKey(senderKey, MANAGEMENT_KEY, ECDSA_TYPE);\n            _addKey(senderKey, ACTION_KEY, ECDSA_TYPE);\n            _addKey(senderKey, CLAIM_SIGNER_KEY, ECDSA_TYPE);\n            actionCount = 1;\n            managementCount = 1;\n        } else {\n            // Add constructor keys\n            for (uint i = 0; i < _keys.length; i++) {\n                _addKey(_keys[i], _purposes[i], ECDSA_TYPE);\n                if (_purposes[i] == MANAGEMENT_KEY) {\n                    managementCount++;\n                } else\n                if (_purposes[i] == ACTION_KEY) {\n                    actionCount++;\n                }\n            }\n        }\n\n        require(_managementThreshold > 0);\n        require(_managementThreshold <= managementCount);\n        require(_actionThreshold > 0);\n        require(_actionThreshold <= actionCount);\n        managementThreshold = _managementThreshold;\n        actionThreshold = _actionThreshold;\n    }\n\n    /// @dev Validate claims are sorted and unique\n    /// @param _issuers Claim issuers to start contract with, in ascending order; in case of equality, topics must be ascending\n    /// @param _topics Claim topics (in the same order as _issuers)\n    /// @param _sizes Triples of signature, claim data, URI sizes (each must be  256)\n    function _validateClaims\n    (\n        address[] _issuers,\n        uint256[] _topics,\n        uint8[] _sizes\n    )\n    private\n    pure\n    {\n        // Validate claims are sorted and unique\n        require(_issuers.length == _topics.length);\n        require(3 * _topics.length == _sizes.length);\n        for (uint i = 1; i < _issuers.length; i++) {\n            // Expect input to be in sorted order, first by issuer, then by topic\n            // Sorted order guarantees (issuer, topic) pairs are unique\n            address prevIssuer = _issuers[i - 1];\n            require(_issuers[i] != prevIssuer || (_issuers[i] == prevIssuer && _topics[i] > _topics[i - 1]));\n        }\n    }\n\n    /// @dev Add claims to contract without an URI\n    /// @param _issuers Claim issuers to start contract with, in ascending order; in case of equality, topics must be ascending\n    /// @param _topics Claim topics (in the same order as _issuers)\n    /// @param _signatures All the initial claim signatures concatenated in one bytes array\n    /// @param _datas All the initial claim data concatenated in one bytes array\n    /// @param _uris All the initial claim URIs concatenated in one string\n    /// @param _sizes Triples of signature, claim data, URI sizes (each must be  256)\n    function _addClaims\n    (\n        address[] _issuers,\n        uint256[] _topics,\n        bytes _signatures,\n        bytes _datas,\n        string _uris,\n        uint8[] _sizes\n    )\n    private\n    {\n        // Add constructor claims\n        uint[3] memory offset;\n        bytes memory signature;\n        bytes memory data;\n        for (uint i = 0; i < _issuers.length; i++) {\n            // Check signature\n            signature = _signatures.slice(offset[0], _sizes[3 * i]);\n            data = _datas.slice(offset[1], _sizes[3 * i + 1]);\n            require(_validSignature(_topics[i], ECDSA_SCHEME, _issuers[i], signature, data));\n            // Add claim\n            _addClaim(\n                getClaimId(_issuers[i], _topics[i]),\n                _topics[i],\n                ECDSA_SCHEME,\n                _issuers[i],\n                signature,\n                data,\n                _uris.slice(offset[2], _sizes[3 * i + 2])\n            );\n            offset[0] += _sizes[3 * i];\n            offset[1] += _sizes[3 * i + 1];\n            offset[2] += _sizes[3 * i + 2];\n        }\n    }\n}",
  "sourcePath": "/Users/coinplug/BangGijin/metabolics2.0/contracts/identity/Identity.sol",
  "compiler": {
    "name": "solc",
    "version": "0.4.24+commit.e67f0147.Emscripten.clang"
  },
  "schemaVersion": "2.0.1",
  "updatedAt": "2018-10-10T08:44:25.151Z"
}