{
  "contractName": "Identity",
  "abi": [
    {
      "constant": true,
      "inputs": [
        {
          "name": "interfaceID",
          "type": "bytes4"
        }
      ],
      "name": "supportsInterface",
      "outputs": [
        {
          "name": "",
          "type": "bool"
        }
      ],
      "payable": false,
      "stateMutability": "view",
      "type": "function"
    },
    {
      "constant": true,
      "inputs": [],
      "name": "ERC165ID",
      "outputs": [
        {
          "name": "",
          "type": "bytes4"
        }
      ],
      "payable": false,
      "stateMutability": "pure",
      "type": "function"
    },
    {
      "constant": true,
      "inputs": [],
      "name": "REGISTRY_TOPIC",
      "outputs": [
        {
          "name": "",
          "type": "uint256"
        }
      ],
      "payable": false,
      "stateMutability": "view",
      "type": "function"
    },
    {
      "constant": true,
      "inputs": [],
      "name": "MANAGEMENT_KEY",
      "outputs": [
        {
          "name": "",
          "type": "uint256"
        }
      ],
      "payable": false,
      "stateMutability": "view",
      "type": "function"
    },
    {
      "constant": true,
      "inputs": [
        {
          "name": "_key",
          "type": "bytes32"
        }
      ],
      "name": "getKey",
      "outputs": [
        {
          "name": "purposes",
          "type": "uint256[]"
        },
        {
          "name": "keyType",
          "type": "uint256"
        },
        {
          "name": "key",
          "type": "bytes32"
        }
      ],
      "payable": false,
      "stateMutability": "view",
      "type": "function"
    },
    {
      "constant": true,
      "inputs": [
        {
          "name": "issuer",
          "type": "address"
        },
        {
          "name": "topic",
          "type": "uint256"
        }
      ],
      "name": "getClaimId",
      "outputs": [
        {
          "name": "",
          "type": "bytes32"
        }
      ],
      "payable": false,
      "stateMutability": "pure",
      "type": "function"
    },
    {
      "constant": true,
      "inputs": [
        {
          "name": "subject",
          "type": "address"
        },
        {
          "name": "topic",
          "type": "uint256"
        },
        {
          "name": "data",
          "type": "bytes"
        }
      ],
      "name": "claimToSign",
      "outputs": [
        {
          "name": "",
          "type": "bytes32"
        }
      ],
      "payable": false,
      "stateMutability": "pure",
      "type": "function"
    },
    {
      "constant": false,
      "inputs": [
        {
          "name": "_key",
          "type": "bytes32"
        },
        {
          "name": "_purpose",
          "type": "uint256"
        },
        {
          "name": "_keyType",
          "type": "uint256"
        }
      ],
      "name": "addKey",
      "outputs": [
        {
          "name": "success",
          "type": "bool"
        }
      ],
      "payable": false,
      "stateMutability": "nonpayable",
      "type": "function"
    },
    {
      "constant": true,
      "inputs": [
        {
          "name": "_claimId",
          "type": "bytes32"
        }
      ],
      "name": "isClaimExist",
      "outputs": [
        {
          "name": "",
          "type": "bool"
        }
      ],
      "payable": false,
      "stateMutability": "view",
      "type": "function"
    },
    {
      "constant": true,
      "inputs": [],
      "name": "CONTRACT_SCHEME",
      "outputs": [
        {
          "name": "",
          "type": "uint256"
        }
      ],
      "payable": false,
      "stateMutability": "view",
      "type": "function"
    },
    {
      "constant": true,
      "inputs": [
        {
          "name": "_topic",
          "type": "uint256"
        }
      ],
      "name": "getClaimIdsByType",
      "outputs": [
        {
          "name": "claimIds",
          "type": "bytes32[]"
        }
      ],
      "payable": false,
      "stateMutability": "view",
      "type": "function"
    },
    {
      "constant": true,
      "inputs": [],
      "name": "RSA_TYPE",
      "outputs": [
        {
          "name": "",
          "type": "uint256"
        }
      ],
      "payable": false,
      "stateMutability": "view",
      "type": "function"
    },
    {
      "constant": true,
      "inputs": [],
      "name": "getTransactionCount",
      "outputs": [
        {
          "name": "",
          "type": "uint256"
        }
      ],
      "payable": false,
      "stateMutability": "view",
      "type": "function"
    },
    {
      "constant": true,
      "inputs": [],
      "name": "actionThreshold",
      "outputs": [
        {
          "name": "",
          "type": "uint256"
        }
      ],
      "payable": false,
      "stateMutability": "view",
      "type": "function"
    },
    {
      "constant": true,
      "inputs": [
        {
          "name": "toSign",
          "type": "bytes32"
        },
        {
          "name": "signature",
          "type": "bytes"
        }
      ],
      "name": "getSignatureAddress",
      "outputs": [
        {
          "name": "",
          "type": "address"
        }
      ],
      "payable": false,
      "stateMutability": "pure",
      "type": "function"
    },
    {
      "constant": false,
      "inputs": [],
      "name": "unpause",
      "outputs": [],
      "payable": false,
      "stateMutability": "nonpayable",
      "type": "function"
    },
    {
      "constant": true,
      "inputs": [],
      "name": "ECDSA_TYPE",
      "outputs": [
        {
          "name": "",
          "type": "uint256"
        }
      ],
      "payable": false,
      "stateMutability": "view",
      "type": "function"
    },
    {
      "constant": false,
      "inputs": [
        {
          "name": "_to",
          "type": "address"
        },
        {
          "name": "_value",
          "type": "uint256"
        },
        {
          "name": "_data",
          "type": "bytes"
        },
        {
          "name": "_nonce",
          "type": "uint256"
        },
        {
          "name": "_sig",
          "type": "bytes"
        }
      ],
      "name": "delegatedExecute",
      "outputs": [
        {
          "name": "executionId",
          "type": "uint256"
        }
      ],
      "payable": false,
      "stateMutability": "nonpayable",
      "type": "function"
    },
    {
      "constant": false,
      "inputs": [
        {
          "name": "_claimId",
          "type": "bytes32"
        }
      ],
      "name": "removeClaim",
      "outputs": [
        {
          "name": "success",
          "type": "bool"
        }
      ],
      "payable": false,
      "stateMutability": "nonpayable",
      "type": "function"
    },
    {
      "constant": false,
      "inputs": [
        {
          "name": "_key",
          "type": "bytes32"
        },
        {
          "name": "_purpose",
          "type": "uint256"
        }
      ],
      "name": "removeKey",
      "outputs": [
        {
          "name": "success",
          "type": "bool"
        }
      ],
      "payable": false,
      "stateMutability": "nonpayable",
      "type": "function"
    },
    {
      "constant": true,
      "inputs": [],
      "name": "paused",
      "outputs": [
        {
          "name": "",
          "type": "bool"
        }
      ],
      "payable": false,
      "stateMutability": "view",
      "type": "function"
    },
    {
      "constant": false,
      "inputs": [
        {
          "name": "_claimId",
          "type": "bytes32"
        }
      ],
      "name": "refreshClaim",
      "outputs": [
        {
          "name": "",
          "type": "bool"
        }
      ],
      "payable": false,
      "stateMutability": "nonpayable",
      "type": "function"
    },
    {
      "constant": true,
      "inputs": [
        {
          "name": "",
          "type": "uint256"
        }
      ],
      "name": "execution",
      "outputs": [
        {
          "name": "to",
          "type": "address"
        },
        {
          "name": "value",
          "type": "uint256"
        },
        {
          "name": "data",
          "type": "bytes"
        },
        {
          "name": "needsApprove",
          "type": "uint256"
        }
      ],
      "payable": false,
      "stateMutability": "view",
      "type": "function"
    },
    {
      "constant": true,
      "inputs": [
        {
          "name": "addr",
          "type": "address"
        }
      ],
      "name": "addrToKey",
      "outputs": [
        {
          "name": "",
          "type": "bytes32"
        }
      ],
      "payable": false,
      "stateMutability": "pure",
      "type": "function"
    },
    {
      "constant": true,
      "inputs": [
        {
          "name": "",
          "type": "uint256"
        },
        {
          "name": "",
          "type": "uint256"
        }
      ],
      "name": "approved",
      "outputs": [
        {
          "name": "",
          "type": "address"
        }
      ],
      "payable": false,
      "stateMutability": "view",
      "type": "function"
    },
    {
      "constant": true,
      "inputs": [],
      "name": "METAID_TOPIC",
      "outputs": [
        {
          "name": "",
          "type": "uint256"
        }
      ],
      "payable": false,
      "stateMutability": "view",
      "type": "function"
    },
    {
      "constant": false,
      "inputs": [
        {
          "name": "_key",
          "type": "bytes32"
        },
        {
          "name": "_to",
          "type": "address"
        },
        {
          "name": "_func",
          "type": "bytes4"
        },
        {
          "name": "_executable",
          "type": "bool"
        }
      ],
      "name": "setFunc",
      "outputs": [
        {
          "name": "success",
          "type": "bool"
        }
      ],
      "payable": false,
      "stateMutability": "nonpayable",
      "type": "function"
    },
    {
      "constant": false,
      "inputs": [
        {
          "name": "_id",
          "type": "uint256"
        },
        {
          "name": "_approve",
          "type": "bool"
        }
      ],
      "name": "approve",
      "outputs": [
        {
          "name": "success",
          "type": "bool"
        }
      ],
      "payable": false,
      "stateMutability": "nonpayable",
      "type": "function"
    },
    {
      "constant": true,
      "inputs": [],
      "name": "ACTION_KEY",
      "outputs": [
        {
          "name": "",
          "type": "uint256"
        }
      ],
      "payable": false,
      "stateMutability": "view",
      "type": "function"
    },
    {
      "constant": true,
      "inputs": [
        {
          "name": "_key",
          "type": "bytes32"
        },
        {
          "name": "_to",
          "type": "address"
        },
        {
          "name": "_func",
          "type": "bytes4"
        }
      ],
      "name": "keyCanExecute",
      "outputs": [
        {
          "name": "executable",
          "type": "bool"
        }
      ],
      "payable": false,
      "stateMutability": "view",
      "type": "function"
    },
    {
      "constant": true,
      "inputs": [],
      "name": "ERC725ID",
      "outputs": [
        {
          "name": "",
          "type": "bytes4"
        }
      ],
      "payable": false,
      "stateMutability": "pure",
      "type": "function"
    },
    {
      "constant": true,
      "inputs": [],
      "name": "ECDSA_SCHEME",
      "outputs": [
        {
          "name": "",
          "type": "uint256"
        }
      ],
      "payable": false,
      "stateMutability": "view",
      "type": "function"
    },
    {
      "constant": false,
      "inputs": [],
      "name": "pause",
      "outputs": [],
      "payable": false,
      "stateMutability": "nonpayable",
      "type": "function"
    },
    {
      "constant": true,
      "inputs": [
        {
          "name": "_purpose",
          "type": "uint256"
        }
      ],
      "name": "getKeysByPurpose",
      "outputs": [
        {
          "name": "keys",
          "type": "bytes32[]"
        }
      ],
      "payable": false,
      "stateMutability": "view",
      "type": "function"
    },
    {
      "constant": true,
      "inputs": [],
      "name": "ENCRYPTION_KEY",
      "outputs": [
        {
          "name": "",
          "type": "uint256"
        }
      ],
      "payable": false,
      "stateMutability": "view",
      "type": "function"
    },
    {
      "constant": true,
      "inputs": [],
      "name": "RESIDENCE_TOPIC",
      "outputs": [
        {
          "name": "",
          "type": "uint256"
        }
      ],
      "payable": false,
      "stateMutability": "view",
      "type": "function"
    },
    {
      "constant": true,
      "inputs": [],
      "name": "managementThreshold",
      "outputs": [
        {
          "name": "",
          "type": "uint256"
        }
      ],
      "payable": false,
      "stateMutability": "view",
      "type": "function"
    },
    {
      "constant": true,
      "inputs": [],
      "name": "PROFILE_TOPIC",
      "outputs": [
        {
          "name": "",
          "type": "uint256"
        }
      ],
      "payable": false,
      "stateMutability": "view",
      "type": "function"
    },
    {
      "constant": true,
      "inputs": [],
      "name": "nonce",
      "outputs": [
        {
          "name": "",
          "type": "uint256"
        }
      ],
      "payable": false,
      "stateMutability": "view",
      "type": "function"
    },
    {
      "constant": true,
      "inputs": [],
      "name": "CUSTOM_KEY",
      "outputs": [
        {
          "name": "",
          "type": "uint256"
        }
      ],
      "payable": false,
      "stateMutability": "view",
      "type": "function"
    },
    {
      "constant": false,
      "inputs": [
        {
          "name": "_topic",
          "type": "uint256"
        },
        {
          "name": "_scheme",
          "type": "uint256"
        },
        {
          "name": "issuer",
          "type": "address"
        },
        {
          "name": "_signature",
          "type": "bytes"
        },
        {
          "name": "_data",
          "type": "bytes"
        },
        {
          "name": "_uri",
          "type": "string"
        }
      ],
      "name": "addClaim",
      "outputs": [
        {
          "name": "claimRequestId",
          "type": "uint256"
        }
      ],
      "payable": false,
      "stateMutability": "nonpayable",
      "type": "function"
    },
    {
      "constant": true,
      "inputs": [],
      "name": "LABEL_TOPIC",
      "outputs": [
        {
          "name": "",
          "type": "uint256"
        }
      ],
      "payable": false,
      "stateMutability": "view",
      "type": "function"
    },
    {
      "constant": false,
      "inputs": [
        {
          "name": "_to",
          "type": "address"
        },
        {
          "name": "_value",
          "type": "uint256"
        },
        {
          "name": "_data",
          "type": "bytes"
        }
      ],
      "name": "execute",
      "outputs": [
        {
          "name": "executionId",
          "type": "uint256"
        }
      ],
      "payable": false,
      "stateMutability": "nonpayable",
      "type": "function"
    },
    {
      "constant": true,
      "inputs": [],
      "name": "RESTORE_KEY",
      "outputs": [
        {
          "name": "",
          "type": "uint256"
        }
      ],
      "payable": false,
      "stateMutability": "view",
      "type": "function"
    },
    {
      "constant": true,
      "inputs": [],
      "name": "ERC735ID",
      "outputs": [
        {
          "name": "",
          "type": "bytes4"
        }
      ],
      "payable": false,
      "stateMutability": "pure",
      "type": "function"
    },
    {
      "constant": true,
      "inputs": [
        {
          "name": "b",
          "type": "bytes"
        }
      ],
      "name": "getFunctionSignature",
      "outputs": [
        {
          "name": "",
          "type": "bytes4"
        }
      ],
      "payable": false,
      "stateMutability": "pure",
      "type": "function"
    },
    {
      "constant": true,
      "inputs": [],
      "name": "CLAIM_SIGNER_KEY",
      "outputs": [
        {
          "name": "",
          "type": "uint256"
        }
      ],
      "payable": false,
      "stateMutability": "view",
      "type": "function"
    },
    {
      "constant": true,
      "inputs": [
        {
          "name": "_claimId",
          "type": "bytes32"
        }
      ],
      "name": "getClaim",
      "outputs": [
        {
          "name": "topic",
          "type": "uint256"
        },
        {
          "name": "scheme",
          "type": "uint256"
        },
        {
          "name": "issuer",
          "type": "address"
        },
        {
          "name": "signature",
          "type": "bytes"
        },
        {
          "name": "data",
          "type": "bytes"
        },
        {
          "name": "uri",
          "type": "string"
        }
      ],
      "payable": false,
      "stateMutability": "view",
      "type": "function"
    },
    {
      "constant": true,
      "inputs": [],
      "name": "numKeys",
      "outputs": [
        {
          "name": "",
          "type": "uint256"
        }
      ],
      "payable": false,
      "stateMutability": "view",
      "type": "function"
    },
    {
      "constant": false,
      "inputs": [
        {
          "name": "threshold",
          "type": "uint256"
        }
      ],
      "name": "changeManagementThreshold",
      "outputs": [],
      "payable": false,
      "stateMutability": "nonpayable",
      "type": "function"
    },
    {
      "constant": true,
      "inputs": [
        {
          "name": "_key",
          "type": "bytes32"
        },
        {
          "name": "purpose",
          "type": "uint256"
        }
      ],
      "name": "keyHasPurpose",
      "outputs": [
        {
          "name": "exists",
          "type": "bool"
        }
      ],
      "payable": false,
      "stateMutability": "view",
      "type": "function"
    },
    {
      "constant": true,
      "inputs": [],
      "name": "ASSIST_KEY",
      "outputs": [
        {
          "name": "",
          "type": "uint256"
        }
      ],
      "payable": false,
      "stateMutability": "view",
      "type": "function"
    },
    {
      "constant": false,
      "inputs": [
        {
          "name": "_topic",
          "type": "uint256"
        },
        {
          "name": "_scheme",
          "type": "uint256"
        },
        {
          "name": "issuer",
          "type": "address"
        },
        {
          "name": "_signature",
          "type": "bytes"
        },
        {
          "name": "_data",
          "type": "bytes"
        },
        {
          "name": "_uri",
          "type": "string"
        },
        {
          "name": "_idSignature",
          "type": "bytes"
        }
      ],
      "name": "addClaimByProxy",
      "outputs": [
        {
          "name": "success",
          "type": "bool"
        }
      ],
      "payable": false,
      "stateMutability": "nonpayable",
      "type": "function"
    },
    {
      "constant": false,
      "inputs": [
        {
          "name": "threshold",
          "type": "uint256"
        }
      ],
      "name": "changeActionThreshold",
      "outputs": [],
      "payable": false,
      "stateMutability": "nonpayable",
      "type": "function"
    },
    {
      "constant": true,
      "inputs": [],
      "name": "DELEGATE_KEY",
      "outputs": [
        {
          "name": "",
          "type": "uint256"
        }
      ],
      "payable": false,
      "stateMutability": "view",
      "type": "function"
    },
    {
      "constant": true,
      "inputs": [],
      "name": "RSA_SCHEME",
      "outputs": [
        {
          "name": "",
          "type": "uint256"
        }
      ],
      "payable": false,
      "stateMutability": "view",
      "type": "function"
    },
    {
      "constant": false,
      "inputs": [
        {
          "name": "_recipient",
          "type": "address"
        }
      ],
      "name": "destroyAndSend",
      "outputs": [],
      "payable": false,
      "stateMutability": "nonpayable",
      "type": "function"
    },
    {
      "constant": true,
      "inputs": [],
      "name": "numClaims",
      "outputs": [
        {
          "name": "",
          "type": "uint256"
        }
      ],
      "payable": false,
      "stateMutability": "view",
      "type": "function"
    },
    {
      "inputs": [
        {
          "name": "_keys",
          "type": "bytes32[]"
        },
        {
          "name": "_purposes",
          "type": "uint256[]"
        },
        {
          "name": "_managementThreshold",
          "type": "uint256"
        },
        {
          "name": "_actionThreshold",
          "type": "uint256"
        },
        {
          "name": "_issuers",
          "type": "address[]"
        },
        {
          "name": "_topics",
          "type": "uint256[]"
        },
        {
          "name": "_signatures",
          "type": "bytes"
        },
        {
          "name": "_datas",
          "type": "bytes"
        },
        {
          "name": "_uris",
          "type": "string"
        },
        {
          "name": "_sizes",
          "type": "uint8[]"
        }
      ],
      "payable": false,
      "stateMutability": "nonpayable",
      "type": "constructor"
    },
    {
      "payable": true,
      "stateMutability": "payable",
      "type": "fallback"
    },
    {
      "anonymous": false,
      "inputs": [
        {
          "indexed": true,
          "name": "claimRequestId",
          "type": "uint256"
        },
        {
          "indexed": true,
          "name": "topic",
          "type": "uint256"
        },
        {
          "indexed": false,
          "name": "scheme",
          "type": "uint256"
        },
        {
          "indexed": true,
          "name": "issuer",
          "type": "address"
        },
        {
          "indexed": false,
          "name": "signature",
          "type": "bytes"
        },
        {
          "indexed": false,
          "name": "data",
          "type": "bytes"
        },
        {
          "indexed": false,
          "name": "uri",
          "type": "string"
        }
      ],
      "name": "ClaimRequested",
      "type": "event"
    },
    {
      "anonymous": false,
      "inputs": [
        {
          "indexed": true,
          "name": "claimId",
          "type": "bytes32"
        },
        {
          "indexed": true,
          "name": "topic",
          "type": "uint256"
        },
        {
          "indexed": false,
          "name": "scheme",
          "type": "uint256"
        },
        {
          "indexed": true,
          "name": "issuer",
          "type": "address"
        },
        {
          "indexed": false,
          "name": "signature",
          "type": "bytes"
        },
        {
          "indexed": false,
          "name": "data",
          "type": "bytes"
        },
        {
          "indexed": false,
          "name": "uri",
          "type": "string"
        }
      ],
      "name": "ClaimAdded",
      "type": "event"
    },
    {
      "anonymous": false,
      "inputs": [
        {
          "indexed": true,
          "name": "claimId",
          "type": "bytes32"
        },
        {
          "indexed": true,
          "name": "topic",
          "type": "uint256"
        },
        {
          "indexed": false,
          "name": "scheme",
          "type": "uint256"
        },
        {
          "indexed": true,
          "name": "issuer",
          "type": "address"
        },
        {
          "indexed": false,
          "name": "signature",
          "type": "bytes"
        },
        {
          "indexed": false,
          "name": "data",
          "type": "bytes"
        },
        {
          "indexed": false,
          "name": "uri",
          "type": "string"
        }
      ],
      "name": "ClaimRemoved",
      "type": "event"
    },
    {
      "anonymous": false,
      "inputs": [
        {
          "indexed": true,
          "name": "claimId",
          "type": "bytes32"
        },
        {
          "indexed": true,
          "name": "topic",
          "type": "uint256"
        },
        {
          "indexed": false,
          "name": "scheme",
          "type": "uint256"
        },
        {
          "indexed": true,
          "name": "issuer",
          "type": "address"
        },
        {
          "indexed": false,
          "name": "signature",
          "type": "bytes"
        },
        {
          "indexed": false,
          "name": "data",
          "type": "bytes"
        },
        {
          "indexed": false,
          "name": "uri",
          "type": "string"
        }
      ],
      "name": "ClaimChanged",
      "type": "event"
    },
    {
      "anonymous": false,
      "inputs": [
        {
          "indexed": true,
          "name": "key",
          "type": "bytes32"
        },
        {
          "indexed": true,
          "name": "purpose",
          "type": "uint256"
        },
        {
          "indexed": true,
          "name": "keyType",
          "type": "uint256"
        }
      ],
      "name": "KeyAdded",
      "type": "event"
    },
    {
      "anonymous": false,
      "inputs": [
        {
          "indexed": true,
          "name": "key",
          "type": "bytes32"
        },
        {
          "indexed": true,
          "name": "purpose",
          "type": "uint256"
        },
        {
          "indexed": true,
          "name": "keyType",
          "type": "uint256"
        }
      ],
      "name": "KeyRemoved",
      "type": "event"
    },
    {
      "anonymous": false,
      "inputs": [
        {
          "indexed": true,
          "name": "executionId",
          "type": "uint256"
        },
        {
          "indexed": true,
          "name": "to",
          "type": "address"
        },
        {
          "indexed": true,
          "name": "value",
          "type": "uint256"
        },
        {
          "indexed": false,
          "name": "data",
          "type": "bytes"
        }
      ],
      "name": "ExecutionRequested",
      "type": "event"
    },
    {
      "anonymous": false,
      "inputs": [
        {
          "indexed": true,
          "name": "executionId",
          "type": "uint256"
        },
        {
          "indexed": true,
          "name": "to",
          "type": "address"
        },
        {
          "indexed": true,
          "name": "value",
          "type": "uint256"
        },
        {
          "indexed": false,
          "name": "data",
          "type": "bytes"
        }
      ],
      "name": "Executed",
      "type": "event"
    },
    {
      "anonymous": false,
      "inputs": [
        {
          "indexed": true,
          "name": "executionId",
          "type": "uint256"
        },
        {
          "indexed": false,
          "name": "approved",
          "type": "bool"
        }
      ],
      "name": "Approved",
      "type": "event"
    },
    {
      "anonymous": false,
      "inputs": [
        {
          "indexed": true,
          "name": "executionId",
          "type": "uint256"
        },
        {
          "indexed": true,
          "name": "to",
          "type": "address"
        },
        {
          "indexed": true,
          "name": "value",
          "type": "uint256"
        },
        {
          "indexed": false,
          "name": "data",
          "type": "bytes"
        }
      ],
      "name": "ExecutionFailed",
      "type": "event"
    },
    {
      "anonymous": false,
      "inputs": [],
      "name": "LogPause",
      "type": "event"
    },
    {
      "anonymous": false,
      "inputs": [],
      "name": "LogUnpause",
      "type": "event"
    }
  ],
  "bytecode": "0x6080604052600160008190558080556005805460ff191690556007553480156200002857600080fd5b5060405162005a8c38038062005a8c83398101604090815281516020830151918301516060840151608085015160a086015160c087015160e08801516101008901516101208a0151978a01999889019896979596948501959385019492830193918301929081019101600160066000620000aa6401000000006200027f810204565b7fffffffff0000000000000000000000000000000000000000000000000000000016815260208101919091526040016000908120805460ff19169215159290921790915560019060069062000107640100000000620002a4810204565b7fffffffff0000000000000000000000000000000000000000000000000000000016815260208101919091526040016000908120805460ff19169215159290921790915560019060069062000164640100000000620002c8810204565b7fffffffff000000000000000000000000000000000000000000000000000000001681526020810191909152604001600020805460ff1916911515919091179055620001ba8a8a640100000000620002ec810204565b620001d0868683640100000000620003cc810204565b620001e78a8a8a8a640100000000620004df810204565b620002008686868686866401000000006200065f810204565b60016006600062000219640100000000620002c8810204565b6200022c640100000000620002a4810204565b187fffffffff000000000000000000000000000000000000000000000000000000001681526020810191909152604001600020805460ff1916911515919091179055506200159398505050505050505050565b7f01ffc9a7000000000000000000000000000000000000000000000000000000005b90565b7fdc3d2a7b0000000000000000000000000000000000000000000000000000000090565b7f107653790000000000000000000000000000000000000000000000000000000090565b600080825184511415156200030057600080fd5b600191505b8351821015620003c65783600183038151811015156200032157fe5b906020019060200201519050806000191684838151811015156200034157fe5b602090810290910101511180620003ae5750835181908590849081106200036457fe5b60209081029091010151148015620003ae575082600183038151811015156200038957fe5b906020019060200201518383815181101515620003a257fe5b90602001906020020151115b1515620003ba57600080fd5b60019091019062000305565b50505050565b60008083518551141515620003e057600080fd5b8251845160030214620003f257600080fd5b600191505b8451821015620004d85784600183038151811015156200041357fe5b90602001906020020151905080600160a060020a031685838151811015156200043857fe5b90602001906020020151600160a060020a0316141580620004c0575080600160a060020a031685838151811015156200046d57fe5b90602001906020020151600160a060020a0316148015620004c0575083600183038151811015156200049b57fe5b906020019060200201518483815181101515620004b457fe5b90602001906020020151115b1515620004cc57600080fd5b600190910190620003f7565b5050505050565b6000806000808751600014156200055b576200050433640100000000620008c7810204565b91506200051d82600180640100000000620008d3810204565b620005358260026001640100000000620008d3810204565b6200054d8260036001640100000000620008d3810204565b600193506001925062000616565b5060005b87518110156200061657620005b688828151811015156200057c57fe5b9060200190602002015188838151811015156200059557fe5b906020019060200201516001620008d3640100000000026401000000009004565b60018782815181101515620005c757fe5b906020019060200201511415620005e4576001909201916200060d565b60028782815181101515620005f557fe5b9060200190602002015114156200060d576001909301925b6001016200055f565b600086116200062457600080fd5b828611156200063257600080fd5b600085116200064057600080fd5b838511156200064e57600080fd5b505050600092909255600155505050565b62000669620014b2565b60608060005b8951811015620008bb5783518551620006b491908790600385029081106200069357fe5b602090810290910101518a9190640100000000620043e96200092482021704565b9250620006f884600160200201518683600302600101815181101515620006d757fe5b60209081029091010151899190640100000000620043e96200092482021704565b91506200074989828151811015156200070d57fe5b9060200190602002015160018c848151811015156200072857fe5b90602001906020020151868662000a10640100000000026401000000009004565b15156200075557600080fd5b6200082b620007a48b838151811015156200076c57fe5b906020019060200201518b848151811015156200078557fe5b9060200190602002015162000bbb640100000000026401000000009004565b8a83815181101515620007b357fe5b9060200190602002015160018d85815181101515620007ce57fe5b6020908102909101015187876200081c8b600260200201518d8a600302600201815181101515620007fb57fe5b602090810290910101518f9190640100000000620044b062000c6a82021704565b64010000000062000c8a810204565b84816003028151811015156200083d57fe5b6020908102919091010151845160ff90911601845284518590600383026001019081106200086757fe5b6020908102909101015160ff16846001602002018051909101905284518590600260038402019081106200089757fe5b6020908102909101015160ff1684600260200201805190910190526001016200066f565b50505050505050505050565b600160a060020a031690565b620008f060028484846401000000006200405262000f1182021704565b6040518190839085907f480000bb1edad8ca1470381cc334b1917fbd51c6531f3a623ea8e0ec7e38a6e990600090a4505050565b6060806000808460ff166040519080825280601f01601f1916602001820160405280156200095c578160200160208202803883390190505b509250600091508590505b8460ff16860181101562000a055786818151811015156200098457fe5b9060200101517f010000000000000000000000000000000000000000000000000000000000000090047f0100000000000000000000000000000000000000000000000000000000000000028383806001019450815181101515620009e457fe5b906020010190600160f860020a031916908160001a90535060010162000967565b509095945050505050565b600080600186141562000bac5762000a4762000a3730898664010000000062000f83810204565b8564010000000062001084810204565b905080600160a060020a031685600160a060020a0316141562000a6e576001915062000bb1565b600160a060020a03851630141562000ab95762000ab162000a9882640100000000620008c7810204565b60029060036401000000006200317c620011a282021704565b915062000bb1565b62000aef62000ad0640100000000620002a4810204565b600160a060020a03871690640100000000620035336200129182021704565b1562000bac57600160a060020a03851663d202158d62000b1883640100000000620008c7810204565b604080517c010000000000000000000000000000000000000000000000000000000063ffffffff85160281526004810192909252600360248301525160448083019260209291908290030181600087803b15801562000b7657600080fd5b505af115801562000b8b573d6000803e3d6000fd5b505050506040513d602081101562000ba257600080fd5b5051915062000bb1565b600091505b5095945050505050565b600082826040516020018083600160a060020a0316600160a060020a03166c01000000000000000000000000028152601401828152602001925050506040516020818303038152906040526040518082805190602001908083835b6020831062000c375780518252601f19909201916020918201910162000c16565b5181516020939093036101000a600019018019909116921691909117905260405192018290039091209695505050505050565b606062000c8284848464010000000062000924810204565b949350505050565b6040805160c0810182528781526020808201888152600160a060020a03888116848601908152606085018981526080860189905260a0860188905260008e8152600a865296909620855181559251600184015551600283018054600160a060020a031916919092161790559251805192939262000d0e9260038501920190620014d1565b506080820151805162000d2c916004840191602090910190620014d1565b5060a0820151805162000d4a916005840191602090910190620014d1565b5050506000868152600b60209081526040808320805460018181018355918552838520018b9055600c80549091019055805188815260808184018181528851918301919091528751600160a060020a038a16958c958e957f46149b18aa084502c3f12bc75e19eda8bda8d102b82cce8474677a6d0d5f43c5958e958d958d958d959394929392850192606086019260a0870192918a01918190849084905b8381101562000e0257818101518382015260200162000de8565b50505050905090810190601f16801562000e305780820380516001836020036101000a031916815260200191505b50848103835286518152865160209182019188019080838360005b8381101562000e6557818101518382015260200162000e4b565b50505050905090810190601f16801562000e935780820380516001836020036101000a031916815260200191505b50848103825285518152855160209182019187019080838360005b8381101562000ec857818101518382015260200162000eae565b50505050905090810190601f16801562000ef65780820380516001836020036101000a031916815260200191505b5097505050505050505060405180910390a450505050505050565b6000838152602085815260408220805460018101825581845291909220018390556002810154151562000f4d5760028101849055600181018290555b50506000908152600180840160209081526040832080548084018255908452922090910191909155600290910180549091019055565b60008383836040516020018084600160a060020a0316600160a060020a03166c0100000000000000000000000002815260140183815260200182805190602001908083835b6020831062000fe95780518252601f19909201916020918201910162000fc8565b6001836020036101000a03801982511681845116808217855250505050505090500193505050506040516020818303038152906040526040518082805190602001908083835b60208310620010505780518252601f1990920191602091820191016200102f565b5181516020939093036101000a60001901801990911692169190911790526040519201829003909120979650505050505050565b60006200119b826040805190810160405280601c81526020017f19457468657265756d205369676e6564204d6573736167653a0a333200000000815250856040516020018083805190602001908083835b60208310620010f65780518252601f199092019160209182019101620010d5565b51815160209384036101000a600019018019909216911617905292019384525060408051808503815293820190819052835193945092839250908401908083835b60208310620011585780518252601f19909201916020918201910162001137565b5181516020939093036101000a60001901801990911692169190911790526040519201829003909120939250506401000000006200138a8102620032a717049050565b9392505050565b6000620011ae62001556565b60008481526020868152604080832081518154608094810282018501909352606081018381529093919284928491908401828280156200120e57602002820191906000526020600020905b815481526020019060010190808311620011f9575b505050918352505060018201546020820152600290910154604091820152810151909250151562001243576000925062001288565b5060005b815151811015620012885781518051859190839081106200126457fe5b9060200190602002015114156200127f576001925062001288565b60010162001247565b50509392505050565b60008080620012ca857f01ffc9a70000000000000000000000000000000000000000000000000000000064010000000062001466810204565b9092509050811580620012db575080155b15620012eb576000925062001382565b62001320857fffffffff0000000000000000000000000000000000000000000000000000000064010000000062001466810204565b90925090508115806200133257508015155b1562001342576000925062001382565b62001357858564010000000062001466810204565b90925090506001821480156200136d5750806001145b156200137d576001925062001382565b600092505b505092915050565b60008060008084516041141515620013a657600093506200145d565b50505060208201516040830151606084015160001a601b60ff82161015620013cc57601b015b8060ff16601b14158015620013e557508060ff16601c14155b15620013f557600093506200145d565b60408051600080825260208083018085528a905260ff8516838501526060830187905260808301869052925160019360a0808501949193601f19840193928390039091019190865af115801562001450573d6000803e3d6000fd5b5050506020604051035193505b50505092915050565b6040517f01ffc9a70000000000000000000000000000000000000000000000000000000080825260048201839052600091829190602081818189617530fa905190969095509350505050565b6060604051908101604052806003906020820280388339509192915050565b828054600181600116156101000203166002900490600052602060002090601f016020900481019282601f106200151457805160ff191683800117855562001544565b8280016001018555821562001544579182015b828111156200154457825182559160200191906001019062001527565b506200155292915062001576565b5090565b604080516060818101835281526000602082018190529181019190915290565b620002a191905b808211156200155257600081556001016200157d565b6144e980620015a36000396000f30060806040526004361061029a5763ffffffff60e060020a60003504166301ffc9a7811461029c57806302e7491e146102d25780630440b43a14610304578063058b316c1461032b57806312aaac7014610340578063190db862146103b95780631d203be8146103dd5780631d38124014610446578063237434f014610464578063251de3e914610304578063262b54f51461047c5780632d32d442146104e45780632e7700f0146104f957806338f4edd41461050e5780633b8a12c8146105235780633f4ba83a1461059d57806349991ec81461032b5780634da34c2c146105b25780634eee424a1461065f57806353d413c5146106775780635c975abb146106925780635d7bc3fc146106a75780635dccebba146106bf57806363f14c3c146107765780636e4c431114610797578063710ca5501461032b578063724a4b3b146107b2578063747442d3146107e857806375e5598c146104e4578063765b3042146108055780637d96fa581461083657806382d094461461032b5780638456cb591461084b5780639010f726146108605780639e140cc814610878578063a550f0c7146104e4578063aa0a51421461088d578063ae62838614610878578063affed0e0146108a2578063b132734e146108b7578063b1a34e0d146108cc578063b1e9f64c146109b4578063b61d27f6146109c9578063b9133d6314610a32578063bf2f20ad14610a47578063c32b351814610a5c578063c670218714610304578063c9100bcb14610ab5578063c9d24ecc14610c38578063ccfe586814610c4d578063d202158d14610c65578063dbfa74b7146109b4578063e0610ba314610c80578063e99896b814610da6578063ead09fab14610dbe578063f22d08a6146104e4578063f5074f4114610dd3578063fc0fc84914610df4575b005b3480156102a857600080fd5b506102be600160e060020a031960043516610e09565b604080519115158252519081900360200190f35b3480156102de57600080fd5b506102e7610e28565b60408051600160e060020a03199092168252519081900360200190f35b34801561031057600080fd5b50610319610e4d565b60408051918252519081900360200190f35b34801561033757600080fd5b50610319610e52565b34801561034c57600080fd5b50610358600435610e57565b60408051602080820185905291810183905260608082528551908201528451909182916080830191878101910280838360005b838110156103a357818101518382015260200161038b565b5050505090500194505050505060405180910390f35b3480156103c557600080fd5b50610319600160a060020a0360043516602435610efc565b3480156103e957600080fd5b50604080516020600460443581810135601f8101849004840285018401909552848452610319948235600160a060020a0316946024803595369594606494920191908190840183828082843750949750610fa99650505050505050565b34801561045257600080fd5b506102be6004356024356044356110a9565b34801561047057600080fd5b506102be600435611102565b34801561048857600080fd5b50610494600435611122565b60408051602080825283518183015283519192839290830191858101910280838360005b838110156104d05781810151838201526020016104b8565b505050509050019250505060405180910390f35b3480156104f057600080fd5b50610319611185565b34801561050557600080fd5b5061031961118a565b34801561051a57600080fd5b50610319611190565b34801561052f57600080fd5b5060408051602060046024803582810135601f81018590048502860185019096528585526105819583359536956044949193909101919081908401838280828437509497506111969650505050505050565b60408051600160a060020a039092168252519081900360200190f35b3480156105a957600080fd5b5061029a611299565b3480156105be57600080fd5b50604080516020600460443581810135601f8101849004840285018401909552848452610319948235600160a060020a031694602480359536959460649492019190819084018382808284375050604080516020601f818a01358b0180359182018390048302840183018552818452989b8a359b909a9099940197509195509182019350915081908401838280828437509497506112f29650505050505050565b34801561066b57600080fd5b506102be60043561141d565b34801561068357600080fd5b506102be600435602435611a26565b34801561069e57600080fd5b506102be611abd565b3480156106b357600080fd5b506102be600435611ac6565b3480156106cb57600080fd5b506106d7600435611e2f565b6040518085600160a060020a0316600160a060020a0316815260200184815260200180602001838152602001828103825284818151815260200191508051906020019080838360005b83811015610738578181015183820152602001610720565b50505050905090810190601f1680156107655780820380516001836020036101000a031916815260200191505b509550505050505060405180910390f35b34801561078257600080fd5b50610319600160a060020a0360043516611eeb565b3480156107a357600080fd5b50610581600435602435611ef7565b3480156107be57600080fd5b506102be600435600160a060020a0360243516600160e060020a0319604435166064351515611f2e565b3480156107f457600080fd5b506102be6004356024351515611f8f565b34801561081157600080fd5b506102be600435600160a060020a0360243516600160e060020a03196044351661232e565b34801561084257600080fd5b506102e7612370565b34801561085757600080fd5b5061029a612394565b34801561086c57600080fd5b506104946004356123ef565b34801561088457600080fd5b50610319612450565b34801561089957600080fd5b50610319612455565b3480156108ae57600080fd5b5061031961245b565b3480156108c357600080fd5b50610319612461565b3480156108d857600080fd5b50604080516020601f606435600481810135928301849004840285018401909552818452610319948035946024803595600160a060020a0360443516953695608494930191819084018382808284375050604080516020601f89358b018035918201839004830284018301909452808352979a99988101979196509182019450925082915084018382808284375050604080516020601f89358b018035918201839004830284018301909452808352979a9998810197919650918201945092508291508401838280828437509497506124669650505050505050565b3480156109c057600080fd5b50610319612917565b3480156109d557600080fd5b50604080516020600460443581810135601f8101849004840285018401909552848452610319948235600160a060020a031694602480359536959460649492019190819084018382808284375094975061291c9650505050505050565b348015610a3e57600080fd5b50610319612943565b348015610a5357600080fd5b506102e7612948565b348015610a6857600080fd5b506040805160206004803580820135601f81018490048402850184019095528484526102e794369492936024939284019190819084018382808284375094975061296c9650505050505050565b348015610ac157600080fd5b50610acd6004356129d4565b6040518087815260200186815260200185600160a060020a0316600160a060020a03168152602001806020018060200180602001848103845287818151815260200191508051906020019080838360005b83811015610b36578181015183820152602001610b1e565b50505050905090810190601f168015610b635780820380516001836020036101000a031916815260200191505b50848103835286518152865160209182019188019080838360005b83811015610b96578181015183820152602001610b7e565b50505050905090810190601f168015610bc35780820380516001836020036101000a031916815260200191505b50848103825285518152855160209182019187019080838360005b83811015610bf6578181015183820152602001610bde565b50505050905090810190601f168015610c235780820380516001836020036101000a031916815260200191505b50995050505050505050505060405180910390f35b348015610c4457600080fd5b50610319612c2a565b348015610c5957600080fd5b5061029a600435612c30565b348015610c7157600080fd5b506102be600435602435612c83565b348015610c8c57600080fd5b50604080516020601f6064356004818101359283018490048402850184019095528184526102be948035946024803595600160a060020a0360443516953695608494930191819084018382808284375050604080516020601f89358b018035918201839004830284018301909452808352979a99988101979196509182019450925082915084018382808284375050604080516020601f89358b018035918201839004830284018301909452808352979a99988101979196509182019450925082915084018382808284375050604080516020601f89358b018035918201839004830284018301909452808352979a999881019791965091820194509250829150840183828082843750949750612c979650505050505050565b348015610db257600080fd5b5061029a6004356130b8565b348015610dca57600080fd5b5061031961310b565b348015610ddf57600080fd5b5061029a600160a060020a0360043516613110565b348015610e0057600080fd5b50610319613144565b600160e060020a03191660009081526006602052604090205460ff1690565b7f01ffc9a7000000000000000000000000000000000000000000000000000000005b90565b600381565b600181565b6060600080610e64614235565b60008581526002602090815260409182902082518154608093810282018401909452606081018481529093919284928491840182828015610ec457602002820191906000526020600020905b815481526020019060010190808311610eb0575b505050918352505060018201546020808301919091526002909201546040918201528251918301519201519097919650945092505050565b600082826040516020018083600160a060020a0316600160a060020a03166c01000000000000000000000000028152601401828152602001925050506040516020818303038152906040526040518082805190602001908083835b60208310610f765780518252601f199092019160209182019101610f57565b5181516020939093036101000a600019018019909116921691909117905260405192018290039091209695505050505050565b60008383836040516020018084600160a060020a0316600160a060020a03166c0100000000000000000000000002815260140183815260200182805190602001908083835b6020831061100d5780518252601f199092019160209182019101610fee565b6001836020036101000a03801982511681845116808217855250505050505090500193505050506040516020818303038152906040526040518082805190602001908083835b602083106110725780518252601f199092019160209182019101611053565b6001836020036101000a038019825116818451168082178552505050505050905001915050604051809103902090505b9392505050565b60006110b361314a565b15156110be57600080fd5b60055460ff16156110ce57600080fd5b6110e06002858563ffffffff61317c16565b156110ed575060006110a2565b6110f8848484613260565b5060019392505050565b6000908152600a6020526040902060020154600160a060020a0316151590565b6000818152600b602090815260409182902080548351818402810184019094528084526060939283018282801561117957602002820191906000526020600020905b81548152600190910190602001808311611164575b50505050509050919050565b600281565b60075490565b60015481565b60006110a2826040805190810160405280601c81526020017f19457468657265756d205369676e6564204d6573736167653a0a333200000000815250856040516020018083805190602001908083835b602083106112055780518252601f1990920191602091820191016111e6565b51815160209384036101000a600019018019909216911617905292019384525060408051808503815293820190819052835193945092839250908401908083835b602083106112655780518252601f199092019160209182019101611246565b5181516020939093036101000a60001901801990911692169190911790526040519201829003909120939250506132a79050565b6112a161314a565b15156112ac57600080fd5b60055460ff1615156112bd57600080fd5b6005805460ff191690556040517f730c1faaa977b67dacf1e2451ef54556e04a07d577785ff79f6d31f73502efc990600090a1565b600554600090819060ff161561130757600080fd5b611402878787876040516020018085600160a060020a0316600160a060020a03166c0100000000000000000000000002815260140184815260200183805190602001908083835b6020831061136d5780518252601f19909201916020918201910161134e565b51815160209384036101000a6000190180199092169116179052920193845250604080518085038152938201908190528351939650945084935085019190508083835b602083106113cf5780518252601f1990920191602091820191016113b0565b6001836020036101000a038019825116818451168082178552505050505050905001915050604051809103902084611196565b905061141081888888613377565b91505b5095945050505050565b6000611427614255565b600554600090819060ff161561143c57600080fd5b6000858152600a60205260409020600201548590600160a060020a031680151561146557600080fd5b61146d61314a565b1561147757611550565b33600160a060020a038216141561148d57611550565b6114ae611498612370565b600160a060020a0383169063ffffffff61353316565b1561154b5780600160a060020a031663d202158d6114cb33611eeb565b6040805160e060020a63ffffffff85160281526004810192909252600260248301525160448083019260209291908290030181600087803b15801561150f57600080fd5b505af1158015611523573d6000803e3d6000fd5b505050506040513d602081101561153957600080fd5b5051151561154657600080fd5b611550565b600080fd5b6000878152600a6020908152604091829020825160c0810184528154815260018083015482850152600280840154600160a060020a0316838701526003840180548751601f9482161561010002600019019091169290920492830186900486028201860190965281815291949293606086019391908301828280156116165780601f106115eb57610100808354040283529160200191611616565b820191906000526020600020905b8154815290600101906020018083116115f957829003601f168201915b505050918352505060048201805460408051602060026001851615610100026000190190941693909304601f81018490048402820184019092528181529382019392918301828280156116aa5780601f1061167f576101008083540402835291602001916116aa565b820191906000526020600020905b81548152906001019060200180831161168d57829003601f168201915b505050918352505060058201805460408051602060026001851615610100026000190190941693909304601f810184900484028201840190925281815293820193929183018282801561173e5780601f106117135761010080835404028352916020019161173e565b820191906000526020600020905b81548152906001019060200180831161172157829003601f168201915b505050919092525050506040810151909550600160a060020a0316151561176457600080fd5b6000878152600a6020526040812081815560018101829055600281018054600160a060020a03191690559061179c6003830182614295565b6117aa600483016000614295565b6117b8600583016000614295565b505084516000908152600b60205260408120945092505b835483101561186f57835487908590859081106117e857fe5b60009182526020909120015414156118645783548490600019810190811061180c57fe5b9060005260206000200154848481548110151561182557fe5b60009182526020909120015583548490600019810190811061184357fe5b6000918252602082200155835461185e8560001983016142dc565b5061186f565b6001909201916117cf565b600c60008154809291906001900391905055508460400151600160a060020a0316856000015188600019167f3cf57863a89432c61c4a27073c6ee39e8a764bff5a05aebfbcdcdc80b2e6130a886020015189606001518a608001518b60a0015160405180858152602001806020018060200180602001848103845287818151815260200191508051906020019080838360005b8381101561191a578181015183820152602001611902565b50505050905090810190601f1680156119475780820380516001836020036101000a031916815260200191505b50848103835286518152865160209182019188019080838360005b8381101561197a578181015183820152602001611962565b50505050905090810190601f1680156119a75780820380516001836020036101000a031916815260200191505b50848103825285518152855160209182019187019080838360005b838110156119da5781810151838201526020016119c2565b50505050905090810190601f168015611a075780820380516001836020036101000a031916815260200191505b5097505050505050505060405180910390a45060019695505050505050565b600080611a3161314a565b1515611a3c57600080fd5b60055460ff1615611a4c57600080fd5b611a5e6002858563ffffffff61317c16565b1515611a6d5760009150611ab6565b611a7f6002858563ffffffff6135ea16565b6040519091508190849086907f585a4aef50f8267a92b32412b331b20f7f8b96f2245b253b9cc50dcc621d339790600090a4600191505b5092915050565b60055460ff1681565b6000611ad0614255565b60055460ff1615611ae057600080fd5b6000838152600a60205260409020600201548390600160a060020a0316801515611b0957600080fd5b611b1161314a565b15611b1b57611bd4565b33600160a060020a0382161415611b3157611bd4565b611b3c611498612370565b1561154b5780600160a060020a031663d202158d611b5933611eeb565b6040805160e060020a63ffffffff85160281526004810192909252600260248301525160448083019260209291908290030181600087803b158015611b9d57600080fd5b505af1158015611bb1573d6000803e3d6000fd5b505050506040513d6020811015611bc757600080fd5b50511515611bd457600080fd5b6000858152600a6020908152604091829020825160c0810184528154815260018083015482850152600280840154600160a060020a0316838701526003840180548751601f948216156101000260001901909116929092049283018690048602820186019096528181529194929360608601939190830182828015611c9a5780601f10611c6f57610100808354040283529160200191611c9a565b820191906000526020600020905b815481529060010190602001808311611c7d57829003601f168201915b505050918352505060048201805460408051602060026001851615610100026000190190941693909304601f8101849004840282018401909252818152938201939291830182828015611d2e5780601f10611d0357610100808354040283529160200191611d2e565b820191906000526020600020905b815481529060010190602001808311611d1157829003601f168201915b505050918352505060058201805460408051602060026001851615610100026000190190941693909304601f8101849004840282018401909252818152938201939291830182828015611dc25780601f10611d9757610100808354040283529160200191611dc2565b820191906000526020600020905b815481529060010190602001808311611da557829003601f168201915b505050919092525050506040810151909350600160a060020a03161515611de857600080fd5b611e0983600001518460200151856040015186606001518760800151613795565b1515611e2257611e188561141d565b5060009350611e27565b600193505b505050919050565b60086020908152600091825260409182902080546001808301546002808501805488516101009582161595909502600019011691909104601f8101879004870284018701909752868352600160a060020a03909316959094919291830182828015611edb5780601f10611eb057610100808354040283529160200191611edb565b820191906000526020600020905b815481529060010190602001808311611ebe57829003601f168201915b5050505050908060030154905084565b600160a060020a031690565b600960205281600052604060002081815481101515611f1257fe5b600091825260209091200154600160a060020a03169150829050565b6000611f3861314a565b1515611f4357600080fd5b60055460ff1615611f5357600080fd5b611f6460028663ffffffff6138cc16565b1515611f6f57600080fd5b611f8360028686868663ffffffff61395e16565b50600195945050505050565b60055460009081908190819060ff1615611fa857600080fd5b851515611fb457600080fd5b60008681526008602052604090208054909350600160a060020a03161515611fdb57600080fd5b825460028085018054604080516020601f6000196001861615610100020190941695909504928301859004850281018501909152818152612082943394600160a060020a03909116939192908301828280156120785780601f1061204d57610100808354040283529160200191612078565b820191906000526020600020905b81548152906001019060200180831161205b57829003601f168201915b50505050506139a7565b50604080518615158152905187917fb3932da477fe5d6c8ff2eafef050c0f3a1af18fc07121001482600f36f3715d8919081900360200190a2600086815260096020526040902091508415156121cd575060005b81548110156121c457815433908390839081106120ef57fe5b600091825260209091200154600160a060020a031614156121bc5781548290600019810190811061211c57fe5b6000918252602090912001548254600160a060020a039091169083908390811061214257fe5b60009182526020909120018054600160a060020a031916600160a060020a039290921691909117905581548290600019810190811061217d57fe5b60009182526020909120018054600160a060020a031916905581546121a68360001983016142dc565b5060038301805460019081019091559350612325565b6001016120d6565b60009350612325565b5060005b815481101561221257815433908390839081106121ea57fe5b600091825260209091200154600160a060020a0316141561220a57600080fd5b6001016121d1565b8154600181018355600083815260209020018054600160a060020a031916331790556003830180546000190190819055151561232057604080516080810182528454600160a060020a031681526001808601546020808401919091526002808801805486516101009582161595909502600019011691909104601f81018390048302840183018652808452612319958c95948a9491860193909290918301828280156122ff5780601f106122d4576101008083540402835291602001916122ff565b820191906000526020600020905b8154815290600101906020018083116122e257829003601f168201915b505050505081526020016003820154815250506001613b58565b9350612325565b600193505b50505092915050565b6000838152600260209081526040808320600160a060020a03861684526003018252808320600160e060020a03198516845290915290205460ff169392505050565b7fdc3d2a7b0000000000000000000000000000000000000000000000000000000090565b61239c61314a565b15156123a757600080fd5b60055460ff16156123b757600080fd5b6005805460ff191660011790556040517f4b314b34e912fda7f95e7d23e9c8c95f82f0aff1984e4ce592a0b005f905562490600090a1565b6000818152600360209081526040918290208054835181840281018401909452808452606093928301828280156111795760200282019190600052602060002090815481526001909101906020018083116111645750505050509050919050565b600481565b60005481565b60075481565b600881565b60055460009081908190819060ff161561247f57600080fd5b61248c8a8a8a8a8a613795565b151561249757600080fd5b61249f61314a565b92508215156126ed576040517fb61d27f600000000000000000000000000000000000000000000000000000000815230600482018181526000602484018190526060604485019081523660648601819052939463b61d27f694869484939192909190608401848480828437820191505095505050505050602060405180830381600087803b15801561253057600080fd5b505af1158015612544573d6000803e3d6000fd5b505050506040513d602081101561255a57600080fd5b8101908080519060200190929190505050935087600160a060020a03168a857fe6b6db97dedfb44cbced367387e40b3f92dbee1b1be87f9367f7b673532b0d698c8b8b8b60405180858152602001806020018060200180602001848103845287818151815260200191508051906020019080838360005b838110156125e95781810151838201526020016125d1565b50505050905090810190601f1680156126165780820380516001836020036101000a031916815260200191505b50848103835286518152865160209182019188019080838360005b83811015612649578181015183820152602001612631565b50505050905090810190601f1680156126765780820380516001836020036101000a031916815260200191505b50848103825285518152855160209182019187019080838360005b838110156126a9578181015183820152602001612691565b50505050905090810190601f1680156126d65780820380516001836020036101000a031916815260200191505b5097505050505050505060405180910390a461290a565b6126f7888b610efc565b6000818152600a6020526040902060020154909250600160a060020a0316151561272f5761272a828b8b8b8b8b8b613dda565b61290a565b506000818152600a60209081526040909120600181018a90558751909161275d9160038401918a0190614305565b5085516127739060048301906020890190614305565b5084516127899060058301906020880190614305565b5087600160a060020a03168a83600019167f3bab293fc00db832d7619a9299914251b8747c036867ec056cbd506f60135b138c8b8b8b60405180858152602001806020018060200180602001848103845287818151815260200191508051906020019080838360005b8381101561280a5781810151838201526020016127f2565b50505050905090810190601f1680156128375780820380516001836020036101000a031916815260200191505b50848103835286518152865160209182019188019080838360005b8381101561286a578181015183820152602001612852565b50505050905090810190601f1680156128975780820380516001836020036101000a031916815260200191505b50848103825285518152855160209182019187019080838360005b838110156128ca5781810151838201526020016128b2565b50505050905090810190601f1680156128f75780820380516001836020036101000a031916815260200191505b5097505050505050505060405180910390a45b5050509695505050505050565b600581565b60055460009060ff161561292f57600080fd5b61293b33858585613377565b949350505050565b600781565b7f107653790000000000000000000000000000000000000000000000000000000090565b600080805b6004811015611ab65780600802848281518110151561298c57fe5b60209101015160029190910a60f860020a918290049091027fff0000000000000000000000000000000000000000000000000000000000000016049190911790600101612971565b600080600060608060606129e6614255565b6000888152600a6020908152604091829020825160c0810184528154815260018083015482850152600280840154600160a060020a0316838701526003840180548751601f948216156101000260001901909116929092049283018690048602820186019096528181529194929360608601939190830182828015612aac5780601f10612a8157610100808354040283529160200191612aac565b820191906000526020600020905b815481529060010190602001808311612a8f57829003601f168201915b505050918352505060048201805460408051602060026001851615610100026000190190941693909304601f8101849004840282018401909252818152938201939291830182828015612b405780601f10612b1557610100808354040283529160200191612b40565b820191906000526020600020905b815481529060010190602001808311612b2357829003601f168201915b505050918352505060058201805460408051602060026001851615610100026000190190941693909304601f8101849004840282018401909252818152938201939291830182828015612bd45780601f10612ba957610100808354040283529160200191612bd4565b820191906000526020600020905b815481529060010190602001808311612bb757829003601f168201915b505050919092525050506040810151909150600160a060020a03161515612bfa57600080fd5b8051602082015160408301516060840151608085015160a090950151939c929b5090995097509195509350915050565b60045490565b60055460009060ff1615612c4357600080fd5b612c4b61314a565b1515612c5657600080fd5b60008211612c6357600080fd5b612c6d60016123ef565b51905080821115612c7d57600080fd5b50600055565b60006110a26002848463ffffffff61317c16565b60055460009081908190819060ff1615612cb057600080fd5b612cbd8b8b8b8b8b613795565b1515612cc857600080fd5b612e618b8b8b8b8b8b6040516020018087815260200186815260200185600160a060020a0316600160a060020a03166c0100000000000000000000000002815260140184805190602001908083835b60208310612d365780518252601f199092019160209182019101612d17565b51815160209384036101000a600019018019909216911617905286519190930192860191508083835b60208310612d7e5780518252601f199092019160209182019101612d5f565b51815160209384036101000a600019018019909216911617905285519190930192850191508083835b60208310612dc65780518252601f199092019160209182019101612da7565b6001836020036101000a03801982511681845116808217855250505050505090500196505050505050506040516020818303038152906040526040518082805190602001908083835b60208310612e2e5780518252601f199092019160209182019101612e0f565b6001836020036101000a038019825116818451168082178552505050505050905001915050604051809103902086611196565b9250612e7f612e6f84611eeb565b600290600163ffffffff61317c16565b1515612e8a57600080fd5b612e94898c610efc565b6000818152600a6020526040902060020154909250600160a060020a03161515612ecc57612ec7828c8c8c8c8c8c613dda565b6130a7565b506000818152600a60209081526040909120600181018b905588519091612efa9160038401918b0190614305565b508651612f1090600483019060208a0190614305565b508551612f269060058301906020890190614305565b5088600160a060020a03168b83600019167f3bab293fc00db832d7619a9299914251b8747c036867ec056cbd506f60135b138d8c8c8c60405180858152602001806020018060200180602001848103845287818151815260200191508051906020019080838360005b83811015612fa7578181015183820152602001612f8f565b50505050905090810190601f168015612fd45780820380516001836020036101000a031916815260200191505b50848103835286518152865160209182019188019080838360005b83811015613007578181015183820152602001612fef565b50505050905090810190601f1680156130345780820380516001836020036101000a031916815260200191505b50848103825285518152855160209182019187019080838360005b8381101561306757818101518382015260200161304f565b50505050905090810190601f1680156130945780820380516001836020036101000a031916815260200191505b5097505050505050505060405180910390a45b5060019a9950505050505050505050565b60055460009060ff16156130cb57600080fd5b6130d361314a565b15156130de57600080fd5b600082116130eb57600080fd5b6130f560026123ef565b5190508082111561310557600080fd5b50600155565b600681565b61311861314a565b151561312357600080fd5b600160a060020a038116151561313857600080fd5b80600160a060020a0316ff5b600c5481565b60003330141561315c57506001610e4a565b60005460011461316b57600080fd5b613177612e6f33611eeb565b905090565b6000613186614235565b60008481526020868152604080832081518154608094810282018501909352606081018381529093919284928491908401828280156131e457602002820191906000526020600020905b8154815260200190600101908083116131d0575b50505091835250506001820154602082015260029091015460409182015281015190925015156132175760009250613257565b5060005b81515181101561325757815180518591908390811061323657fe5b90602001906020020151141561324f5760019250613257565b60010161321b565b50509392505050565b613273600284848463ffffffff61405216565b6040518190839085907f480000bb1edad8ca1470381cc334b1917fbd51c6531f3a623ea8e0ec7e38a6e990600090a4505050565b600080600080845160411415156132c15760009350612325565b50505060208201516040830151606084015160001a601b60ff821610156132e657601b015b8060ff16601b141580156132fe57508060ff16601c14155b1561330c5760009350612325565b60408051600080825260208083018085528a905260ff8516838501526060830187905260808301869052925160019360a0808501949193601f19840193928390039091019190865af1158015613366573d6000803e3d6000fd5b505050602060405103519350612325565b600080613382614383565b61338d8787866139a7565b915061339e308787876007546140c3565b92508486600160a060020a0316847f8afcfabcb00e47a53a8fc3e9f23ff47ee1926194bb1350dd007c50b412a6cee8876040518080602001828103825283818151815260200191508051906020019080838360005b8381101561340b5781810151838201526020016133f3565b50505050905090810190601f1680156134385780820380516001836020036101000a031916815260200191505b509250505060405180910390a45060078054600101905560408051608081018252600160a060020a038716815260208101869052908101849052606081018290528115156134925761348c83826000613b58565b50613529565b60008381526008602090815260409182902083518154600160a060020a031916600160a060020a039091161781558382015160018201559183015180518493926134e3926002850192910190614305565b50606091909101516003909101556000838152600960209081526040822080546001810182559083529120018054600160a060020a031916600160a060020a0389161790555b5050949350505050565b60008080613561857f01ffc9a7000000000000000000000000000000000000000000000000000000006141e9565b9092509050811580613571575080155b1561357f57600092506135e2565b61359185600160e060020a03196141e9565b90925090508115806135a257508015155b156135b057600092506135e2565b6135ba85856141e9565b90925090506001821480156135cf5750806001145b156135dd57600192506135e2565b600092505b505092915050565b6000828152602084905260408120600181015491805b82548210156136aa5784838381548110151561361857fe5b9060005260206000200154141561369f5782548390600019810190811061363b57fe5b9060005260206000200154838381548110151561365457fe5b60009182526020909120015582548390600019810190811061367257fe5b6000918252602082200155825461368d8460001983016142dc565b506002870180546000190190556136aa565b600190910190613600565b825415156136dc576000868152602088905260408120906136cb82826143b5565b506000600182018190556002909101555b5050600083815260018601602052604081205b805482101561378b578054869082908490811061370857fe5b60009182526020909120015414156137805780548190600019810190811061372c57fe5b9060005260206000200154818381548110151561374557fe5b60009182526020909120015580548190600019810190811061376357fe5b6000918252602082200155805461377e8260001983016142dc565b505b6001909101906136ef565b5050509392505050565b60008060018614156138c3576137b56137af308986610fa9565b85611196565b905080600160a060020a031685600160a060020a031614156137da5760019150611413565b600160a060020a03851630141561380e576138076137f782611eeb565b600290600363ffffffff61317c16565b9150611413565b61382f613819612370565b600160a060020a0387169063ffffffff61353316565b156138c35784600160a060020a031663d202158d61384c83611eeb565b6040805160e060020a63ffffffff85160281526004810192909252600360248301525160448083019260209291908290030181600087803b15801561389057600080fd5b505af11580156138a4573d6000803e3d6000fd5b505050506040513d60208110156138ba57600080fd5b50519150611413565b60009150611413565b60006138d6614235565b600083815260208581526040918290208251815460809381028201840190945260608101848152909391928492849184018282801561393457602002820191906000526020600020905b815481526020019060010190808311613920575b50505091835250506001820154602082015260029091015460409182015201511515949350505050565b600093845260209485526040808520600160a060020a0394909416855260039093018552828420600160e060020a031992909216845293529020805460ff191682151517905590565b6000600160a060020a038316301415613a5257600160a060020a0384163014156139d45750600054613a4d565b6139e0612e6f85611eeb565b80613a3f5750613a026139f285611eeb565b600290600763ffffffff61317c16565b8015613a3f57507f1d38124000000000000000000000000000000000000000000000000000000000613a338361296c565b600160e060020a031916145b1561154b5750600054600019015b6110a2565b600160a060020a0383161515613a6757600080fd5b600160a060020a038416301415613a8157506001546110a2565b613a9c613a8d85611eeb565b6002908163ffffffff61317c16565b80613abe5750613abe613aae85611eeb565b600290600663ffffffff61317c16565b80613b465750613ae0613ad085611eeb565b600290600863ffffffff61317c16565b8015613b46575060026000613af486611eeb565b815260208082019290925260409081016000908120600160a060020a0387168252600301909252812090613b278461296c565b600160e060020a031916815260208101919091526040016000205460ff165b1561154b5750600154600019016110a2565b81516000908190600160a060020a03161515613b7357600080fd5b8360000151600160a060020a03168460200151856040015160405180828051906020019080838360005b83811015613bb5578181015183820152602001613b9d565b50505050905090810190601f168015613be25780820380516001836020036101000a031916815260200191505b5091505060006040518083038185875af1925050509050801515613cba5783602001518460000151600160a060020a0316867fe10c49d9f7c71da23262367013434763cfdb2332267641728d25cd712c5c6a6887604001516040518080602001828103825283818151815260200191508051906020019080838360005b83811015613c77578181015183820152602001613c5f565b50505050905090810190601f168015613ca45780820380516001836020036101000a031916815260200191505b509250505060405180910390a460009150613dd2565b83602001518460000151600160a060020a0316867f1f920dbda597d7bf95035464170fa58d0a4b57f13a1c315ace6793b9f63688b887604001516040518080602001828103825283818151815260200191508051906020019080838360005b83811015613d31578181015183820152602001613d19565b50505050905090810190601f168015613d5e5780820380516001836020036101000a031916815260200191505b509250505060405180910390a4821515613d7b5760019150613dd2565b60008581526008602052604081208054600160a060020a03191681556001810182905590613dac6002830182614295565b506000600391909101819055858152600960205260408120613dcd916143b5565b600191505b509392505050565b6040805160c0810182528781526020808201888152600160a060020a03888116848601908152606085018981526080860189905260a0860188905260008e8152600a865296909620855181559251600184015551600283018054600160a060020a0319169190921617905592518051929392613e5c9260038501920190614305565b5060808201518051613e78916004840191602090910190614305565b5060a08201518051613e94916005840191602090910190614305565b5050506000868152600b60209081526040808320805460018181018355918552838520018b9055600c80549091019055805188815260808184018181528851918301919091528751600160a060020a038a16958c958e957f46149b18aa084502c3f12bc75e19eda8bda8d102b82cce8474677a6d0d5f43c5958e958d958d958d959394929392850192606086019260a0870192918a01918190849084905b83811015613f4a578181015183820152602001613f32565b50505050905090810190601f168015613f775780820380516001836020036101000a031916815260200191505b50848103835286518152865160209182019188019080838360005b83811015613faa578181015183820152602001613f92565b50505050905090810190601f168015613fd75780820380516001836020036101000a031916815260200191505b50848103825285518152855160209182019187019080838360005b8381101561400a578181015183820152602001613ff2565b50505050905090810190601f1680156140375780820380516001836020036101000a031916815260200191505b5097505050505050505060405180910390a450505050505050565b6000838152602085815260408220805460018101825581845291909220018390556002810154151561408d5760028101849055600181018290555b50506000908152600180840160209081526040832080548084018255908452922090910191909155600290910180549091019055565b600085858585856040516020018086600160a060020a0316600160a060020a03166c0100000000000000000000000002815260140185600160a060020a0316600160a060020a03166c0100000000000000000000000002815260140184815260200183805190602001908083835b602083106141505780518252601f199092019160209182019101614131565b51815160209384036101000a600019018019909216911617905292019384525060408051808503815293820190819052835193975095508594508601925081905083835b602083106141b35780518252601f199092019160209182019101614194565b5181516020939093036101000a600019018019909116921691909117905260405192018290039091209998505050505050505050565b6040517f01ffc9a70000000000000000000000000000000000000000000000000000000080825260048201839052600091829190602081818189617530fa905190969095509350505050565b604080516060818101835281526000602082018190529181019190915290565b60c06040519081016040528060008152602001600081526020016000600160a060020a031681526020016060815260200160608152602001606081525090565b50805460018160011615610100020316600290046000825580601f106142bb57506142d9565b601f0160209004906000526020600020908101906142d991906143cf565b50565b815481835581811115614300576000838152602090206143009181019083016143cf565b505050565b828054600181600116156101000203166002900490600052602060002090601f016020900481019282601f1061434657805160ff1916838001178555614373565b82800160010185558215614373579182015b82811115614373578251825591602001919060010190614358565b5061437f9291506143cf565b5090565b6080604051908101604052806000600160a060020a031681526020016000815260200160608152602001600081525090565b50805460008255906000526020600020908101906142d991905b610e4a91905b8082111561437f57600081556001016143d5565b6060806000808460ff166040519080825280601f01601f191660200182016040528015614420578160200160208202803883390190505b509250600091508590505b8460ff1686018110156144a557868181518110151561444657fe5b90602001015160f860020a900460f860020a02838380600101945081518110151561446d57fe5b9060200101907effffffffffffffffffffffffffffffffffffffffffffffffffffffffffffff1916908160001a90535060010161442b565b509095945050505050565b606061293b8484846143e95600a165627a7a7230582016e10b106c77ba0d4b8365733d73294d980aebe8663cff611c34639867f42eab0029",
  "source": "pragma solidity ^0.4.24;\n\nimport \"./Destructible.sol\";\nimport \"./ERC735.sol\";\nimport \"./KeyGetters.sol\";\nimport \"./KeyManager.sol\";\nimport \"./MultiSig.sol\";\nimport \"./ClaimManager.sol\";\nimport \"./Slice.sol\";\n\n/// @title Identity\n/// @author Mircea Pasoi\n/// @notice Identity contract implementing both ERC 725 and ERC 735\n\ncontract Identity is KeyManager, MultiSig, ClaimManager, Destructible, KeyGetters {\n    using Slice for bytes;\n    using Slice for string;\n\n    /// @dev Constructor for Identity contract. If no initial keys are passed then\n    ///  `msg.sender` is used as an initial MANAGEMENT_KEY, ACTION_KEY and CLAIM_SIGNER_KEY\n    /// @param _keys Keys to start contract with, in ascending order; in case of equality, purposes must be ascending\n    /// @param _purposes Key purposes (in the same order as _keys)\n    /// @param _issuers Claim issuers to start contract with, in ascending order; in case of equality, topics must be ascending\n    /// @param _managementThreshold Multi-sig threshold for MANAGEMENT_KEY\n    /// @param _actionThreshold Multi-sig threshold for ACTION_KEY\n    /// @param _topics Claim topics (in the same order as _issuers)\n    /// @param _signatures All the initial claim signatures concatenated in one bytes array\n    /// @param _datas All the initial claim data concatenated in one bytes array\n    /// @param _uris All the initial claim URIs concatenated in one string\n    /// @param _sizes Triples of signature, claim data, URI sizes (each must be  256)\n    constructor\n    (\n        bytes32[] _keys,\n        uint256[] _purposes,\n        uint256 _managementThreshold,\n        uint256 _actionThreshold,\n        address[] _issuers,\n        uint256[] _topics,\n        // TODO: Pass bytes[] signatures, bytes[] data and string[] uris once ABIEncoderV2 is out\n        bytes _signatures,\n        bytes _datas,\n        string _uris,\n        uint8[] _sizes\n    )\n    public {\n        _validateKeys(_keys, _purposes);\n        _validateClaims(_issuers, _topics, _sizes);\n\n        _addKeys(_keys, _purposes, _managementThreshold, _actionThreshold);\n        _addClaims(_issuers, _topics, _signatures, _datas, _uris, _sizes);\n\n        // Supports both ERC 725 & 735\n        supportedInterfaces[ERC725ID() ^ ERC735ID()] = true;\n    }\n\n    // Fallback function accepts Ether transactions\n    // solhint-disable-next-line no-empty-blocks\n    function () external payable {\n    }\n\n    /// @dev Validate keys are sorted and unique\n    /// @param _keys Keys to start contract with, in ascending order; in case of equality, purposes must be ascending\n    /// @param _purposes Key purposes (in the same order as _keys)\n    function _validateKeys\n    (\n        bytes32[] _keys,\n        uint256[] _purposes\n    )\n    private\n    pure\n    {\n        // Validate keys are sorted and unique\n        require(_keys.length == _purposes.length);\n        for (uint i = 1; i < _keys.length; i++) {\n            // Expect input to be in sorted order, first by keys, then by purposes\n            // Sorted order guarantees (key, purpose) pairs are unique and we can use\n            // _addKey insteaad of addKey (which also checks for existance)\n            bytes32 prevKey = _keys[i - 1];\n            require(_keys[i] > prevKey || (_keys[i] == prevKey && _purposes[i] > _purposes[i - 1]));\n        }\n    }\n\n    /// @dev Add keys to contract and set multi-sig thresholds\n    /// @param _keys Keys to start contract with, in ascending order; in case of equality, purposes must be ascending\n    /// @param _purposes Key purposes (in the same order as _keys)\n    /// @param _managementThreshold Multi-sig threshold for MANAGEMENT_KEY\n    /// @param _actionThreshold Multi-sig threshold for ACTION_KEY\n    function _addKeys\n    (\n        bytes32[] _keys,\n        uint256[] _purposes,\n        uint256 _managementThreshold,\n        uint256 _actionThreshold\n    )\n    private\n    {\n        uint256 actionCount;\n        uint256 managementCount;\n        if (_keys.length == 0) {\n            bytes32 senderKey = addrToKey(msg.sender);\n            // Add key that deployed the contract for MANAGEMENT, ACTION, CLAIM\n            _addKey(senderKey, MANAGEMENT_KEY, ECDSA_TYPE);\n            _addKey(senderKey, ACTION_KEY, ECDSA_TYPE);\n            _addKey(senderKey, CLAIM_SIGNER_KEY, ECDSA_TYPE);\n            actionCount = 1;\n            managementCount = 1;\n        } else {\n            // Add constructor keys\n            for (uint i = 0; i < _keys.length; i++) {\n                _addKey(_keys[i], _purposes[i], ECDSA_TYPE);\n                if (_purposes[i] == MANAGEMENT_KEY) {\n                    managementCount++;\n                } else if (_purposes[i] == ACTION_KEY) {\n                    actionCount++;\n                }\n            }\n        }\n\n        require(_managementThreshold > 0);\n        require(_managementThreshold <= managementCount);\n        require(_actionThreshold > 0);\n        require(_actionThreshold <= actionCount);\n        managementThreshold = _managementThreshold;\n        actionThreshold = _actionThreshold;\n    }\n\n    /// @dev Validate claims are sorted and unique\n    /// @param _issuers Claim issuers to start contract with, in ascending order; in case of equality, topics must be ascending\n    /// @param _topics Claim topics (in the same order as _issuers)\n    /// @param _sizes Triples of signature, claim data, URI sizes (each must be  256)\n    function _validateClaims\n    (\n        address[] _issuers,\n        uint256[] _topics,\n        uint8[] _sizes\n    )\n    private\n    pure\n    {\n        // Validate claims are sorted and unique\n        require(_issuers.length == _topics.length);\n        require(3 * _topics.length == _sizes.length);\n        for (uint i = 1; i < _issuers.length; i++) {\n            // Expect input to be in sorted order, first by issuer, then by topic\n            // Sorted order guarantees (issuer, topic) pairs are unique\n            address prevIssuer = _issuers[i - 1];\n            require(_issuers[i] != prevIssuer || (_issuers[i] == prevIssuer && _topics[i] > _topics[i - 1]));\n        }\n    }\n\n    /// @dev Add claims to contract without an URI\n    /// @param _issuers Claim issuers to start contract with, in ascending order; in case of equality, topics must be ascending\n    /// @param _topics Claim topics (in the same order as _issuers)\n    /// @param _signatures All the initial claim signatures concatenated in one bytes array\n    /// @param _datas All the initial claim data concatenated in one bytes array\n    /// @param _uris All the initial claim URIs concatenated in one string\n    /// @param _sizes Triples of signature, claim data, URI sizes (each must be  256)\n    function _addClaims\n    (\n        address[] _issuers,\n        uint256[] _topics,\n        bytes _signatures,\n        bytes _datas,\n        string _uris,\n        uint8[] _sizes\n    )\n    private\n    {\n        // Add constructor claims\n        uint[3] memory offset;\n        bytes memory signature;\n        bytes memory data;\n        for (uint i = 0; i < _issuers.length; i++) {\n            // Check signature\n            signature = _signatures.slice(offset[0], _sizes[3 * i]);\n            data = _datas.slice(offset[1], _sizes[3 * i + 1]);\n            require(_validSignature(_topics[i], ECDSA_SCHEME, _issuers[i], signature, data));\n            // Add claim\n            _addClaim(\n                getClaimId(_issuers[i], _topics[i]),\n                _topics[i],\n                ECDSA_SCHEME,\n                _issuers[i],\n                signature,\n                data,\n                _uris.slice(offset[2], _sizes[3 * i + 2])\n            );\n            offset[0] += _sizes[3 * i];\n            offset[1] += _sizes[3 * i + 1];\n            offset[2] += _sizes[3 * i + 2];\n        }\n    }\n}",
  "sourcePath": "/Users/coinplug/BangGijin/metabolics2.0/contracts/identity/Identity.sol",
  "compiler": {
    "name": "solc",
    "version": "0.4.24+commit.e67f0147.Emscripten.clang"
  },
  "schemaVersion": "2.0.1",
  "updatedAt": "2018-11-15T06:28:38.212Z"
}