{
  "contractName": "KeyBase",
  "abi": [
    {
      "constant": true,
      "inputs": [],
      "name": "MANAGEMENT_KEY",
      "outputs": [
        {
          "name": "",
          "type": "uint256"
        }
      ],
      "payable": false,
      "stateMutability": "view",
      "type": "function"
    },
    {
      "constant": true,
      "inputs": [],
      "name": "actionThreshold",
      "outputs": [
        {
          "name": "",
          "type": "uint256"
        }
      ],
      "payable": false,
      "stateMutability": "view",
      "type": "function"
    },
    {
      "constant": true,
      "inputs": [],
      "name": "managementThreshold",
      "outputs": [
        {
          "name": "",
          "type": "uint256"
        }
      ],
      "payable": false,
      "stateMutability": "view",
      "type": "function"
    },
    {
      "constant": true,
      "inputs": [],
      "name": "numKeys",
      "outputs": [
        {
          "name": "",
          "type": "uint256"
        }
      ],
      "payable": false,
      "stateMutability": "view",
      "type": "function"
    },
    {
      "constant": true,
      "inputs": [
        {
          "name": "addr",
          "type": "address"
        }
      ],
      "name": "addrToKey",
      "outputs": [
        {
          "name": "",
          "type": "bytes32"
        }
      ],
      "payable": false,
      "stateMutability": "pure",
      "type": "function"
    }
  ],
  "bytecode": "0x608060405260016000556001805534801561001957600080fd5b50610161806100296000396000f30060806040526004361061006c5763ffffffff7c0100000000000000000000000000000000000000000000000000000000600035041663058b316c811461007157806338f4edd41461009857806363f14c3c146100ad578063aa0a5142146100db578063c9d24ecc146100f0575b600080fd5b34801561007d57600080fd5b50610086610105565b60408051918252519081900360200190f35b3480156100a457600080fd5b5061008661010a565b3480156100b957600080fd5b5061008673ffffffffffffffffffffffffffffffffffffffff60043516610110565b3480156100e757600080fd5b50610086610129565b3480156100fc57600080fd5b5061008661012f565b600181565b60015481565b73ffffffffffffffffffffffffffffffffffffffff1690565b60005481565b600454905600a165627a7a723058200d09dfc625d2bac2fa414a6bc44dffcadb0e7807ea40b2596fecafeddc6165740029",
  "source": "pragma solidity ^0.4.24;\n\nimport \"./KeyStore.sol\";\n\n/// @title KeyBase\n/// @author genie\n/// @notice Abstract contract for ERC725 implementation\n/// @dev Key data is stored using KeyStore library\n\ncontract KeyBase {\n    uint256 public constant MANAGEMENT_KEY = 1;\n\n    // For multi-sig\n    uint256 public managementThreshold = 1;\n    uint256 public actionThreshold = 1;\n\n    // Key storage\n    using KeyStore for KeyStore.Keys;\n    KeyStore.Keys internal allKeys;\n\n    /// @dev Number of keys managed by the contract\n    /// @return Unsigned integer number of keys\n    function numKeys()\n        external\n        view\n        returns (uint)\n    {\n        return allKeys.numKeys;\n    }\n\n    /// @dev Convert an Ethereum address (20 bytes) to an ERC725 key (32 bytes)\n    /// @dev It's just a simple typecast, but it's especially useful in tests\n    function addrToKey(address addr)\n        public\n        pure\n        returns (bytes32)\n    {\n        return bytes32(addr);\n    }\n\n    /// @dev Checks if sender is either the identity contract or a MANAGEMENT_KEY\n    /// @dev If the multi-sig threshold for MANAGEMENT_KEY if >1, it will throw an error\n    /// @return `true` if sender is either identity contract or a MANAGEMENT_KEY\n    function _managementOrSelf()\n        internal\n        view\n        returns (bool found)\n    {\n        if (msg.sender == address(this)) {\n            // Identity contract itself\n            return true;\n        }\n        // Only works with 1 key threshold, otherwise need multi-sig\n        require(managementThreshold == 1);\n        return allKeys.find(addrToKey(msg.sender), MANAGEMENT_KEY);\n    }\n\n    /// @dev Modifier that only allows keys of purpose 1, or the identity itself\n    modifier onlyManagementOrSelf {\n        require(_managementOrSelf());\n        _;\n    }\n}\n",
  "sourcePath": "/Users/coinplug/BangGijin/metabolics2.0/contracts/identity/KeyBase.sol",
  "compiler": {
    "name": "solc",
    "version": "0.4.24+commit.e67f0147.Emscripten.clang"
  },
  "schemaVersion": "2.0.1",
  "updatedAt": "2018-12-14T01:49:10.959Z"
}