{
  "contractName": "KeyGetters",
  "abi": [
    {
      "constant": true,
      "inputs": [],
      "name": "MANAGEMENT_KEY",
      "outputs": [
        {
          "name": "",
          "type": "uint256"
        }
      ],
      "payable": false,
      "stateMutability": "view",
      "type": "function"
    },
    {
      "constant": true,
      "inputs": [],
      "name": "actionThreshold",
      "outputs": [
        {
          "name": "",
          "type": "uint256"
        }
      ],
      "payable": false,
      "stateMutability": "view",
      "type": "function"
    },
    {
      "constant": true,
      "inputs": [
        {
          "name": "addr",
          "type": "address"
        }
      ],
      "name": "addrToKey",
      "outputs": [
        {
          "name": "",
          "type": "bytes32"
        }
      ],
      "payable": false,
      "stateMutability": "pure",
      "type": "function"
    },
    {
      "constant": true,
      "inputs": [],
      "name": "managementThreshold",
      "outputs": [
        {
          "name": "",
          "type": "uint256"
        }
      ],
      "payable": false,
      "stateMutability": "view",
      "type": "function"
    },
    {
      "constant": true,
      "inputs": [],
      "name": "numKeys",
      "outputs": [
        {
          "name": "",
          "type": "uint256"
        }
      ],
      "payable": false,
      "stateMutability": "view",
      "type": "function"
    },
    {
      "constant": true,
      "inputs": [
        {
          "name": "_key",
          "type": "bytes32"
        }
      ],
      "name": "getKey",
      "outputs": [
        {
          "name": "purposes",
          "type": "uint256[]"
        },
        {
          "name": "keyType",
          "type": "uint256"
        },
        {
          "name": "key",
          "type": "bytes32"
        }
      ],
      "payable": false,
      "stateMutability": "view",
      "type": "function"
    },
    {
      "constant": true,
      "inputs": [
        {
          "name": "_key",
          "type": "bytes32"
        },
        {
          "name": "purpose",
          "type": "uint256"
        }
      ],
      "name": "keyHasPurpose",
      "outputs": [
        {
          "name": "exists",
          "type": "bool"
        }
      ],
      "payable": false,
      "stateMutability": "view",
      "type": "function"
    },
    {
      "constant": true,
      "inputs": [
        {
          "name": "_purpose",
          "type": "uint256"
        }
      ],
      "name": "getKeysByPurpose",
      "outputs": [
        {
          "name": "keys",
          "type": "bytes32[]"
        }
      ],
      "payable": false,
      "stateMutability": "view",
      "type": "function"
    },
    {
      "constant": true,
      "inputs": [
        {
          "name": "_key",
          "type": "bytes32"
        },
        {
          "name": "_to",
          "type": "address"
        },
        {
          "name": "_func",
          "type": "bytes4"
        }
      ],
      "name": "keyCanExecute",
      "outputs": [
        {
          "name": "executable",
          "type": "bool"
        }
      ],
      "payable": false,
      "stateMutability": "view",
      "type": "function"
    }
  ],
  "bytecode": "0x608060405260016000556001805534801561001957600080fd5b5061057b806100296000396000f3006080604052600436106100985763ffffffff7c0100000000000000000000000000000000000000000000000000000000600035041663058b316c811461009d57806312aaac70146100c457806338f4edd41461013d57806363f14c3c14610152578063765b3042146101805780639010f726146101e7578063aa0a51421461024f578063c9d24ecc14610264578063d202158d14610279575b600080fd5b3480156100a957600080fd5b506100b2610294565b60408051918252519081900360200190f35b3480156100d057600080fd5b506100dc600435610299565b60408051602080820185905291810183905260608082528551908201528451909182916080830191878101910280838360005b8381101561012757818101518382015260200161010f565b5050505090500194505050505060405180910390f35b34801561014957600080fd5b506100b261033e565b34801561015e57600080fd5b506100b273ffffffffffffffffffffffffffffffffffffffff60043516610344565b34801561018c57600080fd5b506101d360043573ffffffffffffffffffffffffffffffffffffffff602435167bffffffffffffffffffffffffffffffffffffffffffffffffffffffff196044351661035d565b604080519115158252519081900360200190f35b3480156101f357600080fd5b506101ff6004356103c1565b60408051602080825283518183015283519192839290830191858101910280838360005b8381101561023b578181015183820152602001610223565b505050509050019250505060405180910390f35b34801561025b57600080fd5b506100b2610424565b34801561027057600080fd5b506100b261042a565b34801561028557600080fd5b506101d3600435602435610430565b600181565b60606000806102a661052f565b6000858152600260209081526040918290208251815460809381028201840190945260608101848152909391928492849184018282801561030657602002820191906000526020600020905b8154815260200190600101908083116102f2575b505050918352505060018201546020808301919091526002909201546040918201528251918301519201519097919650945092505050565b60015481565b73ffffffffffffffffffffffffffffffffffffffff1690565b600083815260026020908152604080832073ffffffffffffffffffffffffffffffffffffffff8616845260030182528083207bffffffffffffffffffffffffffffffffffffffffffffffffffffffff198516845290915290205460ff169392505050565b60008181526003602090815260409182902080548351818402810184019094528084526060939283018282801561041857602002820191906000526020600020905b81548152600190910190602001808311610403575b50505050509050919050565b60005481565b60045490565b60006104446002848463ffffffff61044b16565b9392505050565b600061045561052f565b60008481526020868152604080832081518154608094810282018501909352606081018381529093919284928491908401828280156104b357602002820191906000526020600020905b81548152602001906001019080831161049f575b50505091835250506001820154602082015260029091015460409182015281015190925015156104e65760009250610526565b5060005b81515181101561052657815180518591908390811061050557fe5b90602001906020020151141561051e5760019250610526565b6001016104ea565b50509392505050565b6040805160608181018352815260006020820181905291810191909152905600a165627a7a72305820e8a9c311650d847475adb83085d0da33c24d3a809ef376b5e5722264d7cf054d0029",
  "source": "pragma solidity ^0.4.24;\n\nimport \"./KeyBase.sol\";\n\n/// @title KeyGetters\n/// @author genie\n/// @notice Implement getter functions from ERC725 spec\n/// @dev Key data is stored using KeyStore library\n\ncontract KeyGetters is KeyBase {\n    /// @dev Find the key data, if held by the identity\n    /// @param _key Key bytes to find\n    /// @return `(purposes, keyType, key)` tuple if the key exists\n    function getKey(\n        bytes32 _key\n    )\n        public\n        view\n        returns(uint256[] purposes, uint256 keyType, bytes32 key)\n    {\n        KeyStore.Key memory k = allKeys.keyData[_key];\n        purposes = k.purposes;\n        keyType = k.keyType;\n        key = k.key;\n    }\n\n    /// @dev Find if a key has is present and has the given purpose\n    /// @param _key Key bytes to find\n    /// @param purpose Purpose to find\n    /// @return Boolean indicating whether the key exists or not\n    function keyHasPurpose(\n        bytes32 _key,\n        uint256 purpose\n    )\n        public\n        view\n        returns(bool exists)\n    {\n        return allKeys.find(_key, purpose);\n    }\n\n    /// @dev Find all the keys held by this identity for a given purpose\n    /// @param _purpose Purpose to find\n    /// @return Array with key bytes for that purpose (empty if none)\n    function getKeysByPurpose(uint256 _purpose)\n        public\n        view\n        returns(bytes32[] keys)\n    {\n        return allKeys.keysByPurpose[_purpose];\n    }\n    \n    function keyCanExecute(bytes32 _key, address _to, bytes4 _func)\n        public\n        view\n        returns(bool executable)\n    {\n        //KeyStore.Key storage k = allKeys.keyData[_key];\n        //return k.func[_to][_func];\n        return allKeys.keyData[_key].func[_to][_func];\n    }\n}",
  "sourcePath": "/Users/coinplug/BangGijin/metabolics2.0/contracts/identity/KeyGetters.sol",
  "compiler": {
    "name": "solc",
    "version": "0.4.24+commit.e67f0147.Emscripten.clang"
  },
  "schemaVersion": "2.0.1",
  "updatedAt": "2018-10-22T08:34:59.676Z"
}