{
  "contractName": "KeyGetters",
  "abi": [
    {
      "constant": true,
      "inputs": [],
      "name": "MANAGEMENT_KEY",
      "outputs": [
        {
          "name": "",
          "type": "uint256"
        }
      ],
      "payable": false,
      "stateMutability": "view",
      "type": "function"
    },
    {
      "constant": true,
      "inputs": [],
      "name": "actionThreshold",
      "outputs": [
        {
          "name": "",
          "type": "uint256"
        }
      ],
      "payable": false,
      "stateMutability": "view",
      "type": "function"
    },
    {
      "constant": true,
      "inputs": [
        {
          "name": "addr",
          "type": "address"
        }
      ],
      "name": "addrToKey",
      "outputs": [
        {
          "name": "",
          "type": "bytes32"
        }
      ],
      "payable": false,
      "stateMutability": "pure",
      "type": "function"
    },
    {
      "constant": true,
      "inputs": [],
      "name": "managementThreshold",
      "outputs": [
        {
          "name": "",
          "type": "uint256"
        }
      ],
      "payable": false,
      "stateMutability": "view",
      "type": "function"
    },
    {
      "constant": true,
      "inputs": [],
      "name": "numKeys",
      "outputs": [
        {
          "name": "",
          "type": "uint256"
        }
      ],
      "payable": false,
      "stateMutability": "view",
      "type": "function"
    },
    {
      "constant": true,
      "inputs": [
        {
          "name": "_key",
          "type": "bytes32"
        }
      ],
      "name": "getKey",
      "outputs": [
        {
          "name": "purposes",
          "type": "uint256[]"
        },
        {
          "name": "keyType",
          "type": "uint256"
        },
        {
          "name": "key",
          "type": "bytes32"
        }
      ],
      "payable": false,
      "stateMutability": "view",
      "type": "function"
    },
    {
      "constant": true,
      "inputs": [
        {
          "name": "_key",
          "type": "bytes32"
        },
        {
          "name": "purpose",
          "type": "uint256"
        }
      ],
      "name": "keyHasPurpose",
      "outputs": [
        {
          "name": "exists",
          "type": "bool"
        }
      ],
      "payable": false,
      "stateMutability": "view",
      "type": "function"
    },
    {
      "constant": true,
      "inputs": [
        {
          "name": "_purpose",
          "type": "uint256"
        }
      ],
      "name": "getKeysByPurpose",
      "outputs": [
        {
          "name": "keys",
          "type": "bytes32[]"
        }
      ],
      "payable": false,
      "stateMutability": "view",
      "type": "function"
    }
  ],
  "bytecode": "0x608060405260016000556001805534801561001957600080fd5b506104b9806100296000396000f30060806040526004361061008d5763ffffffff7c0100000000000000000000000000000000000000000000000000000000600035041663058b316c811461009257806312aaac70146100b957806338f4edd41461013257806363f14c3c146101475780639010f72614610175578063aa0a5142146101dd578063c9d24ecc146101f2578063d202158d14610207575b600080fd5b34801561009e57600080fd5b506100a7610236565b60408051918252519081900360200190f35b3480156100c557600080fd5b506100d160043561023b565b60408051602080820185905291810183905260608082528551908201528451909182916080830191878101910280838360005b8381101561011c578181015183820152602001610104565b5050505090500194505050505060405180910390f35b34801561013e57600080fd5b506100a76102e0565b34801561015357600080fd5b506100a773ffffffffffffffffffffffffffffffffffffffff600435166102e6565b34801561018157600080fd5b5061018d6004356102ff565b60408051602080825283518183015283519192839290830191858101910280838360005b838110156101c95781810151838201526020016101b1565b505050509050019250505060405180910390f35b3480156101e957600080fd5b506100a7610362565b3480156101fe57600080fd5b506100a7610368565b34801561021357600080fd5b5061022260043560243561036e565b604080519115158252519081900360200190f35b600181565b606060008061024861046d565b600085815260026020908152604091829020825181546080938102820184019094526060810184815290939192849284918401828280156102a857602002820191906000526020600020905b815481526020019060010190808311610294575b505050918352505060018201546020808301919091526002909201546040918201528251918301519201519097919650945092505050565b60015481565b73ffffffffffffffffffffffffffffffffffffffff1690565b60008181526003602090815260409182902080548351818402810184019094528084526060939283018282801561035657602002820191906000526020600020905b81548152600190910190602001808311610341575b50505050509050919050565b60005481565b60045490565b60006103826002848463ffffffff61038916565b9392505050565b600061039361046d565b60008481526020868152604080832081518154608094810282018501909352606081018381529093919284928491908401828280156103f157602002820191906000526020600020905b8154815260200190600101908083116103dd575b50505091835250506001820154602082015260029091015460409182015281015190925015156104245760009250610464565b5060005b81515181101561046457815180518591908390811061044357fe5b90602001906020020151141561045c5760019250610464565b600101610428565b50509392505050565b6040805160608181018352815260006020820181905291810191909152905600a165627a7a723058206c186e917d508be7d64ac32e5e19e0d3beb15dd08fda3662675f6b915aee713e0029",
  "source": "pragma solidity ^0.4.24;\n\nimport \"./KeyBase.sol\";\n\n/// @title KeyGetters\n/// @author genie\n/// @notice Implement getter functions from ERC725 spec\n/// @dev Key data is stored using KeyStore library\n\ncontract KeyGetters is KeyBase {\n    /// @dev Find the key data, if held by the identity\n    /// @param _key Key bytes to find\n    /// @return `(purposes, keyType, key)` tuple if the key exists\n    function getKey(\n        bytes32 _key\n    )\n        public\n        view\n        returns(uint256[] purposes, uint256 keyType, bytes32 key)\n    {\n        KeyStore.Key memory k = allKeys.keyData[_key];\n        purposes = k.purposes;\n        keyType = k.keyType;\n        key = k.key;\n    }\n\n    /// @dev Find if a key has is present and has the given purpose\n    /// @param _key Key bytes to find\n    /// @param purpose Purpose to find\n    /// @return Boolean indicating whether the key exists or not\n    function keyHasPurpose(\n        bytes32 _key,\n        uint256 purpose\n    )\n        public\n        view\n        returns(bool exists)\n    {\n        return allKeys.find(_key, purpose);\n    }\n\n    /// @dev Find all the keys held by this identity for a given purpose\n    /// @param _purpose Purpose to find\n    /// @return Array with key bytes for that purpose (empty if none)\n    function getKeysByPurpose(uint256 _purpose)\n        public\n        view\n        returns(bytes32[] keys)\n    {\n        return allKeys.keysByPurpose[_purpose];\n    }\n}",
  "sourcePath": "/Users/coinplug/BangGijin/metabolics2.0/contracts/identity/KeyGetters.sol",
  "compiler": {
    "name": "solc",
    "version": "0.4.24+commit.e67f0147.Emscripten.clang"
  },
  "schemaVersion": "2.0.1",
  "updatedAt": "2018-10-08T08:14:57.215Z"
}