{
  "contractName": "KeyGetters",
  "abi": [
    {
      "constant": true,
      "inputs": [],
      "name": "MANAGEMENT_KEY",
      "outputs": [
        {
          "name": "",
          "type": "uint256"
        }
      ],
      "payable": false,
      "stateMutability": "view",
      "type": "function"
    },
    {
      "constant": true,
      "inputs": [],
      "name": "actionThreshold",
      "outputs": [
        {
          "name": "",
          "type": "uint256"
        }
      ],
      "payable": false,
      "stateMutability": "view",
      "type": "function"
    },
    {
      "constant": true,
      "inputs": [
        {
          "name": "addr",
          "type": "address"
        }
      ],
      "name": "addrToKey",
      "outputs": [
        {
          "name": "",
          "type": "bytes32"
        }
      ],
      "payable": false,
      "stateMutability": "pure",
      "type": "function"
    },
    {
      "constant": true,
      "inputs": [],
      "name": "managementThreshold",
      "outputs": [
        {
          "name": "",
          "type": "uint256"
        }
      ],
      "payable": false,
      "stateMutability": "view",
      "type": "function"
    },
    {
      "constant": true,
      "inputs": [],
      "name": "numKeys",
      "outputs": [
        {
          "name": "",
          "type": "uint256"
        }
      ],
      "payable": false,
      "stateMutability": "view",
      "type": "function"
    },
    {
      "constant": true,
      "inputs": [
        {
          "name": "_key",
          "type": "bytes32"
        }
      ],
      "name": "getKey",
      "outputs": [
        {
          "name": "purposes",
          "type": "uint256[]"
        },
        {
          "name": "keyType",
          "type": "uint256"
        },
        {
          "name": "key",
          "type": "bytes32"
        }
      ],
      "payable": false,
      "stateMutability": "view",
      "type": "function"
    },
    {
      "constant": true,
      "inputs": [
        {
          "name": "_key",
          "type": "bytes32"
        },
        {
          "name": "purpose",
          "type": "uint256"
        }
      ],
      "name": "keyHasPurpose",
      "outputs": [
        {
          "name": "exists",
          "type": "bool"
        }
      ],
      "payable": false,
      "stateMutability": "view",
      "type": "function"
    },
    {
      "constant": true,
      "inputs": [
        {
          "name": "_purpose",
          "type": "uint256"
        }
      ],
      "name": "getKeysByPurpose",
      "outputs": [
        {
          "name": "keys",
          "type": "bytes32[]"
        }
      ],
      "payable": false,
      "stateMutability": "view",
      "type": "function"
    },
    {
      "constant": true,
      "inputs": [
        {
          "name": "_key",
          "type": "bytes32"
        },
        {
          "name": "_to",
          "type": "address"
        },
        {
          "name": "_func",
          "type": "bytes4"
        }
      ],
      "name": "keyCanExecute",
      "outputs": [
        {
          "name": "executable",
          "type": "bool"
        }
      ],
      "payable": false,
      "stateMutability": "view",
      "type": "function"
    }
  ],
  "bytecode": "0x608060405260016000556001805534801561001957600080fd5b5061077c806100296000396000f300608060405260043610610099576000357c0100000000000000000000000000000000000000000000000000000000900463ffffffff168063058b316c1461009e57806312aaac70146100c957806338f4edd41461016557806363f14c3c14610190578063765b3042146101ef5780639010f72614610281578063aa0a514214610303578063c9d24ecc1461032e578063d202158d14610359575b600080fd5b3480156100aa57600080fd5b506100b36103ac565b6040518082815260200191505060405180910390f35b3480156100d557600080fd5b506100f860048036038101908080356000191690602001909291905050506103b1565b60405180806020018481526020018360001916600019168152602001828103825285818151815260200191508051906020019060200280838360005b8381101561014f578082015181840152602081019050610134565b5050505090500194505050505060405180910390f35b34801561017157600080fd5b5061017a61047b565b6040518082815260200191505060405180910390f35b34801561019c57600080fd5b506101d1600480360381019080803573ffffffffffffffffffffffffffffffffffffffff169060200190929190505050610481565b60405180826000191660001916815260200191505060405180910390f35b3480156101fb57600080fd5b506102676004803603810190808035600019169060200190929190803573ffffffffffffffffffffffffffffffffffffffff16906020019092919080357bffffffffffffffffffffffffffffffffffffffffffffffffffffffff191690602001909291905050506104a4565b604051808215151515815260200191505060405180910390f35b34801561028d57600080fd5b506102ac6004803603810190808035906020019092919050505061056a565b6040518080602001828103825283818151815260200191508051906020019060200280838360005b838110156102ef5780820151818401526020810190506102d4565b505050509050019250505060405180910390f35b34801561030f57600080fd5b506103186105dc565b6040518082815260200191505060405180910390f35b34801561033a57600080fd5b506103436105e2565b6040518082815260200191505060405180910390f35b34801561036557600080fd5b506103926004803603810190808035600019169060200190929190803590602001909291905050506105ee565b604051808215151515815260200191505060405180910390f35b600181565b60606000806103be61072b565b600260000160008660001916600019168152602001908152602001600020606060405190810160405290816000820180548060200260200160405190810160405280929190818152602001828054801561043757602002820191906000526020600020905b815481526020019060010190808311610423575b505050505081526020016001820154815260200160028201546000191660001916815250509050806000015193508060200151925080604001519150509193909250565b60015481565b60008173ffffffffffffffffffffffffffffffffffffffff166001029050919050565b600060026000016000856000191660001916815260200190815260200160002060030160008473ffffffffffffffffffffffffffffffffffffffff1673ffffffffffffffffffffffffffffffffffffffff1681526020019081526020016000206000837bffffffffffffffffffffffffffffffffffffffffffffffffffffffff19167bffffffffffffffffffffffffffffffffffffffffffffffffffffffff1916815260200190815260200160002060009054906101000a900460ff1690509392505050565b6060600260010160008381526020019081526020016000208054806020026020016040519081016040528092919081815260200182805480156105d057602002820191906000526020600020905b815460001916815260200190600101908083116105b8575b50505050509050919050565b60005481565b60006002800154905090565b60006106068383600261060e9092919063ffffffff16565b905092915050565b600061061861072b565b60008560000160008660001916600019168152602001908152602001600020606060405190810160405290816000820180548060200260200160405190810160405280929190818152602001828054801561069257602002820191906000526020600020905b81548152602001906001019080831161067e575b505050505081526020016001820154815260200160028201546000191660001916815250509150600060010282604001516000191614156106d65760009250610722565b600090505b81600001515181101561072157838260000151828151811015156106fb57fe5b9060200190602002015114156107145760019250610722565b80806001019150506106db565b5b50509392505050565b60606040519081016040528060608152602001600081526020016000801916815250905600a165627a7a72305820e1815e16e0b78f1477e1b5c8041340630b8a53ab174b8ffde1807342ea6f79940029",
  "source": "pragma solidity ^0.4.24;\n\nimport \"./KeyBase.sol\";\n\n/// @title KeyGetters\n/// @author genie\n/// @notice Implement getter functions from ERC725 spec\n/// @dev Key data is stored using KeyStore library\n\ncontract KeyGetters is KeyBase {\n    /// @dev Find the key data, if held by the identity\n    /// @param _key Key bytes to find\n    /// @return `(purposes, keyType, key)` tuple if the key exists\n    function getKey(\n        bytes32 _key\n    )\n        public\n        view\n        returns(uint256[] purposes, uint256 keyType, bytes32 key)\n    {\n        KeyStore.Key memory k = allKeys.keyData[_key];\n        purposes = k.purposes;\n        keyType = k.keyType;\n        key = k.key;\n    }\n\n    /// @dev Find if a key has is present and has the given purpose\n    /// @param _key Key bytes to find\n    /// @param purpose Purpose to find\n    /// @return Boolean indicating whether the key exists or not\n    function keyHasPurpose(\n        bytes32 _key,\n        uint256 purpose\n    )\n        public\n        view\n        returns(bool exists)\n    {\n        return allKeys.find(_key, purpose);\n    }\n\n    /// @dev Find all the keys held by this identity for a given purpose\n    /// @param _purpose Purpose to find\n    /// @return Array with key bytes for that purpose (empty if none)\n    function getKeysByPurpose(uint256 _purpose)\n        public\n        view\n        returns(bytes32[] keys)\n    {\n        return allKeys.keysByPurpose[_purpose];\n    }\n    \n    function keyCanExecute(bytes32 _key, address _to, bytes4 _func)\n        public\n        view\n        returns(bool executable)\n    {\n        //KeyStore.Key storage k = allKeys.keyData[_key];\n        //return k.func[_to][_func];\n        return allKeys.keyData[_key].func[_to][_func];\n    }\n}",
  "sourcePath": "/Users/hexoul/Documents/Metadium/metabolics/contracts/identity/KeyGetters.sol",
  "compiler": {
    "name": "solc",
    "version": "0.4.24+commit.e67f0147.Emscripten.clang"
  },
  "schemaVersion": "2.0.1",
  "updatedAt": "2019-03-18T07:46:38.370Z"
}