{
  "contractName": "MetaIdentity",
  "abi": [
    {
      "constant": true,
      "inputs": [
        {
          "name": "interfaceID",
          "type": "bytes4"
        }
      ],
      "name": "supportsInterface",
      "outputs": [
        {
          "name": "",
          "type": "bool"
        }
      ],
      "payable": false,
      "stateMutability": "view",
      "type": "function"
    },
    {
      "constant": true,
      "inputs": [],
      "name": "ERC165ID",
      "outputs": [
        {
          "name": "",
          "type": "bytes4"
        }
      ],
      "payable": false,
      "stateMutability": "pure",
      "type": "function"
    },
    {
      "constant": true,
      "inputs": [],
      "name": "REGISTRY_TOPIC",
      "outputs": [
        {
          "name": "",
          "type": "uint256"
        }
      ],
      "payable": false,
      "stateMutability": "view",
      "type": "function"
    },
    {
      "constant": true,
      "inputs": [],
      "name": "MANAGEMENT_KEY",
      "outputs": [
        {
          "name": "",
          "type": "uint256"
        }
      ],
      "payable": false,
      "stateMutability": "view",
      "type": "function"
    },
    {
      "constant": true,
      "inputs": [
        {
          "name": "_key",
          "type": "bytes32"
        }
      ],
      "name": "getKey",
      "outputs": [
        {
          "name": "purposes",
          "type": "uint256[]"
        },
        {
          "name": "keyType",
          "type": "uint256"
        },
        {
          "name": "key",
          "type": "bytes32"
        }
      ],
      "payable": false,
      "stateMutability": "view",
      "type": "function"
    },
    {
      "constant": true,
      "inputs": [
        {
          "name": "issuer",
          "type": "address"
        },
        {
          "name": "topic",
          "type": "uint256"
        }
      ],
      "name": "getClaimId",
      "outputs": [
        {
          "name": "",
          "type": "bytes32"
        }
      ],
      "payable": false,
      "stateMutability": "pure",
      "type": "function"
    },
    {
      "constant": true,
      "inputs": [
        {
          "name": "subject",
          "type": "address"
        },
        {
          "name": "topic",
          "type": "uint256"
        },
        {
          "name": "data",
          "type": "bytes"
        }
      ],
      "name": "claimToSign",
      "outputs": [
        {
          "name": "",
          "type": "bytes32"
        }
      ],
      "payable": false,
      "stateMutability": "pure",
      "type": "function"
    },
    {
      "constant": false,
      "inputs": [
        {
          "name": "_key",
          "type": "bytes32"
        },
        {
          "name": "_purpose",
          "type": "uint256"
        },
        {
          "name": "_keyType",
          "type": "uint256"
        }
      ],
      "name": "addKey",
      "outputs": [
        {
          "name": "success",
          "type": "bool"
        }
      ],
      "payable": false,
      "stateMutability": "nonpayable",
      "type": "function"
    },
    {
      "constant": true,
      "inputs": [],
      "name": "CONTRACT_SCHEME",
      "outputs": [
        {
          "name": "",
          "type": "uint256"
        }
      ],
      "payable": false,
      "stateMutability": "view",
      "type": "function"
    },
    {
      "constant": true,
      "inputs": [
        {
          "name": "_topic",
          "type": "uint256"
        }
      ],
      "name": "getClaimIdsByType",
      "outputs": [
        {
          "name": "claimIds",
          "type": "bytes32[]"
        }
      ],
      "payable": false,
      "stateMutability": "view",
      "type": "function"
    },
    {
      "constant": true,
      "inputs": [],
      "name": "RSA_TYPE",
      "outputs": [
        {
          "name": "",
          "type": "uint256"
        }
      ],
      "payable": false,
      "stateMutability": "view",
      "type": "function"
    },
    {
      "constant": true,
      "inputs": [],
      "name": "actionThreshold",
      "outputs": [
        {
          "name": "",
          "type": "uint256"
        }
      ],
      "payable": false,
      "stateMutability": "view",
      "type": "function"
    },
    {
      "constant": true,
      "inputs": [
        {
          "name": "toSign",
          "type": "bytes32"
        },
        {
          "name": "signature",
          "type": "bytes"
        }
      ],
      "name": "getSignatureAddress",
      "outputs": [
        {
          "name": "",
          "type": "address"
        }
      ],
      "payable": false,
      "stateMutability": "pure",
      "type": "function"
    },
    {
      "constant": false,
      "inputs": [],
      "name": "unpause",
      "outputs": [],
      "payable": false,
      "stateMutability": "nonpayable",
      "type": "function"
    },
    {
      "constant": true,
      "inputs": [],
      "name": "ECDSA_TYPE",
      "outputs": [
        {
          "name": "",
          "type": "uint256"
        }
      ],
      "payable": false,
      "stateMutability": "view",
      "type": "function"
    },
    {
      "constant": false,
      "inputs": [
        {
          "name": "_claimId",
          "type": "bytes32"
        }
      ],
      "name": "removeClaim",
      "outputs": [
        {
          "name": "success",
          "type": "bool"
        }
      ],
      "payable": false,
      "stateMutability": "nonpayable",
      "type": "function"
    },
    {
      "constant": false,
      "inputs": [
        {
          "name": "_key",
          "type": "bytes32"
        },
        {
          "name": "_purpose",
          "type": "uint256"
        }
      ],
      "name": "removeKey",
      "outputs": [
        {
          "name": "success",
          "type": "bool"
        }
      ],
      "payable": false,
      "stateMutability": "nonpayable",
      "type": "function"
    },
    {
      "constant": true,
      "inputs": [],
      "name": "paused",
      "outputs": [
        {
          "name": "",
          "type": "bool"
        }
      ],
      "payable": false,
      "stateMutability": "view",
      "type": "function"
    },
    {
      "constant": false,
      "inputs": [
        {
          "name": "_claimId",
          "type": "bytes32"
        }
      ],
      "name": "refreshClaim",
      "outputs": [
        {
          "name": "",
          "type": "bool"
        }
      ],
      "payable": false,
      "stateMutability": "nonpayable",
      "type": "function"
    },
    {
      "constant": true,
      "inputs": [
        {
          "name": "",
          "type": "uint256"
        }
      ],
      "name": "execution",
      "outputs": [
        {
          "name": "to",
          "type": "address"
        },
        {
          "name": "value",
          "type": "uint256"
        },
        {
          "name": "data",
          "type": "bytes"
        },
        {
          "name": "needsApprove",
          "type": "uint256"
        }
      ],
      "payable": false,
      "stateMutability": "view",
      "type": "function"
    },
    {
      "constant": true,
      "inputs": [
        {
          "name": "addr",
          "type": "address"
        }
      ],
      "name": "addrToKey",
      "outputs": [
        {
          "name": "",
          "type": "bytes32"
        }
      ],
      "payable": false,
      "stateMutability": "pure",
      "type": "function"
    },
    {
      "constant": true,
      "inputs": [
        {
          "name": "",
          "type": "uint256"
        },
        {
          "name": "",
          "type": "uint256"
        }
      ],
      "name": "approved",
      "outputs": [
        {
          "name": "",
          "type": "address"
        }
      ],
      "payable": false,
      "stateMutability": "view",
      "type": "function"
    },
    {
      "constant": true,
      "inputs": [],
      "name": "METAID_TOPIC",
      "outputs": [
        {
          "name": "",
          "type": "uint256"
        }
      ],
      "payable": false,
      "stateMutability": "view",
      "type": "function"
    },
    {
      "constant": false,
      "inputs": [
        {
          "name": "_key",
          "type": "bytes32"
        },
        {
          "name": "_to",
          "type": "address"
        },
        {
          "name": "_func",
          "type": "bytes4"
        },
        {
          "name": "_executable",
          "type": "bool"
        }
      ],
      "name": "setFunc",
      "outputs": [
        {
          "name": "success",
          "type": "bool"
        }
      ],
      "payable": false,
      "stateMutability": "nonpayable",
      "type": "function"
    },
    {
      "constant": false,
      "inputs": [
        {
          "name": "_id",
          "type": "uint256"
        },
        {
          "name": "_approve",
          "type": "bool"
        }
      ],
      "name": "approve",
      "outputs": [
        {
          "name": "success",
          "type": "bool"
        }
      ],
      "payable": false,
      "stateMutability": "nonpayable",
      "type": "function"
    },
    {
      "constant": true,
      "inputs": [],
      "name": "ACTION_KEY",
      "outputs": [
        {
          "name": "",
          "type": "uint256"
        }
      ],
      "payable": false,
      "stateMutability": "view",
      "type": "function"
    },
    {
      "constant": true,
      "inputs": [],
      "name": "ERC725ID",
      "outputs": [
        {
          "name": "",
          "type": "bytes4"
        }
      ],
      "payable": false,
      "stateMutability": "pure",
      "type": "function"
    },
    {
      "constant": true,
      "inputs": [],
      "name": "ECDSA_SCHEME",
      "outputs": [
        {
          "name": "",
          "type": "uint256"
        }
      ],
      "payable": false,
      "stateMutability": "view",
      "type": "function"
    },
    {
      "constant": false,
      "inputs": [],
      "name": "pause",
      "outputs": [],
      "payable": false,
      "stateMutability": "nonpayable",
      "type": "function"
    },
    {
      "constant": true,
      "inputs": [
        {
          "name": "_purpose",
          "type": "uint256"
        }
      ],
      "name": "getKeysByPurpose",
      "outputs": [
        {
          "name": "keys",
          "type": "bytes32[]"
        }
      ],
      "payable": false,
      "stateMutability": "view",
      "type": "function"
    },
    {
      "constant": true,
      "inputs": [],
      "name": "ENCRYPTION_KEY",
      "outputs": [
        {
          "name": "",
          "type": "uint256"
        }
      ],
      "payable": false,
      "stateMutability": "view",
      "type": "function"
    },
    {
      "constant": true,
      "inputs": [],
      "name": "RESIDENCE_TOPIC",
      "outputs": [
        {
          "name": "",
          "type": "uint256"
        }
      ],
      "payable": false,
      "stateMutability": "view",
      "type": "function"
    },
    {
      "constant": true,
      "inputs": [],
      "name": "managementThreshold",
      "outputs": [
        {
          "name": "",
          "type": "uint256"
        }
      ],
      "payable": false,
      "stateMutability": "view",
      "type": "function"
    },
    {
      "constant": true,
      "inputs": [],
      "name": "PROFILE_TOPIC",
      "outputs": [
        {
          "name": "",
          "type": "uint256"
        }
      ],
      "payable": false,
      "stateMutability": "view",
      "type": "function"
    },
    {
      "constant": true,
      "inputs": [],
      "name": "nonce",
      "outputs": [
        {
          "name": "",
          "type": "uint256"
        }
      ],
      "payable": false,
      "stateMutability": "view",
      "type": "function"
    },
    {
      "constant": true,
      "inputs": [],
      "name": "CUSTOM_KEY",
      "outputs": [
        {
          "name": "",
          "type": "uint256"
        }
      ],
      "payable": false,
      "stateMutability": "view",
      "type": "function"
    },
    {
      "constant": false,
      "inputs": [
        {
          "name": "_topic",
          "type": "uint256"
        },
        {
          "name": "_scheme",
          "type": "uint256"
        },
        {
          "name": "issuer",
          "type": "address"
        },
        {
          "name": "_signature",
          "type": "bytes"
        },
        {
          "name": "_data",
          "type": "bytes"
        },
        {
          "name": "_uri",
          "type": "string"
        }
      ],
      "name": "addClaim",
      "outputs": [
        {
          "name": "claimRequestId",
          "type": "uint256"
        }
      ],
      "payable": false,
      "stateMutability": "nonpayable",
      "type": "function"
    },
    {
      "constant": true,
      "inputs": [],
      "name": "LABEL_TOPIC",
      "outputs": [
        {
          "name": "",
          "type": "uint256"
        }
      ],
      "payable": false,
      "stateMutability": "view",
      "type": "function"
    },
    {
      "constant": false,
      "inputs": [
        {
          "name": "_to",
          "type": "address"
        },
        {
          "name": "_value",
          "type": "uint256"
        },
        {
          "name": "_data",
          "type": "bytes"
        }
      ],
      "name": "execute",
      "outputs": [
        {
          "name": "executionId",
          "type": "uint256"
        }
      ],
      "payable": false,
      "stateMutability": "nonpayable",
      "type": "function"
    },
    {
      "constant": true,
      "inputs": [],
      "name": "RESTORE_KEY",
      "outputs": [
        {
          "name": "",
          "type": "uint256"
        }
      ],
      "payable": false,
      "stateMutability": "view",
      "type": "function"
    },
    {
      "constant": true,
      "inputs": [],
      "name": "ERC735ID",
      "outputs": [
        {
          "name": "",
          "type": "bytes4"
        }
      ],
      "payable": false,
      "stateMutability": "pure",
      "type": "function"
    },
    {
      "constant": true,
      "inputs": [],
      "name": "CLAIM_SIGNER_KEY",
      "outputs": [
        {
          "name": "",
          "type": "uint256"
        }
      ],
      "payable": false,
      "stateMutability": "view",
      "type": "function"
    },
    {
      "constant": true,
      "inputs": [
        {
          "name": "_claimId",
          "type": "bytes32"
        }
      ],
      "name": "getClaim",
      "outputs": [
        {
          "name": "topic",
          "type": "uint256"
        },
        {
          "name": "scheme",
          "type": "uint256"
        },
        {
          "name": "issuer",
          "type": "address"
        },
        {
          "name": "signature",
          "type": "bytes"
        },
        {
          "name": "data",
          "type": "bytes"
        },
        {
          "name": "uri",
          "type": "string"
        }
      ],
      "payable": false,
      "stateMutability": "view",
      "type": "function"
    },
    {
      "constant": true,
      "inputs": [],
      "name": "numKeys",
      "outputs": [
        {
          "name": "",
          "type": "uint256"
        }
      ],
      "payable": false,
      "stateMutability": "view",
      "type": "function"
    },
    {
      "constant": false,
      "inputs": [
        {
          "name": "threshold",
          "type": "uint256"
        }
      ],
      "name": "changeManagementThreshold",
      "outputs": [],
      "payable": false,
      "stateMutability": "nonpayable",
      "type": "function"
    },
    {
      "constant": true,
      "inputs": [
        {
          "name": "_key",
          "type": "bytes32"
        },
        {
          "name": "purpose",
          "type": "uint256"
        }
      ],
      "name": "keyHasPurpose",
      "outputs": [
        {
          "name": "exists",
          "type": "bool"
        }
      ],
      "payable": false,
      "stateMutability": "view",
      "type": "function"
    },
    {
      "constant": true,
      "inputs": [],
      "name": "ASSIST_KEY",
      "outputs": [
        {
          "name": "",
          "type": "uint256"
        }
      ],
      "payable": false,
      "stateMutability": "view",
      "type": "function"
    },
    {
      "constant": false,
      "inputs": [
        {
          "name": "_topic",
          "type": "uint256"
        },
        {
          "name": "_scheme",
          "type": "uint256"
        },
        {
          "name": "issuer",
          "type": "address"
        },
        {
          "name": "_signature",
          "type": "bytes"
        },
        {
          "name": "_data",
          "type": "bytes"
        },
        {
          "name": "_uri",
          "type": "string"
        },
        {
          "name": "_idSignature",
          "type": "bytes"
        }
      ],
      "name": "addClaimByProxy",
      "outputs": [
        {
          "name": "claimRequestId",
          "type": "uint256"
        }
      ],
      "payable": false,
      "stateMutability": "nonpayable",
      "type": "function"
    },
    {
      "constant": false,
      "inputs": [
        {
          "name": "threshold",
          "type": "uint256"
        }
      ],
      "name": "changeActionThreshold",
      "outputs": [],
      "payable": false,
      "stateMutability": "nonpayable",
      "type": "function"
    },
    {
      "constant": true,
      "inputs": [],
      "name": "DELEGATE_KEY",
      "outputs": [
        {
          "name": "",
          "type": "uint256"
        }
      ],
      "payable": false,
      "stateMutability": "view",
      "type": "function"
    },
    {
      "constant": true,
      "inputs": [],
      "name": "RSA_SCHEME",
      "outputs": [
        {
          "name": "",
          "type": "uint256"
        }
      ],
      "payable": false,
      "stateMutability": "view",
      "type": "function"
    },
    {
      "constant": false,
      "inputs": [
        {
          "name": "_recipient",
          "type": "address"
        }
      ],
      "name": "destroyAndSend",
      "outputs": [],
      "payable": false,
      "stateMutability": "nonpayable",
      "type": "function"
    },
    {
      "constant": true,
      "inputs": [],
      "name": "numClaims",
      "outputs": [
        {
          "name": "",
          "type": "uint256"
        }
      ],
      "payable": false,
      "stateMutability": "view",
      "type": "function"
    },
    {
      "inputs": [
        {
          "name": "_managementKey",
          "type": "address"
        }
      ],
      "payable": false,
      "stateMutability": "nonpayable",
      "type": "constructor"
    },
    {
      "payable": true,
      "stateMutability": "payable",
      "type": "fallback"
    },
    {
      "anonymous": false,
      "inputs": [
        {
          "indexed": true,
          "name": "claimRequestId",
          "type": "uint256"
        },
        {
          "indexed": true,
          "name": "topic",
          "type": "uint256"
        },
        {
          "indexed": false,
          "name": "scheme",
          "type": "uint256"
        },
        {
          "indexed": true,
          "name": "issuer",
          "type": "address"
        },
        {
          "indexed": false,
          "name": "signature",
          "type": "bytes"
        },
        {
          "indexed": false,
          "name": "data",
          "type": "bytes"
        },
        {
          "indexed": false,
          "name": "uri",
          "type": "string"
        }
      ],
      "name": "ClaimRequested",
      "type": "event"
    },
    {
      "anonymous": false,
      "inputs": [
        {
          "indexed": true,
          "name": "claimId",
          "type": "bytes32"
        },
        {
          "indexed": true,
          "name": "topic",
          "type": "uint256"
        },
        {
          "indexed": false,
          "name": "scheme",
          "type": "uint256"
        },
        {
          "indexed": true,
          "name": "issuer",
          "type": "address"
        },
        {
          "indexed": false,
          "name": "signature",
          "type": "bytes"
        },
        {
          "indexed": false,
          "name": "data",
          "type": "bytes"
        },
        {
          "indexed": false,
          "name": "uri",
          "type": "string"
        }
      ],
      "name": "ClaimAdded",
      "type": "event"
    },
    {
      "anonymous": false,
      "inputs": [
        {
          "indexed": true,
          "name": "claimId",
          "type": "bytes32"
        },
        {
          "indexed": true,
          "name": "topic",
          "type": "uint256"
        },
        {
          "indexed": false,
          "name": "scheme",
          "type": "uint256"
        },
        {
          "indexed": true,
          "name": "issuer",
          "type": "address"
        },
        {
          "indexed": false,
          "name": "signature",
          "type": "bytes"
        },
        {
          "indexed": false,
          "name": "data",
          "type": "bytes"
        },
        {
          "indexed": false,
          "name": "uri",
          "type": "string"
        }
      ],
      "name": "ClaimRemoved",
      "type": "event"
    },
    {
      "anonymous": false,
      "inputs": [
        {
          "indexed": true,
          "name": "claimId",
          "type": "bytes32"
        },
        {
          "indexed": true,
          "name": "topic",
          "type": "uint256"
        },
        {
          "indexed": false,
          "name": "scheme",
          "type": "uint256"
        },
        {
          "indexed": true,
          "name": "issuer",
          "type": "address"
        },
        {
          "indexed": false,
          "name": "signature",
          "type": "bytes"
        },
        {
          "indexed": false,
          "name": "data",
          "type": "bytes"
        },
        {
          "indexed": false,
          "name": "uri",
          "type": "string"
        }
      ],
      "name": "ClaimChanged",
      "type": "event"
    },
    {
      "anonymous": false,
      "inputs": [
        {
          "indexed": true,
          "name": "key",
          "type": "bytes32"
        },
        {
          "indexed": true,
          "name": "purpose",
          "type": "uint256"
        },
        {
          "indexed": true,
          "name": "keyType",
          "type": "uint256"
        }
      ],
      "name": "KeyAdded",
      "type": "event"
    },
    {
      "anonymous": false,
      "inputs": [
        {
          "indexed": true,
          "name": "key",
          "type": "bytes32"
        },
        {
          "indexed": true,
          "name": "purpose",
          "type": "uint256"
        },
        {
          "indexed": true,
          "name": "keyType",
          "type": "uint256"
        }
      ],
      "name": "KeyRemoved",
      "type": "event"
    },
    {
      "anonymous": false,
      "inputs": [
        {
          "indexed": true,
          "name": "executionId",
          "type": "uint256"
        },
        {
          "indexed": true,
          "name": "to",
          "type": "address"
        },
        {
          "indexed": true,
          "name": "value",
          "type": "uint256"
        },
        {
          "indexed": false,
          "name": "data",
          "type": "bytes"
        }
      ],
      "name": "ExecutionRequested",
      "type": "event"
    },
    {
      "anonymous": false,
      "inputs": [
        {
          "indexed": true,
          "name": "executionId",
          "type": "uint256"
        },
        {
          "indexed": true,
          "name": "to",
          "type": "address"
        },
        {
          "indexed": true,
          "name": "value",
          "type": "uint256"
        },
        {
          "indexed": false,
          "name": "data",
          "type": "bytes"
        }
      ],
      "name": "Executed",
      "type": "event"
    },
    {
      "anonymous": false,
      "inputs": [
        {
          "indexed": true,
          "name": "executionId",
          "type": "uint256"
        },
        {
          "indexed": false,
          "name": "approved",
          "type": "bool"
        }
      ],
      "name": "Approved",
      "type": "event"
    },
    {
      "anonymous": false,
      "inputs": [
        {
          "indexed": true,
          "name": "executionId",
          "type": "uint256"
        },
        {
          "indexed": true,
          "name": "to",
          "type": "address"
        },
        {
          "indexed": true,
          "name": "value",
          "type": "uint256"
        },
        {
          "indexed": false,
          "name": "data",
          "type": "bytes"
        }
      ],
      "name": "ExecutionFailed",
      "type": "event"
    },
    {
      "anonymous": false,
      "inputs": [],
      "name": "LogPause",
      "type": "event"
    },
    {
      "anonymous": false,
      "inputs": [],
      "name": "LogUnpause",
      "type": "event"
    }
  ],
  "bytecode": "0x6080604052600160008190558080556005805460ff191690556007553480156200002857600080fd5b5060405160208062004257833981016040525160006001600682620000556401000000006200022b810204565b7fffffffff0000000000000000000000000000000000000000000000000000000016815260208101919091526040016000908120805460ff191692151592909217909155600190600690620000b26401000000006200024f810204565b7fffffffff0000000000000000000000000000000000000000000000000000000016815260208101919091526040016000908120805460ff1916921515929092179091556001906006906200010f64010000000062000273810204565b7fffffffff000000000000000000000000000000000000000000000000000000001681526020810191909152604001600020805460ff1916911515919091179055620001648264010000000062000297810204565b90506200017d81600180640100000000620002a3810204565b620001958160026001640100000000620002a3810204565b620001ad8160036001640100000000620002a3810204565b60016000818155818055600690620001cd64010000000062000273810204565b620001e06401000000006200024f810204565b187fffffffff000000000000000000000000000000000000000000000000000000001681526020810191909152604001600020805460ff191691151591909117905550620003669050565b7f01ffc9a70000000000000000000000000000000000000000000000000000000090565b7fdc3d2a7b0000000000000000000000000000000000000000000000000000000090565b7f107653790000000000000000000000000000000000000000000000000000000090565b600160a060020a031690565b620002c0600284848464010000000062003c44620002f482021704565b6040518190839085907f480000bb1edad8ca1470381cc334b1917fbd51c6531f3a623ea8e0ec7e38a6e990600090a4505050565b60008381526020858152604082208054600181018255818452919092200183905560028101541515620003305760028101849055600181018290555b50506000908152600180840160209081526040832080548084018255908452922090910191909155600290910180549091019055565b613ee180620003766000396000f3006080604052600436106102635763ffffffff60e060020a60003504166301ffc9a7811461026557806302e7491e1461029b5780630440b43a146102cd578063058b316c146102f457806312aaac7014610309578063190db862146103825780631d203be8146103a65780631d3812401461040f578063251de3e9146102cd578063262b54f51461042d5780632d32d4421461049557806338f4edd4146104aa5780633b8a12c8146104bf5780633f4ba83a1461053957806349991ec8146102f45780634eee424a1461054e57806353d413c5146105665780635c975abb146105815780635d7bc3fc146105965780635dccebba146105ae57806363f14c3c146106655780636e4c431114610686578063710ca550146102f4578063724a4b3b146106a1578063747442d3146106d757806375e5598c146104955780637d96fa58146106f457806382d09446146102f45780638456cb59146107095780639010f7261461071e5780639e140cc814610736578063a550f0c714610495578063aa0a51421461074b578063ae62838614610736578063affed0e014610760578063b132734e14610775578063b1a34e0d1461078a578063b1e9f64c14610872578063b61d27f614610887578063b9133d63146108f0578063bf2f20ad14610905578063c6702187146102cd578063c9100bcb1461091a578063c9d24ecc14610a9d578063ccfe586814610ab2578063d202158d14610aca578063dbfa74b714610872578063e0610ba314610ae5578063e99896b814610c0b578063ead09fab14610c23578063f22d08a614610495578063f5074f4114610c38578063fc0fc84914610c59575b005b34801561027157600080fd5b50610287600160e060020a031960043516610c6e565b604080519115158252519081900360200190f35b3480156102a757600080fd5b506102b0610c8d565b60408051600160e060020a03199092168252519081900360200190f35b3480156102d957600080fd5b506102e2610cb2565b60408051918252519081900360200190f35b34801561030057600080fd5b506102e2610cb7565b34801561031557600080fd5b50610321600435610cbc565b60408051602080820185905291810183905260608082528551908201528451909182916080830191878101910280838360005b8381101561036c578181015183820152602001610354565b5050505090500194505050505060405180910390f35b34801561038e57600080fd5b506102e2600160a060020a0360043516602435610d61565b3480156103b257600080fd5b50604080516020600460443581810135601f81018490048402850184019095528484526102e2948235600160a060020a0316946024803595369594606494920191908190840183828082843750949750610e0e9650505050505050565b34801561041b57600080fd5b50610287600435602435604435610f0e565b34801561043957600080fd5b50610445600435610f67565b60408051602080825283518183015283519192839290830191858101910280838360005b83811015610481578181015183820152602001610469565b505050509050019250505060405180910390f35b3480156104a157600080fd5b506102e2610fca565b3480156104b657600080fd5b506102e2610fcf565b3480156104cb57600080fd5b5060408051602060046024803582810135601f810185900485028601850190965285855261051d958335953695604494919390910191908190840183828082843750949750610fd59650505050505050565b60408051600160a060020a039092168252519081900360200190f35b34801561054557600080fd5b506102636110d8565b34801561055a57600080fd5b50610287600435611131565b34801561057257600080fd5b5061028760043560243561173a565b34801561058d57600080fd5b506102876117d1565b3480156105a257600080fd5b506102876004356117da565b3480156105ba57600080fd5b506105c6600435611b43565b6040518085600160a060020a0316600160a060020a0316815260200184815260200180602001838152602001828103825284818151815260200191508051906020019080838360005b8381101561062757818101518382015260200161060f565b50505050905090810190601f1680156106545780820380516001836020036101000a031916815260200191505b509550505050505060405180910390f35b34801561067157600080fd5b506102e2600160a060020a0360043516611bff565b34801561069257600080fd5b5061051d600435602435611c0b565b3480156106ad57600080fd5b50610287600435600160a060020a0360243516600160e060020a0319604435166064351515611c42565b3480156106e357600080fd5b506102876004356024351515611ca3565b34801561070057600080fd5b506102b0611ffe565b34801561071557600080fd5b50610263612022565b34801561072a57600080fd5b5061044560043561207d565b34801561074257600080fd5b506102e26120de565b34801561075757600080fd5b506102e26120e3565b34801561076c57600080fd5b506102e26120e9565b34801561078157600080fd5b506102e26120ef565b34801561079657600080fd5b50604080516020601f6064356004818101359283018490048402850184019095528184526102e2948035946024803595600160a060020a0360443516953695608494930191819084018382808284375050604080516020601f89358b018035918201839004830284018301909452808352979a99988101979196509182019450925082915084018382808284375050604080516020601f89358b018035918201839004830284018301909452808352979a9998810197919650918201945092508291508401838280828437509497506120f49650505050505050565b34801561087e57600080fd5b506102e26125a5565b34801561089357600080fd5b50604080516020600460443581810135601f81018490048402850184019095528484526102e2948235600160a060020a03169460248035953695946064949201919081908401838280828437509497506125aa9650505050505050565b3480156108fc57600080fd5b506102e26127f7565b34801561091157600080fd5b506102b06127fc565b34801561092657600080fd5b50610932600435612820565b6040518087815260200186815260200185600160a060020a0316600160a060020a03168152602001806020018060200180602001848103845287818151815260200191508051906020019080838360005b8381101561099b578181015183820152602001610983565b50505050905090810190601f1680156109c85780820380516001836020036101000a031916815260200191505b50848103835286518152865160209182019188019080838360005b838110156109fb5781810151838201526020016109e3565b50505050905090810190601f168015610a285780820380516001836020036101000a031916815260200191505b50848103825285518152855160209182019187019080838360005b83811015610a5b578181015183820152602001610a43565b50505050905090810190601f168015610a885780820380516001836020036101000a031916815260200191505b50995050505050505050505060405180910390f35b348015610aa957600080fd5b506102e2612a76565b348015610abe57600080fd5b50610263600435612a7c565b348015610ad657600080fd5b50610287600435602435612acf565b348015610af157600080fd5b50604080516020601f6064356004818101359283018490048402850184019095528184526102e2948035946024803595600160a060020a0360443516953695608494930191819084018382808284375050604080516020601f89358b018035918201839004830284018301909452808352979a99988101979196509182019450925082915084018382808284375050604080516020601f89358b018035918201839004830284018301909452808352979a99988101979196509182019450925082915084018382808284375050604080516020601f89358b018035918201839004830284018301909452808352979a999881019791965091820194509250829150840183828082843750949750612ae39650505050505050565b348015610c1757600080fd5b50610263600435612ef1565b348015610c2f57600080fd5b506102e2612f44565b348015610c4457600080fd5b50610263600160a060020a0360043516612f49565b348015610c6557600080fd5b506102e2612f7d565b600160e060020a03191660009081526006602052604090205460ff1690565b7f01ffc9a7000000000000000000000000000000000000000000000000000000005b90565b600381565b600181565b6060600080610cc9613d01565b60008581526002602090815260409182902082518154608093810282018401909452606081018481529093919284928491840182828015610d2957602002820191906000526020600020905b815481526020019060010190808311610d15575b505050918352505060018201546020808301919091526002909201546040918201528251918301519201519097919650945092505050565b600082826040516020018083600160a060020a0316600160a060020a03166c01000000000000000000000000028152601401828152602001925050506040516020818303038152906040526040518082805190602001908083835b60208310610ddb5780518252601f199092019160209182019101610dbc565b5181516020939093036101000a600019018019909116921691909117905260405192018290039091209695505050505050565b60008383836040516020018084600160a060020a0316600160a060020a03166c0100000000000000000000000002815260140183815260200182805190602001908083835b60208310610e725780518252601f199092019160209182019101610e53565b6001836020036101000a03801982511681845116808217855250505050505090500193505050506040516020818303038152906040526040518082805190602001908083835b60208310610ed75780518252601f199092019160209182019101610eb8565b6001836020036101000a038019825116818451168082178552505050505050905001915050604051809103902090505b9392505050565b6000610f18612f83565b1515610f2357600080fd5b60055460ff1615610f3357600080fd5b610f456002858563ffffffff612fb516565b15610f5257506000610f07565b610f5d848484613099565b5060019392505050565b6000818152600b6020908152604091829020805483518184028101840190945280845260609392830182828015610fbe57602002820191906000526020600020905b81548152600190910190602001808311610fa9575b50505050509050919050565b600281565b60015481565b6000610f07826040805190810160405280601c81526020017f19457468657265756d205369676e6564204d6573736167653a0a333200000000815250856040516020018083805190602001908083835b602083106110445780518252601f199092019160209182019101611025565b51815160209384036101000a600019018019909216911617905292019384525060408051808503815293820190819052835193945092839250908401908083835b602083106110a45780518252601f199092019160209182019101611085565b5181516020939093036101000a60001901801990911692169190911790526040519201829003909120939250506130e09050565b6110e0612f83565b15156110eb57600080fd5b60055460ff1615156110fc57600080fd5b6005805460ff191690556040517f730c1faaa977b67dacf1e2451ef54556e04a07d577785ff79f6d31f73502efc990600090a1565b600061113b613d21565b600554600090819060ff161561115057600080fd5b6000858152600a60205260409020600201548590600160a060020a031680151561117957600080fd5b611181612f83565b1561118b57611264565b33600160a060020a03821614156111a157611264565b6111c26111ac611ffe565b600160a060020a0383169063ffffffff6131b016565b1561125f5780600160a060020a031663d202158d6111df33611bff565b6040805160e060020a63ffffffff85160281526004810192909252600260248301525160448083019260209291908290030181600087803b15801561122357600080fd5b505af1158015611237573d6000803e3d6000fd5b505050506040513d602081101561124d57600080fd5b5051151561125a57600080fd5b611264565b600080fd5b6000878152600a6020908152604091829020825160c0810184528154815260018083015482850152600280840154600160a060020a0316838701526003840180548751601f94821615610100026000190190911692909204928301869004860282018601909652818152919492936060860193919083018282801561132a5780601f106112ff5761010080835404028352916020019161132a565b820191906000526020600020905b81548152906001019060200180831161130d57829003601f168201915b505050918352505060048201805460408051602060026001851615610100026000190190941693909304601f81018490048402820184019092528181529382019392918301828280156113be5780601f10611393576101008083540402835291602001916113be565b820191906000526020600020905b8154815290600101906020018083116113a157829003601f168201915b505050918352505060058201805460408051602060026001851615610100026000190190941693909304601f81018490048402820184019092528181529382019392918301828280156114525780601f1061142757610100808354040283529160200191611452565b820191906000526020600020905b81548152906001019060200180831161143557829003601f168201915b505050919092525050506040810151909550600160a060020a0316151561147857600080fd5b6000878152600a6020526040812081815560018101829055600281018054600160a060020a0319169055906114b06003830182613d61565b6114be600483016000613d61565b6114cc600583016000613d61565b505084516000908152600b60205260408120945092505b835483101561158357835487908590859081106114fc57fe5b60009182526020909120015414156115785783548490600019810190811061152057fe5b9060005260206000200154848481548110151561153957fe5b60009182526020909120015583548490600019810190811061155757fe5b60009182526020822001558354611572856000198301613da8565b50611583565b6001909201916114e3565b600c60008154809291906001900391905055508460400151600160a060020a0316856000015188600019167f3cf57863a89432c61c4a27073c6ee39e8a764bff5a05aebfbcdcdc80b2e6130a886020015189606001518a608001518b60a0015160405180858152602001806020018060200180602001848103845287818151815260200191508051906020019080838360005b8381101561162e578181015183820152602001611616565b50505050905090810190601f16801561165b5780820380516001836020036101000a031916815260200191505b50848103835286518152865160209182019188019080838360005b8381101561168e578181015183820152602001611676565b50505050905090810190601f1680156116bb5780820380516001836020036101000a031916815260200191505b50848103825285518152855160209182019187019080838360005b838110156116ee5781810151838201526020016116d6565b50505050905090810190601f16801561171b5780820380516001836020036101000a031916815260200191505b5097505050505050505060405180910390a45060019695505050505050565b600080611745612f83565b151561175057600080fd5b60055460ff161561176057600080fd5b6117726002858563ffffffff612fb516565b151561178157600091506117ca565b6117936002858563ffffffff61326716565b6040519091508190849086907f585a4aef50f8267a92b32412b331b20f7f8b96f2245b253b9cc50dcc621d339790600090a4600191505b5092915050565b60055460ff1681565b60006117e4613d21565b60055460ff16156117f457600080fd5b6000838152600a60205260409020600201548390600160a060020a031680151561181d57600080fd5b611825612f83565b1561182f576118e8565b33600160a060020a0382161415611845576118e8565b6118506111ac611ffe565b1561125f5780600160a060020a031663d202158d61186d33611bff565b6040805160e060020a63ffffffff85160281526004810192909252600260248301525160448083019260209291908290030181600087803b1580156118b157600080fd5b505af11580156118c5573d6000803e3d6000fd5b505050506040513d60208110156118db57600080fd5b505115156118e857600080fd5b6000858152600a6020908152604091829020825160c0810184528154815260018083015482850152600280840154600160a060020a0316838701526003840180548751601f9482161561010002600019019091169290920492830186900486028201860190965281815291949293606086019391908301828280156119ae5780601f10611983576101008083540402835291602001916119ae565b820191906000526020600020905b81548152906001019060200180831161199157829003601f168201915b505050918352505060048201805460408051602060026001851615610100026000190190941693909304601f8101849004840282018401909252818152938201939291830182828015611a425780601f10611a1757610100808354040283529160200191611a42565b820191906000526020600020905b815481529060010190602001808311611a2557829003601f168201915b505050918352505060058201805460408051602060026001851615610100026000190190941693909304601f8101849004840282018401909252818152938201939291830182828015611ad65780601f10611aab57610100808354040283529160200191611ad6565b820191906000526020600020905b815481529060010190602001808311611ab957829003601f168201915b505050919092525050506040810151909350600160a060020a03161515611afc57600080fd5b611b1d83600001518460200151856040015186606001518760800151613408565b1515611b3657611b2c85611131565b5060009350611b3b565b600193505b505050919050565b60086020908152600091825260409182902080546001808301546002808501805488516101009582161595909502600019011691909104601f8101879004870284018701909752868352600160a060020a03909316959094919291830182828015611bef5780601f10611bc457610100808354040283529160200191611bef565b820191906000526020600020905b815481529060010190602001808311611bd257829003601f168201915b5050505050908060030154905084565b600160a060020a031690565b600960205281600052604060002081815481101515611c2657fe5b600091825260209091200154600160a060020a03169150829050565b6000611c4c612f83565b1515611c5757600080fd5b60055460ff1615611c6757600080fd5b611c7860028663ffffffff61354516565b1515611c8357600080fd5b611c9760028686868663ffffffff6135d716565b50600195945050505050565b60055460009081908190819060ff1615611cbc57600080fd5b851515611cc857600080fd5b60008681526008602052604090208054909350600160a060020a03161515611cef57600080fd5b8254600160a060020a0316301415611d2d57611d1d611d0d33611bff565b600290600163ffffffff612fb516565b1515611d2857600080fd5b611d53565b611d48611d3933611bff565b6002908163ffffffff612fb516565b1515611d5357600080fd5b604080518615158152905187917fb3932da477fe5d6c8ff2eafef050c0f3a1af18fc07121001482600f36f3715d8919081900360200190a260008681526009602052604090209150841515611e9d575060005b8154811015611e945781543390839083908110611dbf57fe5b600091825260209091200154600160a060020a03161415611e8c57815482906000198101908110611dec57fe5b6000918252602090912001548254600160a060020a0390911690839083908110611e1257fe5b60009182526020909120018054600160a060020a031916600160a060020a0392909216919091179055815482906000198101908110611e4d57fe5b60009182526020909120018054600160a060020a03191690558154611e76836000198301613da8565b5060038301805460019081019091559350611ff5565b600101611da6565b60009350611ff5565b5060005b8154811015611ee25781543390839083908110611eba57fe5b600091825260209091200154600160a060020a03161415611eda57600080fd5b600101611ea1565b8154600181018355600083815260209020018054600160a060020a0319163317905560038301805460001901908190551515611ff057604080516080810182528454600160a060020a031681526001808601546020808401919091526002808801805486516101009582161595909502600019011691909104601f81018390048302840183018652808452611fe9958c95948a949186019390929091830182828015611fcf5780601f10611fa457610100808354040283529160200191611fcf565b820191906000526020600020905b815481529060010190602001808311611fb257829003601f168201915b505050505081526020016003820154815250506001613624565b9350611ff5565b600193505b50505092915050565b7fdc3d2a7b0000000000000000000000000000000000000000000000000000000090565b61202a612f83565b151561203557600080fd5b60055460ff161561204557600080fd5b6005805460ff191660011790556040517f4b314b34e912fda7f95e7d23e9c8c95f82f0aff1984e4ce592a0b005f905562490600090a1565b600081815260036020908152604091829020805483518184028101840190945280845260609392830182828015610fbe576020028201919060005260206000209081548152600190910190602001808311610fa95750505050509050919050565b600481565b60005481565b60075481565b600881565b60055460009081908190819060ff161561210d57600080fd5b61211a8a8a8a8a8a613408565b151561212557600080fd5b61212d612f83565b925082151561237b576040517fb61d27f600000000000000000000000000000000000000000000000000000000815230600482018181526000602484018190526060604485019081523660648601819052939463b61d27f694869484939192909190608401848480828437820191505095505050505050602060405180830381600087803b1580156121be57600080fd5b505af11580156121d2573d6000803e3d6000fd5b505050506040513d60208110156121e857600080fd5b8101908080519060200190929190505050935087600160a060020a03168a857fe6b6db97dedfb44cbced367387e40b3f92dbee1b1be87f9367f7b673532b0d698c8b8b8b60405180858152602001806020018060200180602001848103845287818151815260200191508051906020019080838360005b8381101561227757818101518382015260200161225f565b50505050905090810190601f1680156122a45780820380516001836020036101000a031916815260200191505b50848103835286518152865160209182019188019080838360005b838110156122d75781810151838201526020016122bf565b50505050905090810190601f1680156123045780820380516001836020036101000a031916815260200191505b50848103825285518152855160209182019187019080838360005b8381101561233757818101518382015260200161231f565b50505050905090810190601f1680156123645780820380516001836020036101000a031916815260200191505b5097505050505050505060405180910390a4612598565b612385888b610d61565b6000818152600a6020526040902060020154909250600160a060020a031615156123bd576123b8828b8b8b8b8b8b6138a6565b612598565b506000818152600a60209081526040909120600181018a9055875190916123eb9160038401918a0190613dd1565b5085516124019060048301906020890190613dd1565b5084516124179060058301906020880190613dd1565b5087600160a060020a03168a83600019167f3bab293fc00db832d7619a9299914251b8747c036867ec056cbd506f60135b138c8b8b8b60405180858152602001806020018060200180602001848103845287818151815260200191508051906020019080838360005b83811015612498578181015183820152602001612480565b50505050905090810190601f1680156124c55780820380516001836020036101000a031916815260200191505b50848103835286518152865160209182019188019080838360005b838110156124f85781810151838201526020016124e0565b50505050905090810190601f1680156125255780820380516001836020036101000a031916815260200191505b50848103825285518152855160209182019187019080838360005b83811015612558578181015183820152602001612540565b50505050905090810190601f1680156125855780820380516001836020036101000a031916815260200191505b5097505050505050505060405180910390a45b5050509695505050505050565b600581565b60008060006125b7613e4f565b60055460ff16156125c757600080fd5b600160a060020a03871630141561261657333014156125ea576000549250612611565b6125f6611d0d33611bff565b9150811561260b576001600054039250612611565b60005492505b61265c565b600160a060020a038716151561262b57600080fd5b3330141561263d57600154925061265c565b612649611d3933611bff565b151561265457600080fd5b600180540392505b61266b30888888600754613b1e565b93508587600160a060020a0316857f8afcfabcb00e47a53a8fc3e9f23ff47ee1926194bb1350dd007c50b412a6cee8886040518080602001828103825283818151815260200191508051906020019080838360005b838110156126d85781810151838201526020016126c0565b50505050905090810190601f1680156127055780820380516001836020036101000a031916815260200191505b509250505060405180910390a45060078054600101905560408051608081018252600160a060020a0388168152602081018790529081018590526060810183905282151561275f5761275984826000613624565b506127ed565b60008481526008602090815260409182902083518154600160a060020a031916600160a060020a039091161781558382015160018201559183015180518493926127b0926002850192910190613dd1565b50606091909101516003909101556000848152600960209081526040822080546001810182559083529120018054600160a060020a031916331790555b5050509392505050565b600781565b7f107653790000000000000000000000000000000000000000000000000000000090565b60008060006060806060612832613d21565b6000888152600a6020908152604091829020825160c0810184528154815260018083015482850152600280840154600160a060020a0316838701526003840180548751601f9482161561010002600019019091169290920492830186900486028201860190965281815291949293606086019391908301828280156128f85780601f106128cd576101008083540402835291602001916128f8565b820191906000526020600020905b8154815290600101906020018083116128db57829003601f168201915b505050918352505060048201805460408051602060026001851615610100026000190190941693909304601f810184900484028201840190925281815293820193929183018282801561298c5780601f106129615761010080835404028352916020019161298c565b820191906000526020600020905b81548152906001019060200180831161296f57829003601f168201915b505050918352505060058201805460408051602060026001851615610100026000190190941693909304601f8101849004840282018401909252818152938201939291830182828015612a205780601f106129f557610100808354040283529160200191612a20565b820191906000526020600020905b815481529060010190602001808311612a0357829003601f168201915b505050919092525050506040810151909150600160a060020a03161515612a4657600080fd5b8051602082015160408301516060840151608085015160a090950151939c929b5090995097509195509350915050565b60045490565b60055460009060ff1615612a8f57600080fd5b612a97612f83565b1515612aa257600080fd5b60008211612aaf57600080fd5b612ab9600161207d565b51905080821115612ac957600080fd5b50600055565b6000610f076002848463ffffffff612fb516565b60055460009081908190819060ff1615612afc57600080fd5b612b098b8b8b8b8b613408565b1515612b1457600080fd5b612cad8b8b8b8b8b8b6040516020018087815260200186815260200185600160a060020a0316600160a060020a03166c0100000000000000000000000002815260140184805190602001908083835b60208310612b825780518252601f199092019160209182019101612b63565b51815160209384036101000a600019018019909216911617905286519190930192860191508083835b60208310612bca5780518252601f199092019160209182019101612bab565b51815160209384036101000a600019018019909216911617905285519190930192850191508083835b60208310612c125780518252601f199092019160209182019101612bf3565b6001836020036101000a03801982511681845116808217855250505050505090500196505050505050506040516020818303038152906040526040518082805190602001908083835b60208310612c7a5780518252601f199092019160209182019101612c5b565b6001836020036101000a038019825116818451168082178552505050505050905001915050604051809103902086610fd5565b9250612cbb611d0d84611bff565b1515612cc657600080fd5b612cd0898c610d61565b6000818152600a6020526040902060020154909250600160a060020a03161515612d0857612d03828c8c8c8c8c8c6138a6565b612ee3565b506000818152600a60209081526040909120600181018b905588519091612d369160038401918b0190613dd1565b508651612d4c90600483019060208a0190613dd1565b508551612d629060058301906020890190613dd1565b5088600160a060020a03168b83600019167f3bab293fc00db832d7619a9299914251b8747c036867ec056cbd506f60135b138d8c8c8c60405180858152602001806020018060200180602001848103845287818151815260200191508051906020019080838360005b83811015612de3578181015183820152602001612dcb565b50505050905090810190601f168015612e105780820380516001836020036101000a031916815260200191505b50848103835286518152865160209182019188019080838360005b83811015612e43578181015183820152602001612e2b565b50505050905090810190601f168015612e705780820380516001836020036101000a031916815260200191505b50848103825285518152855160209182019187019080838360005b83811015612ea3578181015183820152602001612e8b565b50505050905090810190601f168015612ed05780820380516001836020036101000a031916815260200191505b5097505050505050505060405180910390a45b505050979650505050505050565b60055460009060ff1615612f0457600080fd5b612f0c612f83565b1515612f1757600080fd5b60008211612f2457600080fd5b612f2e600261207d565b51905080821115612f3e57600080fd5b50600155565b600681565b612f51612f83565b1515612f5c57600080fd5b600160a060020a0381161515612f7157600080fd5b80600160a060020a0316ff5b600c5481565b600033301415612f9557506001610caf565b600054600114612fa457600080fd5b612fb0611d0d33611bff565b905090565b6000612fbf613d01565b600084815260208681526040808320815181546080948102820185019093526060810183815290939192849284919084018282801561301d57602002820191906000526020600020905b815481526020019060010190808311613009575b50505091835250506001820154602082015260029091015460409182015281015190925015156130505760009250613090565b5060005b81515181101561309057815180518591908390811061306f57fe5b9060200190602002015114156130885760019250613090565b600101613054565b50509392505050565b6130ac600284848463ffffffff613c4416565b6040518190839085907f480000bb1edad8ca1470381cc334b1917fbd51c6531f3a623ea8e0ec7e38a6e990600090a4505050565b600080600080845160411415156130fa5760009350611ff5565b50505060208201516040830151606084015160001a601b60ff8216101561311f57601b015b8060ff16601b1415801561313757508060ff16601c14155b156131455760009350611ff5565b60408051600080825260208083018085528a905260ff8516838501526060830187905260808301869052925160019360a0808501949193601f19840193928390039091019190865af115801561319f573d6000803e3d6000fd5b505050602060405103519350611ff5565b600080806131de857f01ffc9a700000000000000000000000000000000000000000000000000000000613cb5565b90925090508115806131ee575080155b156131fc576000925061325f565b61320e85600160e060020a0319613cb5565b909250905081158061321f57508015155b1561322d576000925061325f565b6132378585613cb5565b909250905060018214801561324c5750806001145b1561325a576001925061325f565b600092505b505092915050565b6000828152602084905260408120600181015491805b82548210156133275784838381548110151561329557fe5b9060005260206000200154141561331c578254839060001981019081106132b857fe5b906000526020600020015483838154811015156132d157fe5b6000918252602090912001558254839060001981019081106132ef57fe5b6000918252602082200155825461330a846000198301613da8565b50600287018054600019019055613327565b60019091019061327d565b82541515613359576000868152602088905260408120906133488282613e81565b506000600182018190556002909101555b5050600083815260018601602052604081205b80548210156127ed578054869082908490811061338557fe5b60009182526020909120015414156133fd578054819060001981019081106133a957fe5b906000526020600020015481838154811015156133c257fe5b6000918252602090912001558054819060001981019081106133e057fe5b600091825260208220015580546133fb826000198301613da8565b505b60019091019061336c565b600080600186141561353657613428613422308986610e0e565b85610fd5565b905080600160a060020a031685600160a060020a0316141561344d576001915061353b565b600160a060020a0385163014156134815761347a61346a82611bff565b600290600363ffffffff612fb516565b915061353b565b6134a261348c611ffe565b600160a060020a0387169063ffffffff6131b016565b156135365784600160a060020a031663d202158d6134bf83611bff565b6040805160e060020a63ffffffff85160281526004810192909252600360248301525160448083019260209291908290030181600087803b15801561350357600080fd5b505af1158015613517573d6000803e3d6000fd5b505050506040513d602081101561352d57600080fd5b5051915061353b565b600091505b5095945050505050565b600061354f613d01565b60008381526020858152604091829020825181546080938102820184019094526060810184815290939192849284918401828280156135ad57602002820191906000526020600020905b815481526020019060010190808311613599575b50505091835250506001820154602082015260029091015460409182015201511515949350505050565b600093845260209485526040808520600160a060020a03909416855260039093018552828420600160e060020a0319909216845293528120805492151560ff199093169290921790915590565b81516000908190600160a060020a0316151561363f57600080fd5b8360000151600160a060020a03168460200151856040015160405180828051906020019080838360005b83811015613681578181015183820152602001613669565b50505050905090810190601f1680156136ae5780820380516001836020036101000a031916815260200191505b5091505060006040518083038185875af19250505090508015156137865783602001518460000151600160a060020a0316867fe10c49d9f7c71da23262367013434763cfdb2332267641728d25cd712c5c6a6887604001516040518080602001828103825283818151815260200191508051906020019080838360005b8381101561374357818101518382015260200161372b565b50505050905090810190601f1680156137705780820380516001836020036101000a031916815260200191505b509250505060405180910390a46000915061389e565b83602001518460000151600160a060020a0316867f1f920dbda597d7bf95035464170fa58d0a4b57f13a1c315ace6793b9f63688b887604001516040518080602001828103825283818151815260200191508051906020019080838360005b838110156137fd5781810151838201526020016137e5565b50505050905090810190601f16801561382a5780820380516001836020036101000a031916815260200191505b509250505060405180910390a4821515613847576001915061389e565b60008581526008602052604081208054600160a060020a031916815560018101829055906138786002830182613d61565b50600060039190910181905585815260096020526040812061389991613e81565b600191505b509392505050565b6040805160c0810182528781526020808201888152600160a060020a03888116848601908152606085018981526080860189905260a0860188905260008e8152600a865296909620855181559251600184015551600283018054600160a060020a03191691909216179055925180519293926139289260038501920190613dd1565b5060808201518051613944916004840191602090910190613dd1565b5060a08201518051613960916005840191602090910190613dd1565b5050506000868152600b60209081526040808320805460018181018355918552838520018b9055600c80549091019055805188815260808184018181528851918301919091528751600160a060020a038a16958c958e957f46149b18aa084502c3f12bc75e19eda8bda8d102b82cce8474677a6d0d5f43c5958e958d958d958d959394929392850192606086019260a0870192918a01918190849084905b83811015613a165781810151838201526020016139fe565b50505050905090810190601f168015613a435780820380516001836020036101000a031916815260200191505b50848103835286518152865160209182019188019080838360005b83811015613a76578181015183820152602001613a5e565b50505050905090810190601f168015613aa35780820380516001836020036101000a031916815260200191505b50848103825285518152855160209182019187019080838360005b83811015613ad6578181015183820152602001613abe565b50505050905090810190601f168015613b035780820380516001836020036101000a031916815260200191505b5097505050505050505060405180910390a450505050505050565b600085858585856040516020018086600160a060020a0316600160a060020a03166c0100000000000000000000000002815260140185600160a060020a0316600160a060020a03166c0100000000000000000000000002815260140184815260200183805190602001908083835b60208310613bab5780518252601f199092019160209182019101613b8c565b51815160209384036101000a600019018019909216911617905292019384525060408051808503815293820190819052835193975095508594508601925081905083835b60208310613c0e5780518252601f199092019160209182019101613bef565b5181516020939093036101000a600019018019909116921691909117905260405192018290039091209998505050505050505050565b60008381526020858152604082208054600181018255818452919092200183905560028101541515613c7f5760028101849055600181018290555b50506000908152600180840160209081526040832080548084018255908452922090910191909155600290910180549091019055565b6040517f01ffc9a70000000000000000000000000000000000000000000000000000000080825260048201839052600091829190602081818189617530fa905190969095509350505050565b604080516060818101835281526000602082018190529181019190915290565b60c06040519081016040528060008152602001600081526020016000600160a060020a031681526020016060815260200160608152602001606081525090565b50805460018160011615610100020316600290046000825580601f10613d875750613da5565b601f016020900490600052602060002090810190613da59190613e9b565b50565b815481835581811115613dcc57600083815260209020613dcc918101908301613e9b565b505050565b828054600181600116156101000203166002900490600052602060002090601f016020900481019282601f10613e1257805160ff1916838001178555613e3f565b82800160010185558215613e3f579182015b82811115613e3f578251825591602001919060010190613e24565b50613e4b929150613e9b565b5090565b6080604051908101604052806000600160a060020a031681526020016000815260200160608152602001600081525090565b5080546000825590600052602060002090810190613da591905b610caf91905b80821115613e4b5760008155600101613ea15600a165627a7a7230582026ed562f7fa2ee25843e91627d5eab0c5af98ccd7d0cc82172e21792c941b4630029",
  "source": "pragma solidity ^0.4.24;\n\nimport \"./Destructible.sol\";\nimport \"./ERC735.sol\";\nimport \"./KeyGetters.sol\";\nimport \"./KeyManager.sol\";\nimport \"./MultiSig.sol\";\nimport \"./ClaimManager.sol\";\nimport \"./Slice.sol\";\n\n/// @title MetaIdentity\n/// @author Metadium, genie\n/// @notice Identity contract implementing ERC 725, ERC 735 and Metadium features.\n\ncontract MetaIdentity is KeyManager, MultiSig, ClaimManager, Destructible, KeyGetters {\n    using Slice for bytes;\n    using Slice for string;\n\n    /// @dev Constructor for Identity contract. If no initial keys are passed then\n    ///  `msg.sender` is used as an initial MANAGEMENT_KEY, ACTION_KEY and CLAIM_SIGNER_KEY\n    constructor(address _managementKey)\n    public {\n\n        bytes32 senderKey = addrToKey(_managementKey);\n        \n        // Add key that deployed the contract for MANAGEMENT, ACTION, CLAIM\n        _addKey(senderKey, MANAGEMENT_KEY, ECDSA_TYPE);\n        _addKey(senderKey, ACTION_KEY, ECDSA_TYPE);\n        _addKey(senderKey, CLAIM_SIGNER_KEY, ECDSA_TYPE);\n        \n        managementThreshold = 1;\n        actionThreshold = 1;\n\n        // Supports both ERC 725 & 735\n        supportedInterfaces[ERC725ID() ^ ERC735ID()] = true;\n    }\n\n    // Fallback function accepts Ether transactions\n    // solhint-disable-next-line no-empty-blocks\n    function () external payable {\n    }\n\n}",
  "sourcePath": "/Users/coinplug/BangGijin/metabolics2.0/contracts/identity/MetaIdentity.sol",
  "compiler": {
    "name": "solc",
    "version": "0.4.24+commit.e67f0147.Emscripten.clang"
  },
  "schemaVersion": "2.0.1",
  "updatedAt": "2018-10-10T02:06:05.547Z"
}