{
  "contractName": "MetaIdentity",
  "abi": [
    {
      "constant": true,
      "inputs": [
        {
          "name": "interfaceID",
          "type": "bytes4"
        }
      ],
      "name": "supportsInterface",
      "outputs": [
        {
          "name": "",
          "type": "bool"
        }
      ],
      "payable": false,
      "stateMutability": "view",
      "type": "function"
    },
    {
      "constant": true,
      "inputs": [],
      "name": "ERC165ID",
      "outputs": [
        {
          "name": "",
          "type": "bytes4"
        }
      ],
      "payable": false,
      "stateMutability": "pure",
      "type": "function"
    },
    {
      "constant": true,
      "inputs": [],
      "name": "REGISTRY_TOPIC",
      "outputs": [
        {
          "name": "",
          "type": "uint256"
        }
      ],
      "payable": false,
      "stateMutability": "view",
      "type": "function"
    },
    {
      "constant": true,
      "inputs": [],
      "name": "MANAGEMENT_KEY",
      "outputs": [
        {
          "name": "",
          "type": "uint256"
        }
      ],
      "payable": false,
      "stateMutability": "view",
      "type": "function"
    },
    {
      "constant": true,
      "inputs": [
        {
          "name": "_key",
          "type": "bytes32"
        }
      ],
      "name": "getKey",
      "outputs": [
        {
          "name": "purposes",
          "type": "uint256[]"
        },
        {
          "name": "keyType",
          "type": "uint256"
        },
        {
          "name": "key",
          "type": "bytes32"
        }
      ],
      "payable": false,
      "stateMutability": "view",
      "type": "function"
    },
    {
      "constant": true,
      "inputs": [
        {
          "name": "issuer",
          "type": "address"
        },
        {
          "name": "topic",
          "type": "uint256"
        }
      ],
      "name": "getClaimId",
      "outputs": [
        {
          "name": "",
          "type": "bytes32"
        }
      ],
      "payable": false,
      "stateMutability": "pure",
      "type": "function"
    },
    {
      "constant": true,
      "inputs": [
        {
          "name": "subject",
          "type": "address"
        },
        {
          "name": "topic",
          "type": "uint256"
        },
        {
          "name": "data",
          "type": "bytes"
        }
      ],
      "name": "claimToSign",
      "outputs": [
        {
          "name": "",
          "type": "bytes32"
        }
      ],
      "payable": false,
      "stateMutability": "pure",
      "type": "function"
    },
    {
      "constant": false,
      "inputs": [
        {
          "name": "_key",
          "type": "bytes32"
        },
        {
          "name": "_purpose",
          "type": "uint256"
        },
        {
          "name": "_keyType",
          "type": "uint256"
        }
      ],
      "name": "addKey",
      "outputs": [
        {
          "name": "success",
          "type": "bool"
        }
      ],
      "payable": false,
      "stateMutability": "nonpayable",
      "type": "function"
    },
    {
      "constant": true,
      "inputs": [
        {
          "name": "_claimId",
          "type": "bytes32"
        }
      ],
      "name": "isClaimExist",
      "outputs": [
        {
          "name": "",
          "type": "bool"
        }
      ],
      "payable": false,
      "stateMutability": "view",
      "type": "function"
    },
    {
      "constant": true,
      "inputs": [],
      "name": "CONTRACT_SCHEME",
      "outputs": [
        {
          "name": "",
          "type": "uint256"
        }
      ],
      "payable": false,
      "stateMutability": "view",
      "type": "function"
    },
    {
      "constant": true,
      "inputs": [
        {
          "name": "_topic",
          "type": "uint256"
        }
      ],
      "name": "getClaimIdsByType",
      "outputs": [
        {
          "name": "claimIds",
          "type": "bytes32[]"
        }
      ],
      "payable": false,
      "stateMutability": "view",
      "type": "function"
    },
    {
      "constant": true,
      "inputs": [],
      "name": "RSA_TYPE",
      "outputs": [
        {
          "name": "",
          "type": "uint256"
        }
      ],
      "payable": false,
      "stateMutability": "view",
      "type": "function"
    },
    {
      "constant": true,
      "inputs": [],
      "name": "getTransactionCount",
      "outputs": [
        {
          "name": "",
          "type": "uint256"
        }
      ],
      "payable": false,
      "stateMutability": "view",
      "type": "function"
    },
    {
      "constant": true,
      "inputs": [],
      "name": "actionThreshold",
      "outputs": [
        {
          "name": "",
          "type": "uint256"
        }
      ],
      "payable": false,
      "stateMutability": "view",
      "type": "function"
    },
    {
      "constant": true,
      "inputs": [
        {
          "name": "toSign",
          "type": "bytes32"
        },
        {
          "name": "signature",
          "type": "bytes"
        }
      ],
      "name": "getSignatureAddress",
      "outputs": [
        {
          "name": "",
          "type": "address"
        }
      ],
      "payable": false,
      "stateMutability": "pure",
      "type": "function"
    },
    {
      "constant": false,
      "inputs": [],
      "name": "unpause",
      "outputs": [],
      "payable": false,
      "stateMutability": "nonpayable",
      "type": "function"
    },
    {
      "constant": true,
      "inputs": [],
      "name": "ECDSA_TYPE",
      "outputs": [
        {
          "name": "",
          "type": "uint256"
        }
      ],
      "payable": false,
      "stateMutability": "view",
      "type": "function"
    },
    {
      "constant": false,
      "inputs": [
        {
          "name": "_to",
          "type": "address"
        },
        {
          "name": "_value",
          "type": "uint256"
        },
        {
          "name": "_data",
          "type": "bytes"
        },
        {
          "name": "_nonce",
          "type": "uint256"
        },
        {
          "name": "_sig",
          "type": "bytes"
        }
      ],
      "name": "delegatedExecute",
      "outputs": [
        {
          "name": "executionId",
          "type": "uint256"
        }
      ],
      "payable": false,
      "stateMutability": "nonpayable",
      "type": "function"
    },
    {
      "constant": false,
      "inputs": [
        {
          "name": "_claimId",
          "type": "bytes32"
        }
      ],
      "name": "removeClaim",
      "outputs": [
        {
          "name": "success",
          "type": "bool"
        }
      ],
      "payable": false,
      "stateMutability": "nonpayable",
      "type": "function"
    },
    {
      "constant": false,
      "inputs": [
        {
          "name": "_key",
          "type": "bytes32"
        },
        {
          "name": "_purpose",
          "type": "uint256"
        }
      ],
      "name": "removeKey",
      "outputs": [
        {
          "name": "success",
          "type": "bool"
        }
      ],
      "payable": false,
      "stateMutability": "nonpayable",
      "type": "function"
    },
    {
      "constant": true,
      "inputs": [],
      "name": "paused",
      "outputs": [
        {
          "name": "",
          "type": "bool"
        }
      ],
      "payable": false,
      "stateMutability": "view",
      "type": "function"
    },
    {
      "constant": false,
      "inputs": [
        {
          "name": "_claimId",
          "type": "bytes32"
        }
      ],
      "name": "refreshClaim",
      "outputs": [
        {
          "name": "",
          "type": "bool"
        }
      ],
      "payable": false,
      "stateMutability": "nonpayable",
      "type": "function"
    },
    {
      "constant": true,
      "inputs": [
        {
          "name": "",
          "type": "uint256"
        }
      ],
      "name": "execution",
      "outputs": [
        {
          "name": "to",
          "type": "address"
        },
        {
          "name": "value",
          "type": "uint256"
        },
        {
          "name": "data",
          "type": "bytes"
        },
        {
          "name": "needsApprove",
          "type": "uint256"
        }
      ],
      "payable": false,
      "stateMutability": "view",
      "type": "function"
    },
    {
      "constant": true,
      "inputs": [
        {
          "name": "addr",
          "type": "address"
        }
      ],
      "name": "addrToKey",
      "outputs": [
        {
          "name": "",
          "type": "bytes32"
        }
      ],
      "payable": false,
      "stateMutability": "pure",
      "type": "function"
    },
    {
      "constant": true,
      "inputs": [
        {
          "name": "",
          "type": "uint256"
        },
        {
          "name": "",
          "type": "uint256"
        }
      ],
      "name": "approved",
      "outputs": [
        {
          "name": "",
          "type": "address"
        }
      ],
      "payable": false,
      "stateMutability": "view",
      "type": "function"
    },
    {
      "constant": true,
      "inputs": [],
      "name": "METAID_TOPIC",
      "outputs": [
        {
          "name": "",
          "type": "uint256"
        }
      ],
      "payable": false,
      "stateMutability": "view",
      "type": "function"
    },
    {
      "constant": false,
      "inputs": [
        {
          "name": "_key",
          "type": "bytes32"
        },
        {
          "name": "_to",
          "type": "address"
        },
        {
          "name": "_func",
          "type": "bytes4"
        },
        {
          "name": "_executable",
          "type": "bool"
        }
      ],
      "name": "setFunc",
      "outputs": [
        {
          "name": "success",
          "type": "bool"
        }
      ],
      "payable": false,
      "stateMutability": "nonpayable",
      "type": "function"
    },
    {
      "constant": false,
      "inputs": [
        {
          "name": "_id",
          "type": "uint256"
        },
        {
          "name": "_approve",
          "type": "bool"
        }
      ],
      "name": "approve",
      "outputs": [
        {
          "name": "success",
          "type": "bool"
        }
      ],
      "payable": false,
      "stateMutability": "nonpayable",
      "type": "function"
    },
    {
      "constant": true,
      "inputs": [],
      "name": "ACTION_KEY",
      "outputs": [
        {
          "name": "",
          "type": "uint256"
        }
      ],
      "payable": false,
      "stateMutability": "view",
      "type": "function"
    },
    {
      "constant": true,
      "inputs": [
        {
          "name": "_key",
          "type": "bytes32"
        },
        {
          "name": "_to",
          "type": "address"
        },
        {
          "name": "_func",
          "type": "bytes4"
        }
      ],
      "name": "keyCanExecute",
      "outputs": [
        {
          "name": "executable",
          "type": "bool"
        }
      ],
      "payable": false,
      "stateMutability": "view",
      "type": "function"
    },
    {
      "constant": true,
      "inputs": [],
      "name": "ERC725ID",
      "outputs": [
        {
          "name": "",
          "type": "bytes4"
        }
      ],
      "payable": false,
      "stateMutability": "pure",
      "type": "function"
    },
    {
      "constant": true,
      "inputs": [],
      "name": "ECDSA_SCHEME",
      "outputs": [
        {
          "name": "",
          "type": "uint256"
        }
      ],
      "payable": false,
      "stateMutability": "view",
      "type": "function"
    },
    {
      "constant": false,
      "inputs": [],
      "name": "pause",
      "outputs": [],
      "payable": false,
      "stateMutability": "nonpayable",
      "type": "function"
    },
    {
      "constant": true,
      "inputs": [
        {
          "name": "_purpose",
          "type": "uint256"
        }
      ],
      "name": "getKeysByPurpose",
      "outputs": [
        {
          "name": "keys",
          "type": "bytes32[]"
        }
      ],
      "payable": false,
      "stateMutability": "view",
      "type": "function"
    },
    {
      "constant": true,
      "inputs": [],
      "name": "ENCRYPTION_KEY",
      "outputs": [
        {
          "name": "",
          "type": "uint256"
        }
      ],
      "payable": false,
      "stateMutability": "view",
      "type": "function"
    },
    {
      "constant": true,
      "inputs": [],
      "name": "RESIDENCE_TOPIC",
      "outputs": [
        {
          "name": "",
          "type": "uint256"
        }
      ],
      "payable": false,
      "stateMutability": "view",
      "type": "function"
    },
    {
      "constant": true,
      "inputs": [],
      "name": "managementThreshold",
      "outputs": [
        {
          "name": "",
          "type": "uint256"
        }
      ],
      "payable": false,
      "stateMutability": "view",
      "type": "function"
    },
    {
      "constant": true,
      "inputs": [],
      "name": "PROFILE_TOPIC",
      "outputs": [
        {
          "name": "",
          "type": "uint256"
        }
      ],
      "payable": false,
      "stateMutability": "view",
      "type": "function"
    },
    {
      "constant": true,
      "inputs": [],
      "name": "nonce",
      "outputs": [
        {
          "name": "",
          "type": "uint256"
        }
      ],
      "payable": false,
      "stateMutability": "view",
      "type": "function"
    },
    {
      "constant": true,
      "inputs": [],
      "name": "CUSTOM_KEY",
      "outputs": [
        {
          "name": "",
          "type": "uint256"
        }
      ],
      "payable": false,
      "stateMutability": "view",
      "type": "function"
    },
    {
      "constant": false,
      "inputs": [
        {
          "name": "_topic",
          "type": "uint256"
        },
        {
          "name": "_scheme",
          "type": "uint256"
        },
        {
          "name": "issuer",
          "type": "address"
        },
        {
          "name": "_signature",
          "type": "bytes"
        },
        {
          "name": "_data",
          "type": "bytes"
        },
        {
          "name": "_uri",
          "type": "string"
        }
      ],
      "name": "addClaim",
      "outputs": [
        {
          "name": "claimRequestId",
          "type": "uint256"
        }
      ],
      "payable": false,
      "stateMutability": "nonpayable",
      "type": "function"
    },
    {
      "constant": true,
      "inputs": [],
      "name": "LABEL_TOPIC",
      "outputs": [
        {
          "name": "",
          "type": "uint256"
        }
      ],
      "payable": false,
      "stateMutability": "view",
      "type": "function"
    },
    {
      "constant": false,
      "inputs": [
        {
          "name": "_to",
          "type": "address"
        },
        {
          "name": "_value",
          "type": "uint256"
        },
        {
          "name": "_data",
          "type": "bytes"
        }
      ],
      "name": "execute",
      "outputs": [
        {
          "name": "executionId",
          "type": "uint256"
        }
      ],
      "payable": false,
      "stateMutability": "nonpayable",
      "type": "function"
    },
    {
      "constant": true,
      "inputs": [],
      "name": "RESTORE_KEY",
      "outputs": [
        {
          "name": "",
          "type": "uint256"
        }
      ],
      "payable": false,
      "stateMutability": "view",
      "type": "function"
    },
    {
      "constant": true,
      "inputs": [],
      "name": "ERC735ID",
      "outputs": [
        {
          "name": "",
          "type": "bytes4"
        }
      ],
      "payable": false,
      "stateMutability": "pure",
      "type": "function"
    },
    {
      "constant": true,
      "inputs": [
        {
          "name": "b",
          "type": "bytes"
        }
      ],
      "name": "getFunctionSignature",
      "outputs": [
        {
          "name": "",
          "type": "bytes4"
        }
      ],
      "payable": false,
      "stateMutability": "pure",
      "type": "function"
    },
    {
      "constant": true,
      "inputs": [],
      "name": "CLAIM_SIGNER_KEY",
      "outputs": [
        {
          "name": "",
          "type": "uint256"
        }
      ],
      "payable": false,
      "stateMutability": "view",
      "type": "function"
    },
    {
      "constant": true,
      "inputs": [
        {
          "name": "_claimId",
          "type": "bytes32"
        }
      ],
      "name": "getClaim",
      "outputs": [
        {
          "name": "topic",
          "type": "uint256"
        },
        {
          "name": "scheme",
          "type": "uint256"
        },
        {
          "name": "issuer",
          "type": "address"
        },
        {
          "name": "signature",
          "type": "bytes"
        },
        {
          "name": "data",
          "type": "bytes"
        },
        {
          "name": "uri",
          "type": "string"
        }
      ],
      "payable": false,
      "stateMutability": "view",
      "type": "function"
    },
    {
      "constant": true,
      "inputs": [],
      "name": "numKeys",
      "outputs": [
        {
          "name": "",
          "type": "uint256"
        }
      ],
      "payable": false,
      "stateMutability": "view",
      "type": "function"
    },
    {
      "constant": false,
      "inputs": [
        {
          "name": "threshold",
          "type": "uint256"
        }
      ],
      "name": "changeManagementThreshold",
      "outputs": [],
      "payable": false,
      "stateMutability": "nonpayable",
      "type": "function"
    },
    {
      "constant": true,
      "inputs": [
        {
          "name": "_key",
          "type": "bytes32"
        },
        {
          "name": "purpose",
          "type": "uint256"
        }
      ],
      "name": "keyHasPurpose",
      "outputs": [
        {
          "name": "exists",
          "type": "bool"
        }
      ],
      "payable": false,
      "stateMutability": "view",
      "type": "function"
    },
    {
      "constant": true,
      "inputs": [],
      "name": "ASSIST_KEY",
      "outputs": [
        {
          "name": "",
          "type": "uint256"
        }
      ],
      "payable": false,
      "stateMutability": "view",
      "type": "function"
    },
    {
      "constant": false,
      "inputs": [
        {
          "name": "_topic",
          "type": "uint256"
        },
        {
          "name": "_scheme",
          "type": "uint256"
        },
        {
          "name": "issuer",
          "type": "address"
        },
        {
          "name": "_signature",
          "type": "bytes"
        },
        {
          "name": "_data",
          "type": "bytes"
        },
        {
          "name": "_uri",
          "type": "string"
        },
        {
          "name": "_idSignature",
          "type": "bytes"
        }
      ],
      "name": "addClaimByProxy",
      "outputs": [
        {
          "name": "success",
          "type": "bool"
        }
      ],
      "payable": false,
      "stateMutability": "nonpayable",
      "type": "function"
    },
    {
      "constant": false,
      "inputs": [
        {
          "name": "threshold",
          "type": "uint256"
        }
      ],
      "name": "changeActionThreshold",
      "outputs": [],
      "payable": false,
      "stateMutability": "nonpayable",
      "type": "function"
    },
    {
      "constant": true,
      "inputs": [],
      "name": "DELEGATE_KEY",
      "outputs": [
        {
          "name": "",
          "type": "uint256"
        }
      ],
      "payable": false,
      "stateMutability": "view",
      "type": "function"
    },
    {
      "constant": true,
      "inputs": [],
      "name": "RSA_SCHEME",
      "outputs": [
        {
          "name": "",
          "type": "uint256"
        }
      ],
      "payable": false,
      "stateMutability": "view",
      "type": "function"
    },
    {
      "constant": false,
      "inputs": [
        {
          "name": "_recipient",
          "type": "address"
        }
      ],
      "name": "destroyAndSend",
      "outputs": [],
      "payable": false,
      "stateMutability": "nonpayable",
      "type": "function"
    },
    {
      "constant": true,
      "inputs": [],
      "name": "numClaims",
      "outputs": [
        {
          "name": "",
          "type": "uint256"
        }
      ],
      "payable": false,
      "stateMutability": "view",
      "type": "function"
    },
    {
      "inputs": [
        {
          "name": "_managementKey",
          "type": "address"
        }
      ],
      "payable": false,
      "stateMutability": "nonpayable",
      "type": "constructor"
    },
    {
      "payable": true,
      "stateMutability": "payable",
      "type": "fallback"
    },
    {
      "anonymous": false,
      "inputs": [
        {
          "indexed": true,
          "name": "claimRequestId",
          "type": "uint256"
        },
        {
          "indexed": true,
          "name": "topic",
          "type": "uint256"
        },
        {
          "indexed": false,
          "name": "scheme",
          "type": "uint256"
        },
        {
          "indexed": true,
          "name": "issuer",
          "type": "address"
        },
        {
          "indexed": false,
          "name": "signature",
          "type": "bytes"
        },
        {
          "indexed": false,
          "name": "data",
          "type": "bytes"
        },
        {
          "indexed": false,
          "name": "uri",
          "type": "string"
        }
      ],
      "name": "ClaimRequested",
      "type": "event"
    },
    {
      "anonymous": false,
      "inputs": [
        {
          "indexed": true,
          "name": "claimId",
          "type": "bytes32"
        },
        {
          "indexed": true,
          "name": "topic",
          "type": "uint256"
        },
        {
          "indexed": false,
          "name": "scheme",
          "type": "uint256"
        },
        {
          "indexed": true,
          "name": "issuer",
          "type": "address"
        },
        {
          "indexed": false,
          "name": "signature",
          "type": "bytes"
        },
        {
          "indexed": false,
          "name": "data",
          "type": "bytes"
        },
        {
          "indexed": false,
          "name": "uri",
          "type": "string"
        }
      ],
      "name": "ClaimAdded",
      "type": "event"
    },
    {
      "anonymous": false,
      "inputs": [
        {
          "indexed": true,
          "name": "claimId",
          "type": "bytes32"
        },
        {
          "indexed": true,
          "name": "topic",
          "type": "uint256"
        },
        {
          "indexed": false,
          "name": "scheme",
          "type": "uint256"
        },
        {
          "indexed": true,
          "name": "issuer",
          "type": "address"
        },
        {
          "indexed": false,
          "name": "signature",
          "type": "bytes"
        },
        {
          "indexed": false,
          "name": "data",
          "type": "bytes"
        },
        {
          "indexed": false,
          "name": "uri",
          "type": "string"
        }
      ],
      "name": "ClaimRemoved",
      "type": "event"
    },
    {
      "anonymous": false,
      "inputs": [
        {
          "indexed": true,
          "name": "claimId",
          "type": "bytes32"
        },
        {
          "indexed": true,
          "name": "topic",
          "type": "uint256"
        },
        {
          "indexed": false,
          "name": "scheme",
          "type": "uint256"
        },
        {
          "indexed": true,
          "name": "issuer",
          "type": "address"
        },
        {
          "indexed": false,
          "name": "signature",
          "type": "bytes"
        },
        {
          "indexed": false,
          "name": "data",
          "type": "bytes"
        },
        {
          "indexed": false,
          "name": "uri",
          "type": "string"
        }
      ],
      "name": "ClaimChanged",
      "type": "event"
    },
    {
      "anonymous": false,
      "inputs": [
        {
          "indexed": true,
          "name": "key",
          "type": "bytes32"
        },
        {
          "indexed": true,
          "name": "purpose",
          "type": "uint256"
        },
        {
          "indexed": true,
          "name": "keyType",
          "type": "uint256"
        }
      ],
      "name": "KeyAdded",
      "type": "event"
    },
    {
      "anonymous": false,
      "inputs": [
        {
          "indexed": true,
          "name": "key",
          "type": "bytes32"
        },
        {
          "indexed": true,
          "name": "purpose",
          "type": "uint256"
        },
        {
          "indexed": true,
          "name": "keyType",
          "type": "uint256"
        }
      ],
      "name": "KeyRemoved",
      "type": "event"
    },
    {
      "anonymous": false,
      "inputs": [
        {
          "indexed": true,
          "name": "executionId",
          "type": "uint256"
        },
        {
          "indexed": true,
          "name": "to",
          "type": "address"
        },
        {
          "indexed": true,
          "name": "value",
          "type": "uint256"
        },
        {
          "indexed": false,
          "name": "data",
          "type": "bytes"
        }
      ],
      "name": "ExecutionRequested",
      "type": "event"
    },
    {
      "anonymous": false,
      "inputs": [
        {
          "indexed": true,
          "name": "executionId",
          "type": "uint256"
        },
        {
          "indexed": true,
          "name": "to",
          "type": "address"
        },
        {
          "indexed": true,
          "name": "value",
          "type": "uint256"
        },
        {
          "indexed": false,
          "name": "data",
          "type": "bytes"
        }
      ],
      "name": "Executed",
      "type": "event"
    },
    {
      "anonymous": false,
      "inputs": [
        {
          "indexed": true,
          "name": "executionId",
          "type": "uint256"
        },
        {
          "indexed": false,
          "name": "approved",
          "type": "bool"
        }
      ],
      "name": "Approved",
      "type": "event"
    },
    {
      "anonymous": false,
      "inputs": [
        {
          "indexed": true,
          "name": "executionId",
          "type": "uint256"
        },
        {
          "indexed": true,
          "name": "to",
          "type": "address"
        },
        {
          "indexed": true,
          "name": "value",
          "type": "uint256"
        },
        {
          "indexed": false,
          "name": "data",
          "type": "bytes"
        }
      ],
      "name": "ExecutionFailed",
      "type": "event"
    },
    {
      "anonymous": false,
      "inputs": [],
      "name": "LogPause",
      "type": "event"
    },
    {
      "anonymous": false,
      "inputs": [],
      "name": "LogUnpause",
      "type": "event"
    }
  ],
  "bytecode": "0x6080604052600160008190558080556005805460ff191690556007553480156200002857600080fd5b50604051602080620047a7833981016040525160006001600682620000556401000000006200022b810204565b7fffffffff0000000000000000000000000000000000000000000000000000000016815260208101919091526040016000908120805460ff191692151592909217909155600190600690620000b26401000000006200024f810204565b7fffffffff0000000000000000000000000000000000000000000000000000000016815260208101919091526040016000908120805460ff1916921515929092179091556001906006906200010f64010000000062000273810204565b7fffffffff000000000000000000000000000000000000000000000000000000001681526020810191909152604001600020805460ff1916911515919091179055620001648264010000000062000297810204565b90506200017d81600180640100000000620002a3810204565b620001958160026001640100000000620002a3810204565b620001ad8160036001640100000000620002a3810204565b60016000818155818055600690620001cd64010000000062000273810204565b620001e06401000000006200024f810204565b187fffffffff000000000000000000000000000000000000000000000000000000001681526020810191909152604001600020805460ff191691151591909117905550620003669050565b7f01ffc9a70000000000000000000000000000000000000000000000000000000090565b7fdc3d2a7b0000000000000000000000000000000000000000000000000000000090565b7f107653790000000000000000000000000000000000000000000000000000000090565b600160a060020a031690565b620002c060028484846401000000006200406e620002f482021704565b6040518190839085907f480000bb1edad8ca1470381cc334b1917fbd51c6531f3a623ea8e0ec7e38a6e990600090a4505050565b60008381526020858152604082208054600181018255818452919092200183905560028101541515620003305760028101849055600181018290555b50506000908152600180840160209081526040832080548084018255908452922090910191909155600290910180549091019055565b61443180620003766000396000f30060806040526004361061029a5763ffffffff60e060020a60003504166301ffc9a7811461029c57806302e7491e146102d25780630440b43a14610304578063058b316c1461032b57806312aaac7014610340578063190db862146103b95780631d203be8146103dd5780631d38124014610446578063237434f014610464578063251de3e914610304578063262b54f51461047c5780632d32d442146104e45780632e7700f0146104f957806338f4edd41461050e5780633b8a12c8146105235780633f4ba83a1461059d57806349991ec81461032b5780634da34c2c146105b25780634eee424a1461065f57806353d413c5146106775780635c975abb146106925780635d7bc3fc146106a75780635dccebba146106bf57806363f14c3c146107765780636e4c431114610797578063710ca5501461032b578063724a4b3b146107b2578063747442d3146107e857806375e5598c146104e4578063765b3042146108055780637d96fa581461083657806382d094461461032b5780638456cb591461084b5780639010f726146108605780639e140cc814610878578063a550f0c7146104e4578063aa0a51421461088d578063ae62838614610878578063affed0e0146108a2578063b132734e146108b7578063b1a34e0d146108cc578063b1e9f64c146109b4578063b61d27f6146109c9578063b9133d6314610a32578063bf2f20ad14610a47578063c32b351814610a5c578063c670218714610304578063c9100bcb14610ab5578063c9d24ecc14610c38578063ccfe586814610c4d578063d202158d14610c65578063dbfa74b7146109b4578063e0610ba314610c80578063e99896b814610da6578063ead09fab14610dbe578063f22d08a6146104e4578063f5074f4114610dd3578063fc0fc84914610df4575b005b3480156102a857600080fd5b506102be600160e060020a031960043516610e09565b604080519115158252519081900360200190f35b3480156102de57600080fd5b506102e7610e28565b60408051600160e060020a03199092168252519081900360200190f35b34801561031057600080fd5b50610319610e4d565b60408051918252519081900360200190f35b34801561033757600080fd5b50610319610e52565b34801561034c57600080fd5b50610358600435610e57565b60408051602080820185905291810183905260608082528551908201528451909182916080830191878101910280838360005b838110156103a357818101518382015260200161038b565b5050505090500194505050505060405180910390f35b3480156103c557600080fd5b50610319600160a060020a0360043516602435610efc565b3480156103e957600080fd5b50604080516020600460443581810135601f8101849004840285018401909552848452610319948235600160a060020a0316946024803595369594606494920191908190840183828082843750949750610fa99650505050505050565b34801561045257600080fd5b506102be6004356024356044356110a9565b34801561047057600080fd5b506102be600435611102565b34801561048857600080fd5b50610494600435611122565b60408051602080825283518183015283519192839290830191858101910280838360005b838110156104d05781810151838201526020016104b8565b505050509050019250505060405180910390f35b3480156104f057600080fd5b50610319611185565b34801561050557600080fd5b5061031961118a565b34801561051a57600080fd5b50610319611190565b34801561052f57600080fd5b5060408051602060046024803582810135601f81018590048502860185019096528585526105819583359536956044949193909101919081908401838280828437509497506111969650505050505050565b60408051600160a060020a039092168252519081900360200190f35b3480156105a957600080fd5b5061029a611299565b3480156105be57600080fd5b50604080516020600460443581810135601f8101849004840285018401909552848452610319948235600160a060020a031694602480359536959460649492019190819084018382808284375050604080516020601f818a01358b0180359182018390048302840183018552818452989b8a359b909a9099940197509195509182019350915081908401838280828437509497506112f29650505050505050565b34801561066b57600080fd5b506102be60043561141d565b34801561068357600080fd5b506102be600435602435611a26565b34801561069e57600080fd5b506102be611abd565b3480156106b357600080fd5b506102be600435611ac6565b3480156106cb57600080fd5b506106d7600435611e2f565b6040518085600160a060020a0316600160a060020a0316815260200184815260200180602001838152602001828103825284818151815260200191508051906020019080838360005b83811015610738578181015183820152602001610720565b50505050905090810190601f1680156107655780820380516001836020036101000a031916815260200191505b509550505050505060405180910390f35b34801561078257600080fd5b50610319600160a060020a0360043516611eeb565b3480156107a357600080fd5b50610581600435602435611ef7565b3480156107be57600080fd5b506102be600435600160a060020a0360243516600160e060020a0319604435166064351515611f2e565b3480156107f457600080fd5b506102be6004356024351515611f8f565b34801561081157600080fd5b506102be600435600160a060020a0360243516600160e060020a03196044351661232e565b34801561084257600080fd5b506102e7612370565b34801561085757600080fd5b5061029a612394565b34801561086c57600080fd5b506104946004356123ef565b34801561088457600080fd5b50610319612450565b34801561089957600080fd5b50610319612455565b3480156108ae57600080fd5b5061031961245b565b3480156108c357600080fd5b50610319612461565b3480156108d857600080fd5b50604080516020601f606435600481810135928301849004840285018401909552818452610319948035946024803595600160a060020a0360443516953695608494930191819084018382808284375050604080516020601f89358b018035918201839004830284018301909452808352979a99988101979196509182019450925082915084018382808284375050604080516020601f89358b018035918201839004830284018301909452808352979a9998810197919650918201945092508291508401838280828437509497506124669650505050505050565b3480156109c057600080fd5b50610319612917565b3480156109d557600080fd5b50604080516020600460443581810135601f8101849004840285018401909552848452610319948235600160a060020a031694602480359536959460649492019190819084018382808284375094975061291c9650505050505050565b348015610a3e57600080fd5b50610319612943565b348015610a5357600080fd5b506102e7612948565b348015610a6857600080fd5b506040805160206004803580820135601f81018490048402850184019095528484526102e794369492936024939284019190819084018382808284375094975061296c9650505050505050565b348015610ac157600080fd5b50610acd6004356129f0565b6040518087815260200186815260200185600160a060020a0316600160a060020a03168152602001806020018060200180602001848103845287818151815260200191508051906020019080838360005b83811015610b36578181015183820152602001610b1e565b50505050905090810190601f168015610b635780820380516001836020036101000a031916815260200191505b50848103835286518152865160209182019188019080838360005b83811015610b96578181015183820152602001610b7e565b50505050905090810190601f168015610bc35780820380516001836020036101000a031916815260200191505b50848103825285518152855160209182019187019080838360005b83811015610bf6578181015183820152602001610bde565b50505050905090810190601f168015610c235780820380516001836020036101000a031916815260200191505b50995050505050505050505060405180910390f35b348015610c4457600080fd5b50610319612c46565b348015610c5957600080fd5b5061029a600435612c4c565b348015610c7157600080fd5b506102be600435602435612c9f565b348015610c8c57600080fd5b50604080516020601f6064356004818101359283018490048402850184019095528184526102be948035946024803595600160a060020a0360443516953695608494930191819084018382808284375050604080516020601f89358b018035918201839004830284018301909452808352979a99988101979196509182019450925082915084018382808284375050604080516020601f89358b018035918201839004830284018301909452808352979a99988101979196509182019450925082915084018382808284375050604080516020601f89358b018035918201839004830284018301909452808352979a999881019791965091820194509250829150840183828082843750949750612cb39650505050505050565b348015610db257600080fd5b5061029a6004356130d4565b348015610dca57600080fd5b50610319613127565b348015610ddf57600080fd5b5061029a600160a060020a036004351661312c565b348015610e0057600080fd5b50610319613160565b600160e060020a03191660009081526006602052604090205460ff1690565b7f01ffc9a7000000000000000000000000000000000000000000000000000000005b90565b600381565b600181565b6060600080610e64614251565b60008581526002602090815260409182902082518154608093810282018401909452606081018481529093919284928491840182828015610ec457602002820191906000526020600020905b815481526020019060010190808311610eb0575b505050918352505060018201546020808301919091526002909201546040918201528251918301519201519097919650945092505050565b600082826040516020018083600160a060020a0316600160a060020a03166c01000000000000000000000000028152601401828152602001925050506040516020818303038152906040526040518082805190602001908083835b60208310610f765780518252601f199092019160209182019101610f57565b5181516020939093036101000a600019018019909116921691909117905260405192018290039091209695505050505050565b60008383836040516020018084600160a060020a0316600160a060020a03166c0100000000000000000000000002815260140183815260200182805190602001908083835b6020831061100d5780518252601f199092019160209182019101610fee565b6001836020036101000a03801982511681845116808217855250505050505090500193505050506040516020818303038152906040526040518082805190602001908083835b602083106110725780518252601f199092019160209182019101611053565b6001836020036101000a038019825116818451168082178552505050505050905001915050604051809103902090505b9392505050565b60006110b3613166565b15156110be57600080fd5b60055460ff16156110ce57600080fd5b6110e06002858563ffffffff61319816565b156110ed575060006110a2565b6110f884848461327c565b5060019392505050565b6000908152600a6020526040902060020154600160a060020a0316151590565b6000818152600b602090815260409182902080548351818402810184019094528084526060939283018282801561117957602002820191906000526020600020905b81548152600190910190602001808311611164575b50505050509050919050565b600281565b60075490565b60015481565b60006110a2826040805190810160405280601c81526020017f19457468657265756d205369676e6564204d6573736167653a0a333200000000815250856040516020018083805190602001908083835b602083106112055780518252601f1990920191602091820191016111e6565b51815160209384036101000a600019018019909216911617905292019384525060408051808503815293820190819052835193945092839250908401908083835b602083106112655780518252601f199092019160209182019101611246565b5181516020939093036101000a60001901801990911692169190911790526040519201829003909120939250506132c39050565b6112a1613166565b15156112ac57600080fd5b60055460ff1615156112bd57600080fd5b6005805460ff191690556040517f730c1faaa977b67dacf1e2451ef54556e04a07d577785ff79f6d31f73502efc990600090a1565b600554600090819060ff161561130757600080fd5b611402878787876040516020018085600160a060020a0316600160a060020a03166c0100000000000000000000000002815260140184815260200183805190602001908083835b6020831061136d5780518252601f19909201916020918201910161134e565b51815160209384036101000a6000190180199092169116179052920193845250604080518085038152938201908190528351939650945084935085019190508083835b602083106113cf5780518252601f1990920191602091820191016113b0565b6001836020036101000a038019825116818451168082178552505050505050905001915050604051809103902084611196565b905061141081888888613393565b91505b5095945050505050565b6000611427614271565b600554600090819060ff161561143c57600080fd5b6000858152600a60205260409020600201548590600160a060020a031680151561146557600080fd5b61146d613166565b1561147757611550565b33600160a060020a038216141561148d57611550565b6114ae611498612370565b600160a060020a0383169063ffffffff61354f16565b1561154b5780600160a060020a031663d202158d6114cb33611eeb565b6040805160e060020a63ffffffff85160281526004810192909252600260248301525160448083019260209291908290030181600087803b15801561150f57600080fd5b505af1158015611523573d6000803e3d6000fd5b505050506040513d602081101561153957600080fd5b5051151561154657600080fd5b611550565b600080fd5b6000878152600a6020908152604091829020825160c0810184528154815260018083015482850152600280840154600160a060020a0316838701526003840180548751601f9482161561010002600019019091169290920492830186900486028201860190965281815291949293606086019391908301828280156116165780601f106115eb57610100808354040283529160200191611616565b820191906000526020600020905b8154815290600101906020018083116115f957829003601f168201915b505050918352505060048201805460408051602060026001851615610100026000190190941693909304601f81018490048402820184019092528181529382019392918301828280156116aa5780601f1061167f576101008083540402835291602001916116aa565b820191906000526020600020905b81548152906001019060200180831161168d57829003601f168201915b505050918352505060058201805460408051602060026001851615610100026000190190941693909304601f810184900484028201840190925281815293820193929183018282801561173e5780601f106117135761010080835404028352916020019161173e565b820191906000526020600020905b81548152906001019060200180831161172157829003601f168201915b505050919092525050506040810151909550600160a060020a0316151561176457600080fd5b6000878152600a6020526040812081815560018101829055600281018054600160a060020a03191690559061179c60038301826142b1565b6117aa6004830160006142b1565b6117b86005830160006142b1565b505084516000908152600b60205260408120945092505b835483101561186f57835487908590859081106117e857fe5b60009182526020909120015414156118645783548490600019810190811061180c57fe5b9060005260206000200154848481548110151561182557fe5b60009182526020909120015583548490600019810190811061184357fe5b6000918252602082200155835461185e8560001983016142f8565b5061186f565b6001909201916117cf565b600c60008154809291906001900391905055508460400151600160a060020a0316856000015188600019167f3cf57863a89432c61c4a27073c6ee39e8a764bff5a05aebfbcdcdc80b2e6130a886020015189606001518a608001518b60a0015160405180858152602001806020018060200180602001848103845287818151815260200191508051906020019080838360005b8381101561191a578181015183820152602001611902565b50505050905090810190601f1680156119475780820380516001836020036101000a031916815260200191505b50848103835286518152865160209182019188019080838360005b8381101561197a578181015183820152602001611962565b50505050905090810190601f1680156119a75780820380516001836020036101000a031916815260200191505b50848103825285518152855160209182019187019080838360005b838110156119da5781810151838201526020016119c2565b50505050905090810190601f168015611a075780820380516001836020036101000a031916815260200191505b5097505050505050505060405180910390a45060019695505050505050565b600080611a31613166565b1515611a3c57600080fd5b60055460ff1615611a4c57600080fd5b611a5e6002858563ffffffff61319816565b1515611a6d5760009150611ab6565b611a7f6002858563ffffffff61360616565b6040519091508190849086907f585a4aef50f8267a92b32412b331b20f7f8b96f2245b253b9cc50dcc621d339790600090a4600191505b5092915050565b60055460ff1681565b6000611ad0614271565b60055460ff1615611ae057600080fd5b6000838152600a60205260409020600201548390600160a060020a0316801515611b0957600080fd5b611b11613166565b15611b1b57611bd4565b33600160a060020a0382161415611b3157611bd4565b611b3c611498612370565b1561154b5780600160a060020a031663d202158d611b5933611eeb565b6040805160e060020a63ffffffff85160281526004810192909252600260248301525160448083019260209291908290030181600087803b158015611b9d57600080fd5b505af1158015611bb1573d6000803e3d6000fd5b505050506040513d6020811015611bc757600080fd5b50511515611bd457600080fd5b6000858152600a6020908152604091829020825160c0810184528154815260018083015482850152600280840154600160a060020a0316838701526003840180548751601f948216156101000260001901909116929092049283018690048602820186019096528181529194929360608601939190830182828015611c9a5780601f10611c6f57610100808354040283529160200191611c9a565b820191906000526020600020905b815481529060010190602001808311611c7d57829003601f168201915b505050918352505060048201805460408051602060026001851615610100026000190190941693909304601f8101849004840282018401909252818152938201939291830182828015611d2e5780601f10611d0357610100808354040283529160200191611d2e565b820191906000526020600020905b815481529060010190602001808311611d1157829003601f168201915b505050918352505060058201805460408051602060026001851615610100026000190190941693909304601f8101849004840282018401909252818152938201939291830182828015611dc25780601f10611d9757610100808354040283529160200191611dc2565b820191906000526020600020905b815481529060010190602001808311611da557829003601f168201915b505050919092525050506040810151909350600160a060020a03161515611de857600080fd5b611e09836000015184602001518560400151866060015187608001516137b1565b1515611e2257611e188561141d565b5060009350611e27565b600193505b505050919050565b60086020908152600091825260409182902080546001808301546002808501805488516101009582161595909502600019011691909104601f8101879004870284018701909752868352600160a060020a03909316959094919291830182828015611edb5780601f10611eb057610100808354040283529160200191611edb565b820191906000526020600020905b815481529060010190602001808311611ebe57829003601f168201915b5050505050908060030154905084565b600160a060020a031690565b600960205281600052604060002081815481101515611f1257fe5b600091825260209091200154600160a060020a03169150829050565b6000611f38613166565b1515611f4357600080fd5b60055460ff1615611f5357600080fd5b611f6460028663ffffffff6138e816565b1515611f6f57600080fd5b611f8360028686868663ffffffff61397a16565b50600195945050505050565b60055460009081908190819060ff1615611fa857600080fd5b851515611fb457600080fd5b60008681526008602052604090208054909350600160a060020a03161515611fdb57600080fd5b825460028085018054604080516020601f6000196001861615610100020190941695909504928301859004850281018501909152818152612082943394600160a060020a03909116939192908301828280156120785780601f1061204d57610100808354040283529160200191612078565b820191906000526020600020905b81548152906001019060200180831161205b57829003601f168201915b50505050506139c3565b50604080518615158152905187917fb3932da477fe5d6c8ff2eafef050c0f3a1af18fc07121001482600f36f3715d8919081900360200190a2600086815260096020526040902091508415156121cd575060005b81548110156121c457815433908390839081106120ef57fe5b600091825260209091200154600160a060020a031614156121bc5781548290600019810190811061211c57fe5b6000918252602090912001548254600160a060020a039091169083908390811061214257fe5b60009182526020909120018054600160a060020a031916600160a060020a039290921691909117905581548290600019810190811061217d57fe5b60009182526020909120018054600160a060020a031916905581546121a68360001983016142f8565b5060038301805460019081019091559350612325565b6001016120d6565b60009350612325565b5060005b815481101561221257815433908390839081106121ea57fe5b600091825260209091200154600160a060020a0316141561220a57600080fd5b6001016121d1565b8154600181018355600083815260209020018054600160a060020a031916331790556003830180546000190190819055151561232057604080516080810182528454600160a060020a031681526001808601546020808401919091526002808801805486516101009582161595909502600019011691909104601f81018390048302840183018652808452612319958c95948a9491860193909290918301828280156122ff5780601f106122d4576101008083540402835291602001916122ff565b820191906000526020600020905b8154815290600101906020018083116122e257829003601f168201915b505050505081526020016003820154815250506001613b74565b9350612325565b600193505b50505092915050565b6000838152600260209081526040808320600160a060020a03861684526003018252808320600160e060020a03198516845290915290205460ff169392505050565b7fdc3d2a7b0000000000000000000000000000000000000000000000000000000090565b61239c613166565b15156123a757600080fd5b60055460ff16156123b757600080fd5b6005805460ff191660011790556040517f4b314b34e912fda7f95e7d23e9c8c95f82f0aff1984e4ce592a0b005f905562490600090a1565b6000818152600360209081526040918290208054835181840281018401909452808452606093928301828280156111795760200282019190600052602060002090815481526001909101906020018083116111645750505050509050919050565b600481565b60005481565b60075481565b600881565b60055460009081908190819060ff161561247f57600080fd5b61248c8a8a8a8a8a6137b1565b151561249757600080fd5b61249f613166565b92508215156126ed576040517fb61d27f600000000000000000000000000000000000000000000000000000000815230600482018181526000602484018190526060604485019081523660648601819052939463b61d27f694869484939192909190608401848480828437820191505095505050505050602060405180830381600087803b15801561253057600080fd5b505af1158015612544573d6000803e3d6000fd5b505050506040513d602081101561255a57600080fd5b8101908080519060200190929190505050935087600160a060020a03168a857fe6b6db97dedfb44cbced367387e40b3f92dbee1b1be87f9367f7b673532b0d698c8b8b8b60405180858152602001806020018060200180602001848103845287818151815260200191508051906020019080838360005b838110156125e95781810151838201526020016125d1565b50505050905090810190601f1680156126165780820380516001836020036101000a031916815260200191505b50848103835286518152865160209182019188019080838360005b83811015612649578181015183820152602001612631565b50505050905090810190601f1680156126765780820380516001836020036101000a031916815260200191505b50848103825285518152855160209182019187019080838360005b838110156126a9578181015183820152602001612691565b50505050905090810190601f1680156126d65780820380516001836020036101000a031916815260200191505b5097505050505050505060405180910390a461290a565b6126f7888b610efc565b6000818152600a6020526040902060020154909250600160a060020a0316151561272f5761272a828b8b8b8b8b8b613df6565b61290a565b506000818152600a60209081526040909120600181018a90558751909161275d9160038401918a0190614321565b5085516127739060048301906020890190614321565b5084516127899060058301906020880190614321565b5087600160a060020a03168a83600019167f3bab293fc00db832d7619a9299914251b8747c036867ec056cbd506f60135b138c8b8b8b60405180858152602001806020018060200180602001848103845287818151815260200191508051906020019080838360005b8381101561280a5781810151838201526020016127f2565b50505050905090810190601f1680156128375780820380516001836020036101000a031916815260200191505b50848103835286518152865160209182019188019080838360005b8381101561286a578181015183820152602001612852565b50505050905090810190601f1680156128975780820380516001836020036101000a031916815260200191505b50848103825285518152855160209182019187019080838360005b838110156128ca5781810151838201526020016128b2565b50505050905090810190601f1680156128f75780820380516001836020036101000a031916815260200191505b5097505050505050505060405180910390a45b5050509695505050505050565b600581565b60055460009060ff161561292f57600080fd5b61293b33858585613393565b949350505050565b600781565b7f107653790000000000000000000000000000000000000000000000000000000090565b600080805b6004811015611ab65780600802848281518110151561298c57fe5b60209101015160029190910a7f0100000000000000000000000000000000000000000000000000000000000000918290049091027fff0000000000000000000000000000000000000000000000000000000000000016049190911790600101612971565b60008060006060806060612a02614271565b6000888152600a6020908152604091829020825160c0810184528154815260018083015482850152600280840154600160a060020a0316838701526003840180548751601f948216156101000260001901909116929092049283018690048602820186019096528181529194929360608601939190830182828015612ac85780601f10612a9d57610100808354040283529160200191612ac8565b820191906000526020600020905b815481529060010190602001808311612aab57829003601f168201915b505050918352505060048201805460408051602060026001851615610100026000190190941693909304601f8101849004840282018401909252818152938201939291830182828015612b5c5780601f10612b3157610100808354040283529160200191612b5c565b820191906000526020600020905b815481529060010190602001808311612b3f57829003601f168201915b505050918352505060058201805460408051602060026001851615610100026000190190941693909304601f8101849004840282018401909252818152938201939291830182828015612bf05780601f10612bc557610100808354040283529160200191612bf0565b820191906000526020600020905b815481529060010190602001808311612bd357829003601f168201915b505050919092525050506040810151909150600160a060020a03161515612c1657600080fd5b8051602082015160408301516060840151608085015160a090950151939c929b5090995097509195509350915050565b60045490565b60055460009060ff1615612c5f57600080fd5b612c67613166565b1515612c7257600080fd5b60008211612c7f57600080fd5b612c8960016123ef565b51905080821115612c9957600080fd5b50600055565b60006110a26002848463ffffffff61319816565b60055460009081908190819060ff1615612ccc57600080fd5b612cd98b8b8b8b8b6137b1565b1515612ce457600080fd5b612e7d8b8b8b8b8b8b6040516020018087815260200186815260200185600160a060020a0316600160a060020a03166c0100000000000000000000000002815260140184805190602001908083835b60208310612d525780518252601f199092019160209182019101612d33565b51815160209384036101000a600019018019909216911617905286519190930192860191508083835b60208310612d9a5780518252601f199092019160209182019101612d7b565b51815160209384036101000a600019018019909216911617905285519190930192850191508083835b60208310612de25780518252601f199092019160209182019101612dc3565b6001836020036101000a03801982511681845116808217855250505050505090500196505050505050506040516020818303038152906040526040518082805190602001908083835b60208310612e4a5780518252601f199092019160209182019101612e2b565b6001836020036101000a038019825116818451168082178552505050505050905001915050604051809103902086611196565b9250612e9b612e8b84611eeb565b600290600163ffffffff61319816565b1515612ea657600080fd5b612eb0898c610efc565b6000818152600a6020526040902060020154909250600160a060020a03161515612ee857612ee3828c8c8c8c8c8c613df6565b6130c3565b506000818152600a60209081526040909120600181018b905588519091612f169160038401918b0190614321565b508651612f2c90600483019060208a0190614321565b508551612f429060058301906020890190614321565b5088600160a060020a03168b83600019167f3bab293fc00db832d7619a9299914251b8747c036867ec056cbd506f60135b138d8c8c8c60405180858152602001806020018060200180602001848103845287818151815260200191508051906020019080838360005b83811015612fc3578181015183820152602001612fab565b50505050905090810190601f168015612ff05780820380516001836020036101000a031916815260200191505b50848103835286518152865160209182019188019080838360005b8381101561302357818101518382015260200161300b565b50505050905090810190601f1680156130505780820380516001836020036101000a031916815260200191505b50848103825285518152855160209182019187019080838360005b8381101561308357818101518382015260200161306b565b50505050905090810190601f1680156130b05780820380516001836020036101000a031916815260200191505b5097505050505050505060405180910390a45b5060019a9950505050505050505050565b60055460009060ff16156130e757600080fd5b6130ef613166565b15156130fa57600080fd5b6000821161310757600080fd5b61311160026123ef565b5190508082111561312157600080fd5b50600155565b600681565b613134613166565b151561313f57600080fd5b600160a060020a038116151561315457600080fd5b80600160a060020a0316ff5b600c5481565b60003330141561317857506001610e4a565b60005460011461318757600080fd5b613193612e8b33611eeb565b905090565b60006131a2614251565b600084815260208681526040808320815181546080948102820185019093526060810183815290939192849284919084018282801561320057602002820191906000526020600020905b8154815260200190600101908083116131ec575b50505091835250506001820154602082015260029091015460409182015281015190925015156132335760009250613273565b5060005b81515181101561327357815180518591908390811061325257fe5b90602001906020020151141561326b5760019250613273565b600101613237565b50509392505050565b61328f600284848463ffffffff61406e16565b6040518190839085907f480000bb1edad8ca1470381cc334b1917fbd51c6531f3a623ea8e0ec7e38a6e990600090a4505050565b600080600080845160411415156132dd5760009350612325565b50505060208201516040830151606084015160001a601b60ff8216101561330257601b015b8060ff16601b1415801561331a57508060ff16601c14155b156133285760009350612325565b60408051600080825260208083018085528a905260ff8516838501526060830187905260808301869052925160019360a0808501949193601f19840193928390039091019190865af1158015613382573d6000803e3d6000fd5b505050602060405103519350612325565b60008061339e61439f565b6133a98787866139c3565b91506133ba308787876007546140df565b92508486600160a060020a0316847f8afcfabcb00e47a53a8fc3e9f23ff47ee1926194bb1350dd007c50b412a6cee8876040518080602001828103825283818151815260200191508051906020019080838360005b8381101561342757818101518382015260200161340f565b50505050905090810190601f1680156134545780820380516001836020036101000a031916815260200191505b509250505060405180910390a45060078054600101905560408051608081018252600160a060020a038716815260208101869052908101849052606081018290528115156134ae576134a883826000613b74565b50613545565b60008381526008602090815260409182902083518154600160a060020a031916600160a060020a039091161781558382015160018201559183015180518493926134ff926002850192910190614321565b50606091909101516003909101556000838152600960209081526040822080546001810182559083529120018054600160a060020a031916600160a060020a0389161790555b5050949350505050565b6000808061357d857f01ffc9a700000000000000000000000000000000000000000000000000000000614205565b909250905081158061358d575080155b1561359b57600092506135fe565b6135ad85600160e060020a0319614205565b90925090508115806135be57508015155b156135cc57600092506135fe565b6135d68585614205565b90925090506001821480156135eb5750806001145b156135f957600192506135fe565b600092505b505092915050565b6000828152602084905260408120600181015491805b82548210156136c65784838381548110151561363457fe5b906000526020600020015414156136bb5782548390600019810190811061365757fe5b9060005260206000200154838381548110151561367057fe5b60009182526020909120015582548390600019810190811061368e57fe5b600091825260208220015582546136a98460001983016142f8565b506002870180546000190190556136c6565b60019091019061361c565b825415156136f8576000868152602088905260408120906136e782826143d1565b506000600182018190556002909101555b5050600083815260018601602052604081205b80548210156137a7578054869082908490811061372457fe5b600091825260209091200154141561379c5780548190600019810190811061374857fe5b9060005260206000200154818381548110151561376157fe5b60009182526020909120015580548190600019810190811061377f57fe5b6000918252602082200155805461379a8260001983016142f8565b505b60019091019061370b565b5050509392505050565b60008060018614156138df576137d16137cb308986610fa9565b85611196565b905080600160a060020a031685600160a060020a031614156137f65760019150611413565b600160a060020a03851630141561382a5761382361381382611eeb565b600290600363ffffffff61319816565b9150611413565b61384b613835612370565b600160a060020a0387169063ffffffff61354f16565b156138df5784600160a060020a031663d202158d61386883611eeb565b6040805160e060020a63ffffffff85160281526004810192909252600360248301525160448083019260209291908290030181600087803b1580156138ac57600080fd5b505af11580156138c0573d6000803e3d6000fd5b505050506040513d60208110156138d657600080fd5b50519150611413565b60009150611413565b60006138f2614251565b600083815260208581526040918290208251815460809381028201840190945260608101848152909391928492849184018282801561395057602002820191906000526020600020905b81548152602001906001019080831161393c575b50505091835250506001820154602082015260029091015460409182015201511515949350505050565b600093845260209485526040808520600160a060020a0394909416855260039093018552828420600160e060020a031992909216845293529020805460ff191682151517905590565b6000600160a060020a038316301415613a6e57600160a060020a0384163014156139f05750600054613a69565b6139fc612e8b85611eeb565b80613a5b5750613a1e613a0e85611eeb565b600290600763ffffffff61319816565b8015613a5b57507f1d38124000000000000000000000000000000000000000000000000000000000613a4f8361296c565b600160e060020a031916145b1561154b5750600054600019015b6110a2565b600160a060020a0383161515613a8357600080fd5b600160a060020a038416301415613a9d57506001546110a2565b613ab8613aa985611eeb565b6002908163ffffffff61319816565b80613ada5750613ada613aca85611eeb565b600290600663ffffffff61319816565b80613b625750613afc613aec85611eeb565b600290600863ffffffff61319816565b8015613b62575060026000613b1086611eeb565b815260208082019290925260409081016000908120600160a060020a0387168252600301909252812090613b438461296c565b600160e060020a031916815260208101919091526040016000205460ff165b1561154b5750600154600019016110a2565b81516000908190600160a060020a03161515613b8f57600080fd5b8360000151600160a060020a03168460200151856040015160405180828051906020019080838360005b83811015613bd1578181015183820152602001613bb9565b50505050905090810190601f168015613bfe5780820380516001836020036101000a031916815260200191505b5091505060006040518083038185875af1925050509050801515613cd65783602001518460000151600160a060020a0316867fe10c49d9f7c71da23262367013434763cfdb2332267641728d25cd712c5c6a6887604001516040518080602001828103825283818151815260200191508051906020019080838360005b83811015613c93578181015183820152602001613c7b565b50505050905090810190601f168015613cc05780820380516001836020036101000a031916815260200191505b509250505060405180910390a460009150613dee565b83602001518460000151600160a060020a0316867f1f920dbda597d7bf95035464170fa58d0a4b57f13a1c315ace6793b9f63688b887604001516040518080602001828103825283818151815260200191508051906020019080838360005b83811015613d4d578181015183820152602001613d35565b50505050905090810190601f168015613d7a5780820380516001836020036101000a031916815260200191505b509250505060405180910390a4821515613d975760019150613dee565b60008581526008602052604081208054600160a060020a03191681556001810182905590613dc860028301826142b1565b506000600391909101819055858152600960205260408120613de9916143d1565b600191505b509392505050565b6040805160c0810182528781526020808201888152600160a060020a03888116848601908152606085018981526080860189905260a0860188905260008e8152600a865296909620855181559251600184015551600283018054600160a060020a0319169190921617905592518051929392613e789260038501920190614321565b5060808201518051613e94916004840191602090910190614321565b5060a08201518051613eb0916005840191602090910190614321565b5050506000868152600b60209081526040808320805460018181018355918552838520018b9055600c80549091019055805188815260808184018181528851918301919091528751600160a060020a038a16958c958e957f46149b18aa084502c3f12bc75e19eda8bda8d102b82cce8474677a6d0d5f43c5958e958d958d958d959394929392850192606086019260a0870192918a01918190849084905b83811015613f66578181015183820152602001613f4e565b50505050905090810190601f168015613f935780820380516001836020036101000a031916815260200191505b50848103835286518152865160209182019188019080838360005b83811015613fc6578181015183820152602001613fae565b50505050905090810190601f168015613ff35780820380516001836020036101000a031916815260200191505b50848103825285518152855160209182019187019080838360005b8381101561402657818101518382015260200161400e565b50505050905090810190601f1680156140535780820380516001836020036101000a031916815260200191505b5097505050505050505060405180910390a450505050505050565b600083815260208581526040822080546001810182558184529190922001839055600281015415156140a95760028101849055600181018290555b50506000908152600180840160209081526040832080548084018255908452922090910191909155600290910180549091019055565b600085858585856040516020018086600160a060020a0316600160a060020a03166c0100000000000000000000000002815260140185600160a060020a0316600160a060020a03166c0100000000000000000000000002815260140184815260200183805190602001908083835b6020831061416c5780518252601f19909201916020918201910161414d565b51815160209384036101000a600019018019909216911617905292019384525060408051808503815293820190819052835193975095508594508601925081905083835b602083106141cf5780518252601f1990920191602091820191016141b0565b5181516020939093036101000a600019018019909116921691909117905260405192018290039091209998505050505050505050565b6040517f01ffc9a70000000000000000000000000000000000000000000000000000000080825260048201839052600091829190602081818189617530fa905190969095509350505050565b604080516060818101835281526000602082018190529181019190915290565b60c06040519081016040528060008152602001600081526020016000600160a060020a031681526020016060815260200160608152602001606081525090565b50805460018160011615610100020316600290046000825580601f106142d757506142f5565b601f0160209004906000526020600020908101906142f591906143eb565b50565b81548183558181111561431c5760008381526020902061431c9181019083016143eb565b505050565b828054600181600116156101000203166002900490600052602060002090601f016020900481019282601f1061436257805160ff191683800117855561438f565b8280016001018555821561438f579182015b8281111561438f578251825591602001919060010190614374565b5061439b9291506143eb565b5090565b6080604051908101604052806000600160a060020a031681526020016000815260200160608152602001600081525090565b50805460008255906000526020600020908101906142f591905b610e4a91905b8082111561439b57600081556001016143f15600a165627a7a723058208a77df408350732b211e13989ffcc7598b4be402975f9740ac980e83ee729b210029",
  "source": "pragma solidity ^0.4.24;\n\nimport \"./Destructible.sol\";\nimport \"./ERC735.sol\";\nimport \"./KeyGetters.sol\";\nimport \"./KeyManager.sol\";\nimport \"./MultiSig.sol\";\nimport \"./ClaimManager.sol\";\nimport \"./Slice.sol\";\n\n/// @title MetaIdentity\n/// @author Metadium, genie\n/// @notice Identity contract implementing ERC 725, ERC 735 and Metadium features.\n\ncontract MetaIdentity is KeyManager, MultiSig, ClaimManager, Destructible, KeyGetters {\n    using Slice for bytes;\n    using Slice for string;\n\n    /// @dev Constructor for Identity contract. If no initial keys are passed then\n    ///  `msg.sender` is used as an initial MANAGEMENT_KEY, ACTION_KEY and CLAIM_SIGNER_KEY\n    constructor(address _managementKey)\n    public {\n\n        bytes32 senderKey = addrToKey(_managementKey);\n        \n        // Add key that deployed the contract for MANAGEMENT, ACTION, CLAIM\n        _addKey(senderKey, MANAGEMENT_KEY, ECDSA_TYPE);\n        _addKey(senderKey, ACTION_KEY, ECDSA_TYPE);\n        _addKey(senderKey, CLAIM_SIGNER_KEY, ECDSA_TYPE);\n        \n        managementThreshold = 1;\n        actionThreshold = 1;\n\n        // Supports both ERC 725 & 735\n        supportedInterfaces[ERC725ID() ^ ERC735ID()] = true;\n    }\n\n    // Fallback function accepts Ether transactions\n    // solhint-disable-next-line no-empty-blocks\n    function () external payable {\n    }\n\n}",
  "sourcePath": "/Users/coinplug/BangGijin/metabolics2.0/contracts/identity/MetaIdentity.sol",
  "compiler": {
    "name": "solc",
    "version": "0.4.24+commit.e67f0147.Emscripten.clang"
  },
  "schemaVersion": "2.0.1",
  "updatedAt": "2018-11-15T06:28:38.224Z"
}