{
  "contractName": "MetaIdentityLib",
  "abi": [
    {
      "constant": true,
      "inputs": [
        {
          "name": "interfaceID",
          "type": "bytes4"
        }
      ],
      "name": "supportsInterface",
      "outputs": [
        {
          "name": "",
          "type": "bool"
        }
      ],
      "payable": false,
      "stateMutability": "view",
      "type": "function"
    },
    {
      "constant": true,
      "inputs": [],
      "name": "ERC165ID",
      "outputs": [
        {
          "name": "",
          "type": "bytes4"
        }
      ],
      "payable": false,
      "stateMutability": "pure",
      "type": "function"
    },
    {
      "constant": true,
      "inputs": [],
      "name": "REGISTRY_TOPIC",
      "outputs": [
        {
          "name": "",
          "type": "uint256"
        }
      ],
      "payable": false,
      "stateMutability": "view",
      "type": "function"
    },
    {
      "constant": true,
      "inputs": [],
      "name": "MANAGEMENT_KEY",
      "outputs": [
        {
          "name": "",
          "type": "uint256"
        }
      ],
      "payable": false,
      "stateMutability": "view",
      "type": "function"
    },
    {
      "constant": true,
      "inputs": [
        {
          "name": "_key",
          "type": "bytes32"
        }
      ],
      "name": "getKey",
      "outputs": [
        {
          "name": "purposes",
          "type": "uint256[]"
        },
        {
          "name": "keyType",
          "type": "uint256"
        },
        {
          "name": "key",
          "type": "bytes32"
        }
      ],
      "payable": false,
      "stateMutability": "view",
      "type": "function"
    },
    {
      "constant": true,
      "inputs": [
        {
          "name": "issuer",
          "type": "address"
        },
        {
          "name": "topic",
          "type": "uint256"
        }
      ],
      "name": "getClaimId",
      "outputs": [
        {
          "name": "",
          "type": "bytes32"
        }
      ],
      "payable": false,
      "stateMutability": "pure",
      "type": "function"
    },
    {
      "constant": true,
      "inputs": [
        {
          "name": "subject",
          "type": "address"
        },
        {
          "name": "topic",
          "type": "uint256"
        },
        {
          "name": "data",
          "type": "bytes"
        }
      ],
      "name": "claimToSign",
      "outputs": [
        {
          "name": "",
          "type": "bytes32"
        }
      ],
      "payable": false,
      "stateMutability": "pure",
      "type": "function"
    },
    {
      "constant": false,
      "inputs": [
        {
          "name": "_key",
          "type": "bytes32"
        },
        {
          "name": "_purpose",
          "type": "uint256"
        },
        {
          "name": "_keyType",
          "type": "uint256"
        }
      ],
      "name": "addKey",
      "outputs": [
        {
          "name": "success",
          "type": "bool"
        }
      ],
      "payable": false,
      "stateMutability": "nonpayable",
      "type": "function"
    },
    {
      "constant": true,
      "inputs": [
        {
          "name": "_claimId",
          "type": "bytes32"
        }
      ],
      "name": "isClaimExist",
      "outputs": [
        {
          "name": "",
          "type": "bool"
        }
      ],
      "payable": false,
      "stateMutability": "view",
      "type": "function"
    },
    {
      "constant": true,
      "inputs": [],
      "name": "CONTRACT_SCHEME",
      "outputs": [
        {
          "name": "",
          "type": "uint256"
        }
      ],
      "payable": false,
      "stateMutability": "view",
      "type": "function"
    },
    {
      "constant": true,
      "inputs": [
        {
          "name": "_topic",
          "type": "uint256"
        }
      ],
      "name": "getClaimIdsByType",
      "outputs": [
        {
          "name": "claimIds",
          "type": "bytes32[]"
        }
      ],
      "payable": false,
      "stateMutability": "view",
      "type": "function"
    },
    {
      "constant": true,
      "inputs": [],
      "name": "RSA_TYPE",
      "outputs": [
        {
          "name": "",
          "type": "uint256"
        }
      ],
      "payable": false,
      "stateMutability": "view",
      "type": "function"
    },
    {
      "constant": true,
      "inputs": [],
      "name": "getTransactionCount",
      "outputs": [
        {
          "name": "",
          "type": "uint256"
        }
      ],
      "payable": false,
      "stateMutability": "view",
      "type": "function"
    },
    {
      "constant": true,
      "inputs": [],
      "name": "actionThreshold",
      "outputs": [
        {
          "name": "",
          "type": "uint256"
        }
      ],
      "payable": false,
      "stateMutability": "view",
      "type": "function"
    },
    {
      "constant": true,
      "inputs": [
        {
          "name": "toSign",
          "type": "bytes32"
        },
        {
          "name": "signature",
          "type": "bytes"
        }
      ],
      "name": "getSignatureAddress",
      "outputs": [
        {
          "name": "",
          "type": "address"
        }
      ],
      "payable": false,
      "stateMutability": "pure",
      "type": "function"
    },
    {
      "constant": false,
      "inputs": [],
      "name": "unpause",
      "outputs": [],
      "payable": false,
      "stateMutability": "nonpayable",
      "type": "function"
    },
    {
      "constant": true,
      "inputs": [],
      "name": "ECDSA_TYPE",
      "outputs": [
        {
          "name": "",
          "type": "uint256"
        }
      ],
      "payable": false,
      "stateMutability": "view",
      "type": "function"
    },
    {
      "constant": false,
      "inputs": [
        {
          "name": "_to",
          "type": "address"
        },
        {
          "name": "_value",
          "type": "uint256"
        },
        {
          "name": "_data",
          "type": "bytes"
        },
        {
          "name": "_nonce",
          "type": "uint256"
        },
        {
          "name": "_sig",
          "type": "bytes"
        }
      ],
      "name": "delegatedExecute",
      "outputs": [
        {
          "name": "executionId",
          "type": "uint256"
        }
      ],
      "payable": false,
      "stateMutability": "nonpayable",
      "type": "function"
    },
    {
      "constant": false,
      "inputs": [
        {
          "name": "_claimId",
          "type": "bytes32"
        }
      ],
      "name": "removeClaim",
      "outputs": [
        {
          "name": "success",
          "type": "bool"
        }
      ],
      "payable": false,
      "stateMutability": "nonpayable",
      "type": "function"
    },
    {
      "constant": false,
      "inputs": [
        {
          "name": "_key",
          "type": "bytes32"
        },
        {
          "name": "_purpose",
          "type": "uint256"
        }
      ],
      "name": "removeKey",
      "outputs": [
        {
          "name": "success",
          "type": "bool"
        }
      ],
      "payable": false,
      "stateMutability": "nonpayable",
      "type": "function"
    },
    {
      "constant": true,
      "inputs": [],
      "name": "paused",
      "outputs": [
        {
          "name": "",
          "type": "bool"
        }
      ],
      "payable": false,
      "stateMutability": "view",
      "type": "function"
    },
    {
      "constant": false,
      "inputs": [
        {
          "name": "_claimId",
          "type": "bytes32"
        }
      ],
      "name": "refreshClaim",
      "outputs": [
        {
          "name": "",
          "type": "bool"
        }
      ],
      "payable": false,
      "stateMutability": "nonpayable",
      "type": "function"
    },
    {
      "constant": true,
      "inputs": [
        {
          "name": "",
          "type": "uint256"
        }
      ],
      "name": "execution",
      "outputs": [
        {
          "name": "to",
          "type": "address"
        },
        {
          "name": "value",
          "type": "uint256"
        },
        {
          "name": "data",
          "type": "bytes"
        },
        {
          "name": "needsApprove",
          "type": "uint256"
        }
      ],
      "payable": false,
      "stateMutability": "view",
      "type": "function"
    },
    {
      "constant": true,
      "inputs": [
        {
          "name": "addr",
          "type": "address"
        }
      ],
      "name": "addrToKey",
      "outputs": [
        {
          "name": "",
          "type": "bytes32"
        }
      ],
      "payable": false,
      "stateMutability": "pure",
      "type": "function"
    },
    {
      "constant": true,
      "inputs": [
        {
          "name": "",
          "type": "uint256"
        },
        {
          "name": "",
          "type": "uint256"
        }
      ],
      "name": "approved",
      "outputs": [
        {
          "name": "",
          "type": "address"
        }
      ],
      "payable": false,
      "stateMutability": "view",
      "type": "function"
    },
    {
      "constant": true,
      "inputs": [],
      "name": "METAID_TOPIC",
      "outputs": [
        {
          "name": "",
          "type": "uint256"
        }
      ],
      "payable": false,
      "stateMutability": "view",
      "type": "function"
    },
    {
      "constant": false,
      "inputs": [
        {
          "name": "_key",
          "type": "bytes32"
        },
        {
          "name": "_to",
          "type": "address"
        },
        {
          "name": "_func",
          "type": "bytes4"
        },
        {
          "name": "_executable",
          "type": "bool"
        }
      ],
      "name": "setFunc",
      "outputs": [
        {
          "name": "success",
          "type": "bool"
        }
      ],
      "payable": false,
      "stateMutability": "nonpayable",
      "type": "function"
    },
    {
      "constant": false,
      "inputs": [
        {
          "name": "_id",
          "type": "uint256"
        },
        {
          "name": "_approve",
          "type": "bool"
        }
      ],
      "name": "approve",
      "outputs": [
        {
          "name": "success",
          "type": "bool"
        }
      ],
      "payable": false,
      "stateMutability": "nonpayable",
      "type": "function"
    },
    {
      "constant": true,
      "inputs": [],
      "name": "ACTION_KEY",
      "outputs": [
        {
          "name": "",
          "type": "uint256"
        }
      ],
      "payable": false,
      "stateMutability": "view",
      "type": "function"
    },
    {
      "constant": true,
      "inputs": [
        {
          "name": "_key",
          "type": "bytes32"
        },
        {
          "name": "_to",
          "type": "address"
        },
        {
          "name": "_func",
          "type": "bytes4"
        }
      ],
      "name": "keyCanExecute",
      "outputs": [
        {
          "name": "executable",
          "type": "bool"
        }
      ],
      "payable": false,
      "stateMutability": "view",
      "type": "function"
    },
    {
      "constant": true,
      "inputs": [],
      "name": "ERC725ID",
      "outputs": [
        {
          "name": "",
          "type": "bytes4"
        }
      ],
      "payable": false,
      "stateMutability": "pure",
      "type": "function"
    },
    {
      "constant": true,
      "inputs": [],
      "name": "ECDSA_SCHEME",
      "outputs": [
        {
          "name": "",
          "type": "uint256"
        }
      ],
      "payable": false,
      "stateMutability": "view",
      "type": "function"
    },
    {
      "constant": false,
      "inputs": [],
      "name": "pause",
      "outputs": [],
      "payable": false,
      "stateMutability": "nonpayable",
      "type": "function"
    },
    {
      "constant": true,
      "inputs": [
        {
          "name": "_purpose",
          "type": "uint256"
        }
      ],
      "name": "getKeysByPurpose",
      "outputs": [
        {
          "name": "keys",
          "type": "bytes32[]"
        }
      ],
      "payable": false,
      "stateMutability": "view",
      "type": "function"
    },
    {
      "constant": true,
      "inputs": [],
      "name": "ENCRYPTION_KEY",
      "outputs": [
        {
          "name": "",
          "type": "uint256"
        }
      ],
      "payable": false,
      "stateMutability": "view",
      "type": "function"
    },
    {
      "constant": true,
      "inputs": [],
      "name": "RESIDENCE_TOPIC",
      "outputs": [
        {
          "name": "",
          "type": "uint256"
        }
      ],
      "payable": false,
      "stateMutability": "view",
      "type": "function"
    },
    {
      "constant": true,
      "inputs": [],
      "name": "managementThreshold",
      "outputs": [
        {
          "name": "",
          "type": "uint256"
        }
      ],
      "payable": false,
      "stateMutability": "view",
      "type": "function"
    },
    {
      "constant": true,
      "inputs": [],
      "name": "PROFILE_TOPIC",
      "outputs": [
        {
          "name": "",
          "type": "uint256"
        }
      ],
      "payable": false,
      "stateMutability": "view",
      "type": "function"
    },
    {
      "constant": true,
      "inputs": [],
      "name": "nonce",
      "outputs": [
        {
          "name": "",
          "type": "uint256"
        }
      ],
      "payable": false,
      "stateMutability": "view",
      "type": "function"
    },
    {
      "constant": true,
      "inputs": [],
      "name": "CUSTOM_KEY",
      "outputs": [
        {
          "name": "",
          "type": "uint256"
        }
      ],
      "payable": false,
      "stateMutability": "view",
      "type": "function"
    },
    {
      "constant": false,
      "inputs": [
        {
          "name": "_topic",
          "type": "uint256"
        },
        {
          "name": "_scheme",
          "type": "uint256"
        },
        {
          "name": "issuer",
          "type": "address"
        },
        {
          "name": "_signature",
          "type": "bytes"
        },
        {
          "name": "_data",
          "type": "bytes"
        },
        {
          "name": "_uri",
          "type": "string"
        }
      ],
      "name": "addClaim",
      "outputs": [
        {
          "name": "claimRequestId",
          "type": "uint256"
        }
      ],
      "payable": false,
      "stateMutability": "nonpayable",
      "type": "function"
    },
    {
      "constant": true,
      "inputs": [],
      "name": "LABEL_TOPIC",
      "outputs": [
        {
          "name": "",
          "type": "uint256"
        }
      ],
      "payable": false,
      "stateMutability": "view",
      "type": "function"
    },
    {
      "constant": false,
      "inputs": [
        {
          "name": "_to",
          "type": "address"
        },
        {
          "name": "_value",
          "type": "uint256"
        },
        {
          "name": "_data",
          "type": "bytes"
        }
      ],
      "name": "execute",
      "outputs": [
        {
          "name": "executionId",
          "type": "uint256"
        }
      ],
      "payable": false,
      "stateMutability": "nonpayable",
      "type": "function"
    },
    {
      "constant": true,
      "inputs": [],
      "name": "RESTORE_KEY",
      "outputs": [
        {
          "name": "",
          "type": "uint256"
        }
      ],
      "payable": false,
      "stateMutability": "view",
      "type": "function"
    },
    {
      "constant": true,
      "inputs": [],
      "name": "ERC735ID",
      "outputs": [
        {
          "name": "",
          "type": "bytes4"
        }
      ],
      "payable": false,
      "stateMutability": "pure",
      "type": "function"
    },
    {
      "constant": true,
      "inputs": [
        {
          "name": "b",
          "type": "bytes"
        }
      ],
      "name": "getFunctionSignature",
      "outputs": [
        {
          "name": "",
          "type": "bytes4"
        }
      ],
      "payable": false,
      "stateMutability": "pure",
      "type": "function"
    },
    {
      "constant": true,
      "inputs": [],
      "name": "CLAIM_SIGNER_KEY",
      "outputs": [
        {
          "name": "",
          "type": "uint256"
        }
      ],
      "payable": false,
      "stateMutability": "view",
      "type": "function"
    },
    {
      "constant": true,
      "inputs": [
        {
          "name": "_claimId",
          "type": "bytes32"
        }
      ],
      "name": "getClaim",
      "outputs": [
        {
          "name": "topic",
          "type": "uint256"
        },
        {
          "name": "scheme",
          "type": "uint256"
        },
        {
          "name": "issuer",
          "type": "address"
        },
        {
          "name": "signature",
          "type": "bytes"
        },
        {
          "name": "data",
          "type": "bytes"
        },
        {
          "name": "uri",
          "type": "string"
        }
      ],
      "payable": false,
      "stateMutability": "view",
      "type": "function"
    },
    {
      "constant": true,
      "inputs": [],
      "name": "numKeys",
      "outputs": [
        {
          "name": "",
          "type": "uint256"
        }
      ],
      "payable": false,
      "stateMutability": "view",
      "type": "function"
    },
    {
      "constant": false,
      "inputs": [
        {
          "name": "threshold",
          "type": "uint256"
        }
      ],
      "name": "changeManagementThreshold",
      "outputs": [],
      "payable": false,
      "stateMutability": "nonpayable",
      "type": "function"
    },
    {
      "constant": true,
      "inputs": [
        {
          "name": "_key",
          "type": "bytes32"
        },
        {
          "name": "purpose",
          "type": "uint256"
        }
      ],
      "name": "keyHasPurpose",
      "outputs": [
        {
          "name": "exists",
          "type": "bool"
        }
      ],
      "payable": false,
      "stateMutability": "view",
      "type": "function"
    },
    {
      "constant": true,
      "inputs": [],
      "name": "ASSIST_KEY",
      "outputs": [
        {
          "name": "",
          "type": "uint256"
        }
      ],
      "payable": false,
      "stateMutability": "view",
      "type": "function"
    },
    {
      "constant": false,
      "inputs": [
        {
          "name": "_topic",
          "type": "uint256"
        },
        {
          "name": "_scheme",
          "type": "uint256"
        },
        {
          "name": "issuer",
          "type": "address"
        },
        {
          "name": "_signature",
          "type": "bytes"
        },
        {
          "name": "_data",
          "type": "bytes"
        },
        {
          "name": "_uri",
          "type": "string"
        },
        {
          "name": "_idSignature",
          "type": "bytes"
        }
      ],
      "name": "addClaimByProxy",
      "outputs": [
        {
          "name": "success",
          "type": "bool"
        }
      ],
      "payable": false,
      "stateMutability": "nonpayable",
      "type": "function"
    },
    {
      "constant": false,
      "inputs": [
        {
          "name": "threshold",
          "type": "uint256"
        }
      ],
      "name": "changeActionThreshold",
      "outputs": [],
      "payable": false,
      "stateMutability": "nonpayable",
      "type": "function"
    },
    {
      "constant": true,
      "inputs": [],
      "name": "DELEGATE_KEY",
      "outputs": [
        {
          "name": "",
          "type": "uint256"
        }
      ],
      "payable": false,
      "stateMutability": "view",
      "type": "function"
    },
    {
      "constant": true,
      "inputs": [],
      "name": "RSA_SCHEME",
      "outputs": [
        {
          "name": "",
          "type": "uint256"
        }
      ],
      "payable": false,
      "stateMutability": "view",
      "type": "function"
    },
    {
      "constant": false,
      "inputs": [
        {
          "name": "_recipient",
          "type": "address"
        }
      ],
      "name": "destroyAndSend",
      "outputs": [],
      "payable": false,
      "stateMutability": "nonpayable",
      "type": "function"
    },
    {
      "constant": true,
      "inputs": [],
      "name": "numClaims",
      "outputs": [
        {
          "name": "",
          "type": "uint256"
        }
      ],
      "payable": false,
      "stateMutability": "view",
      "type": "function"
    },
    {
      "payable": true,
      "stateMutability": "payable",
      "type": "fallback"
    },
    {
      "anonymous": false,
      "inputs": [
        {
          "indexed": true,
          "name": "claimRequestId",
          "type": "uint256"
        },
        {
          "indexed": true,
          "name": "topic",
          "type": "uint256"
        },
        {
          "indexed": false,
          "name": "scheme",
          "type": "uint256"
        },
        {
          "indexed": true,
          "name": "issuer",
          "type": "address"
        },
        {
          "indexed": false,
          "name": "signature",
          "type": "bytes"
        },
        {
          "indexed": false,
          "name": "data",
          "type": "bytes"
        },
        {
          "indexed": false,
          "name": "uri",
          "type": "string"
        }
      ],
      "name": "ClaimRequested",
      "type": "event"
    },
    {
      "anonymous": false,
      "inputs": [
        {
          "indexed": true,
          "name": "claimId",
          "type": "bytes32"
        },
        {
          "indexed": true,
          "name": "topic",
          "type": "uint256"
        },
        {
          "indexed": false,
          "name": "scheme",
          "type": "uint256"
        },
        {
          "indexed": true,
          "name": "issuer",
          "type": "address"
        },
        {
          "indexed": false,
          "name": "signature",
          "type": "bytes"
        },
        {
          "indexed": false,
          "name": "data",
          "type": "bytes"
        },
        {
          "indexed": false,
          "name": "uri",
          "type": "string"
        }
      ],
      "name": "ClaimAdded",
      "type": "event"
    },
    {
      "anonymous": false,
      "inputs": [
        {
          "indexed": true,
          "name": "claimId",
          "type": "bytes32"
        },
        {
          "indexed": true,
          "name": "topic",
          "type": "uint256"
        },
        {
          "indexed": false,
          "name": "scheme",
          "type": "uint256"
        },
        {
          "indexed": true,
          "name": "issuer",
          "type": "address"
        },
        {
          "indexed": false,
          "name": "signature",
          "type": "bytes"
        },
        {
          "indexed": false,
          "name": "data",
          "type": "bytes"
        },
        {
          "indexed": false,
          "name": "uri",
          "type": "string"
        }
      ],
      "name": "ClaimRemoved",
      "type": "event"
    },
    {
      "anonymous": false,
      "inputs": [
        {
          "indexed": true,
          "name": "claimId",
          "type": "bytes32"
        },
        {
          "indexed": true,
          "name": "topic",
          "type": "uint256"
        },
        {
          "indexed": false,
          "name": "scheme",
          "type": "uint256"
        },
        {
          "indexed": true,
          "name": "issuer",
          "type": "address"
        },
        {
          "indexed": false,
          "name": "signature",
          "type": "bytes"
        },
        {
          "indexed": false,
          "name": "data",
          "type": "bytes"
        },
        {
          "indexed": false,
          "name": "uri",
          "type": "string"
        }
      ],
      "name": "ClaimChanged",
      "type": "event"
    },
    {
      "anonymous": false,
      "inputs": [
        {
          "indexed": true,
          "name": "key",
          "type": "bytes32"
        },
        {
          "indexed": true,
          "name": "purpose",
          "type": "uint256"
        },
        {
          "indexed": true,
          "name": "keyType",
          "type": "uint256"
        }
      ],
      "name": "KeyAdded",
      "type": "event"
    },
    {
      "anonymous": false,
      "inputs": [
        {
          "indexed": true,
          "name": "key",
          "type": "bytes32"
        },
        {
          "indexed": true,
          "name": "purpose",
          "type": "uint256"
        },
        {
          "indexed": true,
          "name": "keyType",
          "type": "uint256"
        }
      ],
      "name": "KeyRemoved",
      "type": "event"
    },
    {
      "anonymous": false,
      "inputs": [
        {
          "indexed": true,
          "name": "executionId",
          "type": "uint256"
        },
        {
          "indexed": true,
          "name": "to",
          "type": "address"
        },
        {
          "indexed": true,
          "name": "value",
          "type": "uint256"
        },
        {
          "indexed": false,
          "name": "data",
          "type": "bytes"
        }
      ],
      "name": "ExecutionRequested",
      "type": "event"
    },
    {
      "anonymous": false,
      "inputs": [
        {
          "indexed": true,
          "name": "executionId",
          "type": "uint256"
        },
        {
          "indexed": true,
          "name": "to",
          "type": "address"
        },
        {
          "indexed": true,
          "name": "value",
          "type": "uint256"
        },
        {
          "indexed": false,
          "name": "data",
          "type": "bytes"
        }
      ],
      "name": "Executed",
      "type": "event"
    },
    {
      "anonymous": false,
      "inputs": [
        {
          "indexed": true,
          "name": "executionId",
          "type": "uint256"
        },
        {
          "indexed": false,
          "name": "approved",
          "type": "bool"
        }
      ],
      "name": "Approved",
      "type": "event"
    },
    {
      "anonymous": false,
      "inputs": [
        {
          "indexed": true,
          "name": "executionId",
          "type": "uint256"
        },
        {
          "indexed": true,
          "name": "to",
          "type": "address"
        },
        {
          "indexed": true,
          "name": "value",
          "type": "uint256"
        },
        {
          "indexed": false,
          "name": "data",
          "type": "bytes"
        }
      ],
      "name": "ExecutionFailed",
      "type": "event"
    },
    {
      "anonymous": false,
      "inputs": [],
      "name": "LogPause",
      "type": "event"
    },
    {
      "anonymous": false,
      "inputs": [],
      "name": "LogUnpause",
      "type": "event"
    },
    {
      "constant": false,
      "inputs": [
        {
          "name": "_managementKey",
          "type": "address"
        }
      ],
      "name": "init",
      "outputs": [],
      "payable": false,
      "stateMutability": "nonpayable",
      "type": "function"
    }
  ],
  "bytecode": "0x6080604052600160008181558180556005805460ff1916905560078290556006906200003364010000000062000134810204565b7fffffffff0000000000000000000000000000000000000000000000000000000016815260208101919091526040016000908120805460ff1916921515929092179091556001906006906200009064010000000062000158810204565b7fffffffff0000000000000000000000000000000000000000000000000000000016815260208101919091526040016000908120805460ff191692151592909217909155600190600690620000ed6401000000006200017c810204565b7fffffffff000000000000000000000000000000000000000000000000000000001681526020810191909152604001600020805460ff1916911515919091179055620001a0565b7f01ffc9a70000000000000000000000000000000000000000000000000000000090565b7fdc3d2a7b0000000000000000000000000000000000000000000000000000000090565b7f107653790000000000000000000000000000000000000000000000000000000090565b6144db80620001b06000396000f3006080604052600436106102a55763ffffffff60e060020a60003504166301ffc9a781146102a757806302e7491e146102dd5780630440b43a1461030f578063058b316c1461033657806312aaac701461034b578063190db862146103c457806319ab453c146103e85780631d203be8146104095780631d38124014610472578063237434f014610490578063251de3e91461030f578063262b54f5146104a85780632d32d442146105105780632e7700f01461052557806338f4edd41461053a5780633b8a12c81461054f5780633f4ba83a146105c957806349991ec8146103365780634da34c2c146105de5780634eee424a1461068b57806353d413c5146106a35780635c975abb146106be5780635d7bc3fc146106d35780635dccebba146106eb57806363f14c3c146107a25780636e4c4311146107c3578063710ca55014610336578063724a4b3b146107de578063747442d31461081457806375e5598c14610510578063765b3042146108315780637d96fa581461086257806382d09446146103365780638456cb59146108775780639010f7261461088c5780639e140cc8146108a4578063a550f0c714610510578063aa0a5142146108b9578063ae628386146108a4578063affed0e0146108ce578063b132734e146108e3578063b1a34e0d146108f8578063b1e9f64c146109e0578063b61d27f6146109f5578063b9133d6314610a5e578063bf2f20ad14610a73578063c32b351814610a88578063c67021871461030f578063c9100bcb14610ae1578063c9d24ecc14610c64578063ccfe586814610c79578063d202158d14610c91578063dbfa74b7146109e0578063e0610ba314610cac578063e99896b814610dd2578063ead09fab14610dea578063f22d08a614610510578063f5074f4114610dff578063fc0fc84914610e20575b005b3480156102b357600080fd5b506102c9600160e060020a031960043516610e35565b604080519115158252519081900360200190f35b3480156102e957600080fd5b506102f2610e54565b60408051600160e060020a03199092168252519081900360200190f35b34801561031b57600080fd5b50610324610e79565b60408051918252519081900360200190f35b34801561034257600080fd5b50610324610e7e565b34801561035757600080fd5b50610363600435610e83565b60408051602080820185905291810183905260608082528551908201528451909182916080830191878101910280838360005b838110156103ae578181015183820152602001610396565b5050505090500194505050505060405180910390f35b3480156103d057600080fd5b50610324600160a060020a0360043516602435610f28565b3480156103f457600080fd5b506102a5600160a060020a0360043516610fd5565b34801561041557600080fd5b50604080516020600460443581810135601f8101849004840285018401909552848452610324948235600160a060020a03169460248035953695946064949201919081908401838280828437509497506110539650505050505050565b34801561047e57600080fd5b506102c9600435602435604435611153565b34801561049c57600080fd5b506102c96004356111ac565b3480156104b457600080fd5b506104c06004356111cc565b60408051602080825283518183015283519192839290830191858101910280838360005b838110156104fc5781810151838201526020016104e4565b505050509050019250505060405180910390f35b34801561051c57600080fd5b5061032461122f565b34801561053157600080fd5b50610324611234565b34801561054657600080fd5b5061032461123a565b34801561055b57600080fd5b5060408051602060046024803582810135601f81018590048502860185019096528585526105ad9583359536956044949193909101919081908401838280828437509497506112409650505050505050565b60408051600160a060020a039092168252519081900360200190f35b3480156105d557600080fd5b506102a5611343565b3480156105ea57600080fd5b50604080516020600460443581810135601f8101849004840285018401909552848452610324948235600160a060020a031694602480359536959460649492019190819084018382808284375050604080516020601f818a01358b0180359182018390048302840183018552818452989b8a359b909a90999401975091955091820193509150819084018382808284375094975061139c9650505050505050565b34801561069757600080fd5b506102c96004356114c7565b3480156106af57600080fd5b506102c9600435602435611ad0565b3480156106ca57600080fd5b506102c9611b67565b3480156106df57600080fd5b506102c9600435611b70565b3480156106f757600080fd5b50610703600435611ed9565b6040518085600160a060020a0316600160a060020a0316815260200184815260200180602001838152602001828103825284818151815260200191508051906020019080838360005b8381101561076457818101518382015260200161074c565b50505050905090810190601f1680156107915780820380516001836020036101000a031916815260200191505b509550505050505060405180910390f35b3480156107ae57600080fd5b50610324600160a060020a0360043516611f95565b3480156107cf57600080fd5b506105ad600435602435611fa1565b3480156107ea57600080fd5b506102c9600435600160a060020a0360243516600160e060020a0319604435166064351515611fd8565b34801561082057600080fd5b506102c96004356024351515612039565b34801561083d57600080fd5b506102c9600435600160a060020a0360243516600160e060020a0319604435166123d8565b34801561086e57600080fd5b506102f261241a565b34801561088357600080fd5b506102a561243e565b34801561089857600080fd5b506104c0600435612499565b3480156108b057600080fd5b506103246124fa565b3480156108c557600080fd5b506103246124ff565b3480156108da57600080fd5b50610324612505565b3480156108ef57600080fd5b5061032461250b565b34801561090457600080fd5b50604080516020601f606435600481810135928301849004840285018401909552818452610324948035946024803595600160a060020a0360443516953695608494930191819084018382808284375050604080516020601f89358b018035918201839004830284018301909452808352979a99988101979196509182019450925082915084018382808284375050604080516020601f89358b018035918201839004830284018301909452808352979a9998810197919650918201945092508291508401838280828437509497506125109650505050505050565b3480156109ec57600080fd5b506103246129c1565b348015610a0157600080fd5b50604080516020600460443581810135601f8101849004840285018401909552848452610324948235600160a060020a03169460248035953695946064949201919081908401838280828437509497506129c69650505050505050565b348015610a6a57600080fd5b506103246129ed565b348015610a7f57600080fd5b506102f26129f2565b348015610a9457600080fd5b506040805160206004803580820135601f81018490048402850184019095528484526102f2943694929360249392840191908190840183828082843750949750612a169650505050505050565b348015610aed57600080fd5b50610af9600435612a9a565b6040518087815260200186815260200185600160a060020a0316600160a060020a03168152602001806020018060200180602001848103845287818151815260200191508051906020019080838360005b83811015610b62578181015183820152602001610b4a565b50505050905090810190601f168015610b8f5780820380516001836020036101000a031916815260200191505b50848103835286518152865160209182019188019080838360005b83811015610bc2578181015183820152602001610baa565b50505050905090810190601f168015610bef5780820380516001836020036101000a031916815260200191505b50848103825285518152855160209182019187019080838360005b83811015610c22578181015183820152602001610c0a565b50505050905090810190601f168015610c4f5780820380516001836020036101000a031916815260200191505b50995050505050505050505060405180910390f35b348015610c7057600080fd5b50610324612cf0565b348015610c8557600080fd5b506102a5600435612cf6565b348015610c9d57600080fd5b506102c9600435602435612d49565b348015610cb857600080fd5b50604080516020601f6064356004818101359283018490048402850184019095528184526102c9948035946024803595600160a060020a0360443516953695608494930191819084018382808284375050604080516020601f89358b018035918201839004830284018301909452808352979a99988101979196509182019450925082915084018382808284375050604080516020601f89358b018035918201839004830284018301909452808352979a99988101979196509182019450925082915084018382808284375050604080516020601f89358b018035918201839004830284018301909452808352979a999881019791965091820194509250829150840183828082843750949750612d5d9650505050505050565b348015610dde57600080fd5b506102a560043561317e565b348015610df657600080fd5b506103246131d1565b348015610e0b57600080fd5b506102a5600160a060020a03600435166131d6565b348015610e2c57600080fd5b5061032461320a565b600160e060020a03191660009081526006602052604090205460ff1690565b7f01ffc9a7000000000000000000000000000000000000000000000000000000005b90565b600381565b600181565b6060600080610e906142fb565b60008581526002602090815260409182902082518154608093810282018401909452606081018481529093919284928491840182828015610ef057602002820191906000526020600020905b815481526020019060010190808311610edc575b505050918352505060018201546020808301919091526002909201546040918201528251918301519201519097919650945092505050565b600082826040516020018083600160a060020a0316600160a060020a03166c01000000000000000000000000028152601401828152602001925050506040516020818303038152906040526040518082805190602001908083835b60208310610fa25780518252601f199092019160209182019101610f83565b5181516020939093036101000a600019018019909116921691909117905260405192018290039091209695505050505050565b6000610fe082611f95565b9050610fee81600180613210565b610ffb8160026001613210565b6110088160036001613210565b6001600081815581805560069061101d6129f2565b61102561241a565b18600160e060020a03191681526020810191909152604001600020805460ff19169115159190911790555050565b60008383836040516020018084600160a060020a0316600160a060020a03166c0100000000000000000000000002815260140183815260200182805190602001908083835b602083106110b75780518252601f199092019160209182019101611098565b6001836020036101000a03801982511681845116808217855250505050505090500193505050506040516020818303038152906040526040518082805190602001908083835b6020831061111c5780518252601f1990920191602091820191016110fd565b6001836020036101000a038019825116818451168082178552505050505050905001915050604051809103902090505b9392505050565b600061115d613257565b151561116857600080fd5b60055460ff161561117857600080fd5b61118a6002858563ffffffff61328916565b156111975750600061114c565b6111a2848484613210565b5060019392505050565b6000908152600a6020526040902060020154600160a060020a0316151590565b6000818152600b602090815260409182902080548351818402810184019094528084526060939283018282801561122357602002820191906000526020600020905b8154815260019091019060200180831161120e575b50505050509050919050565b600281565b60075490565b60015481565b600061114c826040805190810160405280601c81526020017f19457468657265756d205369676e6564204d6573736167653a0a333200000000815250856040516020018083805190602001908083835b602083106112af5780518252601f199092019160209182019101611290565b51815160209384036101000a600019018019909216911617905292019384525060408051808503815293820190819052835193945092839250908401908083835b6020831061130f5780518252601f1990920191602091820191016112f0565b5181516020939093036101000a600019018019909116921691909117905260405192018290039091209392505061336d9050565b61134b613257565b151561135657600080fd5b60055460ff16151561136757600080fd5b6005805460ff191690556040517f730c1faaa977b67dacf1e2451ef54556e04a07d577785ff79f6d31f73502efc990600090a1565b600554600090819060ff16156113b157600080fd5b6114ac878787876040516020018085600160a060020a0316600160a060020a03166c0100000000000000000000000002815260140184815260200183805190602001908083835b602083106114175780518252601f1990920191602091820191016113f8565b51815160209384036101000a6000190180199092169116179052920193845250604080518085038152938201908190528351939650945084935085019190508083835b602083106114795780518252601f19909201916020918201910161145a565b6001836020036101000a038019825116818451168082178552505050505050905001915050604051809103902084611240565b90506114ba8188888861343d565b91505b5095945050505050565b60006114d161431b565b600554600090819060ff16156114e657600080fd5b6000858152600a60205260409020600201548590600160a060020a031680151561150f57600080fd5b611517613257565b15611521576115fa565b33600160a060020a0382161415611537576115fa565b61155861154261241a565b600160a060020a0383169063ffffffff6135f916565b156115f55780600160a060020a031663d202158d61157533611f95565b6040805160e060020a63ffffffff85160281526004810192909252600260248301525160448083019260209291908290030181600087803b1580156115b957600080fd5b505af11580156115cd573d6000803e3d6000fd5b505050506040513d60208110156115e357600080fd5b505115156115f057600080fd5b6115fa565b600080fd5b6000878152600a6020908152604091829020825160c0810184528154815260018083015482850152600280840154600160a060020a0316838701526003840180548751601f9482161561010002600019019091169290920492830186900486028201860190965281815291949293606086019391908301828280156116c05780601f10611695576101008083540402835291602001916116c0565b820191906000526020600020905b8154815290600101906020018083116116a357829003601f168201915b505050918352505060048201805460408051602060026001851615610100026000190190941693909304601f81018490048402820184019092528181529382019392918301828280156117545780601f1061172957610100808354040283529160200191611754565b820191906000526020600020905b81548152906001019060200180831161173757829003601f168201915b505050918352505060058201805460408051602060026001851615610100026000190190941693909304601f81018490048402820184019092528181529382019392918301828280156117e85780601f106117bd576101008083540402835291602001916117e8565b820191906000526020600020905b8154815290600101906020018083116117cb57829003601f168201915b505050919092525050506040810151909550600160a060020a0316151561180e57600080fd5b6000878152600a6020526040812081815560018101829055600281018054600160a060020a031916905590611846600383018261435b565b61185460048301600061435b565b61186260058301600061435b565b505084516000908152600b60205260408120945092505b8354831015611919578354879085908590811061189257fe5b600091825260209091200154141561190e578354849060001981019081106118b657fe5b906000526020600020015484848154811015156118cf57fe5b6000918252602090912001558354849060001981019081106118ed57fe5b600091825260208220015583546119088560001983016143a2565b50611919565b600190920191611879565b600c60008154809291906001900391905055508460400151600160a060020a0316856000015188600019167f3cf57863a89432c61c4a27073c6ee39e8a764bff5a05aebfbcdcdc80b2e6130a886020015189606001518a608001518b60a0015160405180858152602001806020018060200180602001848103845287818151815260200191508051906020019080838360005b838110156119c45781810151838201526020016119ac565b50505050905090810190601f1680156119f15780820380516001836020036101000a031916815260200191505b50848103835286518152865160209182019188019080838360005b83811015611a24578181015183820152602001611a0c565b50505050905090810190601f168015611a515780820380516001836020036101000a031916815260200191505b50848103825285518152855160209182019187019080838360005b83811015611a84578181015183820152602001611a6c565b50505050905090810190601f168015611ab15780820380516001836020036101000a031916815260200191505b5097505050505050505060405180910390a45060019695505050505050565b600080611adb613257565b1515611ae657600080fd5b60055460ff1615611af657600080fd5b611b086002858563ffffffff61328916565b1515611b175760009150611b60565b611b296002858563ffffffff6136b016565b6040519091508190849086907f585a4aef50f8267a92b32412b331b20f7f8b96f2245b253b9cc50dcc621d339790600090a4600191505b5092915050565b60055460ff1681565b6000611b7a61431b565b60055460ff1615611b8a57600080fd5b6000838152600a60205260409020600201548390600160a060020a0316801515611bb357600080fd5b611bbb613257565b15611bc557611c7e565b33600160a060020a0382161415611bdb57611c7e565b611be661154261241a565b156115f55780600160a060020a031663d202158d611c0333611f95565b6040805160e060020a63ffffffff85160281526004810192909252600260248301525160448083019260209291908290030181600087803b158015611c4757600080fd5b505af1158015611c5b573d6000803e3d6000fd5b505050506040513d6020811015611c7157600080fd5b50511515611c7e57600080fd5b6000858152600a6020908152604091829020825160c0810184528154815260018083015482850152600280840154600160a060020a0316838701526003840180548751601f948216156101000260001901909116929092049283018690048602820186019096528181529194929360608601939190830182828015611d445780601f10611d1957610100808354040283529160200191611d44565b820191906000526020600020905b815481529060010190602001808311611d2757829003601f168201915b505050918352505060048201805460408051602060026001851615610100026000190190941693909304601f8101849004840282018401909252818152938201939291830182828015611dd85780601f10611dad57610100808354040283529160200191611dd8565b820191906000526020600020905b815481529060010190602001808311611dbb57829003601f168201915b505050918352505060058201805460408051602060026001851615610100026000190190941693909304601f8101849004840282018401909252818152938201939291830182828015611e6c5780601f10611e4157610100808354040283529160200191611e6c565b820191906000526020600020905b815481529060010190602001808311611e4f57829003601f168201915b505050919092525050506040810151909350600160a060020a03161515611e9257600080fd5b611eb38360000151846020015185604001518660600151876080015161385b565b1515611ecc57611ec2856114c7565b5060009350611ed1565b600193505b505050919050565b60086020908152600091825260409182902080546001808301546002808501805488516101009582161595909502600019011691909104601f8101879004870284018701909752868352600160a060020a03909316959094919291830182828015611f855780601f10611f5a57610100808354040283529160200191611f85565b820191906000526020600020905b815481529060010190602001808311611f6857829003601f168201915b5050505050908060030154905084565b600160a060020a031690565b600960205281600052604060002081815481101515611fbc57fe5b600091825260209091200154600160a060020a03169150829050565b6000611fe2613257565b1515611fed57600080fd5b60055460ff1615611ffd57600080fd5b61200e60028663ffffffff61399216565b151561201957600080fd5b61202d60028686868663ffffffff613a2416565b50600195945050505050565b60055460009081908190819060ff161561205257600080fd5b85151561205e57600080fd5b60008681526008602052604090208054909350600160a060020a0316151561208557600080fd5b825460028085018054604080516020601f600019600186161561010002019094169590950492830185900485028101850190915281815261212c943394600160a060020a03909116939192908301828280156121225780601f106120f757610100808354040283529160200191612122565b820191906000526020600020905b81548152906001019060200180831161210557829003601f168201915b5050505050613a6d565b50604080518615158152905187917fb3932da477fe5d6c8ff2eafef050c0f3a1af18fc07121001482600f36f3715d8919081900360200190a260008681526009602052604090209150841515612277575060005b815481101561226e578154339083908390811061219957fe5b600091825260209091200154600160a060020a03161415612266578154829060001981019081106121c657fe5b6000918252602090912001548254600160a060020a03909116908390839081106121ec57fe5b60009182526020909120018054600160a060020a031916600160a060020a039290921691909117905581548290600019810190811061222757fe5b60009182526020909120018054600160a060020a031916905581546122508360001983016143a2565b50600383018054600190810190915593506123cf565b600101612180565b600093506123cf565b5060005b81548110156122bc578154339083908390811061229457fe5b600091825260209091200154600160a060020a031614156122b457600080fd5b60010161227b565b8154600181018355600083815260209020018054600160a060020a03191633179055600383018054600019019081905515156123ca57604080516080810182528454600160a060020a031681526001808601546020808401919091526002808801805486516101009582161595909502600019011691909104601f810183900483028401830186528084526123c3958c95948a9491860193909290918301828280156123a95780601f1061237e576101008083540402835291602001916123a9565b820191906000526020600020905b81548152906001019060200180831161238c57829003601f168201915b505050505081526020016003820154815250506001613c1e565b93506123cf565b600193505b50505092915050565b6000838152600260209081526040808320600160a060020a03861684526003018252808320600160e060020a03198516845290915290205460ff169392505050565b7fdc3d2a7b0000000000000000000000000000000000000000000000000000000090565b612446613257565b151561245157600080fd5b60055460ff161561246157600080fd5b6005805460ff191660011790556040517f4b314b34e912fda7f95e7d23e9c8c95f82f0aff1984e4ce592a0b005f905562490600090a1565b60008181526003602090815260409182902080548351818402810184019094528084526060939283018282801561122357602002820191906000526020600020908154815260019091019060200180831161120e5750505050509050919050565b600481565b60005481565b60075481565b600881565b60055460009081908190819060ff161561252957600080fd5b6125368a8a8a8a8a61385b565b151561254157600080fd5b612549613257565b9250821515612797576040517fb61d27f600000000000000000000000000000000000000000000000000000000815230600482018181526000602484018190526060604485019081523660648601819052939463b61d27f694869484939192909190608401848480828437820191505095505050505050602060405180830381600087803b1580156125da57600080fd5b505af11580156125ee573d6000803e3d6000fd5b505050506040513d602081101561260457600080fd5b8101908080519060200190929190505050935087600160a060020a03168a857fe6b6db97dedfb44cbced367387e40b3f92dbee1b1be87f9367f7b673532b0d698c8b8b8b60405180858152602001806020018060200180602001848103845287818151815260200191508051906020019080838360005b8381101561269357818101518382015260200161267b565b50505050905090810190601f1680156126c05780820380516001836020036101000a031916815260200191505b50848103835286518152865160209182019188019080838360005b838110156126f35781810151838201526020016126db565b50505050905090810190601f1680156127205780820380516001836020036101000a031916815260200191505b50848103825285518152855160209182019187019080838360005b8381101561275357818101518382015260200161273b565b50505050905090810190601f1680156127805780820380516001836020036101000a031916815260200191505b5097505050505050505060405180910390a46129b4565b6127a1888b610f28565b6000818152600a6020526040902060020154909250600160a060020a031615156127d9576127d4828b8b8b8b8b8b613ea0565b6129b4565b506000818152600a60209081526040909120600181018a9055875190916128079160038401918a01906143cb565b50855161281d90600483019060208901906143cb565b50845161283390600583019060208801906143cb565b5087600160a060020a03168a83600019167f3bab293fc00db832d7619a9299914251b8747c036867ec056cbd506f60135b138c8b8b8b60405180858152602001806020018060200180602001848103845287818151815260200191508051906020019080838360005b838110156128b457818101518382015260200161289c565b50505050905090810190601f1680156128e15780820380516001836020036101000a031916815260200191505b50848103835286518152865160209182019188019080838360005b838110156129145781810151838201526020016128fc565b50505050905090810190601f1680156129415780820380516001836020036101000a031916815260200191505b50848103825285518152855160209182019187019080838360005b8381101561297457818101518382015260200161295c565b50505050905090810190601f1680156129a15780820380516001836020036101000a031916815260200191505b5097505050505050505060405180910390a45b5050509695505050505050565b600581565b60055460009060ff16156129d957600080fd5b6129e53385858561343d565b949350505050565b600781565b7f107653790000000000000000000000000000000000000000000000000000000090565b600080805b6004811015611b6057806008028482815181101515612a3657fe5b60209101015160029190910a7f0100000000000000000000000000000000000000000000000000000000000000918290049091027fff0000000000000000000000000000000000000000000000000000000000000016049190911790600101612a1b565b60008060006060806060612aac61431b565b6000888152600a6020908152604091829020825160c0810184528154815260018083015482850152600280840154600160a060020a0316838701526003840180548751601f948216156101000260001901909116929092049283018690048602820186019096528181529194929360608601939190830182828015612b725780601f10612b4757610100808354040283529160200191612b72565b820191906000526020600020905b815481529060010190602001808311612b5557829003601f168201915b505050918352505060048201805460408051602060026001851615610100026000190190941693909304601f8101849004840282018401909252818152938201939291830182828015612c065780601f10612bdb57610100808354040283529160200191612c06565b820191906000526020600020905b815481529060010190602001808311612be957829003601f168201915b505050918352505060058201805460408051602060026001851615610100026000190190941693909304601f8101849004840282018401909252818152938201939291830182828015612c9a5780601f10612c6f57610100808354040283529160200191612c9a565b820191906000526020600020905b815481529060010190602001808311612c7d57829003601f168201915b505050919092525050506040810151909150600160a060020a03161515612cc057600080fd5b8051602082015160408301516060840151608085015160a090950151939c929b5090995097509195509350915050565b60045490565b60055460009060ff1615612d0957600080fd5b612d11613257565b1515612d1c57600080fd5b60008211612d2957600080fd5b612d336001612499565b51905080821115612d4357600080fd5b50600055565b600061114c6002848463ffffffff61328916565b60055460009081908190819060ff1615612d7657600080fd5b612d838b8b8b8b8b61385b565b1515612d8e57600080fd5b612f278b8b8b8b8b8b6040516020018087815260200186815260200185600160a060020a0316600160a060020a03166c0100000000000000000000000002815260140184805190602001908083835b60208310612dfc5780518252601f199092019160209182019101612ddd565b51815160209384036101000a600019018019909216911617905286519190930192860191508083835b60208310612e445780518252601f199092019160209182019101612e25565b51815160209384036101000a600019018019909216911617905285519190930192850191508083835b60208310612e8c5780518252601f199092019160209182019101612e6d565b6001836020036101000a03801982511681845116808217855250505050505090500196505050505050506040516020818303038152906040526040518082805190602001908083835b60208310612ef45780518252601f199092019160209182019101612ed5565b6001836020036101000a038019825116818451168082178552505050505050905001915050604051809103902086611240565b9250612f45612f3584611f95565b600290600163ffffffff61328916565b1515612f5057600080fd5b612f5a898c610f28565b6000818152600a6020526040902060020154909250600160a060020a03161515612f9257612f8d828c8c8c8c8c8c613ea0565b61316d565b506000818152600a60209081526040909120600181018b905588519091612fc09160038401918b01906143cb565b508651612fd690600483019060208a01906143cb565b508551612fec90600583019060208901906143cb565b5088600160a060020a03168b83600019167f3bab293fc00db832d7619a9299914251b8747c036867ec056cbd506f60135b138d8c8c8c60405180858152602001806020018060200180602001848103845287818151815260200191508051906020019080838360005b8381101561306d578181015183820152602001613055565b50505050905090810190601f16801561309a5780820380516001836020036101000a031916815260200191505b50848103835286518152865160209182019188019080838360005b838110156130cd5781810151838201526020016130b5565b50505050905090810190601f1680156130fa5780820380516001836020036101000a031916815260200191505b50848103825285518152855160209182019187019080838360005b8381101561312d578181015183820152602001613115565b50505050905090810190601f16801561315a5780820380516001836020036101000a031916815260200191505b5097505050505050505060405180910390a45b5060019a9950505050505050505050565b60055460009060ff161561319157600080fd5b613199613257565b15156131a457600080fd5b600082116131b157600080fd5b6131bb6002612499565b519050808211156131cb57600080fd5b50600155565b600681565b6131de613257565b15156131e957600080fd5b600160a060020a03811615156131fe57600080fd5b80600160a060020a0316ff5b600c5481565b613223600284848463ffffffff61411816565b6040518190839085907f480000bb1edad8ca1470381cc334b1917fbd51c6531f3a623ea8e0ec7e38a6e990600090a4505050565b60003330141561326957506001610e76565b60005460011461327857600080fd5b613284612f3533611f95565b905090565b60006132936142fb565b60008481526020868152604080832081518154608094810282018501909352606081018381529093919284928491908401828280156132f157602002820191906000526020600020905b8154815260200190600101908083116132dd575b50505091835250506001820154602082015260029091015460409182015281015190925015156133245760009250613364565b5060005b81515181101561336457815180518591908390811061334357fe5b90602001906020020151141561335c5760019250613364565b600101613328565b50509392505050565b6000806000808451604114151561338757600093506123cf565b50505060208201516040830151606084015160001a601b60ff821610156133ac57601b015b8060ff16601b141580156133c457508060ff16601c14155b156133d257600093506123cf565b60408051600080825260208083018085528a905260ff8516838501526060830187905260808301869052925160019360a0808501949193601f19840193928390039091019190865af115801561342c573d6000803e3d6000fd5b5050506020604051035193506123cf565b600080613448614449565b613453878786613a6d565b915061346430878787600754614189565b92508486600160a060020a0316847f8afcfabcb00e47a53a8fc3e9f23ff47ee1926194bb1350dd007c50b412a6cee8876040518080602001828103825283818151815260200191508051906020019080838360005b838110156134d15781810151838201526020016134b9565b50505050905090810190601f1680156134fe5780820380516001836020036101000a031916815260200191505b509250505060405180910390a45060078054600101905560408051608081018252600160a060020a038716815260208101869052908101849052606081018290528115156135585761355283826000613c1e565b506135ef565b60008381526008602090815260409182902083518154600160a060020a031916600160a060020a039091161781558382015160018201559183015180518493926135a99260028501929101906143cb565b50606091909101516003909101556000838152600960209081526040822080546001810182559083529120018054600160a060020a031916600160a060020a0389161790555b5050949350505050565b60008080613627857f01ffc9a7000000000000000000000000000000000000000000000000000000006142af565b9092509050811580613637575080155b1561364557600092506136a8565b61365785600160e060020a03196142af565b909250905081158061366857508015155b1561367657600092506136a8565b61368085856142af565b90925090506001821480156136955750806001145b156136a357600192506136a8565b600092505b505092915050565b6000828152602084905260408120600181015491805b8254821015613770578483838154811015156136de57fe5b906000526020600020015414156137655782548390600019810190811061370157fe5b9060005260206000200154838381548110151561371a57fe5b60009182526020909120015582548390600019810190811061373857fe5b600091825260208220015582546137538460001983016143a2565b50600287018054600019019055613770565b6001909101906136c6565b825415156137a257600086815260208890526040812090613791828261447b565b506000600182018190556002909101555b5050600083815260018601602052604081205b805482101561385157805486908290849081106137ce57fe5b6000918252602090912001541415613846578054819060001981019081106137f257fe5b9060005260206000200154818381548110151561380b57fe5b60009182526020909120015580548190600019810190811061382957fe5b600091825260208220015580546138448260001983016143a2565b505b6001909101906137b5565b5050509392505050565b60008060018614156139895761387b613875308986611053565b85611240565b905080600160a060020a031685600160a060020a031614156138a057600191506114bd565b600160a060020a0385163014156138d4576138cd6138bd82611f95565b600290600363ffffffff61328916565b91506114bd565b6138f56138df61241a565b600160a060020a0387169063ffffffff6135f916565b156139895784600160a060020a031663d202158d61391283611f95565b6040805160e060020a63ffffffff85160281526004810192909252600360248301525160448083019260209291908290030181600087803b15801561395657600080fd5b505af115801561396a573d6000803e3d6000fd5b505050506040513d602081101561398057600080fd5b505191506114bd565b600091506114bd565b600061399c6142fb565b60008381526020858152604091829020825181546080938102820184019094526060810184815290939192849284918401828280156139fa57602002820191906000526020600020905b8154815260200190600101908083116139e6575b50505091835250506001820154602082015260029091015460409182015201511515949350505050565b600093845260209485526040808520600160a060020a0394909416855260039093018552828420600160e060020a031992909216845293529020805460ff191682151517905590565b6000600160a060020a038316301415613b1857600160a060020a038416301415613a9a5750600054613b13565b613aa6612f3585611f95565b80613b055750613ac8613ab885611f95565b600290600763ffffffff61328916565b8015613b0557507f1d38124000000000000000000000000000000000000000000000000000000000613af983612a16565b600160e060020a031916145b156115f55750600054600019015b61114c565b600160a060020a0383161515613b2d57600080fd5b600160a060020a038416301415613b47575060015461114c565b613b62613b5385611f95565b6002908163ffffffff61328916565b80613b845750613b84613b7485611f95565b600290600663ffffffff61328916565b80613c0c5750613ba6613b9685611f95565b600290600863ffffffff61328916565b8015613c0c575060026000613bba86611f95565b815260208082019290925260409081016000908120600160a060020a0387168252600301909252812090613bed84612a16565b600160e060020a031916815260208101919091526040016000205460ff165b156115f557506001546000190161114c565b81516000908190600160a060020a03161515613c3957600080fd5b8360000151600160a060020a03168460200151856040015160405180828051906020019080838360005b83811015613c7b578181015183820152602001613c63565b50505050905090810190601f168015613ca85780820380516001836020036101000a031916815260200191505b5091505060006040518083038185875af1925050509050801515613d805783602001518460000151600160a060020a0316867fe10c49d9f7c71da23262367013434763cfdb2332267641728d25cd712c5c6a6887604001516040518080602001828103825283818151815260200191508051906020019080838360005b83811015613d3d578181015183820152602001613d25565b50505050905090810190601f168015613d6a5780820380516001836020036101000a031916815260200191505b509250505060405180910390a460009150613e98565b83602001518460000151600160a060020a0316867f1f920dbda597d7bf95035464170fa58d0a4b57f13a1c315ace6793b9f63688b887604001516040518080602001828103825283818151815260200191508051906020019080838360005b83811015613df7578181015183820152602001613ddf565b50505050905090810190601f168015613e245780820380516001836020036101000a031916815260200191505b509250505060405180910390a4821515613e415760019150613e98565b60008581526008602052604081208054600160a060020a03191681556001810182905590613e72600283018261435b565b506000600391909101819055858152600960205260408120613e939161447b565b600191505b509392505050565b6040805160c0810182528781526020808201888152600160a060020a03888116848601908152606085018981526080860189905260a0860188905260008e8152600a865296909620855181559251600184015551600283018054600160a060020a0319169190921617905592518051929392613f2292600385019201906143cb565b5060808201518051613f3e9160048401916020909101906143cb565b5060a08201518051613f5a9160058401916020909101906143cb565b5050506000868152600b60209081526040808320805460018181018355918552838520018b9055600c80549091019055805188815260808184018181528851918301919091528751600160a060020a038a16958c958e957f46149b18aa084502c3f12bc75e19eda8bda8d102b82cce8474677a6d0d5f43c5958e958d958d958d959394929392850192606086019260a0870192918a01918190849084905b83811015614010578181015183820152602001613ff8565b50505050905090810190601f16801561403d5780820380516001836020036101000a031916815260200191505b50848103835286518152865160209182019188019080838360005b83811015614070578181015183820152602001614058565b50505050905090810190601f16801561409d5780820380516001836020036101000a031916815260200191505b50848103825285518152855160209182019187019080838360005b838110156140d05781810151838201526020016140b8565b50505050905090810190601f1680156140fd5780820380516001836020036101000a031916815260200191505b5097505050505050505060405180910390a450505050505050565b600083815260208581526040822080546001810182558184529190922001839055600281015415156141535760028101849055600181018290555b50506000908152600180840160209081526040832080548084018255908452922090910191909155600290910180549091019055565b600085858585856040516020018086600160a060020a0316600160a060020a03166c0100000000000000000000000002815260140185600160a060020a0316600160a060020a03166c0100000000000000000000000002815260140184815260200183805190602001908083835b602083106142165780518252601f1990920191602091820191016141f7565b51815160209384036101000a600019018019909216911617905292019384525060408051808503815293820190819052835193975095508594508601925081905083835b602083106142795780518252601f19909201916020918201910161425a565b5181516020939093036101000a600019018019909116921691909117905260405192018290039091209998505050505050505050565b6040517f01ffc9a70000000000000000000000000000000000000000000000000000000080825260048201839052600091829190602081818189617530fa905190969095509350505050565b604080516060818101835281526000602082018190529181019190915290565b60c06040519081016040528060008152602001600081526020016000600160a060020a031681526020016060815260200160608152602001606081525090565b50805460018160011615610100020316600290046000825580601f10614381575061439f565b601f01602090049060005260206000209081019061439f9190614495565b50565b8154818355818111156143c6576000838152602090206143c6918101908301614495565b505050565b828054600181600116156101000203166002900490600052602060002090601f016020900481019282601f1061440c57805160ff1916838001178555614439565b82800160010185558215614439579182015b8281111561443957825182559160200191906001019061441e565b50614445929150614495565b5090565b6080604051908101604052806000600160a060020a031681526020016000815260200160608152602001600081525090565b508054600082559060005260206000209081019061439f91905b610e7691905b80821115614445576000815560010161449b5600a165627a7a723058206e5c1cafbc676591d09156d537d2d4681795b4e685a2398b459718c27c853cba0029",
  "source": "pragma solidity ^0.4.24;\n\nimport \"./Destructible.sol\";\nimport \"./ERC735.sol\";\nimport \"./KeyGetters.sol\";\nimport \"./KeyManager.sol\";\nimport \"./MultiSig.sol\";\nimport \"./ClaimManager.sol\";\nimport \"./Slice.sol\";\n\n/// @title MetaIdentity\n/// @author Metadium, genie\n/// @notice Identity contract implementing ERC 725, ERC 735 and Metadium features.\n\ncontract MetaIdentityLib is KeyManager, MultiSig, ClaimManager, Destructible, KeyGetters {\n    using Slice for bytes;\n    using Slice for string;\n\n    function init(address _managementKey) public {\n        bytes32 senderKey = addrToKey(_managementKey);\n        \n        // Add key that deployed the contract for MANAGEMENT, ACTION, CLAIM\n        _addKey(senderKey, MANAGEMENT_KEY, ECDSA_TYPE);\n        _addKey(senderKey, ACTION_KEY, ECDSA_TYPE);\n        _addKey(senderKey, CLAIM_SIGNER_KEY, ECDSA_TYPE);\n        \n        managementThreshold = 1;\n        actionThreshold = 1;\n\n        // Supports both ERC 725 & 735\n        supportedInterfaces[ERC725ID() ^ ERC735ID()] = true;\n    }\n    // Fallback function accepts Ether transactions\n    // solhint-disable-next-line no-empty-blocks\n    function () external payable {\n    }\n\n}",
  "sourcePath": "/Users/coinplug/BangGijin/metabolics2.0/contracts/identity/MetaIdentityLib.sol",
  "compiler": {
    "name": "solc",
    "version": "0.4.24+commit.e67f0147.Emscripten.clang"
  },
  "schemaVersion": "2.0.1",
  "updatedAt": "2018-11-12T07:30:47.511Z"
}