{
  "contractName": "MetaIdentity",
  "abi": [
    {
      "constant": true,
      "inputs": [
        {
          "name": "interfaceID",
          "type": "bytes4"
        }
      ],
      "name": "supportsInterface",
      "outputs": [
        {
          "name": "",
          "type": "bool"
        }
      ],
      "payable": false,
      "stateMutability": "view",
      "type": "function"
    },
    {
      "constant": true,
      "inputs": [],
      "name": "ERC165ID",
      "outputs": [
        {
          "name": "",
          "type": "bytes4"
        }
      ],
      "payable": false,
      "stateMutability": "pure",
      "type": "function"
    },
    {
      "constant": true,
      "inputs": [],
      "name": "REGISTRY_TOPIC",
      "outputs": [
        {
          "name": "",
          "type": "uint256"
        }
      ],
      "payable": false,
      "stateMutability": "view",
      "type": "function"
    },
    {
      "constant": true,
      "inputs": [],
      "name": "MANAGEMENT_KEY",
      "outputs": [
        {
          "name": "",
          "type": "uint256"
        }
      ],
      "payable": false,
      "stateMutability": "view",
      "type": "function"
    },
    {
      "constant": true,
      "inputs": [
        {
          "name": "_key",
          "type": "bytes32"
        }
      ],
      "name": "getKey",
      "outputs": [
        {
          "name": "purposes",
          "type": "uint256[]"
        },
        {
          "name": "keyType",
          "type": "uint256"
        },
        {
          "name": "key",
          "type": "bytes32"
        }
      ],
      "payable": false,
      "stateMutability": "view",
      "type": "function"
    },
    {
      "constant": true,
      "inputs": [
        {
          "name": "issuer",
          "type": "address"
        },
        {
          "name": "topic",
          "type": "uint256"
        }
      ],
      "name": "getClaimId",
      "outputs": [
        {
          "name": "",
          "type": "bytes32"
        }
      ],
      "payable": false,
      "stateMutability": "pure",
      "type": "function"
    },
    {
      "constant": true,
      "inputs": [
        {
          "name": "subject",
          "type": "address"
        },
        {
          "name": "topic",
          "type": "uint256"
        },
        {
          "name": "data",
          "type": "bytes"
        }
      ],
      "name": "claimToSign",
      "outputs": [
        {
          "name": "",
          "type": "bytes32"
        }
      ],
      "payable": false,
      "stateMutability": "pure",
      "type": "function"
    },
    {
      "constant": false,
      "inputs": [
        {
          "name": "_key",
          "type": "bytes32"
        },
        {
          "name": "_purpose",
          "type": "uint256"
        },
        {
          "name": "_keyType",
          "type": "uint256"
        }
      ],
      "name": "addKey",
      "outputs": [
        {
          "name": "success",
          "type": "bool"
        }
      ],
      "payable": false,
      "stateMutability": "nonpayable",
      "type": "function"
    },
    {
      "constant": true,
      "inputs": [
        {
          "name": "_claimId",
          "type": "bytes32"
        }
      ],
      "name": "isClaimExist",
      "outputs": [
        {
          "name": "",
          "type": "bool"
        }
      ],
      "payable": false,
      "stateMutability": "view",
      "type": "function"
    },
    {
      "constant": true,
      "inputs": [],
      "name": "CONTRACT_SCHEME",
      "outputs": [
        {
          "name": "",
          "type": "uint256"
        }
      ],
      "payable": false,
      "stateMutability": "view",
      "type": "function"
    },
    {
      "constant": true,
      "inputs": [
        {
          "name": "_topic",
          "type": "uint256"
        }
      ],
      "name": "getClaimIdsByType",
      "outputs": [
        {
          "name": "claimIds",
          "type": "bytes32[]"
        }
      ],
      "payable": false,
      "stateMutability": "view",
      "type": "function"
    },
    {
      "constant": true,
      "inputs": [],
      "name": "RSA_TYPE",
      "outputs": [
        {
          "name": "",
          "type": "uint256"
        }
      ],
      "payable": false,
      "stateMutability": "view",
      "type": "function"
    },
    {
      "constant": true,
      "inputs": [],
      "name": "getTransactionCount",
      "outputs": [
        {
          "name": "",
          "type": "uint256"
        }
      ],
      "payable": false,
      "stateMutability": "view",
      "type": "function"
    },
    {
      "constant": true,
      "inputs": [],
      "name": "actionThreshold",
      "outputs": [
        {
          "name": "",
          "type": "uint256"
        }
      ],
      "payable": false,
      "stateMutability": "view",
      "type": "function"
    },
    {
      "constant": true,
      "inputs": [
        {
          "name": "toSign",
          "type": "bytes32"
        },
        {
          "name": "signature",
          "type": "bytes"
        }
      ],
      "name": "getSignatureAddress",
      "outputs": [
        {
          "name": "",
          "type": "address"
        }
      ],
      "payable": false,
      "stateMutability": "pure",
      "type": "function"
    },
    {
      "constant": false,
      "inputs": [],
      "name": "unpause",
      "outputs": [],
      "payable": false,
      "stateMutability": "nonpayable",
      "type": "function"
    },
    {
      "constant": true,
      "inputs": [],
      "name": "ECDSA_TYPE",
      "outputs": [
        {
          "name": "",
          "type": "uint256"
        }
      ],
      "payable": false,
      "stateMutability": "view",
      "type": "function"
    },
    {
      "constant": false,
      "inputs": [
        {
          "name": "_to",
          "type": "address"
        },
        {
          "name": "_value",
          "type": "uint256"
        },
        {
          "name": "_data",
          "type": "bytes"
        },
        {
          "name": "_nonce",
          "type": "uint256"
        },
        {
          "name": "_sig",
          "type": "bytes"
        }
      ],
      "name": "delegatedExecute",
      "outputs": [
        {
          "name": "executionId",
          "type": "uint256"
        }
      ],
      "payable": false,
      "stateMutability": "nonpayable",
      "type": "function"
    },
    {
      "constant": false,
      "inputs": [
        {
          "name": "_claimId",
          "type": "bytes32"
        }
      ],
      "name": "removeClaim",
      "outputs": [
        {
          "name": "success",
          "type": "bool"
        }
      ],
      "payable": false,
      "stateMutability": "nonpayable",
      "type": "function"
    },
    {
      "constant": false,
      "inputs": [
        {
          "name": "_key",
          "type": "bytes32"
        },
        {
          "name": "_purpose",
          "type": "uint256"
        }
      ],
      "name": "removeKey",
      "outputs": [
        {
          "name": "success",
          "type": "bool"
        }
      ],
      "payable": false,
      "stateMutability": "nonpayable",
      "type": "function"
    },
    {
      "constant": true,
      "inputs": [],
      "name": "paused",
      "outputs": [
        {
          "name": "",
          "type": "bool"
        }
      ],
      "payable": false,
      "stateMutability": "view",
      "type": "function"
    },
    {
      "constant": false,
      "inputs": [
        {
          "name": "_claimId",
          "type": "bytes32"
        }
      ],
      "name": "refreshClaim",
      "outputs": [
        {
          "name": "",
          "type": "bool"
        }
      ],
      "payable": false,
      "stateMutability": "nonpayable",
      "type": "function"
    },
    {
      "constant": true,
      "inputs": [
        {
          "name": "",
          "type": "uint256"
        }
      ],
      "name": "execution",
      "outputs": [
        {
          "name": "to",
          "type": "address"
        },
        {
          "name": "value",
          "type": "uint256"
        },
        {
          "name": "data",
          "type": "bytes"
        },
        {
          "name": "needsApprove",
          "type": "uint256"
        }
      ],
      "payable": false,
      "stateMutability": "view",
      "type": "function"
    },
    {
      "constant": true,
      "inputs": [
        {
          "name": "addr",
          "type": "address"
        }
      ],
      "name": "addrToKey",
      "outputs": [
        {
          "name": "",
          "type": "bytes32"
        }
      ],
      "payable": false,
      "stateMutability": "pure",
      "type": "function"
    },
    {
      "constant": true,
      "inputs": [
        {
          "name": "",
          "type": "uint256"
        },
        {
          "name": "",
          "type": "uint256"
        }
      ],
      "name": "approved",
      "outputs": [
        {
          "name": "",
          "type": "address"
        }
      ],
      "payable": false,
      "stateMutability": "view",
      "type": "function"
    },
    {
      "constant": true,
      "inputs": [],
      "name": "METAID_TOPIC",
      "outputs": [
        {
          "name": "",
          "type": "uint256"
        }
      ],
      "payable": false,
      "stateMutability": "view",
      "type": "function"
    },
    {
      "constant": false,
      "inputs": [
        {
          "name": "_key",
          "type": "bytes32"
        },
        {
          "name": "_to",
          "type": "address"
        },
        {
          "name": "_func",
          "type": "bytes4"
        },
        {
          "name": "_executable",
          "type": "bool"
        }
      ],
      "name": "setFunc",
      "outputs": [
        {
          "name": "success",
          "type": "bool"
        }
      ],
      "payable": false,
      "stateMutability": "nonpayable",
      "type": "function"
    },
    {
      "constant": false,
      "inputs": [
        {
          "name": "_id",
          "type": "uint256"
        },
        {
          "name": "_approve",
          "type": "bool"
        }
      ],
      "name": "approve",
      "outputs": [
        {
          "name": "success",
          "type": "bool"
        }
      ],
      "payable": false,
      "stateMutability": "nonpayable",
      "type": "function"
    },
    {
      "constant": true,
      "inputs": [],
      "name": "ACTION_KEY",
      "outputs": [
        {
          "name": "",
          "type": "uint256"
        }
      ],
      "payable": false,
      "stateMutability": "view",
      "type": "function"
    },
    {
      "constant": true,
      "inputs": [
        {
          "name": "_key",
          "type": "bytes32"
        },
        {
          "name": "_to",
          "type": "address"
        },
        {
          "name": "_func",
          "type": "bytes4"
        }
      ],
      "name": "keyCanExecute",
      "outputs": [
        {
          "name": "executable",
          "type": "bool"
        }
      ],
      "payable": false,
      "stateMutability": "view",
      "type": "function"
    },
    {
      "constant": true,
      "inputs": [],
      "name": "ERC725ID",
      "outputs": [
        {
          "name": "",
          "type": "bytes4"
        }
      ],
      "payable": false,
      "stateMutability": "pure",
      "type": "function"
    },
    {
      "constant": true,
      "inputs": [],
      "name": "ECDSA_SCHEME",
      "outputs": [
        {
          "name": "",
          "type": "uint256"
        }
      ],
      "payable": false,
      "stateMutability": "view",
      "type": "function"
    },
    {
      "constant": false,
      "inputs": [],
      "name": "pause",
      "outputs": [],
      "payable": false,
      "stateMutability": "nonpayable",
      "type": "function"
    },
    {
      "constant": true,
      "inputs": [
        {
          "name": "_purpose",
          "type": "uint256"
        }
      ],
      "name": "getKeysByPurpose",
      "outputs": [
        {
          "name": "keys",
          "type": "bytes32[]"
        }
      ],
      "payable": false,
      "stateMutability": "view",
      "type": "function"
    },
    {
      "constant": true,
      "inputs": [],
      "name": "ENCRYPTION_KEY",
      "outputs": [
        {
          "name": "",
          "type": "uint256"
        }
      ],
      "payable": false,
      "stateMutability": "view",
      "type": "function"
    },
    {
      "constant": true,
      "inputs": [],
      "name": "RESIDENCE_TOPIC",
      "outputs": [
        {
          "name": "",
          "type": "uint256"
        }
      ],
      "payable": false,
      "stateMutability": "view",
      "type": "function"
    },
    {
      "constant": true,
      "inputs": [],
      "name": "managementThreshold",
      "outputs": [
        {
          "name": "",
          "type": "uint256"
        }
      ],
      "payable": false,
      "stateMutability": "view",
      "type": "function"
    },
    {
      "constant": true,
      "inputs": [],
      "name": "PROFILE_TOPIC",
      "outputs": [
        {
          "name": "",
          "type": "uint256"
        }
      ],
      "payable": false,
      "stateMutability": "view",
      "type": "function"
    },
    {
      "constant": true,
      "inputs": [],
      "name": "nonce",
      "outputs": [
        {
          "name": "",
          "type": "uint256"
        }
      ],
      "payable": false,
      "stateMutability": "view",
      "type": "function"
    },
    {
      "constant": true,
      "inputs": [],
      "name": "CUSTOM_KEY",
      "outputs": [
        {
          "name": "",
          "type": "uint256"
        }
      ],
      "payable": false,
      "stateMutability": "view",
      "type": "function"
    },
    {
      "constant": false,
      "inputs": [
        {
          "name": "_topic",
          "type": "uint256"
        },
        {
          "name": "_scheme",
          "type": "uint256"
        },
        {
          "name": "issuer",
          "type": "address"
        },
        {
          "name": "_signature",
          "type": "bytes"
        },
        {
          "name": "_data",
          "type": "bytes"
        },
        {
          "name": "_uri",
          "type": "string"
        }
      ],
      "name": "addClaim",
      "outputs": [
        {
          "name": "claimRequestId",
          "type": "uint256"
        }
      ],
      "payable": false,
      "stateMutability": "nonpayable",
      "type": "function"
    },
    {
      "constant": true,
      "inputs": [],
      "name": "LABEL_TOPIC",
      "outputs": [
        {
          "name": "",
          "type": "uint256"
        }
      ],
      "payable": false,
      "stateMutability": "view",
      "type": "function"
    },
    {
      "constant": false,
      "inputs": [
        {
          "name": "_to",
          "type": "address"
        },
        {
          "name": "_value",
          "type": "uint256"
        },
        {
          "name": "_data",
          "type": "bytes"
        }
      ],
      "name": "execute",
      "outputs": [
        {
          "name": "executionId",
          "type": "uint256"
        }
      ],
      "payable": false,
      "stateMutability": "nonpayable",
      "type": "function"
    },
    {
      "constant": true,
      "inputs": [],
      "name": "RESTORE_KEY",
      "outputs": [
        {
          "name": "",
          "type": "uint256"
        }
      ],
      "payable": false,
      "stateMutability": "view",
      "type": "function"
    },
    {
      "constant": true,
      "inputs": [],
      "name": "ERC735ID",
      "outputs": [
        {
          "name": "",
          "type": "bytes4"
        }
      ],
      "payable": false,
      "stateMutability": "pure",
      "type": "function"
    },
    {
      "constant": true,
      "inputs": [
        {
          "name": "b",
          "type": "bytes"
        }
      ],
      "name": "getFunctionSignature",
      "outputs": [
        {
          "name": "",
          "type": "bytes4"
        }
      ],
      "payable": false,
      "stateMutability": "pure",
      "type": "function"
    },
    {
      "constant": true,
      "inputs": [],
      "name": "CLAIM_SIGNER_KEY",
      "outputs": [
        {
          "name": "",
          "type": "uint256"
        }
      ],
      "payable": false,
      "stateMutability": "view",
      "type": "function"
    },
    {
      "constant": true,
      "inputs": [
        {
          "name": "_claimId",
          "type": "bytes32"
        }
      ],
      "name": "getClaim",
      "outputs": [
        {
          "name": "topic",
          "type": "uint256"
        },
        {
          "name": "scheme",
          "type": "uint256"
        },
        {
          "name": "issuer",
          "type": "address"
        },
        {
          "name": "signature",
          "type": "bytes"
        },
        {
          "name": "data",
          "type": "bytes"
        },
        {
          "name": "uri",
          "type": "string"
        }
      ],
      "payable": false,
      "stateMutability": "view",
      "type": "function"
    },
    {
      "constant": true,
      "inputs": [],
      "name": "numKeys",
      "outputs": [
        {
          "name": "",
          "type": "uint256"
        }
      ],
      "payable": false,
      "stateMutability": "view",
      "type": "function"
    },
    {
      "constant": false,
      "inputs": [
        {
          "name": "threshold",
          "type": "uint256"
        }
      ],
      "name": "changeManagementThreshold",
      "outputs": [],
      "payable": false,
      "stateMutability": "nonpayable",
      "type": "function"
    },
    {
      "constant": true,
      "inputs": [
        {
          "name": "_key",
          "type": "bytes32"
        },
        {
          "name": "purpose",
          "type": "uint256"
        }
      ],
      "name": "keyHasPurpose",
      "outputs": [
        {
          "name": "exists",
          "type": "bool"
        }
      ],
      "payable": false,
      "stateMutability": "view",
      "type": "function"
    },
    {
      "constant": true,
      "inputs": [],
      "name": "ASSIST_KEY",
      "outputs": [
        {
          "name": "",
          "type": "uint256"
        }
      ],
      "payable": false,
      "stateMutability": "view",
      "type": "function"
    },
    {
      "constant": false,
      "inputs": [
        {
          "name": "_topic",
          "type": "uint256"
        },
        {
          "name": "_scheme",
          "type": "uint256"
        },
        {
          "name": "issuer",
          "type": "address"
        },
        {
          "name": "_signature",
          "type": "bytes"
        },
        {
          "name": "_data",
          "type": "bytes"
        },
        {
          "name": "_uri",
          "type": "string"
        },
        {
          "name": "_idSignature",
          "type": "bytes"
        }
      ],
      "name": "addClaimByProxy",
      "outputs": [
        {
          "name": "success",
          "type": "bool"
        }
      ],
      "payable": false,
      "stateMutability": "nonpayable",
      "type": "function"
    },
    {
      "constant": false,
      "inputs": [
        {
          "name": "_id",
          "type": "uint256"
        },
        {
          "name": "_approve",
          "type": "bool"
        },
        {
          "name": "_nonce",
          "type": "uint256"
        },
        {
          "name": "_sig",
          "type": "bytes"
        }
      ],
      "name": "delegatedApprove",
      "outputs": [
        {
          "name": "success",
          "type": "bool"
        }
      ],
      "payable": false,
      "stateMutability": "nonpayable",
      "type": "function"
    },
    {
      "constant": false,
      "inputs": [
        {
          "name": "threshold",
          "type": "uint256"
        }
      ],
      "name": "changeActionThreshold",
      "outputs": [],
      "payable": false,
      "stateMutability": "nonpayable",
      "type": "function"
    },
    {
      "constant": true,
      "inputs": [],
      "name": "DELEGATE_KEY",
      "outputs": [
        {
          "name": "",
          "type": "uint256"
        }
      ],
      "payable": false,
      "stateMutability": "view",
      "type": "function"
    },
    {
      "constant": true,
      "inputs": [],
      "name": "RSA_SCHEME",
      "outputs": [
        {
          "name": "",
          "type": "uint256"
        }
      ],
      "payable": false,
      "stateMutability": "view",
      "type": "function"
    },
    {
      "constant": false,
      "inputs": [
        {
          "name": "_recipient",
          "type": "address"
        }
      ],
      "name": "destroyAndSend",
      "outputs": [],
      "payable": false,
      "stateMutability": "nonpayable",
      "type": "function"
    },
    {
      "constant": true,
      "inputs": [],
      "name": "numClaims",
      "outputs": [
        {
          "name": "",
          "type": "uint256"
        }
      ],
      "payable": false,
      "stateMutability": "view",
      "type": "function"
    },
    {
      "inputs": [
        {
          "name": "_managementKey",
          "type": "address"
        }
      ],
      "payable": false,
      "stateMutability": "nonpayable",
      "type": "constructor"
    },
    {
      "payable": true,
      "stateMutability": "payable",
      "type": "fallback"
    },
    {
      "anonymous": false,
      "inputs": [
        {
          "indexed": true,
          "name": "claimRequestId",
          "type": "uint256"
        },
        {
          "indexed": true,
          "name": "topic",
          "type": "uint256"
        },
        {
          "indexed": false,
          "name": "scheme",
          "type": "uint256"
        },
        {
          "indexed": true,
          "name": "issuer",
          "type": "address"
        },
        {
          "indexed": false,
          "name": "signature",
          "type": "bytes"
        },
        {
          "indexed": false,
          "name": "data",
          "type": "bytes"
        },
        {
          "indexed": false,
          "name": "uri",
          "type": "string"
        }
      ],
      "name": "ClaimRequested",
      "type": "event"
    },
    {
      "anonymous": false,
      "inputs": [
        {
          "indexed": true,
          "name": "claimId",
          "type": "bytes32"
        },
        {
          "indexed": true,
          "name": "topic",
          "type": "uint256"
        },
        {
          "indexed": false,
          "name": "scheme",
          "type": "uint256"
        },
        {
          "indexed": true,
          "name": "issuer",
          "type": "address"
        },
        {
          "indexed": false,
          "name": "signature",
          "type": "bytes"
        },
        {
          "indexed": false,
          "name": "data",
          "type": "bytes"
        },
        {
          "indexed": false,
          "name": "uri",
          "type": "string"
        }
      ],
      "name": "ClaimAdded",
      "type": "event"
    },
    {
      "anonymous": false,
      "inputs": [
        {
          "indexed": true,
          "name": "claimId",
          "type": "bytes32"
        },
        {
          "indexed": true,
          "name": "topic",
          "type": "uint256"
        },
        {
          "indexed": false,
          "name": "scheme",
          "type": "uint256"
        },
        {
          "indexed": true,
          "name": "issuer",
          "type": "address"
        },
        {
          "indexed": false,
          "name": "signature",
          "type": "bytes"
        },
        {
          "indexed": false,
          "name": "data",
          "type": "bytes"
        },
        {
          "indexed": false,
          "name": "uri",
          "type": "string"
        }
      ],
      "name": "ClaimRemoved",
      "type": "event"
    },
    {
      "anonymous": false,
      "inputs": [
        {
          "indexed": true,
          "name": "claimId",
          "type": "bytes32"
        },
        {
          "indexed": true,
          "name": "topic",
          "type": "uint256"
        },
        {
          "indexed": false,
          "name": "scheme",
          "type": "uint256"
        },
        {
          "indexed": true,
          "name": "issuer",
          "type": "address"
        },
        {
          "indexed": false,
          "name": "signature",
          "type": "bytes"
        },
        {
          "indexed": false,
          "name": "data",
          "type": "bytes"
        },
        {
          "indexed": false,
          "name": "uri",
          "type": "string"
        }
      ],
      "name": "ClaimChanged",
      "type": "event"
    },
    {
      "anonymous": false,
      "inputs": [
        {
          "indexed": true,
          "name": "key",
          "type": "bytes32"
        },
        {
          "indexed": true,
          "name": "purpose",
          "type": "uint256"
        },
        {
          "indexed": true,
          "name": "keyType",
          "type": "uint256"
        }
      ],
      "name": "KeyAdded",
      "type": "event"
    },
    {
      "anonymous": false,
      "inputs": [
        {
          "indexed": true,
          "name": "key",
          "type": "bytes32"
        },
        {
          "indexed": true,
          "name": "purpose",
          "type": "uint256"
        },
        {
          "indexed": true,
          "name": "keyType",
          "type": "uint256"
        }
      ],
      "name": "KeyRemoved",
      "type": "event"
    },
    {
      "anonymous": false,
      "inputs": [
        {
          "indexed": true,
          "name": "executionId",
          "type": "uint256"
        },
        {
          "indexed": true,
          "name": "to",
          "type": "address"
        },
        {
          "indexed": true,
          "name": "value",
          "type": "uint256"
        },
        {
          "indexed": false,
          "name": "data",
          "type": "bytes"
        }
      ],
      "name": "ExecutionRequested",
      "type": "event"
    },
    {
      "anonymous": false,
      "inputs": [
        {
          "indexed": true,
          "name": "executionId",
          "type": "uint256"
        },
        {
          "indexed": true,
          "name": "to",
          "type": "address"
        },
        {
          "indexed": true,
          "name": "value",
          "type": "uint256"
        },
        {
          "indexed": false,
          "name": "data",
          "type": "bytes"
        }
      ],
      "name": "Executed",
      "type": "event"
    },
    {
      "anonymous": false,
      "inputs": [
        {
          "indexed": true,
          "name": "executionId",
          "type": "uint256"
        },
        {
          "indexed": false,
          "name": "approved",
          "type": "bool"
        }
      ],
      "name": "Approved",
      "type": "event"
    },
    {
      "anonymous": false,
      "inputs": [
        {
          "indexed": true,
          "name": "executionId",
          "type": "uint256"
        },
        {
          "indexed": true,
          "name": "to",
          "type": "address"
        },
        {
          "indexed": true,
          "name": "value",
          "type": "uint256"
        },
        {
          "indexed": false,
          "name": "data",
          "type": "bytes"
        }
      ],
      "name": "ExecutionFailed",
      "type": "event"
    },
    {
      "anonymous": false,
      "inputs": [],
      "name": "LogPause",
      "type": "event"
    },
    {
      "anonymous": false,
      "inputs": [],
      "name": "LogUnpause",
      "type": "event"
    }
  ],
  "bytecode": "0x6080604052600160008190558080556005805460ff191690556007553480156200002857600080fd5b50604051602080620049c5833981016040525160006001600682620000556401000000006200022b810204565b7fffffffff0000000000000000000000000000000000000000000000000000000016815260208101919091526040016000908120805460ff191692151592909217909155600190600690620000b26401000000006200024f810204565b7fffffffff0000000000000000000000000000000000000000000000000000000016815260208101919091526040016000908120805460ff1916921515929092179091556001906006906200010f64010000000062000273810204565b7fffffffff000000000000000000000000000000000000000000000000000000001681526020810191909152604001600020805460ff1916911515919091179055620001648264010000000062000297810204565b90506200017d81600180640100000000620002a3810204565b620001958160026001640100000000620002a3810204565b620001ad8160036001640100000000620002a3810204565b60016000818155818055600690620001cd64010000000062000273810204565b620001e06401000000006200024f810204565b187fffffffff000000000000000000000000000000000000000000000000000000001681526020810191909152604001600020805460ff191691151591909117905550620003669050565b7f01ffc9a70000000000000000000000000000000000000000000000000000000090565b7fdc3d2a7b0000000000000000000000000000000000000000000000000000000090565b7f107653790000000000000000000000000000000000000000000000000000000090565b600160a060020a031690565b620002c0600284848464010000000062003e59620002f482021704565b6040518190839085907f480000bb1edad8ca1470381cc334b1917fbd51c6531f3a623ea8e0ec7e38a6e990600090a4505050565b60008381526020858152604082208054600181018255818452919092200183905560028101541515620003305760028101849055600181018290555b50506000908152600180840160209081526040832080548084018255908452922090910191909155600290910180549091019055565b61464f80620003766000396000f3006080604052600436106102a55763ffffffff60e060020a60003504166301ffc9a781146102a757806302e7491e146102dd5780630440b43a1461030f578063058b316c1461033657806312aaac701461034b578063190db862146103c45780631d203be8146103e85780631d38124014610451578063237434f01461046f578063251de3e91461030f578063262b54f5146104875780632d32d442146104ef5780632e7700f01461050457806338f4edd4146105195780633b8a12c81461052e5780633f4ba83a146105a857806349991ec8146103365780634da34c2c146105bd5780634eee424a1461066a57806353d413c5146106825780635c975abb1461069d5780635d7bc3fc146106b25780635dccebba146106ca57806363f14c3c146107815780636e4c4311146107a2578063710ca55014610336578063724a4b3b146107bd578063747442d3146107f357806375e5598c146104ef578063765b3042146108105780637d96fa581461084157806382d09446146103365780638456cb59146108565780639010f7261461086b5780639e140cc814610883578063a550f0c7146104ef578063aa0a514214610898578063ae62838614610883578063affed0e0146108ad578063b132734e146108c2578063b1a34e0d146108d7578063b1e9f64c146109bf578063b61d27f6146109d4578063b9133d6314610a3d578063bf2f20ad14610a52578063c32b351814610a67578063c67021871461030f578063c9100bcb14610ac0578063c9d24ecc14610c43578063ccfe586814610c58578063d202158d14610c70578063dbfa74b7146109bf578063e0610ba314610c8b578063e804c01b14610db1578063e99896b814610e16578063ead09fab14610e2e578063f22d08a6146104ef578063f5074f4114610e43578063fc0fc84914610e64575b005b3480156102b357600080fd5b506102c9600160e060020a031960043516610e79565b604080519115158252519081900360200190f35b3480156102e957600080fd5b506102f2610e98565b60408051600160e060020a03199092168252519081900360200190f35b34801561031b57600080fd5b50610324610ebd565b60408051918252519081900360200190f35b34801561034257600080fd5b50610324610ec2565b34801561035757600080fd5b50610363600435610ec7565b60408051602080820185905291810183905260608082528551908201528451909182916080830191878101910280838360005b838110156103ae578181015183820152602001610396565b5050505090500194505050505060405180910390f35b3480156103d057600080fd5b50610324600160a060020a0360043516602435610f6c565b3480156103f457600080fd5b50604080516020600460443581810135601f8101849004840285018401909552848452610324948235600160a060020a03169460248035953695946064949201919081908401838280828437509497506110199650505050505050565b34801561045d57600080fd5b506102c9600435602435604435611119565b34801561047b57600080fd5b506102c9600435611172565b34801561049357600080fd5b5061049f600435611192565b60408051602080825283518183015283519192839290830191858101910280838360005b838110156104db5781810151838201526020016104c3565b505050509050019250505060405180910390f35b3480156104fb57600080fd5b506103246111f5565b34801561051057600080fd5b506103246111fa565b34801561052557600080fd5b50610324611200565b34801561053a57600080fd5b5060408051602060046024803582810135601f810185900485028601850190965285855261058c9583359536956044949193909101919081908401838280828437509497506112069650505050505050565b60408051600160a060020a039092168252519081900360200190f35b3480156105b457600080fd5b506102a5611309565b3480156105c957600080fd5b50604080516020600460443581810135601f8101849004840285018401909552848452610324948235600160a060020a031694602480359536959460649492019190819084018382808284375050604080516020601f818a01358b0180359182018390048302840183018552818452989b8a359b909a9099940197509195509182019350915081908401838280828437509497506113629650505050505050565b34801561067657600080fd5b506102c96004356114fd565b34801561068e57600080fd5b506102c9600435602435611b06565b3480156106a957600080fd5b506102c9611b9d565b3480156106be57600080fd5b506102c9600435611ba6565b3480156106d657600080fd5b506106e2600435611f0f565b6040518085600160a060020a0316600160a060020a0316815260200184815260200180602001838152602001828103825284818151815260200191508051906020019080838360005b8381101561074357818101518382015260200161072b565b50505050905090810190601f1680156107705780820380516001836020036101000a031916815260200191505b509550505050505060405180910390f35b34801561078d57600080fd5b50610324600160a060020a0360043516611fcb565b3480156107ae57600080fd5b5061058c600435602435611fd7565b3480156107c957600080fd5b506102c9600435600160a060020a0360243516600160e060020a031960443516606435151561200e565b3480156107ff57600080fd5b506102c9600435602435151561206f565b34801561081c57600080fd5b506102c9600435600160a060020a0360243516600160e060020a03196044351661208d565b34801561084d57600080fd5b506102f26120cf565b34801561086257600080fd5b506102a56120f3565b34801561087757600080fd5b5061049f60043561214e565b34801561088f57600080fd5b506103246121af565b3480156108a457600080fd5b506103246121b4565b3480156108b957600080fd5b506103246121ba565b3480156108ce57600080fd5b506103246121c0565b3480156108e357600080fd5b50604080516020601f606435600481810135928301849004840285018401909552818452610324948035946024803595600160a060020a0360443516953695608494930191819084018382808284375050604080516020601f89358b018035918201839004830284018301909452808352979a99988101979196509182019450925082915084018382808284375050604080516020601f89358b018035918201839004830284018301909452808352979a9998810197919650918201945092508291508401838280828437509497506121c59650505050505050565b3480156109cb57600080fd5b50610324612676565b3480156109e057600080fd5b50604080516020600460443581810135601f8101849004840285018401909552848452610324948235600160a060020a031694602480359536959460649492019190819084018382808284375094975061267b9650505050505050565b348015610a4957600080fd5b506103246126a2565b348015610a5e57600080fd5b506102f26126a7565b348015610a7357600080fd5b506040805160206004803580820135601f81018490048402850184019095528484526102f29436949293602493928401919081908401838280828437509497506126cb9650505050505050565b348015610acc57600080fd5b50610ad860043561274f565b6040518087815260200186815260200185600160a060020a0316600160a060020a03168152602001806020018060200180602001848103845287818151815260200191508051906020019080838360005b83811015610b41578181015183820152602001610b29565b50505050905090810190601f168015610b6e5780820380516001836020036101000a031916815260200191505b50848103835286518152865160209182019188019080838360005b83811015610ba1578181015183820152602001610b89565b50505050905090810190601f168015610bce5780820380516001836020036101000a031916815260200191505b50848103825285518152855160209182019187019080838360005b83811015610c01578181015183820152602001610be9565b50505050905090810190601f168015610c2e5780820380516001836020036101000a031916815260200191505b50995050505050505050505060405180910390f35b348015610c4f57600080fd5b506103246129a5565b348015610c6457600080fd5b506102a56004356129ab565b348015610c7c57600080fd5b506102c96004356024356129fe565b348015610c9757600080fd5b50604080516020601f6064356004818101359283018490048402850184019095528184526102c9948035946024803595600160a060020a0360443516953695608494930191819084018382808284375050604080516020601f89358b018035918201839004830284018301909452808352979a99988101979196509182019450925082915084018382808284375050604080516020601f89358b018035918201839004830284018301909452808352979a99988101979196509182019450925082915084018382808284375050604080516020601f89358b018035918201839004830284018301909452808352979a999881019791965091820194509250829150840183828082843750949750612a129650505050505050565b348015610dbd57600080fd5b50604080516020601f6064356004818101359283018490048402850184019095528184526102c994803594602480351515956044359536956084949301918190840183828082843750949750612e339650505050505050565b348015610e2257600080fd5b506102a5600435612f4e565b348015610e3a57600080fd5b50610324612fa1565b348015610e4f57600080fd5b506102a5600160a060020a0360043516612fa6565b348015610e7057600080fd5b50610324612fda565b600160e060020a03191660009081526006602052604090205460ff1690565b7f01ffc9a7000000000000000000000000000000000000000000000000000000005b90565b600381565b600181565b6060600080610ed461446f565b60008581526002602090815260409182902082518154608093810282018401909452606081018481529093919284928491840182828015610f3457602002820191906000526020600020905b815481526020019060010190808311610f20575b505050918352505060018201546020808301919091526002909201546040918201528251918301519201519097919650945092505050565b600082826040516020018083600160a060020a0316600160a060020a03166c01000000000000000000000000028152601401828152602001925050506040516020818303038152906040526040518082805190602001908083835b60208310610fe65780518252601f199092019160209182019101610fc7565b5181516020939093036101000a600019018019909116921691909117905260405192018290039091209695505050505050565b60008383836040516020018084600160a060020a0316600160a060020a03166c0100000000000000000000000002815260140183815260200182805190602001908083835b6020831061107d5780518252601f19909201916020918201910161105e565b6001836020036101000a03801982511681845116808217855250505050505090500193505050506040516020818303038152906040526040518082805190602001908083835b602083106110e25780518252601f1990920191602091820191016110c3565b6001836020036101000a038019825116818451168082178552505050505050905001915050604051809103902090505b9392505050565b6000611123612fe0565b151561112e57600080fd5b60055460ff161561113e57600080fd5b6111506002858563ffffffff61301216565b1561115d57506000611112565b6111688484846130f6565b5060019392505050565b6000908152600a6020526040902060020154600160a060020a0316151590565b6000818152600b60209081526040918290208054835181840281018401909452808452606093928301828280156111e957602002820191906000526020600020905b815481526001909101906020018083116111d4575b50505050509050919050565b600281565b60075490565b60015481565b6000611112826040805190810160405280601c81526020017f19457468657265756d205369676e6564204d6573736167653a0a333200000000815250856040516020018083805190602001908083835b602083106112755780518252601f199092019160209182019101611256565b51815160209384036101000a600019018019909216911617905292019384525060408051808503815293820190819052835193945092839250908401908083835b602083106112d55780518252601f1990920191602091820191016112b6565b5181516020939093036101000a600019018019909116921691909117905260405192018290039091209392505061313d9050565b611311612fe0565b151561131c57600080fd5b60055460ff16151561132d57600080fd5b6005805460ff191690556040517f730c1faaa977b67dacf1e2451ef54556e04a07d577785ff79f6d31f73502efc990600090a1565b600554600090819060ff161561137757600080fd5b60075484146113e757604080517f08c379a000000000000000000000000000000000000000000000000000000000815260206004820152600e60248201527f6e6f6e6365206d69736d61746368000000000000000000000000000000000000604482015290519081900360640190fd5b6114e2878787876040516020018085600160a060020a0316600160a060020a03166c0100000000000000000000000002815260140184815260200183805190602001908083835b6020831061144d5780518252601f19909201916020918201910161142e565b51815160209384036101000a6000190180199092169116179052920193845250604080518085038152938201908190528351939650945084935085019190508083835b602083106114af5780518252601f199092019160209182019101611490565b6001836020036101000a038019825116818451168082178552505050505050905001915050604051809103902084611206565b90506114f081888888613212565b91505b5095945050505050565b600061150761448f565b600554600090819060ff161561151c57600080fd5b6000858152600a60205260409020600201548590600160a060020a031680151561154557600080fd5b61154d612fe0565b1561155757611630565b33600160a060020a038216141561156d57611630565b61158e6115786120cf565b600160a060020a0383169063ffffffff6133ce16565b1561162b5780600160a060020a031663d202158d6115ab33611fcb565b6040805160e060020a63ffffffff85160281526004810192909252600260248301525160448083019260209291908290030181600087803b1580156115ef57600080fd5b505af1158015611603573d6000803e3d6000fd5b505050506040513d602081101561161957600080fd5b5051151561162657600080fd5b611630565b600080fd5b6000878152600a6020908152604091829020825160c0810184528154815260018083015482850152600280840154600160a060020a0316838701526003840180548751601f9482161561010002600019019091169290920492830186900486028201860190965281815291949293606086019391908301828280156116f65780601f106116cb576101008083540402835291602001916116f6565b820191906000526020600020905b8154815290600101906020018083116116d957829003601f168201915b505050918352505060048201805460408051602060026001851615610100026000190190941693909304601f810184900484028201840190925281815293820193929183018282801561178a5780601f1061175f5761010080835404028352916020019161178a565b820191906000526020600020905b81548152906001019060200180831161176d57829003601f168201915b505050918352505060058201805460408051602060026001851615610100026000190190941693909304601f810184900484028201840190925281815293820193929183018282801561181e5780601f106117f35761010080835404028352916020019161181e565b820191906000526020600020905b81548152906001019060200180831161180157829003601f168201915b505050919092525050506040810151909550600160a060020a0316151561184457600080fd5b6000878152600a6020526040812081815560018101829055600281018054600160a060020a03191690559061187c60038301826144cf565b61188a6004830160006144cf565b6118986005830160006144cf565b505084516000908152600b60205260408120945092505b835483101561194f57835487908590859081106118c857fe5b6000918252602090912001541415611944578354849060001981019081106118ec57fe5b9060005260206000200154848481548110151561190557fe5b60009182526020909120015583548490600019810190811061192357fe5b6000918252602082200155835461193e856000198301614516565b5061194f565b6001909201916118af565b600c60008154809291906001900391905055508460400151600160a060020a0316856000015188600019167f3cf57863a89432c61c4a27073c6ee39e8a764bff5a05aebfbcdcdc80b2e6130a886020015189606001518a608001518b60a0015160405180858152602001806020018060200180602001848103845287818151815260200191508051906020019080838360005b838110156119fa5781810151838201526020016119e2565b50505050905090810190601f168015611a275780820380516001836020036101000a031916815260200191505b50848103835286518152865160209182019188019080838360005b83811015611a5a578181015183820152602001611a42565b50505050905090810190601f168015611a875780820380516001836020036101000a031916815260200191505b50848103825285518152855160209182019187019080838360005b83811015611aba578181015183820152602001611aa2565b50505050905090810190601f168015611ae75780820380516001836020036101000a031916815260200191505b5097505050505050505060405180910390a45060019695505050505050565b600080611b11612fe0565b1515611b1c57600080fd5b60055460ff1615611b2c57600080fd5b611b3e6002858563ffffffff61301216565b1515611b4d5760009150611b96565b611b5f6002858563ffffffff61348516565b6040519091508190849086907f585a4aef50f8267a92b32412b331b20f7f8b96f2245b253b9cc50dcc621d339790600090a4600191505b5092915050565b60055460ff1681565b6000611bb061448f565b60055460ff1615611bc057600080fd5b6000838152600a60205260409020600201548390600160a060020a0316801515611be957600080fd5b611bf1612fe0565b15611bfb57611cb4565b33600160a060020a0382161415611c1157611cb4565b611c1c6115786120cf565b1561162b5780600160a060020a031663d202158d611c3933611fcb565b6040805160e060020a63ffffffff85160281526004810192909252600260248301525160448083019260209291908290030181600087803b158015611c7d57600080fd5b505af1158015611c91573d6000803e3d6000fd5b505050506040513d6020811015611ca757600080fd5b50511515611cb457600080fd5b6000858152600a6020908152604091829020825160c0810184528154815260018083015482850152600280840154600160a060020a0316838701526003840180548751601f948216156101000260001901909116929092049283018690048602820186019096528181529194929360608601939190830182828015611d7a5780601f10611d4f57610100808354040283529160200191611d7a565b820191906000526020600020905b815481529060010190602001808311611d5d57829003601f168201915b505050918352505060048201805460408051602060026001851615610100026000190190941693909304601f8101849004840282018401909252818152938201939291830182828015611e0e5780601f10611de357610100808354040283529160200191611e0e565b820191906000526020600020905b815481529060010190602001808311611df157829003601f168201915b505050918352505060058201805460408051602060026001851615610100026000190190941693909304601f8101849004840282018401909252818152938201939291830182828015611ea25780601f10611e7757610100808354040283529160200191611ea2565b820191906000526020600020905b815481529060010190602001808311611e8557829003601f168201915b505050919092525050506040810151909350600160a060020a03161515611ec857600080fd5b611ee983600001518460200151856040015186606001518760800151613630565b1515611f0257611ef8856114fd565b5060009350611f07565b600193505b505050919050565b60086020908152600091825260409182902080546001808301546002808501805488516101009582161595909502600019011691909104601f8101879004870284018701909752868352600160a060020a03909316959094919291830182828015611fbb5780601f10611f9057610100808354040283529160200191611fbb565b820191906000526020600020905b815481529060010190602001808311611f9e57829003601f168201915b5050505050908060030154905084565b600160a060020a031690565b600960205281600052604060002081815481101515611ff257fe5b600091825260209091200154600160a060020a03169150829050565b6000612018612fe0565b151561202357600080fd5b60055460ff161561203357600080fd5b61204460028663ffffffff61376716565b151561204f57600080fd5b61206360028686868663ffffffff6137f916565b50600195945050505050565b60055460009060ff161561208257600080fd5b611112338484613842565b6000838152600260209081526040808320600160a060020a03861684526003018252808320600160e060020a03198516845290915290205460ff169392505050565b7fdc3d2a7b0000000000000000000000000000000000000000000000000000000090565b6120fb612fe0565b151561210657600080fd5b60055460ff161561211657600080fd5b6005805460ff191660011790556040517f4b314b34e912fda7f95e7d23e9c8c95f82f0aff1984e4ce592a0b005f905562490600090a1565b6000818152600360209081526040918290208054835181840281018401909452808452606093928301828280156111e95760200282019190600052602060002090815481526001909101906020018083116111d45750505050509050919050565b600481565b60005481565b60075481565b600881565b60055460009081908190819060ff16156121de57600080fd5b6121eb8a8a8a8a8a613630565b15156121f657600080fd5b6121fe612fe0565b925082151561244c576040517fb61d27f600000000000000000000000000000000000000000000000000000000815230600482018181526000602484018190526060604485019081523660648601819052939463b61d27f694869484939192909190608401848480828437820191505095505050505050602060405180830381600087803b15801561228f57600080fd5b505af11580156122a3573d6000803e3d6000fd5b505050506040513d60208110156122b957600080fd5b8101908080519060200190929190505050935087600160a060020a03168a857fe6b6db97dedfb44cbced367387e40b3f92dbee1b1be87f9367f7b673532b0d698c8b8b8b60405180858152602001806020018060200180602001848103845287818151815260200191508051906020019080838360005b83811015612348578181015183820152602001612330565b50505050905090810190601f1680156123755780820380516001836020036101000a031916815260200191505b50848103835286518152865160209182019188019080838360005b838110156123a8578181015183820152602001612390565b50505050905090810190601f1680156123d55780820380516001836020036101000a031916815260200191505b50848103825285518152855160209182019187019080838360005b838110156124085781810151838201526020016123f0565b50505050905090810190601f1680156124355780820380516001836020036101000a031916815260200191505b5097505050505050505060405180910390a4612669565b612456888b610f6c565b6000818152600a6020526040902060020154909250600160a060020a0316151561248e57612489828b8b8b8b8b8b613be1565b612669565b506000818152600a60209081526040909120600181018a9055875190916124bc9160038401918a019061453f565b5085516124d2906004830190602089019061453f565b5084516124e8906005830190602088019061453f565b5087600160a060020a03168a83600019167f3bab293fc00db832d7619a9299914251b8747c036867ec056cbd506f60135b138c8b8b8b60405180858152602001806020018060200180602001848103845287818151815260200191508051906020019080838360005b83811015612569578181015183820152602001612551565b50505050905090810190601f1680156125965780820380516001836020036101000a031916815260200191505b50848103835286518152865160209182019188019080838360005b838110156125c95781810151838201526020016125b1565b50505050905090810190601f1680156125f65780820380516001836020036101000a031916815260200191505b50848103825285518152855160209182019187019080838360005b83811015612629578181015183820152602001612611565b50505050905090810190601f1680156126565780820380516001836020036101000a031916815260200191505b5097505050505050505060405180910390a45b5050509695505050505050565b600581565b60055460009060ff161561268e57600080fd5b61269a33858585613212565b949350505050565b600781565b7f107653790000000000000000000000000000000000000000000000000000000090565b600080805b6004811015611b96578060080284828151811015156126eb57fe5b60209101015160029190910a7f0100000000000000000000000000000000000000000000000000000000000000918290049091027fff00000000000000000000000000000000000000000000000000000000000000160491909117906001016126d0565b6000806000606080606061276161448f565b6000888152600a6020908152604091829020825160c0810184528154815260018083015482850152600280840154600160a060020a0316838701526003840180548751601f9482161561010002600019019091169290920492830186900486028201860190965281815291949293606086019391908301828280156128275780601f106127fc57610100808354040283529160200191612827565b820191906000526020600020905b81548152906001019060200180831161280a57829003601f168201915b505050918352505060048201805460408051602060026001851615610100026000190190941693909304601f81018490048402820184019092528181529382019392918301828280156128bb5780601f10612890576101008083540402835291602001916128bb565b820191906000526020600020905b81548152906001019060200180831161289e57829003601f168201915b505050918352505060058201805460408051602060026001851615610100026000190190941693909304601f810184900484028201840190925281815293820193929183018282801561294f5780601f106129245761010080835404028352916020019161294f565b820191906000526020600020905b81548152906001019060200180831161293257829003601f168201915b505050919092525050506040810151909150600160a060020a0316151561297557600080fd5b8051602082015160408301516060840151608085015160a090950151939c929b5090995097509195509350915050565b60045490565b60055460009060ff16156129be57600080fd5b6129c6612fe0565b15156129d157600080fd5b600082116129de57600080fd5b6129e8600161214e565b519050808211156129f857600080fd5b50600055565b60006111126002848463ffffffff61301216565b60055460009081908190819060ff1615612a2b57600080fd5b612a388b8b8b8b8b613630565b1515612a4357600080fd5b612bdc8b8b8b8b8b8b6040516020018087815260200186815260200185600160a060020a0316600160a060020a03166c0100000000000000000000000002815260140184805190602001908083835b60208310612ab15780518252601f199092019160209182019101612a92565b51815160209384036101000a600019018019909216911617905286519190930192860191508083835b60208310612af95780518252601f199092019160209182019101612ada565b51815160209384036101000a600019018019909216911617905285519190930192850191508083835b60208310612b415780518252601f199092019160209182019101612b22565b6001836020036101000a03801982511681845116808217855250505050505090500196505050505050506040516020818303038152906040526040518082805190602001908083835b60208310612ba95780518252601f199092019160209182019101612b8a565b6001836020036101000a038019825116818451168082178552505050505050905001915050604051809103902086611206565b9250612bfa612bea84611fcb565b600290600163ffffffff61301216565b1515612c0557600080fd5b612c0f898c610f6c565b6000818152600a6020526040902060020154909250600160a060020a03161515612c4757612c42828c8c8c8c8c8c613be1565b612e22565b506000818152600a60209081526040909120600181018b905588519091612c759160038401918b019061453f565b508651612c8b90600483019060208a019061453f565b508551612ca1906005830190602089019061453f565b5088600160a060020a03168b83600019167f3bab293fc00db832d7619a9299914251b8747c036867ec056cbd506f60135b138d8c8c8c60405180858152602001806020018060200180602001848103845287818151815260200191508051906020019080838360005b83811015612d22578181015183820152602001612d0a565b50505050905090810190601f168015612d4f5780820380516001836020036101000a031916815260200191505b50848103835286518152865160209182019188019080838360005b83811015612d82578181015183820152602001612d6a565b50505050905090810190601f168015612daf5780820380516001836020036101000a031916815260200191505b50848103825285518152855160209182019187019080838360005b83811015612de2578181015183820152602001612dca565b50505050905090810190601f168015612e0f5780820380516001836020036101000a031916815260200191505b5097505050505050505060405180910390a45b5060019a9950505050505050505050565b600554600090819060ff1615612e4857600080fd5b6007548414612eb857604080517f08c379a000000000000000000000000000000000000000000000000000000000815260206004820152600e60248201527f6e6f6e6365206d69736d61746368000000000000000000000000000000000000604482015290519081900360640190fd5b6040805160208082018990527f010000000000000000000000000000000000000000000000000000000000000088151502828401526041808301889052835180840390910181526061909201928390528151612f379391829190840190808383602083106114af5780518252601f199092019160209182019101611490565b9050612f44818787613842565b9695505050505050565b60055460009060ff1615612f6157600080fd5b612f69612fe0565b1515612f7457600080fd5b60008211612f8157600080fd5b612f8b600261214e565b51905080821115612f9b57600080fd5b50600155565b600681565b612fae612fe0565b1515612fb957600080fd5b600160a060020a0381161515612fce57600080fd5b80600160a060020a0316ff5b600c5481565b600033301415612ff257506001610eba565b60005460011461300157600080fd5b61300d612bea33611fcb565b905090565b600061301c61446f565b600084815260208681526040808320815181546080948102820185019093526060810183815290939192849284919084018282801561307a57602002820191906000526020600020905b815481526020019060010190808311613066575b50505091835250506001820154602082015260029091015460409182015281015190925015156130ad57600092506130ed565b5060005b8151518110156130ed5781518051859190839081106130cc57fe5b9060200190602002015114156130e557600192506130ed565b6001016130b1565b50509392505050565b613109600284848463ffffffff613e5916565b6040518190839085907f480000bb1edad8ca1470381cc334b1917fbd51c6531f3a623ea8e0ec7e38a6e990600090a4505050565b600080600080845160411415156131575760009350613209565b50505060208201516040830151606084015160001a601b60ff8216101561317c57601b015b8060ff16601b1415801561319457508060ff16601c14155b156131a25760009350613209565b60408051600080825260208083018085528a905260ff8516838501526060830187905260808301869052925160019360a0808501949193601f19840193928390039091019190865af11580156131fc573d6000803e3d6000fd5b5050506020604051035193505b50505092915050565b60008061321d6145bd565b613228878786613eca565b91506132393087878760075461407b565b92508486600160a060020a0316847f8afcfabcb00e47a53a8fc3e9f23ff47ee1926194bb1350dd007c50b412a6cee8876040518080602001828103825283818151815260200191508051906020019080838360005b838110156132a657818101518382015260200161328e565b50505050905090810190601f1680156132d35780820380516001836020036101000a031916815260200191505b509250505060405180910390a45060078054600101905560408051608081018252600160a060020a0387168152602081018690529081018490526060810182905281151561332d57613327838260006141a1565b506133c4565b60008381526008602090815260409182902083518154600160a060020a031916600160a060020a0390911617815583820151600182015591830151805184939261337e92600285019291019061453f565b50606091909101516003909101556000838152600960209081526040822080546001810182559083529120018054600160a060020a031916600160a060020a0389161790555b5050949350505050565b600080806133fc857f01ffc9a700000000000000000000000000000000000000000000000000000000614423565b909250905081158061340c575080155b1561341a576000925061347d565b61342c85600160e060020a0319614423565b909250905081158061343d57508015155b1561344b576000925061347d565b6134558585614423565b909250905060018214801561346a5750806001145b15613478576001925061347d565b600092505b505092915050565b6000828152602084905260408120600181015491805b8254821015613545578483838154811015156134b357fe5b9060005260206000200154141561353a578254839060001981019081106134d657fe5b906000526020600020015483838154811015156134ef57fe5b60009182526020909120015582548390600019810190811061350d57fe5b60009182526020822001558254613528846000198301614516565b50600287018054600019019055613545565b60019091019061349b565b825415156135775760008681526020889052604081209061356682826145ef565b506000600182018190556002909101555b5050600083815260018601602052604081205b805482101561362657805486908290849081106135a357fe5b600091825260209091200154141561361b578054819060001981019081106135c757fe5b906000526020600020015481838154811015156135e057fe5b6000918252602090912001558054819060001981019081106135fe57fe5b60009182526020822001558054613619826000198301614516565b505b60019091019061358a565b5050509392505050565b600080600186141561375e5761365061364a308986611019565b85611206565b905080600160a060020a031685600160a060020a0316141561367557600191506114f3565b600160a060020a0385163014156136a9576136a261369282611fcb565b600290600363ffffffff61301216565b91506114f3565b6136ca6136b46120cf565b600160a060020a0387169063ffffffff6133ce16565b1561375e5784600160a060020a031663d202158d6136e783611fcb565b6040805160e060020a63ffffffff85160281526004810192909252600360248301525160448083019260209291908290030181600087803b15801561372b57600080fd5b505af115801561373f573d6000803e3d6000fd5b505050506040513d602081101561375557600080fd5b505191506114f3565b600091506114f3565b600061377161446f565b60008381526020858152604091829020825181546080938102820184019094526060810184815290939192849284918401828280156137cf57602002820191906000526020600020905b8154815260200190600101908083116137bb575b50505091835250506001820154602082015260029091015460409182015201511515949350505050565b600093845260209485526040808520600160a060020a0394909416855260039093018552828420600160e060020a031992909216845293529020805460ff191682151517905590565b600080808085151561385357600080fd5b60008681526008602052604090208054909350600160a060020a0316151561387a57600080fd5b825460028085018054604080516020601f6000196001861615610100020190941695909504928301859004850281018501909152818152613921948c94600160a060020a03909116939192908301828280156139175780601f106138ec57610100808354040283529160200191613917565b820191906000526020600020905b8154815290600101906020018083116138fa57829003601f168201915b5050505050613eca565b50604080518615158152905187917fb3932da477fe5d6c8ff2eafef050c0f3a1af18fc07121001482600f36f3715d8919081900360200190a260008681526009602052604090209150841515613a74575060005b8154811015613a6b5786600160a060020a0316828281548110151561399657fe5b600091825260209091200154600160a060020a03161415613a63578154829060001981019081106139c357fe5b6000918252602090912001548254600160a060020a03909116908390839081106139e957fe5b60009182526020909120018054600160a060020a031916600160a060020a0392909216919091179055815482906000198101908110613a2457fe5b60009182526020909120018054600160a060020a03191690558154613a4d836000198301614516565b5060038301805460019081019091559350613626565b600101613975565b60009350613626565b5060005b8154811015613ac15786600160a060020a03168282815481101515613a9957fe5b600091825260209091200154600160a060020a03161415613ab957600080fd5b600101613a78565b8154600181018355600083815260209020018054600160a060020a031916600160a060020a03891617905560038301805460001901908190551515613bd857604080516080810182528454600160a060020a031681526001808601546020808401919091526002808801805486516101009582161595909502600019011691909104601f81018390048302840183018652808452613bd1958c95948a949186019390929091830182828015613bb75780601f10613b8c57610100808354040283529160200191613bb7565b820191906000526020600020905b815481529060010190602001808311613b9a57829003601f168201915b5050505050815260200160038201548152505060016141a1565b9350613626565b60019350613626565b6040805160c0810182528781526020808201888152600160a060020a03888116848601908152606085018981526080860189905260a0860188905260008e8152600a865296909620855181559251600184015551600283018054600160a060020a0319169190921617905592518051929392613c63926003850192019061453f565b5060808201518051613c7f91600484019160209091019061453f565b5060a08201518051613c9b91600584019160209091019061453f565b5050506000868152600b60209081526040808320805460018181018355918552838520018b9055600c80549091019055805188815260808184018181528851918301919091528751600160a060020a038a16958c958e957f46149b18aa084502c3f12bc75e19eda8bda8d102b82cce8474677a6d0d5f43c5958e958d958d958d959394929392850192606086019260a0870192918a01918190849084905b83811015613d51578181015183820152602001613d39565b50505050905090810190601f168015613d7e5780820380516001836020036101000a031916815260200191505b50848103835286518152865160209182019188019080838360005b83811015613db1578181015183820152602001613d99565b50505050905090810190601f168015613dde5780820380516001836020036101000a031916815260200191505b50848103825285518152855160209182019187019080838360005b83811015613e11578181015183820152602001613df9565b50505050905090810190601f168015613e3e5780820380516001836020036101000a031916815260200191505b5097505050505050505060405180910390a450505050505050565b60008381526020858152604082208054600181018255818452919092200183905560028101541515613e945760028101849055600181018290555b50506000908152600180840160209081526040832080548084018255908452922090910191909155600290910180549091019055565b6000600160a060020a038316301415613f7557600160a060020a038416301415613ef75750600054613f70565b613f03612bea85611fcb565b80613f625750613f25613f1585611fcb565b600290600763ffffffff61301216565b8015613f6257507f1d38124000000000000000000000000000000000000000000000000000000000613f56836126cb565b600160e060020a031916145b1561162b5750600054600019015b611112565b600160a060020a0383161515613f8a57600080fd5b600160a060020a038416301415613fa45750600154611112565b613fbf613fb085611fcb565b6002908163ffffffff61301216565b80613fe15750613fe1613fd185611fcb565b600290600663ffffffff61301216565b806140695750614003613ff385611fcb565b600290600863ffffffff61301216565b801561406957506002600061401786611fcb565b815260208082019290925260409081016000908120600160a060020a038716825260030190925281209061404a846126cb565b600160e060020a031916815260208101919091526040016000205460ff165b1561162b575060015460001901611112565b600085858585856040516020018086600160a060020a0316600160a060020a03166c0100000000000000000000000002815260140185600160a060020a0316600160a060020a03166c0100000000000000000000000002815260140184815260200183805190602001908083835b602083106141085780518252601f1990920191602091820191016140e9565b51815160209384036101000a600019018019909216911617905292019384525060408051808503815293820190819052835193975095508594508601925081905083835b6020831061416b5780518252601f19909201916020918201910161414c565b5181516020939093036101000a600019018019909116921691909117905260405192018290039091209998505050505050505050565b81516000908190600160a060020a031615156141bc57600080fd5b8360000151600160a060020a03168460200151856040015160405180828051906020019080838360005b838110156141fe5781810151838201526020016141e6565b50505050905090810190601f16801561422b5780820380516001836020036101000a031916815260200191505b5091505060006040518083038185875af19250505090508015156143035783602001518460000151600160a060020a0316867fe10c49d9f7c71da23262367013434763cfdb2332267641728d25cd712c5c6a6887604001516040518080602001828103825283818151815260200191508051906020019080838360005b838110156142c05781810151838201526020016142a8565b50505050905090810190601f1680156142ed5780820380516001836020036101000a031916815260200191505b509250505060405180910390a46000915061441b565b83602001518460000151600160a060020a0316867f1f920dbda597d7bf95035464170fa58d0a4b57f13a1c315ace6793b9f63688b887604001516040518080602001828103825283818151815260200191508051906020019080838360005b8381101561437a578181015183820152602001614362565b50505050905090810190601f1680156143a75780820380516001836020036101000a031916815260200191505b509250505060405180910390a48215156143c4576001915061441b565b60008581526008602052604081208054600160a060020a031916815560018101829055906143f560028301826144cf565b506000600391909101819055858152600960205260408120614416916145ef565b600191505b509392505050565b6040517f01ffc9a70000000000000000000000000000000000000000000000000000000080825260048201839052600091829190602081818189617530fa905190969095509350505050565b604080516060818101835281526000602082018190529181019190915290565b60c06040519081016040528060008152602001600081526020016000600160a060020a031681526020016060815260200160608152602001606081525090565b50805460018160011615610100020316600290046000825580601f106144f55750614513565b601f0160209004906000526020600020908101906145139190614609565b50565b81548183558181111561453a5760008381526020902061453a918101908301614609565b505050565b828054600181600116156101000203166002900490600052602060002090601f016020900481019282601f1061458057805160ff19168380011785556145ad565b828001600101855582156145ad579182015b828111156145ad578251825591602001919060010190614592565b506145b9929150614609565b5090565b6080604051908101604052806000600160a060020a031681526020016000815260200160608152602001600081525090565b508054600082559060005260206000209081019061451391905b610eba91905b808211156145b9576000815560010161460f5600a165627a7a72305820c728aad1ba8b554cab16d5ff26871a89a6d1ba5008940e782236aafadd2587910029",
  "source": "pragma solidity ^0.4.24;\n\nimport \"./Destructible.sol\";\nimport \"./ERC735.sol\";\nimport \"./KeyGetters.sol\";\nimport \"./KeyManager.sol\";\nimport \"./MultiSig.sol\";\nimport \"./ClaimManager.sol\";\nimport \"./Slice.sol\";\n\n/// @title MetaIdentity\n/// @author Metadium, genie\n/// @notice Identity contract implementing ERC 725, ERC 735 and Metadium features.\n\ncontract MetaIdentity is KeyManager, MultiSig, ClaimManager, Destructible, KeyGetters {\n    using Slice for bytes;\n    using Slice for string;\n\n    /// @dev Constructor for Identity contract. If no initial keys are passed then\n    ///  `msg.sender` is used as an initial MANAGEMENT_KEY, ACTION_KEY and CLAIM_SIGNER_KEY\n    constructor(address _managementKey)\n    public {\n\n        bytes32 senderKey = addrToKey(_managementKey);\n        \n        // Add key that deployed the contract for MANAGEMENT, ACTION, CLAIM\n        _addKey(senderKey, MANAGEMENT_KEY, ECDSA_TYPE);\n        _addKey(senderKey, ACTION_KEY, ECDSA_TYPE);\n        _addKey(senderKey, CLAIM_SIGNER_KEY, ECDSA_TYPE);\n        \n        managementThreshold = 1;\n        actionThreshold = 1;\n\n        // Supports both ERC 725 & 735\n        supportedInterfaces[ERC725ID() ^ ERC735ID()] = true;\n    }\n\n    // Fallback function accepts Ether transactions\n    // solhint-disable-next-line no-empty-blocks\n    function () external payable {\n    }\n\n}",
  "sourcePath": "/Users/coinplug/BangGijin/metabolics2.0/contracts/identity/MetaIdentity.sol",
  "compiler": {
    "name": "solc",
    "version": "0.4.24+commit.e67f0147.Emscripten.clang"
  },
  "schemaVersion": "2.0.1",
  "updatedAt": "2018-11-16T09:41:02.221Z"
}