{
  "contractName": "MetaIdentityLib",
  "abi": [
    {
      "constant": true,
      "inputs": [
        {
          "name": "interfaceID",
          "type": "bytes4"
        }
      ],
      "name": "supportsInterface",
      "outputs": [
        {
          "name": "",
          "type": "bool"
        }
      ],
      "payable": false,
      "stateMutability": "view",
      "type": "function"
    },
    {
      "constant": true,
      "inputs": [],
      "name": "ERC165ID",
      "outputs": [
        {
          "name": "",
          "type": "bytes4"
        }
      ],
      "payable": false,
      "stateMutability": "pure",
      "type": "function"
    },
    {
      "constant": true,
      "inputs": [],
      "name": "REGISTRY_TOPIC",
      "outputs": [
        {
          "name": "",
          "type": "uint256"
        }
      ],
      "payable": false,
      "stateMutability": "view",
      "type": "function"
    },
    {
      "constant": true,
      "inputs": [],
      "name": "MANAGEMENT_KEY",
      "outputs": [
        {
          "name": "",
          "type": "uint256"
        }
      ],
      "payable": false,
      "stateMutability": "view",
      "type": "function"
    },
    {
      "constant": true,
      "inputs": [
        {
          "name": "_key",
          "type": "bytes32"
        }
      ],
      "name": "getKey",
      "outputs": [
        {
          "name": "purposes",
          "type": "uint256[]"
        },
        {
          "name": "keyType",
          "type": "uint256"
        },
        {
          "name": "key",
          "type": "bytes32"
        }
      ],
      "payable": false,
      "stateMutability": "view",
      "type": "function"
    },
    {
      "constant": true,
      "inputs": [
        {
          "name": "issuer",
          "type": "address"
        },
        {
          "name": "topic",
          "type": "uint256"
        }
      ],
      "name": "getClaimId",
      "outputs": [
        {
          "name": "",
          "type": "bytes32"
        }
      ],
      "payable": false,
      "stateMutability": "pure",
      "type": "function"
    },
    {
      "constant": true,
      "inputs": [],
      "name": "getNumClaims",
      "outputs": [
        {
          "name": "num",
          "type": "uint256"
        }
      ],
      "payable": false,
      "stateMutability": "view",
      "type": "function"
    },
    {
      "constant": true,
      "inputs": [
        {
          "name": "subject",
          "type": "address"
        },
        {
          "name": "topic",
          "type": "uint256"
        },
        {
          "name": "data",
          "type": "bytes"
        }
      ],
      "name": "claimToSign",
      "outputs": [
        {
          "name": "",
          "type": "bytes32"
        }
      ],
      "payable": false,
      "stateMutability": "pure",
      "type": "function"
    },
    {
      "constant": false,
      "inputs": [
        {
          "name": "_key",
          "type": "bytes32"
        },
        {
          "name": "_purpose",
          "type": "uint256"
        },
        {
          "name": "_keyType",
          "type": "uint256"
        }
      ],
      "name": "addKey",
      "outputs": [
        {
          "name": "success",
          "type": "bool"
        }
      ],
      "payable": false,
      "stateMutability": "nonpayable",
      "type": "function"
    },
    {
      "constant": true,
      "inputs": [
        {
          "name": "_claimId",
          "type": "bytes32"
        }
      ],
      "name": "isClaimExist",
      "outputs": [
        {
          "name": "",
          "type": "bool"
        }
      ],
      "payable": false,
      "stateMutability": "view",
      "type": "function"
    },
    {
      "constant": true,
      "inputs": [],
      "name": "CONTRACT_SCHEME",
      "outputs": [
        {
          "name": "",
          "type": "uint256"
        }
      ],
      "payable": false,
      "stateMutability": "view",
      "type": "function"
    },
    {
      "constant": true,
      "inputs": [
        {
          "name": "_topic",
          "type": "uint256"
        }
      ],
      "name": "getClaimIdsByType",
      "outputs": [
        {
          "name": "claimIds",
          "type": "bytes32[]"
        }
      ],
      "payable": false,
      "stateMutability": "view",
      "type": "function"
    },
    {
      "constant": true,
      "inputs": [],
      "name": "RSA_TYPE",
      "outputs": [
        {
          "name": "",
          "type": "uint256"
        }
      ],
      "payable": false,
      "stateMutability": "view",
      "type": "function"
    },
    {
      "constant": true,
      "inputs": [],
      "name": "getTransactionCount",
      "outputs": [
        {
          "name": "",
          "type": "uint256"
        }
      ],
      "payable": false,
      "stateMutability": "view",
      "type": "function"
    },
    {
      "constant": true,
      "inputs": [],
      "name": "actionThreshold",
      "outputs": [
        {
          "name": "",
          "type": "uint256"
        }
      ],
      "payable": false,
      "stateMutability": "view",
      "type": "function"
    },
    {
      "constant": true,
      "inputs": [
        {
          "name": "toSign",
          "type": "bytes32"
        },
        {
          "name": "signature",
          "type": "bytes"
        }
      ],
      "name": "getSignatureAddress",
      "outputs": [
        {
          "name": "",
          "type": "address"
        }
      ],
      "payable": false,
      "stateMutability": "pure",
      "type": "function"
    },
    {
      "constant": false,
      "inputs": [],
      "name": "unpause",
      "outputs": [],
      "payable": false,
      "stateMutability": "nonpayable",
      "type": "function"
    },
    {
      "constant": true,
      "inputs": [],
      "name": "ECDSA_TYPE",
      "outputs": [
        {
          "name": "",
          "type": "uint256"
        }
      ],
      "payable": false,
      "stateMutability": "view",
      "type": "function"
    },
    {
      "constant": false,
      "inputs": [
        {
          "name": "_to",
          "type": "address"
        },
        {
          "name": "_value",
          "type": "uint256"
        },
        {
          "name": "_data",
          "type": "bytes"
        },
        {
          "name": "_nonce",
          "type": "uint256"
        },
        {
          "name": "_sig",
          "type": "bytes"
        }
      ],
      "name": "delegatedExecute",
      "outputs": [
        {
          "name": "executionId",
          "type": "uint256"
        }
      ],
      "payable": false,
      "stateMutability": "nonpayable",
      "type": "function"
    },
    {
      "constant": false,
      "inputs": [
        {
          "name": "_claimId",
          "type": "bytes32"
        }
      ],
      "name": "removeClaim",
      "outputs": [
        {
          "name": "success",
          "type": "bool"
        }
      ],
      "payable": false,
      "stateMutability": "nonpayable",
      "type": "function"
    },
    {
      "constant": false,
      "inputs": [
        {
          "name": "_key",
          "type": "bytes32"
        },
        {
          "name": "_purpose",
          "type": "uint256"
        }
      ],
      "name": "removeKey",
      "outputs": [
        {
          "name": "success",
          "type": "bool"
        }
      ],
      "payable": false,
      "stateMutability": "nonpayable",
      "type": "function"
    },
    {
      "constant": true,
      "inputs": [],
      "name": "paused",
      "outputs": [
        {
          "name": "",
          "type": "bool"
        }
      ],
      "payable": false,
      "stateMutability": "view",
      "type": "function"
    },
    {
      "constant": false,
      "inputs": [
        {
          "name": "_claimId",
          "type": "bytes32"
        }
      ],
      "name": "refreshClaim",
      "outputs": [
        {
          "name": "",
          "type": "bool"
        }
      ],
      "payable": false,
      "stateMutability": "nonpayable",
      "type": "function"
    },
    {
      "constant": true,
      "inputs": [
        {
          "name": "",
          "type": "uint256"
        }
      ],
      "name": "execution",
      "outputs": [
        {
          "name": "to",
          "type": "address"
        },
        {
          "name": "value",
          "type": "uint256"
        },
        {
          "name": "data",
          "type": "bytes"
        },
        {
          "name": "needsApprove",
          "type": "uint256"
        }
      ],
      "payable": false,
      "stateMutability": "view",
      "type": "function"
    },
    {
      "constant": true,
      "inputs": [
        {
          "name": "addr",
          "type": "address"
        }
      ],
      "name": "addrToKey",
      "outputs": [
        {
          "name": "",
          "type": "bytes32"
        }
      ],
      "payable": false,
      "stateMutability": "pure",
      "type": "function"
    },
    {
      "constant": true,
      "inputs": [
        {
          "name": "",
          "type": "uint256"
        },
        {
          "name": "",
          "type": "uint256"
        }
      ],
      "name": "approved",
      "outputs": [
        {
          "name": "",
          "type": "address"
        }
      ],
      "payable": false,
      "stateMutability": "view",
      "type": "function"
    },
    {
      "constant": true,
      "inputs": [],
      "name": "METAID_TOPIC",
      "outputs": [
        {
          "name": "",
          "type": "uint256"
        }
      ],
      "payable": false,
      "stateMutability": "view",
      "type": "function"
    },
    {
      "constant": false,
      "inputs": [
        {
          "name": "_key",
          "type": "bytes32"
        },
        {
          "name": "_to",
          "type": "address"
        },
        {
          "name": "_func",
          "type": "bytes4"
        },
        {
          "name": "_executable",
          "type": "bool"
        }
      ],
      "name": "setFunc",
      "outputs": [
        {
          "name": "success",
          "type": "bool"
        }
      ],
      "payable": false,
      "stateMutability": "nonpayable",
      "type": "function"
    },
    {
      "constant": false,
      "inputs": [
        {
          "name": "_id",
          "type": "uint256"
        },
        {
          "name": "_approve",
          "type": "bool"
        }
      ],
      "name": "approve",
      "outputs": [
        {
          "name": "success",
          "type": "bool"
        }
      ],
      "payable": false,
      "stateMutability": "nonpayable",
      "type": "function"
    },
    {
      "constant": true,
      "inputs": [],
      "name": "ACTION_KEY",
      "outputs": [
        {
          "name": "",
          "type": "uint256"
        }
      ],
      "payable": false,
      "stateMutability": "view",
      "type": "function"
    },
    {
      "constant": true,
      "inputs": [
        {
          "name": "_key",
          "type": "bytes32"
        },
        {
          "name": "_to",
          "type": "address"
        },
        {
          "name": "_func",
          "type": "bytes4"
        }
      ],
      "name": "keyCanExecute",
      "outputs": [
        {
          "name": "executable",
          "type": "bool"
        }
      ],
      "payable": false,
      "stateMutability": "view",
      "type": "function"
    },
    {
      "constant": true,
      "inputs": [],
      "name": "ERC725ID",
      "outputs": [
        {
          "name": "",
          "type": "bytes4"
        }
      ],
      "payable": false,
      "stateMutability": "pure",
      "type": "function"
    },
    {
      "constant": true,
      "inputs": [],
      "name": "ECDSA_SCHEME",
      "outputs": [
        {
          "name": "",
          "type": "uint256"
        }
      ],
      "payable": false,
      "stateMutability": "view",
      "type": "function"
    },
    {
      "constant": false,
      "inputs": [],
      "name": "pause",
      "outputs": [],
      "payable": false,
      "stateMutability": "nonpayable",
      "type": "function"
    },
    {
      "constant": true,
      "inputs": [
        {
          "name": "_purpose",
          "type": "uint256"
        }
      ],
      "name": "getKeysByPurpose",
      "outputs": [
        {
          "name": "keys",
          "type": "bytes32[]"
        }
      ],
      "payable": false,
      "stateMutability": "view",
      "type": "function"
    },
    {
      "constant": true,
      "inputs": [],
      "name": "ENCRYPTION_KEY",
      "outputs": [
        {
          "name": "",
          "type": "uint256"
        }
      ],
      "payable": false,
      "stateMutability": "view",
      "type": "function"
    },
    {
      "constant": true,
      "inputs": [],
      "name": "RESIDENCE_TOPIC",
      "outputs": [
        {
          "name": "",
          "type": "uint256"
        }
      ],
      "payable": false,
      "stateMutability": "view",
      "type": "function"
    },
    {
      "constant": true,
      "inputs": [],
      "name": "managementThreshold",
      "outputs": [
        {
          "name": "",
          "type": "uint256"
        }
      ],
      "payable": false,
      "stateMutability": "view",
      "type": "function"
    },
    {
      "constant": true,
      "inputs": [],
      "name": "PROFILE_TOPIC",
      "outputs": [
        {
          "name": "",
          "type": "uint256"
        }
      ],
      "payable": false,
      "stateMutability": "view",
      "type": "function"
    },
    {
      "constant": true,
      "inputs": [],
      "name": "nonce",
      "outputs": [
        {
          "name": "",
          "type": "uint256"
        }
      ],
      "payable": false,
      "stateMutability": "view",
      "type": "function"
    },
    {
      "constant": true,
      "inputs": [],
      "name": "CUSTOM_KEY",
      "outputs": [
        {
          "name": "",
          "type": "uint256"
        }
      ],
      "payable": false,
      "stateMutability": "view",
      "type": "function"
    },
    {
      "constant": false,
      "inputs": [
        {
          "name": "_topic",
          "type": "uint256"
        },
        {
          "name": "_scheme",
          "type": "uint256"
        },
        {
          "name": "issuer",
          "type": "address"
        },
        {
          "name": "_signature",
          "type": "bytes"
        },
        {
          "name": "_data",
          "type": "bytes"
        },
        {
          "name": "_uri",
          "type": "string"
        }
      ],
      "name": "addClaim",
      "outputs": [
        {
          "name": "claimRequestId",
          "type": "uint256"
        }
      ],
      "payable": false,
      "stateMutability": "nonpayable",
      "type": "function"
    },
    {
      "constant": true,
      "inputs": [],
      "name": "LABEL_TOPIC",
      "outputs": [
        {
          "name": "",
          "type": "uint256"
        }
      ],
      "payable": false,
      "stateMutability": "view",
      "type": "function"
    },
    {
      "constant": false,
      "inputs": [
        {
          "name": "_to",
          "type": "address"
        },
        {
          "name": "_value",
          "type": "uint256"
        },
        {
          "name": "_data",
          "type": "bytes"
        }
      ],
      "name": "execute",
      "outputs": [
        {
          "name": "executionId",
          "type": "uint256"
        }
      ],
      "payable": false,
      "stateMutability": "nonpayable",
      "type": "function"
    },
    {
      "constant": true,
      "inputs": [],
      "name": "RESTORE_KEY",
      "outputs": [
        {
          "name": "",
          "type": "uint256"
        }
      ],
      "payable": false,
      "stateMutability": "view",
      "type": "function"
    },
    {
      "constant": true,
      "inputs": [],
      "name": "ERC735ID",
      "outputs": [
        {
          "name": "",
          "type": "bytes4"
        }
      ],
      "payable": false,
      "stateMutability": "pure",
      "type": "function"
    },
    {
      "constant": true,
      "inputs": [
        {
          "name": "b",
          "type": "bytes"
        }
      ],
      "name": "getFunctionSignature",
      "outputs": [
        {
          "name": "",
          "type": "bytes4"
        }
      ],
      "payable": false,
      "stateMutability": "pure",
      "type": "function"
    },
    {
      "constant": true,
      "inputs": [],
      "name": "CLAIM_SIGNER_KEY",
      "outputs": [
        {
          "name": "",
          "type": "uint256"
        }
      ],
      "payable": false,
      "stateMutability": "view",
      "type": "function"
    },
    {
      "constant": true,
      "inputs": [
        {
          "name": "_claimId",
          "type": "bytes32"
        }
      ],
      "name": "getClaim",
      "outputs": [
        {
          "name": "topic",
          "type": "uint256"
        },
        {
          "name": "scheme",
          "type": "uint256"
        },
        {
          "name": "issuer",
          "type": "address"
        },
        {
          "name": "signature",
          "type": "bytes"
        },
        {
          "name": "data",
          "type": "bytes"
        },
        {
          "name": "uri",
          "type": "string"
        }
      ],
      "payable": false,
      "stateMutability": "view",
      "type": "function"
    },
    {
      "constant": true,
      "inputs": [],
      "name": "numKeys",
      "outputs": [
        {
          "name": "",
          "type": "uint256"
        }
      ],
      "payable": false,
      "stateMutability": "view",
      "type": "function"
    },
    {
      "constant": false,
      "inputs": [
        {
          "name": "threshold",
          "type": "uint256"
        }
      ],
      "name": "changeManagementThreshold",
      "outputs": [],
      "payable": false,
      "stateMutability": "nonpayable",
      "type": "function"
    },
    {
      "constant": true,
      "inputs": [],
      "name": "getNonce",
      "outputs": [
        {
          "name": "",
          "type": "uint256"
        }
      ],
      "payable": false,
      "stateMutability": "view",
      "type": "function"
    },
    {
      "constant": true,
      "inputs": [
        {
          "name": "_key",
          "type": "bytes32"
        },
        {
          "name": "purpose",
          "type": "uint256"
        }
      ],
      "name": "keyHasPurpose",
      "outputs": [
        {
          "name": "exists",
          "type": "bool"
        }
      ],
      "payable": false,
      "stateMutability": "view",
      "type": "function"
    },
    {
      "constant": true,
      "inputs": [],
      "name": "ASSIST_KEY",
      "outputs": [
        {
          "name": "",
          "type": "uint256"
        }
      ],
      "payable": false,
      "stateMutability": "view",
      "type": "function"
    },
    {
      "constant": false,
      "inputs": [
        {
          "name": "_topic",
          "type": "uint256"
        },
        {
          "name": "_scheme",
          "type": "uint256"
        },
        {
          "name": "issuer",
          "type": "address"
        },
        {
          "name": "_signature",
          "type": "bytes"
        },
        {
          "name": "_data",
          "type": "bytes"
        },
        {
          "name": "_uri",
          "type": "string"
        },
        {
          "name": "_idSignature",
          "type": "bytes"
        }
      ],
      "name": "addClaimByProxy",
      "outputs": [
        {
          "name": "success",
          "type": "bool"
        }
      ],
      "payable": false,
      "stateMutability": "nonpayable",
      "type": "function"
    },
    {
      "constant": false,
      "inputs": [
        {
          "name": "_id",
          "type": "uint256"
        },
        {
          "name": "_approve",
          "type": "bool"
        },
        {
          "name": "_nonce",
          "type": "uint256"
        },
        {
          "name": "_sig",
          "type": "bytes"
        }
      ],
      "name": "delegatedApprove",
      "outputs": [
        {
          "name": "success",
          "type": "bool"
        }
      ],
      "payable": false,
      "stateMutability": "nonpayable",
      "type": "function"
    },
    {
      "constant": false,
      "inputs": [
        {
          "name": "threshold",
          "type": "uint256"
        }
      ],
      "name": "changeActionThreshold",
      "outputs": [],
      "payable": false,
      "stateMutability": "nonpayable",
      "type": "function"
    },
    {
      "constant": true,
      "inputs": [],
      "name": "DELEGATE_KEY",
      "outputs": [
        {
          "name": "",
          "type": "uint256"
        }
      ],
      "payable": false,
      "stateMutability": "view",
      "type": "function"
    },
    {
      "constant": true,
      "inputs": [],
      "name": "RSA_SCHEME",
      "outputs": [
        {
          "name": "",
          "type": "uint256"
        }
      ],
      "payable": false,
      "stateMutability": "view",
      "type": "function"
    },
    {
      "constant": false,
      "inputs": [
        {
          "name": "_recipient",
          "type": "address"
        }
      ],
      "name": "destroyAndSend",
      "outputs": [],
      "payable": false,
      "stateMutability": "nonpayable",
      "type": "function"
    },
    {
      "constant": true,
      "inputs": [
        {
          "name": "self",
          "type": "address"
        },
        {
          "name": "_to",
          "type": "address"
        },
        {
          "name": "_value",
          "type": "uint256"
        },
        {
          "name": "_data",
          "type": "bytes"
        },
        {
          "name": "_nonce",
          "type": "uint256"
        }
      ],
      "name": "getExecutionId",
      "outputs": [
        {
          "name": "",
          "type": "uint256"
        }
      ],
      "payable": false,
      "stateMutability": "pure",
      "type": "function"
    },
    {
      "constant": true,
      "inputs": [],
      "name": "numClaims",
      "outputs": [
        {
          "name": "",
          "type": "uint256"
        }
      ],
      "payable": false,
      "stateMutability": "view",
      "type": "function"
    },
    {
      "payable": true,
      "stateMutability": "payable",
      "type": "fallback"
    },
    {
      "anonymous": false,
      "inputs": [
        {
          "indexed": true,
          "name": "claimRequestId",
          "type": "uint256"
        },
        {
          "indexed": true,
          "name": "topic",
          "type": "uint256"
        },
        {
          "indexed": false,
          "name": "scheme",
          "type": "uint256"
        },
        {
          "indexed": true,
          "name": "issuer",
          "type": "address"
        },
        {
          "indexed": false,
          "name": "signature",
          "type": "bytes"
        },
        {
          "indexed": false,
          "name": "data",
          "type": "bytes"
        },
        {
          "indexed": false,
          "name": "uri",
          "type": "string"
        }
      ],
      "name": "ClaimRequested",
      "type": "event"
    },
    {
      "anonymous": false,
      "inputs": [
        {
          "indexed": true,
          "name": "claimId",
          "type": "bytes32"
        },
        {
          "indexed": true,
          "name": "topic",
          "type": "uint256"
        },
        {
          "indexed": false,
          "name": "scheme",
          "type": "uint256"
        },
        {
          "indexed": true,
          "name": "issuer",
          "type": "address"
        },
        {
          "indexed": false,
          "name": "signature",
          "type": "bytes"
        },
        {
          "indexed": false,
          "name": "data",
          "type": "bytes"
        },
        {
          "indexed": false,
          "name": "uri",
          "type": "string"
        }
      ],
      "name": "ClaimAdded",
      "type": "event"
    },
    {
      "anonymous": false,
      "inputs": [
        {
          "indexed": true,
          "name": "claimId",
          "type": "bytes32"
        },
        {
          "indexed": true,
          "name": "topic",
          "type": "uint256"
        },
        {
          "indexed": false,
          "name": "scheme",
          "type": "uint256"
        },
        {
          "indexed": true,
          "name": "issuer",
          "type": "address"
        },
        {
          "indexed": false,
          "name": "signature",
          "type": "bytes"
        },
        {
          "indexed": false,
          "name": "data",
          "type": "bytes"
        },
        {
          "indexed": false,
          "name": "uri",
          "type": "string"
        }
      ],
      "name": "ClaimRemoved",
      "type": "event"
    },
    {
      "anonymous": false,
      "inputs": [
        {
          "indexed": true,
          "name": "claimId",
          "type": "bytes32"
        },
        {
          "indexed": true,
          "name": "topic",
          "type": "uint256"
        },
        {
          "indexed": false,
          "name": "scheme",
          "type": "uint256"
        },
        {
          "indexed": true,
          "name": "issuer",
          "type": "address"
        },
        {
          "indexed": false,
          "name": "signature",
          "type": "bytes"
        },
        {
          "indexed": false,
          "name": "data",
          "type": "bytes"
        },
        {
          "indexed": false,
          "name": "uri",
          "type": "string"
        }
      ],
      "name": "ClaimChanged",
      "type": "event"
    },
    {
      "anonymous": false,
      "inputs": [
        {
          "indexed": true,
          "name": "key",
          "type": "bytes32"
        },
        {
          "indexed": true,
          "name": "purpose",
          "type": "uint256"
        },
        {
          "indexed": true,
          "name": "keyType",
          "type": "uint256"
        }
      ],
      "name": "KeyAdded",
      "type": "event"
    },
    {
      "anonymous": false,
      "inputs": [
        {
          "indexed": true,
          "name": "key",
          "type": "bytes32"
        },
        {
          "indexed": true,
          "name": "purpose",
          "type": "uint256"
        },
        {
          "indexed": true,
          "name": "keyType",
          "type": "uint256"
        }
      ],
      "name": "KeyRemoved",
      "type": "event"
    },
    {
      "anonymous": false,
      "inputs": [
        {
          "indexed": true,
          "name": "executionId",
          "type": "uint256"
        },
        {
          "indexed": true,
          "name": "to",
          "type": "address"
        },
        {
          "indexed": true,
          "name": "value",
          "type": "uint256"
        },
        {
          "indexed": false,
          "name": "data",
          "type": "bytes"
        }
      ],
      "name": "ExecutionRequested",
      "type": "event"
    },
    {
      "anonymous": false,
      "inputs": [
        {
          "indexed": true,
          "name": "executionId",
          "type": "uint256"
        },
        {
          "indexed": true,
          "name": "to",
          "type": "address"
        },
        {
          "indexed": true,
          "name": "value",
          "type": "uint256"
        },
        {
          "indexed": false,
          "name": "data",
          "type": "bytes"
        }
      ],
      "name": "Executed",
      "type": "event"
    },
    {
      "anonymous": false,
      "inputs": [
        {
          "indexed": true,
          "name": "executionId",
          "type": "uint256"
        },
        {
          "indexed": false,
          "name": "approved",
          "type": "bool"
        }
      ],
      "name": "Approved",
      "type": "event"
    },
    {
      "anonymous": false,
      "inputs": [
        {
          "indexed": true,
          "name": "executionId",
          "type": "uint256"
        },
        {
          "indexed": true,
          "name": "to",
          "type": "address"
        },
        {
          "indexed": true,
          "name": "value",
          "type": "uint256"
        },
        {
          "indexed": false,
          "name": "data",
          "type": "bytes"
        }
      ],
      "name": "ExecutionFailed",
      "type": "event"
    },
    {
      "anonymous": false,
      "inputs": [],
      "name": "LogPause",
      "type": "event"
    },
    {
      "anonymous": false,
      "inputs": [],
      "name": "LogUnpause",
      "type": "event"
    },
    {
      "constant": false,
      "inputs": [
        {
          "name": "_managementKey",
          "type": "address"
        }
      ],
      "name": "init",
      "outputs": [],
      "payable": false,
      "stateMutability": "nonpayable",
      "type": "function"
    }
  ],
  "bytecode": "0x6080604052600160008181558180556005805460ff1916905560078290556006906200003364010000000062000134810204565b7fffffffff0000000000000000000000000000000000000000000000000000000016815260208101919091526040016000908120805460ff1916921515929092179091556001906006906200009064010000000062000158810204565b7fffffffff0000000000000000000000000000000000000000000000000000000016815260208101919091526040016000908120805460ff191692151592909217909155600190600690620000ed6401000000006200017c810204565b7fffffffff000000000000000000000000000000000000000000000000000000001681526020810191909152604001600020805460ff1916911515919091179055620001a0565b7f01ffc9a70000000000000000000000000000000000000000000000000000000090565b7fdc3d2a7b0000000000000000000000000000000000000000000000000000000090565b7f107653790000000000000000000000000000000000000000000000000000000090565b61481d80620001b06000396000f3006080604052600436106102d15763ffffffff60e060020a60003504166301ffc9a781146102d357806302e7491e146103095780630440b43a1461033b578063058b316c1461036257806312aaac7014610377578063190db862146103f0578063199029861461041457806319ab453c146104295780631d203be81461044a5780631d381240146104b3578063237434f0146104d1578063251de3e91461033b578063262b54f5146104e95780632d32d442146105515780632e7700f01461056657806338f4edd41461057b5780633b8a12c8146105905780633f4ba83a1461060a57806349991ec8146103625780634da34c2c1461061f5780634eee424a146106cc57806353d413c5146106e45780635c975abb146106ff5780635d7bc3fc146107145780635dccebba1461072c57806363f14c3c146107e35780636e4c431114610804578063710ca55014610362578063724a4b3b1461081f578063747442d31461085557806375e5598c14610551578063765b3042146108725780637d96fa58146108a357806382d09446146103625780638456cb59146108b85780639010f726146108cd5780639e140cc8146108e5578063a550f0c714610551578063aa0a5142146108fa578063ae628386146108e5578063affed0e01461090f578063b132734e14610924578063b1a34e0d14610939578063b1e9f64c14610a21578063b61d27f614610a36578063b9133d6314610a9f578063bf2f20ad14610ab4578063c32b351814610ac9578063c67021871461033b578063c9100bcb14610b22578063c9d24ecc14610ca5578063ccfe586814610cba578063d087d28814610566578063d202158d14610cd2578063dbfa74b714610a21578063e0610ba314610ced578063e804c01b14610e13578063e99896b814610e78578063ead09fab14610e90578063f22d08a614610551578063f5074f4114610ea5578063f744413714610ec6578063fc0fc84914610f37575b005b3480156102df57600080fd5b506102f5600160e060020a031960043516610f4c565b604080519115158252519081900360200190f35b34801561031557600080fd5b5061031e610f6b565b60408051600160e060020a03199092168252519081900360200190f35b34801561034757600080fd5b50610350610f90565b60408051918252519081900360200190f35b34801561036e57600080fd5b50610350610f95565b34801561038357600080fd5b5061038f600435610f9a565b60408051602080820185905291810183905260608082528551908201528451909182916080830191878101910280838360005b838110156103da5781810151838201526020016103c2565b5050505090500194505050505060405180910390f35b3480156103fc57600080fd5b50610350600160a060020a036004351660243561103f565b34801561042057600080fd5b506103506110ec565b34801561043557600080fd5b506102d1600160a060020a03600435166110f2565b34801561045657600080fd5b50604080516020600460443581810135601f8101849004840285018401909552848452610350948235600160a060020a03169460248035953695946064949201919081908401838280828437509497506111e79650505050505050565b3480156104bf57600080fd5b506102f56004356024356044356112e7565b3480156104dd57600080fd5b506102f5600435611340565b3480156104f557600080fd5b50610501600435611360565b60408051602080825283518183015283519192839290830191858101910280838360005b8381101561053d578181015183820152602001610525565b505050509050019250505060405180910390f35b34801561055d57600080fd5b506103506113c3565b34801561057257600080fd5b506103506113c8565b34801561058757600080fd5b506103506113ce565b34801561059c57600080fd5b5060408051602060046024803582810135601f81018590048502860185019096528585526105ee9583359536956044949193909101919081908401838280828437509497506113d49650505050505050565b60408051600160a060020a039092168252519081900360200190f35b34801561061657600080fd5b506102d16114d7565b34801561062b57600080fd5b50604080516020600460443581810135601f8101849004840285018401909552848452610350948235600160a060020a031694602480359536959460649492019190819084018382808284375050604080516020601f818a01358b0180359182018390048302840183018552818452989b8a359b909a9099940197509195509182019350915081908401838280828437509497506115309650505050505050565b3480156106d857600080fd5b506102f56004356116cb565b3480156106f057600080fd5b506102f5600435602435611cd4565b34801561070b57600080fd5b506102f5611d6b565b34801561072057600080fd5b506102f5600435611d74565b34801561073857600080fd5b506107446004356120dd565b6040518085600160a060020a0316600160a060020a0316815260200184815260200180602001838152602001828103825284818151815260200191508051906020019080838360005b838110156107a557818101518382015260200161078d565b50505050905090810190601f1680156107d25780820380516001836020036101000a031916815260200191505b509550505050505060405180910390f35b3480156107ef57600080fd5b50610350600160a060020a0360043516612199565b34801561081057600080fd5b506105ee6004356024356121a5565b34801561082b57600080fd5b506102f5600435600160a060020a0360243516600160e060020a03196044351660643515156121dc565b34801561086157600080fd5b506102f5600435602435151561223d565b34801561087e57600080fd5b506102f5600435600160a060020a0360243516600160e060020a03196044351661225b565b3480156108af57600080fd5b5061031e61229d565b3480156108c457600080fd5b506102d16122c1565b3480156108d957600080fd5b5061050160043561231c565b3480156108f157600080fd5b5061035061237d565b34801561090657600080fd5b50610350612382565b34801561091b57600080fd5b50610350612388565b34801561093057600080fd5b5061035061238e565b34801561094557600080fd5b50604080516020601f606435600481810135928301849004840285018401909552818452610350948035946024803595600160a060020a0360443516953695608494930191819084018382808284375050604080516020601f89358b018035918201839004830284018301909452808352979a99988101979196509182019450925082915084018382808284375050604080516020601f89358b018035918201839004830284018301909452808352979a9998810197919650918201945092508291508401838280828437509497506123939650505050505050565b348015610a2d57600080fd5b50610350612844565b348015610a4257600080fd5b50604080516020600460443581810135601f8101849004840285018401909552848452610350948235600160a060020a03169460248035953695946064949201919081908401838280828437509497506128499650505050505050565b348015610aab57600080fd5b50610350612870565b348015610ac057600080fd5b5061031e612875565b348015610ad557600080fd5b506040805160206004803580820135601f810184900484028501840190955284845261031e9436949293602493928401919081908401838280828437509497506128999650505050505050565b348015610b2e57600080fd5b50610b3a60043561291d565b6040518087815260200186815260200185600160a060020a0316600160a060020a03168152602001806020018060200180602001848103845287818151815260200191508051906020019080838360005b83811015610ba3578181015183820152602001610b8b565b50505050905090810190601f168015610bd05780820380516001836020036101000a031916815260200191505b50848103835286518152865160209182019188019080838360005b83811015610c03578181015183820152602001610beb565b50505050905090810190601f168015610c305780820380516001836020036101000a031916815260200191505b50848103825285518152855160209182019187019080838360005b83811015610c63578181015183820152602001610c4b565b50505050905090810190601f168015610c905780820380516001836020036101000a031916815260200191505b50995050505050505050505060405180910390f35b348015610cb157600080fd5b50610350612b73565b348015610cc657600080fd5b506102d1600435612b79565b348015610cde57600080fd5b506102f5600435602435612bcc565b348015610cf957600080fd5b50604080516020601f6064356004818101359283018490048402850184019095528184526102f5948035946024803595600160a060020a0360443516953695608494930191819084018382808284375050604080516020601f89358b018035918201839004830284018301909452808352979a99988101979196509182019450925082915084018382808284375050604080516020601f89358b018035918201839004830284018301909452808352979a99988101979196509182019450925082915084018382808284375050604080516020601f89358b018035918201839004830284018301909452808352979a999881019791965091820194509250829150840183828082843750949750612be09650505050505050565b348015610e1f57600080fd5b50604080516020601f6064356004818101359283018490048402850184019095528184526102f5948035946024803515159560443595369560849493019181908401838280828437509497506130019650505050505050565b348015610e8457600080fd5b506102d160043561311c565b348015610e9c57600080fd5b5061035061316f565b348015610eb157600080fd5b506102d1600160a060020a0360043516613174565b348015610ed257600080fd5b50604080516020601f60643560048181013592830184900484028501840190955281845261035094600160a060020a03813581169560248035909216956044359536956084940191819084018382808284375094975050933594506131a89350505050565b348015610f4357600080fd5b506103506132ce565b600160e060020a03191660009081526006602052604090205460ff1690565b7f01ffc9a7000000000000000000000000000000000000000000000000000000005b90565b600381565b600181565b6060600080610fa761463d565b6000858152600260209081526040918290208251815460809381028201840190945260608101848152909391928492849184018282801561100757602002820191906000526020600020905b815481526020019060010190808311610ff3575b505050918352505060018201546020808301919091526002909201546040918201528251918301519201519097919650945092505050565b600082826040516020018083600160a060020a0316600160a060020a03166c01000000000000000000000000028152601401828152602001925050506040516020818303038152906040526040518082805190602001908083835b602083106110b95780518252601f19909201916020918201910161109a565b5181516020939093036101000a600019018019909116921691909117905260405192018290039091209695505050505050565b600c5490565b60006110fd82612199565b9050611109600161231c565b511561117657604080517f08c379a000000000000000000000000000000000000000000000000000000000815260206004820152601160248201527f416c726561647920696e69746961746564000000000000000000000000000000604482015290519081900360640190fd5b611182816001806132d4565b61118f81600260016132d4565b61119c81600360016132d4565b600160008181558180556006906111b1612875565b6111b961229d565b18600160e060020a03191681526020810191909152604001600020805460ff19169115159190911790555050565b60008383836040516020018084600160a060020a0316600160a060020a03166c0100000000000000000000000002815260140183815260200182805190602001908083835b6020831061124b5780518252601f19909201916020918201910161122c565b6001836020036101000a03801982511681845116808217855250505050505090500193505050506040516020818303038152906040526040518082805190602001908083835b602083106112b05780518252601f199092019160209182019101611291565b6001836020036101000a038019825116818451168082178552505050505050905001915050604051809103902090505b9392505050565b60006112f161331b565b15156112fc57600080fd5b60055460ff161561130c57600080fd5b61131e6002858563ffffffff61334d16565b1561132b575060006112e0565b6113368484846132d4565b5060019392505050565b6000908152600a6020526040902060020154600160a060020a0316151590565b6000818152600b60209081526040918290208054835181840281018401909452808452606093928301828280156113b757602002820191906000526020600020905b815481526001909101906020018083116113a2575b50505050509050919050565b600281565b60075490565b60015481565b60006112e0826040805190810160405280601c81526020017f19457468657265756d205369676e6564204d6573736167653a0a333200000000815250856040516020018083805190602001908083835b602083106114435780518252601f199092019160209182019101611424565b51815160209384036101000a600019018019909216911617905292019384525060408051808503815293820190819052835193945092839250908401908083835b602083106114a35780518252601f199092019160209182019101611484565b5181516020939093036101000a60001901801990911692169190911790526040519201829003909120939250506134319050565b6114df61331b565b15156114ea57600080fd5b60055460ff1615156114fb57600080fd5b6005805460ff191690556040517f730c1faaa977b67dacf1e2451ef54556e04a07d577785ff79f6d31f73502efc990600090a1565b600554600090819060ff161561154557600080fd5b60075484146115b557604080517f08c379a000000000000000000000000000000000000000000000000000000000815260206004820152600e60248201527f6e6f6e6365206d69736d61746368000000000000000000000000000000000000604482015290519081900360640190fd5b6116b0878787876040516020018085600160a060020a0316600160a060020a03166c0100000000000000000000000002815260140184815260200183805190602001908083835b6020831061161b5780518252601f1990920191602091820191016115fc565b51815160209384036101000a6000190180199092169116179052920193845250604080518085038152938201908190528351939650945084935085019190508083835b6020831061167d5780518252601f19909201916020918201910161165e565b6001836020036101000a0380198251168184511680821785525050505050509050019150506040518091039020846113d4565b90506116be81888888613506565b91505b5095945050505050565b60006116d561465d565b600554600090819060ff16156116ea57600080fd5b6000858152600a60205260409020600201548590600160a060020a031680151561171357600080fd5b61171b61331b565b15611725576117fe565b33600160a060020a038216141561173b576117fe565b61175c61174661229d565b600160a060020a0383169063ffffffff6136c216565b156117f95780600160a060020a031663d202158d61177933612199565b6040805160e060020a63ffffffff85160281526004810192909252600260248301525160448083019260209291908290030181600087803b1580156117bd57600080fd5b505af11580156117d1573d6000803e3d6000fd5b505050506040513d60208110156117e757600080fd5b505115156117f457600080fd5b6117fe565b600080fd5b6000878152600a6020908152604091829020825160c0810184528154815260018083015482850152600280840154600160a060020a0316838701526003840180548751601f9482161561010002600019019091169290920492830186900486028201860190965281815291949293606086019391908301828280156118c45780601f10611899576101008083540402835291602001916118c4565b820191906000526020600020905b8154815290600101906020018083116118a757829003601f168201915b505050918352505060048201805460408051602060026001851615610100026000190190941693909304601f81018490048402820184019092528181529382019392918301828280156119585780601f1061192d57610100808354040283529160200191611958565b820191906000526020600020905b81548152906001019060200180831161193b57829003601f168201915b505050918352505060058201805460408051602060026001851615610100026000190190941693909304601f81018490048402820184019092528181529382019392918301828280156119ec5780601f106119c1576101008083540402835291602001916119ec565b820191906000526020600020905b8154815290600101906020018083116119cf57829003601f168201915b505050919092525050506040810151909550600160a060020a03161515611a1257600080fd5b6000878152600a6020526040812081815560018101829055600281018054600160a060020a031916905590611a4a600383018261469d565b611a5860048301600061469d565b611a6660058301600061469d565b505084516000908152600b60205260408120945092505b8354831015611b1d5783548790859085908110611a9657fe5b6000918252602090912001541415611b1257835484906000198101908110611aba57fe5b90600052602060002001548484815481101515611ad357fe5b600091825260209091200155835484906000198101908110611af157fe5b60009182526020822001558354611b0c8560001983016146e4565b50611b1d565b600190920191611a7d565b600c60008154809291906001900391905055508460400151600160a060020a0316856000015188600019167f3cf57863a89432c61c4a27073c6ee39e8a764bff5a05aebfbcdcdc80b2e6130a886020015189606001518a608001518b60a0015160405180858152602001806020018060200180602001848103845287818151815260200191508051906020019080838360005b83811015611bc8578181015183820152602001611bb0565b50505050905090810190601f168015611bf55780820380516001836020036101000a031916815260200191505b50848103835286518152865160209182019188019080838360005b83811015611c28578181015183820152602001611c10565b50505050905090810190601f168015611c555780820380516001836020036101000a031916815260200191505b50848103825285518152855160209182019187019080838360005b83811015611c88578181015183820152602001611c70565b50505050905090810190601f168015611cb55780820380516001836020036101000a031916815260200191505b5097505050505050505060405180910390a45060019695505050505050565b600080611cdf61331b565b1515611cea57600080fd5b60055460ff1615611cfa57600080fd5b611d0c6002858563ffffffff61334d16565b1515611d1b5760009150611d64565b611d2d6002858563ffffffff61377916565b6040519091508190849086907f585a4aef50f8267a92b32412b331b20f7f8b96f2245b253b9cc50dcc621d339790600090a4600191505b5092915050565b60055460ff1681565b6000611d7e61465d565b60055460ff1615611d8e57600080fd5b6000838152600a60205260409020600201548390600160a060020a0316801515611db757600080fd5b611dbf61331b565b15611dc957611e82565b33600160a060020a0382161415611ddf57611e82565b611dea61174661229d565b156117f95780600160a060020a031663d202158d611e0733612199565b6040805160e060020a63ffffffff85160281526004810192909252600260248301525160448083019260209291908290030181600087803b158015611e4b57600080fd5b505af1158015611e5f573d6000803e3d6000fd5b505050506040513d6020811015611e7557600080fd5b50511515611e8257600080fd5b6000858152600a6020908152604091829020825160c0810184528154815260018083015482850152600280840154600160a060020a0316838701526003840180548751601f948216156101000260001901909116929092049283018690048602820186019096528181529194929360608601939190830182828015611f485780601f10611f1d57610100808354040283529160200191611f48565b820191906000526020600020905b815481529060010190602001808311611f2b57829003601f168201915b505050918352505060048201805460408051602060026001851615610100026000190190941693909304601f8101849004840282018401909252818152938201939291830182828015611fdc5780601f10611fb157610100808354040283529160200191611fdc565b820191906000526020600020905b815481529060010190602001808311611fbf57829003601f168201915b505050918352505060058201805460408051602060026001851615610100026000190190941693909304601f81018490048402820184019092528181529382019392918301828280156120705780601f1061204557610100808354040283529160200191612070565b820191906000526020600020905b81548152906001019060200180831161205357829003601f168201915b505050919092525050506040810151909350600160a060020a0316151561209657600080fd5b6120b783600001518460200151856040015186606001518760800151613924565b15156120d0576120c6856116cb565b50600093506120d5565b600193505b505050919050565b60086020908152600091825260409182902080546001808301546002808501805488516101009582161595909502600019011691909104601f8101879004870284018701909752868352600160a060020a039093169590949192918301828280156121895780601f1061215e57610100808354040283529160200191612189565b820191906000526020600020905b81548152906001019060200180831161216c57829003601f168201915b5050505050908060030154905084565b600160a060020a031690565b6009602052816000526040600020818154811015156121c057fe5b600091825260209091200154600160a060020a03169150829050565b60006121e661331b565b15156121f157600080fd5b60055460ff161561220157600080fd5b61221260028663ffffffff613a5b16565b151561221d57600080fd5b61223160028686868663ffffffff613aed16565b50600195945050505050565b60055460009060ff161561225057600080fd5b6112e0338484613b36565b6000838152600260209081526040808320600160a060020a03861684526003018252808320600160e060020a03198516845290915290205460ff169392505050565b7fdc3d2a7b0000000000000000000000000000000000000000000000000000000090565b6122c961331b565b15156122d457600080fd5b60055460ff16156122e457600080fd5b6005805460ff191660011790556040517f4b314b34e912fda7f95e7d23e9c8c95f82f0aff1984e4ce592a0b005f905562490600090a1565b6000818152600360209081526040918290208054835181840281018401909452808452606093928301828280156113b75760200282019190600052602060002090815481526001909101906020018083116113a25750505050509050919050565b600481565b60005481565b60075481565b600881565b60055460009081908190819060ff16156123ac57600080fd5b6123b98a8a8a8a8a613924565b15156123c457600080fd5b6123cc61331b565b925082151561261a576040517fb61d27f600000000000000000000000000000000000000000000000000000000815230600482018181526000602484018190526060604485019081523660648601819052939463b61d27f694869484939192909190608401848480828437820191505095505050505050602060405180830381600087803b15801561245d57600080fd5b505af1158015612471573d6000803e3d6000fd5b505050506040513d602081101561248757600080fd5b8101908080519060200190929190505050935087600160a060020a03168a857fe6b6db97dedfb44cbced367387e40b3f92dbee1b1be87f9367f7b673532b0d698c8b8b8b60405180858152602001806020018060200180602001848103845287818151815260200191508051906020019080838360005b838110156125165781810151838201526020016124fe565b50505050905090810190601f1680156125435780820380516001836020036101000a031916815260200191505b50848103835286518152865160209182019188019080838360005b8381101561257657818101518382015260200161255e565b50505050905090810190601f1680156125a35780820380516001836020036101000a031916815260200191505b50848103825285518152855160209182019187019080838360005b838110156125d65781810151838201526020016125be565b50505050905090810190601f1680156126035780820380516001836020036101000a031916815260200191505b5097505050505050505060405180910390a4612837565b612624888b61103f565b6000818152600a6020526040902060020154909250600160a060020a0316151561265c57612657828b8b8b8b8b8b613ed5565b612837565b506000818152600a60209081526040909120600181018a90558751909161268a9160038401918a019061470d565b5085516126a0906004830190602089019061470d565b5084516126b6906005830190602088019061470d565b5087600160a060020a03168a83600019167f3bab293fc00db832d7619a9299914251b8747c036867ec056cbd506f60135b138c8b8b8b60405180858152602001806020018060200180602001848103845287818151815260200191508051906020019080838360005b8381101561273757818101518382015260200161271f565b50505050905090810190601f1680156127645780820380516001836020036101000a031916815260200191505b50848103835286518152865160209182019188019080838360005b8381101561279757818101518382015260200161277f565b50505050905090810190601f1680156127c45780820380516001836020036101000a031916815260200191505b50848103825285518152855160209182019187019080838360005b838110156127f75781810151838201526020016127df565b50505050905090810190601f1680156128245780820380516001836020036101000a031916815260200191505b5097505050505050505060405180910390a45b5050509695505050505050565b600581565b60055460009060ff161561285c57600080fd5b61286833858585613506565b949350505050565b600781565b7f107653790000000000000000000000000000000000000000000000000000000090565b600080805b6004811015611d64578060080284828151811015156128b957fe5b60209101015160029190910a7f0100000000000000000000000000000000000000000000000000000000000000918290049091027fff000000000000000000000000000000000000000000000000000000000000001604919091179060010161289e565b6000806000606080606061292f61465d565b6000888152600a6020908152604091829020825160c0810184528154815260018083015482850152600280840154600160a060020a0316838701526003840180548751601f9482161561010002600019019091169290920492830186900486028201860190965281815291949293606086019391908301828280156129f55780601f106129ca576101008083540402835291602001916129f5565b820191906000526020600020905b8154815290600101906020018083116129d857829003601f168201915b505050918352505060048201805460408051602060026001851615610100026000190190941693909304601f8101849004840282018401909252818152938201939291830182828015612a895780601f10612a5e57610100808354040283529160200191612a89565b820191906000526020600020905b815481529060010190602001808311612a6c57829003601f168201915b505050918352505060058201805460408051602060026001851615610100026000190190941693909304601f8101849004840282018401909252818152938201939291830182828015612b1d5780601f10612af257610100808354040283529160200191612b1d565b820191906000526020600020905b815481529060010190602001808311612b0057829003601f168201915b505050919092525050506040810151909150600160a060020a03161515612b4357600080fd5b8051602082015160408301516060840151608085015160a090950151939c929b5090995097509195509350915050565b60045490565b60055460009060ff1615612b8c57600080fd5b612b9461331b565b1515612b9f57600080fd5b60008211612bac57600080fd5b612bb6600161231c565b51905080821115612bc657600080fd5b50600055565b60006112e06002848463ffffffff61334d16565b60055460009081908190819060ff1615612bf957600080fd5b612c068b8b8b8b8b613924565b1515612c1157600080fd5b612daa8b8b8b8b8b8b6040516020018087815260200186815260200185600160a060020a0316600160a060020a03166c0100000000000000000000000002815260140184805190602001908083835b60208310612c7f5780518252601f199092019160209182019101612c60565b51815160209384036101000a600019018019909216911617905286519190930192860191508083835b60208310612cc75780518252601f199092019160209182019101612ca8565b51815160209384036101000a600019018019909216911617905285519190930192850191508083835b60208310612d0f5780518252601f199092019160209182019101612cf0565b6001836020036101000a03801982511681845116808217855250505050505090500196505050505050506040516020818303038152906040526040518082805190602001908083835b60208310612d775780518252601f199092019160209182019101612d58565b6001836020036101000a0380198251168184511680821785525050505050509050019150506040518091039020866113d4565b9250612dc8612db884612199565b600290600163ffffffff61334d16565b1515612dd357600080fd5b612ddd898c61103f565b6000818152600a6020526040902060020154909250600160a060020a03161515612e1557612e10828c8c8c8c8c8c613ed5565b612ff0565b506000818152600a60209081526040909120600181018b905588519091612e439160038401918b019061470d565b508651612e5990600483019060208a019061470d565b508551612e6f906005830190602089019061470d565b5088600160a060020a03168b83600019167f3bab293fc00db832d7619a9299914251b8747c036867ec056cbd506f60135b138d8c8c8c60405180858152602001806020018060200180602001848103845287818151815260200191508051906020019080838360005b83811015612ef0578181015183820152602001612ed8565b50505050905090810190601f168015612f1d5780820380516001836020036101000a031916815260200191505b50848103835286518152865160209182019188019080838360005b83811015612f50578181015183820152602001612f38565b50505050905090810190601f168015612f7d5780820380516001836020036101000a031916815260200191505b50848103825285518152855160209182019187019080838360005b83811015612fb0578181015183820152602001612f98565b50505050905090810190601f168015612fdd5780820380516001836020036101000a031916815260200191505b5097505050505050505060405180910390a45b5060019a9950505050505050505050565b600554600090819060ff161561301657600080fd5b600754841461308657604080517f08c379a000000000000000000000000000000000000000000000000000000000815260206004820152600e60248201527f6e6f6e6365206d69736d61746368000000000000000000000000000000000000604482015290519081900360640190fd5b6040805160208082018990527f01000000000000000000000000000000000000000000000000000000000000008815150282840152604180830188905283518084039091018152606190920192839052815161310593918291908401908083836020831061167d5780518252601f19909201916020918201910161165e565b9050613112818787613b36565b9695505050505050565b60055460009060ff161561312f57600080fd5b61313761331b565b151561314257600080fd5b6000821161314f57600080fd5b613159600261231c565b5190508082111561316957600080fd5b50600155565b600681565b61317c61331b565b151561318757600080fd5b600160a060020a038116151561319c57600080fd5b80600160a060020a0316ff5b600085858585856040516020018086600160a060020a0316600160a060020a03166c0100000000000000000000000002815260140185600160a060020a0316600160a060020a03166c0100000000000000000000000002815260140184815260200183805190602001908083835b602083106132355780518252601f199092019160209182019101613216565b51815160209384036101000a600019018019909216911617905292019384525060408051808503815293820190819052835193975095508594508601925081905083835b602083106132985780518252601f199092019160209182019101613279565b5181516020939093036101000a600019018019909116921691909117905260405192018290039091209998505050505050505050565b600c5481565b6132e7600284848463ffffffff61414d16565b6040518190839085907f480000bb1edad8ca1470381cc334b1917fbd51c6531f3a623ea8e0ec7e38a6e990600090a4505050565b60003330141561332d57506001610f8d565b60005460011461333c57600080fd5b613348612db833612199565b905090565b600061335761463d565b60008481526020868152604080832081518154608094810282018501909352606081018381529093919284928491908401828280156133b557602002820191906000526020600020905b8154815260200190600101908083116133a1575b50505091835250506001820154602082015260029091015460409182015281015190925015156133e85760009250613428565b5060005b81515181101561342857815180518591908390811061340757fe5b9060200190602002015114156134205760019250613428565b6001016133ec565b50509392505050565b6000806000808451604114151561344b57600093506134fd565b50505060208201516040830151606084015160001a601b60ff8216101561347057601b015b8060ff16601b1415801561348857508060ff16601c14155b1561349657600093506134fd565b60408051600080825260208083018085528a905260ff8516838501526060830187905260808301869052925160019360a0808501949193601f19840193928390039091019190865af11580156134f0573d6000803e3d6000fd5b5050506020604051035193505b50505092915050565b60008061351161478b565b61351c8787866141be565b915061352d308787876007546131a8565b92508486600160a060020a0316847f8afcfabcb00e47a53a8fc3e9f23ff47ee1926194bb1350dd007c50b412a6cee8876040518080602001828103825283818151815260200191508051906020019080838360005b8381101561359a578181015183820152602001613582565b50505050905090810190601f1680156135c75780820380516001836020036101000a031916815260200191505b509250505060405180910390a45060078054600101905560408051608081018252600160a060020a038716815260208101869052908101849052606081018290528115156136215761361b8382600061436f565b506136b8565b60008381526008602090815260409182902083518154600160a060020a031916600160a060020a0390911617815583820151600182015591830151805184939261367292600285019291019061470d565b50606091909101516003909101556000838152600960209081526040822080546001810182559083529120018054600160a060020a031916600160a060020a0389161790555b5050949350505050565b600080806136f0857f01ffc9a7000000000000000000000000000000000000000000000000000000006145f1565b9092509050811580613700575080155b1561370e5760009250613771565b61372085600160e060020a03196145f1565b909250905081158061373157508015155b1561373f5760009250613771565b61374985856145f1565b909250905060018214801561375e5750806001145b1561376c5760019250613771565b600092505b505092915050565b6000828152602084905260408120600181015491805b8254821015613839578483838154811015156137a757fe5b9060005260206000200154141561382e578254839060001981019081106137ca57fe5b906000526020600020015483838154811015156137e357fe5b60009182526020909120015582548390600019810190811061380157fe5b6000918252602082200155825461381c8460001983016146e4565b50600287018054600019019055613839565b60019091019061378f565b8254151561386b5760008681526020889052604081209061385a82826147bd565b506000600182018190556002909101555b5050600083815260018601602052604081205b805482101561391a578054869082908490811061389757fe5b600091825260209091200154141561390f578054819060001981019081106138bb57fe5b906000526020600020015481838154811015156138d457fe5b6000918252602090912001558054819060001981019081106138f257fe5b6000918252602082200155805461390d8260001983016146e4565b505b60019091019061387e565b5050509392505050565b6000806001861415613a525761394461393e3089866111e7565b856113d4565b905080600160a060020a031685600160a060020a0316141561396957600191506116c1565b600160a060020a03851630141561399d5761399661398682612199565b600290600363ffffffff61334d16565b91506116c1565b6139be6139a861229d565b600160a060020a0387169063ffffffff6136c216565b15613a525784600160a060020a031663d202158d6139db83612199565b6040805160e060020a63ffffffff85160281526004810192909252600360248301525160448083019260209291908290030181600087803b158015613a1f57600080fd5b505af1158015613a33573d6000803e3d6000fd5b505050506040513d6020811015613a4957600080fd5b505191506116c1565b600091506116c1565b6000613a6561463d565b6000838152602085815260409182902082518154608093810282018401909452606081018481529093919284928491840182828015613ac357602002820191906000526020600020905b815481526020019060010190808311613aaf575b50505091835250506001820154602082015260029091015460409182015201511515949350505050565b600093845260209485526040808520600160a060020a0394909416855260039093018552828420600160e060020a031992909216845293529020805460ff191682151517905590565b6000808080851515613b4757600080fd5b60008681526008602052604090208054909350600160a060020a03161515613b6e57600080fd5b825460028085018054604080516020601f6000196001861615610100020190941695909504928301859004850281018501909152818152613c15948c94600160a060020a0390911693919290830182828015613c0b5780601f10613be057610100808354040283529160200191613c0b565b820191906000526020600020905b815481529060010190602001808311613bee57829003601f168201915b50505050506141be565b50604080518615158152905187917fb3932da477fe5d6c8ff2eafef050c0f3a1af18fc07121001482600f36f3715d8919081900360200190a260008681526009602052604090209150841515613d68575060005b8154811015613d5f5786600160a060020a03168282815481101515613c8a57fe5b600091825260209091200154600160a060020a03161415613d5757815482906000198101908110613cb757fe5b6000918252602090912001548254600160a060020a0390911690839083908110613cdd57fe5b60009182526020909120018054600160a060020a031916600160a060020a0392909216919091179055815482906000198101908110613d1857fe5b60009182526020909120018054600160a060020a03191690558154613d418360001983016146e4565b506003830180546001908101909155935061391a565b600101613c69565b6000935061391a565b5060005b8154811015613db55786600160a060020a03168282815481101515613d8d57fe5b600091825260209091200154600160a060020a03161415613dad57600080fd5b600101613d6c565b8154600181018355600083815260209020018054600160a060020a031916600160a060020a03891617905560038301805460001901908190551515613ecc57604080516080810182528454600160a060020a031681526001808601546020808401919091526002808801805486516101009582161595909502600019011691909104601f81018390048302840183018652808452613ec5958c95948a949186019390929091830182828015613eab5780601f10613e8057610100808354040283529160200191613eab565b820191906000526020600020905b815481529060010190602001808311613e8e57829003601f168201915b50505050508152602001600382015481525050600161436f565b935061391a565b6001935061391a565b6040805160c0810182528781526020808201888152600160a060020a03888116848601908152606085018981526080860189905260a0860188905260008e8152600a865296909620855181559251600184015551600283018054600160a060020a0319169190921617905592518051929392613f57926003850192019061470d565b5060808201518051613f7391600484019160209091019061470d565b5060a08201518051613f8f91600584019160209091019061470d565b5050506000868152600b60209081526040808320805460018181018355918552838520018b9055600c80549091019055805188815260808184018181528851918301919091528751600160a060020a038a16958c958e957f46149b18aa084502c3f12bc75e19eda8bda8d102b82cce8474677a6d0d5f43c5958e958d958d958d959394929392850192606086019260a0870192918a01918190849084905b8381101561404557818101518382015260200161402d565b50505050905090810190601f1680156140725780820380516001836020036101000a031916815260200191505b50848103835286518152865160209182019188019080838360005b838110156140a557818101518382015260200161408d565b50505050905090810190601f1680156140d25780820380516001836020036101000a031916815260200191505b50848103825285518152855160209182019187019080838360005b838110156141055781810151838201526020016140ed565b50505050905090810190601f1680156141325780820380516001836020036101000a031916815260200191505b5097505050505050505060405180910390a450505050505050565b600083815260208581526040822080546001810182558184529190922001839055600281015415156141885760028101849055600181018290555b50506000908152600180840160209081526040832080548084018255908452922090910191909155600290910180549091019055565b6000600160a060020a03831630141561426957600160a060020a0384163014156141eb5750600054614264565b6141f7612db885612199565b80614256575061421961420985612199565b600290600763ffffffff61334d16565b801561425657507f1d3812400000000000000000000000000000000000000000000000000000000061424a83612899565b600160e060020a031916145b156117f95750600054600019015b6112e0565b600160a060020a038316151561427e57600080fd5b600160a060020a03841630141561429857506001546112e0565b6142b36142a485612199565b6002908163ffffffff61334d16565b806142d557506142d56142c585612199565b600290600663ffffffff61334d16565b8061435d57506142f76142e785612199565b600290600863ffffffff61334d16565b801561435d57506002600061430b86612199565b815260208082019290925260409081016000908120600160a060020a038716825260030190925281209061433e84612899565b600160e060020a031916815260208101919091526040016000205460ff165b156117f95750600154600019016112e0565b81516000908190600160a060020a0316151561438a57600080fd5b8360000151600160a060020a03168460200151856040015160405180828051906020019080838360005b838110156143cc5781810151838201526020016143b4565b50505050905090810190601f1680156143f95780820380516001836020036101000a031916815260200191505b5091505060006040518083038185875af19250505090508015156144d15783602001518460000151600160a060020a0316867fe10c49d9f7c71da23262367013434763cfdb2332267641728d25cd712c5c6a6887604001516040518080602001828103825283818151815260200191508051906020019080838360005b8381101561448e578181015183820152602001614476565b50505050905090810190601f1680156144bb5780820380516001836020036101000a031916815260200191505b509250505060405180910390a4600091506145e9565b83602001518460000151600160a060020a0316867f1f920dbda597d7bf95035464170fa58d0a4b57f13a1c315ace6793b9f63688b887604001516040518080602001828103825283818151815260200191508051906020019080838360005b83811015614548578181015183820152602001614530565b50505050905090810190601f1680156145755780820380516001836020036101000a031916815260200191505b509250505060405180910390a482151561459257600191506145e9565b60008581526008602052604081208054600160a060020a031916815560018101829055906145c3600283018261469d565b5060006003919091018190558581526009602052604081206145e4916147bd565b600191505b509392505050565b6040517f01ffc9a70000000000000000000000000000000000000000000000000000000080825260048201839052600091829190602081818189617530fa905190969095509350505050565b604080516060818101835281526000602082018190529181019190915290565b60c06040519081016040528060008152602001600081526020016000600160a060020a031681526020016060815260200160608152602001606081525090565b50805460018160011615610100020316600290046000825580601f106146c357506146e1565b601f0160209004906000526020600020908101906146e191906147d7565b50565b815481835581811115614708576000838152602090206147089181019083016147d7565b505050565b828054600181600116156101000203166002900490600052602060002090601f016020900481019282601f1061474e57805160ff191683800117855561477b565b8280016001018555821561477b579182015b8281111561477b578251825591602001919060010190614760565b506147879291506147d7565b5090565b6080604051908101604052806000600160a060020a031681526020016000815260200160608152602001600081525090565b50805460008255906000526020600020908101906146e191905b610f8d91905b8082111561478757600081556001016147dd5600a165627a7a72305820c3fe1ce86de5674e1a093ee4addbca82c74f2d7d4a89a67effecec251235b63c0029",
  "source": "pragma solidity ^0.4.24;\n\nimport \"./Destructible.sol\";\nimport \"./ERC735.sol\";\nimport \"./KeyGetters.sol\";\nimport \"./KeyManager.sol\";\nimport \"./MultiSig.sol\";\nimport \"./ClaimManager.sol\";\nimport \"./Slice.sol\";\n\n/// @title MetaIdentity\n/// @author Metadium, genie\n/// @notice Identity contract implementing ERC 725, ERC 735 and Metadium features.\n\ncontract MetaIdentityLib is KeyManager, MultiSig, ClaimManager, Destructible, KeyGetters {\n    using Slice for bytes;\n    using Slice for string;\n    \n    // Fallback function accepts Ether transactions\n    // solhint-disable-next-line no-empty-blocks\n    function () external payable {\n    \n    }\n\n    function init(address _managementKey) public {\n        bytes32 senderKey = addrToKey(_managementKey);\n        \n        require(getKeysByPurpose(MANAGEMENT_KEY).length == 0, \"Already initiated\");\n\n        // Add key that deployed the contract for MANAGEMENT, ACTION, CLAIM\n        _addKey(senderKey, MANAGEMENT_KEY, ECDSA_TYPE);\n        _addKey(senderKey, ACTION_KEY, ECDSA_TYPE);\n        _addKey(senderKey, CLAIM_SIGNER_KEY, ECDSA_TYPE);\n        \n        managementThreshold = 1;\n        actionThreshold = 1;\n\n        // Supports both ERC 725 & 735\n        supportedInterfaces[ERC725ID() ^ ERC735ID()] = true;\n    }\n\n}",
  "sourcePath": "/Users/coinplug/BangGijin/metabolics2.0/contracts/identity/MetaIdentityLib.sol",
  "compiler": {
    "name": "solc",
    "version": "0.4.24+commit.e67f0147.Emscripten.clang"
  },
  "schemaVersion": "2.0.1",
  "updatedAt": "2018-12-14T01:57:00.401Z"
}