{
  "contractName": "MetaIdentityLib",
  "abi": [
    {
      "constant": true,
      "inputs": [
        {
          "name": "interfaceID",
          "type": "bytes4"
        }
      ],
      "name": "supportsInterface",
      "outputs": [
        {
          "name": "",
          "type": "bool"
        }
      ],
      "payable": false,
      "stateMutability": "view",
      "type": "function"
    },
    {
      "constant": true,
      "inputs": [],
      "name": "ERC165ID",
      "outputs": [
        {
          "name": "",
          "type": "bytes4"
        }
      ],
      "payable": false,
      "stateMutability": "pure",
      "type": "function"
    },
    {
      "constant": true,
      "inputs": [],
      "name": "REGISTRY_TOPIC",
      "outputs": [
        {
          "name": "",
          "type": "uint256"
        }
      ],
      "payable": false,
      "stateMutability": "view",
      "type": "function"
    },
    {
      "constant": true,
      "inputs": [],
      "name": "MANAGEMENT_KEY",
      "outputs": [
        {
          "name": "",
          "type": "uint256"
        }
      ],
      "payable": false,
      "stateMutability": "view",
      "type": "function"
    },
    {
      "constant": true,
      "inputs": [
        {
          "name": "_key",
          "type": "bytes32"
        }
      ],
      "name": "getKey",
      "outputs": [
        {
          "name": "purposes",
          "type": "uint256[]"
        },
        {
          "name": "keyType",
          "type": "uint256"
        },
        {
          "name": "key",
          "type": "bytes32"
        }
      ],
      "payable": false,
      "stateMutability": "view",
      "type": "function"
    },
    {
      "constant": true,
      "inputs": [
        {
          "name": "issuer",
          "type": "address"
        },
        {
          "name": "topic",
          "type": "uint256"
        }
      ],
      "name": "getClaimId",
      "outputs": [
        {
          "name": "",
          "type": "bytes32"
        }
      ],
      "payable": false,
      "stateMutability": "pure",
      "type": "function"
    },
    {
      "constant": true,
      "inputs": [],
      "name": "getNumClaims",
      "outputs": [
        {
          "name": "num",
          "type": "uint256"
        }
      ],
      "payable": false,
      "stateMutability": "view",
      "type": "function"
    },
    {
      "constant": true,
      "inputs": [
        {
          "name": "subject",
          "type": "address"
        },
        {
          "name": "topic",
          "type": "uint256"
        },
        {
          "name": "data",
          "type": "bytes"
        }
      ],
      "name": "claimToSign",
      "outputs": [
        {
          "name": "",
          "type": "bytes32"
        }
      ],
      "payable": false,
      "stateMutability": "pure",
      "type": "function"
    },
    {
      "constant": false,
      "inputs": [
        {
          "name": "_key",
          "type": "bytes32"
        },
        {
          "name": "_purpose",
          "type": "uint256"
        },
        {
          "name": "_keyType",
          "type": "uint256"
        }
      ],
      "name": "addKey",
      "outputs": [
        {
          "name": "success",
          "type": "bool"
        }
      ],
      "payable": false,
      "stateMutability": "nonpayable",
      "type": "function"
    },
    {
      "constant": true,
      "inputs": [
        {
          "name": "_claimId",
          "type": "bytes32"
        }
      ],
      "name": "isClaimExist",
      "outputs": [
        {
          "name": "",
          "type": "bool"
        }
      ],
      "payable": false,
      "stateMutability": "view",
      "type": "function"
    },
    {
      "constant": true,
      "inputs": [],
      "name": "CONTRACT_SCHEME",
      "outputs": [
        {
          "name": "",
          "type": "uint256"
        }
      ],
      "payable": false,
      "stateMutability": "view",
      "type": "function"
    },
    {
      "constant": true,
      "inputs": [
        {
          "name": "_topic",
          "type": "uint256"
        }
      ],
      "name": "getClaimIdsByType",
      "outputs": [
        {
          "name": "claimIds",
          "type": "bytes32[]"
        }
      ],
      "payable": false,
      "stateMutability": "view",
      "type": "function"
    },
    {
      "constant": true,
      "inputs": [],
      "name": "RSA_TYPE",
      "outputs": [
        {
          "name": "",
          "type": "uint256"
        }
      ],
      "payable": false,
      "stateMutability": "view",
      "type": "function"
    },
    {
      "constant": true,
      "inputs": [],
      "name": "getTransactionCount",
      "outputs": [
        {
          "name": "",
          "type": "uint256"
        }
      ],
      "payable": false,
      "stateMutability": "view",
      "type": "function"
    },
    {
      "constant": true,
      "inputs": [],
      "name": "actionThreshold",
      "outputs": [
        {
          "name": "",
          "type": "uint256"
        }
      ],
      "payable": false,
      "stateMutability": "view",
      "type": "function"
    },
    {
      "constant": true,
      "inputs": [
        {
          "name": "toSign",
          "type": "bytes32"
        },
        {
          "name": "signature",
          "type": "bytes"
        }
      ],
      "name": "getSignatureAddress",
      "outputs": [
        {
          "name": "",
          "type": "address"
        }
      ],
      "payable": false,
      "stateMutability": "pure",
      "type": "function"
    },
    {
      "constant": false,
      "inputs": [],
      "name": "unpause",
      "outputs": [],
      "payable": false,
      "stateMutability": "nonpayable",
      "type": "function"
    },
    {
      "constant": true,
      "inputs": [],
      "name": "ECDSA_TYPE",
      "outputs": [
        {
          "name": "",
          "type": "uint256"
        }
      ],
      "payable": false,
      "stateMutability": "view",
      "type": "function"
    },
    {
      "constant": false,
      "inputs": [
        {
          "name": "_to",
          "type": "address"
        },
        {
          "name": "_value",
          "type": "uint256"
        },
        {
          "name": "_data",
          "type": "bytes"
        },
        {
          "name": "_nonce",
          "type": "uint256"
        },
        {
          "name": "_sig",
          "type": "bytes"
        }
      ],
      "name": "delegatedExecute",
      "outputs": [
        {
          "name": "executionId",
          "type": "uint256"
        }
      ],
      "payable": false,
      "stateMutability": "nonpayable",
      "type": "function"
    },
    {
      "constant": false,
      "inputs": [
        {
          "name": "_claimId",
          "type": "bytes32"
        }
      ],
      "name": "removeClaim",
      "outputs": [
        {
          "name": "success",
          "type": "bool"
        }
      ],
      "payable": false,
      "stateMutability": "nonpayable",
      "type": "function"
    },
    {
      "constant": false,
      "inputs": [
        {
          "name": "_key",
          "type": "bytes32"
        },
        {
          "name": "_purpose",
          "type": "uint256"
        }
      ],
      "name": "removeKey",
      "outputs": [
        {
          "name": "success",
          "type": "bool"
        }
      ],
      "payable": false,
      "stateMutability": "nonpayable",
      "type": "function"
    },
    {
      "constant": true,
      "inputs": [],
      "name": "paused",
      "outputs": [
        {
          "name": "",
          "type": "bool"
        }
      ],
      "payable": false,
      "stateMutability": "view",
      "type": "function"
    },
    {
      "constant": false,
      "inputs": [
        {
          "name": "_claimId",
          "type": "bytes32"
        }
      ],
      "name": "refreshClaim",
      "outputs": [
        {
          "name": "",
          "type": "bool"
        }
      ],
      "payable": false,
      "stateMutability": "nonpayable",
      "type": "function"
    },
    {
      "constant": true,
      "inputs": [
        {
          "name": "",
          "type": "uint256"
        }
      ],
      "name": "execution",
      "outputs": [
        {
          "name": "to",
          "type": "address"
        },
        {
          "name": "value",
          "type": "uint256"
        },
        {
          "name": "data",
          "type": "bytes"
        },
        {
          "name": "needsApprove",
          "type": "uint256"
        }
      ],
      "payable": false,
      "stateMutability": "view",
      "type": "function"
    },
    {
      "constant": true,
      "inputs": [
        {
          "name": "addr",
          "type": "address"
        }
      ],
      "name": "addrToKey",
      "outputs": [
        {
          "name": "",
          "type": "bytes32"
        }
      ],
      "payable": false,
      "stateMutability": "pure",
      "type": "function"
    },
    {
      "constant": true,
      "inputs": [
        {
          "name": "",
          "type": "uint256"
        },
        {
          "name": "",
          "type": "uint256"
        }
      ],
      "name": "approved",
      "outputs": [
        {
          "name": "",
          "type": "address"
        }
      ],
      "payable": false,
      "stateMutability": "view",
      "type": "function"
    },
    {
      "constant": true,
      "inputs": [],
      "name": "METAID_TOPIC",
      "outputs": [
        {
          "name": "",
          "type": "uint256"
        }
      ],
      "payable": false,
      "stateMutability": "view",
      "type": "function"
    },
    {
      "constant": false,
      "inputs": [
        {
          "name": "_key",
          "type": "bytes32"
        },
        {
          "name": "_to",
          "type": "address"
        },
        {
          "name": "_func",
          "type": "bytes4"
        },
        {
          "name": "_executable",
          "type": "bool"
        }
      ],
      "name": "setFunc",
      "outputs": [
        {
          "name": "success",
          "type": "bool"
        }
      ],
      "payable": false,
      "stateMutability": "nonpayable",
      "type": "function"
    },
    {
      "constant": false,
      "inputs": [
        {
          "name": "_id",
          "type": "uint256"
        },
        {
          "name": "_approve",
          "type": "bool"
        }
      ],
      "name": "approve",
      "outputs": [
        {
          "name": "success",
          "type": "bool"
        }
      ],
      "payable": false,
      "stateMutability": "nonpayable",
      "type": "function"
    },
    {
      "constant": true,
      "inputs": [],
      "name": "ACTION_KEY",
      "outputs": [
        {
          "name": "",
          "type": "uint256"
        }
      ],
      "payable": false,
      "stateMutability": "view",
      "type": "function"
    },
    {
      "constant": true,
      "inputs": [
        {
          "name": "_key",
          "type": "bytes32"
        },
        {
          "name": "_to",
          "type": "address"
        },
        {
          "name": "_func",
          "type": "bytes4"
        }
      ],
      "name": "keyCanExecute",
      "outputs": [
        {
          "name": "executable",
          "type": "bool"
        }
      ],
      "payable": false,
      "stateMutability": "view",
      "type": "function"
    },
    {
      "constant": true,
      "inputs": [],
      "name": "ERC725ID",
      "outputs": [
        {
          "name": "",
          "type": "bytes4"
        }
      ],
      "payable": false,
      "stateMutability": "pure",
      "type": "function"
    },
    {
      "constant": true,
      "inputs": [],
      "name": "ECDSA_SCHEME",
      "outputs": [
        {
          "name": "",
          "type": "uint256"
        }
      ],
      "payable": false,
      "stateMutability": "view",
      "type": "function"
    },
    {
      "constant": false,
      "inputs": [],
      "name": "pause",
      "outputs": [],
      "payable": false,
      "stateMutability": "nonpayable",
      "type": "function"
    },
    {
      "constant": true,
      "inputs": [
        {
          "name": "_purpose",
          "type": "uint256"
        }
      ],
      "name": "getKeysByPurpose",
      "outputs": [
        {
          "name": "keys",
          "type": "bytes32[]"
        }
      ],
      "payable": false,
      "stateMutability": "view",
      "type": "function"
    },
    {
      "constant": true,
      "inputs": [],
      "name": "ENCRYPTION_KEY",
      "outputs": [
        {
          "name": "",
          "type": "uint256"
        }
      ],
      "payable": false,
      "stateMutability": "view",
      "type": "function"
    },
    {
      "constant": true,
      "inputs": [],
      "name": "RESIDENCE_TOPIC",
      "outputs": [
        {
          "name": "",
          "type": "uint256"
        }
      ],
      "payable": false,
      "stateMutability": "view",
      "type": "function"
    },
    {
      "constant": true,
      "inputs": [],
      "name": "managementThreshold",
      "outputs": [
        {
          "name": "",
          "type": "uint256"
        }
      ],
      "payable": false,
      "stateMutability": "view",
      "type": "function"
    },
    {
      "constant": true,
      "inputs": [],
      "name": "PROFILE_TOPIC",
      "outputs": [
        {
          "name": "",
          "type": "uint256"
        }
      ],
      "payable": false,
      "stateMutability": "view",
      "type": "function"
    },
    {
      "constant": true,
      "inputs": [],
      "name": "nonce",
      "outputs": [
        {
          "name": "",
          "type": "uint256"
        }
      ],
      "payable": false,
      "stateMutability": "view",
      "type": "function"
    },
    {
      "constant": true,
      "inputs": [],
      "name": "CUSTOM_KEY",
      "outputs": [
        {
          "name": "",
          "type": "uint256"
        }
      ],
      "payable": false,
      "stateMutability": "view",
      "type": "function"
    },
    {
      "constant": false,
      "inputs": [
        {
          "name": "_topic",
          "type": "uint256"
        },
        {
          "name": "_scheme",
          "type": "uint256"
        },
        {
          "name": "issuer",
          "type": "address"
        },
        {
          "name": "_signature",
          "type": "bytes"
        },
        {
          "name": "_data",
          "type": "bytes"
        },
        {
          "name": "_uri",
          "type": "string"
        }
      ],
      "name": "addClaim",
      "outputs": [
        {
          "name": "claimRequestId",
          "type": "uint256"
        }
      ],
      "payable": false,
      "stateMutability": "nonpayable",
      "type": "function"
    },
    {
      "constant": true,
      "inputs": [],
      "name": "LABEL_TOPIC",
      "outputs": [
        {
          "name": "",
          "type": "uint256"
        }
      ],
      "payable": false,
      "stateMutability": "view",
      "type": "function"
    },
    {
      "constant": false,
      "inputs": [
        {
          "name": "_to",
          "type": "address"
        },
        {
          "name": "_value",
          "type": "uint256"
        },
        {
          "name": "_data",
          "type": "bytes"
        }
      ],
      "name": "execute",
      "outputs": [
        {
          "name": "executionId",
          "type": "uint256"
        }
      ],
      "payable": false,
      "stateMutability": "nonpayable",
      "type": "function"
    },
    {
      "constant": true,
      "inputs": [],
      "name": "RESTORE_KEY",
      "outputs": [
        {
          "name": "",
          "type": "uint256"
        }
      ],
      "payable": false,
      "stateMutability": "view",
      "type": "function"
    },
    {
      "constant": true,
      "inputs": [],
      "name": "ERC735ID",
      "outputs": [
        {
          "name": "",
          "type": "bytes4"
        }
      ],
      "payable": false,
      "stateMutability": "pure",
      "type": "function"
    },
    {
      "constant": true,
      "inputs": [
        {
          "name": "b",
          "type": "bytes"
        }
      ],
      "name": "getFunctionSignature",
      "outputs": [
        {
          "name": "",
          "type": "bytes4"
        }
      ],
      "payable": false,
      "stateMutability": "pure",
      "type": "function"
    },
    {
      "constant": true,
      "inputs": [],
      "name": "CLAIM_SIGNER_KEY",
      "outputs": [
        {
          "name": "",
          "type": "uint256"
        }
      ],
      "payable": false,
      "stateMutability": "view",
      "type": "function"
    },
    {
      "constant": true,
      "inputs": [
        {
          "name": "_claimId",
          "type": "bytes32"
        }
      ],
      "name": "getClaim",
      "outputs": [
        {
          "name": "topic",
          "type": "uint256"
        },
        {
          "name": "scheme",
          "type": "uint256"
        },
        {
          "name": "issuer",
          "type": "address"
        },
        {
          "name": "signature",
          "type": "bytes"
        },
        {
          "name": "data",
          "type": "bytes"
        },
        {
          "name": "uri",
          "type": "string"
        }
      ],
      "payable": false,
      "stateMutability": "view",
      "type": "function"
    },
    {
      "constant": true,
      "inputs": [],
      "name": "numKeys",
      "outputs": [
        {
          "name": "",
          "type": "uint256"
        }
      ],
      "payable": false,
      "stateMutability": "view",
      "type": "function"
    },
    {
      "constant": false,
      "inputs": [
        {
          "name": "threshold",
          "type": "uint256"
        }
      ],
      "name": "changeManagementThreshold",
      "outputs": [],
      "payable": false,
      "stateMutability": "nonpayable",
      "type": "function"
    },
    {
      "constant": true,
      "inputs": [],
      "name": "getNonce",
      "outputs": [
        {
          "name": "",
          "type": "uint256"
        }
      ],
      "payable": false,
      "stateMutability": "view",
      "type": "function"
    },
    {
      "constant": true,
      "inputs": [
        {
          "name": "_key",
          "type": "bytes32"
        },
        {
          "name": "purpose",
          "type": "uint256"
        }
      ],
      "name": "keyHasPurpose",
      "outputs": [
        {
          "name": "exists",
          "type": "bool"
        }
      ],
      "payable": false,
      "stateMutability": "view",
      "type": "function"
    },
    {
      "constant": true,
      "inputs": [],
      "name": "ASSIST_KEY",
      "outputs": [
        {
          "name": "",
          "type": "uint256"
        }
      ],
      "payable": false,
      "stateMutability": "view",
      "type": "function"
    },
    {
      "constant": false,
      "inputs": [
        {
          "name": "_topic",
          "type": "uint256"
        },
        {
          "name": "_scheme",
          "type": "uint256"
        },
        {
          "name": "issuer",
          "type": "address"
        },
        {
          "name": "_signature",
          "type": "bytes"
        },
        {
          "name": "_data",
          "type": "bytes"
        },
        {
          "name": "_uri",
          "type": "string"
        },
        {
          "name": "_idSignature",
          "type": "bytes"
        }
      ],
      "name": "addClaimByProxy",
      "outputs": [
        {
          "name": "success",
          "type": "bool"
        }
      ],
      "payable": false,
      "stateMutability": "nonpayable",
      "type": "function"
    },
    {
      "constant": false,
      "inputs": [
        {
          "name": "_id",
          "type": "uint256"
        },
        {
          "name": "_approve",
          "type": "bool"
        },
        {
          "name": "_nonce",
          "type": "uint256"
        },
        {
          "name": "_sig",
          "type": "bytes"
        }
      ],
      "name": "delegatedApprove",
      "outputs": [
        {
          "name": "success",
          "type": "bool"
        }
      ],
      "payable": false,
      "stateMutability": "nonpayable",
      "type": "function"
    },
    {
      "constant": false,
      "inputs": [
        {
          "name": "threshold",
          "type": "uint256"
        }
      ],
      "name": "changeActionThreshold",
      "outputs": [],
      "payable": false,
      "stateMutability": "nonpayable",
      "type": "function"
    },
    {
      "constant": true,
      "inputs": [],
      "name": "DELEGATE_KEY",
      "outputs": [
        {
          "name": "",
          "type": "uint256"
        }
      ],
      "payable": false,
      "stateMutability": "view",
      "type": "function"
    },
    {
      "constant": true,
      "inputs": [],
      "name": "RSA_SCHEME",
      "outputs": [
        {
          "name": "",
          "type": "uint256"
        }
      ],
      "payable": false,
      "stateMutability": "view",
      "type": "function"
    },
    {
      "constant": false,
      "inputs": [
        {
          "name": "_recipient",
          "type": "address"
        }
      ],
      "name": "destroyAndSend",
      "outputs": [],
      "payable": false,
      "stateMutability": "nonpayable",
      "type": "function"
    },
    {
      "constant": true,
      "inputs": [
        {
          "name": "self",
          "type": "address"
        },
        {
          "name": "_to",
          "type": "address"
        },
        {
          "name": "_value",
          "type": "uint256"
        },
        {
          "name": "_data",
          "type": "bytes"
        },
        {
          "name": "_nonce",
          "type": "uint256"
        }
      ],
      "name": "getExecutionId",
      "outputs": [
        {
          "name": "",
          "type": "uint256"
        }
      ],
      "payable": false,
      "stateMutability": "pure",
      "type": "function"
    },
    {
      "constant": true,
      "inputs": [],
      "name": "numClaims",
      "outputs": [
        {
          "name": "",
          "type": "uint256"
        }
      ],
      "payable": false,
      "stateMutability": "view",
      "type": "function"
    },
    {
      "inputs": [],
      "payable": false,
      "stateMutability": "nonpayable",
      "type": "constructor"
    },
    {
      "payable": true,
      "stateMutability": "payable",
      "type": "fallback"
    },
    {
      "anonymous": false,
      "inputs": [
        {
          "indexed": true,
          "name": "claimRequestId",
          "type": "uint256"
        },
        {
          "indexed": true,
          "name": "topic",
          "type": "uint256"
        },
        {
          "indexed": false,
          "name": "scheme",
          "type": "uint256"
        },
        {
          "indexed": true,
          "name": "issuer",
          "type": "address"
        },
        {
          "indexed": false,
          "name": "signature",
          "type": "bytes"
        },
        {
          "indexed": false,
          "name": "data",
          "type": "bytes"
        },
        {
          "indexed": false,
          "name": "uri",
          "type": "string"
        }
      ],
      "name": "ClaimRequested",
      "type": "event"
    },
    {
      "anonymous": false,
      "inputs": [
        {
          "indexed": true,
          "name": "claimId",
          "type": "bytes32"
        },
        {
          "indexed": true,
          "name": "topic",
          "type": "uint256"
        },
        {
          "indexed": false,
          "name": "scheme",
          "type": "uint256"
        },
        {
          "indexed": true,
          "name": "issuer",
          "type": "address"
        },
        {
          "indexed": false,
          "name": "signature",
          "type": "bytes"
        },
        {
          "indexed": false,
          "name": "data",
          "type": "bytes"
        },
        {
          "indexed": false,
          "name": "uri",
          "type": "string"
        }
      ],
      "name": "ClaimAdded",
      "type": "event"
    },
    {
      "anonymous": false,
      "inputs": [
        {
          "indexed": true,
          "name": "claimId",
          "type": "bytes32"
        },
        {
          "indexed": true,
          "name": "topic",
          "type": "uint256"
        },
        {
          "indexed": false,
          "name": "scheme",
          "type": "uint256"
        },
        {
          "indexed": true,
          "name": "issuer",
          "type": "address"
        },
        {
          "indexed": false,
          "name": "signature",
          "type": "bytes"
        },
        {
          "indexed": false,
          "name": "data",
          "type": "bytes"
        },
        {
          "indexed": false,
          "name": "uri",
          "type": "string"
        }
      ],
      "name": "ClaimRemoved",
      "type": "event"
    },
    {
      "anonymous": false,
      "inputs": [
        {
          "indexed": true,
          "name": "claimId",
          "type": "bytes32"
        },
        {
          "indexed": true,
          "name": "topic",
          "type": "uint256"
        },
        {
          "indexed": false,
          "name": "scheme",
          "type": "uint256"
        },
        {
          "indexed": true,
          "name": "issuer",
          "type": "address"
        },
        {
          "indexed": false,
          "name": "signature",
          "type": "bytes"
        },
        {
          "indexed": false,
          "name": "data",
          "type": "bytes"
        },
        {
          "indexed": false,
          "name": "uri",
          "type": "string"
        }
      ],
      "name": "ClaimChanged",
      "type": "event"
    },
    {
      "anonymous": false,
      "inputs": [
        {
          "indexed": true,
          "name": "key",
          "type": "bytes32"
        },
        {
          "indexed": true,
          "name": "purpose",
          "type": "uint256"
        },
        {
          "indexed": true,
          "name": "keyType",
          "type": "uint256"
        }
      ],
      "name": "KeyAdded",
      "type": "event"
    },
    {
      "anonymous": false,
      "inputs": [
        {
          "indexed": true,
          "name": "key",
          "type": "bytes32"
        },
        {
          "indexed": true,
          "name": "purpose",
          "type": "uint256"
        },
        {
          "indexed": true,
          "name": "keyType",
          "type": "uint256"
        }
      ],
      "name": "KeyRemoved",
      "type": "event"
    },
    {
      "anonymous": false,
      "inputs": [
        {
          "indexed": true,
          "name": "executionId",
          "type": "uint256"
        },
        {
          "indexed": true,
          "name": "to",
          "type": "address"
        },
        {
          "indexed": true,
          "name": "value",
          "type": "uint256"
        },
        {
          "indexed": false,
          "name": "data",
          "type": "bytes"
        }
      ],
      "name": "ExecutionRequested",
      "type": "event"
    },
    {
      "anonymous": false,
      "inputs": [
        {
          "indexed": true,
          "name": "executionId",
          "type": "uint256"
        },
        {
          "indexed": true,
          "name": "to",
          "type": "address"
        },
        {
          "indexed": true,
          "name": "value",
          "type": "uint256"
        },
        {
          "indexed": false,
          "name": "data",
          "type": "bytes"
        }
      ],
      "name": "Executed",
      "type": "event"
    },
    {
      "anonymous": false,
      "inputs": [
        {
          "indexed": true,
          "name": "executionId",
          "type": "uint256"
        },
        {
          "indexed": false,
          "name": "approved",
          "type": "bool"
        }
      ],
      "name": "Approved",
      "type": "event"
    },
    {
      "anonymous": false,
      "inputs": [
        {
          "indexed": true,
          "name": "executionId",
          "type": "uint256"
        },
        {
          "indexed": true,
          "name": "to",
          "type": "address"
        },
        {
          "indexed": true,
          "name": "value",
          "type": "uint256"
        },
        {
          "indexed": false,
          "name": "data",
          "type": "bytes"
        }
      ],
      "name": "ExecutionFailed",
      "type": "event"
    },
    {
      "anonymous": false,
      "inputs": [],
      "name": "LogPause",
      "type": "event"
    },
    {
      "anonymous": false,
      "inputs": [],
      "name": "LogUnpause",
      "type": "event"
    },
    {
      "constant": false,
      "inputs": [
        {
          "name": "_managementKey",
          "type": "address"
        }
      ],
      "name": "init",
      "outputs": [],
      "payable": false,
      "stateMutability": "nonpayable",
      "type": "function"
    }
  ],
  "bytecode": "0x60806040526001600055600180556000600560006101000a81548160ff02191690831515021790555060016007553480156200003a57600080fd5b506001600660006200005a620001e1640100000000026401000000009004565b7bffffffffffffffffffffffffffffffffffffffffffffffffffffffff19167bffffffffffffffffffffffffffffffffffffffffffffffffffffffff1916815260200190815260200160002060006101000a81548160ff021916908315150217905550600160066000620000dc6200020c640100000000026401000000009004565b7bffffffffffffffffffffffffffffffffffffffffffffffffffffffff19167bffffffffffffffffffffffffffffffffffffffffffffffffffffffff1916815260200190815260200160002060006101000a81548160ff0219169083151502179055506001600660006200015e62000315640100000000026401000000009004565b7bffffffffffffffffffffffffffffffffffffffffffffffffffffffff19167bffffffffffffffffffffffffffffffffffffffffffffffffffffffff1916815260200190815260200160002060006101000a81548160ff021916908315150217905550620001db33620003af640100000000026401000000009004565b6200073b565b60006301ffc9a77c010000000000000000000000000000000000000000000000000000000002905090565b60006353d413c57c01000000000000000000000000000000000000000000000000000000000263747442d37c01000000000000000000000000000000000000000000000000000000000263b61d27f67c010000000000000000000000000000000000000000000000000000000002631d3812407c010000000000000000000000000000000000000000000000000000000002639010f7267c01000000000000000000000000000000000000000000000000000000000263d202158d7c0100000000000000000000000000000000000000000000000000000000026312aaac707c010000000000000000000000000000000000000000000000000000000002181818181818905090565b6000634eee424a7c01000000000000000000000000000000000000000000000000000000000263b1a34e0d7c01000000000000000000000000000000000000000000000000000000000263262b54f57c01000000000000000000000000000000000000000000000000000000000263c9100bcb7c010000000000000000000000000000000000000000000000000000000002181818905090565b6000620003cb8262000569640100000000026401000000009004565b90506000620003ea60016200058c640100000000026401000000009004565b5114151562000461576040517f08c379a00000000000000000000000000000000000000000000000000000000081526004018080602001828103825260118152602001807f416c726561647920696e6974696174656400000000000000000000000000000081525060200191505060405180910390fd5b6200047e8160018062000600640100000000026401000000009004565b6200049c816002600162000600640100000000026401000000009004565b620004ba816003600162000600640100000000026401000000009004565b600160008190555060018081905550600160066000620004e862000315640100000000026401000000009004565b620005016200020c640100000000026401000000009004565b187bffffffffffffffffffffffffffffffffffffffffffffffffffffffff19167bffffffffffffffffffffffffffffffffffffffffffffffffffffffff1916815260200190815260200160002060006101000a81548160ff0219169083151502179055505050565b60008173ffffffffffffffffffffffffffffffffffffffff166001029050919050565b606060026001016000838152602001908152602001600020805480602002602001604051908101604052809291908181526020018280548015620005f457602002820191906000526020600020905b81546000191681526020019060010190808311620005db575b50505050509050919050565b620006288383836002620006606401000000000262005f751790939291906401000000009004565b808284600019167f480000bb1edad8ca1470381cc334b1917fbd51c6531f3a623ea8e0ec7e38a6e960405160405180910390a4505050565b6000846000016000856000191660001916815260200190815260200160002090508060000183908060018154018082558091505090600182039060005260206000200160009091929091909150555060006001028160020154600019161415620006db57838160020181600019169055508181600101819055505b84600101600084815260200190815260200160002084908060018154018082558091505090600182039060005260206000200160009091929091909150906000191690555084600201600081548092919060010191905055505050505050565b616b2b806200074b6000396000f3006080604052600436106102eb576000357c0100000000000000000000000000000000000000000000000000000000900463ffffffff16806301ffc9a7146102ed57806302e7491e146103515780630440b43a146103ba578063058b316c146103e557806312aaac7014610410578063190db862146104ac578063199029861461051557806319ab453c146105405780631d203be8146105835780631d38124014610632578063237434f01461068f578063251de3e9146106d8578063262b54f5146107035780632d32d442146107855780632e7700f0146107b057806338f4edd4146107db5780633b8a12c8146108065780633f4ba83a146108bd57806349991ec8146108d45780634da34c2c146108ff5780634eee424a146109f657806353d413c514610a3f5780635c975abb14610a925780635d7bc3fc14610ac15780635dccebba14610b0a57806363f14c3c14610bf15780636e4c431114610c50578063710ca55014610cc7578063724a4b3b14610cf2578063747442d314610d9057806375e5598c14610de1578063765b304214610e0c5780637d96fa5814610e9e57806382d0944614610f075780638456cb5914610f325780639010f72614610f495780639e140cc814610fcb578063a550f0c714610ff6578063aa0a514214611021578063ae6283861461104c578063affed0e014611077578063b132734e146110a2578063b1a34e0d146110cd578063b1e9f64c1461120a578063b61d27f614611235578063b9133d63146112dc578063bf2f20ad14611307578063c32b351814611370578063c67021871461142b578063c9100bcb14611456578063c9d24ecc14611619578063ccfe586814611644578063d087d28814611671578063d202158d1461169c578063dbfa74b7146116ef578063e0610ba31461171a578063e804c01b146118a1578063e99896b814611942578063ead09fab1461196f578063f22d08a61461199a578063f5074f41146119c5578063f744413714611a08578063fc0fc84914611ad9575b005b3480156102f957600080fd5b5061033760048036038101908080357bffffffffffffffffffffffffffffffffffffffffffffffffffffffff19169060200190929190505050611b04565b604051808215151515815260200191505060405180910390f35b34801561035d57600080fd5b50610366611b6c565b60405180827bffffffffffffffffffffffffffffffffffffffffffffffffffffffff19167bffffffffffffffffffffffffffffffffffffffffffffffffffffffff1916815260200191505060405180910390f35b3480156103c657600080fd5b506103cf611b97565b6040518082815260200191505060405180910390f35b3480156103f157600080fd5b506103fa611b9c565b6040518082815260200191505060405180910390f35b34801561041c57600080fd5b5061043f6004803603810190808035600019169060200190929190505050611ba1565b60405180806020018481526020018360001916600019168152602001828103825285818151815260200191508051906020019060200280838360005b8381101561049657808201518184015260208101905061047b565b5050505090500194505050505060405180910390f35b3480156104b857600080fd5b506104f7600480360381019080803573ffffffffffffffffffffffffffffffffffffffff16906020019092919080359060200190929190505050611c6b565b60405180826000191660001916815260200191505060405180910390f35b34801561052157600080fd5b5061052a611d3a565b6040518082815260200191505060405180910390f35b34801561054c57600080fd5b50610581600480360381019080803573ffffffffffffffffffffffffffffffffffffffff169060200190929190505050611d44565b005b34801561058f57600080fd5b50610614600480360381019080803573ffffffffffffffffffffffffffffffffffffffff16906020019092919080359060200190929190803590602001908201803590602001908080601f0160208091040260200160405190810160405280939291908181526020018383808284378201915050505050509192919290505050611e86565b60405180826000191660001916815260200191505060405180910390f35b34801561063e57600080fd5b5061067560048036038101908080356000191690602001909291908035906020019092919080359060200190929190505050611fab565b604051808215151515815260200191505060405180910390f35b34801561069b57600080fd5b506106be6004803603810190808035600019169060200190929190505050612017565b604051808215151515815260200191505060405180910390f35b3480156106e457600080fd5b506106ed61208e565b6040518082815260200191505060405180910390f35b34801561070f57600080fd5b5061072e60048036038101908080359060200190929190505050612093565b6040518080602001828103825283818151815260200191508051906020019060200280838360005b83811015610771578082015181840152602081019050610756565b505050509050019250505060405180910390f35b34801561079157600080fd5b5061079a612102565b6040518082815260200191505060405180910390f35b3480156107bc57600080fd5b506107c5612107565b6040518082815260200191505060405180910390f35b3480156107e757600080fd5b506107f0612111565b6040518082815260200191505060405180910390f35b34801561081257600080fd5b5061087b6004803603810190808035600019169060200190929190803590602001908201803590602001908080601f0160208091040260200160405190810160405280939291908181526020018383808284378201915050505050509192919290505050612117565b604051808273ffffffffffffffffffffffffffffffffffffffff1673ffffffffffffffffffffffffffffffffffffffff16815260200191505060405180910390f35b3480156108c957600080fd5b506108d261224b565b005b3480156108e057600080fd5b506108e96122c2565b6040518082815260200191505060405180910390f35b34801561090b57600080fd5b506109e0600480360381019080803573ffffffffffffffffffffffffffffffffffffffff16906020019092919080359060200190929190803590602001908201803590602001908080601f016020809104026020016040519081016040528093929190818152602001838380828437820191505050505050919291929080359060200190929190803590602001908201803590602001908080601f01602080910402602001604051908101604052809392919081815260200183838082843782019150505050505091929192905050506122c7565b6040518082815260200191505060405180910390f35b348015610a0257600080fd5b50610a2560048036038101908080356000191690602001909291905050506124a4565b604051808215151515815260200191505060405180910390f35b348015610a4b57600080fd5b50610a78600480360381019080803560001916906020019092919080359060200190929190505050612c7f565b604051808215151515815260200191505060405180910390f35b348015610a9e57600080fd5b50610aa7612d5b565b604051808215151515815260200191505060405180910390f35b348015610acd57600080fd5b50610af06004803603810190808035600019169060200190929190505050612d6e565b604051808215151515815260200191505060405180910390f35b348015610b1657600080fd5b50610b3560048036038101908080359060200190929190505050613258565b604051808573ffffffffffffffffffffffffffffffffffffffff1673ffffffffffffffffffffffffffffffffffffffff16815260200184815260200180602001838152602001828103825284818151815260200191508051906020019080838360005b83811015610bb3578082015181840152602081019050610b98565b50505050905090810190601f168015610be05780820380516001836020036101000a031916815260200191505b509550505050505060405180910390f35b348015610bfd57600080fd5b50610c32600480360381019080803573ffffffffffffffffffffffffffffffffffffffff169060200190929190505050613340565b60405180826000191660001916815260200191505060405180910390f35b348015610c5c57600080fd5b50610c856004803603810190808035906020019092919080359060200190929190505050613363565b604051808273ffffffffffffffffffffffffffffffffffffffff1673ffffffffffffffffffffffffffffffffffffffff16815260200191505060405180910390f35b348015610cd357600080fd5b50610cdc6133b0565b6040518082815260200191505060405180910390f35b348015610cfe57600080fd5b50610d766004803603810190808035600019169060200190929190803573ffffffffffffffffffffffffffffffffffffffff16906020019092919080357bffffffffffffffffffffffffffffffffffffffffffffffffffffffff191690602001909291908035151590602001909291905050506133b5565b604051808215151515815260200191505060405180910390f35b348015610d9c57600080fd5b50610dc76004803603810190808035906020019092919080351515906020019092919050505061342c565b604051808215151515815260200191505060405180910390f35b348015610ded57600080fd5b50610df661345d565b6040518082815260200191505060405180910390f35b348015610e1857600080fd5b50610e846004803603810190808035600019169060200190929190803573ffffffffffffffffffffffffffffffffffffffff16906020019092919080357bffffffffffffffffffffffffffffffffffffffffffffffffffffffff19169060200190929190505050613462565b604051808215151515815260200191505060405180910390f35b348015610eaa57600080fd5b50610eb3613528565b60405180827bffffffffffffffffffffffffffffffffffffffffffffffffffffffff19167bffffffffffffffffffffffffffffffffffffffffffffffffffffffff1916815260200191505060405180910390f35b348015610f1357600080fd5b50610f1c613631565b6040518082815260200191505060405180910390f35b348015610f3e57600080fd5b50610f47613636565b005b348015610f5557600080fd5b50610f74600480360381019080803590602001909291905050506136ae565b6040518080602001828103825283818151815260200191508051906020019060200280838360005b83811015610fb7578082015181840152602081019050610f9c565b505050509050019250505060405180910390f35b348015610fd757600080fd5b50610fe0613720565b6040518082815260200191505060405180910390f35b34801561100257600080fd5b5061100b613725565b6040518082815260200191505060405180910390f35b34801561102d57600080fd5b5061103661372a565b6040518082815260200191505060405180910390f35b34801561105857600080fd5b50611061613730565b6040518082815260200191505060405180910390f35b34801561108357600080fd5b5061108c613735565b6040518082815260200191505060405180910390f35b3480156110ae57600080fd5b506110b761373b565b6040518082815260200191505060405180910390f35b3480156110d957600080fd5b506111f46004803603810190808035906020019092919080359060200190929190803573ffffffffffffffffffffffffffffffffffffffff169060200190929190803590602001908201803590602001908080601f0160208091040260200160405190810160405280939291908181526020018383808284378201915050505050509192919290803590602001908201803590602001908080601f0160208091040260200160405190810160405280939291908181526020018383808284378201915050505050509192919290803590602001908201803590602001908080601f0160208091040260200160405190810160405280939291908181526020018383808284378201915050505050509192919290505050613740565b6040518082815260200191505060405180910390f35b34801561121657600080fd5b5061121f613cd8565b6040518082815260200191505060405180910390f35b34801561124157600080fd5b506112c6600480360381019080803573ffffffffffffffffffffffffffffffffffffffff16906020019092919080359060200190929190803590602001908201803590602001908080601f0160208091040260200160405190810160405280939291908181526020018383808284378201915050505050509192919290505050613cdd565b6040518082815260200191505060405180910390f35b3480156112e857600080fd5b506112f1613d10565b6040518082815260200191505060405180910390f35b34801561131357600080fd5b5061131c613d15565b60405180827bffffffffffffffffffffffffffffffffffffffffffffffffffffffff19167bffffffffffffffffffffffffffffffffffffffffffffffffffffffff1916815260200191505060405180910390f35b34801561137c57600080fd5b506113d7600480360381019080803590602001908201803590602001908080601f0160208091040260200160405190810160405280939291908181526020018383808284378201915050505050509192919290505050613daf565b60405180827bffffffffffffffffffffffffffffffffffffffffffffffffffffffff19167bffffffffffffffffffffffffffffffffffffffffffffffffffffffff1916815260200191505060405180910390f35b34801561143757600080fd5b50611440613ea5565b6040518082815260200191505060405180910390f35b34801561146257600080fd5b506114856004803603810190808035600019169060200190929190505050613eaa565b604051808781526020018681526020018573ffffffffffffffffffffffffffffffffffffffff1673ffffffffffffffffffffffffffffffffffffffff168152602001806020018060200180602001848103845287818151815260200191508051906020019080838360005b8381101561150b5780820151818401526020810190506114f0565b50505050905090810190601f1680156115385780820380516001836020036101000a031916815260200191505b50848103835286818151815260200191508051906020019080838360005b83811015611571578082015181840152602081019050611556565b50505050905090810190601f16801561159e5780820380516001836020036101000a031916815260200191505b50848103825285818151815260200191508051906020019080838360005b838110156115d75780820151818401526020810190506115bc565b50505050905090810190601f1680156116045780820380516001836020036101000a031916815260200191505b50995050505050505050505060405180910390f35b34801561162557600080fd5b5061162e6141a9565b6040518082815260200191505060405180910390f35b34801561165057600080fd5b5061166f600480360381019080803590602001909291905050506141b5565b005b34801561167d57600080fd5b5061168661421c565b6040518082815260200191505060405180910390f35b3480156116a857600080fd5b506116d5600480360381019080803560001916906020019092919080359060200190929190505050614226565b604051808215151515815260200191505060405180910390f35b3480156116fb57600080fd5b50611704614246565b6040518082815260200191505060405180910390f35b34801561172657600080fd5b506118876004803603810190808035906020019092919080359060200190929190803573ffffffffffffffffffffffffffffffffffffffff169060200190929190803590602001908201803590602001908080601f0160208091040260200160405190810160405280939291908181526020018383808284378201915050505050509192919290803590602001908201803590602001908080601f0160208091040260200160405190810160405280939291908181526020018383808284378201915050505050509192919290803590602001908201803590602001908080601f0160208091040260200160405190810160405280939291908181526020018383808284378201915050505050509192919290803590602001908201803590602001908080601f016020809104026020016040519081016040528093929190818152602001838380828437820191505050505050919291929050505061424b565b604051808215151515815260200191505060405180910390f35b3480156118ad57600080fd5b506119286004803603810190808035906020019092919080351515906020019092919080359060200190929190803590602001908201803590602001908080601f0160208091040260200160405190810160405280939291908181526020018383808284378201915050505050509192919290505050614738565b604051808215151515815260200191505060405180910390f35b34801561194e57600080fd5b5061196d600480360381019080803590602001909291905050506148a9565b005b34801561197b57600080fd5b50611984614910565b6040518082815260200191505060405180910390f35b3480156119a657600080fd5b506119af614915565b6040518082815260200191505060405180910390f35b3480156119d157600080fd5b50611a06600480360381019080803573ffffffffffffffffffffffffffffffffffffffff16906020019092919050505061491a565b005b348015611a1457600080fd5b50611ac3600480360381019080803573ffffffffffffffffffffffffffffffffffffffff169060200190929190803573ffffffffffffffffffffffffffffffffffffffff16906020019092919080359060200190929190803590602001908201803590602001908080601f016020809104026020016040519081016040528093929190818152602001838380828437820191505050505050919291929080359060200190929190505050614982565b6040518082815260200191505060405180910390f35b348015611ae557600080fd5b50611aee614af8565b6040518082815260200191505060405180910390f35b600060066000837bffffffffffffffffffffffffffffffffffffffffffffffffffffffff19167bffffffffffffffffffffffffffffffffffffffffffffffffffffffff1916815260200190815260200160002060009054906101000a900460ff169050919050565b60006301ffc9a77c010000000000000000000000000000000000000000000000000000000002905090565b600381565b600181565b6060600080611bae6166ae565b6002600001600086600019166000191681526020019081526020016000206060604051908101604052908160008201805480602002602001604051908101604052809291908181526020018280548015611c2757602002820191906000526020600020905b815481526020019060010190808311611c13575b505050505081526020016001820154815260200160028201546000191660001916815250509050806000015193508060200151925080604001519150509193909250565b60008282604051602001808373ffffffffffffffffffffffffffffffffffffffff1673ffffffffffffffffffffffffffffffffffffffff166c01000000000000000000000000028152601401828152602001925050506040516020818303038152906040526040518082805190602001908083835b602083101515611d055780518252602082019150602081019050602083039250611ce0565b6001836020036101000a0380198251168184511680821785525050505050509050019150506040518091039020905092915050565b6000600c54905090565b6000611d4f82613340565b90506000611d5d60016136ae565b51141515611dd3576040517f08c379a00000000000000000000000000000000000000000000000000000000081526004018080602001828103825260118152602001807f416c726561647920696e6974696174656400000000000000000000000000000081525060200191505060405180910390fd5b611ddf81600180614afe565b611dec8160026001614afe565b611df98160036001614afe565b600160008190555060018081905550600160066000611e16613d15565b611e1e613528565b187bffffffffffffffffffffffffffffffffffffffffffffffffffffffff19167bffffffffffffffffffffffffffffffffffffffffffffffffffffffff1916815260200190815260200160002060006101000a81548160ff0219169083151502179055505050565b6000838383604051602001808473ffffffffffffffffffffffffffffffffffffffff1673ffffffffffffffffffffffffffffffffffffffff166c0100000000000000000000000002815260140183815260200182805190602001908083835b602083101515611f0a5780518252602082019150602081019050602083039250611ee5565b6001836020036101000a03801982511681845116808217855250505050505090500193505050506040516020818303038152906040526040518082805190602001908083835b602083101515611f755780518252602082019150602081019050602083039250611f50565b6001836020036101000a038019825116818451168082178552505050505050905001915050604051809103902090509392505050565b6000611fb5614b4e565b1515611fc057600080fd5b600560009054906101000a900460ff16151515611fdc57600080fd5b611ff284846002614bc39092919063ffffffff16565b156120005760009050612010565b61200b848484614afe565b600190505b9392505050565b60008073ffffffffffffffffffffffffffffffffffffffff16600a6000846000191660001916815260200190815260200160002060020160009054906101000a900473ffffffffffffffffffffffffffffffffffffffff1673ffffffffffffffffffffffffffffffffffffffff1614159050919050565b600381565b6060600b60008381526020019081526020016000208054806020026020016040519081016040528092919081815260200182805480156120f657602002820191906000526020600020905b815460001916815260200190600101908083116120de575b50505050509050919050565b600281565b6000600754905090565b60015481565b6000612243826040805190810160405280601c81526020017f19457468657265756d205369676e6564204d6573736167653a0a333200000000815250856040516020018083805190602001908083835b60208310151561218c5780518252602082019150602081019050602083039250612167565b6001836020036101000a0380198251168184511680821785525050505050509050018260001916600019168152602001925050506040516020818303038152906040526040518082805190602001908083835b60208310151561220457805182526020820191506020810190506020830392506121df565b6001836020036101000a038019825116818451168082178552505050505050905001915050604051809103902060001916614ce090919063ffffffff16565b905092915050565b612253614b4e565b151561225e57600080fd5b600560009054906101000a900460ff16151561227957600080fd5b6000600560006101000a81548160ff0219169083151502179055507f730c1faaa977b67dacf1e2451ef54556e04a07d577785ff79f6d31f73502efc960405160405180910390a1565b600181565b600080600560009054906101000a900460ff161515156122e657600080fd5b6007548414151561235f576040517f08c379a000000000000000000000000000000000000000000000000000000000815260040180806020018281038252600e8152602001807f6e6f6e6365206d69736d6174636800000000000000000000000000000000000081525060200191505060405180910390fd5b61248a87878787604051602001808573ffffffffffffffffffffffffffffffffffffffff1673ffffffffffffffffffffffffffffffffffffffff166c0100000000000000000000000002815260140184815260200183805190602001908083835b6020831015156123e557805182526020820191506020810190506020830392506123c0565b6001836020036101000a0380198251168184511680821785525050505050509050018281526020019450505050506040516020818303038152906040526040518082805190602001908083835b6020831015156124575780518252602082019150602081019050602083039250612432565b6001836020036101000a038019825116818451168082178552505050505050905001915050604051809103902084612117565b905061249881888888614dd8565b91505095945050505050565b60006124ae6166d3565b600080600560009054906101000a900460ff161515156124cd57600080fd5b846000600a6000836000191660001916815260200190815260200160002060020160009054906101000a900473ffffffffffffffffffffffffffffffffffffffff16905060008173ffffffffffffffffffffffffffffffffffffffff161415151561253757600080fd5b61253f614b4e565b1561254957612691565b8073ffffffffffffffffffffffffffffffffffffffff163373ffffffffffffffffffffffffffffffffffffffff16141561258257612690565b6125b261258d613528565b8273ffffffffffffffffffffffffffffffffffffffff1661503190919063ffffffff16565b1561268a578073ffffffffffffffffffffffffffffffffffffffff1663d202158d6125dc33613340565b60026040518363ffffffff167c010000000000000000000000000000000000000000000000000000000002815260040180836000191660001916815260200182815260200192505050602060405180830381600087803b15801561263f57600080fd5b505af1158015612653573d6000803e3d6000fd5b505050506040513d602081101561266957600080fd5b8101908080519060200190929190505050151561268557600080fd5b61268f565b600080fd5b5b5b600a6000886000191660001916815260200190815260200160002060c0604051908101604052908160008201548152602001600182015481526020016002820160009054906101000a900473ffffffffffffffffffffffffffffffffffffffff1673ffffffffffffffffffffffffffffffffffffffff1673ffffffffffffffffffffffffffffffffffffffff168152602001600382018054600181600116156101000203166002900480601f0160208091040260200160405190810160405280929190818152602001828054600181600116156101000203166002900480156127bb5780601f10612790576101008083540402835291602001916127bb565b820191906000526020600020905b81548152906001019060200180831161279e57829003601f168201915b50505050508152602001600482018054600181600116156101000203166002900480601f01602080910402602001604051908101604052809291908181526020018280546001816001161561010002031660029004801561285d5780601f106128325761010080835404028352916020019161285d565b820191906000526020600020905b81548152906001019060200180831161284057829003601f168201915b50505050508152602001600582018054600181600116156101000203166002900480601f0160208091040260200160405190810160405280929190818152602001828054600181600116156101000203166002900480156128ff5780601f106128d4576101008083540402835291602001916128ff565b820191906000526020600020905b8154815290600101906020018083116128e257829003601f168201915b5050505050815250509450600073ffffffffffffffffffffffffffffffffffffffff16856040015173ffffffffffffffffffffffffffffffffffffffff161415151561294a57600080fd5b600a6000886000191660001916815260200190815260200160002060008082016000905560018201600090556002820160006101000a81549073ffffffffffffffffffffffffffffffffffffffff02191690556003820160006129ad9190616720565b6004820160006129bd9190616720565b6005820160006129cd9190616768565b5050600b6000866000015181526020019081526020016000209350600092505b8380549050831015612aab5786600019168484815481101515612a0c57fe5b9060005260206000200154600019161415612a9e57836001858054905003815481101515612a3657fe5b90600052602060002001548484815481101515612a4f57fe5b906000526020600020018160001916905550836001858054905003815481101515612a7657fe5b906000526020600020016000905583805480919060019003612a9891906167b0565b50612aab565b82806001019350506129ed565b600c6000815480929190600190039190505550846040015173ffffffffffffffffffffffffffffffffffffffff16856000015188600019167f3cf57863a89432c61c4a27073c6ee39e8a764bff5a05aebfbcdcdc80b2e6130a886020015189606001518a608001518b60a0015160405180858152602001806020018060200180602001848103845287818151815260200191508051906020019080838360005b83811015612b66578082015181840152602081019050612b4b565b50505050905090810190601f168015612b935780820380516001836020036101000a031916815260200191505b50848103835286818151815260200191508051906020019080838360005b83811015612bcc578082015181840152602081019050612bb1565b50505050905090810190601f168015612bf95780820380516001836020036101000a031916815260200191505b50848103825285818151815260200191508051906020019080838360005b83811015612c32578082015181840152602081019050612c17565b50505050905090810190601f168015612c5f5780820380516001836020036101000a031916815260200191505b5097505050505050505060405180910390a4600195505050505050919050565b600080612c8a614b4e565b1515612c9557600080fd5b600560009054906101000a900460ff16151515612cb157600080fd5b6001831415612cdf57612ccf6001600261511890919063ffffffff16565b600054101515612cde57600080fd5b5b612cf584846002614bc39092919063ffffffff16565b1515612d045760009150612d54565b612d1a8484600261513b9092919063ffffffff16565b9050808385600019167f585a4aef50f8267a92b32412b331b20f7f8b96f2245b253b9cc50dcc621d339760405160405180910390a4600191505b5092915050565b600560009054906101000a900460ff1681565b6000612d786166d3565b600560009054906101000a900460ff16151515612d9457600080fd5b826000600a6000836000191660001916815260200190815260200160002060020160009054906101000a900473ffffffffffffffffffffffffffffffffffffffff16905060008173ffffffffffffffffffffffffffffffffffffffff1614151515612dfe57600080fd5b612e06614b4e565b15612e1057612f58565b8073ffffffffffffffffffffffffffffffffffffffff163373ffffffffffffffffffffffffffffffffffffffff161415612e4957612f57565b612e79612e54613528565b8273ffffffffffffffffffffffffffffffffffffffff1661503190919063ffffffff16565b15612f51578073ffffffffffffffffffffffffffffffffffffffff1663d202158d612ea333613340565b60026040518363ffffffff167c010000000000000000000000000000000000000000000000000000000002815260040180836000191660001916815260200182815260200192505050602060405180830381600087803b158015612f0657600080fd5b505af1158015612f1a573d6000803e3d6000fd5b505050506040513d6020811015612f3057600080fd5b81019080805190602001909291905050501515612f4c57600080fd5b612f56565b600080fd5b5b5b600a6000866000191660001916815260200190815260200160002060c0604051908101604052908160008201548152602001600182015481526020016002820160009054906101000a900473ffffffffffffffffffffffffffffffffffffffff1673ffffffffffffffffffffffffffffffffffffffff1673ffffffffffffffffffffffffffffffffffffffff168152602001600382018054600181600116156101000203166002900480601f0160208091040260200160405190810160405280929190818152602001828054600181600116156101000203166002900480156130825780601f1061305757610100808354040283529160200191613082565b820191906000526020600020905b81548152906001019060200180831161306557829003601f168201915b50505050508152602001600482018054600181600116156101000203166002900480601f0160208091040260200160405190810160405280929190818152602001828054600181600116156101000203166002900480156131245780601f106130f957610100808354040283529160200191613124565b820191906000526020600020905b81548152906001019060200180831161310757829003601f168201915b50505050508152602001600582018054600181600116156101000203166002900480601f0160208091040260200160405190810160405280929190818152602001828054600181600116156101000203166002900480156131c65780601f1061319b576101008083540402835291602001916131c6565b820191906000526020600020905b8154815290600101906020018083116131a957829003601f168201915b5050505050815250509250600073ffffffffffffffffffffffffffffffffffffffff16836040015173ffffffffffffffffffffffffffffffffffffffff161415151561321157600080fd5b61323283600001518460200151856040015186606001518760800151615380565b151561324b57613241856124a4565b5060009350613250565b600193505b505050919050565b60086020528060005260406000206000915090508060000160009054906101000a900473ffffffffffffffffffffffffffffffffffffffff1690806001015490806002018054600181600116156101000203166002900480601f0160208091040260200160405190810160405280929190818152602001828054600181600116156101000203166002900480156133305780601f1061330557610100808354040283529160200191613330565b820191906000526020600020905b81548152906001019060200180831161331357829003601f168201915b5050505050908060030154905084565b60008173ffffffffffffffffffffffffffffffffffffffff166001029050919050565b60096020528160005260406000208181548110151561337e57fe5b906000526020600020016000915091509054906101000a900473ffffffffffffffffffffffffffffffffffffffff1681565b600181565b60006133bf614b4e565b15156133ca57600080fd5b600560009054906101000a900460ff161515156133e657600080fd5b6133fa85600261555090919063ffffffff16565b151561340557600080fd5b61341f85858585600261561290949392919063ffffffff16565b5060019050949350505050565b6000600560009054906101000a900460ff1615151561344a57600080fd5b6134553384846156e9565b905092915050565b600281565b600060026000016000856000191660001916815260200190815260200160002060030160008473ffffffffffffffffffffffffffffffffffffffff1673ffffffffffffffffffffffffffffffffffffffff1681526020019081526020016000206000837bffffffffffffffffffffffffffffffffffffffffffffffffffffffff19167bffffffffffffffffffffffffffffffffffffffffffffffffffffffff1916815260200190815260200160002060009054906101000a900460ff1690509392505050565b60006353d413c57c01000000000000000000000000000000000000000000000000000000000263747442d37c01000000000000000000000000000000000000000000000000000000000263b61d27f67c010000000000000000000000000000000000000000000000000000000002631d3812407c010000000000000000000000000000000000000000000000000000000002639010f7267c01000000000000000000000000000000000000000000000000000000000263d202158d7c0100000000000000000000000000000000000000000000000000000000026312aaac707c010000000000000000000000000000000000000000000000000000000002181818181818905090565b600181565b61363e614b4e565b151561364957600080fd5b600560009054906101000a900460ff1615151561366557600080fd5b6001600560006101000a81548160ff0219169083151502179055507f4b314b34e912fda7f95e7d23e9c8c95f82f0aff1984e4ce592a0b005f905562460405160405180910390a1565b60606002600101600083815260200190815260200160002080548060200260200160405190810160405280929190818152602001828054801561371457602002820191906000526020600020905b815460001916815260200190600101908083116136fc575b50505050509050919050565b600481565b600281565b60005481565b600481565b60075481565b600881565b600080600080600560009054906101000a900460ff1615151561376257600080fd5b61376f8a8a8a8a8a615380565b151561377a57600080fd5b613782614b4e565b9250821515613a2a573073ffffffffffffffffffffffffffffffffffffffff1663b61d27f630600080366040518563ffffffff167c0100000000000000000000000000000000000000000000000000000000028152600401808573ffffffffffffffffffffffffffffffffffffffff1673ffffffffffffffffffffffffffffffffffffffff168152602001848152602001806020018281038252848482818152602001925080828437820191505095505050505050602060405180830381600087803b15801561385157600080fd5b505af1158015613865573d6000803e3d6000fd5b505050506040513d602081101561387b57600080fd5b810190808051906020019092919050505093508773ffffffffffffffffffffffffffffffffffffffff168a857fe6b6db97dedfb44cbced367387e40b3f92dbee1b1be87f9367f7b673532b0d698c8b8b8b60405180858152602001806020018060200180602001848103845287818151815260200191508051906020019080838360005b8381101561391a5780820151818401526020810190506138ff565b50505050905090810190601f1680156139475780820380516001836020036101000a031916815260200191505b50848103835286818151815260200191508051906020019080838360005b83811015613980578082015181840152602081019050613965565b50505050905090810190601f1680156139ad5780820380516001836020036101000a031916815260200191505b50848103825285818151815260200191508051906020019080838360005b838110156139e65780820151818401526020810190506139cb565b50505050905090810190601f168015613a135780820380516001836020036101000a031916815260200191505b5097505050505050505060405180910390a4613ccb565b613a34888b611c6b565b9150600073ffffffffffffffffffffffffffffffffffffffff16600a6000846000191660001916815260200190815260200160002060020160009054906101000a900473ffffffffffffffffffffffffffffffffffffffff1673ffffffffffffffffffffffffffffffffffffffff161415613abd57613ab8828b8b8b8b8b8b615c6e565b613cca565b600a60008360001916600019168152602001908152602001600020905088816001018190555086816003019080519060200190613afb9291906167dc565b5085816004019080519060200190613b149291906167dc565b5084816005019080519060200190613b2d92919061685c565b508773ffffffffffffffffffffffffffffffffffffffff168a83600019167f3bab293fc00db832d7619a9299914251b8747c036867ec056cbd506f60135b138c8b8b8b60405180858152602001806020018060200180602001848103845287818151815260200191508051906020019080838360005b83811015613bbe578082015181840152602081019050613ba3565b50505050905090810190601f168015613beb5780820380516001836020036101000a031916815260200191505b50848103835286818151815260200191508051906020019080838360005b83811015613c24578082015181840152602081019050613c09565b50505050905090810190601f168015613c515780820380516001836020036101000a031916815260200191505b50848103825285818151815260200191508051906020019080838360005b83811015613c8a578082015181840152602081019050613c6f565b50505050905090810190601f168015613cb75780820380516001836020036101000a031916815260200191505b5097505050505050505060405180910390a45b5b5050509695505050505050565b600581565b6000600560009054906101000a900460ff16151515613cfb57600080fd5b613d0733858585614dd8565b90509392505050565b600781565b6000634eee424a7c01000000000000000000000000000000000000000000000000000000000263b1a34e0d7c01000000000000000000000000000000000000000000000000000000000263262b54f57c01000000000000000000000000000000000000000000000000000000000263c9100bcb7c010000000000000000000000000000000000000000000000000000000002181818905090565b60008060008090505b6004811015613e9b576008810260ff7f0100000000000000000000000000000000000000000000000000000000000000028583815181101515613df757fe5b9060200101517f010000000000000000000000000000000000000000000000000000000000000090047f010000000000000000000000000000000000000000000000000000000000000002167effffffffffffffffffffffffffffffffffffffffffffffffffffffffffffff19167bffffffffffffffffffffffffffffffffffffffffffffffffffffffff19169060020a9004821791508080600101915050613db8565b8192505050919050565b600381565b60008060006060806060613ebc6166d3565b600a6000896000191660001916815260200190815260200160002060c0604051908101604052908160008201548152602001600182015481526020016002820160009054906101000a900473ffffffffffffffffffffffffffffffffffffffff1673ffffffffffffffffffffffffffffffffffffffff1673ffffffffffffffffffffffffffffffffffffffff168152602001600382018054600181600116156101000203166002900480601f016020809104026020016040519081016040528092919081815260200182805460018160011615610100020316600290048015613fe65780601f10613fbb57610100808354040283529160200191613fe6565b820191906000526020600020905b815481529060010190602001808311613fc957829003601f168201915b50505050508152602001600482018054600181600116156101000203166002900480601f0160208091040260200160405190810160405280929190818152602001828054600181600116156101000203166002900480156140885780601f1061405d57610100808354040283529160200191614088565b820191906000526020600020905b81548152906001019060200180831161406b57829003601f168201915b50505050508152602001600582018054600181600116156101000203166002900480601f01602080910402602001604051908101604052809291908181526020018280546001816001161561010002031660029004801561412a5780601f106140ff5761010080835404028352916020019161412a565b820191906000526020600020905b81548152906001019060200180831161410d57829003601f168201915b5050505050815250509050600073ffffffffffffffffffffffffffffffffffffffff16816040015173ffffffffffffffffffffffffffffffffffffffff161415151561417557600080fd5b80600001519650806020015195508060400151945080606001519350806080015192508060a0015191505091939550919395565b60006002800154905090565b6000600560009054906101000a900460ff161515156141d357600080fd5b6141db614b4e565b15156141e657600080fd5b6000821115156141f557600080fd5b6141ff60016136ae565b51905080821115151561421157600080fd5b816000819055505050565b6000600754905090565b600061423e83836002614bc39092919063ffffffff16565b905092915050565b600581565b600080600080600560009054906101000a900460ff1615151561426d57600080fd5b61427a8b8b8b8b8b615380565b151561428557600080fd5b61445a8b8b8b8b8b8b604051602001808781526020018681526020018573ffffffffffffffffffffffffffffffffffffffff1673ffffffffffffffffffffffffffffffffffffffff166c0100000000000000000000000002815260140184805190602001908083835b60208310151561431357805182526020820191506020810190506020830392506142ee565b6001836020036101000a03801982511681845116808217855250505050505090500183805190602001908083835b6020831015156143665780518252602082019150602081019050602083039250614341565b6001836020036101000a03801982511681845116808217855250505050505090500182805190602001908083835b6020831015156143b95780518252602082019150602081019050602083039250614394565b6001836020036101000a03801982511681845116808217855250505050505090500196505050505050506040516020818303038152906040526040518082805190602001908083835b6020831015156144275780518252602082019150602081019050602083039250614402565b6001836020036101000a038019825116818451168082178552505050505050905001915050604051809103902086612117565b925061447b61446884613340565b60016002614bc39092919063ffffffff16565b151561448657600080fd5b614490898c611c6b565b9150600073ffffffffffffffffffffffffffffffffffffffff16600a6000846000191660001916815260200190815260200160002060020160009054906101000a900473ffffffffffffffffffffffffffffffffffffffff1673ffffffffffffffffffffffffffffffffffffffff16141561451957614514828c8c8c8c8c8c615c6e565b614726565b600a600083600019166000191681526020019081526020016000209050898160010181905550878160030190805190602001906145579291906167dc565b50868160040190805190602001906145709291906167dc565b508581600501908051906020019061458992919061685c565b508873ffffffffffffffffffffffffffffffffffffffff168b83600019167f3bab293fc00db832d7619a9299914251b8747c036867ec056cbd506f60135b138d8c8c8c60405180858152602001806020018060200180602001848103845287818151815260200191508051906020019080838360005b8381101561461a5780820151818401526020810190506145ff565b50505050905090810190601f1680156146475780820380516001836020036101000a031916815260200191505b50848103835286818151815260200191508051906020019080838360005b83811015614680578082015181840152602081019050614665565b50505050905090810190601f1680156146ad5780820380516001836020036101000a031916815260200191505b50848103825285818151815260200191508051906020019080838360005b838110156146e65780820151818401526020810190506146cb565b50505050905090810190601f1680156147135780820380516001836020036101000a031916815260200191505b5097505050505050505060405180910390a45b60019350505050979650505050505050565b600080600560009054906101000a900460ff1615151561475757600080fd5b600754841415156147d0576040517f08c379a000000000000000000000000000000000000000000000000000000000815260040180806020018281038252600e8152602001807f6e6f6e6365206d69736d6174636800000000000000000000000000000000000081525060200191505060405180910390fd5b6148918686866040516020018084815260200183151515157f010000000000000000000000000000000000000000000000000000000000000002815260010182815260200193505050506040516020818303038152906040526040518082805190602001908083835b60208310151561485e5780518252602082019150602081019050602083039250614839565b6001836020036101000a038019825116818451168082178552505050505050905001915050604051809103902084612117565b905061489e8187876156e9565b915050949350505050565b6000600560009054906101000a900460ff161515156148c757600080fd5b6148cf614b4e565b15156148da57600080fd5b6000821115156148e957600080fd5b6148f360026136ae565b51905080821115151561490557600080fd5b816001819055505050565b600681565b600281565b614922614b4e565b151561492d57600080fd5b600073ffffffffffffffffffffffffffffffffffffffff168173ffffffffffffffffffffffffffffffffffffffff161415151561496957600080fd5b8073ffffffffffffffffffffffffffffffffffffffff16ff5b60008585858585604051602001808673ffffffffffffffffffffffffffffffffffffffff1673ffffffffffffffffffffffffffffffffffffffff166c010000000000000000000000000281526014018573ffffffffffffffffffffffffffffffffffffffff1673ffffffffffffffffffffffffffffffffffffffff166c0100000000000000000000000002815260140184815260200183805190602001908083835b602083101515614a495780518252602082019150602081019050602083039250614a24565b6001836020036101000a038019825116818451168082178552505050505050905001828152602001955050505050506040516020818303038152906040526040518082805190602001908083835b602083101515614abc5780518252602082019150602081019050602083039250614a97565b6001836020036101000a038019825116818451168082178552505050505050905001915050604051809103902060019004905095945050505050565b600c5481565b614b168383836002615f75909392919063ffffffff16565b808284600019167f480000bb1edad8ca1470381cc334b1917fbd51c6531f3a623ea8e0ec7e38a6e960405160405180910390a4505050565b60003073ffffffffffffffffffffffffffffffffffffffff163373ffffffffffffffffffffffffffffffffffffffff161415614b8d5760019050614bc0565b6001600054141515614b9e57600080fd5b614bbd614baa33613340565b60016002614bc39092919063ffffffff16565b90505b90565b6000614bcd6166ae565b600085600001600086600019166000191681526020019081526020016000206060604051908101604052908160008201805480602002602001604051908101604052809291908181526020018280548015614c4757602002820191906000526020600020905b815481526020019060010190808311614c33575b50505050508152602001600182015481526020016002820154600019166000191681525050915060006001028260400151600019161415614c8b5760009250614cd7565b600090505b816000015151811015614cd65783826000015182815181101515614cb057fe5b906020019060200201511415614cc95760019250614cd7565b8080600101915050614c90565b5b50509392505050565b60008060008060418551141515614cfa5760009350614dcf565b6020850151925060408501519150606085015160001a9050601b8160ff161015614d2557601b810190505b601b8160ff1614158015614d3d5750601c8160ff1614155b15614d4b5760009350614dcf565b600186828585604051600081526020016040526040518085600019166000191681526020018460ff1660ff1681526020018360001916600019168152602001826000191660001916815260200194505050505060206040516020810390808403906000865af1158015614dc2573d6000803e3d6000fd5b5050506020604051035193505b50505092915050565b600080614de36168dc565b614dee87878661604f565b9150614dff30878787600754614982565b9250848673ffffffffffffffffffffffffffffffffffffffff16847f8afcfabcb00e47a53a8fc3e9f23ff47ee1926194bb1350dd007c50b412a6cee8876040518080602001828103825283818151815260200191508051906020019080838360005b83811015614e7c578082015181840152602081019050614e61565b50505050905090810190601f168015614ea95780820380516001836020036101000a031916815260200191505b509250505060405180910390a46007600081548092919060010191905055506080604051908101604052808773ffffffffffffffffffffffffffffffffffffffff1681526020018681526020018581526020018381525090506000821415614f1d57614f178382600061636f565b50615024565b806008600085815260200190815260200160002060008201518160000160006101000a81548173ffffffffffffffffffffffffffffffffffffffff021916908373ffffffffffffffffffffffffffffffffffffffff160217905550602082015181600101556040820151816002019080519060200190614f9e92919061691b565b5060608201518160030155905050600960008481526020019081526020016000208790806001815401808255809150509060018203906000526020600020016000909192909190916101000a81548173ffffffffffffffffffffffffffffffffffffffff021916908373ffffffffffffffffffffffffffffffffffffffff160217905550505b8292505050949350505050565b6000806000615063856301ffc9a77c01000000000000000000000000000000000000000000000000000000000261665d565b8092508193505050600082148061507a5750600081145b156150885760009250615110565b6150b58563ffffffff7c01000000000000000000000000000000000000000000000000000000000261665d565b809250819350505060008214806150cd575060008114155b156150db5760009250615110565b6150e5858561665d565b80925081935050506001821480156150fd5750600181145b1561510b5760019250615110565b600092505b505092915050565b600082600101600083815260200190815260200160002080549050905092915050565b600080600080866000016000876000191660001916815260200190815260200160002060010154935086600001600087600019166000191681526020019081526020016000206000019250600091505b8280549050821015615252578483838154811015156151a657fe5b90600052602060002001541415615245578260018480549050038154811015156151cc57fe5b906000526020600020015483838154811015156151e557fe5b906000526020600020018190555082600184805490500381548110151561520857fe5b90600052602060002001600090558280548091906001900361522a919061699b565b50866002016000815480929190600190039190505550615252565b818060010192505061518b565b6000838054905014156152a05786600001600087600019166000191681526020019081526020016000206000808201600061528d91906169c7565b6001820160009055600282016000905550505b8660010160008681526020019081526020016000209050600091505b808054905082101561537657856000191681838154811015156152db57fe5b90600052602060002001546000191614156153695780600182805490500381548110151561530557fe5b9060005260206000200154818381548110151561531e57fe5b90600052602060002001816000191690555080600182805490500381548110151561534557fe5b90600052602060002001600090558080548091906001900361536791906167b0565b505b81806001019250506152bc565b5050509392505050565b6000806001861415615541576153a061539a308986611e86565b85612117565b90508073ffffffffffffffffffffffffffffffffffffffff168573ffffffffffffffffffffffffffffffffffffffff1614156153df5760019150615546565b3073ffffffffffffffffffffffffffffffffffffffff168573ffffffffffffffffffffffffffffffffffffffff1614156154395761543261541f82613340565b60036002614bc39092919063ffffffff16565b9150615546565b615469615444613528565b8673ffffffffffffffffffffffffffffffffffffffff1661503190919063ffffffff16565b15615538578473ffffffffffffffffffffffffffffffffffffffff1663d202158d61549383613340565b60036040518363ffffffff167c010000000000000000000000000000000000000000000000000000000002815260040180836000191660001916815260200182815260200192505050602060405180830381600087803b1580156154f657600080fd5b505af115801561550a573d6000803e3d6000fd5b505050506040513d602081101561552057600080fd5b81019080805190602001909291905050509150615546565b60009150615546565b600091505b5095945050505050565b600061555a6166ae565b836000016000846000191660001916815260200190815260200160002060606040519081016040529081600082018054806020026020016040519081016040528092919081815260200182805480156155d257602002820191906000526020600020905b8154815260200190600101908083116155be575b5050505050815260200160018201548152602001600282015460001916600019168152505090506000600102816040015160001916141591505092915050565b60008086600001600087600019166000191681526020019081526020016000209050828160030160008773ffffffffffffffffffffffffffffffffffffffff1673ffffffffffffffffffffffffffffffffffffffff1681526020019081526020016000206000867bffffffffffffffffffffffffffffffffffffffffffffffffffffffff19167bffffffffffffffffffffffffffffffffffffffffffffffffffffffff1916815260200190815260200160002060006101000a81548160ff0219169083151502179055508291505095945050505050565b600080600080600086141515156156ff57600080fd5b60086000878152602001908152602001600020925060008360000160009054906101000a900473ffffffffffffffffffffffffffffffffffffffff1673ffffffffffffffffffffffffffffffffffffffff161415151561575e57600080fd5b615829878460000160009054906101000a900473ffffffffffffffffffffffffffffffffffffffff16856002018054600181600116156101000203166002900480601f01602080910402602001604051908101604052809291908181526020018280546001816001161561010002031660029004801561581f5780601f106157f45761010080835404028352916020019161581f565b820191906000526020600020905b81548152906001019060200180831161580257829003601f168201915b505050505061604f565b50857fb3932da477fe5d6c8ff2eafef050c0f3a1af18fc07121001482600f36f3715d886604051808215151515815260200191505060405180910390a2600960008781526020019081526020016000209150841515615a1e57600090505b8180549050811015615a15578673ffffffffffffffffffffffffffffffffffffffff1682828154811015156158b857fe5b9060005260206000200160009054906101000a900473ffffffffffffffffffffffffffffffffffffffff1673ffffffffffffffffffffffffffffffffffffffff161415615a085781600183805490500381548110151561591457fe5b9060005260206000200160009054906101000a900473ffffffffffffffffffffffffffffffffffffffff16828281548110151561594d57fe5b9060005260206000200160006101000a81548173ffffffffffffffffffffffffffffffffffffffff021916908373ffffffffffffffffffffffffffffffffffffffff1602179055508160018380549050038154811015156159aa57fe5b9060005260206000200160006101000a81549073ffffffffffffffffffffffffffffffffffffffff0219169055818054809190600190036159eb91906169e8565b506001836003016000828254019250508190555060019350615c64565b8080600101915050615887565b60009350615c64565b600090505b8180549050811015615aaf578673ffffffffffffffffffffffffffffffffffffffff168282815481101515615a5457fe5b9060005260206000200160009054906101000a900473ffffffffffffffffffffffffffffffffffffffff1673ffffffffffffffffffffffffffffffffffffffff1614151515615aa257600080fd5b8080600101915050615a23565b818790806001815401808255809150509060018203906000526020600020016000909192909190916101000a81548173ffffffffffffffffffffffffffffffffffffffff021916908373ffffffffffffffffffffffffffffffffffffffff1602179055505060018360030160008282540392505081905550600083600301541415615c5f57615c588684608060405190810160405290816000820160009054906101000a900473ffffffffffffffffffffffffffffffffffffffff1673ffffffffffffffffffffffffffffffffffffffff1673ffffffffffffffffffffffffffffffffffffffff16815260200160018201548152602001600282018054600181600116156101000203166002900480601f016020809104026020016040519081016040528092919081815260200182805460018160011615610100020316600290048015615c3e5780601f10615c1357610100808354040283529160200191615c3e565b820191906000526020600020905b815481529060010190602001808311615c2157829003601f168201915b50505050508152602001600382015481525050600161636f565b9350615c64565b600193505b5050509392505050565b60c0604051908101604052808781526020018681526020018573ffffffffffffffffffffffffffffffffffffffff16815260200184815260200183815260200182815250600a60008960001916600019168152602001908152602001600020600082015181600001556020820151816001015560408201518160020160006101000a81548173ffffffffffffffffffffffffffffffffffffffff021916908373ffffffffffffffffffffffffffffffffffffffff1602179055506060820151816003019080519060200190615d4492919061691b565b506080820151816004019080519060200190615d6192919061691b565b5060a0820151816005019080519060200190615d7e929190616a14565b50905050600b60008781526020019081526020016000208790806001815401808255809150509060018203906000526020600020016000909192909190915090600019169055506001600c5401600c819055508373ffffffffffffffffffffffffffffffffffffffff168688600019167f46149b18aa084502c3f12bc75e19eda8bda8d102b82cce8474677a6d0d5f43c58887878760405180858152602001806020018060200180602001848103845287818151815260200191508051906020019080838360005b83811015615e61578082015181840152602081019050615e46565b50505050905090810190601f168015615e8e5780820380516001836020036101000a031916815260200191505b50848103835286818151815260200191508051906020019080838360005b83811015615ec7578082015181840152602081019050615eac565b50505050905090810190601f168015615ef45780820380516001836020036101000a031916815260200191505b50848103825285818151815260200191508051906020019080838360005b83811015615f2d578082015181840152602081019050615f12565b50505050905090810190601f168015615f5a5780820380516001836020036101000a031916815260200191505b5097505050505050505060405180910390a450505050505050565b6000846000016000856000191660001916815260200190815260200160002090508060000183908060018154018082558091505090600182039060005260206000200160009091929091909150555060006001028160020154600019161415615fef57838160020181600019169055508181600101819055505b84600101600084815260200190815260200160002084908060018154018082558091505090600182039060005260206000200160009091929091909150906000191690555084600201600081548092919060010191905055505050505050565b60003073ffffffffffffffffffffffffffffffffffffffff168373ffffffffffffffffffffffffffffffffffffffff161415616199573073ffffffffffffffffffffffffffffffffffffffff168473ffffffffffffffffffffffffffffffffffffffff1614156160c3576000549050616194565b6160e26160cf85613340565b60016002614bc39092919063ffffffff16565b8061617c57506161076160f485613340565b60076002614bc39092919063ffffffff16565b801561617b5750631d3812407c0100000000000000000000000000000000000000000000000000000000027bffffffffffffffffffffffffffffffffffffffffffffffffffffffff191661615a83613daf565b7bffffffffffffffffffffffffffffffffffffffffffffffffffffffff1916145b5b1561618e576001600054039050616193565b600080fd5b5b616368565b600073ffffffffffffffffffffffffffffffffffffffff168373ffffffffffffffffffffffffffffffffffffffff16141515156161d557600080fd5b3073ffffffffffffffffffffffffffffffffffffffff168473ffffffffffffffffffffffffffffffffffffffff161415616213576001549050616367565b61623161621f85613340565b600280614bc39092919063ffffffff16565b80616257575061625661624385613340565b60066002614bc39092919063ffffffff16565b5b80616350575061627c61626985613340565b60086002614bc39092919063ffffffff16565b801561634f57506002600001600061629386613340565b6000191660001916815260200190815260200160002060030160008473ffffffffffffffffffffffffffffffffffffffff1673ffffffffffffffffffffffffffffffffffffffff16815260200190815260200160002060006162f484613daf565b7bffffffffffffffffffffffffffffffffffffffffffffffffffffffff19167bffffffffffffffffffffffffffffffffffffffffffffffffffffffff1916815260200190815260200160002060009054906101000a900460ff165b5b156163615760018054039050616366565b600080fd5b5b5b9392505050565b6000806000846000015173ffffffffffffffffffffffffffffffffffffffff161415151561639c57600080fd5b836000015173ffffffffffffffffffffffffffffffffffffffff168460200151856040015160405180828051906020019080838360005b838110156163ee5780820151818401526020810190506163d3565b50505050905090810190601f16801561641b5780820380516001836020036101000a031916815260200191505b5091505060006040518083038185875af1925050509050801515616503578360200151846000015173ffffffffffffffffffffffffffffffffffffffff16867fe10c49d9f7c71da23262367013434763cfdb2332267641728d25cd712c5c6a6887604001516040518080602001828103825283818151815260200191508051906020019080838360005b838110156164c05780820151818401526020810190506164a5565b50505050905090810190601f1680156164ed5780820380516001836020036101000a031916815260200191505b509250505060405180910390a460009150616655565b8360200151846000015173ffffffffffffffffffffffffffffffffffffffff16867f1f920dbda597d7bf95035464170fa58d0a4b57f13a1c315ace6793b9f63688b887604001516040518080602001828103825283818151815260200191508051906020019080838360005b8381101561658a57808201518184015260208101905061656f565b50505050905090810190601f1680156165b75780820380516001836020036101000a031916815260200191505b509250505060405180910390a48215156165d45760019150616655565b60086000868152602001908152602001600020600080820160006101000a81549073ffffffffffffffffffffffffffffffffffffffff021916905560018201600090556002820160006166279190616720565b600382016000905550506009600086815260200190815260200160002060006166509190616a94565b600191505b509392505050565b60008060006301ffc9a77c010000000000000000000000000000000000000000000000000000000002905060405181815284600482015260208160208389617530fa93508051925050509250929050565b6060604051908101604052806060815260200160008152602001600080191681525090565b60c0604051908101604052806000815260200160008152602001600073ffffffffffffffffffffffffffffffffffffffff1681526020016060815260200160608152602001606081525090565b50805460018160011615610100020316600290046000825580601f106167465750616765565b601f0160209004906000526020600020908101906167649190616ab5565b5b50565b50805460018160011615610100020316600290046000825580601f1061678e57506167ad565b601f0160209004906000526020600020908101906167ac9190616ab5565b5b50565b8154818355818111156167d7578183600052602060002091820191016167d69190616ada565b5b505050565b828054600181600116156101000203166002900490600052602060002090601f016020900481019282601f1061681d57805160ff191683800117855561684b565b8280016001018555821561684b579182015b8281111561684a57825182559160200191906001019061682f565b5b5090506168589190616ab5565b5090565b828054600181600116156101000203166002900490600052602060002090601f016020900481019282601f1061689d57805160ff19168380011785556168cb565b828001600101855582156168cb579182015b828111156168ca5782518255916020019190600101906168af565b5b5090506168d89190616ab5565b5090565b608060405190810160405280600073ffffffffffffffffffffffffffffffffffffffff1681526020016000815260200160608152602001600081525090565b828054600181600116156101000203166002900490600052602060002090601f016020900481019282601f1061695c57805160ff191683800117855561698a565b8280016001018555821561698a579182015b8281111561698957825182559160200191906001019061696e565b5b5090506169979190616ab5565b5090565b8154818355818111156169c2578183600052602060002091820191016169c19190616ab5565b5b505050565b50805460008255906000526020600020908101906169e59190616ab5565b50565b815481835581811115616a0f57818360005260206000209182019101616a0e9190616ab5565b5b505050565b828054600181600116156101000203166002900490600052602060002090601f016020900481019282601f10616a5557805160ff1916838001178555616a83565b82800160010185558215616a83579182015b82811115616a82578251825591602001919060010190616a67565b5b509050616a909190616ab5565b5090565b5080546000825590600052602060002090810190616ab29190616ab5565b50565b616ad791905b80821115616ad3576000816000905550600101616abb565b5090565b90565b616afc91905b80821115616af8576000816000905550600101616ae0565b5090565b905600a165627a7a7230582035fdc8c4be06b49dab51a3b61d76b329225d4eb9750dbe5b02957441be519eef0029",
  "source": "pragma solidity ^0.4.24;\n\nimport \"./Destructible.sol\";\nimport \"./ERC735.sol\";\nimport \"./KeyGetters.sol\";\nimport \"./KeyManager.sol\";\nimport \"./MultiSig.sol\";\nimport \"./ClaimManager.sol\";\nimport \"./Slice.sol\";\n\n/// @title MetaIdentity\n/// @author Metadium, genie\n/// @notice Identity contract implementing ERC 725, ERC 735 and Metadium features.\n\ncontract MetaIdentityLib is KeyManager, MultiSig, ClaimManager, Destructible, KeyGetters {\n    using Slice for bytes;\n    using Slice for string;\n\n    constructor() public { \n        init(msg.sender);\n    }\n    // Fallback function accepts Ether transactions\n    // solhint-disable-next-line no-empty-blocks\n    function () external payable {\n    \n    }\n\n    function init(address _managementKey) public {\n        bytes32 senderKey = addrToKey(_managementKey);\n        \n        require(getKeysByPurpose(MANAGEMENT_KEY).length == 0, \"Already initiated\");\n\n        // Add key that deployed the contract for MANAGEMENT, ACTION, CLAIM\n        _addKey(senderKey, MANAGEMENT_KEY, ECDSA_TYPE);\n        _addKey(senderKey, ACTION_KEY, ECDSA_TYPE);\n        _addKey(senderKey, CLAIM_SIGNER_KEY, ECDSA_TYPE);\n        \n        managementThreshold = 1;\n        actionThreshold = 1;\n\n        // Supports both ERC 725 & 735\n        supportedInterfaces[ERC725ID() ^ ERC735ID()] = true;\n    }\n\n}",
  "sourcePath": "/Users/hexoul/Documents/Metadium/metabolics/contracts/identity/MetaIdentityLib.sol",
  "compiler": {
    "name": "solc",
    "version": "0.4.24+commit.e67f0147.Emscripten.clang"
  },
  "schemaVersion": "2.0.1",
  "updatedAt": "2019-03-18T07:46:38.375Z"
}