{
  "contractName": "MetaIdentityUsingLib",
  "abi": [
    {
      "constant": true,
      "inputs": [],
      "name": "actionThreshold",
      "outputs": [
        {
          "name": "",
          "type": "uint256"
        }
      ],
      "payable": false,
      "stateMutability": "view",
      "type": "function"
    },
    {
      "constant": true,
      "inputs": [],
      "name": "paused",
      "outputs": [
        {
          "name": "",
          "type": "bool"
        }
      ],
      "payable": false,
      "stateMutability": "view",
      "type": "function"
    },
    {
      "constant": true,
      "inputs": [
        {
          "name": "",
          "type": "uint256"
        }
      ],
      "name": "execution",
      "outputs": [
        {
          "name": "to",
          "type": "address"
        },
        {
          "name": "value",
          "type": "uint256"
        },
        {
          "name": "data",
          "type": "bytes"
        },
        {
          "name": "needsApprove",
          "type": "uint256"
        }
      ],
      "payable": false,
      "stateMutability": "view",
      "type": "function"
    },
    {
      "constant": true,
      "inputs": [
        {
          "name": "",
          "type": "uint256"
        },
        {
          "name": "",
          "type": "uint256"
        }
      ],
      "name": "approved",
      "outputs": [
        {
          "name": "",
          "type": "address"
        }
      ],
      "payable": false,
      "stateMutability": "view",
      "type": "function"
    },
    {
      "constant": true,
      "inputs": [],
      "name": "managementThreshold",
      "outputs": [
        {
          "name": "",
          "type": "uint256"
        }
      ],
      "payable": false,
      "stateMutability": "view",
      "type": "function"
    },
    {
      "constant": true,
      "inputs": [],
      "name": "nonce",
      "outputs": [
        {
          "name": "",
          "type": "uint256"
        }
      ],
      "payable": false,
      "stateMutability": "view",
      "type": "function"
    },
    {
      "constant": true,
      "inputs": [],
      "name": "numClaims",
      "outputs": [
        {
          "name": "",
          "type": "uint256"
        }
      ],
      "payable": false,
      "stateMutability": "view",
      "type": "function"
    },
    {
      "inputs": [
        {
          "name": "_registry",
          "type": "address"
        },
        {
          "name": "_managementKey",
          "type": "address"
        }
      ],
      "payable": false,
      "stateMutability": "nonpayable",
      "type": "constructor"
    },
    {
      "payable": true,
      "stateMutability": "payable",
      "type": "fallback"
    },
    {
      "constant": true,
      "inputs": [],
      "name": "implementation",
      "outputs": [
        {
          "name": "",
          "type": "address"
        }
      ],
      "payable": false,
      "stateMutability": "view",
      "type": "function"
    },
    {
      "constant": false,
      "inputs": [
        {
          "name": "_addr",
          "type": "address"
        }
      ],
      "name": "setRegistry",
      "outputs": [
        {
          "name": "",
          "type": "bool"
        }
      ],
      "payable": false,
      "stateMutability": "nonpayable",
      "type": "function"
    },
    {
      "constant": true,
      "inputs": [],
      "name": "proxyType",
      "outputs": [
        {
          "name": "proxyTypeId",
          "type": "uint256"
        }
      ],
      "payable": false,
      "stateMutability": "pure",
      "type": "function"
    }
  ],
  "bytecode": "0x6080604052600180805560028190556006805460ff1916905560075534801561002757600080fd5b506040516040806107fa83398101604081815282516020909301517f696e6974286164647265737329000000000000000000000000000000000000008352905191829003600d01909120600e8054600160a060020a038516600160a060020a0319909116179055600080806100a36401000000006100d1810204565b9250602091508360005281823803600439600080600484016000866127105a03f49050505050505050610187565b600e54604080517f0d2020dd0000000000000000000000000000000000000000000000000000000081527f4d65746149644c6962726172795631000000000000000000000000000000000060048201529051600092600160a060020a031691630d2020dd91602480830192602092919082900301818787803b15801561015657600080fd5b505af115801561016a573d6000803e3d6000fd5b505050506040513d602081101561018057600080fd5b5051905090565b610664806101966000396000f3006080604052600436106100a35763ffffffff7c010000000000000000000000000000000000000000000000000000000060003504166338f4edd481146100e95780634555d5c9146101105780635c60da1b146101255780635c975abb146101565780635dccebba1461017f5780636e4c431114610236578063a91ee0dc14610251578063aa0a514214610272578063affed0e014610287578063fc0fc8491461029c575b60006100ad6102b1565b9050600160a060020a03811615156100c457600080fd5b60405136600082376000803683855af43d806000843e8180156100e5578184f35b8184fd5b3480156100f557600080fd5b506100fe610367565b60408051918252519081900360200190f35b34801561011c57600080fd5b506100fe61036d565b34801561013157600080fd5b5061013a6102b1565b60408051600160a060020a039092168252519081900360200190f35b34801561016257600080fd5b5061016b610372565b604080519115158252519081900360200190f35b34801561018b57600080fd5b5061019760043561037b565b6040518085600160a060020a0316600160a060020a0316815260200184815260200180602001838152602001828103825284818151815260200191508051906020019080838360005b838110156101f85781810151838201526020016101e0565b50505050905090810190601f1680156102255780820380516001836020036101000a031916815260200191505b509550505050505060405180910390f35b34801561024257600080fd5b5061013a600435602435610437565b34801561025d57600080fd5b5061016b600160a060020a036004351661046e565b34801561027e57600080fd5b506100fe610522565b34801561029357600080fd5b506100fe610528565b3480156102a857600080fd5b506100fe61052e565b600e54604080517f0d2020dd0000000000000000000000000000000000000000000000000000000081527f4d65746149644c6962726172795631000000000000000000000000000000000060048201529051600092600160a060020a031691630d2020dd91602480830192602092919082900301818787803b15801561033657600080fd5b505af115801561034a573d6000803e3d6000fd5b505050506040513d602081101561036057600080fd5b5051905090565b60025481565b600290565b60065460ff1681565b60086020908152600091825260409182902080546001808301546002808501805488516101009582161595909502600019011691909104601f8101879004870284018701909752868352600160a060020a039093169590949192918301828280156104275780601f106103fc57610100808354040283529160200191610427565b820191906000526020600020905b81548152906001019060200180831161040a57829003601f168201915b5050505050908060030154905084565b60096020528160005260406000208181548110151561045257fe5b600091825260209091200154600160a060020a03169150829050565b6000610483600333600163ffffffff61053416565b15156104f057604080517f08c379a000000000000000000000000000000000000000000000000000000000815260206004820152601460248201527f6e6f742061206d616e6167656d656e74206b6579000000000000000000000000604482015290519081900360640190fd5b50600e8054600160a060020a03831673ffffffffffffffffffffffffffffffffffffffff199091161790556001919050565b60015481565b60075481565b600c5481565b600061053e610618565b600084815260208681526040808320815181546080948102820185019093526060810183815290939192849284919084018282801561059c57602002820191906000526020600020905b815481526020019060010190808311610588575b50505091835250506001820154602082015260029091015460409182015281015190925015156105cf576000925061060f565b5060005b81515181101561060f5781518051859190839081106105ee57fe5b906020019060200201511415610607576001925061060f565b6001016105d3565b50509392505050565b6040805160608181018352815260006020820181905291810191909152905600a165627a7a72305820e484a2a6a6b158dc3af0480232a23386db59fc1f4851c92ca92d966eb1a70b2e0029",
  "source": "pragma solidity ^0.4.24;\n\n/**\n * @title MetaIdentityUsingLib\n * @dev Interface for MetaIdentityUsingLib\n */\ncontract MetaIdentityUsingLib {\n    // Line All the MetaIdentity variables up.\n    // For delegate call, contract storage layout must be same.\n    // Line up order is following the solidity inheritance logic(python like)\n    \n    //ERC165\n    mapping(bytes4 => bool) internal supportedInterfaces;\n\n    //KeyBase\n\n    //uint256 public constant MANAGEMENT_KEY = 1;\n\n    // For multi-sig\n    uint256 public managementThreshold = 1;\n    uint256 public actionThreshold = 1;\n\n    // Key storage\n    using KeyStore for KeyStore.Keys;\n    KeyStore.Keys internal allKeys;\n    \n    // Pausable\n    bool public paused = false;\n    // MultiSig\n\n    uint256 public nonce = 1;\n\n    struct Execution {\n        address to;\n        uint256 value;\n        bytes data;\n        uint256 needsApprove;\n    }\n\n    mapping (uint256 => Execution) public execution;\n    mapping (uint256 => address[]) public approved;\n    // ClaimManager\n\n    bytes constant internal ETH_PREFIX = \"\\x19Ethereum Signed Message:\\n32\";\n\n    struct Claim {\n        uint256 topic;\n        uint256 scheme;\n        address issuer; // msg.sender\n        bytes signature; // this.address + topic + data\n        bytes data;\n        string uri;\n    }\n\n    mapping(bytes32 => Claim) internal claims;\n    mapping(uint256 => bytes32[]) internal claimsByTopic;\n    uint256 public numClaims;\n\n    //Proxy Only\n    address internal libImplementation;\n    IReg REG;\n/*\n    function setImplementation(address _newImple) public returns (bool) {\n        require(allKeys.find(bytes32(msg.sender), 1),\"not a management key\");\n        libImplementation = _newImple;\n        return true;\n    }\n*/\n    function implementation() public view returns (address) {\n        return REG.getContractAddress(\"MetaIdLibraryV1\");\n    }\n\n    function setRegistry(address _addr) public returns (bool) {\n        require(allKeys.find(bytes32(msg.sender), 1),\"not a management key\");\n        REG = IReg(_addr);\n        return true;\n    }\n    constructor(address _registry, address _managementKey) public {\n        \n        bytes4 sig = bytes4(keccak256(\"init(address)\"));\n        REG = IReg(_registry);\n\n        // two 32bytes for call data\n        address target = implementation();\n        uint256 argsize = 32;\n        bool suc;\n\n        assembly {\n            // Add the signature first to memory\n            mstore(0x0, sig)\n            // Add the call data, which is at the end of the\n            // code\n            codecopy(0x4,  sub(codesize, argsize), argsize)\n            // Delegate call to the library\n            suc := delegatecall(sub(gas, 10000), target, 0x0, add(argsize, 0x4), 0x0, 0x0)\n        }\n    }\n    \n    /**\n    * @dev Tells the type of proxy (EIP 897)\n    * @return Type of proxy, 2 for upgradeable proxy\n    */\n    function proxyType() public pure returns (uint256 proxyTypeId) {\n        return 2;\n    }\n    \n\n    /**\n     * @dev Fallback function for delegate call. This function will return whatever the implementaion call returns\n     */\n    function () payable public {\n        address _impl = implementation();\n        require(_impl != address(0));\n\n        assembly {\n            let ptr := mload(0x40)\n            calldatacopy(ptr, 0, calldatasize)\n\n            let result := delegatecall(gas, _impl, ptr, calldatasize, 0, 0)\n            let size := returndatasize\n            returndatacopy(ptr, 0, size)\n\n            switch result\n            case 0 { revert(ptr, size) }\n            default { return(ptr, size) }\n\n        }\n    }\n}\ncontract IReg {\n    function getContractAddress(bytes32 _name) public view returns(address addr);\n}\n\n\nlibrary KeyStore {\n    struct Key {\n        uint256[] purposes; //e.g., MANAGEMENT_KEY = 1, ACTION_KEY = 2, etc.\n        uint256 keyType; // e.g. 1 = ECDSA, 2 = RSA, etc.\n        bytes32 key; // for non-hex and long keys, its the Keccak256 hash of the key\n        mapping(address=>mapping(bytes4=>bool)) func;\n    }\n\n    struct Keys {\n        mapping (bytes32 => Key) keyData;\n        mapping (uint256 => bytes32[]) keysByPurpose;\n        uint numKeys;\n    }\n\n    /// @dev Find a key + purpose tuple\n    /// @param key Key bytes to find\n    /// @param purpose Purpose to find\n    /// @return `true` if key + purpose tuple if found\n    function find(Keys storage self, bytes32 key, uint256 purpose)\n        internal\n        view\n        returns (bool found)\n    {\n        Key memory k = self.keyData[key];\n        if (k.key == 0) {\n            return false;\n        }\n        for (uint i = 0; i < k.purposes.length; i++) {\n            if (k.purposes[i] == purpose) {\n                found = true;\n                return;\n            }\n        }\n    }\n\n    function isExist(Keys storage self, bytes32 key)\n        internal\n        view\n        returns (bool found)\n    {\n        Key memory k = self.keyData[key];\n        return (k.key != 0);\n    }\n\n    /// @dev Add a Key\n    /// @param key Key bytes to add\n    /// @param purpose Purpose to add\n    /// @param keyType Key type to add\n    function add(Keys storage self, bytes32 key, uint256 purpose, uint256 keyType)\n        internal\n    {\n        Key storage k = self.keyData[key];\n        k.purposes.push(purpose);\n        if (k.key == 0) {\n            k.key = key;\n            k.keyType = keyType;\n        }\n        self.keysByPurpose[purpose].push(key);\n        self.numKeys++;\n    }\n\n    /// @dev Remove Key\n    /// @param key Key bytes to remove\n    /// @param purpose Purpose to remove\n    /// @return Key type of the key that was removed\n    function remove(Keys storage self, bytes32 key, uint256 purpose)\n        internal\n        returns (uint256 keyType)\n    {\n        keyType = self.keyData[key].keyType;\n\n        uint256[] storage p = self.keyData[key].purposes;\n        // Delete purpose from keyData\n        for (uint i = 0; i < p.length; i++) {\n            if (p[i] == purpose) {\n                p[i] = p[p.length - 1];\n                delete p[p.length - 1];\n                p.length--;\n                self.numKeys--;\n                break;\n            }\n        }\n        // No more purposes\n        if (p.length == 0) {\n            delete self.keyData[key];\n        }\n\n        // Delete key from keysByPurpose\n        bytes32[] storage k = self.keysByPurpose[purpose];\n        for (i = 0; i < k.length; i++) {\n            if (k[i] == key) {\n                k[i] = k[k.length - 1];\n                delete k[k.length - 1];\n                k.length--;\n            }\n        }\n    }\n\n    /// @dev Set function that the specific key can excute\n    /// @param key Key to use\n    /// @param to smart contract address at which this key can be used\n    /// @param func function to use\n    /// @param executable is executable\n    function setFunc(Keys storage self, bytes32 key, address to, bytes4 func, bool executable)\n        internal returns (bool set)\n    {\n        Key storage k = self.keyData[key];\n        k.func[to][func] = executable;\n        \n        return executable;\n    }\n}",
  "sourcePath": "/Users/coinplug/BangGijin/metabolics2.0/contracts/identity/MetaIdentityUsingLib.sol",
  "compiler": {
    "name": "solc",
    "version": "0.4.24+commit.e67f0147.Emscripten.clang"
  },
  "schemaVersion": "2.0.1",
  "updatedAt": "2018-12-14T01:49:11.031Z"
}