{
  "contractName": "MetaIdentityUsingLib",
  "abi": [
    {
      "constant": true,
      "inputs": [],
      "name": "REGISTRY_TOPIC",
      "outputs": [
        {
          "name": "",
          "type": "uint256"
        }
      ],
      "payable": false,
      "stateMutability": "view",
      "type": "function"
    },
    {
      "constant": true,
      "inputs": [],
      "name": "MANAGEMENT_KEY",
      "outputs": [
        {
          "name": "",
          "type": "uint256"
        }
      ],
      "payable": false,
      "stateMutability": "view",
      "type": "function"
    },
    {
      "constant": true,
      "inputs": [],
      "name": "CONTRACT_SCHEME",
      "outputs": [
        {
          "name": "",
          "type": "uint256"
        }
      ],
      "payable": false,
      "stateMutability": "view",
      "type": "function"
    },
    {
      "constant": true,
      "inputs": [],
      "name": "RSA_TYPE",
      "outputs": [
        {
          "name": "",
          "type": "uint256"
        }
      ],
      "payable": false,
      "stateMutability": "view",
      "type": "function"
    },
    {
      "constant": true,
      "inputs": [],
      "name": "actionThreshold",
      "outputs": [
        {
          "name": "",
          "type": "uint256"
        }
      ],
      "payable": false,
      "stateMutability": "view",
      "type": "function"
    },
    {
      "constant": true,
      "inputs": [],
      "name": "ECDSA_TYPE",
      "outputs": [
        {
          "name": "",
          "type": "uint256"
        }
      ],
      "payable": false,
      "stateMutability": "view",
      "type": "function"
    },
    {
      "constant": true,
      "inputs": [],
      "name": "paused",
      "outputs": [
        {
          "name": "",
          "type": "bool"
        }
      ],
      "payable": false,
      "stateMutability": "view",
      "type": "function"
    },
    {
      "constant": true,
      "inputs": [
        {
          "name": "",
          "type": "uint256"
        }
      ],
      "name": "execution",
      "outputs": [
        {
          "name": "to",
          "type": "address"
        },
        {
          "name": "value",
          "type": "uint256"
        },
        {
          "name": "data",
          "type": "bytes"
        },
        {
          "name": "needsApprove",
          "type": "uint256"
        }
      ],
      "payable": false,
      "stateMutability": "view",
      "type": "function"
    },
    {
      "constant": true,
      "inputs": [
        {
          "name": "",
          "type": "uint256"
        },
        {
          "name": "",
          "type": "uint256"
        }
      ],
      "name": "approved",
      "outputs": [
        {
          "name": "",
          "type": "address"
        }
      ],
      "payable": false,
      "stateMutability": "view",
      "type": "function"
    },
    {
      "constant": true,
      "inputs": [],
      "name": "METAID_TOPIC",
      "outputs": [
        {
          "name": "",
          "type": "uint256"
        }
      ],
      "payable": false,
      "stateMutability": "view",
      "type": "function"
    },
    {
      "constant": true,
      "inputs": [],
      "name": "ACTION_KEY",
      "outputs": [
        {
          "name": "",
          "type": "uint256"
        }
      ],
      "payable": false,
      "stateMutability": "view",
      "type": "function"
    },
    {
      "constant": true,
      "inputs": [],
      "name": "ECDSA_SCHEME",
      "outputs": [
        {
          "name": "",
          "type": "uint256"
        }
      ],
      "payable": false,
      "stateMutability": "view",
      "type": "function"
    },
    {
      "constant": true,
      "inputs": [],
      "name": "ENCRYPTION_KEY",
      "outputs": [
        {
          "name": "",
          "type": "uint256"
        }
      ],
      "payable": false,
      "stateMutability": "view",
      "type": "function"
    },
    {
      "constant": true,
      "inputs": [],
      "name": "RESIDENCE_TOPIC",
      "outputs": [
        {
          "name": "",
          "type": "uint256"
        }
      ],
      "payable": false,
      "stateMutability": "view",
      "type": "function"
    },
    {
      "constant": true,
      "inputs": [],
      "name": "managementThreshold",
      "outputs": [
        {
          "name": "",
          "type": "uint256"
        }
      ],
      "payable": false,
      "stateMutability": "view",
      "type": "function"
    },
    {
      "constant": true,
      "inputs": [],
      "name": "PROFILE_TOPIC",
      "outputs": [
        {
          "name": "",
          "type": "uint256"
        }
      ],
      "payable": false,
      "stateMutability": "view",
      "type": "function"
    },
    {
      "constant": true,
      "inputs": [],
      "name": "nonce",
      "outputs": [
        {
          "name": "",
          "type": "uint256"
        }
      ],
      "payable": false,
      "stateMutability": "view",
      "type": "function"
    },
    {
      "constant": true,
      "inputs": [],
      "name": "CUSTOM_KEY",
      "outputs": [
        {
          "name": "",
          "type": "uint256"
        }
      ],
      "payable": false,
      "stateMutability": "view",
      "type": "function"
    },
    {
      "constant": true,
      "inputs": [],
      "name": "LABEL_TOPIC",
      "outputs": [
        {
          "name": "",
          "type": "uint256"
        }
      ],
      "payable": false,
      "stateMutability": "view",
      "type": "function"
    },
    {
      "constant": true,
      "inputs": [],
      "name": "RESTORE_KEY",
      "outputs": [
        {
          "name": "",
          "type": "uint256"
        }
      ],
      "payable": false,
      "stateMutability": "view",
      "type": "function"
    },
    {
      "constant": true,
      "inputs": [],
      "name": "CLAIM_SIGNER_KEY",
      "outputs": [
        {
          "name": "",
          "type": "uint256"
        }
      ],
      "payable": false,
      "stateMutability": "view",
      "type": "function"
    },
    {
      "constant": true,
      "inputs": [],
      "name": "ASSIST_KEY",
      "outputs": [
        {
          "name": "",
          "type": "uint256"
        }
      ],
      "payable": false,
      "stateMutability": "view",
      "type": "function"
    },
    {
      "constant": true,
      "inputs": [],
      "name": "DELEGATE_KEY",
      "outputs": [
        {
          "name": "",
          "type": "uint256"
        }
      ],
      "payable": false,
      "stateMutability": "view",
      "type": "function"
    },
    {
      "constant": true,
      "inputs": [],
      "name": "RSA_SCHEME",
      "outputs": [
        {
          "name": "",
          "type": "uint256"
        }
      ],
      "payable": false,
      "stateMutability": "view",
      "type": "function"
    },
    {
      "constant": true,
      "inputs": [],
      "name": "numClaims",
      "outputs": [
        {
          "name": "",
          "type": "uint256"
        }
      ],
      "payable": false,
      "stateMutability": "view",
      "type": "function"
    },
    {
      "payable": true,
      "stateMutability": "payable",
      "type": "fallback"
    },
    {
      "constant": false,
      "inputs": [
        {
          "name": "_newImple",
          "type": "address"
        }
      ],
      "name": "setImplementation",
      "outputs": [
        {
          "name": "",
          "type": "bool"
        }
      ],
      "payable": false,
      "stateMutability": "nonpayable",
      "type": "function"
    },
    {
      "constant": true,
      "inputs": [],
      "name": "implementation",
      "outputs": [
        {
          "name": "",
          "type": "address"
        }
      ],
      "payable": false,
      "stateMutability": "view",
      "type": "function"
    },
    {
      "constant": true,
      "inputs": [],
      "name": "proxyType",
      "outputs": [
        {
          "name": "proxyTypeId",
          "type": "uint256"
        }
      ],
      "payable": false,
      "stateMutability": "pure",
      "type": "function"
    }
  ],
  "bytecode": "0x6080604052600180805560028190556006805460ff19169055600a5534801561002757600080fd5b506105cc806100376000396000f3006080604052600436106101695763ffffffff7c01000000000000000000000000000000000000000000000000000000006000350416630440b43a81146101af578063058b316c146101d6578063251de3e9146101af5780632d32d442146101eb57806338f4edd4146102005780634555d5c91461021557806349991ec8146101d65780635c60da1b1461022a5780635c975abb1461025b5780635dccebba146102845780636e4c43111461033b578063710ca550146101d657806375e5598c146101eb57806382d09446146101d65780639e140cc814610356578063a550f0c7146101eb578063aa0a51421461036b578063ae62838614610356578063affed0e014610380578063b132734e14610395578063b1e9f64c146103aa578063b9133d63146103bf578063c6702187146101af578063d784d426146103d4578063dbfa74b7146103aa578063ead09fab146103f5578063f22d08a6146101eb578063fc0fc8491461040a575b600061017361041f565b9050600160a060020a038116151561018a57600080fd5b60405136600082376000803683855af43d806000843e8180156101ab578184f35b8184fd5b3480156101bb57600080fd5b506101c461042e565b60408051918252519081900360200190f35b3480156101e257600080fd5b506101c4610433565b3480156101f757600080fd5b506101c4610438565b34801561020c57600080fd5b506101c461043d565b34801561022157600080fd5b506101c4610443565b34801561023657600080fd5b5061023f61041f565b60408051600160a060020a039092168252519081900360200190f35b34801561026757600080fd5b50610270610448565b604080519115158252519081900360200190f35b34801561029057600080fd5b5061029c600435610451565b6040518085600160a060020a0316600160a060020a0316815260200184815260200180602001838152602001828103825284818151815260200191508051906020019080838360005b838110156102fd5781810151838201526020016102e5565b50505050905090810190601f16801561032a5780820380516001836020036101000a031916815260200191505b509550505050505060405180910390f35b34801561034757600080fd5b5061023f60043560243561050d565b34801561036257600080fd5b506101c4610544565b34801561037757600080fd5b506101c4610549565b34801561038c57600080fd5b506101c461054f565b3480156103a157600080fd5b506101c4610555565b3480156103b657600080fd5b506101c461055a565b3480156103cb57600080fd5b506101c461055f565b3480156103e057600080fd5b50610270600160a060020a0360043516610564565b34801561040157600080fd5b506101c4610595565b34801561041657600080fd5b506101c461059a565b600d54600160a060020a031690565b600381565b600181565b600281565b60025481565b600290565b60065460ff1681565b600b6020908152600091825260409182902080546001808301546002808501805488516101009582161595909502600019011691909104601f8101879004870284018701909752868352600160a060020a039093169590949192918301828280156104fd5780601f106104d2576101008083540402835291602001916104fd565b820191906000526020600020905b8154815290600101906020018083116104e057829003601f168201915b5050505050908060030154905084565b600c6020528160005260406000208181548110151561052857fe5b600091825260209091200154600160a060020a03169150829050565b600481565b60015481565b600a5481565b600881565b600581565b600781565b600d8054600160a060020a03831673ffffffffffffffffffffffffffffffffffffffff199091161790556001919050565b600681565b600954815600a165627a7a723058203f845f9f566c2cb86acce63b073152845e2eb993268bed6cb4b2ac7ff4ec096c0029",
  "source": "pragma solidity ^0.4.24;\n\n/**\n * @title MetaIdentityUsingLib\n * @dev Interface for MetaIdentityUsingLib\n */\ncontract MetaIdentityUsingLib {\n    // Line All the MetaIdentity variables up.\n    // For delegate call, contract storage layout must be same.\n    // Line up order is following the solidity inheritance logic(python like)\n    \n    //ERC165\n    mapping(bytes4 => bool) internal supportedInterfaces;\n\n    //ERC165Query\n    bytes4 constant internal INVALID_ID = 0xffffffff;\n    bytes4 constant internal ERC165_ID = 0x01ffc9a7;\n\n    //ERC725\n    // Purpose\n    // 1: MANAGEMENT keys, which can manage the identity\n    uint256 public constant MANAGEMENT_KEY = 1;\n    // 2: ACTION keys, which perform actions in this identities name (signing, logins, transactions, etc.)\n    uint256 public constant ACTION_KEY = 2;\n    // 3: CLAIM signer keys, used to sign claims on other identities which need to be revokable.\n    uint256 public constant CLAIM_SIGNER_KEY = 3;\n    // 4: ENCRYPTION keys, used to encrypt data e.g. hold in claims.\n    uint256 public constant ENCRYPTION_KEY = 4;\n    // 5: ASSIST keys, used to authenticate.\n    uint256 public constant ASSIST_KEY = 5;\n    // 6: DELEGATE keys, used to encrypt data e.g. hold in claims.\n    uint256 public constant DELEGATE_KEY = 6;\n    // 7: RESTORE keys, used to encrypt data e.g. hold in claims.\n    uint256 public constant RESTORE_KEY = 7;\n    // 8: CUSTOM keys, used to encrypt data e.g. hold in claims.\n    uint256 public constant CUSTOM_KEY = 8;\n    \n    // KeyType\n    uint256 public constant ECDSA_TYPE = 1;\n    // https://medium.com/@alexberegszaszi/lets-bring-the-70s-to-ethereum-48daa16a4b51\n    uint256 public constant RSA_TYPE = 2;\n\n    //ERC735\n    // Topic\n    //uint256 public constant BIOMETRIC_TOPIC = 1; // you're a person and not a business\n    uint256 public constant METAID_TOPIC = 1; // TODO: real name, business name, nick name, brand name, alias, etc.\n    uint256 public constant RESIDENCE_TOPIC = 2; // you have a physical address or reference point\n    uint256 public constant REGISTRY_TOPIC = 3;\n    uint256 public constant PROFILE_TOPIC = 4; // TODO: social media profiles, blogs, etc.\n    uint256 public constant LABEL_TOPIC = 5; // TODO: real name, business name, nick name, brand name, alias, etc.\n\n    // Scheme\n    uint256 public constant ECDSA_SCHEME = 1;\n    // https://medium.com/@alexberegszaszi/lets-bring-the-70s-to-ethereum-48daa16a4b51\n    uint256 public constant RSA_SCHEME = 2;\n    // 3 is contract verification, where the data will be call data, and the issuer a contract address to call\n    uint256 public constant CONTRACT_SCHEME = 3;\n\n\n    //KeyBase\n\n    //uint256 public constant MANAGEMENT_KEY = 1;\n\n    // For multi-sig\n    uint256 public managementThreshold = 1;\n    uint256 public actionThreshold = 1;\n\n    // Key storage\n    using KeyStore for KeyStore.Keys;\n    KeyStore.Keys internal allKeys;\n    \n    // Pausable\n    bool public paused = false;\n\n    // ClaimManager\n\n    bytes constant internal ETH_PREFIX = \"\\x19Ethereum Signed Message:\\n32\";\n\n    struct Claim {\n        uint256 topic;\n        uint256 scheme;\n        address issuer; // msg.sender\n        bytes signature; // this.address + topic + data\n        bytes data;\n        string uri;\n    }\n\n    mapping(bytes32 => Claim) internal claims;\n    mapping(uint256 => bytes32[]) internal claimsByTopic;\n    uint256 public numClaims;\n\n    // MultiSig\n\n    uint256 public nonce = 1;\n\n    struct Execution {\n        address to;\n        uint256 value;\n        bytes data;\n        uint256 needsApprove;\n    }\n\n    mapping (uint256 => Execution) public execution;\n    mapping (uint256 => address[]) public approved;\n\n\n    //Proxy Only\n    address internal libImplementation;\n\n\n    function setImplementation(address _newImple) public returns (bool) {\n        libImplementation = _newImple;\n        return true;\n    }\n\n    function implementation() public view returns (address) {\n        return libImplementation;\n    }\n\n\n    /**\n    * @dev Tells the type of proxy (EIP 897)\n    * @return Type of proxy, 2 for upgradeable proxy\n    */\n    function proxyType() public pure returns (uint256 proxyTypeId) {\n        return 2;\n    }\n    \n\n    /**\n     * @dev Fallback function for delegate call. This function will return whatever the implementaion call returns\n     */\n    function () payable public {\n        address _impl = implementation();\n        require(_impl != address(0));\n\n        assembly {\n            let ptr := mload(0x40)\n            calldatacopy(ptr, 0, calldatasize)\n\n            let result := delegatecall(gas, _impl, ptr, calldatasize, 0, 0)\n            let size := returndatasize\n            returndatacopy(ptr, 0, size)\n\n            switch result\n            case 0 { revert(ptr, size) }\n            default { return(ptr, size) }\n\n        }\n    }\n}\n\nlibrary KeyStore {\n    struct Key {\n        uint256[] purposes; //e.g., MANAGEMENT_KEY = 1, ACTION_KEY = 2, etc.\n        uint256 keyType; // e.g. 1 = ECDSA, 2 = RSA, etc.\n        bytes32 key; // for non-hex and long keys, its the Keccak256 hash of the key\n        mapping(address=>mapping(bytes4=>bool)) func;\n    }\n\n    struct Keys {\n        mapping (bytes32 => Key) keyData;\n        mapping (uint256 => bytes32[]) keysByPurpose;\n        uint numKeys;\n    }\n\n    /// @dev Find a key + purpose tuple\n    /// @param key Key bytes to find\n    /// @param purpose Purpose to find\n    /// @return `true` if key + purpose tuple if found\n    function find(Keys storage self, bytes32 key, uint256 purpose)\n        internal\n        view\n        returns (bool found)\n    {\n        Key memory k = self.keyData[key];\n        if (k.key == 0) {\n            return false;\n        }\n        for (uint i = 0; i < k.purposes.length; i++) {\n            if (k.purposes[i] == purpose) {\n                found = true;\n                return;\n            }\n        }\n    }\n\n    function isExist(Keys storage self, bytes32 key)\n        internal\n        view\n        returns (bool found)\n    {\n        Key memory k = self.keyData[key];\n        return (k.key != 0);\n    }\n\n    /// @dev Add a Key\n    /// @param key Key bytes to add\n    /// @param purpose Purpose to add\n    /// @param keyType Key type to add\n    function add(Keys storage self, bytes32 key, uint256 purpose, uint256 keyType)\n        internal\n    {\n        Key storage k = self.keyData[key];\n        k.purposes.push(purpose);\n        if (k.key == 0) {\n            k.key = key;\n            k.keyType = keyType;\n        }\n        self.keysByPurpose[purpose].push(key);\n        self.numKeys++;\n    }\n\n    /// @dev Remove Key\n    /// @param key Key bytes to remove\n    /// @param purpose Purpose to remove\n    /// @return Key type of the key that was removed\n    function remove(Keys storage self, bytes32 key, uint256 purpose)\n        internal\n        returns (uint256 keyType)\n    {\n        keyType = self.keyData[key].keyType;\n\n        uint256[] storage p = self.keyData[key].purposes;\n        // Delete purpose from keyData\n        for (uint i = 0; i < p.length; i++) {\n            if (p[i] == purpose) {\n                p[i] = p[p.length - 1];\n                delete p[p.length - 1];\n                p.length--;\n                self.numKeys--;\n                break;\n            }\n        }\n        // No more purposes\n        if (p.length == 0) {\n            delete self.keyData[key];\n        }\n\n        // Delete key from keysByPurpose\n        bytes32[] storage k = self.keysByPurpose[purpose];\n        for (i = 0; i < k.length; i++) {\n            if (k[i] == key) {\n                k[i] = k[k.length - 1];\n                delete k[k.length - 1];\n                k.length--;\n            }\n        }\n    }\n\n    /// @dev Set function that the specific key can excute\n    /// @param key Key to use\n    /// @param to smart contract address at which this key can be used\n    /// @param func function to use\n    /// @param executable is executable\n    function setFunc(Keys storage self, bytes32 key, address to, bytes4 func, bool executable)\n        internal returns (bool set)\n    {\n        Key storage k = self.keyData[key];\n        k.func[to][func] = executable;\n        \n        return executable;\n    }\n}",
  "sourcePath": "/Users/coinplug/BangGijin/metabolics2.0/contracts/identity/MetaIdentityUsingLib.sol",
  "compiler": {
    "name": "solc",
    "version": "0.4.24+commit.e67f0147.Emscripten.clang"
  },
  "schemaVersion": "2.0.1",
  "updatedAt": "2018-11-12T02:28:39.960Z"
}