{
  "contractName": "MetaIdentity",
  "abi": [
    {
      "constant": true,
      "inputs": [
        {
          "name": "interfaceID",
          "type": "bytes4"
        }
      ],
      "name": "supportsInterface",
      "outputs": [
        {
          "name": "",
          "type": "bool"
        }
      ],
      "payable": false,
      "stateMutability": "view",
      "type": "function"
    },
    {
      "constant": true,
      "inputs": [],
      "name": "ERC165ID",
      "outputs": [
        {
          "name": "",
          "type": "bytes4"
        }
      ],
      "payable": false,
      "stateMutability": "pure",
      "type": "function"
    },
    {
      "constant": true,
      "inputs": [],
      "name": "REGISTRY_TOPIC",
      "outputs": [
        {
          "name": "",
          "type": "uint256"
        }
      ],
      "payable": false,
      "stateMutability": "view",
      "type": "function"
    },
    {
      "constant": true,
      "inputs": [],
      "name": "MANAGEMENT_KEY",
      "outputs": [
        {
          "name": "",
          "type": "uint256"
        }
      ],
      "payable": false,
      "stateMutability": "view",
      "type": "function"
    },
    {
      "constant": true,
      "inputs": [
        {
          "name": "_key",
          "type": "bytes32"
        }
      ],
      "name": "getKey",
      "outputs": [
        {
          "name": "purposes",
          "type": "uint256[]"
        },
        {
          "name": "keyType",
          "type": "uint256"
        },
        {
          "name": "key",
          "type": "bytes32"
        }
      ],
      "payable": false,
      "stateMutability": "view",
      "type": "function"
    },
    {
      "constant": true,
      "inputs": [
        {
          "name": "issuer",
          "type": "address"
        },
        {
          "name": "topic",
          "type": "uint256"
        }
      ],
      "name": "getClaimId",
      "outputs": [
        {
          "name": "",
          "type": "bytes32"
        }
      ],
      "payable": false,
      "stateMutability": "pure",
      "type": "function"
    },
    {
      "constant": true,
      "inputs": [
        {
          "name": "subject",
          "type": "address"
        },
        {
          "name": "topic",
          "type": "uint256"
        },
        {
          "name": "data",
          "type": "bytes"
        }
      ],
      "name": "claimToSign",
      "outputs": [
        {
          "name": "",
          "type": "bytes32"
        }
      ],
      "payable": false,
      "stateMutability": "pure",
      "type": "function"
    },
    {
      "constant": false,
      "inputs": [
        {
          "name": "_key",
          "type": "bytes32"
        },
        {
          "name": "_purpose",
          "type": "uint256"
        },
        {
          "name": "_keyType",
          "type": "uint256"
        }
      ],
      "name": "addKey",
      "outputs": [
        {
          "name": "success",
          "type": "bool"
        }
      ],
      "payable": false,
      "stateMutability": "nonpayable",
      "type": "function"
    },
    {
      "constant": true,
      "inputs": [],
      "name": "CONTRACT_SCHEME",
      "outputs": [
        {
          "name": "",
          "type": "uint256"
        }
      ],
      "payable": false,
      "stateMutability": "view",
      "type": "function"
    },
    {
      "constant": true,
      "inputs": [
        {
          "name": "_topic",
          "type": "uint256"
        }
      ],
      "name": "getClaimIdsByType",
      "outputs": [
        {
          "name": "claimIds",
          "type": "bytes32[]"
        }
      ],
      "payable": false,
      "stateMutability": "view",
      "type": "function"
    },
    {
      "constant": true,
      "inputs": [],
      "name": "RSA_TYPE",
      "outputs": [
        {
          "name": "",
          "type": "uint256"
        }
      ],
      "payable": false,
      "stateMutability": "view",
      "type": "function"
    },
    {
      "constant": true,
      "inputs": [],
      "name": "getTransactionCount",
      "outputs": [
        {
          "name": "",
          "type": "uint256"
        }
      ],
      "payable": false,
      "stateMutability": "view",
      "type": "function"
    },
    {
      "constant": true,
      "inputs": [],
      "name": "actionThreshold",
      "outputs": [
        {
          "name": "",
          "type": "uint256"
        }
      ],
      "payable": false,
      "stateMutability": "view",
      "type": "function"
    },
    {
      "constant": true,
      "inputs": [
        {
          "name": "toSign",
          "type": "bytes32"
        },
        {
          "name": "signature",
          "type": "bytes"
        }
      ],
      "name": "getSignatureAddress",
      "outputs": [
        {
          "name": "",
          "type": "address"
        }
      ],
      "payable": false,
      "stateMutability": "pure",
      "type": "function"
    },
    {
      "constant": false,
      "inputs": [],
      "name": "unpause",
      "outputs": [],
      "payable": false,
      "stateMutability": "nonpayable",
      "type": "function"
    },
    {
      "constant": true,
      "inputs": [],
      "name": "ECDSA_TYPE",
      "outputs": [
        {
          "name": "",
          "type": "uint256"
        }
      ],
      "payable": false,
      "stateMutability": "view",
      "type": "function"
    },
    {
      "constant": false,
      "inputs": [
        {
          "name": "_to",
          "type": "address"
        },
        {
          "name": "_value",
          "type": "uint256"
        },
        {
          "name": "_data",
          "type": "bytes"
        },
        {
          "name": "_nonce",
          "type": "uint256"
        },
        {
          "name": "_sig",
          "type": "bytes"
        }
      ],
      "name": "delegatedExecute",
      "outputs": [
        {
          "name": "executionId",
          "type": "uint256"
        }
      ],
      "payable": false,
      "stateMutability": "nonpayable",
      "type": "function"
    },
    {
      "constant": false,
      "inputs": [
        {
          "name": "_claimId",
          "type": "bytes32"
        }
      ],
      "name": "removeClaim",
      "outputs": [
        {
          "name": "success",
          "type": "bool"
        }
      ],
      "payable": false,
      "stateMutability": "nonpayable",
      "type": "function"
    },
    {
      "constant": false,
      "inputs": [
        {
          "name": "_key",
          "type": "bytes32"
        },
        {
          "name": "_purpose",
          "type": "uint256"
        }
      ],
      "name": "removeKey",
      "outputs": [
        {
          "name": "success",
          "type": "bool"
        }
      ],
      "payable": false,
      "stateMutability": "nonpayable",
      "type": "function"
    },
    {
      "constant": true,
      "inputs": [],
      "name": "paused",
      "outputs": [
        {
          "name": "",
          "type": "bool"
        }
      ],
      "payable": false,
      "stateMutability": "view",
      "type": "function"
    },
    {
      "constant": false,
      "inputs": [
        {
          "name": "_claimId",
          "type": "bytes32"
        }
      ],
      "name": "refreshClaim",
      "outputs": [
        {
          "name": "",
          "type": "bool"
        }
      ],
      "payable": false,
      "stateMutability": "nonpayable",
      "type": "function"
    },
    {
      "constant": true,
      "inputs": [
        {
          "name": "",
          "type": "uint256"
        }
      ],
      "name": "execution",
      "outputs": [
        {
          "name": "to",
          "type": "address"
        },
        {
          "name": "value",
          "type": "uint256"
        },
        {
          "name": "data",
          "type": "bytes"
        },
        {
          "name": "needsApprove",
          "type": "uint256"
        }
      ],
      "payable": false,
      "stateMutability": "view",
      "type": "function"
    },
    {
      "constant": true,
      "inputs": [
        {
          "name": "addr",
          "type": "address"
        }
      ],
      "name": "addrToKey",
      "outputs": [
        {
          "name": "",
          "type": "bytes32"
        }
      ],
      "payable": false,
      "stateMutability": "pure",
      "type": "function"
    },
    {
      "constant": true,
      "inputs": [
        {
          "name": "",
          "type": "uint256"
        },
        {
          "name": "",
          "type": "uint256"
        }
      ],
      "name": "approved",
      "outputs": [
        {
          "name": "",
          "type": "address"
        }
      ],
      "payable": false,
      "stateMutability": "view",
      "type": "function"
    },
    {
      "constant": true,
      "inputs": [],
      "name": "METAID_TOPIC",
      "outputs": [
        {
          "name": "",
          "type": "uint256"
        }
      ],
      "payable": false,
      "stateMutability": "view",
      "type": "function"
    },
    {
      "constant": false,
      "inputs": [
        {
          "name": "_key",
          "type": "bytes32"
        },
        {
          "name": "_to",
          "type": "address"
        },
        {
          "name": "_func",
          "type": "bytes4"
        },
        {
          "name": "_executable",
          "type": "bool"
        }
      ],
      "name": "setFunc",
      "outputs": [
        {
          "name": "success",
          "type": "bool"
        }
      ],
      "payable": false,
      "stateMutability": "nonpayable",
      "type": "function"
    },
    {
      "constant": false,
      "inputs": [
        {
          "name": "_id",
          "type": "uint256"
        },
        {
          "name": "_approve",
          "type": "bool"
        }
      ],
      "name": "approve",
      "outputs": [
        {
          "name": "success",
          "type": "bool"
        }
      ],
      "payable": false,
      "stateMutability": "nonpayable",
      "type": "function"
    },
    {
      "constant": true,
      "inputs": [],
      "name": "ACTION_KEY",
      "outputs": [
        {
          "name": "",
          "type": "uint256"
        }
      ],
      "payable": false,
      "stateMutability": "view",
      "type": "function"
    },
    {
      "constant": true,
      "inputs": [
        {
          "name": "_key",
          "type": "bytes32"
        },
        {
          "name": "_to",
          "type": "address"
        },
        {
          "name": "_func",
          "type": "bytes4"
        }
      ],
      "name": "keyCanExecute",
      "outputs": [
        {
          "name": "executable",
          "type": "bool"
        }
      ],
      "payable": false,
      "stateMutability": "view",
      "type": "function"
    },
    {
      "constant": true,
      "inputs": [],
      "name": "ERC725ID",
      "outputs": [
        {
          "name": "",
          "type": "bytes4"
        }
      ],
      "payable": false,
      "stateMutability": "pure",
      "type": "function"
    },
    {
      "constant": true,
      "inputs": [],
      "name": "ECDSA_SCHEME",
      "outputs": [
        {
          "name": "",
          "type": "uint256"
        }
      ],
      "payable": false,
      "stateMutability": "view",
      "type": "function"
    },
    {
      "constant": false,
      "inputs": [],
      "name": "pause",
      "outputs": [],
      "payable": false,
      "stateMutability": "nonpayable",
      "type": "function"
    },
    {
      "constant": true,
      "inputs": [
        {
          "name": "_purpose",
          "type": "uint256"
        }
      ],
      "name": "getKeysByPurpose",
      "outputs": [
        {
          "name": "keys",
          "type": "bytes32[]"
        }
      ],
      "payable": false,
      "stateMutability": "view",
      "type": "function"
    },
    {
      "constant": true,
      "inputs": [],
      "name": "ENCRYPTION_KEY",
      "outputs": [
        {
          "name": "",
          "type": "uint256"
        }
      ],
      "payable": false,
      "stateMutability": "view",
      "type": "function"
    },
    {
      "constant": true,
      "inputs": [],
      "name": "RESIDENCE_TOPIC",
      "outputs": [
        {
          "name": "",
          "type": "uint256"
        }
      ],
      "payable": false,
      "stateMutability": "view",
      "type": "function"
    },
    {
      "constant": true,
      "inputs": [],
      "name": "managementThreshold",
      "outputs": [
        {
          "name": "",
          "type": "uint256"
        }
      ],
      "payable": false,
      "stateMutability": "view",
      "type": "function"
    },
    {
      "constant": true,
      "inputs": [],
      "name": "PROFILE_TOPIC",
      "outputs": [
        {
          "name": "",
          "type": "uint256"
        }
      ],
      "payable": false,
      "stateMutability": "view",
      "type": "function"
    },
    {
      "constant": true,
      "inputs": [],
      "name": "nonce",
      "outputs": [
        {
          "name": "",
          "type": "uint256"
        }
      ],
      "payable": false,
      "stateMutability": "view",
      "type": "function"
    },
    {
      "constant": true,
      "inputs": [],
      "name": "CUSTOM_KEY",
      "outputs": [
        {
          "name": "",
          "type": "uint256"
        }
      ],
      "payable": false,
      "stateMutability": "view",
      "type": "function"
    },
    {
      "constant": false,
      "inputs": [
        {
          "name": "_topic",
          "type": "uint256"
        },
        {
          "name": "_scheme",
          "type": "uint256"
        },
        {
          "name": "issuer",
          "type": "address"
        },
        {
          "name": "_signature",
          "type": "bytes"
        },
        {
          "name": "_data",
          "type": "bytes"
        },
        {
          "name": "_uri",
          "type": "string"
        }
      ],
      "name": "addClaim",
      "outputs": [
        {
          "name": "claimRequestId",
          "type": "uint256"
        }
      ],
      "payable": false,
      "stateMutability": "nonpayable",
      "type": "function"
    },
    {
      "constant": true,
      "inputs": [],
      "name": "LABEL_TOPIC",
      "outputs": [
        {
          "name": "",
          "type": "uint256"
        }
      ],
      "payable": false,
      "stateMutability": "view",
      "type": "function"
    },
    {
      "constant": false,
      "inputs": [
        {
          "name": "_to",
          "type": "address"
        },
        {
          "name": "_value",
          "type": "uint256"
        },
        {
          "name": "_data",
          "type": "bytes"
        }
      ],
      "name": "execute",
      "outputs": [
        {
          "name": "executionId",
          "type": "uint256"
        }
      ],
      "payable": false,
      "stateMutability": "nonpayable",
      "type": "function"
    },
    {
      "constant": true,
      "inputs": [],
      "name": "RESTORE_KEY",
      "outputs": [
        {
          "name": "",
          "type": "uint256"
        }
      ],
      "payable": false,
      "stateMutability": "view",
      "type": "function"
    },
    {
      "constant": true,
      "inputs": [],
      "name": "ERC735ID",
      "outputs": [
        {
          "name": "",
          "type": "bytes4"
        }
      ],
      "payable": false,
      "stateMutability": "pure",
      "type": "function"
    },
    {
      "constant": true,
      "inputs": [
        {
          "name": "b",
          "type": "bytes"
        }
      ],
      "name": "getFunctionSignature",
      "outputs": [
        {
          "name": "",
          "type": "bytes4"
        }
      ],
      "payable": false,
      "stateMutability": "pure",
      "type": "function"
    },
    {
      "constant": true,
      "inputs": [],
      "name": "CLAIM_SIGNER_KEY",
      "outputs": [
        {
          "name": "",
          "type": "uint256"
        }
      ],
      "payable": false,
      "stateMutability": "view",
      "type": "function"
    },
    {
      "constant": true,
      "inputs": [
        {
          "name": "_claimId",
          "type": "bytes32"
        }
      ],
      "name": "getClaim",
      "outputs": [
        {
          "name": "topic",
          "type": "uint256"
        },
        {
          "name": "scheme",
          "type": "uint256"
        },
        {
          "name": "issuer",
          "type": "address"
        },
        {
          "name": "signature",
          "type": "bytes"
        },
        {
          "name": "data",
          "type": "bytes"
        },
        {
          "name": "uri",
          "type": "string"
        }
      ],
      "payable": false,
      "stateMutability": "view",
      "type": "function"
    },
    {
      "constant": true,
      "inputs": [],
      "name": "numKeys",
      "outputs": [
        {
          "name": "",
          "type": "uint256"
        }
      ],
      "payable": false,
      "stateMutability": "view",
      "type": "function"
    },
    {
      "constant": false,
      "inputs": [
        {
          "name": "threshold",
          "type": "uint256"
        }
      ],
      "name": "changeManagementThreshold",
      "outputs": [],
      "payable": false,
      "stateMutability": "nonpayable",
      "type": "function"
    },
    {
      "constant": true,
      "inputs": [
        {
          "name": "_key",
          "type": "bytes32"
        },
        {
          "name": "purpose",
          "type": "uint256"
        }
      ],
      "name": "keyHasPurpose",
      "outputs": [
        {
          "name": "exists",
          "type": "bool"
        }
      ],
      "payable": false,
      "stateMutability": "view",
      "type": "function"
    },
    {
      "constant": true,
      "inputs": [],
      "name": "ASSIST_KEY",
      "outputs": [
        {
          "name": "",
          "type": "uint256"
        }
      ],
      "payable": false,
      "stateMutability": "view",
      "type": "function"
    },
    {
      "constant": false,
      "inputs": [
        {
          "name": "_topic",
          "type": "uint256"
        },
        {
          "name": "_scheme",
          "type": "uint256"
        },
        {
          "name": "issuer",
          "type": "address"
        },
        {
          "name": "_signature",
          "type": "bytes"
        },
        {
          "name": "_data",
          "type": "bytes"
        },
        {
          "name": "_uri",
          "type": "string"
        },
        {
          "name": "_idSignature",
          "type": "bytes"
        }
      ],
      "name": "addClaimByProxy",
      "outputs": [
        {
          "name": "success",
          "type": "bool"
        }
      ],
      "payable": false,
      "stateMutability": "nonpayable",
      "type": "function"
    },
    {
      "constant": false,
      "inputs": [
        {
          "name": "threshold",
          "type": "uint256"
        }
      ],
      "name": "changeActionThreshold",
      "outputs": [],
      "payable": false,
      "stateMutability": "nonpayable",
      "type": "function"
    },
    {
      "constant": true,
      "inputs": [],
      "name": "DELEGATE_KEY",
      "outputs": [
        {
          "name": "",
          "type": "uint256"
        }
      ],
      "payable": false,
      "stateMutability": "view",
      "type": "function"
    },
    {
      "constant": true,
      "inputs": [],
      "name": "RSA_SCHEME",
      "outputs": [
        {
          "name": "",
          "type": "uint256"
        }
      ],
      "payable": false,
      "stateMutability": "view",
      "type": "function"
    },
    {
      "constant": false,
      "inputs": [
        {
          "name": "_recipient",
          "type": "address"
        }
      ],
      "name": "destroyAndSend",
      "outputs": [],
      "payable": false,
      "stateMutability": "nonpayable",
      "type": "function"
    },
    {
      "constant": true,
      "inputs": [],
      "name": "numClaims",
      "outputs": [
        {
          "name": "",
          "type": "uint256"
        }
      ],
      "payable": false,
      "stateMutability": "view",
      "type": "function"
    },
    {
      "inputs": [
        {
          "name": "_managementKey",
          "type": "address"
        }
      ],
      "payable": false,
      "stateMutability": "nonpayable",
      "type": "constructor"
    },
    {
      "payable": true,
      "stateMutability": "payable",
      "type": "fallback"
    },
    {
      "anonymous": false,
      "inputs": [
        {
          "indexed": true,
          "name": "claimRequestId",
          "type": "uint256"
        },
        {
          "indexed": true,
          "name": "topic",
          "type": "uint256"
        },
        {
          "indexed": false,
          "name": "scheme",
          "type": "uint256"
        },
        {
          "indexed": true,
          "name": "issuer",
          "type": "address"
        },
        {
          "indexed": false,
          "name": "signature",
          "type": "bytes"
        },
        {
          "indexed": false,
          "name": "data",
          "type": "bytes"
        },
        {
          "indexed": false,
          "name": "uri",
          "type": "string"
        }
      ],
      "name": "ClaimRequested",
      "type": "event"
    },
    {
      "anonymous": false,
      "inputs": [
        {
          "indexed": true,
          "name": "claimId",
          "type": "bytes32"
        },
        {
          "indexed": true,
          "name": "topic",
          "type": "uint256"
        },
        {
          "indexed": false,
          "name": "scheme",
          "type": "uint256"
        },
        {
          "indexed": true,
          "name": "issuer",
          "type": "address"
        },
        {
          "indexed": false,
          "name": "signature",
          "type": "bytes"
        },
        {
          "indexed": false,
          "name": "data",
          "type": "bytes"
        },
        {
          "indexed": false,
          "name": "uri",
          "type": "string"
        }
      ],
      "name": "ClaimAdded",
      "type": "event"
    },
    {
      "anonymous": false,
      "inputs": [
        {
          "indexed": true,
          "name": "claimId",
          "type": "bytes32"
        },
        {
          "indexed": true,
          "name": "topic",
          "type": "uint256"
        },
        {
          "indexed": false,
          "name": "scheme",
          "type": "uint256"
        },
        {
          "indexed": true,
          "name": "issuer",
          "type": "address"
        },
        {
          "indexed": false,
          "name": "signature",
          "type": "bytes"
        },
        {
          "indexed": false,
          "name": "data",
          "type": "bytes"
        },
        {
          "indexed": false,
          "name": "uri",
          "type": "string"
        }
      ],
      "name": "ClaimRemoved",
      "type": "event"
    },
    {
      "anonymous": false,
      "inputs": [
        {
          "indexed": true,
          "name": "claimId",
          "type": "bytes32"
        },
        {
          "indexed": true,
          "name": "topic",
          "type": "uint256"
        },
        {
          "indexed": false,
          "name": "scheme",
          "type": "uint256"
        },
        {
          "indexed": true,
          "name": "issuer",
          "type": "address"
        },
        {
          "indexed": false,
          "name": "signature",
          "type": "bytes"
        },
        {
          "indexed": false,
          "name": "data",
          "type": "bytes"
        },
        {
          "indexed": false,
          "name": "uri",
          "type": "string"
        }
      ],
      "name": "ClaimChanged",
      "type": "event"
    },
    {
      "anonymous": false,
      "inputs": [
        {
          "indexed": true,
          "name": "key",
          "type": "bytes32"
        },
        {
          "indexed": true,
          "name": "purpose",
          "type": "uint256"
        },
        {
          "indexed": true,
          "name": "keyType",
          "type": "uint256"
        }
      ],
      "name": "KeyAdded",
      "type": "event"
    },
    {
      "anonymous": false,
      "inputs": [
        {
          "indexed": true,
          "name": "key",
          "type": "bytes32"
        },
        {
          "indexed": true,
          "name": "purpose",
          "type": "uint256"
        },
        {
          "indexed": true,
          "name": "keyType",
          "type": "uint256"
        }
      ],
      "name": "KeyRemoved",
      "type": "event"
    },
    {
      "anonymous": false,
      "inputs": [
        {
          "indexed": true,
          "name": "executionId",
          "type": "uint256"
        },
        {
          "indexed": true,
          "name": "to",
          "type": "address"
        },
        {
          "indexed": true,
          "name": "value",
          "type": "uint256"
        },
        {
          "indexed": false,
          "name": "data",
          "type": "bytes"
        }
      ],
      "name": "ExecutionRequested",
      "type": "event"
    },
    {
      "anonymous": false,
      "inputs": [
        {
          "indexed": true,
          "name": "executionId",
          "type": "uint256"
        },
        {
          "indexed": true,
          "name": "to",
          "type": "address"
        },
        {
          "indexed": true,
          "name": "value",
          "type": "uint256"
        },
        {
          "indexed": false,
          "name": "data",
          "type": "bytes"
        }
      ],
      "name": "Executed",
      "type": "event"
    },
    {
      "anonymous": false,
      "inputs": [
        {
          "indexed": true,
          "name": "executionId",
          "type": "uint256"
        },
        {
          "indexed": false,
          "name": "approved",
          "type": "bool"
        }
      ],
      "name": "Approved",
      "type": "event"
    },
    {
      "anonymous": false,
      "inputs": [
        {
          "indexed": true,
          "name": "executionId",
          "type": "uint256"
        },
        {
          "indexed": true,
          "name": "to",
          "type": "address"
        },
        {
          "indexed": true,
          "name": "value",
          "type": "uint256"
        },
        {
          "indexed": false,
          "name": "data",
          "type": "bytes"
        }
      ],
      "name": "ExecutionFailed",
      "type": "event"
    },
    {
      "anonymous": false,
      "inputs": [],
      "name": "LogPause",
      "type": "event"
    },
    {
      "anonymous": false,
      "inputs": [],
      "name": "LogUnpause",
      "type": "event"
    }
  ],
  "bytecode": "0x6080604052600160008190558080556005805460ff191690556007553480156200002857600080fd5b5060405160208062004764833981016040525160006001600682620000556401000000006200022b810204565b7fffffffff0000000000000000000000000000000000000000000000000000000016815260208101919091526040016000908120805460ff191692151592909217909155600190600690620000b26401000000006200024f810204565b7fffffffff0000000000000000000000000000000000000000000000000000000016815260208101919091526040016000908120805460ff1916921515929092179091556001906006906200010f64010000000062000273810204565b7fffffffff000000000000000000000000000000000000000000000000000000001681526020810191909152604001600020805460ff1916911515919091179055620001648264010000000062000297810204565b90506200017d81600180640100000000620002a3810204565b620001958160026001640100000000620002a3810204565b620001ad8160036001640100000000620002a3810204565b60016000818155818055600690620001cd64010000000062000273810204565b620001e06401000000006200024f810204565b187fffffffff000000000000000000000000000000000000000000000000000000001681526020810191909152604001600020805460ff191691151591909117905550620003669050565b7f01ffc9a70000000000000000000000000000000000000000000000000000000090565b7fdc3d2a7b0000000000000000000000000000000000000000000000000000000090565b7f107653790000000000000000000000000000000000000000000000000000000090565b600160a060020a031690565b620002c060028484846401000000006200402b620002f482021704565b6040518190839085907f480000bb1edad8ca1470381cc334b1917fbd51c6531f3a623ea8e0ec7e38a6e990600090a4505050565b60008381526020858152604082208054600181018255818452919092200183905560028101541515620003305760028101849055600181018290555b50506000908152600180840160209081526040832080548084018255908452922090910191909155600290910180549091019055565b6143ee80620003766000396000f30060806040526004361061028f5763ffffffff60e060020a60003504166301ffc9a7811461029157806302e7491e146102c75780630440b43a146102f9578063058b316c1461032057806312aaac7014610335578063190db862146103ae5780631d203be8146103d25780631d3812401461043b578063251de3e9146102f9578063262b54f5146104595780632d32d442146104c15780632e7700f0146104d657806338f4edd4146104eb5780633b8a12c8146105005780633f4ba83a1461057a57806349991ec8146103205780634da34c2c1461058f5780634eee424a1461063c57806353d413c5146106545780635c975abb1461066f5780635d7bc3fc146106845780635dccebba1461069c57806363f14c3c146107535780636e4c431114610774578063710ca55014610320578063724a4b3b1461078f578063747442d3146107c557806375e5598c146104c1578063765b3042146107e25780637d96fa581461081357806382d09446146103205780638456cb59146108285780639010f7261461083d5780639e140cc814610855578063a550f0c7146104c1578063aa0a51421461086a578063ae62838614610855578063affed0e01461087f578063b132734e14610894578063b1a34e0d146108a9578063b1e9f64c14610991578063b61d27f6146109a6578063b9133d6314610a0f578063bf2f20ad14610a24578063c32b351814610a39578063c6702187146102f9578063c9100bcb14610a92578063c9d24ecc14610c15578063ccfe586814610c2a578063d202158d14610c42578063dbfa74b714610991578063e0610ba314610c5d578063e99896b814610d83578063ead09fab14610d9b578063f22d08a6146104c1578063f5074f4114610db0578063fc0fc84914610dd1575b005b34801561029d57600080fd5b506102b3600160e060020a031960043516610de6565b604080519115158252519081900360200190f35b3480156102d357600080fd5b506102dc610e05565b60408051600160e060020a03199092168252519081900360200190f35b34801561030557600080fd5b5061030e610e2a565b60408051918252519081900360200190f35b34801561032c57600080fd5b5061030e610e2f565b34801561034157600080fd5b5061034d600435610e34565b60408051602080820185905291810183905260608082528551908201528451909182916080830191878101910280838360005b83811015610398578181015183820152602001610380565b5050505090500194505050505060405180910390f35b3480156103ba57600080fd5b5061030e600160a060020a0360043516602435610ed9565b3480156103de57600080fd5b50604080516020600460443581810135601f810184900484028501840190955284845261030e948235600160a060020a0316946024803595369594606494920191908190840183828082843750949750610f869650505050505050565b34801561044757600080fd5b506102b3600435602435604435611086565b34801561046557600080fd5b506104716004356110df565b60408051602080825283518183015283519192839290830191858101910280838360005b838110156104ad578181015183820152602001610495565b505050509050019250505060405180910390f35b3480156104cd57600080fd5b5061030e611142565b3480156104e257600080fd5b5061030e611147565b3480156104f757600080fd5b5061030e61114d565b34801561050c57600080fd5b5060408051602060046024803582810135601f810185900485028601850190965285855261055e9583359536956044949193909101919081908401838280828437509497506111539650505050505050565b60408051600160a060020a039092168252519081900360200190f35b34801561058657600080fd5b5061028f611256565b34801561059b57600080fd5b50604080516020600460443581810135601f810184900484028501840190955284845261030e948235600160a060020a031694602480359536959460649492019190819084018382808284375050604080516020601f818a01358b0180359182018390048302840183018552818452989b8a359b909a9099940197509195509182019350915081908401838280828437509497506112af9650505050505050565b34801561064857600080fd5b506102b36004356113da565b34801561066057600080fd5b506102b36004356024356119e3565b34801561067b57600080fd5b506102b3611a7a565b34801561069057600080fd5b506102b3600435611a83565b3480156106a857600080fd5b506106b4600435611dec565b6040518085600160a060020a0316600160a060020a0316815260200184815260200180602001838152602001828103825284818151815260200191508051906020019080838360005b838110156107155781810151838201526020016106fd565b50505050905090810190601f1680156107425780820380516001836020036101000a031916815260200191505b509550505050505060405180910390f35b34801561075f57600080fd5b5061030e600160a060020a0360043516611ea8565b34801561078057600080fd5b5061055e600435602435611eb4565b34801561079b57600080fd5b506102b3600435600160a060020a0360243516600160e060020a0319604435166064351515611eeb565b3480156107d157600080fd5b506102b36004356024351515611f4c565b3480156107ee57600080fd5b506102b3600435600160a060020a0360243516600160e060020a0319604435166122eb565b34801561081f57600080fd5b506102dc61232d565b34801561083457600080fd5b5061028f612351565b34801561084957600080fd5b506104716004356123ac565b34801561086157600080fd5b5061030e61240d565b34801561087657600080fd5b5061030e612412565b34801561088b57600080fd5b5061030e612418565b3480156108a057600080fd5b5061030e61241e565b3480156108b557600080fd5b50604080516020601f60643560048181013592830184900484028501840190955281845261030e948035946024803595600160a060020a0360443516953695608494930191819084018382808284375050604080516020601f89358b018035918201839004830284018301909452808352979a99988101979196509182019450925082915084018382808284375050604080516020601f89358b018035918201839004830284018301909452808352979a9998810197919650918201945092508291508401838280828437509497506124239650505050505050565b34801561099d57600080fd5b5061030e6128d4565b3480156109b257600080fd5b50604080516020600460443581810135601f810184900484028501840190955284845261030e948235600160a060020a03169460248035953695946064949201919081908401838280828437509497506128d99650505050505050565b348015610a1b57600080fd5b5061030e612900565b348015610a3057600080fd5b506102dc612905565b348015610a4557600080fd5b506040805160206004803580820135601f81018490048402850184019095528484526102dc9436949293602493928401919081908401838280828437509497506129299650505050505050565b348015610a9e57600080fd5b50610aaa6004356129ad565b6040518087815260200186815260200185600160a060020a0316600160a060020a03168152602001806020018060200180602001848103845287818151815260200191508051906020019080838360005b83811015610b13578181015183820152602001610afb565b50505050905090810190601f168015610b405780820380516001836020036101000a031916815260200191505b50848103835286518152865160209182019188019080838360005b83811015610b73578181015183820152602001610b5b565b50505050905090810190601f168015610ba05780820380516001836020036101000a031916815260200191505b50848103825285518152855160209182019187019080838360005b83811015610bd3578181015183820152602001610bbb565b50505050905090810190601f168015610c005780820380516001836020036101000a031916815260200191505b50995050505050505050505060405180910390f35b348015610c2157600080fd5b5061030e612c03565b348015610c3657600080fd5b5061028f600435612c09565b348015610c4e57600080fd5b506102b3600435602435612c5c565b348015610c6957600080fd5b50604080516020601f6064356004818101359283018490048402850184019095528184526102b3948035946024803595600160a060020a0360443516953695608494930191819084018382808284375050604080516020601f89358b018035918201839004830284018301909452808352979a99988101979196509182019450925082915084018382808284375050604080516020601f89358b018035918201839004830284018301909452808352979a99988101979196509182019450925082915084018382808284375050604080516020601f89358b018035918201839004830284018301909452808352979a999881019791965091820194509250829150840183828082843750949750612c709650505050505050565b348015610d8f57600080fd5b5061028f600435613091565b348015610da757600080fd5b5061030e6130e4565b348015610dbc57600080fd5b5061028f600160a060020a03600435166130e9565b348015610ddd57600080fd5b5061030e61311d565b600160e060020a03191660009081526006602052604090205460ff1690565b7f01ffc9a7000000000000000000000000000000000000000000000000000000005b90565b600381565b600181565b6060600080610e4161420e565b60008581526002602090815260409182902082518154608093810282018401909452606081018481529093919284928491840182828015610ea157602002820191906000526020600020905b815481526020019060010190808311610e8d575b505050918352505060018201546020808301919091526002909201546040918201528251918301519201519097919650945092505050565b600082826040516020018083600160a060020a0316600160a060020a03166c01000000000000000000000000028152601401828152602001925050506040516020818303038152906040526040518082805190602001908083835b60208310610f535780518252601f199092019160209182019101610f34565b5181516020939093036101000a600019018019909116921691909117905260405192018290039091209695505050505050565b60008383836040516020018084600160a060020a0316600160a060020a03166c0100000000000000000000000002815260140183815260200182805190602001908083835b60208310610fea5780518252601f199092019160209182019101610fcb565b6001836020036101000a03801982511681845116808217855250505050505090500193505050506040516020818303038152906040526040518082805190602001908083835b6020831061104f5780518252601f199092019160209182019101611030565b6001836020036101000a038019825116818451168082178552505050505050905001915050604051809103902090505b9392505050565b6000611090613123565b151561109b57600080fd5b60055460ff16156110ab57600080fd5b6110bd6002858563ffffffff61315516565b156110ca5750600061107f565b6110d5848484613239565b5060019392505050565b6000818152600b602090815260409182902080548351818402810184019094528084526060939283018282801561113657602002820191906000526020600020905b81548152600190910190602001808311611121575b50505050509050919050565b600281565b60075490565b60015481565b600061107f826040805190810160405280601c81526020017f19457468657265756d205369676e6564204d6573736167653a0a333200000000815250856040516020018083805190602001908083835b602083106111c25780518252601f1990920191602091820191016111a3565b51815160209384036101000a600019018019909216911617905292019384525060408051808503815293820190819052835193945092839250908401908083835b602083106112225780518252601f199092019160209182019101611203565b5181516020939093036101000a60001901801990911692169190911790526040519201829003909120939250506132809050565b61125e613123565b151561126957600080fd5b60055460ff16151561127a57600080fd5b6005805460ff191690556040517f730c1faaa977b67dacf1e2451ef54556e04a07d577785ff79f6d31f73502efc990600090a1565b600554600090819060ff16156112c457600080fd5b6113bf878787876040516020018085600160a060020a0316600160a060020a03166c0100000000000000000000000002815260140184815260200183805190602001908083835b6020831061132a5780518252601f19909201916020918201910161130b565b51815160209384036101000a6000190180199092169116179052920193845250604080518085038152938201908190528351939650945084935085019190508083835b6020831061138c5780518252601f19909201916020918201910161136d565b6001836020036101000a038019825116818451168082178552505050505050905001915050604051809103902084611153565b90506113cd81888888613350565b91505b5095945050505050565b60006113e461422e565b600554600090819060ff16156113f957600080fd5b6000858152600a60205260409020600201548590600160a060020a031680151561142257600080fd5b61142a613123565b156114345761150d565b33600160a060020a038216141561144a5761150d565b61146b61145561232d565b600160a060020a0383169063ffffffff61350c16565b156115085780600160a060020a031663d202158d61148833611ea8565b6040805160e060020a63ffffffff85160281526004810192909252600260248301525160448083019260209291908290030181600087803b1580156114cc57600080fd5b505af11580156114e0573d6000803e3d6000fd5b505050506040513d60208110156114f657600080fd5b5051151561150357600080fd5b61150d565b600080fd5b6000878152600a6020908152604091829020825160c0810184528154815260018083015482850152600280840154600160a060020a0316838701526003840180548751601f9482161561010002600019019091169290920492830186900486028201860190965281815291949293606086019391908301828280156115d35780601f106115a8576101008083540402835291602001916115d3565b820191906000526020600020905b8154815290600101906020018083116115b657829003601f168201915b505050918352505060048201805460408051602060026001851615610100026000190190941693909304601f81018490048402820184019092528181529382019392918301828280156116675780601f1061163c57610100808354040283529160200191611667565b820191906000526020600020905b81548152906001019060200180831161164a57829003601f168201915b505050918352505060058201805460408051602060026001851615610100026000190190941693909304601f81018490048402820184019092528181529382019392918301828280156116fb5780601f106116d0576101008083540402835291602001916116fb565b820191906000526020600020905b8154815290600101906020018083116116de57829003601f168201915b505050919092525050506040810151909550600160a060020a0316151561172157600080fd5b6000878152600a6020526040812081815560018101829055600281018054600160a060020a031916905590611759600383018261426e565b61176760048301600061426e565b61177560058301600061426e565b505084516000908152600b60205260408120945092505b835483101561182c57835487908590859081106117a557fe5b6000918252602090912001541415611821578354849060001981019081106117c957fe5b906000526020600020015484848154811015156117e257fe5b60009182526020909120015583548490600019810190811061180057fe5b6000918252602082200155835461181b8560001983016142b5565b5061182c565b60019092019161178c565b600c60008154809291906001900391905055508460400151600160a060020a0316856000015188600019167f3cf57863a89432c61c4a27073c6ee39e8a764bff5a05aebfbcdcdc80b2e6130a886020015189606001518a608001518b60a0015160405180858152602001806020018060200180602001848103845287818151815260200191508051906020019080838360005b838110156118d75781810151838201526020016118bf565b50505050905090810190601f1680156119045780820380516001836020036101000a031916815260200191505b50848103835286518152865160209182019188019080838360005b8381101561193757818101518382015260200161191f565b50505050905090810190601f1680156119645780820380516001836020036101000a031916815260200191505b50848103825285518152855160209182019187019080838360005b8381101561199757818101518382015260200161197f565b50505050905090810190601f1680156119c45780820380516001836020036101000a031916815260200191505b5097505050505050505060405180910390a45060019695505050505050565b6000806119ee613123565b15156119f957600080fd5b60055460ff1615611a0957600080fd5b611a1b6002858563ffffffff61315516565b1515611a2a5760009150611a73565b611a3c6002858563ffffffff6135c316565b6040519091508190849086907f585a4aef50f8267a92b32412b331b20f7f8b96f2245b253b9cc50dcc621d339790600090a4600191505b5092915050565b60055460ff1681565b6000611a8d61422e565b60055460ff1615611a9d57600080fd5b6000838152600a60205260409020600201548390600160a060020a0316801515611ac657600080fd5b611ace613123565b15611ad857611b91565b33600160a060020a0382161415611aee57611b91565b611af961145561232d565b156115085780600160a060020a031663d202158d611b1633611ea8565b6040805160e060020a63ffffffff85160281526004810192909252600260248301525160448083019260209291908290030181600087803b158015611b5a57600080fd5b505af1158015611b6e573d6000803e3d6000fd5b505050506040513d6020811015611b8457600080fd5b50511515611b9157600080fd5b6000858152600a6020908152604091829020825160c0810184528154815260018083015482850152600280840154600160a060020a0316838701526003840180548751601f948216156101000260001901909116929092049283018690048602820186019096528181529194929360608601939190830182828015611c575780601f10611c2c57610100808354040283529160200191611c57565b820191906000526020600020905b815481529060010190602001808311611c3a57829003601f168201915b505050918352505060048201805460408051602060026001851615610100026000190190941693909304601f8101849004840282018401909252818152938201939291830182828015611ceb5780601f10611cc057610100808354040283529160200191611ceb565b820191906000526020600020905b815481529060010190602001808311611cce57829003601f168201915b505050918352505060058201805460408051602060026001851615610100026000190190941693909304601f8101849004840282018401909252818152938201939291830182828015611d7f5780601f10611d5457610100808354040283529160200191611d7f565b820191906000526020600020905b815481529060010190602001808311611d6257829003601f168201915b505050919092525050506040810151909350600160a060020a03161515611da557600080fd5b611dc68360000151846020015185604001518660600151876080015161376e565b1515611ddf57611dd5856113da565b5060009350611de4565b600193505b505050919050565b60086020908152600091825260409182902080546001808301546002808501805488516101009582161595909502600019011691909104601f8101879004870284018701909752868352600160a060020a03909316959094919291830182828015611e985780601f10611e6d57610100808354040283529160200191611e98565b820191906000526020600020905b815481529060010190602001808311611e7b57829003601f168201915b5050505050908060030154905084565b600160a060020a031690565b600960205281600052604060002081815481101515611ecf57fe5b600091825260209091200154600160a060020a03169150829050565b6000611ef5613123565b1515611f0057600080fd5b60055460ff1615611f1057600080fd5b611f2160028663ffffffff6138a516565b1515611f2c57600080fd5b611f4060028686868663ffffffff61393716565b50600195945050505050565b60055460009081908190819060ff1615611f6557600080fd5b851515611f7157600080fd5b60008681526008602052604090208054909350600160a060020a03161515611f9857600080fd5b825460028085018054604080516020601f600019600186161561010002019094169590950492830185900485028101850190915281815261203f943394600160a060020a03909116939192908301828280156120355780601f1061200a57610100808354040283529160200191612035565b820191906000526020600020905b81548152906001019060200180831161201857829003601f168201915b5050505050613980565b50604080518615158152905187917fb3932da477fe5d6c8ff2eafef050c0f3a1af18fc07121001482600f36f3715d8919081900360200190a26000868152600960205260409020915084151561218a575060005b815481101561218157815433908390839081106120ac57fe5b600091825260209091200154600160a060020a03161415612179578154829060001981019081106120d957fe5b6000918252602090912001548254600160a060020a03909116908390839081106120ff57fe5b60009182526020909120018054600160a060020a031916600160a060020a039290921691909117905581548290600019810190811061213a57fe5b60009182526020909120018054600160a060020a031916905581546121638360001983016142b5565b50600383018054600190810190915593506122e2565b600101612093565b600093506122e2565b5060005b81548110156121cf57815433908390839081106121a757fe5b600091825260209091200154600160a060020a031614156121c757600080fd5b60010161218e565b8154600181018355600083815260209020018054600160a060020a03191633179055600383018054600019019081905515156122dd57604080516080810182528454600160a060020a031681526001808601546020808401919091526002808801805486516101009582161595909502600019011691909104601f810183900483028401830186528084526122d6958c95948a9491860193909290918301828280156122bc5780601f10612291576101008083540402835291602001916122bc565b820191906000526020600020905b81548152906001019060200180831161229f57829003601f168201915b505050505081526020016003820154815250506001613b31565b93506122e2565b600193505b50505092915050565b6000838152600260209081526040808320600160a060020a03861684526003018252808320600160e060020a03198516845290915290205460ff169392505050565b7fdc3d2a7b0000000000000000000000000000000000000000000000000000000090565b612359613123565b151561236457600080fd5b60055460ff161561237457600080fd5b6005805460ff191660011790556040517f4b314b34e912fda7f95e7d23e9c8c95f82f0aff1984e4ce592a0b005f905562490600090a1565b6000818152600360209081526040918290208054835181840281018401909452808452606093928301828280156111365760200282019190600052602060002090815481526001909101906020018083116111215750505050509050919050565b600481565b60005481565b60075481565b600881565b60055460009081908190819060ff161561243c57600080fd5b6124498a8a8a8a8a61376e565b151561245457600080fd5b61245c613123565b92508215156126aa576040517fb61d27f600000000000000000000000000000000000000000000000000000000815230600482018181526000602484018190526060604485019081523660648601819052939463b61d27f694869484939192909190608401848480828437820191505095505050505050602060405180830381600087803b1580156124ed57600080fd5b505af1158015612501573d6000803e3d6000fd5b505050506040513d602081101561251757600080fd5b8101908080519060200190929190505050935087600160a060020a03168a857fe6b6db97dedfb44cbced367387e40b3f92dbee1b1be87f9367f7b673532b0d698c8b8b8b60405180858152602001806020018060200180602001848103845287818151815260200191508051906020019080838360005b838110156125a657818101518382015260200161258e565b50505050905090810190601f1680156125d35780820380516001836020036101000a031916815260200191505b50848103835286518152865160209182019188019080838360005b838110156126065781810151838201526020016125ee565b50505050905090810190601f1680156126335780820380516001836020036101000a031916815260200191505b50848103825285518152855160209182019187019080838360005b8381101561266657818101518382015260200161264e565b50505050905090810190601f1680156126935780820380516001836020036101000a031916815260200191505b5097505050505050505060405180910390a46128c7565b6126b4888b610ed9565b6000818152600a6020526040902060020154909250600160a060020a031615156126ec576126e7828b8b8b8b8b8b613db3565b6128c7565b506000818152600a60209081526040909120600181018a90558751909161271a9160038401918a01906142de565b50855161273090600483019060208901906142de565b50845161274690600583019060208801906142de565b5087600160a060020a03168a83600019167f3bab293fc00db832d7619a9299914251b8747c036867ec056cbd506f60135b138c8b8b8b60405180858152602001806020018060200180602001848103845287818151815260200191508051906020019080838360005b838110156127c75781810151838201526020016127af565b50505050905090810190601f1680156127f45780820380516001836020036101000a031916815260200191505b50848103835286518152865160209182019188019080838360005b8381101561282757818101518382015260200161280f565b50505050905090810190601f1680156128545780820380516001836020036101000a031916815260200191505b50848103825285518152855160209182019187019080838360005b8381101561288757818101518382015260200161286f565b50505050905090810190601f1680156128b45780820380516001836020036101000a031916815260200191505b5097505050505050505060405180910390a45b5050509695505050505050565b600581565b60055460009060ff16156128ec57600080fd5b6128f833858585613350565b949350505050565b600781565b7f107653790000000000000000000000000000000000000000000000000000000090565b600080805b6004811015611a735780600802848281518110151561294957fe5b60209101015160029190910a7f0100000000000000000000000000000000000000000000000000000000000000918290049091027fff000000000000000000000000000000000000000000000000000000000000001604919091179060010161292e565b600080600060608060606129bf61422e565b6000888152600a6020908152604091829020825160c0810184528154815260018083015482850152600280840154600160a060020a0316838701526003840180548751601f948216156101000260001901909116929092049283018690048602820186019096528181529194929360608601939190830182828015612a855780601f10612a5a57610100808354040283529160200191612a85565b820191906000526020600020905b815481529060010190602001808311612a6857829003601f168201915b505050918352505060048201805460408051602060026001851615610100026000190190941693909304601f8101849004840282018401909252818152938201939291830182828015612b195780601f10612aee57610100808354040283529160200191612b19565b820191906000526020600020905b815481529060010190602001808311612afc57829003601f168201915b505050918352505060058201805460408051602060026001851615610100026000190190941693909304601f8101849004840282018401909252818152938201939291830182828015612bad5780601f10612b8257610100808354040283529160200191612bad565b820191906000526020600020905b815481529060010190602001808311612b9057829003601f168201915b505050919092525050506040810151909150600160a060020a03161515612bd357600080fd5b8051602082015160408301516060840151608085015160a090950151939c929b5090995097509195509350915050565b60045490565b60055460009060ff1615612c1c57600080fd5b612c24613123565b1515612c2f57600080fd5b60008211612c3c57600080fd5b612c4660016123ac565b51905080821115612c5657600080fd5b50600055565b600061107f6002848463ffffffff61315516565b60055460009081908190819060ff1615612c8957600080fd5b612c968b8b8b8b8b61376e565b1515612ca157600080fd5b612e3a8b8b8b8b8b8b6040516020018087815260200186815260200185600160a060020a0316600160a060020a03166c0100000000000000000000000002815260140184805190602001908083835b60208310612d0f5780518252601f199092019160209182019101612cf0565b51815160209384036101000a600019018019909216911617905286519190930192860191508083835b60208310612d575780518252601f199092019160209182019101612d38565b51815160209384036101000a600019018019909216911617905285519190930192850191508083835b60208310612d9f5780518252601f199092019160209182019101612d80565b6001836020036101000a03801982511681845116808217855250505050505090500196505050505050506040516020818303038152906040526040518082805190602001908083835b60208310612e075780518252601f199092019160209182019101612de8565b6001836020036101000a038019825116818451168082178552505050505050905001915050604051809103902086611153565b9250612e58612e4884611ea8565b600290600163ffffffff61315516565b1515612e6357600080fd5b612e6d898c610ed9565b6000818152600a6020526040902060020154909250600160a060020a03161515612ea557612ea0828c8c8c8c8c8c613db3565b613080565b506000818152600a60209081526040909120600181018b905588519091612ed39160038401918b01906142de565b508651612ee990600483019060208a01906142de565b508551612eff90600583019060208901906142de565b5088600160a060020a03168b83600019167f3bab293fc00db832d7619a9299914251b8747c036867ec056cbd506f60135b138d8c8c8c60405180858152602001806020018060200180602001848103845287818151815260200191508051906020019080838360005b83811015612f80578181015183820152602001612f68565b50505050905090810190601f168015612fad5780820380516001836020036101000a031916815260200191505b50848103835286518152865160209182019188019080838360005b83811015612fe0578181015183820152602001612fc8565b50505050905090810190601f16801561300d5780820380516001836020036101000a031916815260200191505b50848103825285518152855160209182019187019080838360005b83811015613040578181015183820152602001613028565b50505050905090810190601f16801561306d5780820380516001836020036101000a031916815260200191505b5097505050505050505060405180910390a45b5060019a9950505050505050505050565b60055460009060ff16156130a457600080fd5b6130ac613123565b15156130b757600080fd5b600082116130c457600080fd5b6130ce60026123ac565b519050808211156130de57600080fd5b50600155565b600681565b6130f1613123565b15156130fc57600080fd5b600160a060020a038116151561311157600080fd5b80600160a060020a0316ff5b600c5481565b60003330141561313557506001610e27565b60005460011461314457600080fd5b613150612e4833611ea8565b905090565b600061315f61420e565b60008481526020868152604080832081518154608094810282018501909352606081018381529093919284928491908401828280156131bd57602002820191906000526020600020905b8154815260200190600101908083116131a9575b50505091835250506001820154602082015260029091015460409182015281015190925015156131f05760009250613230565b5060005b81515181101561323057815180518591908390811061320f57fe5b9060200190602002015114156132285760019250613230565b6001016131f4565b50509392505050565b61324c600284848463ffffffff61402b16565b6040518190839085907f480000bb1edad8ca1470381cc334b1917fbd51c6531f3a623ea8e0ec7e38a6e990600090a4505050565b6000806000808451604114151561329a57600093506122e2565b50505060208201516040830151606084015160001a601b60ff821610156132bf57601b015b8060ff16601b141580156132d757508060ff16601c14155b156132e557600093506122e2565b60408051600080825260208083018085528a905260ff8516838501526060830187905260808301869052925160019360a0808501949193601f19840193928390039091019190865af115801561333f573d6000803e3d6000fd5b5050506020604051035193506122e2565b60008061335b61435c565b613366878786613980565b91506133773087878760075461409c565b92508486600160a060020a0316847f8afcfabcb00e47a53a8fc3e9f23ff47ee1926194bb1350dd007c50b412a6cee8876040518080602001828103825283818151815260200191508051906020019080838360005b838110156133e45781810151838201526020016133cc565b50505050905090810190601f1680156134115780820380516001836020036101000a031916815260200191505b509250505060405180910390a45060078054600101905560408051608081018252600160a060020a0387168152602081018690529081018490526060810182905281151561346b5761346583826000613b31565b50613502565b60008381526008602090815260409182902083518154600160a060020a031916600160a060020a039091161781558382015160018201559183015180518493926134bc9260028501929101906142de565b50606091909101516003909101556000838152600960209081526040822080546001810182559083529120018054600160a060020a031916600160a060020a0389161790555b5050949350505050565b6000808061353a857f01ffc9a7000000000000000000000000000000000000000000000000000000006141c2565b909250905081158061354a575080155b1561355857600092506135bb565b61356a85600160e060020a03196141c2565b909250905081158061357b57508015155b1561358957600092506135bb565b61359385856141c2565b90925090506001821480156135a85750806001145b156135b657600192506135bb565b600092505b505092915050565b6000828152602084905260408120600181015491805b8254821015613683578483838154811015156135f157fe5b906000526020600020015414156136785782548390600019810190811061361457fe5b9060005260206000200154838381548110151561362d57fe5b60009182526020909120015582548390600019810190811061364b57fe5b600091825260208220015582546136668460001983016142b5565b50600287018054600019019055613683565b6001909101906135d9565b825415156136b5576000868152602088905260408120906136a4828261438e565b506000600182018190556002909101555b5050600083815260018601602052604081205b805482101561376457805486908290849081106136e157fe5b60009182526020909120015414156137595780548190600019810190811061370557fe5b9060005260206000200154818381548110151561371e57fe5b60009182526020909120015580548190600019810190811061373c57fe5b600091825260208220015580546137578260001983016142b5565b505b6001909101906136c8565b5050509392505050565b600080600186141561389c5761378e613788308986610f86565b85611153565b905080600160a060020a031685600160a060020a031614156137b357600191506113d0565b600160a060020a0385163014156137e7576137e06137d082611ea8565b600290600363ffffffff61315516565b91506113d0565b6138086137f261232d565b600160a060020a0387169063ffffffff61350c16565b1561389c5784600160a060020a031663d202158d61382583611ea8565b6040805160e060020a63ffffffff85160281526004810192909252600360248301525160448083019260209291908290030181600087803b15801561386957600080fd5b505af115801561387d573d6000803e3d6000fd5b505050506040513d602081101561389357600080fd5b505191506113d0565b600091506113d0565b60006138af61420e565b600083815260208581526040918290208251815460809381028201840190945260608101848152909391928492849184018282801561390d57602002820191906000526020600020905b8154815260200190600101908083116138f9575b50505091835250506001820154602082015260029091015460409182015201511515949350505050565b600093845260209485526040808520600160a060020a0394909416855260039093018552828420600160e060020a031992909216845293529020805460ff191682151517905590565b6000600160a060020a038316301415613a2b57600160a060020a0384163014156139ad5750600054613a26565b6139b9612e4885611ea8565b80613a1857506139db6139cb85611ea8565b600290600763ffffffff61315516565b8015613a1857507f1d38124000000000000000000000000000000000000000000000000000000000613a0c83612929565b600160e060020a031916145b156115085750600054600019015b61107f565b600160a060020a0383161515613a4057600080fd5b600160a060020a038416301415613a5a575060015461107f565b613a75613a6685611ea8565b6002908163ffffffff61315516565b80613a975750613a97613a8785611ea8565b600290600663ffffffff61315516565b80613b1f5750613ab9613aa985611ea8565b600290600863ffffffff61315516565b8015613b1f575060026000613acd86611ea8565b815260208082019290925260409081016000908120600160a060020a0387168252600301909252812090613b0084612929565b600160e060020a031916815260208101919091526040016000205460ff165b1561150857506001546000190161107f565b81516000908190600160a060020a03161515613b4c57600080fd5b8360000151600160a060020a03168460200151856040015160405180828051906020019080838360005b83811015613b8e578181015183820152602001613b76565b50505050905090810190601f168015613bbb5780820380516001836020036101000a031916815260200191505b5091505060006040518083038185875af1925050509050801515613c935783602001518460000151600160a060020a0316867fe10c49d9f7c71da23262367013434763cfdb2332267641728d25cd712c5c6a6887604001516040518080602001828103825283818151815260200191508051906020019080838360005b83811015613c50578181015183820152602001613c38565b50505050905090810190601f168015613c7d5780820380516001836020036101000a031916815260200191505b509250505060405180910390a460009150613dab565b83602001518460000151600160a060020a0316867f1f920dbda597d7bf95035464170fa58d0a4b57f13a1c315ace6793b9f63688b887604001516040518080602001828103825283818151815260200191508051906020019080838360005b83811015613d0a578181015183820152602001613cf2565b50505050905090810190601f168015613d375780820380516001836020036101000a031916815260200191505b509250505060405180910390a4821515613d545760019150613dab565b60008581526008602052604081208054600160a060020a03191681556001810182905590613d85600283018261426e565b506000600391909101819055858152600960205260408120613da69161438e565b600191505b509392505050565b6040805160c0810182528781526020808201888152600160a060020a03888116848601908152606085018981526080860189905260a0860188905260008e8152600a865296909620855181559251600184015551600283018054600160a060020a0319169190921617905592518051929392613e3592600385019201906142de565b5060808201518051613e519160048401916020909101906142de565b5060a08201518051613e6d9160058401916020909101906142de565b5050506000868152600b60209081526040808320805460018181018355918552838520018b9055600c80549091019055805188815260808184018181528851918301919091528751600160a060020a038a16958c958e957f46149b18aa084502c3f12bc75e19eda8bda8d102b82cce8474677a6d0d5f43c5958e958d958d958d959394929392850192606086019260a0870192918a01918190849084905b83811015613f23578181015183820152602001613f0b565b50505050905090810190601f168015613f505780820380516001836020036101000a031916815260200191505b50848103835286518152865160209182019188019080838360005b83811015613f83578181015183820152602001613f6b565b50505050905090810190601f168015613fb05780820380516001836020036101000a031916815260200191505b50848103825285518152855160209182019187019080838360005b83811015613fe3578181015183820152602001613fcb565b50505050905090810190601f1680156140105780820380516001836020036101000a031916815260200191505b5097505050505050505060405180910390a450505050505050565b600083815260208581526040822080546001810182558184529190922001839055600281015415156140665760028101849055600181018290555b50506000908152600180840160209081526040832080548084018255908452922090910191909155600290910180549091019055565b600085858585856040516020018086600160a060020a0316600160a060020a03166c0100000000000000000000000002815260140185600160a060020a0316600160a060020a03166c0100000000000000000000000002815260140184815260200183805190602001908083835b602083106141295780518252601f19909201916020918201910161410a565b51815160209384036101000a600019018019909216911617905292019384525060408051808503815293820190819052835193975095508594508601925081905083835b6020831061418c5780518252601f19909201916020918201910161416d565b5181516020939093036101000a600019018019909116921691909117905260405192018290039091209998505050505050505050565b6040517f01ffc9a70000000000000000000000000000000000000000000000000000000080825260048201839052600091829190602081818189617530fa905190969095509350505050565b604080516060818101835281526000602082018190529181019190915290565b60c06040519081016040528060008152602001600081526020016000600160a060020a031681526020016060815260200160608152602001606081525090565b50805460018160011615610100020316600290046000825580601f1061429457506142b2565b601f0160209004906000526020600020908101906142b291906143a8565b50565b8154818355818111156142d9576000838152602090206142d99181019083016143a8565b505050565b828054600181600116156101000203166002900490600052602060002090601f016020900481019282601f1061431f57805160ff191683800117855561434c565b8280016001018555821561434c579182015b8281111561434c578251825591602001919060010190614331565b506143589291506143a8565b5090565b6080604051908101604052806000600160a060020a031681526020016000815260200160608152602001600081525090565b50805460008255906000526020600020908101906142b291905b610e2791905b8082111561435857600081556001016143ae5600a165627a7a72305820ef0a589f458eb9e4f571d329432367e2469399d9866588dac924f6958c5ae4490029",
  "source": "pragma solidity ^0.4.24;\n\nimport \"./Destructible.sol\";\nimport \"./ERC735.sol\";\nimport \"./KeyGetters.sol\";\nimport \"./KeyManager.sol\";\nimport \"./MultiSig.sol\";\nimport \"./ClaimManager.sol\";\nimport \"./Slice.sol\";\n\n/// @title MetaIdentity\n/// @author Metadium, genie\n/// @notice Identity contract implementing ERC 725, ERC 735 and Metadium features.\n\ncontract MetaIdentity is KeyManager, MultiSig, ClaimManager, Destructible, KeyGetters {\n    using Slice for bytes;\n    using Slice for string;\n\n    /// @dev Constructor for Identity contract. If no initial keys are passed then\n    ///  `msg.sender` is used as an initial MANAGEMENT_KEY, ACTION_KEY and CLAIM_SIGNER_KEY\n    constructor(address _managementKey)\n    public {\n\n        bytes32 senderKey = addrToKey(_managementKey);\n        \n        // Add key that deployed the contract for MANAGEMENT, ACTION, CLAIM\n        _addKey(senderKey, MANAGEMENT_KEY, ECDSA_TYPE);\n        _addKey(senderKey, ACTION_KEY, ECDSA_TYPE);\n        _addKey(senderKey, CLAIM_SIGNER_KEY, ECDSA_TYPE);\n        \n        managementThreshold = 1;\n        actionThreshold = 1;\n\n        // Supports both ERC 725 & 735\n        supportedInterfaces[ERC725ID() ^ ERC735ID()] = true;\n    }\n\n    // Fallback function accepts Ether transactions\n    // solhint-disable-next-line no-empty-blocks\n    function () external payable {\n    }\n\n}",
  "sourcePath": "/Users/coinplug/BangGijin/metabolics2.0/contracts/identity/MetaIdentity.sol",
  "compiler": {
    "name": "solc",
    "version": "0.4.24+commit.e67f0147.Emscripten.clang"
  },
  "schemaVersion": "2.0.1",
  "updatedAt": "2018-10-29T09:34:49.826Z"
}