{
  "contractName": "MetaIdentityLib",
  "abi": [
    {
      "constant": true,
      "inputs": [
        {
          "name": "interfaceID",
          "type": "bytes4"
        }
      ],
      "name": "supportsInterface",
      "outputs": [
        {
          "name": "",
          "type": "bool"
        }
      ],
      "payable": false,
      "stateMutability": "view",
      "type": "function"
    },
    {
      "constant": true,
      "inputs": [],
      "name": "ERC165ID",
      "outputs": [
        {
          "name": "",
          "type": "bytes4"
        }
      ],
      "payable": false,
      "stateMutability": "pure",
      "type": "function"
    },
    {
      "constant": true,
      "inputs": [],
      "name": "REGISTRY_TOPIC",
      "outputs": [
        {
          "name": "",
          "type": "uint256"
        }
      ],
      "payable": false,
      "stateMutability": "view",
      "type": "function"
    },
    {
      "constant": true,
      "inputs": [],
      "name": "MANAGEMENT_KEY",
      "outputs": [
        {
          "name": "",
          "type": "uint256"
        }
      ],
      "payable": false,
      "stateMutability": "view",
      "type": "function"
    },
    {
      "constant": true,
      "inputs": [
        {
          "name": "_key",
          "type": "bytes32"
        }
      ],
      "name": "getKey",
      "outputs": [
        {
          "name": "purposes",
          "type": "uint256[]"
        },
        {
          "name": "keyType",
          "type": "uint256"
        },
        {
          "name": "key",
          "type": "bytes32"
        }
      ],
      "payable": false,
      "stateMutability": "view",
      "type": "function"
    },
    {
      "constant": true,
      "inputs": [
        {
          "name": "issuer",
          "type": "address"
        },
        {
          "name": "topic",
          "type": "uint256"
        }
      ],
      "name": "getClaimId",
      "outputs": [
        {
          "name": "",
          "type": "bytes32"
        }
      ],
      "payable": false,
      "stateMutability": "pure",
      "type": "function"
    },
    {
      "constant": true,
      "inputs": [
        {
          "name": "subject",
          "type": "address"
        },
        {
          "name": "topic",
          "type": "uint256"
        },
        {
          "name": "data",
          "type": "bytes"
        }
      ],
      "name": "claimToSign",
      "outputs": [
        {
          "name": "",
          "type": "bytes32"
        }
      ],
      "payable": false,
      "stateMutability": "pure",
      "type": "function"
    },
    {
      "constant": false,
      "inputs": [
        {
          "name": "_key",
          "type": "bytes32"
        },
        {
          "name": "_purpose",
          "type": "uint256"
        },
        {
          "name": "_keyType",
          "type": "uint256"
        }
      ],
      "name": "addKey",
      "outputs": [
        {
          "name": "success",
          "type": "bool"
        }
      ],
      "payable": false,
      "stateMutability": "nonpayable",
      "type": "function"
    },
    {
      "constant": true,
      "inputs": [
        {
          "name": "_claimId",
          "type": "bytes32"
        }
      ],
      "name": "isClaimExist",
      "outputs": [
        {
          "name": "",
          "type": "bool"
        }
      ],
      "payable": false,
      "stateMutability": "view",
      "type": "function"
    },
    {
      "constant": true,
      "inputs": [],
      "name": "CONTRACT_SCHEME",
      "outputs": [
        {
          "name": "",
          "type": "uint256"
        }
      ],
      "payable": false,
      "stateMutability": "view",
      "type": "function"
    },
    {
      "constant": true,
      "inputs": [
        {
          "name": "_topic",
          "type": "uint256"
        }
      ],
      "name": "getClaimIdsByType",
      "outputs": [
        {
          "name": "claimIds",
          "type": "bytes32[]"
        }
      ],
      "payable": false,
      "stateMutability": "view",
      "type": "function"
    },
    {
      "constant": true,
      "inputs": [],
      "name": "RSA_TYPE",
      "outputs": [
        {
          "name": "",
          "type": "uint256"
        }
      ],
      "payable": false,
      "stateMutability": "view",
      "type": "function"
    },
    {
      "constant": true,
      "inputs": [],
      "name": "getTransactionCount",
      "outputs": [
        {
          "name": "",
          "type": "uint256"
        }
      ],
      "payable": false,
      "stateMutability": "view",
      "type": "function"
    },
    {
      "constant": true,
      "inputs": [],
      "name": "actionThreshold",
      "outputs": [
        {
          "name": "",
          "type": "uint256"
        }
      ],
      "payable": false,
      "stateMutability": "view",
      "type": "function"
    },
    {
      "constant": true,
      "inputs": [
        {
          "name": "toSign",
          "type": "bytes32"
        },
        {
          "name": "signature",
          "type": "bytes"
        }
      ],
      "name": "getSignatureAddress",
      "outputs": [
        {
          "name": "",
          "type": "address"
        }
      ],
      "payable": false,
      "stateMutability": "pure",
      "type": "function"
    },
    {
      "constant": false,
      "inputs": [],
      "name": "unpause",
      "outputs": [],
      "payable": false,
      "stateMutability": "nonpayable",
      "type": "function"
    },
    {
      "constant": true,
      "inputs": [],
      "name": "ECDSA_TYPE",
      "outputs": [
        {
          "name": "",
          "type": "uint256"
        }
      ],
      "payable": false,
      "stateMutability": "view",
      "type": "function"
    },
    {
      "constant": false,
      "inputs": [
        {
          "name": "_to",
          "type": "address"
        },
        {
          "name": "_value",
          "type": "uint256"
        },
        {
          "name": "_data",
          "type": "bytes"
        },
        {
          "name": "_nonce",
          "type": "uint256"
        },
        {
          "name": "_sig",
          "type": "bytes"
        }
      ],
      "name": "delegatedExecute",
      "outputs": [
        {
          "name": "executionId",
          "type": "uint256"
        }
      ],
      "payable": false,
      "stateMutability": "nonpayable",
      "type": "function"
    },
    {
      "constant": false,
      "inputs": [
        {
          "name": "_claimId",
          "type": "bytes32"
        }
      ],
      "name": "removeClaim",
      "outputs": [
        {
          "name": "success",
          "type": "bool"
        }
      ],
      "payable": false,
      "stateMutability": "nonpayable",
      "type": "function"
    },
    {
      "constant": false,
      "inputs": [
        {
          "name": "_key",
          "type": "bytes32"
        },
        {
          "name": "_purpose",
          "type": "uint256"
        }
      ],
      "name": "removeKey",
      "outputs": [
        {
          "name": "success",
          "type": "bool"
        }
      ],
      "payable": false,
      "stateMutability": "nonpayable",
      "type": "function"
    },
    {
      "constant": true,
      "inputs": [],
      "name": "paused",
      "outputs": [
        {
          "name": "",
          "type": "bool"
        }
      ],
      "payable": false,
      "stateMutability": "view",
      "type": "function"
    },
    {
      "constant": false,
      "inputs": [
        {
          "name": "_claimId",
          "type": "bytes32"
        }
      ],
      "name": "refreshClaim",
      "outputs": [
        {
          "name": "",
          "type": "bool"
        }
      ],
      "payable": false,
      "stateMutability": "nonpayable",
      "type": "function"
    },
    {
      "constant": true,
      "inputs": [
        {
          "name": "",
          "type": "uint256"
        }
      ],
      "name": "execution",
      "outputs": [
        {
          "name": "to",
          "type": "address"
        },
        {
          "name": "value",
          "type": "uint256"
        },
        {
          "name": "data",
          "type": "bytes"
        },
        {
          "name": "needsApprove",
          "type": "uint256"
        }
      ],
      "payable": false,
      "stateMutability": "view",
      "type": "function"
    },
    {
      "constant": true,
      "inputs": [
        {
          "name": "addr",
          "type": "address"
        }
      ],
      "name": "addrToKey",
      "outputs": [
        {
          "name": "",
          "type": "bytes32"
        }
      ],
      "payable": false,
      "stateMutability": "pure",
      "type": "function"
    },
    {
      "constant": true,
      "inputs": [
        {
          "name": "",
          "type": "uint256"
        },
        {
          "name": "",
          "type": "uint256"
        }
      ],
      "name": "approved",
      "outputs": [
        {
          "name": "",
          "type": "address"
        }
      ],
      "payable": false,
      "stateMutability": "view",
      "type": "function"
    },
    {
      "constant": true,
      "inputs": [],
      "name": "METAID_TOPIC",
      "outputs": [
        {
          "name": "",
          "type": "uint256"
        }
      ],
      "payable": false,
      "stateMutability": "view",
      "type": "function"
    },
    {
      "constant": false,
      "inputs": [
        {
          "name": "_key",
          "type": "bytes32"
        },
        {
          "name": "_to",
          "type": "address"
        },
        {
          "name": "_func",
          "type": "bytes4"
        },
        {
          "name": "_executable",
          "type": "bool"
        }
      ],
      "name": "setFunc",
      "outputs": [
        {
          "name": "success",
          "type": "bool"
        }
      ],
      "payable": false,
      "stateMutability": "nonpayable",
      "type": "function"
    },
    {
      "constant": false,
      "inputs": [
        {
          "name": "_id",
          "type": "uint256"
        },
        {
          "name": "_approve",
          "type": "bool"
        }
      ],
      "name": "approve",
      "outputs": [
        {
          "name": "success",
          "type": "bool"
        }
      ],
      "payable": false,
      "stateMutability": "nonpayable",
      "type": "function"
    },
    {
      "constant": true,
      "inputs": [],
      "name": "ACTION_KEY",
      "outputs": [
        {
          "name": "",
          "type": "uint256"
        }
      ],
      "payable": false,
      "stateMutability": "view",
      "type": "function"
    },
    {
      "constant": true,
      "inputs": [
        {
          "name": "_key",
          "type": "bytes32"
        },
        {
          "name": "_to",
          "type": "address"
        },
        {
          "name": "_func",
          "type": "bytes4"
        }
      ],
      "name": "keyCanExecute",
      "outputs": [
        {
          "name": "executable",
          "type": "bool"
        }
      ],
      "payable": false,
      "stateMutability": "view",
      "type": "function"
    },
    {
      "constant": true,
      "inputs": [],
      "name": "ERC725ID",
      "outputs": [
        {
          "name": "",
          "type": "bytes4"
        }
      ],
      "payable": false,
      "stateMutability": "pure",
      "type": "function"
    },
    {
      "constant": true,
      "inputs": [],
      "name": "ECDSA_SCHEME",
      "outputs": [
        {
          "name": "",
          "type": "uint256"
        }
      ],
      "payable": false,
      "stateMutability": "view",
      "type": "function"
    },
    {
      "constant": false,
      "inputs": [],
      "name": "pause",
      "outputs": [],
      "payable": false,
      "stateMutability": "nonpayable",
      "type": "function"
    },
    {
      "constant": true,
      "inputs": [
        {
          "name": "_purpose",
          "type": "uint256"
        }
      ],
      "name": "getKeysByPurpose",
      "outputs": [
        {
          "name": "keys",
          "type": "bytes32[]"
        }
      ],
      "payable": false,
      "stateMutability": "view",
      "type": "function"
    },
    {
      "constant": true,
      "inputs": [],
      "name": "ENCRYPTION_KEY",
      "outputs": [
        {
          "name": "",
          "type": "uint256"
        }
      ],
      "payable": false,
      "stateMutability": "view",
      "type": "function"
    },
    {
      "constant": true,
      "inputs": [],
      "name": "RESIDENCE_TOPIC",
      "outputs": [
        {
          "name": "",
          "type": "uint256"
        }
      ],
      "payable": false,
      "stateMutability": "view",
      "type": "function"
    },
    {
      "constant": true,
      "inputs": [],
      "name": "managementThreshold",
      "outputs": [
        {
          "name": "",
          "type": "uint256"
        }
      ],
      "payable": false,
      "stateMutability": "view",
      "type": "function"
    },
    {
      "constant": true,
      "inputs": [],
      "name": "PROFILE_TOPIC",
      "outputs": [
        {
          "name": "",
          "type": "uint256"
        }
      ],
      "payable": false,
      "stateMutability": "view",
      "type": "function"
    },
    {
      "constant": true,
      "inputs": [],
      "name": "nonce",
      "outputs": [
        {
          "name": "",
          "type": "uint256"
        }
      ],
      "payable": false,
      "stateMutability": "view",
      "type": "function"
    },
    {
      "constant": true,
      "inputs": [],
      "name": "CUSTOM_KEY",
      "outputs": [
        {
          "name": "",
          "type": "uint256"
        }
      ],
      "payable": false,
      "stateMutability": "view",
      "type": "function"
    },
    {
      "constant": false,
      "inputs": [
        {
          "name": "_topic",
          "type": "uint256"
        },
        {
          "name": "_scheme",
          "type": "uint256"
        },
        {
          "name": "issuer",
          "type": "address"
        },
        {
          "name": "_signature",
          "type": "bytes"
        },
        {
          "name": "_data",
          "type": "bytes"
        },
        {
          "name": "_uri",
          "type": "string"
        }
      ],
      "name": "addClaim",
      "outputs": [
        {
          "name": "claimRequestId",
          "type": "uint256"
        }
      ],
      "payable": false,
      "stateMutability": "nonpayable",
      "type": "function"
    },
    {
      "constant": true,
      "inputs": [],
      "name": "LABEL_TOPIC",
      "outputs": [
        {
          "name": "",
          "type": "uint256"
        }
      ],
      "payable": false,
      "stateMutability": "view",
      "type": "function"
    },
    {
      "constant": false,
      "inputs": [
        {
          "name": "_to",
          "type": "address"
        },
        {
          "name": "_value",
          "type": "uint256"
        },
        {
          "name": "_data",
          "type": "bytes"
        }
      ],
      "name": "execute",
      "outputs": [
        {
          "name": "executionId",
          "type": "uint256"
        }
      ],
      "payable": false,
      "stateMutability": "nonpayable",
      "type": "function"
    },
    {
      "constant": true,
      "inputs": [],
      "name": "RESTORE_KEY",
      "outputs": [
        {
          "name": "",
          "type": "uint256"
        }
      ],
      "payable": false,
      "stateMutability": "view",
      "type": "function"
    },
    {
      "constant": true,
      "inputs": [],
      "name": "ERC735ID",
      "outputs": [
        {
          "name": "",
          "type": "bytes4"
        }
      ],
      "payable": false,
      "stateMutability": "pure",
      "type": "function"
    },
    {
      "constant": true,
      "inputs": [
        {
          "name": "b",
          "type": "bytes"
        }
      ],
      "name": "getFunctionSignature",
      "outputs": [
        {
          "name": "",
          "type": "bytes4"
        }
      ],
      "payable": false,
      "stateMutability": "pure",
      "type": "function"
    },
    {
      "constant": true,
      "inputs": [],
      "name": "CLAIM_SIGNER_KEY",
      "outputs": [
        {
          "name": "",
          "type": "uint256"
        }
      ],
      "payable": false,
      "stateMutability": "view",
      "type": "function"
    },
    {
      "constant": true,
      "inputs": [
        {
          "name": "_claimId",
          "type": "bytes32"
        }
      ],
      "name": "getClaim",
      "outputs": [
        {
          "name": "topic",
          "type": "uint256"
        },
        {
          "name": "scheme",
          "type": "uint256"
        },
        {
          "name": "issuer",
          "type": "address"
        },
        {
          "name": "signature",
          "type": "bytes"
        },
        {
          "name": "data",
          "type": "bytes"
        },
        {
          "name": "uri",
          "type": "string"
        }
      ],
      "payable": false,
      "stateMutability": "view",
      "type": "function"
    },
    {
      "constant": true,
      "inputs": [],
      "name": "numKeys",
      "outputs": [
        {
          "name": "",
          "type": "uint256"
        }
      ],
      "payable": false,
      "stateMutability": "view",
      "type": "function"
    },
    {
      "constant": false,
      "inputs": [
        {
          "name": "threshold",
          "type": "uint256"
        }
      ],
      "name": "changeManagementThreshold",
      "outputs": [],
      "payable": false,
      "stateMutability": "nonpayable",
      "type": "function"
    },
    {
      "constant": true,
      "inputs": [
        {
          "name": "_key",
          "type": "bytes32"
        },
        {
          "name": "purpose",
          "type": "uint256"
        }
      ],
      "name": "keyHasPurpose",
      "outputs": [
        {
          "name": "exists",
          "type": "bool"
        }
      ],
      "payable": false,
      "stateMutability": "view",
      "type": "function"
    },
    {
      "constant": true,
      "inputs": [],
      "name": "ASSIST_KEY",
      "outputs": [
        {
          "name": "",
          "type": "uint256"
        }
      ],
      "payable": false,
      "stateMutability": "view",
      "type": "function"
    },
    {
      "constant": false,
      "inputs": [
        {
          "name": "_topic",
          "type": "uint256"
        },
        {
          "name": "_scheme",
          "type": "uint256"
        },
        {
          "name": "issuer",
          "type": "address"
        },
        {
          "name": "_signature",
          "type": "bytes"
        },
        {
          "name": "_data",
          "type": "bytes"
        },
        {
          "name": "_uri",
          "type": "string"
        },
        {
          "name": "_idSignature",
          "type": "bytes"
        }
      ],
      "name": "addClaimByProxy",
      "outputs": [
        {
          "name": "success",
          "type": "bool"
        }
      ],
      "payable": false,
      "stateMutability": "nonpayable",
      "type": "function"
    },
    {
      "constant": false,
      "inputs": [
        {
          "name": "_id",
          "type": "uint256"
        },
        {
          "name": "_approve",
          "type": "bool"
        },
        {
          "name": "_nonce",
          "type": "uint256"
        },
        {
          "name": "_sig",
          "type": "bytes"
        }
      ],
      "name": "delegatedApprove",
      "outputs": [
        {
          "name": "success",
          "type": "bool"
        }
      ],
      "payable": false,
      "stateMutability": "nonpayable",
      "type": "function"
    },
    {
      "constant": false,
      "inputs": [
        {
          "name": "threshold",
          "type": "uint256"
        }
      ],
      "name": "changeActionThreshold",
      "outputs": [],
      "payable": false,
      "stateMutability": "nonpayable",
      "type": "function"
    },
    {
      "constant": true,
      "inputs": [],
      "name": "DELEGATE_KEY",
      "outputs": [
        {
          "name": "",
          "type": "uint256"
        }
      ],
      "payable": false,
      "stateMutability": "view",
      "type": "function"
    },
    {
      "constant": true,
      "inputs": [],
      "name": "RSA_SCHEME",
      "outputs": [
        {
          "name": "",
          "type": "uint256"
        }
      ],
      "payable": false,
      "stateMutability": "view",
      "type": "function"
    },
    {
      "constant": false,
      "inputs": [
        {
          "name": "_recipient",
          "type": "address"
        }
      ],
      "name": "destroyAndSend",
      "outputs": [],
      "payable": false,
      "stateMutability": "nonpayable",
      "type": "function"
    },
    {
      "constant": true,
      "inputs": [],
      "name": "numClaims",
      "outputs": [
        {
          "name": "",
          "type": "uint256"
        }
      ],
      "payable": false,
      "stateMutability": "view",
      "type": "function"
    },
    {
      "payable": true,
      "stateMutability": "payable",
      "type": "fallback"
    },
    {
      "anonymous": false,
      "inputs": [
        {
          "indexed": true,
          "name": "claimRequestId",
          "type": "uint256"
        },
        {
          "indexed": true,
          "name": "topic",
          "type": "uint256"
        },
        {
          "indexed": false,
          "name": "scheme",
          "type": "uint256"
        },
        {
          "indexed": true,
          "name": "issuer",
          "type": "address"
        },
        {
          "indexed": false,
          "name": "signature",
          "type": "bytes"
        },
        {
          "indexed": false,
          "name": "data",
          "type": "bytes"
        },
        {
          "indexed": false,
          "name": "uri",
          "type": "string"
        }
      ],
      "name": "ClaimRequested",
      "type": "event"
    },
    {
      "anonymous": false,
      "inputs": [
        {
          "indexed": true,
          "name": "claimId",
          "type": "bytes32"
        },
        {
          "indexed": true,
          "name": "topic",
          "type": "uint256"
        },
        {
          "indexed": false,
          "name": "scheme",
          "type": "uint256"
        },
        {
          "indexed": true,
          "name": "issuer",
          "type": "address"
        },
        {
          "indexed": false,
          "name": "signature",
          "type": "bytes"
        },
        {
          "indexed": false,
          "name": "data",
          "type": "bytes"
        },
        {
          "indexed": false,
          "name": "uri",
          "type": "string"
        }
      ],
      "name": "ClaimAdded",
      "type": "event"
    },
    {
      "anonymous": false,
      "inputs": [
        {
          "indexed": true,
          "name": "claimId",
          "type": "bytes32"
        },
        {
          "indexed": true,
          "name": "topic",
          "type": "uint256"
        },
        {
          "indexed": false,
          "name": "scheme",
          "type": "uint256"
        },
        {
          "indexed": true,
          "name": "issuer",
          "type": "address"
        },
        {
          "indexed": false,
          "name": "signature",
          "type": "bytes"
        },
        {
          "indexed": false,
          "name": "data",
          "type": "bytes"
        },
        {
          "indexed": false,
          "name": "uri",
          "type": "string"
        }
      ],
      "name": "ClaimRemoved",
      "type": "event"
    },
    {
      "anonymous": false,
      "inputs": [
        {
          "indexed": true,
          "name": "claimId",
          "type": "bytes32"
        },
        {
          "indexed": true,
          "name": "topic",
          "type": "uint256"
        },
        {
          "indexed": false,
          "name": "scheme",
          "type": "uint256"
        },
        {
          "indexed": true,
          "name": "issuer",
          "type": "address"
        },
        {
          "indexed": false,
          "name": "signature",
          "type": "bytes"
        },
        {
          "indexed": false,
          "name": "data",
          "type": "bytes"
        },
        {
          "indexed": false,
          "name": "uri",
          "type": "string"
        }
      ],
      "name": "ClaimChanged",
      "type": "event"
    },
    {
      "anonymous": false,
      "inputs": [
        {
          "indexed": true,
          "name": "key",
          "type": "bytes32"
        },
        {
          "indexed": true,
          "name": "purpose",
          "type": "uint256"
        },
        {
          "indexed": true,
          "name": "keyType",
          "type": "uint256"
        }
      ],
      "name": "KeyAdded",
      "type": "event"
    },
    {
      "anonymous": false,
      "inputs": [
        {
          "indexed": true,
          "name": "key",
          "type": "bytes32"
        },
        {
          "indexed": true,
          "name": "purpose",
          "type": "uint256"
        },
        {
          "indexed": true,
          "name": "keyType",
          "type": "uint256"
        }
      ],
      "name": "KeyRemoved",
      "type": "event"
    },
    {
      "anonymous": false,
      "inputs": [
        {
          "indexed": true,
          "name": "executionId",
          "type": "uint256"
        },
        {
          "indexed": true,
          "name": "to",
          "type": "address"
        },
        {
          "indexed": true,
          "name": "value",
          "type": "uint256"
        },
        {
          "indexed": false,
          "name": "data",
          "type": "bytes"
        }
      ],
      "name": "ExecutionRequested",
      "type": "event"
    },
    {
      "anonymous": false,
      "inputs": [
        {
          "indexed": true,
          "name": "executionId",
          "type": "uint256"
        },
        {
          "indexed": true,
          "name": "to",
          "type": "address"
        },
        {
          "indexed": true,
          "name": "value",
          "type": "uint256"
        },
        {
          "indexed": false,
          "name": "data",
          "type": "bytes"
        }
      ],
      "name": "Executed",
      "type": "event"
    },
    {
      "anonymous": false,
      "inputs": [
        {
          "indexed": true,
          "name": "executionId",
          "type": "uint256"
        },
        {
          "indexed": false,
          "name": "approved",
          "type": "bool"
        }
      ],
      "name": "Approved",
      "type": "event"
    },
    {
      "anonymous": false,
      "inputs": [
        {
          "indexed": true,
          "name": "executionId",
          "type": "uint256"
        },
        {
          "indexed": true,
          "name": "to",
          "type": "address"
        },
        {
          "indexed": true,
          "name": "value",
          "type": "uint256"
        },
        {
          "indexed": false,
          "name": "data",
          "type": "bytes"
        }
      ],
      "name": "ExecutionFailed",
      "type": "event"
    },
    {
      "anonymous": false,
      "inputs": [],
      "name": "LogPause",
      "type": "event"
    },
    {
      "anonymous": false,
      "inputs": [],
      "name": "LogUnpause",
      "type": "event"
    },
    {
      "constant": false,
      "inputs": [
        {
          "name": "_managementKey",
          "type": "address"
        }
      ],
      "name": "init",
      "outputs": [],
      "payable": false,
      "stateMutability": "nonpayable",
      "type": "function"
    }
  ],
  "bytecode": "0x6080604052600160008181558180556005805460ff1916905560078290556006906200003364010000000062000134810204565b7fffffffff0000000000000000000000000000000000000000000000000000000016815260208101919091526040016000908120805460ff1916921515929092179091556001906006906200009064010000000062000158810204565b7fffffffff0000000000000000000000000000000000000000000000000000000016815260208101919091526040016000908120805460ff191692151592909217909155600190600690620000ed6401000000006200017c810204565b7fffffffff000000000000000000000000000000000000000000000000000000001681526020810191909152604001600020805460ff1916911515919091179055620001a0565b7f01ffc9a70000000000000000000000000000000000000000000000000000000090565b7fdc3d2a7b0000000000000000000000000000000000000000000000000000000090565b7f107653790000000000000000000000000000000000000000000000000000000090565b6146f980620001b06000396000f3006080604052600436106102b05763ffffffff60e060020a60003504166301ffc9a781146102b257806302e7491e146102e85780630440b43a1461031a578063058b316c1461034157806312aaac7014610356578063190db862146103cf57806319ab453c146103f35780631d203be8146104145780631d3812401461047d578063237434f01461049b578063251de3e91461031a578063262b54f5146104b35780632d32d4421461051b5780632e7700f01461053057806338f4edd4146105455780633b8a12c81461055a5780633f4ba83a146105d457806349991ec8146103415780634da34c2c146105e95780634eee424a1461069657806353d413c5146106ae5780635c975abb146106c95780635d7bc3fc146106de5780635dccebba146106f657806363f14c3c146107ad5780636e4c4311146107ce578063710ca55014610341578063724a4b3b146107e9578063747442d31461081f57806375e5598c1461051b578063765b30421461083c5780637d96fa581461086d57806382d09446146103415780638456cb59146108825780639010f726146108975780639e140cc8146108af578063a550f0c71461051b578063aa0a5142146108c4578063ae628386146108af578063affed0e0146108d9578063b132734e146108ee578063b1a34e0d14610903578063b1e9f64c146109eb578063b61d27f614610a00578063b9133d6314610a69578063bf2f20ad14610a7e578063c32b351814610a93578063c67021871461031a578063c9100bcb14610aec578063c9d24ecc14610c6f578063ccfe586814610c84578063d202158d14610c9c578063dbfa74b7146109eb578063e0610ba314610cb7578063e804c01b14610ddd578063e99896b814610e42578063ead09fab14610e5a578063f22d08a61461051b578063f5074f4114610e6f578063fc0fc84914610e90575b005b3480156102be57600080fd5b506102d4600160e060020a031960043516610ea5565b604080519115158252519081900360200190f35b3480156102f457600080fd5b506102fd610ec4565b60408051600160e060020a03199092168252519081900360200190f35b34801561032657600080fd5b5061032f610ee9565b60408051918252519081900360200190f35b34801561034d57600080fd5b5061032f610eee565b34801561036257600080fd5b5061036e600435610ef3565b60408051602080820185905291810183905260608082528551908201528451909182916080830191878101910280838360005b838110156103b95781810151838201526020016103a1565b5050505090500194505050505060405180910390f35b3480156103db57600080fd5b5061032f600160a060020a0360043516602435610f98565b3480156103ff57600080fd5b506102b0600160a060020a0360043516611045565b34801561042057600080fd5b50604080516020600460443581810135601f810184900484028501840190955284845261032f948235600160a060020a03169460248035953695946064949201919081908401838280828437509497506110c39650505050505050565b34801561048957600080fd5b506102d46004356024356044356111c3565b3480156104a757600080fd5b506102d460043561121c565b3480156104bf57600080fd5b506104cb60043561123c565b60408051602080825283518183015283519192839290830191858101910280838360005b838110156105075781810151838201526020016104ef565b505050509050019250505060405180910390f35b34801561052757600080fd5b5061032f61129f565b34801561053c57600080fd5b5061032f6112a4565b34801561055157600080fd5b5061032f6112aa565b34801561056657600080fd5b5060408051602060046024803582810135601f81018590048502860185019096528585526105b89583359536956044949193909101919081908401838280828437509497506112b09650505050505050565b60408051600160a060020a039092168252519081900360200190f35b3480156105e057600080fd5b506102b06113b3565b3480156105f557600080fd5b50604080516020600460443581810135601f810184900484028501840190955284845261032f948235600160a060020a031694602480359536959460649492019190819084018382808284375050604080516020601f818a01358b0180359182018390048302840183018552818452989b8a359b909a90999401975091955091820193509150819084018382808284375094975061140c9650505050505050565b3480156106a257600080fd5b506102d46004356115a7565b3480156106ba57600080fd5b506102d4600435602435611bb0565b3480156106d557600080fd5b506102d4611c47565b3480156106ea57600080fd5b506102d4600435611c50565b34801561070257600080fd5b5061070e600435611fb9565b6040518085600160a060020a0316600160a060020a0316815260200184815260200180602001838152602001828103825284818151815260200191508051906020019080838360005b8381101561076f578181015183820152602001610757565b50505050905090810190601f16801561079c5780820380516001836020036101000a031916815260200191505b509550505050505060405180910390f35b3480156107b957600080fd5b5061032f600160a060020a0360043516612075565b3480156107da57600080fd5b506105b8600435602435612081565b3480156107f557600080fd5b506102d4600435600160a060020a0360243516600160e060020a03196044351660643515156120b8565b34801561082b57600080fd5b506102d46004356024351515612119565b34801561084857600080fd5b506102d4600435600160a060020a0360243516600160e060020a031960443516612137565b34801561087957600080fd5b506102fd612179565b34801561088e57600080fd5b506102b061219d565b3480156108a357600080fd5b506104cb6004356121f8565b3480156108bb57600080fd5b5061032f612259565b3480156108d057600080fd5b5061032f61225e565b3480156108e557600080fd5b5061032f612264565b3480156108fa57600080fd5b5061032f61226a565b34801561090f57600080fd5b50604080516020601f60643560048181013592830184900484028501840190955281845261032f948035946024803595600160a060020a0360443516953695608494930191819084018382808284375050604080516020601f89358b018035918201839004830284018301909452808352979a99988101979196509182019450925082915084018382808284375050604080516020601f89358b018035918201839004830284018301909452808352979a99988101979196509182019450925082915084018382808284375094975061226f9650505050505050565b3480156109f757600080fd5b5061032f612720565b348015610a0c57600080fd5b50604080516020600460443581810135601f810184900484028501840190955284845261032f948235600160a060020a03169460248035953695946064949201919081908401838280828437509497506127259650505050505050565b348015610a7557600080fd5b5061032f61274c565b348015610a8a57600080fd5b506102fd612751565b348015610a9f57600080fd5b506040805160206004803580820135601f81018490048402850184019095528484526102fd9436949293602493928401919081908401838280828437509497506127759650505050505050565b348015610af857600080fd5b50610b046004356127f9565b6040518087815260200186815260200185600160a060020a0316600160a060020a03168152602001806020018060200180602001848103845287818151815260200191508051906020019080838360005b83811015610b6d578181015183820152602001610b55565b50505050905090810190601f168015610b9a5780820380516001836020036101000a031916815260200191505b50848103835286518152865160209182019188019080838360005b83811015610bcd578181015183820152602001610bb5565b50505050905090810190601f168015610bfa5780820380516001836020036101000a031916815260200191505b50848103825285518152855160209182019187019080838360005b83811015610c2d578181015183820152602001610c15565b50505050905090810190601f168015610c5a5780820380516001836020036101000a031916815260200191505b50995050505050505050505060405180910390f35b348015610c7b57600080fd5b5061032f612a4f565b348015610c9057600080fd5b506102b0600435612a55565b348015610ca857600080fd5b506102d4600435602435612aa8565b348015610cc357600080fd5b50604080516020601f6064356004818101359283018490048402850184019095528184526102d4948035946024803595600160a060020a0360443516953695608494930191819084018382808284375050604080516020601f89358b018035918201839004830284018301909452808352979a99988101979196509182019450925082915084018382808284375050604080516020601f89358b018035918201839004830284018301909452808352979a99988101979196509182019450925082915084018382808284375050604080516020601f89358b018035918201839004830284018301909452808352979a999881019791965091820194509250829150840183828082843750949750612abc9650505050505050565b348015610de957600080fd5b50604080516020601f6064356004818101359283018490048402850184019095528184526102d494803594602480351515956044359536956084949301918190840183828082843750949750612edd9650505050505050565b348015610e4e57600080fd5b506102b0600435612ff8565b348015610e6657600080fd5b5061032f61304b565b348015610e7b57600080fd5b506102b0600160a060020a0360043516613050565b348015610e9c57600080fd5b5061032f613084565b600160e060020a03191660009081526006602052604090205460ff1690565b7f01ffc9a7000000000000000000000000000000000000000000000000000000005b90565b600381565b600181565b6060600080610f00614519565b60008581526002602090815260409182902082518154608093810282018401909452606081018481529093919284928491840182828015610f6057602002820191906000526020600020905b815481526020019060010190808311610f4c575b505050918352505060018201546020808301919091526002909201546040918201528251918301519201519097919650945092505050565b600082826040516020018083600160a060020a0316600160a060020a03166c01000000000000000000000000028152601401828152602001925050506040516020818303038152906040526040518082805190602001908083835b602083106110125780518252601f199092019160209182019101610ff3565b5181516020939093036101000a600019018019909116921691909117905260405192018290039091209695505050505050565b600061105082612075565b905061105e8160018061308a565b61106b816002600161308a565b611078816003600161308a565b6001600081815581805560069061108d612751565b611095612179565b18600160e060020a03191681526020810191909152604001600020805460ff19169115159190911790555050565b60008383836040516020018084600160a060020a0316600160a060020a03166c0100000000000000000000000002815260140183815260200182805190602001908083835b602083106111275780518252601f199092019160209182019101611108565b6001836020036101000a03801982511681845116808217855250505050505090500193505050506040516020818303038152906040526040518082805190602001908083835b6020831061118c5780518252601f19909201916020918201910161116d565b6001836020036101000a038019825116818451168082178552505050505050905001915050604051809103902090505b9392505050565b60006111cd6130d1565b15156111d857600080fd5b60055460ff16156111e857600080fd5b6111fa6002858563ffffffff61310316565b15611207575060006111bc565b61121284848461308a565b5060019392505050565b6000908152600a6020526040902060020154600160a060020a0316151590565b6000818152600b602090815260409182902080548351818402810184019094528084526060939283018282801561129357602002820191906000526020600020905b8154815260019091019060200180831161127e575b50505050509050919050565b600281565b60075490565b60015481565b60006111bc826040805190810160405280601c81526020017f19457468657265756d205369676e6564204d6573736167653a0a333200000000815250856040516020018083805190602001908083835b6020831061131f5780518252601f199092019160209182019101611300565b51815160209384036101000a600019018019909216911617905292019384525060408051808503815293820190819052835193945092839250908401908083835b6020831061137f5780518252601f199092019160209182019101611360565b5181516020939093036101000a60001901801990911692169190911790526040519201829003909120939250506131e79050565b6113bb6130d1565b15156113c657600080fd5b60055460ff1615156113d757600080fd5b6005805460ff191690556040517f730c1faaa977b67dacf1e2451ef54556e04a07d577785ff79f6d31f73502efc990600090a1565b600554600090819060ff161561142157600080fd5b600754841461149157604080517f08c379a000000000000000000000000000000000000000000000000000000000815260206004820152600e60248201527f6e6f6e6365206d69736d61746368000000000000000000000000000000000000604482015290519081900360640190fd5b61158c878787876040516020018085600160a060020a0316600160a060020a03166c0100000000000000000000000002815260140184815260200183805190602001908083835b602083106114f75780518252601f1990920191602091820191016114d8565b51815160209384036101000a6000190180199092169116179052920193845250604080518085038152938201908190528351939650945084935085019190508083835b602083106115595780518252601f19909201916020918201910161153a565b6001836020036101000a0380198251168184511680821785525050505050509050019150506040518091039020846112b0565b905061159a818888886132bc565b91505b5095945050505050565b60006115b1614539565b600554600090819060ff16156115c657600080fd5b6000858152600a60205260409020600201548590600160a060020a03168015156115ef57600080fd5b6115f76130d1565b15611601576116da565b33600160a060020a0382161415611617576116da565b611638611622612179565b600160a060020a0383169063ffffffff61347816565b156116d55780600160a060020a031663d202158d61165533612075565b6040805160e060020a63ffffffff85160281526004810192909252600260248301525160448083019260209291908290030181600087803b15801561169957600080fd5b505af11580156116ad573d6000803e3d6000fd5b505050506040513d60208110156116c357600080fd5b505115156116d057600080fd5b6116da565b600080fd5b6000878152600a6020908152604091829020825160c0810184528154815260018083015482850152600280840154600160a060020a0316838701526003840180548751601f9482161561010002600019019091169290920492830186900486028201860190965281815291949293606086019391908301828280156117a05780601f10611775576101008083540402835291602001916117a0565b820191906000526020600020905b81548152906001019060200180831161178357829003601f168201915b505050918352505060048201805460408051602060026001851615610100026000190190941693909304601f81018490048402820184019092528181529382019392918301828280156118345780601f1061180957610100808354040283529160200191611834565b820191906000526020600020905b81548152906001019060200180831161181757829003601f168201915b505050918352505060058201805460408051602060026001851615610100026000190190941693909304601f81018490048402820184019092528181529382019392918301828280156118c85780601f1061189d576101008083540402835291602001916118c8565b820191906000526020600020905b8154815290600101906020018083116118ab57829003601f168201915b505050919092525050506040810151909550600160a060020a031615156118ee57600080fd5b6000878152600a6020526040812081815560018101829055600281018054600160a060020a0319169055906119266003830182614579565b611934600483016000614579565b611942600583016000614579565b505084516000908152600b60205260408120945092505b83548310156119f9578354879085908590811061197257fe5b60009182526020909120015414156119ee5783548490600019810190811061199657fe5b906000526020600020015484848154811015156119af57fe5b6000918252602090912001558354849060001981019081106119cd57fe5b600091825260208220015583546119e88560001983016145c0565b506119f9565b600190920191611959565b600c60008154809291906001900391905055508460400151600160a060020a0316856000015188600019167f3cf57863a89432c61c4a27073c6ee39e8a764bff5a05aebfbcdcdc80b2e6130a886020015189606001518a608001518b60a0015160405180858152602001806020018060200180602001848103845287818151815260200191508051906020019080838360005b83811015611aa4578181015183820152602001611a8c565b50505050905090810190601f168015611ad15780820380516001836020036101000a031916815260200191505b50848103835286518152865160209182019188019080838360005b83811015611b04578181015183820152602001611aec565b50505050905090810190601f168015611b315780820380516001836020036101000a031916815260200191505b50848103825285518152855160209182019187019080838360005b83811015611b64578181015183820152602001611b4c565b50505050905090810190601f168015611b915780820380516001836020036101000a031916815260200191505b5097505050505050505060405180910390a45060019695505050505050565b600080611bbb6130d1565b1515611bc657600080fd5b60055460ff1615611bd657600080fd5b611be86002858563ffffffff61310316565b1515611bf75760009150611c40565b611c096002858563ffffffff61352f16565b6040519091508190849086907f585a4aef50f8267a92b32412b331b20f7f8b96f2245b253b9cc50dcc621d339790600090a4600191505b5092915050565b60055460ff1681565b6000611c5a614539565b60055460ff1615611c6a57600080fd5b6000838152600a60205260409020600201548390600160a060020a0316801515611c9357600080fd5b611c9b6130d1565b15611ca557611d5e565b33600160a060020a0382161415611cbb57611d5e565b611cc6611622612179565b156116d55780600160a060020a031663d202158d611ce333612075565b6040805160e060020a63ffffffff85160281526004810192909252600260248301525160448083019260209291908290030181600087803b158015611d2757600080fd5b505af1158015611d3b573d6000803e3d6000fd5b505050506040513d6020811015611d5157600080fd5b50511515611d5e57600080fd5b6000858152600a6020908152604091829020825160c0810184528154815260018083015482850152600280840154600160a060020a0316838701526003840180548751601f948216156101000260001901909116929092049283018690048602820186019096528181529194929360608601939190830182828015611e245780601f10611df957610100808354040283529160200191611e24565b820191906000526020600020905b815481529060010190602001808311611e0757829003601f168201915b505050918352505060048201805460408051602060026001851615610100026000190190941693909304601f8101849004840282018401909252818152938201939291830182828015611eb85780601f10611e8d57610100808354040283529160200191611eb8565b820191906000526020600020905b815481529060010190602001808311611e9b57829003601f168201915b505050918352505060058201805460408051602060026001851615610100026000190190941693909304601f8101849004840282018401909252818152938201939291830182828015611f4c5780601f10611f2157610100808354040283529160200191611f4c565b820191906000526020600020905b815481529060010190602001808311611f2f57829003601f168201915b505050919092525050506040810151909350600160a060020a03161515611f7257600080fd5b611f93836000015184602001518560400151866060015187608001516136da565b1515611fac57611fa2856115a7565b5060009350611fb1565b600193505b505050919050565b60086020908152600091825260409182902080546001808301546002808501805488516101009582161595909502600019011691909104601f8101879004870284018701909752868352600160a060020a039093169590949192918301828280156120655780601f1061203a57610100808354040283529160200191612065565b820191906000526020600020905b81548152906001019060200180831161204857829003601f168201915b5050505050908060030154905084565b600160a060020a031690565b60096020528160005260406000208181548110151561209c57fe5b600091825260209091200154600160a060020a03169150829050565b60006120c26130d1565b15156120cd57600080fd5b60055460ff16156120dd57600080fd5b6120ee60028663ffffffff61381116565b15156120f957600080fd5b61210d60028686868663ffffffff6138a316565b50600195945050505050565b60055460009060ff161561212c57600080fd5b6111bc3384846138ec565b6000838152600260209081526040808320600160a060020a03861684526003018252808320600160e060020a03198516845290915290205460ff169392505050565b7fdc3d2a7b0000000000000000000000000000000000000000000000000000000090565b6121a56130d1565b15156121b057600080fd5b60055460ff16156121c057600080fd5b6005805460ff191660011790556040517f4b314b34e912fda7f95e7d23e9c8c95f82f0aff1984e4ce592a0b005f905562490600090a1565b60008181526003602090815260409182902080548351818402810184019094528084526060939283018282801561129357602002820191906000526020600020908154815260019091019060200180831161127e5750505050509050919050565b600481565b60005481565b60075481565b600881565b60055460009081908190819060ff161561228857600080fd5b6122958a8a8a8a8a6136da565b15156122a057600080fd5b6122a86130d1565b92508215156124f6576040517fb61d27f600000000000000000000000000000000000000000000000000000000815230600482018181526000602484018190526060604485019081523660648601819052939463b61d27f694869484939192909190608401848480828437820191505095505050505050602060405180830381600087803b15801561233957600080fd5b505af115801561234d573d6000803e3d6000fd5b505050506040513d602081101561236357600080fd5b8101908080519060200190929190505050935087600160a060020a03168a857fe6b6db97dedfb44cbced367387e40b3f92dbee1b1be87f9367f7b673532b0d698c8b8b8b60405180858152602001806020018060200180602001848103845287818151815260200191508051906020019080838360005b838110156123f25781810151838201526020016123da565b50505050905090810190601f16801561241f5780820380516001836020036101000a031916815260200191505b50848103835286518152865160209182019188019080838360005b8381101561245257818101518382015260200161243a565b50505050905090810190601f16801561247f5780820380516001836020036101000a031916815260200191505b50848103825285518152855160209182019187019080838360005b838110156124b257818101518382015260200161249a565b50505050905090810190601f1680156124df5780820380516001836020036101000a031916815260200191505b5097505050505050505060405180910390a4612713565b612500888b610f98565b6000818152600a6020526040902060020154909250600160a060020a0316151561253857612533828b8b8b8b8b8b613c8b565b612713565b506000818152600a60209081526040909120600181018a9055875190916125669160038401918a01906145e9565b50855161257c90600483019060208901906145e9565b50845161259290600583019060208801906145e9565b5087600160a060020a03168a83600019167f3bab293fc00db832d7619a9299914251b8747c036867ec056cbd506f60135b138c8b8b8b60405180858152602001806020018060200180602001848103845287818151815260200191508051906020019080838360005b838110156126135781810151838201526020016125fb565b50505050905090810190601f1680156126405780820380516001836020036101000a031916815260200191505b50848103835286518152865160209182019188019080838360005b8381101561267357818101518382015260200161265b565b50505050905090810190601f1680156126a05780820380516001836020036101000a031916815260200191505b50848103825285518152855160209182019187019080838360005b838110156126d35781810151838201526020016126bb565b50505050905090810190601f1680156127005780820380516001836020036101000a031916815260200191505b5097505050505050505060405180910390a45b5050509695505050505050565b600581565b60055460009060ff161561273857600080fd5b612744338585856132bc565b949350505050565b600781565b7f107653790000000000000000000000000000000000000000000000000000000090565b600080805b6004811015611c405780600802848281518110151561279557fe5b60209101015160029190910a7f0100000000000000000000000000000000000000000000000000000000000000918290049091027fff000000000000000000000000000000000000000000000000000000000000001604919091179060010161277a565b6000806000606080606061280b614539565b6000888152600a6020908152604091829020825160c0810184528154815260018083015482850152600280840154600160a060020a0316838701526003840180548751601f9482161561010002600019019091169290920492830186900486028201860190965281815291949293606086019391908301828280156128d15780601f106128a6576101008083540402835291602001916128d1565b820191906000526020600020905b8154815290600101906020018083116128b457829003601f168201915b505050918352505060048201805460408051602060026001851615610100026000190190941693909304601f81018490048402820184019092528181529382019392918301828280156129655780601f1061293a57610100808354040283529160200191612965565b820191906000526020600020905b81548152906001019060200180831161294857829003601f168201915b505050918352505060058201805460408051602060026001851615610100026000190190941693909304601f81018490048402820184019092528181529382019392918301828280156129f95780601f106129ce576101008083540402835291602001916129f9565b820191906000526020600020905b8154815290600101906020018083116129dc57829003601f168201915b505050919092525050506040810151909150600160a060020a03161515612a1f57600080fd5b8051602082015160408301516060840151608085015160a090950151939c929b5090995097509195509350915050565b60045490565b60055460009060ff1615612a6857600080fd5b612a706130d1565b1515612a7b57600080fd5b60008211612a8857600080fd5b612a9260016121f8565b51905080821115612aa257600080fd5b50600055565b60006111bc6002848463ffffffff61310316565b60055460009081908190819060ff1615612ad557600080fd5b612ae28b8b8b8b8b6136da565b1515612aed57600080fd5b612c868b8b8b8b8b8b6040516020018087815260200186815260200185600160a060020a0316600160a060020a03166c0100000000000000000000000002815260140184805190602001908083835b60208310612b5b5780518252601f199092019160209182019101612b3c565b51815160209384036101000a600019018019909216911617905286519190930192860191508083835b60208310612ba35780518252601f199092019160209182019101612b84565b51815160209384036101000a600019018019909216911617905285519190930192850191508083835b60208310612beb5780518252601f199092019160209182019101612bcc565b6001836020036101000a03801982511681845116808217855250505050505090500196505050505050506040516020818303038152906040526040518082805190602001908083835b60208310612c535780518252601f199092019160209182019101612c34565b6001836020036101000a0380198251168184511680821785525050505050509050019150506040518091039020866112b0565b9250612ca4612c9484612075565b600290600163ffffffff61310316565b1515612caf57600080fd5b612cb9898c610f98565b6000818152600a6020526040902060020154909250600160a060020a03161515612cf157612cec828c8c8c8c8c8c613c8b565b612ecc565b506000818152600a60209081526040909120600181018b905588519091612d1f9160038401918b01906145e9565b508651612d3590600483019060208a01906145e9565b508551612d4b90600583019060208901906145e9565b5088600160a060020a03168b83600019167f3bab293fc00db832d7619a9299914251b8747c036867ec056cbd506f60135b138d8c8c8c60405180858152602001806020018060200180602001848103845287818151815260200191508051906020019080838360005b83811015612dcc578181015183820152602001612db4565b50505050905090810190601f168015612df95780820380516001836020036101000a031916815260200191505b50848103835286518152865160209182019188019080838360005b83811015612e2c578181015183820152602001612e14565b50505050905090810190601f168015612e595780820380516001836020036101000a031916815260200191505b50848103825285518152855160209182019187019080838360005b83811015612e8c578181015183820152602001612e74565b50505050905090810190601f168015612eb95780820380516001836020036101000a031916815260200191505b5097505050505050505060405180910390a45b5060019a9950505050505050505050565b600554600090819060ff1615612ef257600080fd5b6007548414612f6257604080517f08c379a000000000000000000000000000000000000000000000000000000000815260206004820152600e60248201527f6e6f6e6365206d69736d61746368000000000000000000000000000000000000604482015290519081900360640190fd5b6040805160208082018990527f010000000000000000000000000000000000000000000000000000000000000088151502828401526041808301889052835180840390910181526061909201928390528151612fe19391829190840190808383602083106115595780518252601f19909201916020918201910161153a565b9050612fee8187876138ec565b9695505050505050565b60055460009060ff161561300b57600080fd5b6130136130d1565b151561301e57600080fd5b6000821161302b57600080fd5b61303560026121f8565b5190508082111561304557600080fd5b50600155565b600681565b6130586130d1565b151561306357600080fd5b600160a060020a038116151561307857600080fd5b80600160a060020a0316ff5b600c5481565b61309d600284848463ffffffff613f0316565b6040518190839085907f480000bb1edad8ca1470381cc334b1917fbd51c6531f3a623ea8e0ec7e38a6e990600090a4505050565b6000333014156130e357506001610ee6565b6000546001146130f257600080fd5b6130fe612c9433612075565b905090565b600061310d614519565b600084815260208681526040808320815181546080948102820185019093526060810183815290939192849284919084018282801561316b57602002820191906000526020600020905b815481526020019060010190808311613157575b505050918352505060018201546020820152600290910154604091820152810151909250151561319e57600092506131de565b5060005b8151518110156131de5781518051859190839081106131bd57fe5b9060200190602002015114156131d657600192506131de565b6001016131a2565b50509392505050565b6000806000808451604114151561320157600093506132b3565b50505060208201516040830151606084015160001a601b60ff8216101561322657601b015b8060ff16601b1415801561323e57508060ff16601c14155b1561324c57600093506132b3565b60408051600080825260208083018085528a905260ff8516838501526060830187905260808301869052925160019360a0808501949193601f19840193928390039091019190865af11580156132a6573d6000803e3d6000fd5b5050506020604051035193505b50505092915050565b6000806132c7614667565b6132d2878786613f74565b91506132e330878787600754614125565b92508486600160a060020a0316847f8afcfabcb00e47a53a8fc3e9f23ff47ee1926194bb1350dd007c50b412a6cee8876040518080602001828103825283818151815260200191508051906020019080838360005b83811015613350578181015183820152602001613338565b50505050905090810190601f16801561337d5780820380516001836020036101000a031916815260200191505b509250505060405180910390a45060078054600101905560408051608081018252600160a060020a038716815260208101869052908101849052606081018290528115156133d7576133d18382600061424b565b5061346e565b60008381526008602090815260409182902083518154600160a060020a031916600160a060020a039091161781558382015160018201559183015180518493926134289260028501929101906145e9565b50606091909101516003909101556000838152600960209081526040822080546001810182559083529120018054600160a060020a031916600160a060020a0389161790555b5050949350505050565b600080806134a6857f01ffc9a7000000000000000000000000000000000000000000000000000000006144cd565b90925090508115806134b6575080155b156134c45760009250613527565b6134d685600160e060020a03196144cd565b90925090508115806134e757508015155b156134f55760009250613527565b6134ff85856144cd565b90925090506001821480156135145750806001145b156135225760019250613527565b600092505b505092915050565b6000828152602084905260408120600181015491805b82548210156135ef5784838381548110151561355d57fe5b906000526020600020015414156135e45782548390600019810190811061358057fe5b9060005260206000200154838381548110151561359957fe5b6000918252602090912001558254839060001981019081106135b757fe5b600091825260208220015582546135d28460001983016145c0565b506002870180546000190190556135ef565b600190910190613545565b82541515613621576000868152602088905260408120906136108282614699565b506000600182018190556002909101555b5050600083815260018601602052604081205b80548210156136d0578054869082908490811061364d57fe5b60009182526020909120015414156136c55780548190600019810190811061367157fe5b9060005260206000200154818381548110151561368a57fe5b6000918252602090912001558054819060001981019081106136a857fe5b600091825260208220015580546136c38260001983016145c0565b505b600190910190613634565b5050509392505050565b6000806001861415613808576136fa6136f43089866110c3565b856112b0565b905080600160a060020a031685600160a060020a0316141561371f576001915061159d565b600160a060020a0385163014156137535761374c61373c82612075565b600290600363ffffffff61310316565b915061159d565b61377461375e612179565b600160a060020a0387169063ffffffff61347816565b156138085784600160a060020a031663d202158d61379183612075565b6040805160e060020a63ffffffff85160281526004810192909252600360248301525160448083019260209291908290030181600087803b1580156137d557600080fd5b505af11580156137e9573d6000803e3d6000fd5b505050506040513d60208110156137ff57600080fd5b5051915061159d565b6000915061159d565b600061381b614519565b600083815260208581526040918290208251815460809381028201840190945260608101848152909391928492849184018282801561387957602002820191906000526020600020905b815481526020019060010190808311613865575b50505091835250506001820154602082015260029091015460409182015201511515949350505050565b600093845260209485526040808520600160a060020a0394909416855260039093018552828420600160e060020a031992909216845293529020805460ff191682151517905590565b60008080808515156138fd57600080fd5b60008681526008602052604090208054909350600160a060020a0316151561392457600080fd5b825460028085018054604080516020601f60001960018616156101000201909416959095049283018590048502810185019091528181526139cb948c94600160a060020a03909116939192908301828280156139c15780601f10613996576101008083540402835291602001916139c1565b820191906000526020600020905b8154815290600101906020018083116139a457829003601f168201915b5050505050613f74565b50604080518615158152905187917fb3932da477fe5d6c8ff2eafef050c0f3a1af18fc07121001482600f36f3715d8919081900360200190a260008681526009602052604090209150841515613b1e575060005b8154811015613b155786600160a060020a03168282815481101515613a4057fe5b600091825260209091200154600160a060020a03161415613b0d57815482906000198101908110613a6d57fe5b6000918252602090912001548254600160a060020a0390911690839083908110613a9357fe5b60009182526020909120018054600160a060020a031916600160a060020a0392909216919091179055815482906000198101908110613ace57fe5b60009182526020909120018054600160a060020a03191690558154613af78360001983016145c0565b50600383018054600190810190915593506136d0565b600101613a1f565b600093506136d0565b5060005b8154811015613b6b5786600160a060020a03168282815481101515613b4357fe5b600091825260209091200154600160a060020a03161415613b6357600080fd5b600101613b22565b8154600181018355600083815260209020018054600160a060020a031916600160a060020a03891617905560038301805460001901908190551515613c8257604080516080810182528454600160a060020a031681526001808601546020808401919091526002808801805486516101009582161595909502600019011691909104601f81018390048302840183018652808452613c7b958c95948a949186019390929091830182828015613c615780601f10613c3657610100808354040283529160200191613c61565b820191906000526020600020905b815481529060010190602001808311613c4457829003601f168201915b50505050508152602001600382015481525050600161424b565b93506136d0565b600193506136d0565b6040805160c0810182528781526020808201888152600160a060020a03888116848601908152606085018981526080860189905260a0860188905260008e8152600a865296909620855181559251600184015551600283018054600160a060020a0319169190921617905592518051929392613d0d92600385019201906145e9565b5060808201518051613d299160048401916020909101906145e9565b5060a08201518051613d459160058401916020909101906145e9565b5050506000868152600b60209081526040808320805460018181018355918552838520018b9055600c80549091019055805188815260808184018181528851918301919091528751600160a060020a038a16958c958e957f46149b18aa084502c3f12bc75e19eda8bda8d102b82cce8474677a6d0d5f43c5958e958d958d958d959394929392850192606086019260a0870192918a01918190849084905b83811015613dfb578181015183820152602001613de3565b50505050905090810190601f168015613e285780820380516001836020036101000a031916815260200191505b50848103835286518152865160209182019188019080838360005b83811015613e5b578181015183820152602001613e43565b50505050905090810190601f168015613e885780820380516001836020036101000a031916815260200191505b50848103825285518152855160209182019187019080838360005b83811015613ebb578181015183820152602001613ea3565b50505050905090810190601f168015613ee85780820380516001836020036101000a031916815260200191505b5097505050505050505060405180910390a450505050505050565b60008381526020858152604082208054600181018255818452919092200183905560028101541515613f3e5760028101849055600181018290555b50506000908152600180840160209081526040832080548084018255908452922090910191909155600290910180549091019055565b6000600160a060020a03831630141561401f57600160a060020a038416301415613fa1575060005461401a565b613fad612c9485612075565b8061400c5750613fcf613fbf85612075565b600290600763ffffffff61310316565b801561400c57507f1d3812400000000000000000000000000000000000000000000000000000000061400083612775565b600160e060020a031916145b156116d55750600054600019015b6111bc565b600160a060020a038316151561403457600080fd5b600160a060020a03841630141561404e57506001546111bc565b61406961405a85612075565b6002908163ffffffff61310316565b8061408b575061408b61407b85612075565b600290600663ffffffff61310316565b8061411357506140ad61409d85612075565b600290600863ffffffff61310316565b80156141135750600260006140c186612075565b815260208082019290925260409081016000908120600160a060020a03871682526003019092528120906140f484612775565b600160e060020a031916815260208101919091526040016000205460ff165b156116d55750600154600019016111bc565b600085858585856040516020018086600160a060020a0316600160a060020a03166c0100000000000000000000000002815260140185600160a060020a0316600160a060020a03166c0100000000000000000000000002815260140184815260200183805190602001908083835b602083106141b25780518252601f199092019160209182019101614193565b51815160209384036101000a600019018019909216911617905292019384525060408051808503815293820190819052835193975095508594508601925081905083835b602083106142155780518252601f1990920191602091820191016141f6565b5181516020939093036101000a600019018019909116921691909117905260405192018290039091209998505050505050505050565b81516000908190600160a060020a0316151561426657600080fd5b8360000151600160a060020a03168460200151856040015160405180828051906020019080838360005b838110156142a8578181015183820152602001614290565b50505050905090810190601f1680156142d55780820380516001836020036101000a031916815260200191505b5091505060006040518083038185875af19250505090508015156143ad5783602001518460000151600160a060020a0316867fe10c49d9f7c71da23262367013434763cfdb2332267641728d25cd712c5c6a6887604001516040518080602001828103825283818151815260200191508051906020019080838360005b8381101561436a578181015183820152602001614352565b50505050905090810190601f1680156143975780820380516001836020036101000a031916815260200191505b509250505060405180910390a4600091506144c5565b83602001518460000151600160a060020a0316867f1f920dbda597d7bf95035464170fa58d0a4b57f13a1c315ace6793b9f63688b887604001516040518080602001828103825283818151815260200191508051906020019080838360005b8381101561442457818101518382015260200161440c565b50505050905090810190601f1680156144515780820380516001836020036101000a031916815260200191505b509250505060405180910390a482151561446e57600191506144c5565b60008581526008602052604081208054600160a060020a0319168155600181018290559061449f6002830182614579565b5060006003919091018190558581526009602052604081206144c091614699565b600191505b509392505050565b6040517f01ffc9a70000000000000000000000000000000000000000000000000000000080825260048201839052600091829190602081818189617530fa905190969095509350505050565b604080516060818101835281526000602082018190529181019190915290565b60c06040519081016040528060008152602001600081526020016000600160a060020a031681526020016060815260200160608152602001606081525090565b50805460018160011615610100020316600290046000825580601f1061459f57506145bd565b601f0160209004906000526020600020908101906145bd91906146b3565b50565b8154818355818111156145e4576000838152602090206145e49181019083016146b3565b505050565b828054600181600116156101000203166002900490600052602060002090601f016020900481019282601f1061462a57805160ff1916838001178555614657565b82800160010185558215614657579182015b8281111561465757825182559160200191906001019061463c565b506146639291506146b3565b5090565b6080604051908101604052806000600160a060020a031681526020016000815260200160608152602001600081525090565b50805460008255906000526020600020908101906145bd91905b610ee691905b8082111561466357600081556001016146b95600a165627a7a723058205c94a8d5ec4152eea505baaa4058e1855d81eeebafd7b2ad3a9aeff7e6ca6a430029",
  "source": "pragma solidity ^0.4.24;\n\nimport \"./Destructible.sol\";\nimport \"./ERC735.sol\";\nimport \"./KeyGetters.sol\";\nimport \"./KeyManager.sol\";\nimport \"./MultiSig.sol\";\nimport \"./ClaimManager.sol\";\nimport \"./Slice.sol\";\n\n/// @title MetaIdentity\n/// @author Metadium, genie\n/// @notice Identity contract implementing ERC 725, ERC 735 and Metadium features.\n\ncontract MetaIdentityLib is KeyManager, MultiSig, ClaimManager, Destructible, KeyGetters {\n    using Slice for bytes;\n    using Slice for string;\n\n    function init(address _managementKey) public {\n        bytes32 senderKey = addrToKey(_managementKey);\n        \n        // Add key that deployed the contract for MANAGEMENT, ACTION, CLAIM\n        _addKey(senderKey, MANAGEMENT_KEY, ECDSA_TYPE);\n        _addKey(senderKey, ACTION_KEY, ECDSA_TYPE);\n        _addKey(senderKey, CLAIM_SIGNER_KEY, ECDSA_TYPE);\n        \n        managementThreshold = 1;\n        actionThreshold = 1;\n\n        // Supports both ERC 725 & 735\n        supportedInterfaces[ERC725ID() ^ ERC735ID()] = true;\n    }\n    // Fallback function accepts Ether transactions\n    // solhint-disable-next-line no-empty-blocks\n    function () external payable {\n    }\n\n}",
  "sourcePath": "/Users/coinplug/BangGijin/metabolics2.0/contracts/identity/MetaIdentityLib.sol",
  "compiler": {
    "name": "solc",
    "version": "0.4.24+commit.e67f0147.Emscripten.clang"
  },
  "schemaVersion": "2.0.1",
  "updatedAt": "2018-11-16T09:39:37.775Z"
}