{
  "contractName": "MetaIdentityLib",
  "abi": [
    {
      "constant": true,
      "inputs": [
        {
          "name": "interfaceID",
          "type": "bytes4"
        }
      ],
      "name": "supportsInterface",
      "outputs": [
        {
          "name": "",
          "type": "bool"
        }
      ],
      "payable": false,
      "stateMutability": "view",
      "type": "function"
    },
    {
      "constant": true,
      "inputs": [],
      "name": "ERC165ID",
      "outputs": [
        {
          "name": "",
          "type": "bytes4"
        }
      ],
      "payable": false,
      "stateMutability": "pure",
      "type": "function"
    },
    {
      "constant": true,
      "inputs": [],
      "name": "REGISTRY_TOPIC",
      "outputs": [
        {
          "name": "",
          "type": "uint256"
        }
      ],
      "payable": false,
      "stateMutability": "view",
      "type": "function"
    },
    {
      "constant": true,
      "inputs": [],
      "name": "MANAGEMENT_KEY",
      "outputs": [
        {
          "name": "",
          "type": "uint256"
        }
      ],
      "payable": false,
      "stateMutability": "view",
      "type": "function"
    },
    {
      "constant": true,
      "inputs": [
        {
          "name": "_key",
          "type": "bytes32"
        }
      ],
      "name": "getKey",
      "outputs": [
        {
          "name": "purposes",
          "type": "uint256[]"
        },
        {
          "name": "keyType",
          "type": "uint256"
        },
        {
          "name": "key",
          "type": "bytes32"
        }
      ],
      "payable": false,
      "stateMutability": "view",
      "type": "function"
    },
    {
      "constant": true,
      "inputs": [
        {
          "name": "issuer",
          "type": "address"
        },
        {
          "name": "topic",
          "type": "uint256"
        }
      ],
      "name": "getClaimId",
      "outputs": [
        {
          "name": "",
          "type": "bytes32"
        }
      ],
      "payable": false,
      "stateMutability": "pure",
      "type": "function"
    },
    {
      "constant": true,
      "inputs": [
        {
          "name": "subject",
          "type": "address"
        },
        {
          "name": "topic",
          "type": "uint256"
        },
        {
          "name": "data",
          "type": "bytes"
        }
      ],
      "name": "claimToSign",
      "outputs": [
        {
          "name": "",
          "type": "bytes32"
        }
      ],
      "payable": false,
      "stateMutability": "pure",
      "type": "function"
    },
    {
      "constant": false,
      "inputs": [
        {
          "name": "_key",
          "type": "bytes32"
        },
        {
          "name": "_purpose",
          "type": "uint256"
        },
        {
          "name": "_keyType",
          "type": "uint256"
        }
      ],
      "name": "addKey",
      "outputs": [
        {
          "name": "success",
          "type": "bool"
        }
      ],
      "payable": false,
      "stateMutability": "nonpayable",
      "type": "function"
    },
    {
      "constant": true,
      "inputs": [],
      "name": "CONTRACT_SCHEME",
      "outputs": [
        {
          "name": "",
          "type": "uint256"
        }
      ],
      "payable": false,
      "stateMutability": "view",
      "type": "function"
    },
    {
      "constant": true,
      "inputs": [
        {
          "name": "_topic",
          "type": "uint256"
        }
      ],
      "name": "getClaimIdsByType",
      "outputs": [
        {
          "name": "claimIds",
          "type": "bytes32[]"
        }
      ],
      "payable": false,
      "stateMutability": "view",
      "type": "function"
    },
    {
      "constant": true,
      "inputs": [],
      "name": "RSA_TYPE",
      "outputs": [
        {
          "name": "",
          "type": "uint256"
        }
      ],
      "payable": false,
      "stateMutability": "view",
      "type": "function"
    },
    {
      "constant": true,
      "inputs": [],
      "name": "getTransactionCount",
      "outputs": [
        {
          "name": "",
          "type": "uint256"
        }
      ],
      "payable": false,
      "stateMutability": "view",
      "type": "function"
    },
    {
      "constant": true,
      "inputs": [],
      "name": "actionThreshold",
      "outputs": [
        {
          "name": "",
          "type": "uint256"
        }
      ],
      "payable": false,
      "stateMutability": "view",
      "type": "function"
    },
    {
      "constant": true,
      "inputs": [
        {
          "name": "toSign",
          "type": "bytes32"
        },
        {
          "name": "signature",
          "type": "bytes"
        }
      ],
      "name": "getSignatureAddress",
      "outputs": [
        {
          "name": "",
          "type": "address"
        }
      ],
      "payable": false,
      "stateMutability": "pure",
      "type": "function"
    },
    {
      "constant": false,
      "inputs": [],
      "name": "unpause",
      "outputs": [],
      "payable": false,
      "stateMutability": "nonpayable",
      "type": "function"
    },
    {
      "constant": true,
      "inputs": [],
      "name": "ECDSA_TYPE",
      "outputs": [
        {
          "name": "",
          "type": "uint256"
        }
      ],
      "payable": false,
      "stateMutability": "view",
      "type": "function"
    },
    {
      "constant": false,
      "inputs": [
        {
          "name": "_to",
          "type": "address"
        },
        {
          "name": "_value",
          "type": "uint256"
        },
        {
          "name": "_data",
          "type": "bytes"
        },
        {
          "name": "_nonce",
          "type": "uint256"
        },
        {
          "name": "_sig",
          "type": "bytes"
        }
      ],
      "name": "delegatedExecute",
      "outputs": [
        {
          "name": "executionId",
          "type": "uint256"
        }
      ],
      "payable": false,
      "stateMutability": "nonpayable",
      "type": "function"
    },
    {
      "constant": false,
      "inputs": [
        {
          "name": "_claimId",
          "type": "bytes32"
        }
      ],
      "name": "removeClaim",
      "outputs": [
        {
          "name": "success",
          "type": "bool"
        }
      ],
      "payable": false,
      "stateMutability": "nonpayable",
      "type": "function"
    },
    {
      "constant": false,
      "inputs": [
        {
          "name": "_key",
          "type": "bytes32"
        },
        {
          "name": "_purpose",
          "type": "uint256"
        }
      ],
      "name": "removeKey",
      "outputs": [
        {
          "name": "success",
          "type": "bool"
        }
      ],
      "payable": false,
      "stateMutability": "nonpayable",
      "type": "function"
    },
    {
      "constant": true,
      "inputs": [],
      "name": "paused",
      "outputs": [
        {
          "name": "",
          "type": "bool"
        }
      ],
      "payable": false,
      "stateMutability": "view",
      "type": "function"
    },
    {
      "constant": false,
      "inputs": [
        {
          "name": "_claimId",
          "type": "bytes32"
        }
      ],
      "name": "refreshClaim",
      "outputs": [
        {
          "name": "",
          "type": "bool"
        }
      ],
      "payable": false,
      "stateMutability": "nonpayable",
      "type": "function"
    },
    {
      "constant": true,
      "inputs": [
        {
          "name": "",
          "type": "uint256"
        }
      ],
      "name": "execution",
      "outputs": [
        {
          "name": "to",
          "type": "address"
        },
        {
          "name": "value",
          "type": "uint256"
        },
        {
          "name": "data",
          "type": "bytes"
        },
        {
          "name": "needsApprove",
          "type": "uint256"
        }
      ],
      "payable": false,
      "stateMutability": "view",
      "type": "function"
    },
    {
      "constant": true,
      "inputs": [
        {
          "name": "addr",
          "type": "address"
        }
      ],
      "name": "addrToKey",
      "outputs": [
        {
          "name": "",
          "type": "bytes32"
        }
      ],
      "payable": false,
      "stateMutability": "pure",
      "type": "function"
    },
    {
      "constant": true,
      "inputs": [
        {
          "name": "",
          "type": "uint256"
        },
        {
          "name": "",
          "type": "uint256"
        }
      ],
      "name": "approved",
      "outputs": [
        {
          "name": "",
          "type": "address"
        }
      ],
      "payable": false,
      "stateMutability": "view",
      "type": "function"
    },
    {
      "constant": true,
      "inputs": [],
      "name": "METAID_TOPIC",
      "outputs": [
        {
          "name": "",
          "type": "uint256"
        }
      ],
      "payable": false,
      "stateMutability": "view",
      "type": "function"
    },
    {
      "constant": false,
      "inputs": [
        {
          "name": "_key",
          "type": "bytes32"
        },
        {
          "name": "_to",
          "type": "address"
        },
        {
          "name": "_func",
          "type": "bytes4"
        },
        {
          "name": "_executable",
          "type": "bool"
        }
      ],
      "name": "setFunc",
      "outputs": [
        {
          "name": "success",
          "type": "bool"
        }
      ],
      "payable": false,
      "stateMutability": "nonpayable",
      "type": "function"
    },
    {
      "constant": false,
      "inputs": [
        {
          "name": "_id",
          "type": "uint256"
        },
        {
          "name": "_approve",
          "type": "bool"
        }
      ],
      "name": "approve",
      "outputs": [
        {
          "name": "success",
          "type": "bool"
        }
      ],
      "payable": false,
      "stateMutability": "nonpayable",
      "type": "function"
    },
    {
      "constant": true,
      "inputs": [],
      "name": "ACTION_KEY",
      "outputs": [
        {
          "name": "",
          "type": "uint256"
        }
      ],
      "payable": false,
      "stateMutability": "view",
      "type": "function"
    },
    {
      "constant": true,
      "inputs": [
        {
          "name": "_key",
          "type": "bytes32"
        },
        {
          "name": "_to",
          "type": "address"
        },
        {
          "name": "_func",
          "type": "bytes4"
        }
      ],
      "name": "keyCanExecute",
      "outputs": [
        {
          "name": "executable",
          "type": "bool"
        }
      ],
      "payable": false,
      "stateMutability": "view",
      "type": "function"
    },
    {
      "constant": true,
      "inputs": [],
      "name": "ERC725ID",
      "outputs": [
        {
          "name": "",
          "type": "bytes4"
        }
      ],
      "payable": false,
      "stateMutability": "pure",
      "type": "function"
    },
    {
      "constant": true,
      "inputs": [],
      "name": "ECDSA_SCHEME",
      "outputs": [
        {
          "name": "",
          "type": "uint256"
        }
      ],
      "payable": false,
      "stateMutability": "view",
      "type": "function"
    },
    {
      "constant": false,
      "inputs": [],
      "name": "pause",
      "outputs": [],
      "payable": false,
      "stateMutability": "nonpayable",
      "type": "function"
    },
    {
      "constant": true,
      "inputs": [
        {
          "name": "_purpose",
          "type": "uint256"
        }
      ],
      "name": "getKeysByPurpose",
      "outputs": [
        {
          "name": "keys",
          "type": "bytes32[]"
        }
      ],
      "payable": false,
      "stateMutability": "view",
      "type": "function"
    },
    {
      "constant": true,
      "inputs": [],
      "name": "ENCRYPTION_KEY",
      "outputs": [
        {
          "name": "",
          "type": "uint256"
        }
      ],
      "payable": false,
      "stateMutability": "view",
      "type": "function"
    },
    {
      "constant": true,
      "inputs": [],
      "name": "RESIDENCE_TOPIC",
      "outputs": [
        {
          "name": "",
          "type": "uint256"
        }
      ],
      "payable": false,
      "stateMutability": "view",
      "type": "function"
    },
    {
      "constant": true,
      "inputs": [],
      "name": "managementThreshold",
      "outputs": [
        {
          "name": "",
          "type": "uint256"
        }
      ],
      "payable": false,
      "stateMutability": "view",
      "type": "function"
    },
    {
      "constant": true,
      "inputs": [],
      "name": "PROFILE_TOPIC",
      "outputs": [
        {
          "name": "",
          "type": "uint256"
        }
      ],
      "payable": false,
      "stateMutability": "view",
      "type": "function"
    },
    {
      "constant": true,
      "inputs": [],
      "name": "nonce",
      "outputs": [
        {
          "name": "",
          "type": "uint256"
        }
      ],
      "payable": false,
      "stateMutability": "view",
      "type": "function"
    },
    {
      "constant": true,
      "inputs": [],
      "name": "CUSTOM_KEY",
      "outputs": [
        {
          "name": "",
          "type": "uint256"
        }
      ],
      "payable": false,
      "stateMutability": "view",
      "type": "function"
    },
    {
      "constant": false,
      "inputs": [
        {
          "name": "_topic",
          "type": "uint256"
        },
        {
          "name": "_scheme",
          "type": "uint256"
        },
        {
          "name": "issuer",
          "type": "address"
        },
        {
          "name": "_signature",
          "type": "bytes"
        },
        {
          "name": "_data",
          "type": "bytes"
        },
        {
          "name": "_uri",
          "type": "string"
        }
      ],
      "name": "addClaim",
      "outputs": [
        {
          "name": "claimRequestId",
          "type": "uint256"
        }
      ],
      "payable": false,
      "stateMutability": "nonpayable",
      "type": "function"
    },
    {
      "constant": true,
      "inputs": [],
      "name": "LABEL_TOPIC",
      "outputs": [
        {
          "name": "",
          "type": "uint256"
        }
      ],
      "payable": false,
      "stateMutability": "view",
      "type": "function"
    },
    {
      "constant": false,
      "inputs": [
        {
          "name": "_to",
          "type": "address"
        },
        {
          "name": "_value",
          "type": "uint256"
        },
        {
          "name": "_data",
          "type": "bytes"
        }
      ],
      "name": "execute",
      "outputs": [
        {
          "name": "executionId",
          "type": "uint256"
        }
      ],
      "payable": false,
      "stateMutability": "nonpayable",
      "type": "function"
    },
    {
      "constant": true,
      "inputs": [],
      "name": "RESTORE_KEY",
      "outputs": [
        {
          "name": "",
          "type": "uint256"
        }
      ],
      "payable": false,
      "stateMutability": "view",
      "type": "function"
    },
    {
      "constant": true,
      "inputs": [],
      "name": "ERC735ID",
      "outputs": [
        {
          "name": "",
          "type": "bytes4"
        }
      ],
      "payable": false,
      "stateMutability": "pure",
      "type": "function"
    },
    {
      "constant": true,
      "inputs": [
        {
          "name": "b",
          "type": "bytes"
        }
      ],
      "name": "getFunctionSignature",
      "outputs": [
        {
          "name": "",
          "type": "bytes4"
        }
      ],
      "payable": false,
      "stateMutability": "pure",
      "type": "function"
    },
    {
      "constant": true,
      "inputs": [],
      "name": "CLAIM_SIGNER_KEY",
      "outputs": [
        {
          "name": "",
          "type": "uint256"
        }
      ],
      "payable": false,
      "stateMutability": "view",
      "type": "function"
    },
    {
      "constant": true,
      "inputs": [
        {
          "name": "_claimId",
          "type": "bytes32"
        }
      ],
      "name": "getClaim",
      "outputs": [
        {
          "name": "topic",
          "type": "uint256"
        },
        {
          "name": "scheme",
          "type": "uint256"
        },
        {
          "name": "issuer",
          "type": "address"
        },
        {
          "name": "signature",
          "type": "bytes"
        },
        {
          "name": "data",
          "type": "bytes"
        },
        {
          "name": "uri",
          "type": "string"
        }
      ],
      "payable": false,
      "stateMutability": "view",
      "type": "function"
    },
    {
      "constant": true,
      "inputs": [],
      "name": "numKeys",
      "outputs": [
        {
          "name": "",
          "type": "uint256"
        }
      ],
      "payable": false,
      "stateMutability": "view",
      "type": "function"
    },
    {
      "constant": false,
      "inputs": [
        {
          "name": "threshold",
          "type": "uint256"
        }
      ],
      "name": "changeManagementThreshold",
      "outputs": [],
      "payable": false,
      "stateMutability": "nonpayable",
      "type": "function"
    },
    {
      "constant": true,
      "inputs": [
        {
          "name": "_key",
          "type": "bytes32"
        },
        {
          "name": "purpose",
          "type": "uint256"
        }
      ],
      "name": "keyHasPurpose",
      "outputs": [
        {
          "name": "exists",
          "type": "bool"
        }
      ],
      "payable": false,
      "stateMutability": "view",
      "type": "function"
    },
    {
      "constant": true,
      "inputs": [],
      "name": "ASSIST_KEY",
      "outputs": [
        {
          "name": "",
          "type": "uint256"
        }
      ],
      "payable": false,
      "stateMutability": "view",
      "type": "function"
    },
    {
      "constant": false,
      "inputs": [
        {
          "name": "_topic",
          "type": "uint256"
        },
        {
          "name": "_scheme",
          "type": "uint256"
        },
        {
          "name": "issuer",
          "type": "address"
        },
        {
          "name": "_signature",
          "type": "bytes"
        },
        {
          "name": "_data",
          "type": "bytes"
        },
        {
          "name": "_uri",
          "type": "string"
        },
        {
          "name": "_idSignature",
          "type": "bytes"
        }
      ],
      "name": "addClaimByProxy",
      "outputs": [
        {
          "name": "success",
          "type": "bool"
        }
      ],
      "payable": false,
      "stateMutability": "nonpayable",
      "type": "function"
    },
    {
      "constant": false,
      "inputs": [
        {
          "name": "threshold",
          "type": "uint256"
        }
      ],
      "name": "changeActionThreshold",
      "outputs": [],
      "payable": false,
      "stateMutability": "nonpayable",
      "type": "function"
    },
    {
      "constant": true,
      "inputs": [],
      "name": "DELEGATE_KEY",
      "outputs": [
        {
          "name": "",
          "type": "uint256"
        }
      ],
      "payable": false,
      "stateMutability": "view",
      "type": "function"
    },
    {
      "constant": true,
      "inputs": [],
      "name": "RSA_SCHEME",
      "outputs": [
        {
          "name": "",
          "type": "uint256"
        }
      ],
      "payable": false,
      "stateMutability": "view",
      "type": "function"
    },
    {
      "constant": false,
      "inputs": [
        {
          "name": "_recipient",
          "type": "address"
        }
      ],
      "name": "destroyAndSend",
      "outputs": [],
      "payable": false,
      "stateMutability": "nonpayable",
      "type": "function"
    },
    {
      "constant": true,
      "inputs": [],
      "name": "numClaims",
      "outputs": [
        {
          "name": "",
          "type": "uint256"
        }
      ],
      "payable": false,
      "stateMutability": "view",
      "type": "function"
    },
    {
      "payable": true,
      "stateMutability": "payable",
      "type": "fallback"
    },
    {
      "anonymous": false,
      "inputs": [
        {
          "indexed": true,
          "name": "claimRequestId",
          "type": "uint256"
        },
        {
          "indexed": true,
          "name": "topic",
          "type": "uint256"
        },
        {
          "indexed": false,
          "name": "scheme",
          "type": "uint256"
        },
        {
          "indexed": true,
          "name": "issuer",
          "type": "address"
        },
        {
          "indexed": false,
          "name": "signature",
          "type": "bytes"
        },
        {
          "indexed": false,
          "name": "data",
          "type": "bytes"
        },
        {
          "indexed": false,
          "name": "uri",
          "type": "string"
        }
      ],
      "name": "ClaimRequested",
      "type": "event"
    },
    {
      "anonymous": false,
      "inputs": [
        {
          "indexed": true,
          "name": "claimId",
          "type": "bytes32"
        },
        {
          "indexed": true,
          "name": "topic",
          "type": "uint256"
        },
        {
          "indexed": false,
          "name": "scheme",
          "type": "uint256"
        },
        {
          "indexed": true,
          "name": "issuer",
          "type": "address"
        },
        {
          "indexed": false,
          "name": "signature",
          "type": "bytes"
        },
        {
          "indexed": false,
          "name": "data",
          "type": "bytes"
        },
        {
          "indexed": false,
          "name": "uri",
          "type": "string"
        }
      ],
      "name": "ClaimAdded",
      "type": "event"
    },
    {
      "anonymous": false,
      "inputs": [
        {
          "indexed": true,
          "name": "claimId",
          "type": "bytes32"
        },
        {
          "indexed": true,
          "name": "topic",
          "type": "uint256"
        },
        {
          "indexed": false,
          "name": "scheme",
          "type": "uint256"
        },
        {
          "indexed": true,
          "name": "issuer",
          "type": "address"
        },
        {
          "indexed": false,
          "name": "signature",
          "type": "bytes"
        },
        {
          "indexed": false,
          "name": "data",
          "type": "bytes"
        },
        {
          "indexed": false,
          "name": "uri",
          "type": "string"
        }
      ],
      "name": "ClaimRemoved",
      "type": "event"
    },
    {
      "anonymous": false,
      "inputs": [
        {
          "indexed": true,
          "name": "claimId",
          "type": "bytes32"
        },
        {
          "indexed": true,
          "name": "topic",
          "type": "uint256"
        },
        {
          "indexed": false,
          "name": "scheme",
          "type": "uint256"
        },
        {
          "indexed": true,
          "name": "issuer",
          "type": "address"
        },
        {
          "indexed": false,
          "name": "signature",
          "type": "bytes"
        },
        {
          "indexed": false,
          "name": "data",
          "type": "bytes"
        },
        {
          "indexed": false,
          "name": "uri",
          "type": "string"
        }
      ],
      "name": "ClaimChanged",
      "type": "event"
    },
    {
      "anonymous": false,
      "inputs": [
        {
          "indexed": true,
          "name": "key",
          "type": "bytes32"
        },
        {
          "indexed": true,
          "name": "purpose",
          "type": "uint256"
        },
        {
          "indexed": true,
          "name": "keyType",
          "type": "uint256"
        }
      ],
      "name": "KeyAdded",
      "type": "event"
    },
    {
      "anonymous": false,
      "inputs": [
        {
          "indexed": true,
          "name": "key",
          "type": "bytes32"
        },
        {
          "indexed": true,
          "name": "purpose",
          "type": "uint256"
        },
        {
          "indexed": true,
          "name": "keyType",
          "type": "uint256"
        }
      ],
      "name": "KeyRemoved",
      "type": "event"
    },
    {
      "anonymous": false,
      "inputs": [
        {
          "indexed": true,
          "name": "executionId",
          "type": "uint256"
        },
        {
          "indexed": true,
          "name": "to",
          "type": "address"
        },
        {
          "indexed": true,
          "name": "value",
          "type": "uint256"
        },
        {
          "indexed": false,
          "name": "data",
          "type": "bytes"
        }
      ],
      "name": "ExecutionRequested",
      "type": "event"
    },
    {
      "anonymous": false,
      "inputs": [
        {
          "indexed": true,
          "name": "executionId",
          "type": "uint256"
        },
        {
          "indexed": true,
          "name": "to",
          "type": "address"
        },
        {
          "indexed": true,
          "name": "value",
          "type": "uint256"
        },
        {
          "indexed": false,
          "name": "data",
          "type": "bytes"
        }
      ],
      "name": "Executed",
      "type": "event"
    },
    {
      "anonymous": false,
      "inputs": [
        {
          "indexed": true,
          "name": "executionId",
          "type": "uint256"
        },
        {
          "indexed": false,
          "name": "approved",
          "type": "bool"
        }
      ],
      "name": "Approved",
      "type": "event"
    },
    {
      "anonymous": false,
      "inputs": [
        {
          "indexed": true,
          "name": "executionId",
          "type": "uint256"
        },
        {
          "indexed": true,
          "name": "to",
          "type": "address"
        },
        {
          "indexed": true,
          "name": "value",
          "type": "uint256"
        },
        {
          "indexed": false,
          "name": "data",
          "type": "bytes"
        }
      ],
      "name": "ExecutionFailed",
      "type": "event"
    },
    {
      "anonymous": false,
      "inputs": [],
      "name": "LogPause",
      "type": "event"
    },
    {
      "anonymous": false,
      "inputs": [],
      "name": "LogUnpause",
      "type": "event"
    },
    {
      "constant": false,
      "inputs": [
        {
          "name": "_managementKey",
          "type": "address"
        }
      ],
      "name": "init",
      "outputs": [],
      "payable": false,
      "stateMutability": "nonpayable",
      "type": "function"
    }
  ],
  "bytecode": "0x6080604052600160008181558180556005805460ff1916905560078290556006906200003364010000000062000134810204565b7fffffffff0000000000000000000000000000000000000000000000000000000016815260208101919091526040016000908120805460ff1916921515929092179091556001906006906200009064010000000062000158810204565b7fffffffff0000000000000000000000000000000000000000000000000000000016815260208101919091526040016000908120805460ff191692151592909217909155600190600690620000ed6401000000006200017c810204565b7fffffffff000000000000000000000000000000000000000000000000000000001681526020810191909152604001600020805460ff1916911515919091179055620001a0565b7f01ffc9a70000000000000000000000000000000000000000000000000000000090565b7fdc3d2a7b0000000000000000000000000000000000000000000000000000000090565b7f107653790000000000000000000000000000000000000000000000000000000090565b61449880620001b06000396000f30060806040526004361061029a5763ffffffff60e060020a60003504166301ffc9a7811461029c57806302e7491e146102d25780630440b43a14610304578063058b316c1461032b57806312aaac7014610340578063190db862146103b957806319ab453c146103dd5780631d203be8146103fe5780631d38124014610467578063251de3e914610304578063262b54f5146104855780632d32d442146104ed5780632e7700f01461050257806338f4edd4146105175780633b8a12c81461052c5780633f4ba83a146105a657806349991ec81461032b5780634da34c2c146105bb5780634eee424a1461066857806353d413c5146106805780635c975abb1461069b5780635d7bc3fc146106b05780635dccebba146106c857806363f14c3c1461077f5780636e4c4311146107a0578063710ca5501461032b578063724a4b3b146107bb578063747442d3146107f157806375e5598c146104ed578063765b30421461080e5780637d96fa581461083f57806382d094461461032b5780638456cb59146108545780639010f726146108695780639e140cc814610881578063a550f0c7146104ed578063aa0a514214610896578063ae62838614610881578063affed0e0146108ab578063b132734e146108c0578063b1a34e0d146108d5578063b1e9f64c146109bd578063b61d27f6146109d2578063b9133d6314610a3b578063bf2f20ad14610a50578063c32b351814610a65578063c670218714610304578063c9100bcb14610abe578063c9d24ecc14610c41578063ccfe586814610c56578063d202158d14610c6e578063dbfa74b7146109bd578063e0610ba314610c89578063e99896b814610daf578063ead09fab14610dc7578063f22d08a6146104ed578063f5074f4114610ddc578063fc0fc84914610dfd575b005b3480156102a857600080fd5b506102be600160e060020a031960043516610e12565b604080519115158252519081900360200190f35b3480156102de57600080fd5b506102e7610e31565b60408051600160e060020a03199092168252519081900360200190f35b34801561031057600080fd5b50610319610e56565b60408051918252519081900360200190f35b34801561033757600080fd5b50610319610e5b565b34801561034c57600080fd5b50610358600435610e60565b60408051602080820185905291810183905260608082528551908201528451909182916080830191878101910280838360005b838110156103a357818101518382015260200161038b565b5050505090500194505050505060405180910390f35b3480156103c557600080fd5b50610319600160a060020a0360043516602435610f05565b3480156103e957600080fd5b5061029a600160a060020a0360043516610fb2565b34801561040a57600080fd5b50604080516020600460443581810135601f8101849004840285018401909552848452610319948235600160a060020a03169460248035953695946064949201919081908401838280828437509497506110309650505050505050565b34801561047357600080fd5b506102be600435602435604435611130565b34801561049157600080fd5b5061049d600435611189565b60408051602080825283518183015283519192839290830191858101910280838360005b838110156104d95781810151838201526020016104c1565b505050509050019250505060405180910390f35b3480156104f957600080fd5b506103196111ec565b34801561050e57600080fd5b506103196111f1565b34801561052357600080fd5b506103196111f7565b34801561053857600080fd5b5060408051602060046024803582810135601f810185900485028601850190965285855261058a9583359536956044949193909101919081908401838280828437509497506111fd9650505050505050565b60408051600160a060020a039092168252519081900360200190f35b3480156105b257600080fd5b5061029a611300565b3480156105c757600080fd5b50604080516020600460443581810135601f8101849004840285018401909552848452610319948235600160a060020a031694602480359536959460649492019190819084018382808284375050604080516020601f818a01358b0180359182018390048302840183018552818452989b8a359b909a9099940197509195509182019350915081908401838280828437509497506113599650505050505050565b34801561067457600080fd5b506102be600435611484565b34801561068c57600080fd5b506102be600435602435611a8d565b3480156106a757600080fd5b506102be611b24565b3480156106bc57600080fd5b506102be600435611b2d565b3480156106d457600080fd5b506106e0600435611e96565b6040518085600160a060020a0316600160a060020a0316815260200184815260200180602001838152602001828103825284818151815260200191508051906020019080838360005b83811015610741578181015183820152602001610729565b50505050905090810190601f16801561076e5780820380516001836020036101000a031916815260200191505b509550505050505060405180910390f35b34801561078b57600080fd5b50610319600160a060020a0360043516611f52565b3480156107ac57600080fd5b5061058a600435602435611f5e565b3480156107c757600080fd5b506102be600435600160a060020a0360243516600160e060020a0319604435166064351515611f95565b3480156107fd57600080fd5b506102be6004356024351515611ff6565b34801561081a57600080fd5b506102be600435600160a060020a0360243516600160e060020a031960443516612395565b34801561084b57600080fd5b506102e76123d7565b34801561086057600080fd5b5061029a6123fb565b34801561087557600080fd5b5061049d600435612456565b34801561088d57600080fd5b506103196124b7565b3480156108a257600080fd5b506103196124bc565b3480156108b757600080fd5b506103196124c2565b3480156108cc57600080fd5b506103196124c8565b3480156108e157600080fd5b50604080516020601f606435600481810135928301849004840285018401909552818452610319948035946024803595600160a060020a0360443516953695608494930191819084018382808284375050604080516020601f89358b018035918201839004830284018301909452808352979a99988101979196509182019450925082915084018382808284375050604080516020601f89358b018035918201839004830284018301909452808352979a9998810197919650918201945092508291508401838280828437509497506124cd9650505050505050565b3480156109c957600080fd5b5061031961297e565b3480156109de57600080fd5b50604080516020600460443581810135601f8101849004840285018401909552848452610319948235600160a060020a03169460248035953695946064949201919081908401838280828437509497506129839650505050505050565b348015610a4757600080fd5b506103196129aa565b348015610a5c57600080fd5b506102e76129af565b348015610a7157600080fd5b506040805160206004803580820135601f81018490048402850184019095528484526102e79436949293602493928401919081908401838280828437509497506129d39650505050505050565b348015610aca57600080fd5b50610ad6600435612a57565b6040518087815260200186815260200185600160a060020a0316600160a060020a03168152602001806020018060200180602001848103845287818151815260200191508051906020019080838360005b83811015610b3f578181015183820152602001610b27565b50505050905090810190601f168015610b6c5780820380516001836020036101000a031916815260200191505b50848103835286518152865160209182019188019080838360005b83811015610b9f578181015183820152602001610b87565b50505050905090810190601f168015610bcc5780820380516001836020036101000a031916815260200191505b50848103825285518152855160209182019187019080838360005b83811015610bff578181015183820152602001610be7565b50505050905090810190601f168015610c2c5780820380516001836020036101000a031916815260200191505b50995050505050505050505060405180910390f35b348015610c4d57600080fd5b50610319612cad565b348015610c6257600080fd5b5061029a600435612cb3565b348015610c7a57600080fd5b506102be600435602435612d06565b348015610c9557600080fd5b50604080516020601f6064356004818101359283018490048402850184019095528184526102be948035946024803595600160a060020a0360443516953695608494930191819084018382808284375050604080516020601f89358b018035918201839004830284018301909452808352979a99988101979196509182019450925082915084018382808284375050604080516020601f89358b018035918201839004830284018301909452808352979a99988101979196509182019450925082915084018382808284375050604080516020601f89358b018035918201839004830284018301909452808352979a999881019791965091820194509250829150840183828082843750949750612d1a9650505050505050565b348015610dbb57600080fd5b5061029a60043561313b565b348015610dd357600080fd5b5061031961318e565b348015610de857600080fd5b5061029a600160a060020a0360043516613193565b348015610e0957600080fd5b506103196131c7565b600160e060020a03191660009081526006602052604090205460ff1690565b7f01ffc9a7000000000000000000000000000000000000000000000000000000005b90565b600381565b600181565b6060600080610e6d6142b8565b60008581526002602090815260409182902082518154608093810282018401909452606081018481529093919284928491840182828015610ecd57602002820191906000526020600020905b815481526020019060010190808311610eb9575b505050918352505060018201546020808301919091526002909201546040918201528251918301519201519097919650945092505050565b600082826040516020018083600160a060020a0316600160a060020a03166c01000000000000000000000000028152601401828152602001925050506040516020818303038152906040526040518082805190602001908083835b60208310610f7f5780518252601f199092019160209182019101610f60565b5181516020939093036101000a600019018019909116921691909117905260405192018290039091209695505050505050565b6000610fbd82611f52565b9050610fcb816001806131cd565b610fd881600260016131cd565b610fe581600360016131cd565b60016000818155818055600690610ffa6129af565b6110026123d7565b18600160e060020a03191681526020810191909152604001600020805460ff19169115159190911790555050565b60008383836040516020018084600160a060020a0316600160a060020a03166c0100000000000000000000000002815260140183815260200182805190602001908083835b602083106110945780518252601f199092019160209182019101611075565b6001836020036101000a03801982511681845116808217855250505050505090500193505050506040516020818303038152906040526040518082805190602001908083835b602083106110f95780518252601f1990920191602091820191016110da565b6001836020036101000a038019825116818451168082178552505050505050905001915050604051809103902090505b9392505050565b600061113a613214565b151561114557600080fd5b60055460ff161561115557600080fd5b6111676002858563ffffffff61324616565b1561117457506000611129565b61117f8484846131cd565b5060019392505050565b6000818152600b60209081526040918290208054835181840281018401909452808452606093928301828280156111e057602002820191906000526020600020905b815481526001909101906020018083116111cb575b50505050509050919050565b600281565b60075490565b60015481565b6000611129826040805190810160405280601c81526020017f19457468657265756d205369676e6564204d6573736167653a0a333200000000815250856040516020018083805190602001908083835b6020831061126c5780518252601f19909201916020918201910161124d565b51815160209384036101000a600019018019909216911617905292019384525060408051808503815293820190819052835193945092839250908401908083835b602083106112cc5780518252601f1990920191602091820191016112ad565b5181516020939093036101000a600019018019909116921691909117905260405192018290039091209392505061332a9050565b611308613214565b151561131357600080fd5b60055460ff16151561132457600080fd5b6005805460ff191690556040517f730c1faaa977b67dacf1e2451ef54556e04a07d577785ff79f6d31f73502efc990600090a1565b600554600090819060ff161561136e57600080fd5b611469878787876040516020018085600160a060020a0316600160a060020a03166c0100000000000000000000000002815260140184815260200183805190602001908083835b602083106113d45780518252601f1990920191602091820191016113b5565b51815160209384036101000a6000190180199092169116179052920193845250604080518085038152938201908190528351939650945084935085019190508083835b602083106114365780518252601f199092019160209182019101611417565b6001836020036101000a0380198251168184511680821785525050505050509050019150506040518091039020846111fd565b9050611477818888886133fa565b91505b5095945050505050565b600061148e6142d8565b600554600090819060ff16156114a357600080fd5b6000858152600a60205260409020600201548590600160a060020a03168015156114cc57600080fd5b6114d4613214565b156114de576115b7565b33600160a060020a03821614156114f4576115b7565b6115156114ff6123d7565b600160a060020a0383169063ffffffff6135b616565b156115b25780600160a060020a031663d202158d61153233611f52565b6040805160e060020a63ffffffff85160281526004810192909252600260248301525160448083019260209291908290030181600087803b15801561157657600080fd5b505af115801561158a573d6000803e3d6000fd5b505050506040513d60208110156115a057600080fd5b505115156115ad57600080fd5b6115b7565b600080fd5b6000878152600a6020908152604091829020825160c0810184528154815260018083015482850152600280840154600160a060020a0316838701526003840180548751601f94821615610100026000190190911692909204928301869004860282018601909652818152919492936060860193919083018282801561167d5780601f106116525761010080835404028352916020019161167d565b820191906000526020600020905b81548152906001019060200180831161166057829003601f168201915b505050918352505060048201805460408051602060026001851615610100026000190190941693909304601f81018490048402820184019092528181529382019392918301828280156117115780601f106116e657610100808354040283529160200191611711565b820191906000526020600020905b8154815290600101906020018083116116f457829003601f168201915b505050918352505060058201805460408051602060026001851615610100026000190190941693909304601f81018490048402820184019092528181529382019392918301828280156117a55780601f1061177a576101008083540402835291602001916117a5565b820191906000526020600020905b81548152906001019060200180831161178857829003601f168201915b505050919092525050506040810151909550600160a060020a031615156117cb57600080fd5b6000878152600a6020526040812081815560018101829055600281018054600160a060020a0319169055906118036003830182614318565b611811600483016000614318565b61181f600583016000614318565b505084516000908152600b60205260408120945092505b83548310156118d6578354879085908590811061184f57fe5b60009182526020909120015414156118cb5783548490600019810190811061187357fe5b9060005260206000200154848481548110151561188c57fe5b6000918252602090912001558354849060001981019081106118aa57fe5b600091825260208220015583546118c585600019830161435f565b506118d6565b600190920191611836565b600c60008154809291906001900391905055508460400151600160a060020a0316856000015188600019167f3cf57863a89432c61c4a27073c6ee39e8a764bff5a05aebfbcdcdc80b2e6130a886020015189606001518a608001518b60a0015160405180858152602001806020018060200180602001848103845287818151815260200191508051906020019080838360005b83811015611981578181015183820152602001611969565b50505050905090810190601f1680156119ae5780820380516001836020036101000a031916815260200191505b50848103835286518152865160209182019188019080838360005b838110156119e15781810151838201526020016119c9565b50505050905090810190601f168015611a0e5780820380516001836020036101000a031916815260200191505b50848103825285518152855160209182019187019080838360005b83811015611a41578181015183820152602001611a29565b50505050905090810190601f168015611a6e5780820380516001836020036101000a031916815260200191505b5097505050505050505060405180910390a45060019695505050505050565b600080611a98613214565b1515611aa357600080fd5b60055460ff1615611ab357600080fd5b611ac56002858563ffffffff61324616565b1515611ad45760009150611b1d565b611ae66002858563ffffffff61366d16565b6040519091508190849086907f585a4aef50f8267a92b32412b331b20f7f8b96f2245b253b9cc50dcc621d339790600090a4600191505b5092915050565b60055460ff1681565b6000611b376142d8565b60055460ff1615611b4757600080fd5b6000838152600a60205260409020600201548390600160a060020a0316801515611b7057600080fd5b611b78613214565b15611b8257611c3b565b33600160a060020a0382161415611b9857611c3b565b611ba36114ff6123d7565b156115b25780600160a060020a031663d202158d611bc033611f52565b6040805160e060020a63ffffffff85160281526004810192909252600260248301525160448083019260209291908290030181600087803b158015611c0457600080fd5b505af1158015611c18573d6000803e3d6000fd5b505050506040513d6020811015611c2e57600080fd5b50511515611c3b57600080fd5b6000858152600a6020908152604091829020825160c0810184528154815260018083015482850152600280840154600160a060020a0316838701526003840180548751601f948216156101000260001901909116929092049283018690048602820186019096528181529194929360608601939190830182828015611d015780601f10611cd657610100808354040283529160200191611d01565b820191906000526020600020905b815481529060010190602001808311611ce457829003601f168201915b505050918352505060048201805460408051602060026001851615610100026000190190941693909304601f8101849004840282018401909252818152938201939291830182828015611d955780601f10611d6a57610100808354040283529160200191611d95565b820191906000526020600020905b815481529060010190602001808311611d7857829003601f168201915b505050918352505060058201805460408051602060026001851615610100026000190190941693909304601f8101849004840282018401909252818152938201939291830182828015611e295780601f10611dfe57610100808354040283529160200191611e29565b820191906000526020600020905b815481529060010190602001808311611e0c57829003601f168201915b505050919092525050506040810151909350600160a060020a03161515611e4f57600080fd5b611e7083600001518460200151856040015186606001518760800151613818565b1515611e8957611e7f85611484565b5060009350611e8e565b600193505b505050919050565b60086020908152600091825260409182902080546001808301546002808501805488516101009582161595909502600019011691909104601f8101879004870284018701909752868352600160a060020a03909316959094919291830182828015611f425780601f10611f1757610100808354040283529160200191611f42565b820191906000526020600020905b815481529060010190602001808311611f2557829003601f168201915b5050505050908060030154905084565b600160a060020a031690565b600960205281600052604060002081815481101515611f7957fe5b600091825260209091200154600160a060020a03169150829050565b6000611f9f613214565b1515611faa57600080fd5b60055460ff1615611fba57600080fd5b611fcb60028663ffffffff61394f16565b1515611fd657600080fd5b611fea60028686868663ffffffff6139e116565b50600195945050505050565b60055460009081908190819060ff161561200f57600080fd5b85151561201b57600080fd5b60008681526008602052604090208054909350600160a060020a0316151561204257600080fd5b825460028085018054604080516020601f60001960018616156101000201909416959095049283018590048502810185019091528181526120e9943394600160a060020a03909116939192908301828280156120df5780601f106120b4576101008083540402835291602001916120df565b820191906000526020600020905b8154815290600101906020018083116120c257829003601f168201915b5050505050613a2a565b50604080518615158152905187917fb3932da477fe5d6c8ff2eafef050c0f3a1af18fc07121001482600f36f3715d8919081900360200190a260008681526009602052604090209150841515612234575060005b815481101561222b578154339083908390811061215657fe5b600091825260209091200154600160a060020a031614156122235781548290600019810190811061218357fe5b6000918252602090912001548254600160a060020a03909116908390839081106121a957fe5b60009182526020909120018054600160a060020a031916600160a060020a03929092169190911790558154829060001981019081106121e457fe5b60009182526020909120018054600160a060020a0319169055815461220d83600019830161435f565b506003830180546001908101909155935061238c565b60010161213d565b6000935061238c565b5060005b8154811015612279578154339083908390811061225157fe5b600091825260209091200154600160a060020a0316141561227157600080fd5b600101612238565b8154600181018355600083815260209020018054600160a060020a031916331790556003830180546000190190819055151561238757604080516080810182528454600160a060020a031681526001808601546020808401919091526002808801805486516101009582161595909502600019011691909104601f81018390048302840183018652808452612380958c95948a9491860193909290918301828280156123665780601f1061233b57610100808354040283529160200191612366565b820191906000526020600020905b81548152906001019060200180831161234957829003601f168201915b505050505081526020016003820154815250506001613bdb565b935061238c565b600193505b50505092915050565b6000838152600260209081526040808320600160a060020a03861684526003018252808320600160e060020a03198516845290915290205460ff169392505050565b7fdc3d2a7b0000000000000000000000000000000000000000000000000000000090565b612403613214565b151561240e57600080fd5b60055460ff161561241e57600080fd5b6005805460ff191660011790556040517f4b314b34e912fda7f95e7d23e9c8c95f82f0aff1984e4ce592a0b005f905562490600090a1565b6000818152600360209081526040918290208054835181840281018401909452808452606093928301828280156111e05760200282019190600052602060002090815481526001909101906020018083116111cb5750505050509050919050565b600481565b60005481565b60075481565b600881565b60055460009081908190819060ff16156124e657600080fd5b6124f38a8a8a8a8a613818565b15156124fe57600080fd5b612506613214565b9250821515612754576040517fb61d27f600000000000000000000000000000000000000000000000000000000815230600482018181526000602484018190526060604485019081523660648601819052939463b61d27f694869484939192909190608401848480828437820191505095505050505050602060405180830381600087803b15801561259757600080fd5b505af11580156125ab573d6000803e3d6000fd5b505050506040513d60208110156125c157600080fd5b8101908080519060200190929190505050935087600160a060020a03168a857fe6b6db97dedfb44cbced367387e40b3f92dbee1b1be87f9367f7b673532b0d698c8b8b8b60405180858152602001806020018060200180602001848103845287818151815260200191508051906020019080838360005b83811015612650578181015183820152602001612638565b50505050905090810190601f16801561267d5780820380516001836020036101000a031916815260200191505b50848103835286518152865160209182019188019080838360005b838110156126b0578181015183820152602001612698565b50505050905090810190601f1680156126dd5780820380516001836020036101000a031916815260200191505b50848103825285518152855160209182019187019080838360005b838110156127105781810151838201526020016126f8565b50505050905090810190601f16801561273d5780820380516001836020036101000a031916815260200191505b5097505050505050505060405180910390a4612971565b61275e888b610f05565b6000818152600a6020526040902060020154909250600160a060020a0316151561279657612791828b8b8b8b8b8b613e5d565b612971565b506000818152600a60209081526040909120600181018a9055875190916127c49160038401918a0190614388565b5085516127da9060048301906020890190614388565b5084516127f09060058301906020880190614388565b5087600160a060020a03168a83600019167f3bab293fc00db832d7619a9299914251b8747c036867ec056cbd506f60135b138c8b8b8b60405180858152602001806020018060200180602001848103845287818151815260200191508051906020019080838360005b83811015612871578181015183820152602001612859565b50505050905090810190601f16801561289e5780820380516001836020036101000a031916815260200191505b50848103835286518152865160209182019188019080838360005b838110156128d15781810151838201526020016128b9565b50505050905090810190601f1680156128fe5780820380516001836020036101000a031916815260200191505b50848103825285518152855160209182019187019080838360005b83811015612931578181015183820152602001612919565b50505050905090810190601f16801561295e5780820380516001836020036101000a031916815260200191505b5097505050505050505060405180910390a45b5050509695505050505050565b600581565b60055460009060ff161561299657600080fd5b6129a2338585856133fa565b949350505050565b600781565b7f107653790000000000000000000000000000000000000000000000000000000090565b600080805b6004811015611b1d578060080284828151811015156129f357fe5b60209101015160029190910a7f0100000000000000000000000000000000000000000000000000000000000000918290049091027fff00000000000000000000000000000000000000000000000000000000000000160491909117906001016129d8565b60008060006060806060612a696142d8565b6000888152600a6020908152604091829020825160c0810184528154815260018083015482850152600280840154600160a060020a0316838701526003840180548751601f948216156101000260001901909116929092049283018690048602820186019096528181529194929360608601939190830182828015612b2f5780601f10612b0457610100808354040283529160200191612b2f565b820191906000526020600020905b815481529060010190602001808311612b1257829003601f168201915b505050918352505060048201805460408051602060026001851615610100026000190190941693909304601f8101849004840282018401909252818152938201939291830182828015612bc35780601f10612b9857610100808354040283529160200191612bc3565b820191906000526020600020905b815481529060010190602001808311612ba657829003601f168201915b505050918352505060058201805460408051602060026001851615610100026000190190941693909304601f8101849004840282018401909252818152938201939291830182828015612c575780601f10612c2c57610100808354040283529160200191612c57565b820191906000526020600020905b815481529060010190602001808311612c3a57829003601f168201915b505050919092525050506040810151909150600160a060020a03161515612c7d57600080fd5b8051602082015160408301516060840151608085015160a090950151939c929b5090995097509195509350915050565b60045490565b60055460009060ff1615612cc657600080fd5b612cce613214565b1515612cd957600080fd5b60008211612ce657600080fd5b612cf06001612456565b51905080821115612d0057600080fd5b50600055565b60006111296002848463ffffffff61324616565b60055460009081908190819060ff1615612d3357600080fd5b612d408b8b8b8b8b613818565b1515612d4b57600080fd5b612ee48b8b8b8b8b8b6040516020018087815260200186815260200185600160a060020a0316600160a060020a03166c0100000000000000000000000002815260140184805190602001908083835b60208310612db95780518252601f199092019160209182019101612d9a565b51815160209384036101000a600019018019909216911617905286519190930192860191508083835b60208310612e015780518252601f199092019160209182019101612de2565b51815160209384036101000a600019018019909216911617905285519190930192850191508083835b60208310612e495780518252601f199092019160209182019101612e2a565b6001836020036101000a03801982511681845116808217855250505050505090500196505050505050506040516020818303038152906040526040518082805190602001908083835b60208310612eb15780518252601f199092019160209182019101612e92565b6001836020036101000a0380198251168184511680821785525050505050509050019150506040518091039020866111fd565b9250612f02612ef284611f52565b600290600163ffffffff61324616565b1515612f0d57600080fd5b612f17898c610f05565b6000818152600a6020526040902060020154909250600160a060020a03161515612f4f57612f4a828c8c8c8c8c8c613e5d565b61312a565b506000818152600a60209081526040909120600181018b905588519091612f7d9160038401918b0190614388565b508651612f9390600483019060208a0190614388565b508551612fa99060058301906020890190614388565b5088600160a060020a03168b83600019167f3bab293fc00db832d7619a9299914251b8747c036867ec056cbd506f60135b138d8c8c8c60405180858152602001806020018060200180602001848103845287818151815260200191508051906020019080838360005b8381101561302a578181015183820152602001613012565b50505050905090810190601f1680156130575780820380516001836020036101000a031916815260200191505b50848103835286518152865160209182019188019080838360005b8381101561308a578181015183820152602001613072565b50505050905090810190601f1680156130b75780820380516001836020036101000a031916815260200191505b50848103825285518152855160209182019187019080838360005b838110156130ea5781810151838201526020016130d2565b50505050905090810190601f1680156131175780820380516001836020036101000a031916815260200191505b5097505050505050505060405180910390a45b5060019a9950505050505050505050565b60055460009060ff161561314e57600080fd5b613156613214565b151561316157600080fd5b6000821161316e57600080fd5b6131786002612456565b5190508082111561318857600080fd5b50600155565b600681565b61319b613214565b15156131a657600080fd5b600160a060020a03811615156131bb57600080fd5b80600160a060020a0316ff5b600c5481565b6131e0600284848463ffffffff6140d516565b6040518190839085907f480000bb1edad8ca1470381cc334b1917fbd51c6531f3a623ea8e0ec7e38a6e990600090a4505050565b60003330141561322657506001610e53565b60005460011461323557600080fd5b613241612ef233611f52565b905090565b60006132506142b8565b60008481526020868152604080832081518154608094810282018501909352606081018381529093919284928491908401828280156132ae57602002820191906000526020600020905b81548152602001906001019080831161329a575b50505091835250506001820154602082015260029091015460409182015281015190925015156132e15760009250613321565b5060005b81515181101561332157815180518591908390811061330057fe5b9060200190602002015114156133195760019250613321565b6001016132e5565b50509392505050565b60008060008084516041141515613344576000935061238c565b50505060208201516040830151606084015160001a601b60ff8216101561336957601b015b8060ff16601b1415801561338157508060ff16601c14155b1561338f576000935061238c565b60408051600080825260208083018085528a905260ff8516838501526060830187905260808301869052925160019360a0808501949193601f19840193928390039091019190865af11580156133e9573d6000803e3d6000fd5b50505060206040510351935061238c565b600080613405614406565b613410878786613a2a565b915061342130878787600754614146565b92508486600160a060020a0316847f8afcfabcb00e47a53a8fc3e9f23ff47ee1926194bb1350dd007c50b412a6cee8876040518080602001828103825283818151815260200191508051906020019080838360005b8381101561348e578181015183820152602001613476565b50505050905090810190601f1680156134bb5780820380516001836020036101000a031916815260200191505b509250505060405180910390a45060078054600101905560408051608081018252600160a060020a038716815260208101869052908101849052606081018290528115156135155761350f83826000613bdb565b506135ac565b60008381526008602090815260409182902083518154600160a060020a031916600160a060020a03909116178155838201516001820155918301518051849392613566926002850192910190614388565b50606091909101516003909101556000838152600960209081526040822080546001810182559083529120018054600160a060020a031916600160a060020a0389161790555b5050949350505050565b600080806135e4857f01ffc9a70000000000000000000000000000000000000000000000000000000061426c565b90925090508115806135f4575080155b156136025760009250613665565b61361485600160e060020a031961426c565b909250905081158061362557508015155b156136335760009250613665565b61363d858561426c565b90925090506001821480156136525750806001145b156136605760019250613665565b600092505b505092915050565b6000828152602084905260408120600181015491805b825482101561372d5784838381548110151561369b57fe5b90600052602060002001541415613722578254839060001981019081106136be57fe5b906000526020600020015483838154811015156136d757fe5b6000918252602090912001558254839060001981019081106136f557fe5b6000918252602082200155825461371084600019830161435f565b5060028701805460001901905561372d565b600190910190613683565b8254151561375f5760008681526020889052604081209061374e8282614438565b506000600182018190556002909101555b5050600083815260018601602052604081205b805482101561380e578054869082908490811061378b57fe5b6000918252602090912001541415613803578054819060001981019081106137af57fe5b906000526020600020015481838154811015156137c857fe5b6000918252602090912001558054819060001981019081106137e657fe5b6000918252602082200155805461380182600019830161435f565b505b600190910190613772565b5050509392505050565b600080600186141561394657613838613832308986611030565b856111fd565b905080600160a060020a031685600160a060020a0316141561385d576001915061147a565b600160a060020a0385163014156138915761388a61387a82611f52565b600290600363ffffffff61324616565b915061147a565b6138b261389c6123d7565b600160a060020a0387169063ffffffff6135b616565b156139465784600160a060020a031663d202158d6138cf83611f52565b6040805160e060020a63ffffffff85160281526004810192909252600360248301525160448083019260209291908290030181600087803b15801561391357600080fd5b505af1158015613927573d6000803e3d6000fd5b505050506040513d602081101561393d57600080fd5b5051915061147a565b6000915061147a565b60006139596142b8565b60008381526020858152604091829020825181546080938102820184019094526060810184815290939192849284918401828280156139b757602002820191906000526020600020905b8154815260200190600101908083116139a3575b50505091835250506001820154602082015260029091015460409182015201511515949350505050565b600093845260209485526040808520600160a060020a0394909416855260039093018552828420600160e060020a031992909216845293529020805460ff191682151517905590565b6000600160a060020a038316301415613ad557600160a060020a038416301415613a575750600054613ad0565b613a63612ef285611f52565b80613ac25750613a85613a7585611f52565b600290600763ffffffff61324616565b8015613ac257507f1d38124000000000000000000000000000000000000000000000000000000000613ab6836129d3565b600160e060020a031916145b156115b25750600054600019015b611129565b600160a060020a0383161515613aea57600080fd5b600160a060020a038416301415613b045750600154611129565b613b1f613b1085611f52565b6002908163ffffffff61324616565b80613b415750613b41613b3185611f52565b600290600663ffffffff61324616565b80613bc95750613b63613b5385611f52565b600290600863ffffffff61324616565b8015613bc9575060026000613b7786611f52565b815260208082019290925260409081016000908120600160a060020a0387168252600301909252812090613baa846129d3565b600160e060020a031916815260208101919091526040016000205460ff165b156115b2575060015460001901611129565b81516000908190600160a060020a03161515613bf657600080fd5b8360000151600160a060020a03168460200151856040015160405180828051906020019080838360005b83811015613c38578181015183820152602001613c20565b50505050905090810190601f168015613c655780820380516001836020036101000a031916815260200191505b5091505060006040518083038185875af1925050509050801515613d3d5783602001518460000151600160a060020a0316867fe10c49d9f7c71da23262367013434763cfdb2332267641728d25cd712c5c6a6887604001516040518080602001828103825283818151815260200191508051906020019080838360005b83811015613cfa578181015183820152602001613ce2565b50505050905090810190601f168015613d275780820380516001836020036101000a031916815260200191505b509250505060405180910390a460009150613e55565b83602001518460000151600160a060020a0316867f1f920dbda597d7bf95035464170fa58d0a4b57f13a1c315ace6793b9f63688b887604001516040518080602001828103825283818151815260200191508051906020019080838360005b83811015613db4578181015183820152602001613d9c565b50505050905090810190601f168015613de15780820380516001836020036101000a031916815260200191505b509250505060405180910390a4821515613dfe5760019150613e55565b60008581526008602052604081208054600160a060020a03191681556001810182905590613e2f6002830182614318565b506000600391909101819055858152600960205260408120613e5091614438565b600191505b509392505050565b6040805160c0810182528781526020808201888152600160a060020a03888116848601908152606085018981526080860189905260a0860188905260008e8152600a865296909620855181559251600184015551600283018054600160a060020a0319169190921617905592518051929392613edf9260038501920190614388565b5060808201518051613efb916004840191602090910190614388565b5060a08201518051613f17916005840191602090910190614388565b5050506000868152600b60209081526040808320805460018181018355918552838520018b9055600c80549091019055805188815260808184018181528851918301919091528751600160a060020a038a16958c958e957f46149b18aa084502c3f12bc75e19eda8bda8d102b82cce8474677a6d0d5f43c5958e958d958d958d959394929392850192606086019260a0870192918a01918190849084905b83811015613fcd578181015183820152602001613fb5565b50505050905090810190601f168015613ffa5780820380516001836020036101000a031916815260200191505b50848103835286518152865160209182019188019080838360005b8381101561402d578181015183820152602001614015565b50505050905090810190601f16801561405a5780820380516001836020036101000a031916815260200191505b50848103825285518152855160209182019187019080838360005b8381101561408d578181015183820152602001614075565b50505050905090810190601f1680156140ba5780820380516001836020036101000a031916815260200191505b5097505050505050505060405180910390a450505050505050565b600083815260208581526040822080546001810182558184529190922001839055600281015415156141105760028101849055600181018290555b50506000908152600180840160209081526040832080548084018255908452922090910191909155600290910180549091019055565b600085858585856040516020018086600160a060020a0316600160a060020a03166c0100000000000000000000000002815260140185600160a060020a0316600160a060020a03166c0100000000000000000000000002815260140184815260200183805190602001908083835b602083106141d35780518252601f1990920191602091820191016141b4565b51815160209384036101000a600019018019909216911617905292019384525060408051808503815293820190819052835193975095508594508601925081905083835b602083106142365780518252601f199092019160209182019101614217565b5181516020939093036101000a600019018019909116921691909117905260405192018290039091209998505050505050505050565b6040517f01ffc9a70000000000000000000000000000000000000000000000000000000080825260048201839052600091829190602081818189617530fa905190969095509350505050565b604080516060818101835281526000602082018190529181019190915290565b60c06040519081016040528060008152602001600081526020016000600160a060020a031681526020016060815260200160608152602001606081525090565b50805460018160011615610100020316600290046000825580601f1061433e575061435c565b601f01602090049060005260206000209081019061435c9190614452565b50565b81548183558181111561438357600083815260209020614383918101908301614452565b505050565b828054600181600116156101000203166002900490600052602060002090601f016020900481019282601f106143c957805160ff19168380011785556143f6565b828001600101855582156143f6579182015b828111156143f65782518255916020019190600101906143db565b50614402929150614452565b5090565b6080604051908101604052806000600160a060020a031681526020016000815260200160608152602001600081525090565b508054600082559060005260206000209081019061435c91905b610e5391905b8082111561440257600081556001016144585600a165627a7a72305820ec9c21ba548d233a2845958c9bd39c033eae48055d4e48ff6d06331387603ced0029",
  "source": "pragma solidity ^0.4.24;\n\nimport \"./Destructible.sol\";\nimport \"./ERC735.sol\";\nimport \"./KeyGetters.sol\";\nimport \"./KeyManager.sol\";\nimport \"./MultiSig.sol\";\nimport \"./ClaimManager.sol\";\nimport \"./Slice.sol\";\n\n/// @title MetaIdentity\n/// @author Metadium, genie\n/// @notice Identity contract implementing ERC 725, ERC 735 and Metadium features.\n\ncontract MetaIdentityLib is KeyManager, MultiSig, ClaimManager, Destructible, KeyGetters {\n    using Slice for bytes;\n    using Slice for string;\n\n    function init(address _managementKey) public {\n        bytes32 senderKey = addrToKey(_managementKey);\n        \n        // Add key that deployed the contract for MANAGEMENT, ACTION, CLAIM\n        _addKey(senderKey, MANAGEMENT_KEY, ECDSA_TYPE);\n        _addKey(senderKey, ACTION_KEY, ECDSA_TYPE);\n        _addKey(senderKey, CLAIM_SIGNER_KEY, ECDSA_TYPE);\n        \n        managementThreshold = 1;\n        actionThreshold = 1;\n\n        // Supports both ERC 725 & 735\n        supportedInterfaces[ERC725ID() ^ ERC735ID()] = true;\n    }\n    // Fallback function accepts Ether transactions\n    // solhint-disable-next-line no-empty-blocks\n    function () external payable {\n    }\n\n}",
  "sourcePath": "/Users/coinplug/BangGijin/metabolics2.0/contracts/identity/MetaIdentityLib.sol",
  "compiler": {
    "name": "solc",
    "version": "0.4.24+commit.e67f0147.Emscripten.clang"
  },
  "schemaVersion": "2.0.1",
  "updatedAt": "2018-11-05T06:17:20.441Z"
}