{
  "contractName": "Pausable",
  "abi": [
    {
      "constant": true,
      "inputs": [],
      "name": "MANAGEMENT_KEY",
      "outputs": [
        {
          "name": "",
          "type": "uint256"
        }
      ],
      "payable": false,
      "stateMutability": "view",
      "type": "function"
    },
    {
      "constant": true,
      "inputs": [],
      "name": "actionThreshold",
      "outputs": [
        {
          "name": "",
          "type": "uint256"
        }
      ],
      "payable": false,
      "stateMutability": "view",
      "type": "function"
    },
    {
      "constant": true,
      "inputs": [],
      "name": "paused",
      "outputs": [
        {
          "name": "",
          "type": "bool"
        }
      ],
      "payable": false,
      "stateMutability": "view",
      "type": "function"
    },
    {
      "constant": true,
      "inputs": [
        {
          "name": "addr",
          "type": "address"
        }
      ],
      "name": "addrToKey",
      "outputs": [
        {
          "name": "",
          "type": "bytes32"
        }
      ],
      "payable": false,
      "stateMutability": "pure",
      "type": "function"
    },
    {
      "constant": true,
      "inputs": [],
      "name": "managementThreshold",
      "outputs": [
        {
          "name": "",
          "type": "uint256"
        }
      ],
      "payable": false,
      "stateMutability": "view",
      "type": "function"
    },
    {
      "constant": true,
      "inputs": [],
      "name": "numKeys",
      "outputs": [
        {
          "name": "",
          "type": "uint256"
        }
      ],
      "payable": false,
      "stateMutability": "view",
      "type": "function"
    },
    {
      "anonymous": false,
      "inputs": [],
      "name": "LogPause",
      "type": "event"
    },
    {
      "anonymous": false,
      "inputs": [],
      "name": "LogUnpause",
      "type": "event"
    },
    {
      "constant": false,
      "inputs": [],
      "name": "pause",
      "outputs": [],
      "payable": false,
      "stateMutability": "nonpayable",
      "type": "function"
    },
    {
      "constant": false,
      "inputs": [],
      "name": "unpause",
      "outputs": [],
      "payable": false,
      "stateMutability": "nonpayable",
      "type": "function"
    }
  ],
  "bytecode": "0x60806040526001600081905580556005805460ff1916905534801561002357600080fd5b506103db806100336000396000f30060806040526004361061008d5763ffffffff7c0100000000000000000000000000000000000000000000000000000000600035041663058b316c811461009257806338f4edd4146100b95780633f4ba83a146100ce5780635c975abb146100e557806363f14c3c1461010e5780638456cb591461013c578063aa0a514214610151578063c9d24ecc14610166575b600080fd5b34801561009e57600080fd5b506100a761017b565b60408051918252519081900360200190f35b3480156100c557600080fd5b506100a7610180565b3480156100da57600080fd5b506100e3610186565b005b3480156100f157600080fd5b506100fa6101df565b604080519115158252519081900360200190f35b34801561011a57600080fd5b506100a773ffffffffffffffffffffffffffffffffffffffff600435166101e8565b34801561014857600080fd5b506100e3610201565b34801561015d57600080fd5b506100a761025c565b34801561017257600080fd5b506100a7610262565b600181565b60015481565b61018e610269565b151561019957600080fd5b60055460ff1615156101aa57600080fd5b6005805460ff191690556040517f730c1faaa977b67dacf1e2451ef54556e04a07d577785ff79f6d31f73502efc990600090a1565b60055460ff1681565b73ffffffffffffffffffffffffffffffffffffffff1690565b610209610269565b151561021457600080fd5b60055460ff161561022457600080fd5b6005805460ff191660011790556040517f4b314b34e912fda7f95e7d23e9c8c95f82f0aff1984e4ce592a0b005f905562490600090a1565b60005481565b6004545b90565b60003330141561027b57506001610266565b60005460011461028a57600080fd5b6102a6610296336101e8565b600290600163ffffffff6102ab16565b905090565b60006102b561038f565b600084815260208681526040808320815181546080948102820185019093526060810183815290939192849284919084018282801561031357602002820191906000526020600020905b8154815260200190600101908083116102ff575b50505091835250506001820154602082015260029091015460409182015281015190925015156103465760009250610386565b5060005b81515181101561038657815180518591908390811061036557fe5b90602001906020020151141561037e5760019250610386565b60010161034a565b50509392505050565b6040805160608181018352815260006020820181905291810191909152905600a165627a7a723058202e7200426b17630f2fa8981c40ea469ceb1dd3ad46775246d19490fc953128a20029",
  "source": "pragma solidity ^0.4.24;\n\nimport \"./KeyBase.sol\";\n\n/// @title Pausable\n/// @author genie\n/// @notice Base contract which allows children to implement an emergency stop mechanism\n/// @dev Inspired by https://github.com/OpenZeppelin/zeppelin-solidity/blob/master/contracts/lifecycle/Pausable.sol\n\ncontract Pausable is KeyBase {\n    event LogPause();\n    event LogUnpause();\n\n    bool public paused = false;\n\n    /// @dev Modifier to make a function callable only when the contract is not paused\n    modifier whenNotPaused() {\n        require(!paused);\n        _;\n    }\n\n    /// @dev Modifier to make a function callable only when the contract is paused\n    modifier whenPaused() {\n        require(paused);\n        _;\n    }\n\n    /// @dev called by a MANAGEMENT_KEY or the identity itself to pause, triggers stopped state\n    function pause()\n        public\n        onlyManagementOrSelf\n        whenNotPaused\n    {\n        paused = true;\n        emit LogPause();\n    }\n\n      /// @dev called by a MANAGEMENT_KEY or the identity itself to unpause, returns to normal state\n    function unpause()\n        public\n        onlyManagementOrSelf\n        whenPaused\n    {\n        paused = false;\n        emit LogUnpause();\n    }\n}\n",
  "sourcePath": "/Users/coinplug/BangGijin/metabolics2.0/contracts/identity/Pausable.sol",
  "compiler": {
    "name": "solc",
    "version": "0.4.24+commit.e67f0147.Emscripten.clang"
  },
  "schemaVersion": "2.0.1",
  "updatedAt": "2018-10-29T05:10:26.157Z"
}