{
  "contractName": "ProxyIdentityManager",
  "abi": [
    {
      "constant": true,
      "inputs": [],
      "name": "REG",
      "outputs": [
        {
          "name": "",
          "type": "address"
        }
      ],
      "payable": false,
      "stateMutability": "view",
      "type": "function"
    },
    {
      "constant": true,
      "inputs": [
        {
          "name": "_addr",
          "type": "address"
        }
      ],
      "name": "isPermitted",
      "outputs": [
        {
          "name": "found",
          "type": "bool"
        }
      ],
      "payable": false,
      "stateMutability": "view",
      "type": "function"
    },
    {
      "constant": true,
      "inputs": [],
      "name": "THIS_NAME",
      "outputs": [
        {
          "name": "",
          "type": "bytes32"
        }
      ],
      "payable": false,
      "stateMutability": "view",
      "type": "function"
    },
    {
      "constant": true,
      "inputs": [
        {
          "name": "",
          "type": "uint256"
        }
      ],
      "name": "metaIds",
      "outputs": [
        {
          "name": "",
          "type": "address"
        }
      ],
      "payable": false,
      "stateMutability": "view",
      "type": "function"
    },
    {
      "constant": true,
      "inputs": [],
      "name": "owner",
      "outputs": [
        {
          "name": "",
          "type": "address"
        }
      ],
      "payable": false,
      "stateMutability": "view",
      "type": "function"
    },
    {
      "constant": false,
      "inputs": [
        {
          "name": "_addr",
          "type": "address"
        }
      ],
      "name": "setRegistry",
      "outputs": [],
      "payable": false,
      "stateMutability": "nonpayable",
      "type": "function"
    },
    {
      "constant": false,
      "inputs": [
        {
          "name": "newOwner",
          "type": "address"
        }
      ],
      "name": "transferOwnership",
      "outputs": [],
      "payable": false,
      "stateMutability": "nonpayable",
      "type": "function"
    },
    {
      "inputs": [],
      "payable": false,
      "stateMutability": "nonpayable",
      "type": "constructor"
    },
    {
      "anonymous": false,
      "inputs": [
        {
          "indexed": true,
          "name": "managementKey",
          "type": "address"
        },
        {
          "indexed": false,
          "name": "metaId",
          "type": "address"
        }
      ],
      "name": "CreateMetaId",
      "type": "event"
    },
    {
      "anonymous": false,
      "inputs": [
        {
          "indexed": true,
          "name": "previousOwner",
          "type": "address"
        },
        {
          "indexed": true,
          "name": "newOwner",
          "type": "address"
        }
      ],
      "name": "OwnershipTransferred",
      "type": "event"
    },
    {
      "constant": false,
      "inputs": [
        {
          "name": "_managementKey",
          "type": "address"
        }
      ],
      "name": "createMetaId",
      "outputs": [
        {
          "name": "success",
          "type": "bool"
        }
      ],
      "payable": false,
      "stateMutability": "nonpayable",
      "type": "function"
    },
    {
      "constant": false,
      "inputs": [
        {
          "name": "_newImple",
          "type": "address"
        }
      ],
      "name": "setMetaIdLibImplementaion",
      "outputs": [
        {
          "name": "success",
          "type": "bool"
        }
      ],
      "payable": false,
      "stateMutability": "nonpayable",
      "type": "function"
    },
    {
      "constant": true,
      "inputs": [],
      "name": "getDeployedMetaIds",
      "outputs": [
        {
          "name": "addrs",
          "type": "address[]"
        }
      ],
      "payable": false,
      "stateMutability": "view",
      "type": "function"
    },
    {
      "constant": true,
      "inputs": [
        {
          "name": "_addr",
          "type": "address"
        }
      ],
      "name": "isMetaId",
      "outputs": [
        {
          "name": "found",
          "type": "bool"
        }
      ],
      "payable": false,
      "stateMutability": "view",
      "type": "function"
    },
    {
      "constant": true,
      "inputs": [],
      "name": "getLengthOfMetaIds",
      "outputs": [
        {
          "name": "length",
          "type": "uint256"
        }
      ],
      "payable": false,
      "stateMutability": "view",
      "type": "function"
    }
  ],
  "bytecode": "0x608060405234801561001057600080fd5b5060008054600160a060020a031916331790557f4964656e746974794d616e616765720000000000000000000000000000000000600255610fbd806100566000396000f3006080604052600436106100b95763ffffffff7c010000000000000000000000000000000000000000000000000000000060003504166312459b0081146100be57806339363112146100f35780633fd8cc4e1461012457806357296f07146101455780636383ed5c1461016c57806364319d0b1461018d57806373fd4e8f146101a25780638da5cb5b146101ba578063a91ee0dc146101cf578063ab1796cf146101f2578063df483f5314610257578063f2fde38b14610278575b600080fd5b3480156100ca57600080fd5b506100df600160a060020a0360043516610299565b604080519115158252519081900360200190f35b3480156100ff57600080fd5b506101086102b7565b60408051600160a060020a039092168252519081900360200190f35b34801561013057600080fd5b506100df600160a060020a03600435166102c6565b34801561015157600080fd5b5061015a61036d565b60408051918252519081900360200190f35b34801561017857600080fd5b506100df600160a060020a0360043516610373565b34801561019957600080fd5b5061015a61041e565b3480156101ae57600080fd5b50610108600435610424565b3480156101c657600080fd5b5061010861044c565b3480156101db57600080fd5b506101f0600160a060020a036004351661045b565b005b3480156101fe57600080fd5b506102076104a1565b60408051602080825283518183015283519192839290830191858101910280838360005b8381101561024357818101518382015260200161022b565b505050509050019250505060405180910390f35b34801561026357600080fd5b506100df600160a060020a0360043516610503565b34801561028457600080fd5b506101f0600160a060020a03600435166106f3565b600160a060020a031660009081526005602052604090205460ff1690565b600154600160a060020a031681565b600154600254604080517f60d6c7cf0000000000000000000000000000000000000000000000000000000081526004810192909252600160a060020a038481166024840152905160009391909116916360d6c7cf91604480830192602092919082900301818787803b15801561033b57600080fd5b505af115801561034f573d6000803e3d6000fd5b505050506040513d602081101561036557600080fd5b505192915050565b60045490565b6000600160a060020a03821615156103ec57604080517f08c379a000000000000000000000000000000000000000000000000000000000815260206004820152600c60248201527f7a65726f20616464726573730000000000000000000000000000000000000000604482015290519081900360640190fd5b5060038054600160a060020a03831673ffffffffffffffffffffffffffffffffffffffff199091161790556001919050565b60025481565b600480548290811061043257fe5b600091825260209091200154600160a060020a0316905081565b600054600160a060020a031681565b600054600160a060020a0316331461047257600080fd5b6001805473ffffffffffffffffffffffffffffffffffffffff1916600160a060020a0392909216919091179055565b606060048054806020026020016040519081016040528092919081815260200182805480156104f957602002820191906000526020600020905b8154600160a060020a031681526001909101906020018083116104db575b5050505050905090565b60008061050f336102c6565b151561057c57604080517f08c379a000000000000000000000000000000000000000000000000000000000815260206004820152600d60248201527f4e6f205065726d697373696f6e00000000000000000000000000000000000000604482015290519081900360640190fd5b600160a060020a03831615156105f357604080517f08c379a000000000000000000000000000000000000000000000000000000000815260206004820152600e60248201527f6164647265737320697320307830000000000000000000000000000000000000604482015290519081900360640190fd5b600354600160a060020a031683610608610787565b600160a060020a03928316815291166020820152604080519182900301906000f08015801561063b573d6000803e3d6000fd5b506004805460018082019092557f8a35acfbc15ff81a39ae7d344fd709f28e8600b4aa8c65c6b64bfe7fe36bd19b01805473ffffffffffffffffffffffffffffffffffffffff1916600160a060020a03848116918217909255600081815260056020908152604091829020805460ff1916909517909455805191825251939450908616927f530662d7f09b3ad99f1a6c386579d429bed60b5cb0ffd969d5367a601bab3471929181900390910190a250600192915050565b600054600160a060020a0316331461070a57600080fd5b600160a060020a038116151561071f57600080fd5b60008054604051600160a060020a03808516939216917f8be0079c531659141344cd1fd0a4f28419497f9722a3daafe3b4186f6b6457e091a36000805473ffffffffffffffffffffffffffffffffffffffff1916600160a060020a0392909216919091179055565b6040516107fa806107988339019056006080604052600180805560028190556006805460ff1916905560075534801561002757600080fd5b506040516040806107fa83398101604081815282516020909301517f696e6974286164647265737329000000000000000000000000000000000000008352905191829003600d01909120600e8054600160a060020a038516600160a060020a0319909116179055600080806100a36401000000006100d1810204565b9250602091508360005281823803600439600080600484016000866127105a03f49050505050505050610187565b600e54604080517f0d2020dd0000000000000000000000000000000000000000000000000000000081527f4d65746149644c6962726172795631000000000000000000000000000000000060048201529051600092600160a060020a031691630d2020dd91602480830192602092919082900301818787803b15801561015657600080fd5b505af115801561016a573d6000803e3d6000fd5b505050506040513d602081101561018057600080fd5b5051905090565b610664806101966000396000f3006080604052600436106100a35763ffffffff7c010000000000000000000000000000000000000000000000000000000060003504166338f4edd481146100e95780634555d5c9146101105780635c60da1b146101255780635c975abb146101565780635dccebba1461017f5780636e4c431114610236578063a91ee0dc14610251578063aa0a514214610272578063affed0e014610287578063fc0fc8491461029c575b60006100ad6102b1565b9050600160a060020a03811615156100c457600080fd5b60405136600082376000803683855af43d806000843e8180156100e5578184f35b8184fd5b3480156100f557600080fd5b506100fe610367565b60408051918252519081900360200190f35b34801561011c57600080fd5b506100fe61036d565b34801561013157600080fd5b5061013a6102b1565b60408051600160a060020a039092168252519081900360200190f35b34801561016257600080fd5b5061016b610372565b604080519115158252519081900360200190f35b34801561018b57600080fd5b5061019760043561037b565b6040518085600160a060020a0316600160a060020a0316815260200184815260200180602001838152602001828103825284818151815260200191508051906020019080838360005b838110156101f85781810151838201526020016101e0565b50505050905090810190601f1680156102255780820380516001836020036101000a031916815260200191505b509550505050505060405180910390f35b34801561024257600080fd5b5061013a600435602435610437565b34801561025d57600080fd5b5061016b600160a060020a036004351661046e565b34801561027e57600080fd5b506100fe610522565b34801561029357600080fd5b506100fe610528565b3480156102a857600080fd5b506100fe61052e565b600e54604080517f0d2020dd0000000000000000000000000000000000000000000000000000000081527f4d65746149644c6962726172795631000000000000000000000000000000000060048201529051600092600160a060020a031691630d2020dd91602480830192602092919082900301818787803b15801561033657600080fd5b505af115801561034a573d6000803e3d6000fd5b505050506040513d602081101561036057600080fd5b5051905090565b60025481565b600290565b60065460ff1681565b60086020908152600091825260409182902080546001808301546002808501805488516101009582161595909502600019011691909104601f8101879004870284018701909752868352600160a060020a039093169590949192918301828280156104275780601f106103fc57610100808354040283529160200191610427565b820191906000526020600020905b81548152906001019060200180831161040a57829003601f168201915b5050505050908060030154905084565b60096020528160005260406000208181548110151561045257fe5b600091825260209091200154600160a060020a03169150829050565b6000610483600333600163ffffffff61053416565b15156104f057604080517f08c379a000000000000000000000000000000000000000000000000000000000815260206004820152601460248201527f6e6f742061206d616e6167656d656e74206b6579000000000000000000000000604482015290519081900360640190fd5b50600e8054600160a060020a03831673ffffffffffffffffffffffffffffffffffffffff199091161790556001919050565b60015481565b60075481565b600c5481565b600061053e610618565b600084815260208681526040808320815181546080948102820185019093526060810183815290939192849284919084018282801561059c57602002820191906000526020600020905b815481526020019060010190808311610588575b50505091835250506001820154602082015260029091015460409182015281015190925015156105cf576000925061060f565b5060005b81515181101561060f5781518051859190839081106105ee57fe5b906020019060200201511415610607576001925061060f565b6001016105d3565b50509392505050565b6040805160608181018352815260006020820181905291810191909152905600a165627a7a72305820e484a2a6a6b158dc3af0480232a23386db59fc1f4851c92ca92d966eb1a70b2e0029a165627a7a723058200602300b18ef143e1f5881718e287f4b70681bb2e25c2b58052c9cf0975efc860029",
  "source": "pragma solidity ^0.4.24;\n\nimport \"./openzeppelin-solidity/contracts/ownership/Ownable.sol\";\nimport \"./identity/MetaIdentityUsingLib.sol\";\nimport \"./RegistryUser.sol\";\n\n\n/**\n * @title ProxyIdentityManager\n * @dev ProxyIdentityManager is factory contract to make identity\n * permissoined sender can create metadium identity through this contract\n */\ncontract ProxyIdentityManager is RegistryUser {\n    //Hold the list of MetaIds\n    //CreateMetaId\n    \n    address libImplementaion;\n    address[] public metaIds;\n    mapping(address=>bool) metaIdExistence;\n\n    event CreateMetaId(address indexed managementKey, address metaId);\n    \n    constructor() public {\n        THIS_NAME = \"IdentityManager\";\n    }\n\n\n    /**\n     * @dev Create Metadium Identity which is based upon erc725-735 \n     * @param _managementKey basic managementKey to use\n     * @return A boolean that indicates if the operation was successful.\n     */\n    function createMetaId(address _managementKey) public permissioned returns (bool success) {\n        require(_managementKey != address(0), \"address is 0x0\");\n\n        address newMetaId = new MetaIdentityUsingLib(libImplementaion, _managementKey);\n        metaIds.push(newMetaId);\n        metaIdExistence[newMetaId] = true;\n\n        emit CreateMetaId(_managementKey, newMetaId);\n\n        return true;\n\n    }\n\n    function setMetaIdLibImplementaion(address _newImple) public returns(bool success) {\n        require(_newImple != address(0), \"zero address\");\n        libImplementaion = _newImple;\n        return true;\n    }\n\n    function getDeployedMetaIds() public view returns(address[] addrs) {\n        return metaIds;\n    }\n\n    function isMetaId(address _addr) public view returns(bool found) {\n        return metaIdExistence[_addr];\n    }\n\n    function getLengthOfMetaIds() public view returns(uint256 length) {\n        return metaIds.length;\n    }\n\n}",
  "sourcePath": "/Users/coinplug/BangGijin/metabolics2.0/contracts/ProxyIdentityManager.sol",
  "compiler": {
    "name": "solc",
    "version": "0.4.24+commit.e67f0147.Emscripten.clang"
  },
  "schemaVersion": "2.0.1",
  "updatedAt": "2018-12-05T10:52:44.075Z"
}