{
  "contractName": "ProxyIdentityManager",
  "abi": [
    {
      "constant": true,
      "inputs": [],
      "name": "REG",
      "outputs": [
        {
          "name": "",
          "type": "address"
        }
      ],
      "payable": false,
      "stateMutability": "view",
      "type": "function"
    },
    {
      "constant": true,
      "inputs": [
        {
          "name": "_addr",
          "type": "address"
        }
      ],
      "name": "isPermitted",
      "outputs": [
        {
          "name": "found",
          "type": "bool"
        }
      ],
      "payable": false,
      "stateMutability": "view",
      "type": "function"
    },
    {
      "constant": true,
      "inputs": [],
      "name": "THIS_NAME",
      "outputs": [
        {
          "name": "",
          "type": "bytes32"
        }
      ],
      "payable": false,
      "stateMutability": "view",
      "type": "function"
    },
    {
      "constant": true,
      "inputs": [
        {
          "name": "",
          "type": "uint256"
        }
      ],
      "name": "metaIds",
      "outputs": [
        {
          "name": "",
          "type": "address"
        }
      ],
      "payable": false,
      "stateMutability": "view",
      "type": "function"
    },
    {
      "constant": true,
      "inputs": [],
      "name": "owner",
      "outputs": [
        {
          "name": "",
          "type": "address"
        }
      ],
      "payable": false,
      "stateMutability": "view",
      "type": "function"
    },
    {
      "constant": false,
      "inputs": [
        {
          "name": "_addr",
          "type": "address"
        }
      ],
      "name": "setRegistry",
      "outputs": [],
      "payable": false,
      "stateMutability": "nonpayable",
      "type": "function"
    },
    {
      "constant": false,
      "inputs": [
        {
          "name": "newOwner",
          "type": "address"
        }
      ],
      "name": "transferOwnership",
      "outputs": [],
      "payable": false,
      "stateMutability": "nonpayable",
      "type": "function"
    },
    {
      "inputs": [],
      "payable": false,
      "stateMutability": "nonpayable",
      "type": "constructor"
    },
    {
      "anonymous": false,
      "inputs": [
        {
          "indexed": true,
          "name": "managementKey",
          "type": "address"
        },
        {
          "indexed": false,
          "name": "metaId",
          "type": "address"
        }
      ],
      "name": "CreateMetaId",
      "type": "event"
    },
    {
      "anonymous": false,
      "inputs": [
        {
          "indexed": true,
          "name": "previousOwner",
          "type": "address"
        },
        {
          "indexed": true,
          "name": "newOwner",
          "type": "address"
        }
      ],
      "name": "OwnershipTransferred",
      "type": "event"
    },
    {
      "constant": false,
      "inputs": [
        {
          "name": "_managementKey",
          "type": "address"
        }
      ],
      "name": "createMetaId",
      "outputs": [
        {
          "name": "success",
          "type": "bool"
        }
      ],
      "payable": false,
      "stateMutability": "nonpayable",
      "type": "function"
    },
    {
      "constant": true,
      "inputs": [],
      "name": "getDeployedMetaIds",
      "outputs": [
        {
          "name": "addrs",
          "type": "address[]"
        }
      ],
      "payable": false,
      "stateMutability": "view",
      "type": "function"
    },
    {
      "constant": true,
      "inputs": [
        {
          "name": "_addr",
          "type": "address"
        }
      ],
      "name": "isMetaId",
      "outputs": [
        {
          "name": "found",
          "type": "bool"
        }
      ],
      "payable": false,
      "stateMutability": "view",
      "type": "function"
    },
    {
      "constant": true,
      "inputs": [],
      "name": "getLengthOfMetaIds",
      "outputs": [
        {
          "name": "length",
          "type": "uint256"
        }
      ],
      "payable": false,
      "stateMutability": "view",
      "type": "function"
    }
  ],
  "bytecode": "0x608060405234801561001057600080fd5b5060008054600160a060020a031916331790557f4964656e746974794d616e616765720000000000000000000000000000000000600255610ccb806100566000396000f3006080604052600436106100ae5763ffffffff7c010000000000000000000000000000000000000000000000000000000060003504166312459b0081146100b357806339363112146100e85780633fd8cc4e1461011957806357296f071461013a57806364319d0b1461016157806373fd4e8f146101765780638da5cb5b1461018e578063a91ee0dc146101a3578063ab1796cf146101c6578063df483f531461022b578063f2fde38b1461024c575b600080fd5b3480156100bf57600080fd5b506100d4600160a060020a036004351661026d565b604080519115158252519081900360200190f35b3480156100f457600080fd5b506100fd61028b565b60408051600160a060020a039092168252519081900360200190f35b34801561012557600080fd5b506100d4600160a060020a036004351661029a565b34801561014657600080fd5b5061014f610341565b60408051918252519081900360200190f35b34801561016d57600080fd5b5061014f610347565b34801561018257600080fd5b506100fd60043561034d565b34801561019a57600080fd5b506100fd610375565b3480156101af57600080fd5b506101c4600160a060020a0360043516610384565b005b3480156101d257600080fd5b506101db6103ca565b60408051602080825283518183015283519192839290830191858101910280838360005b838110156102175781810151838201526020016101ff565b505050509050019250505060405180910390f35b34801561023757600080fd5b506100d4600160a060020a036004351661042c565b34801561025857600080fd5b506101c4600160a060020a03600435166105f8565b600160a060020a031660009081526004602052604090205460ff1690565b600154600160a060020a031681565b600154600254604080517f60d6c7cf0000000000000000000000000000000000000000000000000000000081526004810192909252600160a060020a038481166024840152905160009391909116916360d6c7cf91604480830192602092919082900301818787803b15801561030f57600080fd5b505af1158015610323573d6000803e3d6000fd5b505050506040513d602081101561033957600080fd5b505192915050565b60035490565b60025481565b600380548290811061035b57fe5b600091825260209091200154600160a060020a0316905081565b600054600160a060020a031681565b600054600160a060020a0316331461039b57600080fd5b6001805473ffffffffffffffffffffffffffffffffffffffff1916600160a060020a0392909216919091179055565b6060600380548060200260200160405190810160405280929190818152602001828054801561042257602002820191906000526020600020905b8154600160a060020a03168152600190910190602001808311610404575b5050505050905090565b6000806104383361029a565b15156104a557604080517f08c379a000000000000000000000000000000000000000000000000000000000815260206004820152600d60248201527f4e6f205065726d697373696f6e00000000000000000000000000000000000000604482015290519081900360640190fd5b600160a060020a038316151561051c57604080517f08c379a000000000000000000000000000000000000000000000000000000000815260206004820152600e60248201527f6164647265737320697320307830000000000000000000000000000000000000604482015290519081900360640190fd5b61052461068c565b604051809103906000f080158015610540573d6000803e3d6000fd5b506003805460018082019092557fc2575a0e9e593c00f959f8c92f12db2869c3395a3b0502d05e2516446f71f85b01805473ffffffffffffffffffffffffffffffffffffffff1916600160a060020a03848116918217909255600081815260046020908152604091829020805460ff1916909517909455805191825251939450908616927f530662d7f09b3ad99f1a6c386579d429bed60b5cb0ffd969d5367a601bab3471929181900390910190a250600192915050565b600054600160a060020a0316331461060f57600080fd5b600160a060020a038116151561062457600080fd5b60008054604051600160a060020a03808516939216917f8be0079c531659141344cd1fd0a4f28419497f9722a3daafe3b4186f6b6457e091a36000805473ffffffffffffffffffffffffffffffffffffffff1916600160a060020a0392909216919091179055565b6040516106038061069d8339019056006080604052600180805560028190556006805460ff19169055600a5534801561002757600080fd5b506105cc806100376000396000f3006080604052600436106101695763ffffffff7c01000000000000000000000000000000000000000000000000000000006000350416630440b43a81146101af578063058b316c146101d6578063251de3e9146101af5780632d32d442146101eb57806338f4edd4146102005780634555d5c91461021557806349991ec8146101d65780635c60da1b1461022a5780635c975abb1461025b5780635dccebba146102845780636e4c43111461033b578063710ca550146101d657806375e5598c146101eb57806382d09446146101d65780639e140cc814610356578063a550f0c7146101eb578063aa0a51421461036b578063ae62838614610356578063affed0e014610380578063b132734e14610395578063b1e9f64c146103aa578063b9133d63146103bf578063c6702187146101af578063d784d426146103d4578063dbfa74b7146103aa578063ead09fab146103f5578063f22d08a6146101eb578063fc0fc8491461040a575b600061017361041f565b9050600160a060020a038116151561018a57600080fd5b60405136600082376000803683855af43d806000843e8180156101ab578184f35b8184fd5b3480156101bb57600080fd5b506101c461042e565b60408051918252519081900360200190f35b3480156101e257600080fd5b506101c4610433565b3480156101f757600080fd5b506101c4610438565b34801561020c57600080fd5b506101c461043d565b34801561022157600080fd5b506101c4610443565b34801561023657600080fd5b5061023f61041f565b60408051600160a060020a039092168252519081900360200190f35b34801561026757600080fd5b50610270610448565b604080519115158252519081900360200190f35b34801561029057600080fd5b5061029c600435610451565b6040518085600160a060020a0316600160a060020a0316815260200184815260200180602001838152602001828103825284818151815260200191508051906020019080838360005b838110156102fd5781810151838201526020016102e5565b50505050905090810190601f16801561032a5780820380516001836020036101000a031916815260200191505b509550505050505060405180910390f35b34801561034757600080fd5b5061023f60043560243561050d565b34801561036257600080fd5b506101c4610544565b34801561037757600080fd5b506101c4610549565b34801561038c57600080fd5b506101c461054f565b3480156103a157600080fd5b506101c4610555565b3480156103b657600080fd5b506101c461055a565b3480156103cb57600080fd5b506101c461055f565b3480156103e057600080fd5b50610270600160a060020a0360043516610564565b34801561040157600080fd5b506101c4610595565b34801561041657600080fd5b506101c461059a565b600d54600160a060020a031690565b600381565b600181565b600281565b60025481565b600290565b60065460ff1681565b600b6020908152600091825260409182902080546001808301546002808501805488516101009582161595909502600019011691909104601f8101879004870284018701909752868352600160a060020a039093169590949192918301828280156104fd5780601f106104d2576101008083540402835291602001916104fd565b820191906000526020600020905b8154815290600101906020018083116104e057829003601f168201915b5050505050908060030154905084565b600c6020528160005260406000208181548110151561052857fe5b600091825260209091200154600160a060020a03169150829050565b600481565b60015481565b600a5481565b600881565b600581565b600781565b600d8054600160a060020a03831673ffffffffffffffffffffffffffffffffffffffff199091161790556001919050565b600681565b600954815600a165627a7a723058203f845f9f566c2cb86acce63b073152845e2eb993268bed6cb4b2ac7ff4ec096c0029a165627a7a723058207f7a217040451a80ad77ef8ff88ad161e6f8a0458b5dd93776e2c592b90af7050029",
  "source": "pragma solidity ^0.4.24;\n\nimport \"./openzeppelin-solidity/contracts/ownership/Ownable.sol\";\nimport \"./identity/MetaIdentityUsingLib.sol\";\nimport \"./RegistryUser.sol\";\n\n\n/**\n * @title ProxyIdentityManager\n * @dev ProxyIdentityManager is factory contract to make identity\n * permissoined sender can create metadium identity through this contract\n */\ncontract ProxyIdentityManager is RegistryUser {\n    //Hold the list of MetaIds\n    //CreateMetaId\n    \n    address[] public metaIds;\n    mapping(address=>bool) metaIdExistence;\n\n    event CreateMetaId(address indexed managementKey, address metaId);\n    \n    constructor() public {\n        THIS_NAME = \"IdentityManager\";\n    }\n\n\n    /**\n     * @dev Create Metadium Identity which is based upon erc725-735 \n     * @param _managementKey basic managementKey to use\n     * @return A boolean that indicates if the operation was successful.\n     */\n    function createMetaId(address _managementKey) public permissioned returns (bool success) {\n        require(_managementKey != address(0), \"address is 0x0\");\n\n        address newMetaId = new MetaIdentityUsingLib();\n        metaIds.push(newMetaId);\n        metaIdExistence[newMetaId] = true;\n\n        emit CreateMetaId(_managementKey, newMetaId);\n\n        return true;\n\n    }\n    \n    function getDeployedMetaIds() public view returns(address[] addrs) {\n        return metaIds;\n    }\n\n    function isMetaId(address _addr) public view returns(bool found) {\n        return metaIdExistence[_addr];\n    }\n\n    function getLengthOfMetaIds() public view returns(uint256 length) {\n        return metaIds.length;\n    }\n\n}",
  "sourcePath": "/Users/coinplug/BangGijin/metabolics2.0/contracts/ProxyIdentityManager.sol",
  "compiler": {
    "name": "solc",
    "version": "0.4.24+commit.e67f0147.Emscripten.clang"
  },
  "schemaVersion": "2.0.1",
  "updatedAt": "2018-11-15T06:28:36.654Z"
}