{
  "contractName": "Registry",
  "abi": [
    {
      "constant": true,
      "inputs": [
        {
          "name": "",
          "type": "bytes32"
        },
        {
          "name": "",
          "type": "address"
        }
      ],
      "name": "permissions",
      "outputs": [
        {
          "name": "",
          "type": "bool"
        }
      ],
      "payable": false,
      "stateMutability": "view",
      "type": "function"
    },
    {
      "constant": true,
      "inputs": [],
      "name": "owner",
      "outputs": [
        {
          "name": "",
          "type": "address"
        }
      ],
      "payable": false,
      "stateMutability": "view",
      "type": "function"
    },
    {
      "constant": true,
      "inputs": [
        {
          "name": "",
          "type": "bytes32"
        }
      ],
      "name": "contracts",
      "outputs": [
        {
          "name": "",
          "type": "address"
        }
      ],
      "payable": false,
      "stateMutability": "view",
      "type": "function"
    },
    {
      "constant": false,
      "inputs": [
        {
          "name": "newOwner",
          "type": "address"
        }
      ],
      "name": "transferOwnership",
      "outputs": [],
      "payable": false,
      "stateMutability": "nonpayable",
      "type": "function"
    },
    {
      "anonymous": false,
      "inputs": [
        {
          "indexed": true,
          "name": "previousOwner",
          "type": "address"
        },
        {
          "indexed": true,
          "name": "newOwner",
          "type": "address"
        }
      ],
      "name": "OwnershipTransferred",
      "type": "event"
    },
    {
      "constant": false,
      "inputs": [
        {
          "name": "_name",
          "type": "bytes32"
        },
        {
          "name": "_addr",
          "type": "address"
        }
      ],
      "name": "setContractDomain",
      "outputs": [],
      "payable": false,
      "stateMutability": "nonpayable",
      "type": "function"
    },
    {
      "constant": true,
      "inputs": [
        {
          "name": "_name",
          "type": "bytes32"
        }
      ],
      "name": "getContractAddress",
      "outputs": [
        {
          "name": "",
          "type": "address"
        }
      ],
      "payable": false,
      "stateMutability": "view",
      "type": "function"
    },
    {
      "constant": false,
      "inputs": [
        {
          "name": "_contract",
          "type": "bytes32"
        },
        {
          "name": "_granted",
          "type": "address"
        },
        {
          "name": "_status",
          "type": "bool"
        }
      ],
      "name": "setPermission",
      "outputs": [
        {
          "name": "",
          "type": "bool"
        }
      ],
      "payable": false,
      "stateMutability": "nonpayable",
      "type": "function"
    },
    {
      "constant": true,
      "inputs": [
        {
          "name": "_contract",
          "type": "bytes32"
        },
        {
          "name": "_granted",
          "type": "address"
        }
      ],
      "name": "getPermission",
      "outputs": [
        {
          "name": "",
          "type": "bool"
        }
      ],
      "payable": false,
      "stateMutability": "view",
      "type": "function"
    }
  ],
  "bytecode": "0x608060405260008054600160a060020a03191633179055610400806100256000396000f30060806040526004361061008d5763ffffffff7c010000000000000000000000000000000000000000000000000000000060003504166304af66ad81146100925780630d2020dd146100b85780633ec50c6c146100ec578063599e4c701461012457806360d6c7cf1461014d5780638da5cb5b14610171578063ec56a37314610186578063f2fde38b1461019e575b600080fd5b34801561009e57600080fd5b506100b6600435600160a060020a03602435166101bf565b005b3480156100c457600080fd5b506100d0600435610226565b60408051600160a060020a039092168252519081900360200190f35b3480156100f857600080fd5b50610110600435600160a060020a0360243516610265565b604080519115158252519081900360200190f35b34801561013057600080fd5b50610110600435600160a060020a03602435166044351515610285565b34801561015957600080fd5b50610110600435600160a060020a03602435166102eb565b34801561017d57600080fd5b506100d0610316565b34801561019257600080fd5b506100d0600435610325565b3480156101aa57600080fd5b506100b6600160a060020a0360043516610340565b600054600160a060020a031633146101d657600080fd5b600160a060020a03811615156101eb57600080fd5b600091825260016020526040909120805473ffffffffffffffffffffffffffffffffffffffff1916600160a060020a03909216919091179055565b600081815260016020526040812054600160a060020a0316151561024957600080fd5b50600090815260016020526040902054600160a060020a031690565b600260209081526000928352604080842090915290825290205460ff1681565b60008054600160a060020a0316331461029d57600080fd5b600160a060020a03831615156102b257600080fd5b506000928352600260209081526040808520600160a060020a039490941685529290529120805460ff1916911515919091179055600190565b6000918252600260209081526040808420600160a060020a0393909316845291905290205460ff1690565b600054600160a060020a031681565b600160205260009081526040902054600160a060020a031681565b600054600160a060020a0316331461035757600080fd5b600160a060020a038116151561036c57600080fd5b60008054604051600160a060020a03808516939216917f8be0079c531659141344cd1fd0a4f28419497f9722a3daafe3b4186f6b6457e091a36000805473ffffffffffffffffffffffffffffffffffffffff1916600160a060020a03929092169190911790555600a165627a7a72305820688f1eac814009caa61dff0315c493c92fd0431e793611dee26ac3b4dc2af6280029",
  "source": "pragma solidity ^0.4.24;\n\nimport \"./openzeppelin-solidity/contracts/ownership/Ownable.sol\";\n\n/**\n * @title Registry\n * @dev Registry Contract used to set domain and permission\n * The contracts used by the permissioned user in ShowMe references permission in this contract.\n * Not only contract address but also general address can be set in this contract.\n * Owner should set domain and permission.\n */\ncontract Registry is Ownable{\n    \n    mapping(bytes32=>address) public contracts;\n    mapping(bytes32=>mapping(address=>bool)) public permissions;\n\n    /**\n    * @dev Function to set contract(can be general address) domain\n    * Only owner can use this function\n    * @param _name name\n    * @param _addr address\n    * @return A boolean that indicates if the operation was successful.\n    */\n    function setContractDomain(bytes32 _name, address _addr) onlyOwner public {\n        require(_addr != address(0x0));\n        contracts[_name] = _addr;\n        //TODO should decide whether to set 0x00 to destoryed contract or not\n        \n\n    }\n    /**\n    * @dev Function to get contract(can be general address) address\n    * Anyone can use this function\n    * @param _name _name\n    * @return An address of the _name\n    */\n    function getContractAddress(bytes32 _name) public view returns(address) {\n        require(contracts[_name] != address(0x0));\n        return contracts[_name];\n    }\n    /**\n    * @dev Function to set permission on contract\n    * contract using modifier 'permissioned' references mapping variable 'permissions'\n    * Only owner can use this function\n    * @param _contract contract name\n    * @param _granted granted address\n    * @param _status true = can use, false = cannot use. default is false\n    * @return A boolean that indicates if the operation was successful.\n    */\n    function setPermission(bytes32 _contract, address _granted, bool _status) onlyOwner public returns(bool) {\n        require(_granted != address(0x0));\n        permissions[_contract][_granted] = _status;\n        return true;\n    }\n\n    /**\n    * @dev Function to get permission on contract\n    * contract using modifier 'permissioned' references mapping variable 'permissions'\n    * @param _contract contract name\n    * @param _granted granted address\n    * @return permission result\n    */\n    function getPermission(bytes32 _contract, address _granted) public view returns(bool) {\n        return permissions[_contract][_granted];\n    }\n    \n}",
  "sourcePath": "/Users/coinplug/BangGijin/metabolics2.0/contracts/Registry.sol",
  "compiler": {
    "name": "solc",
    "version": "0.4.24+commit.e67f0147.Emscripten.clang"
  },
  "schemaVersion": "2.0.1",
  "updatedAt": "2018-10-22T04:51:30.621Z"
}