{
  "contractName": "Registry",
  "abi": [
    {
      "constant": true,
      "inputs": [
        {
          "name": "",
          "type": "bytes32"
        },
        {
          "name": "",
          "type": "address"
        }
      ],
      "name": "permissions",
      "outputs": [
        {
          "name": "",
          "type": "bool"
        }
      ],
      "payable": false,
      "stateMutability": "view",
      "type": "function"
    },
    {
      "constant": true,
      "inputs": [],
      "name": "owner",
      "outputs": [
        {
          "name": "",
          "type": "address"
        }
      ],
      "payable": false,
      "stateMutability": "view",
      "type": "function"
    },
    {
      "constant": true,
      "inputs": [
        {
          "name": "",
          "type": "bytes32"
        }
      ],
      "name": "contracts",
      "outputs": [
        {
          "name": "",
          "type": "address"
        }
      ],
      "payable": false,
      "stateMutability": "view",
      "type": "function"
    },
    {
      "constant": false,
      "inputs": [
        {
          "name": "newOwner",
          "type": "address"
        }
      ],
      "name": "transferOwnership",
      "outputs": [],
      "payable": false,
      "stateMutability": "nonpayable",
      "type": "function"
    },
    {
      "anonymous": false,
      "inputs": [
        {
          "indexed": false,
          "name": "setter",
          "type": "address"
        },
        {
          "indexed": true,
          "name": "name",
          "type": "bytes32"
        },
        {
          "indexed": true,
          "name": "addr",
          "type": "address"
        }
      ],
      "name": "SetContractDomain",
      "type": "event"
    },
    {
      "anonymous": false,
      "inputs": [
        {
          "indexed": true,
          "name": "_contract",
          "type": "bytes32"
        },
        {
          "indexed": true,
          "name": "granted",
          "type": "address"
        },
        {
          "indexed": false,
          "name": "status",
          "type": "bool"
        }
      ],
      "name": "SetPermission",
      "type": "event"
    },
    {
      "anonymous": false,
      "inputs": [
        {
          "indexed": true,
          "name": "previousOwner",
          "type": "address"
        },
        {
          "indexed": true,
          "name": "newOwner",
          "type": "address"
        }
      ],
      "name": "OwnershipTransferred",
      "type": "event"
    },
    {
      "constant": false,
      "inputs": [
        {
          "name": "_name",
          "type": "bytes32"
        },
        {
          "name": "_addr",
          "type": "address"
        }
      ],
      "name": "setContractDomain",
      "outputs": [
        {
          "name": "success",
          "type": "bool"
        }
      ],
      "payable": false,
      "stateMutability": "nonpayable",
      "type": "function"
    },
    {
      "constant": true,
      "inputs": [
        {
          "name": "_name",
          "type": "bytes32"
        }
      ],
      "name": "getContractAddress",
      "outputs": [
        {
          "name": "addr",
          "type": "address"
        }
      ],
      "payable": false,
      "stateMutability": "view",
      "type": "function"
    },
    {
      "constant": false,
      "inputs": [
        {
          "name": "_contract",
          "type": "bytes32"
        },
        {
          "name": "_granted",
          "type": "address"
        },
        {
          "name": "_status",
          "type": "bool"
        }
      ],
      "name": "setPermission",
      "outputs": [
        {
          "name": "success",
          "type": "bool"
        }
      ],
      "payable": false,
      "stateMutability": "nonpayable",
      "type": "function"
    },
    {
      "constant": true,
      "inputs": [
        {
          "name": "_contract",
          "type": "bytes32"
        },
        {
          "name": "_granted",
          "type": "address"
        }
      ],
      "name": "getPermission",
      "outputs": [
        {
          "name": "found",
          "type": "bool"
        }
      ],
      "payable": false,
      "stateMutability": "view",
      "type": "function"
    }
  ],
  "bytecode": "0x608060405260008054600160a060020a03191633179055610474806100256000396000f30060806040526004361061008d5763ffffffff7c010000000000000000000000000000000000000000000000000000000060003504166304af66ad81146100925780630d2020dd146100ca5780633ec50c6c146100fe578063599e4c701461012257806360d6c7cf1461014b5780638da5cb5b1461016f578063ec56a37314610184578063f2fde38b1461019c575b600080fd5b34801561009e57600080fd5b506100b6600435600160a060020a03602435166101bf565b604080519115158252519081900360200190f35b3480156100d657600080fd5b506100e2600435610264565b60408051600160a060020a039092168252519081900360200190f35b34801561010a57600080fd5b506100b6600435600160a060020a03602435166102a3565b34801561012e57600080fd5b506100b6600435600160a060020a036024351660443515156102c3565b34801561015757600080fd5b506100b6600435600160a060020a036024351661035f565b34801561017b57600080fd5b506100e261038a565b34801561019057600080fd5b506100e2600435610399565b3480156101a857600080fd5b506101bd600160a060020a03600435166103b4565b005b60008054600160a060020a031633146101d757600080fd5b600160a060020a03821615156101ec57600080fd5b600083815260016020908152604091829020805473ffffffffffffffffffffffffffffffffffffffff1916600160a060020a03861690811790915582513381529251909286927f37724a4a9968ac9654e6ee52f3d0c93e5ef8863e057254ee2e36e8ad3e8429db92918290030190a350600192915050565b600081815260016020526040812054600160a060020a0316151561028757600080fd5b50600090815260016020526040902054600160a060020a031690565b600260209081526000928352604080842090915290825290205460ff1681565b60008054600160a060020a031633146102db57600080fd5b600160a060020a03831615156102f057600080fd5b6000848152600260209081526040808320600160a060020a03871680855290835292819020805460ff19168615159081179091558151908152905187927fe9f5231bbfb4b32867755b94562215cff6c8998489de8ba20926f8d0980e7818928290030190a35060019392505050565b6000918252600260209081526040808420600160a060020a0393909316845291905290205460ff1690565b600054600160a060020a031681565b600160205260009081526040902054600160a060020a031681565b600054600160a060020a031633146103cb57600080fd5b600160a060020a03811615156103e057600080fd5b60008054604051600160a060020a03808516939216917f8be0079c531659141344cd1fd0a4f28419497f9722a3daafe3b4186f6b6457e091a36000805473ffffffffffffffffffffffffffffffffffffffff1916600160a060020a03929092169190911790555600a165627a7a72305820993964f91bddfba7f681cfe5975d4c4a552143e02f190beab92f81f883e965780029",
  "source": "pragma solidity ^0.4.24;\n\nimport \"./openzeppelin-solidity/contracts/ownership/Ownable.sol\";\n\n/**\n * @title Registry\n * @dev Registry Contract used to set domain and permission\n * The contracts used by the permissioned user in ShowMe references permission in this contract.\n * Not only contract address but also general address can be set in this contract.\n * Owner should set domain and permission.\n */\ncontract Registry is Ownable{\n    \n    mapping(bytes32=>address) public contracts;\n    mapping(bytes32=>mapping(address=>bool)) public permissions;\n\n    event SetContractDomain(address setter, bytes32 indexed name, address indexed addr);\n    event SetPermission(bytes32 indexed _contract, address indexed granted, bool status);\n\n\n    /**\n    * @dev Function to set contract(can be general address) domain\n    * Only owner can use this function\n    * @param _name name\n    * @param _addr address\n    * @return A boolean that indicates if the operation was successful.\n    */\n    function setContractDomain(bytes32 _name, address _addr) onlyOwner public returns (bool success){\n        require(_addr != address(0x0));\n        contracts[_name] = _addr;\n\n        emit SetContractDomain(msg.sender, _name, _addr);\n\n        return true;\n        //TODO should decide whether to set 0x00 to destoryed contract or not\n        \n\n    }\n    /**\n    * @dev Function to get contract(can be general address) address\n    * Anyone can use this function\n    * @param _name _name\n    * @return An address of the _name\n    */\n    function getContractAddress(bytes32 _name) public view returns(address addr) {\n        require(contracts[_name] != address(0x0));\n        return contracts[_name];\n    }\n    /**\n    * @dev Function to set permission on contract\n    * contract using modifier 'permissioned' references mapping variable 'permissions'\n    * Only owner can use this function\n    * @param _contract contract name\n    * @param _granted granted address\n    * @param _status true = can use, false = cannot use. default is false\n    * @return A boolean that indicates if the operation was successful.\n    */\n    function setPermission(bytes32 _contract, address _granted, bool _status) onlyOwner public returns(bool success) {\n        require(_granted != address(0x0));\n        permissions[_contract][_granted] = _status;\n\n        emit SetPermission(_contract, _granted, _status);\n        \n        return true;\n    }\n\n    /**\n    * @dev Function to get permission on contract\n    * contract using modifier 'permissioned' references mapping variable 'permissions'\n    * @param _contract contract name\n    * @param _granted granted address\n    * @return permission result\n    */\n    function getPermission(bytes32 _contract, address _granted) public view returns(bool found) {\n        return permissions[_contract][_granted];\n    }\n    \n}",
  "sourcePath": "/Users/coinplug/BangGijin/metabolics2.0/contracts/Registry.sol",
  "compiler": {
    "name": "solc",
    "version": "0.4.24+commit.e67f0147.Emscripten.clang"
  },
  "schemaVersion": "2.0.1",
  "updatedAt": "2018-10-29T01:33:05.944Z"
}