{
  "contractName": "RegistryUser",
  "abi": [
    {
      "constant": true,
      "inputs": [],
      "name": "REG",
      "outputs": [
        {
          "name": "",
          "type": "address"
        }
      ],
      "payable": false,
      "stateMutability": "view",
      "type": "function"
    },
    {
      "constant": true,
      "inputs": [],
      "name": "THIS_NAME",
      "outputs": [
        {
          "name": "",
          "type": "bytes32"
        }
      ],
      "payable": false,
      "stateMutability": "view",
      "type": "function"
    },
    {
      "constant": true,
      "inputs": [],
      "name": "owner",
      "outputs": [
        {
          "name": "",
          "type": "address"
        }
      ],
      "payable": false,
      "stateMutability": "view",
      "type": "function"
    },
    {
      "constant": false,
      "inputs": [
        {
          "name": "newOwner",
          "type": "address"
        }
      ],
      "name": "transferOwnership",
      "outputs": [],
      "payable": false,
      "stateMutability": "nonpayable",
      "type": "function"
    },
    {
      "anonymous": false,
      "inputs": [
        {
          "indexed": true,
          "name": "previousOwner",
          "type": "address"
        },
        {
          "indexed": true,
          "name": "newOwner",
          "type": "address"
        }
      ],
      "name": "OwnershipTransferred",
      "type": "event"
    },
    {
      "constant": false,
      "inputs": [
        {
          "name": "_addr",
          "type": "address"
        }
      ],
      "name": "setRegistry",
      "outputs": [],
      "payable": false,
      "stateMutability": "nonpayable",
      "type": "function"
    },
    {
      "constant": true,
      "inputs": [
        {
          "name": "_addr",
          "type": "address"
        }
      ],
      "name": "isPermitted",
      "outputs": [
        {
          "name": "found",
          "type": "bool"
        }
      ],
      "payable": false,
      "stateMutability": "view",
      "type": "function"
    }
  ],
  "bytecode": "0x608060405260008054600160a060020a03191633179055610333806100256000396000f3006080604052600436106100775763ffffffff7c010000000000000000000000000000000000000000000000000000000060003504166339363112811461007c5780633fd8cc4e146100ad57806364319d0b146100e25780638da5cb5b14610109578063a91ee0dc1461011e578063f2fde38b14610141575b600080fd5b34801561008857600080fd5b50610091610162565b60408051600160a060020a039092168252519081900360200190f35b3480156100b957600080fd5b506100ce600160a060020a0360043516610171565b604080519115158252519081900360200190f35b3480156100ee57600080fd5b506100f7610218565b60408051918252519081900360200190f35b34801561011557600080fd5b5061009161021e565b34801561012a57600080fd5b5061013f600160a060020a036004351661022d565b005b34801561014d57600080fd5b5061013f600160a060020a0360043516610273565b600154600160a060020a031681565b600154600254604080517f60d6c7cf0000000000000000000000000000000000000000000000000000000081526004810192909252600160a060020a038481166024840152905160009391909116916360d6c7cf91604480830192602092919082900301818787803b1580156101e657600080fd5b505af11580156101fa573d6000803e3d6000fd5b505050506040513d602081101561021057600080fd5b505192915050565b60025481565b600054600160a060020a031681565b600054600160a060020a0316331461024457600080fd5b6001805473ffffffffffffffffffffffffffffffffffffffff1916600160a060020a0392909216919091179055565b600054600160a060020a0316331461028a57600080fd5b600160a060020a038116151561029f57600080fd5b60008054604051600160a060020a03808516939216917f8be0079c531659141344cd1fd0a4f28419497f9722a3daafe3b4186f6b6457e091a36000805473ffffffffffffffffffffffffffffffffffffffff1916600160a060020a03929092169190911790555600a165627a7a72305820aa57d4ab65592d873b7dd67e527693f2e8536e43992acd9b1a2204620d564f960029",
  "source": "pragma solidity ^0.4.24;\n\nimport \"./openzeppelin-solidity/contracts/ownership/Ownable.sol\";\nimport \"./Registry.sol\";\n\n/**\n * @title RegistryUser\n * @dev RegistryUser Contract that uses Registry contract\n */\ncontract RegistryUser is Ownable {\n    \n    Registry public REG;\n    bytes32 public THIS_NAME;\n\n    /**\n     * @dev Function to set registry address. Contract that wants to use registry should setRegistry first.\n     * @param _addr address of registry\n     * @return A boolean that indicates if the operation was successful.\n     */\n    function setRegistry(address _addr) public onlyOwner {\n        REG = Registry(_addr);\n    }\n    \n    modifier permissioned() {\n        require(isPermitted(msg.sender));\n        _;\n    }\n\n    /**\n     * @dev Function to check the permission\n     * @param _addr address of sender to check the permission\n     * @return A boolean that indicates if the operation was successful.\n     */\n    function isPermitted(address _addr) public view returns(bool found) {\n        return REG.getPermission(THIS_NAME, _addr);\n    }\n    \n}",
  "sourcePath": "/Users/coinplug/BangGijin/metabolics2.0/contracts/RegistryUser.sol",
  "compiler": {
    "name": "solc",
    "version": "0.4.24+commit.e67f0147.Emscripten.clang"
  },
  "schemaVersion": "2.0.1",
  "updatedAt": "2018-11-12T07:30:47.483Z"
}