{
  "contractName": "RegistryUser",
  "abi": [
    {
      "constant": true,
      "inputs": [],
      "name": "REG",
      "outputs": [
        {
          "name": "",
          "type": "address"
        }
      ],
      "payable": false,
      "stateMutability": "view",
      "type": "function"
    },
    {
      "constant": true,
      "inputs": [],
      "name": "THIS_NAME",
      "outputs": [
        {
          "name": "",
          "type": "bytes32"
        }
      ],
      "payable": false,
      "stateMutability": "view",
      "type": "function"
    },
    {
      "constant": true,
      "inputs": [],
      "name": "owner",
      "outputs": [
        {
          "name": "",
          "type": "address"
        }
      ],
      "payable": false,
      "stateMutability": "view",
      "type": "function"
    },
    {
      "constant": false,
      "inputs": [
        {
          "name": "newOwner",
          "type": "address"
        }
      ],
      "name": "transferOwnership",
      "outputs": [],
      "payable": false,
      "stateMutability": "nonpayable",
      "type": "function"
    },
    {
      "anonymous": false,
      "inputs": [
        {
          "indexed": false,
          "name": "addr",
          "type": "address"
        },
        {
          "indexed": false,
          "name": "name",
          "type": "bytes32"
        },
        {
          "indexed": false,
          "name": "go",
          "type": "bool"
        }
      ],
      "name": "Per",
      "type": "event"
    },
    {
      "anonymous": false,
      "inputs": [
        {
          "indexed": true,
          "name": "previousOwner",
          "type": "address"
        },
        {
          "indexed": true,
          "name": "newOwner",
          "type": "address"
        }
      ],
      "name": "OwnershipTransferred",
      "type": "event"
    },
    {
      "constant": false,
      "inputs": [
        {
          "name": "_addr",
          "type": "address"
        }
      ],
      "name": "setRegistry",
      "outputs": [],
      "payable": false,
      "stateMutability": "nonpayable",
      "type": "function"
    },
    {
      "constant": false,
      "inputs": [],
      "name": "isPermitted",
      "outputs": [
        {
          "name": "",
          "type": "bool"
        }
      ],
      "payable": false,
      "stateMutability": "nonpayable",
      "type": "function"
    }
  ],
  "bytecode": "0x608060405260008054600160a060020a03191633179055610320806100256000396000f3006080604052600436106100775763ffffffff7c010000000000000000000000000000000000000000000000000000000060003504166339363112811461007c5780633f6fd712146100ad57806364319d0b146100d65780638da5cb5b146100fd578063a91ee0dc14610112578063f2fde38b14610135575b600080fd5b34801561008857600080fd5b50610091610156565b60408051600160a060020a039092168252519081900360200190f35b3480156100b957600080fd5b506100c2610165565b604080519115158252519081900360200190f35b3480156100e257600080fd5b506100eb610205565b60408051918252519081900360200190f35b34801561010957600080fd5b5061009161020b565b34801561011e57600080fd5b50610133600160a060020a036004351661021a565b005b34801561014157600080fd5b50610133600160a060020a0360043516610260565b600154600160a060020a031681565b600154600254604080517f60d6c7cf000000000000000000000000000000000000000000000000000000008152600481019290925233602483015251600092600160a060020a0316916360d6c7cf91604480830192602092919082900301818787803b1580156101d457600080fd5b505af11580156101e8573d6000803e3d6000fd5b505050506040513d60208110156101fe57600080fd5b5051905090565b60025481565b600054600160a060020a031681565b600054600160a060020a0316331461023157600080fd5b6001805473ffffffffffffffffffffffffffffffffffffffff1916600160a060020a0392909216919091179055565b600054600160a060020a0316331461027757600080fd5b600160a060020a038116151561028c57600080fd5b60008054604051600160a060020a03808516939216917f8be0079c531659141344cd1fd0a4f28419497f9722a3daafe3b4186f6b6457e091a36000805473ffffffffffffffffffffffffffffffffffffffff1916600160a060020a03929092169190911790555600a165627a7a72305820d5fba22fd15b1e8bbd6d5c30630e1985604638175cd8048dfac55b05486265f30029",
  "source": "pragma solidity ^0.4.24;\n\nimport \"./openzeppelin-solidity/contracts/ownership/Ownable.sol\";\nimport \"./Registry.sol\";\n\ncontract RegistryUser is Ownable {\n    \n    Registry public REG;\n    bytes32 public THIS_NAME;\n    event Per(address addr, bytes32 name, bool go);\n    function setRegistry(address _addr) public onlyOwner {\n        REG = Registry(_addr);\n    }\n    \n    modifier permissioned() {\n        require(isPermitted());\n        _;\n    }\n    function isPermitted() public returns(bool) {\n        return REG.getPermission(THIS_NAME, msg.sender);\n    }\n}",
  "sourcePath": "/Users/coinplug/BangGijin/metabolics2.0/contracts/RegistryUser.sol",
  "compiler": {
    "name": "solc",
    "version": "0.4.24+commit.e67f0147.Emscripten.clang"
  },
  "schemaVersion": "2.0.1",
  "updatedAt": "2018-10-15T06:35:20.176Z"
}