{
  "contractName": "SignatureVerifier",
  "abi": [
    {
      "constant": true,
      "inputs": [
        {
          "name": "toSign",
          "type": "bytes32"
        },
        {
          "name": "signature",
          "type": "bytes"
        }
      ],
      "name": "getSignatureAddress",
      "outputs": [
        {
          "name": "addr",
          "type": "address"
        }
      ],
      "payable": false,
      "stateMutability": "pure",
      "type": "function"
    }
  ],
  "bytecode": "0x608060405234801561001057600080fd5b50610355806100206000396000f300608060405260043610610041576000357c0100000000000000000000000000000000000000000000000000000000900463ffffffff1680633b8a12c814610046575b600080fd5b34801561005257600080fd5b506100bb6004803603810190808035600019169060200190929190803590602001908201803590602001908080601f01602080910402602001604051908101604052809392919081815260200183838082843782019150505050505091929192905050506100fd565b604051808273ffffffffffffffffffffffffffffffffffffffff1673ffffffffffffffffffffffffffffffffffffffff16815260200191505060405180910390f35b6000610229826040805190810160405280601c81526020017f19457468657265756d205369676e6564204d6573736167653a0a333200000000815250856040516020018083805190602001908083835b602083101515610172578051825260208201915060208101905060208303925061014d565b6001836020036101000a0380198251168184511680821785525050505050509050018260001916600019168152602001925050506040516020818303038152906040526040518082805190602001908083835b6020831015156101ea57805182526020820191506020810190506020830392506101c5565b6001836020036101000a03801982511681845116808217855250505050505090500191505060405180910390206000191661023190919063ffffffff16565b905092915050565b6000806000806041855114151561024b5760009350610320565b6020850151925060408501519150606085015160001a9050601b8160ff16101561027657601b810190505b601b8160ff161415801561028e5750601c8160ff1614155b1561029c5760009350610320565b600186828585604051600081526020016040526040518085600019166000191681526020018460ff1660ff1681526020018360001916600019168152602001826000191660001916815260200194505050505060206040516020810390808403906000865af1158015610313573d6000803e3d6000fd5b5050506020604051035193505b505050929150505600a165627a7a72305820679e796bd5e468082c3111621146d445a80b957e3d779b1981b7492f9f1edad30029",
  "source": "pragma solidity ^0.4.24;\n\nimport \"openzeppelin-solidity/contracts/cryptography/ECDSA.sol\";\n\n\n/// @title SignatureVerifier\n/// @author genie\n/// @notice Implement signature verifying logic\n/// @dev almost all of the data need to be verified would use this logic\ncontract SignatureVerifier {\n    using ECDSA for bytes32;\n    bytes constant internal ETH_PREFIX = \"\\x19Ethereum Signed Message:\\n32\";\n\n    /// @dev Recover address used to sign a claim\n    /// @param toSign Hash to be signed, potentially generated with `claimToSign`\n    /// @param signature Signature data i.e. signed hash\n    /// @return address recovered from `signature` which signed the `toSign` hash\n    function getSignatureAddress(bytes32 toSign, bytes signature)\n        public\n        pure\n        returns (address addr)\n    {\n        return keccak256(abi.encodePacked(ETH_PREFIX, toSign)).recover(signature);\n    }\n\n}",
  "sourcePath": "/Users/hexoul/Documents/Metadium/metabolics/contracts/identity/SignatureVerifier.sol",
  "compiler": {
    "name": "solc",
    "version": "0.4.24+commit.e67f0147.Emscripten.clang"
  },
  "schemaVersion": "2.0.1",
  "updatedAt": "2019-03-18T07:46:38.388Z"
}