{
  "contractName": "SignatureVerifier",
  "abi": [
    {
      "constant": true,
      "inputs": [
        {
          "name": "toSign",
          "type": "bytes32"
        },
        {
          "name": "signature",
          "type": "bytes"
        }
      ],
      "name": "getSignatureAddress",
      "outputs": [
        {
          "name": "",
          "type": "address"
        }
      ],
      "payable": false,
      "stateMutability": "pure",
      "type": "function"
    }
  ],
  "bytecode": "0x608060405234801561001057600080fd5b506102d7806100206000396000f3006080604052600436106100405763ffffffff7c01000000000000000000000000000000000000000000000000000000006000350416633b8a12c88114610045575b600080fd5b34801561005157600080fd5b5060408051602060046024803582810135601f81018590048502860185019096528585526100a39583359536956044949193909101919081908401838280828437509497506100cc9650505050505050565b6040805173ffffffffffffffffffffffffffffffffffffffff9092168252519081900360200190f35b60006101cf826040805190810160405280601c81526020017f19457468657265756d205369676e6564204d6573736167653a0a333200000000815250856040516020018083805190602001908083835b6020831061013b5780518252601f19909201916020918201910161011c565b51815160209384036101000a600019018019909216911617905292019384525060408051808503815293820190819052835193945092839250908401908083835b6020831061019b5780518252601f19909201916020918201910161017c565b5181516020939093036101000a60001901801990911692169190911790526040519201829003909120939250506101d69050565b9392505050565b600080600080845160411415156101f057600093506102a2565b50505060208201516040830151606084015160001a601b60ff8216101561021557601b015b8060ff16601b1415801561022d57508060ff16601c14155b1561023b57600093506102a2565b60408051600080825260208083018085528a905260ff8516838501526060830187905260808301869052925160019360a0808501949193601f19840193928390039091019190865af1158015610295573d6000803e3d6000fd5b5050506020604051035193505b505050929150505600a165627a7a7230582036d521c1d7ce7540958eb1238ca8dc5d817707108c5fd9b27e27b0e2252f0b0a0029",
  "source": "pragma solidity ^0.4.24;\n\nimport \"../openzeppelin-solidity/contracts/ECRecovery.sol\";\n\ncontract SignatureVerifier {\n    using ECRecovery for bytes32;\n    bytes constant internal ETH_PREFIX = \"\\x19Ethereum Signed Message:\\n32\";\n\n    /// @dev Recover address used to sign a claim\n    /// @param toSign Hash to be signed, potentially generated with `claimToSign`\n    /// @param signature Signature data i.e. signed hash\n    /// @return address recovered from `signature` which signed the `toSign` hash\n    function getSignatureAddress(bytes32 toSign, bytes signature)\n        public\n        pure\n        returns (address)\n    {\n        return keccak256(abi.encodePacked(ETH_PREFIX, toSign)).recover(signature);\n    }\n\n}",
  "sourcePath": "/Users/coinplug/BangGijin/metabolics2.0/contracts/identity/SignatureVerifier.sol",
  "compiler": {
    "name": "solc",
    "version": "0.4.24+commit.e67f0147.Emscripten.clang"
  },
  "schemaVersion": "2.0.1",
  "updatedAt": "2018-10-15T06:35:20.203Z"
}