{
  "contractName": "TestContract",
  "abi": [
    {
      "constant": true,
      "inputs": [
        {
          "name": "",
          "type": "address"
        }
      ],
      "name": "numCalls",
      "outputs": [
        {
          "name": "",
          "type": "uint256"
        }
      ],
      "payable": false,
      "stateMutability": "view",
      "type": "function"
    },
    {
      "anonymous": false,
      "inputs": [
        {
          "indexed": false,
          "name": "data",
          "type": "bytes"
        }
      ],
      "name": "IdentityCalled",
      "type": "event"
    },
    {
      "constant": false,
      "inputs": [],
      "name": "callMe",
      "outputs": [],
      "payable": false,
      "stateMutability": "nonpayable",
      "type": "function"
    },
    {
      "constant": false,
      "inputs": [],
      "name": "whoCalling",
      "outputs": [],
      "payable": false,
      "stateMutability": "nonpayable",
      "type": "function"
    }
  ],
  "bytecode": "0x608060405234801561001057600080fd5b506105ca806100206000396000f3006080604052600436106100565763ffffffff7c01000000000000000000000000000000000000000000000000000000006000350416630d26cf7f811461005b578063840f724914610072578063b0bea725146100b2575b600080fd5b34801561006757600080fd5b506100706100c7565b005b34801561007e57600080fd5b506100a073ffffffffffffffffffffffffffffffffffffffff60043516610459565b60408051918252519081900360200190f35b3480156100be57600080fd5b5061007061046b565b60006060806100fc337f107653790000000000000000000000000000000000000000000000000000000063ffffffff61048316565b151561010757600080fd5b604080517f262b54f5000000000000000000000000000000000000000000000000000000008152600560048201529051339450849163262b54f591602480830192600092919082900301818387803b15801561016257600080fd5b505af1158015610176573d6000803e3d6000fd5b505050506040513d6000823e601f3d908101601f19168201604052602081101561019f57600080fd5b8101908080516401000000008111156101b757600080fd5b820160208101848111156101ca57600080fd5b81518560208202830111640100000000821117156101e757600080fd5b505092919050505091508273ffffffffffffffffffffffffffffffffffffffff1663c9100bcb83600081518110151561021c57fe5b906020019060200201516040518263ffffffff167c0100000000000000000000000000000000000000000000000000000000028152600401808260001916600019168152602001915050600060405180830381600087803b15801561028057600080fd5b505af1158015610294573d6000803e3d6000fd5b505050506040513d6000823e601f3d908101601f1916820160405260c08110156102bd57600080fd5b81516020830151604084015160608501805193959294919391830192916401000000008111156102ec57600080fd5b820160208101848111156102ff57600080fd5b815164010000000081118282018710171561031957600080fd5b5050929190602001805164010000000081111561033557600080fd5b8201602081018481111561034857600080fd5b815164010000000081118282018710171561036257600080fd5b5050929190602001805164010000000081111561037e57600080fd5b8201602081018481111561039157600080fd5b81516401000000008111828201871017156103ab57600080fd5b50506040805160208082528751818301528751979c507f65b0c4fca8f1adcd4aaaa7c9fdd595a10b6881f37bd412bc84f8ebb43ea92fc49b508c9a5090985088975090870195908901945092508291508490508360005b8381101561041a578181015183820152602001610402565b50505050905090810190601f1680156104475780820380516001836020036101000a031916815260200191505b509250505060405180910390a1505050565b60006020819052908152604090205481565b33600090815260208190526040902080546001019055565b600080806104b1857f01ffc9a700000000000000000000000000000000000000000000000000000000610552565b90925090508115806104c1575080155b156104cf576000925061054a565b6104f9857fffffffff00000000000000000000000000000000000000000000000000000000610552565b909250905081158061050a57508015155b15610518576000925061054a565b6105228585610552565b90925090506001821480156105375750806001145b15610545576001925061054a565b600092505b505092915050565b6040517f01ffc9a70000000000000000000000000000000000000000000000000000000080825260048201839052600091829190602081818189617530fa9051909690955093505050505600a165627a7a72305820b87a2801f346c5745a941f16ff203def6e6c5a4c09a66de730cdba1a952ca27c0029",
  "source": "pragma solidity ^0.4.24;\n\nimport \"./ERC165Query.sol\";\nimport \"./ERC735.sol\";\n\n/// @title TestContract\n/// @author Mircea Pasoi\n/// @dev Contract used in unit tests\n\ncontract TestContract {\n    // Implements ERC165\n    using ERC165Query for address;\n\n    // Events\n    event IdentityCalled(bytes data);\n\n    // Counts calls by msg.sender\n    mapping (address => uint) public numCalls;\n\n    /// @dev Increments the number of calls from sender\n    function callMe() external {\n        numCalls[msg.sender] += 1;\n    }\n\n    /// @dev Expects to be called by an ERC735 contract and it will emit the label\n    ///  of the first LABEL claim in that contract\n    function whoCalling() external {\n        // ERC735\n        require(msg.sender.doesContractImplementInterface(0x10765379));\n        // Get first LABEL claim\n        ERC735 id = ERC735(msg.sender);\n        // 5 is LABEL_TOPIC\n        bytes32[] memory claimIds = id.getClaimIdsByType(5);\n        bytes memory data;\n        (, , , , data, ) = id.getClaim(claimIds[0]);\n        emit IdentityCalled(data);\n    }\n}\n",
  "sourcePath": "/Users/coinplug/BangGijin/metabolics2.0/contracts/identity/TestContract.sol",
  "compiler": {
    "name": "solc",
    "version": "0.4.24+commit.e67f0147.Emscripten.clang"
  },
  "schemaVersion": "2.0.1",
  "updatedAt": "2018-11-05T09:09:56.992Z"
}