{
  "contractName": "TopicRegistry",
  "abi": [
    {
      "constant": true,
      "inputs": [
        {
          "name": "",
          "type": "uint256"
        }
      ],
      "name": "topics",
      "outputs": [
        {
          "name": "id",
          "type": "uint256"
        },
        {
          "name": "issuer",
          "type": "address"
        },
        {
          "name": "explanation",
          "type": "bytes32"
        }
      ],
      "payable": false,
      "stateMutability": "view",
      "type": "function"
    },
    {
      "constant": true,
      "inputs": [],
      "name": "total",
      "outputs": [
        {
          "name": "",
          "type": "uint256"
        }
      ],
      "payable": false,
      "stateMutability": "view",
      "type": "function"
    },
    {
      "constant": true,
      "inputs": [],
      "name": "REG",
      "outputs": [
        {
          "name": "",
          "type": "address"
        }
      ],
      "payable": false,
      "stateMutability": "view",
      "type": "function"
    },
    {
      "constant": false,
      "inputs": [
        {
          "name": "_addr",
          "type": "address"
        }
      ],
      "name": "isPermitted",
      "outputs": [
        {
          "name": "",
          "type": "bool"
        }
      ],
      "payable": false,
      "stateMutability": "nonpayable",
      "type": "function"
    },
    {
      "constant": true,
      "inputs": [],
      "name": "RESERVED_TOPICS",
      "outputs": [
        {
          "name": "",
          "type": "uint256"
        }
      ],
      "payable": false,
      "stateMutability": "view",
      "type": "function"
    },
    {
      "constant": true,
      "inputs": [],
      "name": "THIS_NAME",
      "outputs": [
        {
          "name": "",
          "type": "bytes32"
        }
      ],
      "payable": false,
      "stateMutability": "view",
      "type": "function"
    },
    {
      "constant": true,
      "inputs": [],
      "name": "owner",
      "outputs": [
        {
          "name": "",
          "type": "address"
        }
      ],
      "payable": false,
      "stateMutability": "view",
      "type": "function"
    },
    {
      "constant": false,
      "inputs": [
        {
          "name": "_addr",
          "type": "address"
        }
      ],
      "name": "setRegistry",
      "outputs": [],
      "payable": false,
      "stateMutability": "nonpayable",
      "type": "function"
    },
    {
      "constant": false,
      "inputs": [
        {
          "name": "newOwner",
          "type": "address"
        }
      ],
      "name": "transferOwnership",
      "outputs": [],
      "payable": false,
      "stateMutability": "nonpayable",
      "type": "function"
    },
    {
      "inputs": [],
      "payable": false,
      "stateMutability": "nonpayable",
      "type": "constructor"
    },
    {
      "anonymous": false,
      "inputs": [
        {
          "indexed": true,
          "name": "id",
          "type": "uint256"
        },
        {
          "indexed": true,
          "name": "issuer",
          "type": "address"
        },
        {
          "indexed": false,
          "name": "explanation",
          "type": "bytes32"
        }
      ],
      "name": "RegisterTopic",
      "type": "event"
    },
    {
      "anonymous": false,
      "inputs": [
        {
          "indexed": true,
          "name": "id",
          "type": "uint256"
        },
        {
          "indexed": true,
          "name": "issuer",
          "type": "address"
        },
        {
          "indexed": false,
          "name": "explanation",
          "type": "bytes32"
        }
      ],
      "name": "UpdateTopic",
      "type": "event"
    },
    {
      "anonymous": false,
      "inputs": [
        {
          "indexed": false,
          "name": "addr",
          "type": "address"
        },
        {
          "indexed": false,
          "name": "name",
          "type": "bytes32"
        },
        {
          "indexed": false,
          "name": "go",
          "type": "bool"
        }
      ],
      "name": "Per",
      "type": "event"
    },
    {
      "anonymous": false,
      "inputs": [
        {
          "indexed": true,
          "name": "previousOwner",
          "type": "address"
        },
        {
          "indexed": true,
          "name": "newOwner",
          "type": "address"
        }
      ],
      "name": "OwnershipTransferred",
      "type": "event"
    },
    {
      "constant": false,
      "inputs": [
        {
          "name": "_id",
          "type": "uint256"
        },
        {
          "name": "_issuer",
          "type": "address"
        },
        {
          "name": "_explanation",
          "type": "bytes32"
        }
      ],
      "name": "registerTopicBySystem",
      "outputs": [
        {
          "name": "",
          "type": "uint256"
        }
      ],
      "payable": false,
      "stateMutability": "nonpayable",
      "type": "function"
    },
    {
      "constant": false,
      "inputs": [
        {
          "name": "_issuer",
          "type": "address"
        },
        {
          "name": "_explanation",
          "type": "bytes32"
        }
      ],
      "name": "registerTopic",
      "outputs": [
        {
          "name": "",
          "type": "uint256"
        }
      ],
      "payable": false,
      "stateMutability": "nonpayable",
      "type": "function"
    },
    {
      "constant": false,
      "inputs": [
        {
          "name": "_id",
          "type": "uint256"
        },
        {
          "name": "_explanation",
          "type": "bytes32"
        }
      ],
      "name": "updateTopic",
      "outputs": [
        {
          "name": "",
          "type": "bool"
        }
      ],
      "payable": false,
      "stateMutability": "nonpayable",
      "type": "function"
    },
    {
      "constant": true,
      "inputs": [
        {
          "name": "_id",
          "type": "uint256"
        }
      ],
      "name": "isRegistered",
      "outputs": [
        {
          "name": "",
          "type": "bool"
        }
      ],
      "payable": false,
      "stateMutability": "view",
      "type": "function"
    },
    {
      "constant": true,
      "inputs": [],
      "name": "getTotal",
      "outputs": [
        {
          "name": "",
          "type": "uint256"
        }
      ],
      "payable": false,
      "stateMutability": "view",
      "type": "function"
    },
    {
      "constant": true,
      "inputs": [
        {
          "name": "id",
          "type": "uint256"
        }
      ],
      "name": "getTopic",
      "outputs": [
        {
          "name": "",
          "type": "address"
        },
        {
          "name": "",
          "type": "bytes32"
        }
      ],
      "payable": false,
      "stateMutability": "view",
      "type": "function"
    }
  ],
  "bytecode": "0x608060405234801561001057600080fd5b5060008054600160a060020a0319163317905561040160035561090a806100386000396000f3006080604052600436106100da5763ffffffff7c010000000000000000000000000000000000000000000000000000000060003504166318d9adab81146100df5780631dadb4991461011d5780631fcb96af1461014c5780632ddbd13a1461018257806339363112146101975780633fd8cc4e146101c857806348376f0a146101e9578063579a6988146101fe57806364319d0b146102165780636a52a3841461022b5780637165889614610252578063775a25e31461028d5780638da5cb5b146102a2578063a91ee0dc146102b7578063f2fde38b146102da575b600080fd5b3480156100eb57600080fd5b506100f76004356102fb565b60408051938452600160a060020a03909216602084015282820152519081900360600190f35b34801561012957600080fd5b50610138600435602435610325565b604080519115158252519081900360200190f35b34801561015857600080fd5b50610170600160a060020a036004351660243561039d565b60408051918252519081900360200190f35b34801561018e57600080fd5b506101706105ce565b3480156101a357600080fd5b506101ac6105d4565b60408051600160a060020a039092168252519081900360200190f35b3480156101d457600080fd5b50610138600160a060020a03600435166105e3565b3480156101f557600080fd5b5061017061068a565b34801561020a57600080fd5b50610138600435610690565b34801561022257600080fd5b506101706106a5565b34801561023757600080fd5b50610170600435600160a060020a03602435166044356106ab565b34801561025e57600080fd5b5061026a6004356107a8565b60408051600160a060020a03909316835260208301919091528051918290030190f35b34801561029957600080fd5b506101706107cf565b3480156102ae57600080fd5b506101ac6107d5565b3480156102c357600080fd5b506102d8600160a060020a03600435166107e4565b005b3480156102e657600080fd5b506102d8600160a060020a036004351661082a565b6004602052600090815260409020805460018201546002909201549091600160a060020a03169083565b600082815260046020526040812060010154600160a060020a0316331461034b57600080fd5b60008381526004602090815260409182902060020184905581518481529151339286927f5374815fec386c3b70fb737290da1dba4135c0cdce070f3fd49de71a7fb2f94e92918290030190a392915050565b6000806103a86108be565b600154604080517f0d2020dd0000000000000000000000000000000000000000000000000000000081527f4174746573746174696f6e4167656e637952656769737472790000000000000060048201529051600160a060020a0390921691630d2020dd916024808201926020929091908290030181600087803b15801561042e57600080fd5b505af1158015610442573d6000803e3d6000fd5b505050506040513d602081101561045857600080fd5b5051604080517fc3c5a5470000000000000000000000000000000000000000000000000000000081523360048201529051919350600160a060020a0384169163c3c5a547916024808201926020929091908290030181600087803b1580156104bf57600080fd5b505af11580156104d3573d6000803e3d6000fd5b505050506040513d60208110156104e957600080fd5b50511515806104fc57506104fc336105e3565b151561050757600080fd5b60038054808352600160a060020a03878116602080860182815260408088018b81526000968752600484528187208951815592516001808501805473ffffffffffffffffffffffffffffffffffffffff1916929098169190911790965551600290920191909155855485526005825293849020805460ff191690931790925592548251888152925190927f550489acffb5941e791edb5f6d0f95860dfdf828d873d6eeddf4d6027f7c1f7192908290030190a3505060038054600181019091559392505050565b60035481565b600154600160a060020a031681565b600154600254604080517f60d6c7cf0000000000000000000000000000000000000000000000000000000081526004810192909252600160a060020a038481166024840152905160009391909116916360d6c7cf91604480830192602092919082900301818787803b15801561065857600080fd5b505af115801561066c573d6000803e3d6000fd5b505050506040513d602081101561068257600080fd5b505192915050565b61040081565b60009081526005602052604090205460ff1690565b60025481565b60006106b56108be565b6106be336105e3565b15156106c957600080fd5b6000858152600460205260409020541580156106e6575061040085105b15156106f157600080fd5b848152600160a060020a038481166020808401828152604080860188815260008b8152600485528281208851815593516001808601805473ffffffffffffffffffffffffffffffffffffffff1916929099169190911790975590516002909301929092556005835290819020805460ff191690941790935582518681529251919288927f550489acffb5941e791edb5f6d0f95860dfdf828d873d6eeddf4d6027f7c1f71929181900390910190a350929392505050565b60009081526004602052604090206001810154600290910154600160a060020a0390911691565b60035490565b600054600160a060020a031681565b600054600160a060020a031633146107fb57600080fd5b6001805473ffffffffffffffffffffffffffffffffffffffff1916600160a060020a0392909216919091179055565b600054600160a060020a0316331461084157600080fd5b600160a060020a038116151561085657600080fd5b60008054604051600160a060020a03808516939216917f8be0079c531659141344cd1fd0a4f28419497f9722a3daafe3b4186f6b6457e091a36000805473ffffffffffffffffffffffffffffffffffffffff1916600160a060020a0392909216919091179055565b6040805160608101825260008082526020820181905291810191909152905600a165627a7a723058208225ef141578028dc2bc19f4546514801db7eaf0f28b00367e5f9ba961dd16760029",
  "source": "pragma solidity ^0.4.24;\n\nimport \"../RegistryUser.sol\";\nimport \"../interface/IAttestationAgencyRegistry.sol\";\n\n/// @title TopicRegistry\n/// @author genie\n/// @notice Topic Registry.\n/// @dev  Topics can be registered when create achievement or the permissioned.\ncontract TopicRegistry is RegistryUser {\n    \n    struct Topic {\n        uint256 id;\n        address issuer;\n        bytes32 explanation;\n    }\n\n    uint256 public total;\n    uint256 public constant RESERVED_TOPICS = 1024;\n    \n    mapping(uint256 => Topic) public topics;\n    mapping(uint256 => bool) isTopicRegistered;\n\n    event RegisterTopic(uint256 indexed id, address indexed issuer, bytes32 explanation);\n    event UpdateTopic(uint256 indexed id, address indexed issuer, bytes32 explanation);\n\n    constructor() public {\n\n        total = RESERVED_TOPICS + 1;\n\n    }\n\n    function registerTopicBySystem(uint256 _id, address _issuer, bytes32 _explanation) permissioned public returns (uint256) {\n\n        // check topic doen't exist\n        require(topics[_id].id == 0 && _id < RESERVED_TOPICS);\n\n        Topic memory t;\n        t.id = _id;\n        t.issuer = _issuer;\n        t.explanation = _explanation;\n        topics[_id] = t;\n\n        isTopicRegistered[_id] = true;\n\n        emit RegisterTopic(_id, _issuer, _explanation);\n        \n        return _id;\n    }   \n\n    function registerTopic(address _issuer, bytes32 _explanation) public returns (uint256) {\n        IAttestationAgencyRegistry ar = IAttestationAgencyRegistry(REG.getContractAddress(\"AttestationAgencyRegistry\"));\n        require(ar.isRegistered(msg.sender) != 0 || isPermitted(msg.sender)); //Only Attestation Agency or permissioned can register topic\n\n        Topic memory t;\n        t.id = total;\n        t.issuer = _issuer;\n        t.explanation = _explanation;\n        topics[total] = t;\n        \n        isTopicRegistered[total] = true;\n\n        emit RegisterTopic(total, _issuer, _explanation);\n\n        total++;\n\n        return total-1; // return new topic id\n    }    \n    \n    function updateTopic(uint256 _id, bytes32 _explanation) public returns (bool) {\n        \n        require(topics[_id].issuer == msg.sender);\n\n        topics[_id].explanation = _explanation;\n\n        emit UpdateTopic(_id, msg.sender , _explanation);\n\n    }\n\n    function isRegistered(uint256 _id) view public returns (bool) {\n        return isTopicRegistered[_id];\n    }\n\n    function getTotal() view public returns (uint256) {\n        return total;\n    }\n    function getTopic(uint256 id) view public returns(address, bytes32){\n        \n        return (topics[id].issuer, topics[id].explanation);\n\n    }\n\n}\n",
  "sourcePath": "/Users/coinplug/BangGijin/metabolics2.0/contracts/registry/TopicRegistry.sol",
  "compiler": {
    "name": "solc",
    "version": "0.4.24+commit.e67f0147.Emscripten.clang"
  },
  "schemaVersion": "2.0.1",
  "updatedAt": "2018-10-23T00:49:16.779Z"
}