{
  "contractName": "TopicRegistry",
  "abi": [
    {
      "constant": true,
      "inputs": [
        {
          "name": "",
          "type": "uint256"
        }
      ],
      "name": "topics",
      "outputs": [
        {
          "name": "id",
          "type": "uint256"
        },
        {
          "name": "title",
          "type": "bytes32"
        },
        {
          "name": "issuer",
          "type": "address"
        },
        {
          "name": "explanation",
          "type": "bytes32"
        },
        {
          "name": "createdAt",
          "type": "uint256"
        }
      ],
      "payable": false,
      "stateMutability": "view",
      "type": "function"
    },
    {
      "constant": true,
      "inputs": [],
      "name": "total",
      "outputs": [
        {
          "name": "",
          "type": "uint256"
        }
      ],
      "payable": false,
      "stateMutability": "view",
      "type": "function"
    },
    {
      "constant": true,
      "inputs": [],
      "name": "REG",
      "outputs": [
        {
          "name": "",
          "type": "address"
        }
      ],
      "payable": false,
      "stateMutability": "view",
      "type": "function"
    },
    {
      "constant": true,
      "inputs": [
        {
          "name": "_addr",
          "type": "address"
        }
      ],
      "name": "isPermitted",
      "outputs": [
        {
          "name": "found",
          "type": "bool"
        }
      ],
      "payable": false,
      "stateMutability": "view",
      "type": "function"
    },
    {
      "constant": true,
      "inputs": [],
      "name": "RESERVED_TOPICS",
      "outputs": [
        {
          "name": "",
          "type": "uint256"
        }
      ],
      "payable": false,
      "stateMutability": "view",
      "type": "function"
    },
    {
      "constant": true,
      "inputs": [],
      "name": "THIS_NAME",
      "outputs": [
        {
          "name": "",
          "type": "bytes32"
        }
      ],
      "payable": false,
      "stateMutability": "view",
      "type": "function"
    },
    {
      "constant": false,
      "inputs": [],
      "name": "renounceOwnership",
      "outputs": [],
      "payable": false,
      "stateMutability": "nonpayable",
      "type": "function"
    },
    {
      "constant": true,
      "inputs": [],
      "name": "owner",
      "outputs": [
        {
          "name": "",
          "type": "address"
        }
      ],
      "payable": false,
      "stateMutability": "view",
      "type": "function"
    },
    {
      "constant": true,
      "inputs": [],
      "name": "isOwner",
      "outputs": [
        {
          "name": "",
          "type": "bool"
        }
      ],
      "payable": false,
      "stateMutability": "view",
      "type": "function"
    },
    {
      "constant": false,
      "inputs": [
        {
          "name": "_addr",
          "type": "address"
        }
      ],
      "name": "setRegistry",
      "outputs": [],
      "payable": false,
      "stateMutability": "nonpayable",
      "type": "function"
    },
    {
      "constant": false,
      "inputs": [
        {
          "name": "newOwner",
          "type": "address"
        }
      ],
      "name": "transferOwnership",
      "outputs": [],
      "payable": false,
      "stateMutability": "nonpayable",
      "type": "function"
    },
    {
      "inputs": [],
      "payable": false,
      "stateMutability": "nonpayable",
      "type": "constructor"
    },
    {
      "anonymous": false,
      "inputs": [
        {
          "indexed": true,
          "name": "id",
          "type": "uint256"
        },
        {
          "indexed": true,
          "name": "issuer",
          "type": "address"
        },
        {
          "indexed": false,
          "name": "explanation",
          "type": "bytes32"
        }
      ],
      "name": "RegisterTopic",
      "type": "event"
    },
    {
      "anonymous": false,
      "inputs": [
        {
          "indexed": true,
          "name": "id",
          "type": "uint256"
        },
        {
          "indexed": true,
          "name": "issuer",
          "type": "address"
        },
        {
          "indexed": false,
          "name": "explanation",
          "type": "bytes32"
        }
      ],
      "name": "UpdateTopic",
      "type": "event"
    },
    {
      "anonymous": false,
      "inputs": [
        {
          "indexed": true,
          "name": "previousOwner",
          "type": "address"
        },
        {
          "indexed": true,
          "name": "newOwner",
          "type": "address"
        }
      ],
      "name": "OwnershipTransferred",
      "type": "event"
    },
    {
      "constant": false,
      "inputs": [
        {
          "name": "_id",
          "type": "uint256"
        },
        {
          "name": "_title",
          "type": "bytes32"
        },
        {
          "name": "_explanation",
          "type": "bytes32"
        }
      ],
      "name": "registerTopicBySystem",
      "outputs": [
        {
          "name": "topicId",
          "type": "uint256"
        }
      ],
      "payable": false,
      "stateMutability": "nonpayable",
      "type": "function"
    },
    {
      "constant": false,
      "inputs": [
        {
          "name": "_title",
          "type": "bytes32"
        },
        {
          "name": "_explanation",
          "type": "bytes32"
        }
      ],
      "name": "registerTopic",
      "outputs": [
        {
          "name": "topicId",
          "type": "uint256"
        }
      ],
      "payable": false,
      "stateMutability": "nonpayable",
      "type": "function"
    },
    {
      "constant": false,
      "inputs": [
        {
          "name": "_id",
          "type": "uint256"
        },
        {
          "name": "_explanation",
          "type": "bytes32"
        }
      ],
      "name": "updateTopic",
      "outputs": [
        {
          "name": "success",
          "type": "bool"
        }
      ],
      "payable": false,
      "stateMutability": "nonpayable",
      "type": "function"
    },
    {
      "constant": true,
      "inputs": [
        {
          "name": "_id",
          "type": "uint256"
        }
      ],
      "name": "isRegistered",
      "outputs": [
        {
          "name": "found",
          "type": "bool"
        }
      ],
      "payable": false,
      "stateMutability": "view",
      "type": "function"
    },
    {
      "constant": true,
      "inputs": [],
      "name": "getTotal",
      "outputs": [
        {
          "name": "length",
          "type": "uint256"
        }
      ],
      "payable": false,
      "stateMutability": "view",
      "type": "function"
    },
    {
      "constant": true,
      "inputs": [
        {
          "name": "_id",
          "type": "uint256"
        }
      ],
      "name": "getTopic",
      "outputs": [
        {
          "name": "issuer",
          "type": "address"
        },
        {
          "name": "title",
          "type": "bytes32"
        },
        {
          "name": "explanation",
          "type": "bytes32"
        },
        {
          "name": "createdAt",
          "type": "uint256"
        }
      ],
      "payable": false,
      "stateMutability": "view",
      "type": "function"
    },
    {
      "constant": true,
      "inputs": [
        {
          "name": "_from",
          "type": "uint256"
        },
        {
          "name": "_to",
          "type": "uint256"
        }
      ],
      "name": "getTopicFromTo",
      "outputs": [
        {
          "name": "addrs",
          "type": "address[]"
        },
        {
          "name": "titles",
          "type": "bytes32[]"
        },
        {
          "name": "explans",
          "type": "bytes32[]"
        },
        {
          "name": "createds",
          "type": "uint256[]"
        }
      ],
      "payable": false,
      "stateMutability": "view",
      "type": "function"
    }
  ],
  "bytecode": "0x608060405234801561001057600080fd5b50336000806101000a81548173ffffffffffffffffffffffffffffffffffffffff021916908373ffffffffffffffffffffffffffffffffffffffff1602179055506000809054906101000a900473ffffffffffffffffffffffffffffffffffffffff1673ffffffffffffffffffffffffffffffffffffffff16600073ffffffffffffffffffffffffffffffffffffffff167f8be0079c531659141344cd1fd0a4f28419497f9722a3daafe3b4186f6b6457e060405160405180910390a37f546f706963526567697374727900000000000000000000000000000000000000600281600019169055506104016003819055506117e8806101106000396000f3006080604052600436106100fc576000357c0100000000000000000000000000000000000000000000000000000000900463ffffffff168063038d1f821461010157806318d9adab146102655780631dadb499146102fe57806321cc91b2146103515780632ddbd13a146103a457806339363112146103cf5780633fd8cc4e1461042657806348376f0a14610481578063579a6988146104ac57806364319d0b146104f1578063715018a614610524578063716588961461053b578063775a25e3146105cd5780638da5cb5b146105f85780638f32d59b1461064f57806399327dee1461067e578063a91ee0dc146106db578063f2fde38b1461071e575b600080fd5b34801561010d57600080fd5b506101366004803603810190808035906020019092919080359060200190929190505050610761565b6040518080602001806020018060200180602001858103855289818151815260200191508051906020019060200280838360005b8381101561018557808201518184015260208101905061016a565b50505050905001858103845288818151815260200191508051906020019060200280838360005b838110156101c75780820151818401526020810190506101ac565b50505050905001858103835287818151815260200191508051906020019060200280838360005b838110156102095780820151818401526020810190506101ee565b50505050905001858103825286818151815260200191508051906020019060200280838360005b8381101561024b578082015181840152602081019050610230565b505050509050019850505050505050505060405180910390f35b34801561027157600080fd5b5061029060048036038101908080359060200190929190505050610a2d565b6040518086815260200185600019166000191681526020018473ffffffffffffffffffffffffffffffffffffffff1673ffffffffffffffffffffffffffffffffffffffff16815260200183600019166000191681526020018281526020019550505050505060405180910390f35b34801561030a57600080fd5b50610337600480360381019080803590602001909291908035600019169060200190929190505050610a83565b604051808215151515815260200191505060405180910390f35b34801561035d57600080fd5b5061038e60048036038101908080356000191690602001909291908035600019169060200190929190505050610bde565b6040518082815260200191505060405180910390f35b3480156103b057600080fd5b506103b9610fe8565b6040518082815260200191505060405180910390f35b3480156103db57600080fd5b506103e4610fee565b604051808273ffffffffffffffffffffffffffffffffffffffff1673ffffffffffffffffffffffffffffffffffffffff16815260200191505060405180910390f35b34801561043257600080fd5b50610467600480360381019080803573ffffffffffffffffffffffffffffffffffffffff169060200190929190505050611014565b604051808215151515815260200191505060405180910390f35b34801561048d57600080fd5b50610496611127565b6040518082815260200191505060405180910390f35b3480156104b857600080fd5b506104d76004803603810190808035906020019092919050505061112d565b604051808215151515815260200191505060405180910390f35b3480156104fd57600080fd5b50610506611157565b60405180826000191660001916815260200191505060405180910390f35b34801561053057600080fd5b5061053961115d565b005b34801561054757600080fd5b506105666004803603810190808035906020019092919050505061122f565b604051808573ffffffffffffffffffffffffffffffffffffffff1673ffffffffffffffffffffffffffffffffffffffff1681526020018460001916600019168152602001836000191660001916815260200182815260200194505050505060405180910390f35b3480156105d957600080fd5b506105e26112c0565b6040518082815260200191505060405180910390f35b34801561060457600080fd5b5061060d6112ca565b604051808273ffffffffffffffffffffffffffffffffffffffff1673ffffffffffffffffffffffffffffffffffffffff16815260200191505060405180910390f35b34801561065b57600080fd5b506106646112f3565b604051808215151515815260200191505060405180910390f35b34801561068a57600080fd5b506106c5600480360381019080803590602001909291908035600019169060200190929190803560001916906020019092919050505061134a565b6040518082815260200191505060405180910390f35b3480156106e757600080fd5b5061071c600480360381019080803573ffffffffffffffffffffffffffffffffffffffff169060200190929190505050611600565b005b34801561072a57600080fd5b5061075f600480360381019080803573ffffffffffffffffffffffffffffffffffffffff169060200190929190505050611657565b005b60608060608060608060608060008a8a101515156107e7576040517f08c379a00000000000000000000000000000000000000000000000000000000081526004018080602001828103825260108152602001807f66726f6d20746f206d69736d617463680000000000000000000000000000000081525060200191505060405180910390fd5b60018b8b030160405190808252806020026020018201604052801561081b5781602001602082028038833980820191505090505b50945060018b8b03016040519080825280602002602001820160405280156108525781602001602082028038833980820191505090505b50935060018b8b03016040519080825280602002602001820160405280156108895781602001602082028038833980820191505090505b50925060018b8b03016040519080825280602002602001820160405280156108c05781602001602082028038833980820191505090505b5091508a90505b8981111515610a13576004600082815260200190815260200160002060020160009054906101000a900473ffffffffffffffffffffffffffffffffffffffff16858c830381518110151561091757fe5b9060200190602002019073ffffffffffffffffffffffffffffffffffffffff16908173ffffffffffffffffffffffffffffffffffffffff16815250506004600082815260200190815260200160002060030154848c830381518110151561097a57fe5b9060200190602002019060001916908160001916815250506004600082815260200190815260200160002060040154838c83038151811015156109b957fe5b90602001906020020181815250506004600082815260200190815260200160002060010154828c83038151811015156109ee57fe5b90602001906020020190600019169081600019168152505080806001019150506108c7565b848285859850985098509850505050505092959194509250565b60046020528060005260406000206000915090508060000154908060010154908060020160009054906101000a900473ffffffffffffffffffffffffffffffffffffffff16908060030154908060040154905085565b60003373ffffffffffffffffffffffffffffffffffffffff166004600085815260200190815260200160002060020160009054906101000a900473ffffffffffffffffffffffffffffffffffffffff1673ffffffffffffffffffffffffffffffffffffffff16141515610b5e576040517f08c379a000000000000000000000000000000000000000000000000000000000815260040180806020018281038252600f8152602001807f697373756572206d69736d61746368000000000000000000000000000000000081525060200191505060405180910390fd5b816004600085815260200190815260200160002060030181600019169055503373ffffffffffffffffffffffffffffffffffffffff16837f5374815fec386c3b70fb737290da1dba4135c0cdce070f3fd49de71a7fb2f94e8460405180826000191660001916815260200191505060405180910390a36001905092915050565b600080610be9611770565b600160009054906101000a900473ffffffffffffffffffffffffffffffffffffffff1673ffffffffffffffffffffffffffffffffffffffff16630d2020dd6040518163ffffffff167c010000000000000000000000000000000000000000000000000000000002815260040180807f4174746573746174696f6e4167656e63795265676973747279000000000000008152506020019050602060405180830381600087803b158015610c9a57600080fd5b505af1158015610cae573d6000803e3d6000fd5b505050506040513d6020811015610cc457600080fd5b8101908080519060200190929190505050915060008273ffffffffffffffffffffffffffffffffffffffff1663c3c5a547336040518263ffffffff167c0100000000000000000000000000000000000000000000000000000000028152600401808273ffffffffffffffffffffffffffffffffffffffff1673ffffffffffffffffffffffffffffffffffffffff168152602001915050602060405180830381600087803b158015610d7457600080fd5b505af1158015610d88573d6000803e3d6000fd5b505050506040513d6020811015610d9e57600080fd5b8101908080519060200190929190505050141580610dc15750610dc033611014565b5b1515610e35576040517f08c379a000000000000000000000000000000000000000000000000000000000815260040180806020018281038252600d8152602001807f4e6f207065726d697373696f6e0000000000000000000000000000000000000081525060200191505060405180910390fd5b60035481600001818152505033816040019073ffffffffffffffffffffffffffffffffffffffff16908173ffffffffffffffffffffffffffffffffffffffff1681525050848160200190600019169081600019168152505083816060019060001916908160001916815250504281608001818152505080600460006003548152602001908152602001600020600082015181600001556020820151816001019060001916905560408201518160020160006101000a81548173ffffffffffffffffffffffffffffffffffffffff021916908373ffffffffffffffffffffffffffffffffffffffff1602179055506060820151816003019060001916905560808201518160040155905050600160056000600354815260200190815260200160002060006101000a81548160ff0219169083151502179055503373ffffffffffffffffffffffffffffffffffffffff166003547f550489acffb5941e791edb5f6d0f95860dfdf828d873d6eeddf4d6027f7c1f718660405180826000191660001916815260200191505060405180910390a36003600081548092919060010191905055506001600354039250505092915050565b60035481565b600160009054906101000a900473ffffffffffffffffffffffffffffffffffffffff1681565b6000600160009054906101000a900473ffffffffffffffffffffffffffffffffffffffff1673ffffffffffffffffffffffffffffffffffffffff166360d6c7cf600254846040518363ffffffff167c01000000000000000000000000000000000000000000000000000000000281526004018083600019166000191681526020018273ffffffffffffffffffffffffffffffffffffffff1673ffffffffffffffffffffffffffffffffffffffff16815260200192505050602060405180830381600087803b1580156110e557600080fd5b505af11580156110f9573d6000803e3d6000fd5b505050506040513d602081101561110f57600080fd5b81019080805190602001909291905050509050919050565b61040181565b60006005600083815260200190815260200160002060009054906101000a900460ff169050919050565b60025481565b6111656112f3565b151561117057600080fd5b600073ffffffffffffffffffffffffffffffffffffffff166000809054906101000a900473ffffffffffffffffffffffffffffffffffffffff1673ffffffffffffffffffffffffffffffffffffffff167f8be0079c531659141344cd1fd0a4f28419497f9722a3daafe3b4186f6b6457e060405160405180910390a360008060006101000a81548173ffffffffffffffffffffffffffffffffffffffff021916908373ffffffffffffffffffffffffffffffffffffffff160217905550565b6000806000806004600086815260200190815260200160002060020160009054906101000a900473ffffffffffffffffffffffffffffffffffffffff1660046000878152602001908152602001600020600101546004600088815260200190815260200160002060030154600460008981526020019081526020016000206004015493509350935093509193509193565b6000600354905090565b60008060009054906101000a900473ffffffffffffffffffffffffffffffffffffffff16905090565b60008060009054906101000a900473ffffffffffffffffffffffffffffffffffffffff1673ffffffffffffffffffffffffffffffffffffffff163373ffffffffffffffffffffffffffffffffffffffff1614905090565b6000611354611770565b61135d33611014565b15156113d1576040517f08c379a000000000000000000000000000000000000000000000000000000000815260040180806020018281038252600d8152602001807f4e6f205065726d697373696f6e0000000000000000000000000000000000000081525060200191505060405180910390fd5b600060046000878152602001908152602001600020600001541480156113f8575061040185105b151561146c576040517f08c379a00000000000000000000000000000000000000000000000000000000081526004018080602001828103825260138152602001807f546f706963207465726d2069732077726f6e670000000000000000000000000081525060200191505060405180910390fd5b84816000018181525050838160200190600019169081600019168152505033816040019073ffffffffffffffffffffffffffffffffffffffff16908173ffffffffffffffffffffffffffffffffffffffff16815250508281606001906000191690816000191681525050428160800181815250508060046000878152602001908152602001600020600082015181600001556020820151816001019060001916905560408201518160020160006101000a81548173ffffffffffffffffffffffffffffffffffffffff021916908373ffffffffffffffffffffffffffffffffffffffff160217905550606082015181600301906000191690556080820151816004015590505060016005600087815260200190815260200160002060006101000a81548160ff0219169083151502179055503373ffffffffffffffffffffffffffffffffffffffff16857f550489acffb5941e791edb5f6d0f95860dfdf828d873d6eeddf4d6027f7c1f718560405180826000191660001916815260200191505060405180910390a3849150509392505050565b6116086112f3565b151561161357600080fd5b80600160006101000a81548173ffffffffffffffffffffffffffffffffffffffff021916908373ffffffffffffffffffffffffffffffffffffffff16021790555050565b61165f6112f3565b151561166a57600080fd5b61167381611676565b50565b600073ffffffffffffffffffffffffffffffffffffffff168173ffffffffffffffffffffffffffffffffffffffff16141515156116b257600080fd5b8073ffffffffffffffffffffffffffffffffffffffff166000809054906101000a900473ffffffffffffffffffffffffffffffffffffffff1673ffffffffffffffffffffffffffffffffffffffff167f8be0079c531659141344cd1fd0a4f28419497f9722a3daafe3b4186f6b6457e060405160405180910390a3806000806101000a81548173ffffffffffffffffffffffffffffffffffffffff021916908373ffffffffffffffffffffffffffffffffffffffff16021790555050565b60a0604051908101604052806000815260200160008019168152602001600073ffffffffffffffffffffffffffffffffffffffff168152602001600080191681526020016000815250905600a165627a7a723058208d8e5029ea7a69e41a8e6a85cdf52a6d8a2029e785292b055362ee7560cb9f520029",
  "source": "pragma solidity ^0.4.24;\n\nimport \"../RegistryUser.sol\";\nimport \"../interface/IAttestationAgencyRegistry.sol\";\n\n/// @title TopicRegistry\n/// @author genie\n/// @notice Topic Registry.\n/// @dev  Topics can be registered when create achievement or the permissioned.\ncontract TopicRegistry is RegistryUser {\n    \n    struct Topic {\n        uint256 id;\n        bytes32 title;\n        address issuer;\n        bytes32 explanation;\n        uint256 createdAt;\n    }\n\n    uint256 public total;\n    uint256 public constant RESERVED_TOPICS = 1025; // 0 ~ 1024\n    \n    mapping(uint256 => Topic) public topics;\n    mapping(uint256 => bool) isTopicRegistered;\n\n    event RegisterTopic(uint256 indexed id, address indexed issuer, bytes32 explanation);\n    event UpdateTopic(uint256 indexed id, address indexed issuer, bytes32 explanation);\n\n    constructor() public {\n        THIS_NAME = \"TopicRegistry\";\n        total = RESERVED_TOPICS;\n\n    }\n    \n    /**\n     * @dev Register new topic by system. this topic numbers should be 0~1024.\n     * @param _id basic managementKey to use\n     * @param _title title\n     * @param _explanation explanation\n     * @return new topic id\n     */\n    function registerTopicBySystem(uint256 _id, bytes32 _title, bytes32 _explanation) public permissioned returns (uint256 topicId) {\n\n        // check topic doesn't exist\n        require(topics[_id].id == 0 && _id < RESERVED_TOPICS, \"Topic term is wrong\");\n\n        Topic memory t;\n        t.id = _id;\n        t.title = _title;\n        t.issuer = msg.sender;\n        t.explanation = _explanation;\n        t.createdAt = block.timestamp;\n        topics[_id] = t;\n\n        isTopicRegistered[_id] = true;\n\n        emit RegisterTopic(_id, msg.sender, _explanation);\n        \n        return _id;\n    }  \n\n    /**\n     * @dev Register topic by general user(usually aa). this topic numbers are incrementally set.\n     * @param _title title\n     * @param _explanation explanation\n     * @return new topic id\n     */\n    function registerTopic(bytes32 _title, bytes32 _explanation) public returns (uint256 topicId) {\n        IAttestationAgencyRegistry ar = IAttestationAgencyRegistry(REG.getContractAddress(\"AttestationAgencyRegistry\"));\n\n        //Only Attestation Agency or permissioned can register topic\n        require(ar.isRegistered(msg.sender) != 0 || isPermitted(msg.sender),\"No permission\"); \n\n        Topic memory t;\n        t.id = total;\n        t.issuer = msg.sender;\n        t.title = _title;\n        t.explanation = _explanation;\n        t.createdAt = block.timestamp;\n        topics[total] = t;\n        \n        isTopicRegistered[total] = true;\n\n        emit RegisterTopic(total, msg.sender, _explanation);\n\n        total++;\n\n        return total-1; // return new topic id\n    }    \n\n    \n    /**\n     * @dev Update topic by creator.\n     * @param _id topic to update\n     * @param _explanation explanation\n     * @return A boolean that indicates if the operation was successful.\n     */\n    function updateTopic(uint256 _id, bytes32 _explanation) public returns (bool success) {\n        \n        require(topics[_id].issuer == msg.sender,\"issuer mismatch\");\n\n        topics[_id].explanation = _explanation;\n\n        emit UpdateTopic(_id, msg.sender, _explanation);\n\n        return true;\n\n    }\n\n\n    function isRegistered(uint256 _id) public view returns (bool found) {\n        return isTopicRegistered[_id];\n    }\n\n\n    function getTotal() public view returns (uint256 length) {\n        return total;\n    }\n    \n    function getTopic(uint256 _id) public view returns(address issuer, bytes32 title, bytes32 explanation, uint256 createdAt) {\n        return (topics[_id].issuer, topics[_id].title, topics[_id].explanation, topics[_id].createdAt);\n    }\n\n    /**\n     * @dev Batch Read functino for topic\n     * @param _from from\n     * @param _to to\n     * @return topic data\n     */\n    function getTopicFromTo(uint256 _from, uint256 _to) \n    public \n    view\n    returns(address[] addrs, bytes32[] titles, bytes32[] explans, uint256[] createds)\n    {\n        require(_to >= _from, \"from to mismatch\");\n        address[] memory saddrs = new address[](_to-_from+1);\n        bytes32[] memory sexplans = new bytes32[](_to-_from+1);\n        uint256[] memory screateds = new uint256[](_to-_from+1);\n        bytes32[] memory stitles = new bytes32[](_to-_from+1);\n\n        for (uint256 i = _from;i<=_to;i++) {\n            saddrs[i-_from] = topics[i].issuer;\n            sexplans[i-_from] = topics[i].explanation;\n            screateds[i-_from] = topics[i].createdAt;\n            stitles[i-_from] = topics[i].title;\n        }\n\n        return (saddrs, stitles, sexplans, screateds);\n    }\n\n}\n",
  "sourcePath": "/Users/hexoul/Documents/Metadium/metabolics/contracts/registry/TopicRegistry.sol",
  "compiler": {
    "name": "solc",
    "version": "0.4.24+commit.e67f0147.Emscripten.clang"
  },
  "schemaVersion": "2.0.1",
  "updatedAt": "2019-03-18T02:49:08.379Z"
}