{
  "contractName": "TopicRegistry",
  "abi": [
    {
      "constant": true,
      "inputs": [
        {
          "name": "",
          "type": "uint256"
        }
      ],
      "name": "topics",
      "outputs": [
        {
          "name": "id",
          "type": "uint256"
        },
        {
          "name": "issuer",
          "type": "address"
        },
        {
          "name": "explanation",
          "type": "bytes32"
        }
      ],
      "payable": false,
      "stateMutability": "view",
      "type": "function"
    },
    {
      "constant": true,
      "inputs": [],
      "name": "total",
      "outputs": [
        {
          "name": "",
          "type": "uint256"
        }
      ],
      "payable": false,
      "stateMutability": "view",
      "type": "function"
    },
    {
      "constant": true,
      "inputs": [],
      "name": "REG",
      "outputs": [
        {
          "name": "",
          "type": "address"
        }
      ],
      "payable": false,
      "stateMutability": "view",
      "type": "function"
    },
    {
      "constant": false,
      "inputs": [
        {
          "name": "_addr",
          "type": "address"
        }
      ],
      "name": "isPermitted",
      "outputs": [
        {
          "name": "",
          "type": "bool"
        }
      ],
      "payable": false,
      "stateMutability": "nonpayable",
      "type": "function"
    },
    {
      "constant": true,
      "inputs": [],
      "name": "RESERVED_TOPICS",
      "outputs": [
        {
          "name": "",
          "type": "uint256"
        }
      ],
      "payable": false,
      "stateMutability": "view",
      "type": "function"
    },
    {
      "constant": true,
      "inputs": [],
      "name": "THIS_NAME",
      "outputs": [
        {
          "name": "",
          "type": "bytes32"
        }
      ],
      "payable": false,
      "stateMutability": "view",
      "type": "function"
    },
    {
      "constant": true,
      "inputs": [],
      "name": "owner",
      "outputs": [
        {
          "name": "",
          "type": "address"
        }
      ],
      "payable": false,
      "stateMutability": "view",
      "type": "function"
    },
    {
      "constant": false,
      "inputs": [
        {
          "name": "_addr",
          "type": "address"
        }
      ],
      "name": "setRegistry",
      "outputs": [],
      "payable": false,
      "stateMutability": "nonpayable",
      "type": "function"
    },
    {
      "constant": false,
      "inputs": [
        {
          "name": "newOwner",
          "type": "address"
        }
      ],
      "name": "transferOwnership",
      "outputs": [],
      "payable": false,
      "stateMutability": "nonpayable",
      "type": "function"
    },
    {
      "inputs": [],
      "payable": false,
      "stateMutability": "nonpayable",
      "type": "constructor"
    },
    {
      "anonymous": false,
      "inputs": [
        {
          "indexed": true,
          "name": "id",
          "type": "uint256"
        },
        {
          "indexed": true,
          "name": "issuer",
          "type": "address"
        },
        {
          "indexed": false,
          "name": "explanation",
          "type": "bytes32"
        }
      ],
      "name": "RegisterTopic",
      "type": "event"
    },
    {
      "anonymous": false,
      "inputs": [
        {
          "indexed": true,
          "name": "id",
          "type": "uint256"
        },
        {
          "indexed": true,
          "name": "issuer",
          "type": "address"
        },
        {
          "indexed": false,
          "name": "explanation",
          "type": "bytes32"
        }
      ],
      "name": "UpdateTopic",
      "type": "event"
    },
    {
      "anonymous": false,
      "inputs": [
        {
          "indexed": false,
          "name": "addr",
          "type": "address"
        },
        {
          "indexed": false,
          "name": "name",
          "type": "bytes32"
        },
        {
          "indexed": false,
          "name": "go",
          "type": "bool"
        }
      ],
      "name": "Per",
      "type": "event"
    },
    {
      "anonymous": false,
      "inputs": [
        {
          "indexed": true,
          "name": "previousOwner",
          "type": "address"
        },
        {
          "indexed": true,
          "name": "newOwner",
          "type": "address"
        }
      ],
      "name": "OwnershipTransferred",
      "type": "event"
    },
    {
      "constant": false,
      "inputs": [
        {
          "name": "_id",
          "type": "uint256"
        },
        {
          "name": "_issuer",
          "type": "address"
        },
        {
          "name": "_explanation",
          "type": "bytes32"
        }
      ],
      "name": "registerTopicBySystem",
      "outputs": [
        {
          "name": "",
          "type": "uint256"
        }
      ],
      "payable": false,
      "stateMutability": "nonpayable",
      "type": "function"
    },
    {
      "constant": false,
      "inputs": [
        {
          "name": "_issuer",
          "type": "address"
        },
        {
          "name": "_explanation",
          "type": "bytes32"
        }
      ],
      "name": "registerTopic",
      "outputs": [
        {
          "name": "",
          "type": "uint256"
        }
      ],
      "payable": false,
      "stateMutability": "nonpayable",
      "type": "function"
    },
    {
      "constant": false,
      "inputs": [
        {
          "name": "_id",
          "type": "uint256"
        },
        {
          "name": "_explanation",
          "type": "bytes32"
        }
      ],
      "name": "updateTopic",
      "outputs": [
        {
          "name": "",
          "type": "bool"
        }
      ],
      "payable": false,
      "stateMutability": "nonpayable",
      "type": "function"
    },
    {
      "constant": true,
      "inputs": [
        {
          "name": "_id",
          "type": "uint256"
        }
      ],
      "name": "isRegistered",
      "outputs": [
        {
          "name": "",
          "type": "bool"
        }
      ],
      "payable": false,
      "stateMutability": "view",
      "type": "function"
    },
    {
      "constant": true,
      "inputs": [],
      "name": "getTotal",
      "outputs": [
        {
          "name": "",
          "type": "uint256"
        }
      ],
      "payable": false,
      "stateMutability": "view",
      "type": "function"
    },
    {
      "constant": true,
      "inputs": [
        {
          "name": "_id",
          "type": "uint256"
        }
      ],
      "name": "getTopic",
      "outputs": [
        {
          "name": "",
          "type": "address"
        },
        {
          "name": "",
          "type": "bytes32"
        }
      ],
      "payable": false,
      "stateMutability": "view",
      "type": "function"
    },
    {
      "constant": true,
      "inputs": [
        {
          "name": "_from",
          "type": "uint256"
        },
        {
          "name": "_to",
          "type": "uint256"
        }
      ],
      "name": "getTopicFromTo",
      "outputs": [
        {
          "name": "",
          "type": "address[]"
        },
        {
          "name": "",
          "type": "bytes32[]"
        }
      ],
      "payable": false,
      "stateMutability": "view",
      "type": "function"
    }
  ],
  "bytecode": "0x608060405234801561001057600080fd5b5060008054600160a060020a03191633179055610401600355610acf806100386000396000f3006080604052600436106100e55763ffffffff7c0100000000000000000000000000000000000000000000000000000000600035041663038d1f8281146100ea57806318d9adab1461019e5780631dadb499146101dc5780631fcb96af1461020b5780632ddbd13a1461024157806339363112146102565780633fd8cc4e1461028757806348376f0a146102a8578063579a6988146102bd57806364319d0b146102d55780636a52a384146102ea5780637165889614610311578063775a25e31461034c5780638da5cb5b14610361578063a91ee0dc14610376578063f2fde38b14610399575b600080fd5b3480156100f657600080fd5b506101056004356024356103ba565b604051808060200180602001838103835285818151815260200191508051906020019060200280838360005b83811015610149578181015183820152602001610131565b50505050905001838103825284818151815260200191508051906020019060200280838360005b83811015610188578181015183820152602001610170565b5050505090500194505050505060405180910390f35b3480156101aa57600080fd5b506101b66004356104c0565b60408051938452600160a060020a03909216602084015282820152519081900360600190f35b3480156101e857600080fd5b506101f76004356024356104ea565b604080519115158252519081900360200190f35b34801561021757600080fd5b5061022f600160a060020a0360043516602435610562565b60408051918252519081900360200190f35b34801561024d57600080fd5b5061022f610793565b34801561026257600080fd5b5061026b610799565b60408051600160a060020a039092168252519081900360200190f35b34801561029357600080fd5b506101f7600160a060020a03600435166107a8565b3480156102b457600080fd5b5061022f61084f565b3480156102c957600080fd5b506101f7600435610855565b3480156102e157600080fd5b5061022f61086a565b3480156102f657600080fd5b5061022f600435600160a060020a0360243516604435610870565b34801561031d57600080fd5b5061032960043561096d565b60408051600160a060020a03909316835260208301919091528051918290030190f35b34801561035857600080fd5b5061022f610994565b34801561036d57600080fd5b5061026b61099a565b34801561038257600080fd5b50610397600160a060020a03600435166109a9565b005b3480156103a557600080fd5b50610397600160a060020a03600435166109ef565b606080808060008686116103cd57600080fd5b8686036001016040519080825280602002602001820160405280156103fc578160200160208202803883390190505b50925086860360010160405190808252806020026020018201604052801561042e578160200160208202803883390190505b5091508690505b8581116104b4576000818152600460205260409020600101548351600160a060020a0390911690849089840390811061046a57fe5b600160a060020a039092166020928302909101820152600082815260049091526040902060020154825183908984039081106104a257fe5b60209081029091010152600101610435565b50909590945092505050565b6004602052600090815260409020805460018201546002909201549091600160a060020a03169083565b600082815260046020526040812060010154600160a060020a0316331461051057600080fd5b60008381526004602090815260409182902060020184905581518481529151339286927f5374815fec386c3b70fb737290da1dba4135c0cdce070f3fd49de71a7fb2f94e92918290030190a392915050565b60008061056d610a83565b600154604080517f0d2020dd0000000000000000000000000000000000000000000000000000000081527f4174746573746174696f6e4167656e637952656769737472790000000000000060048201529051600160a060020a0390921691630d2020dd916024808201926020929091908290030181600087803b1580156105f357600080fd5b505af1158015610607573d6000803e3d6000fd5b505050506040513d602081101561061d57600080fd5b5051604080517fc3c5a5470000000000000000000000000000000000000000000000000000000081523360048201529051919350600160a060020a0384169163c3c5a547916024808201926020929091908290030181600087803b15801561068457600080fd5b505af1158015610698573d6000803e3d6000fd5b505050506040513d60208110156106ae57600080fd5b50511515806106c157506106c1336107a8565b15156106cc57600080fd5b60038054808352600160a060020a03878116602080860182815260408088018b81526000968752600484528187208951815592516001808501805473ffffffffffffffffffffffffffffffffffffffff1916929098169190911790965551600290920191909155855485526005825293849020805460ff191690931790925592548251888152925190927f550489acffb5941e791edb5f6d0f95860dfdf828d873d6eeddf4d6027f7c1f7192908290030190a3505060038054600181019091559392505050565b60035481565b600154600160a060020a031681565b600154600254604080517f60d6c7cf0000000000000000000000000000000000000000000000000000000081526004810192909252600160a060020a038481166024840152905160009391909116916360d6c7cf91604480830192602092919082900301818787803b15801561081d57600080fd5b505af1158015610831573d6000803e3d6000fd5b505050506040513d602081101561084757600080fd5b505192915050565b61040081565b60009081526005602052604090205460ff1690565b60025481565b600061087a610a83565b610883336107a8565b151561088e57600080fd5b6000858152600460205260409020541580156108ab575061040085105b15156108b657600080fd5b848152600160a060020a038481166020808401828152604080860188815260008b8152600485528281208851815593516001808601805473ffffffffffffffffffffffffffffffffffffffff1916929099169190911790975590516002909301929092556005835290819020805460ff191690941790935582518681529251919288927f550489acffb5941e791edb5f6d0f95860dfdf828d873d6eeddf4d6027f7c1f71929181900390910190a350929392505050565b60009081526004602052604090206001810154600290910154600160a060020a0390911691565b60035490565b600054600160a060020a031681565b600054600160a060020a031633146109c057600080fd5b6001805473ffffffffffffffffffffffffffffffffffffffff1916600160a060020a0392909216919091179055565b600054600160a060020a03163314610a0657600080fd5b600160a060020a0381161515610a1b57600080fd5b60008054604051600160a060020a03808516939216917f8be0079c531659141344cd1fd0a4f28419497f9722a3daafe3b4186f6b6457e091a36000805473ffffffffffffffffffffffffffffffffffffffff1916600160a060020a0392909216919091179055565b6040805160608101825260008082526020820181905291810191909152905600a165627a7a7230582049c7aca98236bfcdb48aa64ceda4034c4cb5c4139419ac0d0fad813bdf2503c60029",
  "source": "pragma solidity ^0.4.24;\n\nimport \"../RegistryUser.sol\";\nimport \"../interface/IAttestationAgencyRegistry.sol\";\n\n/// @title TopicRegistry\n/// @author genie\n/// @notice Topic Registry.\n/// @dev  Topics can be registered when create achievement or the permissioned.\ncontract TopicRegistry is RegistryUser {\n    \n    struct Topic {\n        uint256 id;\n        address issuer;\n        bytes32 explanation;\n    }\n\n    uint256 public total;\n    uint256 public constant RESERVED_TOPICS = 1024;\n    \n    mapping(uint256 => Topic) public topics;\n    mapping(uint256 => bool) isTopicRegistered;\n\n    event RegisterTopic(uint256 indexed id, address indexed issuer, bytes32 explanation);\n    event UpdateTopic(uint256 indexed id, address indexed issuer, bytes32 explanation);\n\n    constructor() public {\n\n        total = RESERVED_TOPICS + 1;\n\n    }\n\n    function registerTopicBySystem(uint256 _id, address _issuer, bytes32 _explanation) permissioned public returns (uint256) {\n\n        // check topic doen't exist\n        require(topics[_id].id == 0 && _id < RESERVED_TOPICS);\n\n        Topic memory t;\n        t.id = _id;\n        t.issuer = _issuer;\n        t.explanation = _explanation;\n        topics[_id] = t;\n\n        isTopicRegistered[_id] = true;\n\n        emit RegisterTopic(_id, _issuer, _explanation);\n        \n        return _id;\n    }   \n\n    function registerTopic(address _issuer, bytes32 _explanation) public returns (uint256) {\n        IAttestationAgencyRegistry ar = IAttestationAgencyRegistry(REG.getContractAddress(\"AttestationAgencyRegistry\"));\n        require(ar.isRegistered(msg.sender) != 0 || isPermitted(msg.sender)); //Only Attestation Agency or permissioned can register topic\n\n        Topic memory t;\n        t.id = total;\n        t.issuer = _issuer;\n        t.explanation = _explanation;\n        topics[total] = t;\n        \n        isTopicRegistered[total] = true;\n\n        emit RegisterTopic(total, _issuer, _explanation);\n\n        total++;\n\n        return total-1; // return new topic id\n    }    \n    \n    function updateTopic(uint256 _id, bytes32 _explanation) public returns (bool) {\n        \n        require(topics[_id].issuer == msg.sender);\n\n        topics[_id].explanation = _explanation;\n\n        emit UpdateTopic(_id, msg.sender , _explanation);\n\n    }\n\n    function isRegistered(uint256 _id) view public returns (bool) {\n        return isTopicRegistered[_id];\n    }\n\n    function getTotal() view public returns (uint256) {\n        return total;\n    }\n    \n    function getTopic(uint256 _id) view public returns(address, bytes32){\n        return (topics[_id].issuer, topics[_id].explanation);\n    }\n\n    function getTopicFromTo(uint256 _from, uint256 _to) view public returns(address[], bytes32[]){\n        require(_to>_from);\n        address[] memory saddrs = new address[](_to-_from+1);\n        bytes32[] memory sexplans = new bytes32[](_to-_from+1);\n\n        for(uint256 i=_from;i<=_to;i++){\n            saddrs[i-_from] = topics[i].issuer;\n            sexplans[i-_from] = topics[i].explanation;\n        }\n\n        return (saddrs, sexplans);\n    }\n\n}\n",
  "sourcePath": "/Users/coinplug/BangGijin/metabolics2.0/contracts/registry/TopicRegistry.sol",
  "compiler": {
    "name": "solc",
    "version": "0.4.24+commit.e67f0147.Emscripten.clang"
  },
  "schemaVersion": "2.0.1",
  "updatedAt": "2018-10-23T02:42:44.441Z"
}