{
  "contractName": "TopicRegistry",
  "abi": [
    {
      "constant": true,
      "inputs": [
        {
          "name": "",
          "type": "uint256"
        }
      ],
      "name": "topics",
      "outputs": [
        {
          "name": "id",
          "type": "uint256"
        },
        {
          "name": "title",
          "type": "bytes32"
        },
        {
          "name": "issuer",
          "type": "address"
        },
        {
          "name": "explanation",
          "type": "bytes32"
        },
        {
          "name": "createdAt",
          "type": "uint256"
        }
      ],
      "payable": false,
      "stateMutability": "view",
      "type": "function"
    },
    {
      "constant": true,
      "inputs": [],
      "name": "total",
      "outputs": [
        {
          "name": "",
          "type": "uint256"
        }
      ],
      "payable": false,
      "stateMutability": "view",
      "type": "function"
    },
    {
      "constant": true,
      "inputs": [],
      "name": "REG",
      "outputs": [
        {
          "name": "",
          "type": "address"
        }
      ],
      "payable": false,
      "stateMutability": "view",
      "type": "function"
    },
    {
      "constant": true,
      "inputs": [
        {
          "name": "_addr",
          "type": "address"
        }
      ],
      "name": "isPermitted",
      "outputs": [
        {
          "name": "found",
          "type": "bool"
        }
      ],
      "payable": false,
      "stateMutability": "view",
      "type": "function"
    },
    {
      "constant": true,
      "inputs": [],
      "name": "RESERVED_TOPICS",
      "outputs": [
        {
          "name": "",
          "type": "uint256"
        }
      ],
      "payable": false,
      "stateMutability": "view",
      "type": "function"
    },
    {
      "constant": true,
      "inputs": [],
      "name": "THIS_NAME",
      "outputs": [
        {
          "name": "",
          "type": "bytes32"
        }
      ],
      "payable": false,
      "stateMutability": "view",
      "type": "function"
    },
    {
      "constant": true,
      "inputs": [],
      "name": "owner",
      "outputs": [
        {
          "name": "",
          "type": "address"
        }
      ],
      "payable": false,
      "stateMutability": "view",
      "type": "function"
    },
    {
      "constant": false,
      "inputs": [
        {
          "name": "_addr",
          "type": "address"
        }
      ],
      "name": "setRegistry",
      "outputs": [],
      "payable": false,
      "stateMutability": "nonpayable",
      "type": "function"
    },
    {
      "constant": false,
      "inputs": [
        {
          "name": "newOwner",
          "type": "address"
        }
      ],
      "name": "transferOwnership",
      "outputs": [],
      "payable": false,
      "stateMutability": "nonpayable",
      "type": "function"
    },
    {
      "inputs": [],
      "payable": false,
      "stateMutability": "nonpayable",
      "type": "constructor"
    },
    {
      "anonymous": false,
      "inputs": [
        {
          "indexed": true,
          "name": "id",
          "type": "uint256"
        },
        {
          "indexed": true,
          "name": "issuer",
          "type": "address"
        },
        {
          "indexed": false,
          "name": "explanation",
          "type": "bytes32"
        }
      ],
      "name": "RegisterTopic",
      "type": "event"
    },
    {
      "anonymous": false,
      "inputs": [
        {
          "indexed": true,
          "name": "id",
          "type": "uint256"
        },
        {
          "indexed": true,
          "name": "issuer",
          "type": "address"
        },
        {
          "indexed": false,
          "name": "explanation",
          "type": "bytes32"
        }
      ],
      "name": "UpdateTopic",
      "type": "event"
    },
    {
      "anonymous": false,
      "inputs": [
        {
          "indexed": false,
          "name": "addr",
          "type": "address"
        },
        {
          "indexed": false,
          "name": "name",
          "type": "bytes32"
        },
        {
          "indexed": false,
          "name": "go",
          "type": "bool"
        }
      ],
      "name": "Per",
      "type": "event"
    },
    {
      "anonymous": false,
      "inputs": [
        {
          "indexed": true,
          "name": "previousOwner",
          "type": "address"
        },
        {
          "indexed": true,
          "name": "newOwner",
          "type": "address"
        }
      ],
      "name": "OwnershipTransferred",
      "type": "event"
    },
    {
      "constant": false,
      "inputs": [
        {
          "name": "_id",
          "type": "uint256"
        },
        {
          "name": "_title",
          "type": "bytes32"
        },
        {
          "name": "_explanation",
          "type": "bytes32"
        }
      ],
      "name": "registerTopicBySystem",
      "outputs": [
        {
          "name": "topicId",
          "type": "uint256"
        }
      ],
      "payable": false,
      "stateMutability": "nonpayable",
      "type": "function"
    },
    {
      "constant": false,
      "inputs": [
        {
          "name": "_title",
          "type": "bytes32"
        },
        {
          "name": "_explanation",
          "type": "bytes32"
        }
      ],
      "name": "registerTopic",
      "outputs": [
        {
          "name": "topicId",
          "type": "uint256"
        }
      ],
      "payable": false,
      "stateMutability": "nonpayable",
      "type": "function"
    },
    {
      "constant": false,
      "inputs": [
        {
          "name": "_id",
          "type": "uint256"
        },
        {
          "name": "_explanation",
          "type": "bytes32"
        }
      ],
      "name": "updateTopic",
      "outputs": [
        {
          "name": "success",
          "type": "bool"
        }
      ],
      "payable": false,
      "stateMutability": "nonpayable",
      "type": "function"
    },
    {
      "constant": true,
      "inputs": [
        {
          "name": "_id",
          "type": "uint256"
        }
      ],
      "name": "isRegistered",
      "outputs": [
        {
          "name": "found",
          "type": "bool"
        }
      ],
      "payable": false,
      "stateMutability": "view",
      "type": "function"
    },
    {
      "constant": true,
      "inputs": [],
      "name": "getTotal",
      "outputs": [
        {
          "name": "length",
          "type": "uint256"
        }
      ],
      "payable": false,
      "stateMutability": "view",
      "type": "function"
    },
    {
      "constant": true,
      "inputs": [
        {
          "name": "_id",
          "type": "uint256"
        }
      ],
      "name": "getTopic",
      "outputs": [
        {
          "name": "issuer",
          "type": "address"
        },
        {
          "name": "title",
          "type": "bytes32"
        },
        {
          "name": "explanation",
          "type": "bytes32"
        },
        {
          "name": "createdAt",
          "type": "uint256"
        }
      ],
      "payable": false,
      "stateMutability": "view",
      "type": "function"
    },
    {
      "constant": true,
      "inputs": [
        {
          "name": "_from",
          "type": "uint256"
        },
        {
          "name": "_to",
          "type": "uint256"
        }
      ],
      "name": "getTopicFromTo",
      "outputs": [
        {
          "name": "addrs",
          "type": "address[]"
        },
        {
          "name": "titles",
          "type": "bytes32[]"
        },
        {
          "name": "explans",
          "type": "bytes32[]"
        },
        {
          "name": "createds",
          "type": "uint256[]"
        }
      ],
      "payable": false,
      "stateMutability": "view",
      "type": "function"
    }
  ],
  "bytecode": "0x608060405234801561001057600080fd5b5060008054600160a060020a03191633179055610401600355610c8d806100386000396000f3006080604052600436106100e55763ffffffff7c0100000000000000000000000000000000000000000000000000000000600035041663038d1f8281146100ea57806318d9adab146102285780631dadb4991461027357806321cc91b2146102a25780632ddbd13a146102cf57806339363112146102e45780633fd8cc4e1461031557806348376f0a14610336578063579a69881461034b57806364319d0b146103635780637165889614610378578063775a25e3146103c05780638da5cb5b146103d557806399327dee146103ea578063a91ee0dc14610408578063f2fde38b1461042b575b600080fd5b3480156100f657600080fd5b5061010560043560243561044c565b6040518080602001806020018060200180602001858103855289818151815260200191508051906020019060200280838360005b83811015610151578181015183820152602001610139565b50505050905001858103845288818151815260200191508051906020019060200280838360005b83811015610190578181015183820152602001610178565b50505050905001858103835287818151815260200191508051906020019060200280838360005b838110156101cf5781810151838201526020016101b7565b50505050905001858103825286818151815260200191508051906020019060200280838360005b8381101561020e5781810151838201526020016101f6565b505050509050019850505050505050505060405180910390f35b34801561023457600080fd5b5061024060043561061e565b604080519586526020860194909452600160a060020a039092168484015260608401526080830152519081900360a00190f35b34801561027f57600080fd5b5061028e600435602435610658565b604080519115158252519081900360200190f35b3480156102ae57600080fd5b506102bd6004356024356106d3565b60408051918252519081900360200190f35b3480156102db57600080fd5b506102bd61091b565b3480156102f057600080fd5b506102f9610921565b60408051600160a060020a039092168252519081900360200190f35b34801561032157600080fd5b5061028e600160a060020a0360043516610930565b34801561034257600080fd5b506102bd6109d7565b34801561035757600080fd5b5061028e6004356109dd565b34801561036f57600080fd5b506102bd6109f2565b34801561038457600080fd5b506103906004356109f8565b60408051600160a060020a0390951685526020850193909352838301919091526060830152519081900360800190f35b3480156103cc57600080fd5b506102bd610a2b565b3480156103e157600080fd5b506102f9610a31565b3480156103f657600080fd5b506102bd600435602435604435610a40565b34801561041457600080fd5b50610429600160a060020a0360043516610b59565b005b34801561043757600080fd5b50610429600160a060020a0360043516610b9f565b60608080808080808060008a8a1161046357600080fd5b8a8a03600101604051908082528060200260200182016040528015610492578160200160208202803883390190505b5094508a8a036001016040519080825280602002602001820160405280156104c4578160200160208202803883390190505b5093508a8a036001016040519080825280602002602001820160405280156104f6578160200160208202803883390190505b5092508a8a03600101604051908082528060200260200182016040528015610528578160200160208202803883390190505b5091508a90505b89811161060d576000818152600460205260409020600201548551600160a060020a039091169086908d840390811061056457fe5b600160a060020a039092166020928302909101820152600082815260049091526040902060030154845185908d840390811061059c57fe5b60209081029091018101919091526000828152600491829052604090200154835184908d84039081106105cb57fe5b6020908102909101810191909152600082815260049091526040902060010154825183908d84039081106105fb57fe5b6020908102909101015260010161052f565b509299929850909650945092505050565b60046020819052600091825260409091208054600182015460028301546003840154939094015491939092600160a060020a039091169185565b600082815260046020526040812060020154600160a060020a0316331461067e57600080fd5b60008381526004602090815260409182902060030184905581518481529151339286927f5374815fec386c3b70fb737290da1dba4135c0cdce070f3fd49de71a7fb2f94e92918290030190a350600192915050565b6000806106de610c33565b600154604080517f0d2020dd0000000000000000000000000000000000000000000000000000000081527f4174746573746174696f6e4167656e637952656769737472790000000000000060048201529051600160a060020a0390921691630d2020dd916024808201926020929091908290030181600087803b15801561076457600080fd5b505af1158015610778573d6000803e3d6000fd5b505050506040513d602081101561078e57600080fd5b5051604080517fc3c5a5470000000000000000000000000000000000000000000000000000000081523360048201529051919350600160a060020a0384169163c3c5a547916024808201926020929091908290030181600087803b1580156107f557600080fd5b505af1158015610809573d6000803e3d6000fd5b505050506040513d602081101561081f57600080fd5b5051151580610832575061083233610930565b151561083d57600080fd5b6003805480835233604080850182815260208087018b8152606088018b81524260808a01908152600097885260048085528689208b5181559351600180860191909155955160028501805473ffffffffffffffffffffffffffffffffffffffff1916600160a060020a039092169190911790559151838a015551910155855485526005815293829020805460ff19169091179055925483518881529351919390927f550489acffb5941e791edb5f6d0f95860dfdf828d873d6eeddf4d6027f7c1f7192918290030190a3505060038054600181019091559392505050565b60035481565b600154600160a060020a031681565b600154600254604080517f60d6c7cf0000000000000000000000000000000000000000000000000000000081526004810192909252600160a060020a038481166024840152905160009391909116916360d6c7cf91604480830192602092919082900301818787803b1580156109a557600080fd5b505af11580156109b9573d6000803e3d6000fd5b505050506040513d60208110156109cf57600080fd5b505192915050565b61040081565b60009081526005602052604090205460ff1690565b60025481565b60009081526004602081905260409091206002810154600182015460038301549290930154600160a060020a0390911693565b60035490565b600054600160a060020a031681565b6000610a4a610c33565b610a5333610930565b1515610a5e57600080fd5b600085815260046020526040902054158015610a7b575061040085105b1515610a8657600080fd5b848152602080820185815233604080850182815260608601888152426080880190815260008c815260048089528582208a51815597516001808a0191909155945160028901805473ffffffffffffffffffffffffffffffffffffffff1916600160a060020a0390921691909117905592516003880155905195909101949094556005855292819020805460ff191690931790925581518681529151909288927f550489acffb5941e791edb5f6d0f95860dfdf828d873d6eeddf4d6027f7c1f71929081900390910190a350929392505050565b600054600160a060020a03163314610b7057600080fd5b6001805473ffffffffffffffffffffffffffffffffffffffff1916600160a060020a0392909216919091179055565b600054600160a060020a03163314610bb657600080fd5b600160a060020a0381161515610bcb57600080fd5b60008054604051600160a060020a03808516939216917f8be0079c531659141344cd1fd0a4f28419497f9722a3daafe3b4186f6b6457e091a36000805473ffffffffffffffffffffffffffffffffffffffff1916600160a060020a0392909216919091179055565b6040805160a081018252600080825260208201819052918101829052606081018290526080810191909152905600a165627a7a723058209ff142d64d22b2d628caa0fad2dfc8da2c7d2b49851d6e67be9f5c576b6793e00029",
  "source": "pragma solidity ^0.4.24;\n\nimport \"../RegistryUser.sol\";\nimport \"../interface/IAttestationAgencyRegistry.sol\";\n\n/// @title TopicRegistry\n/// @author genie\n/// @notice Topic Registry.\n/// @dev  Topics can be registered when create achievement or the permissioned.\ncontract TopicRegistry is RegistryUser {\n    \n    struct Topic {\n        uint256 id;\n        bytes32 title;\n        address issuer;\n        bytes32 explanation;\n        uint256 createdAt;\n    }\n\n    uint256 public total;\n    uint256 public constant RESERVED_TOPICS = 1024;\n    \n    mapping(uint256 => Topic) public topics;\n    mapping(uint256 => bool) isTopicRegistered;\n\n    event RegisterTopic(uint256 indexed id, address indexed issuer, bytes32 explanation);\n    event UpdateTopic(uint256 indexed id, address indexed issuer, bytes32 explanation);\n\n    constructor() public {\n\n        total = RESERVED_TOPICS + 1;\n\n    }\n\n    /**\n     * @dev Register new topic by system. this topic numbers should be 0~1024.\n     * @param _id basic managementKey to use\n     * @param _title title\n     * @param _explanation explanation\n     * @return new topic id\n     */\n    function registerTopicBySystem(uint256 _id, bytes32 _title, bytes32 _explanation) permissioned public returns (uint256 topicId) {\n\n        // check topic doesn't exist\n        require(topics[_id].id == 0 && _id < RESERVED_TOPICS);\n\n        Topic memory t;\n        t.id = _id;\n        t.title = _title;\n        t.issuer = msg.sender;\n        t.explanation = _explanation;\n        t.createdAt = now;\n        topics[_id] = t;\n\n        isTopicRegistered[_id] = true;\n\n        emit RegisterTopic(_id, msg.sender, _explanation);\n        \n        return _id;\n    }  \n\n    /**\n     * @dev Register topic by general user(usually aa). this topic numbers are incrementally set.\n     * @param _title title\n     * @param _explanation explanation\n     * @return new topic id\n     */\n    function registerTopic(bytes32 _title, bytes32 _explanation) public returns (uint256 topicId) {\n        IAttestationAgencyRegistry ar = IAttestationAgencyRegistry(REG.getContractAddress(\"AttestationAgencyRegistry\"));\n        require(ar.isRegistered(msg.sender) != 0 || isPermitted(msg.sender)); //Only Attestation Agency or permissioned can register topic\n\n        Topic memory t;\n        t.id = total;\n        t.issuer = msg.sender;\n        t.title = _title;\n        t.explanation = _explanation;\n        t.createdAt = now;\n        topics[total] = t;\n        \n        isTopicRegistered[total] = true;\n\n        emit RegisterTopic(total, msg.sender, _explanation);\n\n        total++;\n\n        return total-1; // return new topic id\n    }    \n\n    \n    /**\n     * @dev Update topic by creator.\n     * @param _id topic to update\n     * @param _explanation explanation\n     * @return A boolean that indicates if the operation was successful.\n     */\n    function updateTopic(uint256 _id, bytes32 _explanation) public returns (bool success) {\n        \n        require(topics[_id].issuer == msg.sender);\n\n        topics[_id].explanation = _explanation;\n\n        emit UpdateTopic(_id, msg.sender , _explanation);\n\n        return true;\n\n    }\n\n\n    function isRegistered(uint256 _id) view public returns (bool found) {\n        return isTopicRegistered[_id];\n    }\n\n\n    function getTotal() view public returns (uint256 length) {\n        return total;\n    }\n    \n    function getTopic(uint256 _id) view public returns(address issuer, bytes32 title, bytes32 explanation, uint256 createdAt){\n        return (topics[_id].issuer, topics[_id].title, topics[_id].explanation, topics[_id].createdAt);\n    }\n\n    /**\n     * @dev Batch Read functino for topic\n     * @param _from from\n     * @param _to to\n     * @return topic data\n     */\n    function getTopicFromTo(uint256 _from, uint256 _to) view public returns(address[] addrs, bytes32[] titles, bytes32[] explans, uint256[] createds){\n        require(_to>_from);\n        address[] memory saddrs = new address[](_to-_from+1);\n        bytes32[] memory sexplans = new bytes32[](_to-_from+1);\n        uint256[] memory screateds = new uint256[](_to-_from+1);\n        bytes32[] memory stitles = new bytes32[](_to-_from+1);\n\n        for(uint256 i=_from;i<=_to;i++){\n            saddrs[i-_from] = topics[i].issuer;\n            sexplans[i-_from] = topics[i].explanation;\n            screateds[i-_from] = topics[i].createdAt;\n            stitles[i-_from] = topics[i].title;\n        }\n\n        return (saddrs, stitles, sexplans, screateds);\n    }\n\n}\n",
  "sourcePath": "/Users/coinplug/BangGijin/metabolics2.0/contracts/registry/TopicRegistry.sol",
  "compiler": {
    "name": "solc",
    "version": "0.4.24+commit.e67f0147.Emscripten.clang"
  },
  "schemaVersion": "2.0.1",
  "updatedAt": "2018-10-29T03:18:34.323Z"
}