{
  "contractName": "TopicRegistry",
  "abi": [
    {
      "constant": true,
      "inputs": [
        {
          "name": "",
          "type": "uint256"
        }
      ],
      "name": "topics",
      "outputs": [
        {
          "name": "id",
          "type": "uint256"
        },
        {
          "name": "issuer",
          "type": "address"
        },
        {
          "name": "explanation",
          "type": "bytes32"
        }
      ],
      "payable": false,
      "stateMutability": "view",
      "type": "function"
    },
    {
      "constant": true,
      "inputs": [],
      "name": "REG",
      "outputs": [
        {
          "name": "",
          "type": "address"
        }
      ],
      "payable": false,
      "stateMutability": "view",
      "type": "function"
    },
    {
      "constant": false,
      "inputs": [],
      "name": "isPermitted",
      "outputs": [
        {
          "name": "",
          "type": "bool"
        }
      ],
      "payable": false,
      "stateMutability": "nonpayable",
      "type": "function"
    },
    {
      "constant": true,
      "inputs": [],
      "name": "THIS_NAME",
      "outputs": [
        {
          "name": "",
          "type": "bytes32"
        }
      ],
      "payable": false,
      "stateMutability": "view",
      "type": "function"
    },
    {
      "constant": true,
      "inputs": [],
      "name": "owner",
      "outputs": [
        {
          "name": "",
          "type": "address"
        }
      ],
      "payable": false,
      "stateMutability": "view",
      "type": "function"
    },
    {
      "constant": false,
      "inputs": [
        {
          "name": "_addr",
          "type": "address"
        }
      ],
      "name": "setRegistry",
      "outputs": [],
      "payable": false,
      "stateMutability": "nonpayable",
      "type": "function"
    },
    {
      "constant": true,
      "inputs": [],
      "name": "topicNonce",
      "outputs": [
        {
          "name": "",
          "type": "uint256"
        }
      ],
      "payable": false,
      "stateMutability": "view",
      "type": "function"
    },
    {
      "constant": false,
      "inputs": [
        {
          "name": "newOwner",
          "type": "address"
        }
      ],
      "name": "transferOwnership",
      "outputs": [],
      "payable": false,
      "stateMutability": "nonpayable",
      "type": "function"
    },
    {
      "inputs": [],
      "payable": false,
      "stateMutability": "nonpayable",
      "type": "constructor"
    },
    {
      "anonymous": false,
      "inputs": [
        {
          "indexed": false,
          "name": "addr",
          "type": "address"
        },
        {
          "indexed": false,
          "name": "name",
          "type": "bytes32"
        },
        {
          "indexed": false,
          "name": "go",
          "type": "bool"
        }
      ],
      "name": "Per",
      "type": "event"
    },
    {
      "anonymous": false,
      "inputs": [
        {
          "indexed": true,
          "name": "previousOwner",
          "type": "address"
        },
        {
          "indexed": true,
          "name": "newOwner",
          "type": "address"
        }
      ],
      "name": "OwnershipTransferred",
      "type": "event"
    },
    {
      "constant": false,
      "inputs": [
        {
          "name": "id",
          "type": "uint256"
        },
        {
          "name": "issuer",
          "type": "address"
        },
        {
          "name": "explanation",
          "type": "bytes32"
        }
      ],
      "name": "registerTopic",
      "outputs": [
        {
          "name": "",
          "type": "bool"
        }
      ],
      "payable": false,
      "stateMutability": "nonpayable",
      "type": "function"
    },
    {
      "constant": true,
      "inputs": [
        {
          "name": "id",
          "type": "uint256"
        }
      ],
      "name": "getTopic",
      "outputs": [
        {
          "name": "",
          "type": "address"
        },
        {
          "name": "",
          "type": "bytes32"
        }
      ],
      "payable": false,
      "stateMutability": "view",
      "type": "function"
    }
  ],
  "bytecode": "0x608060405234801561001057600080fd5b5060008054600160a060020a03191633179055610400600355610503806100386000396000f3006080604052600436106100a35763ffffffff7c010000000000000000000000000000000000000000000000000000000060003504166318d9adab81146100a857806339363112146100e65780633f6fd7121461011757806364319d0b1461014057806371658896146101675780638da5cb5b146101a2578063a91ee0dc146101b7578063c8d1d23e146101da578063ec81fc0c14610201578063f2fde38b14610216575b600080fd5b3480156100b457600080fd5b506100c0600435610237565b60408051938452600160a060020a03909216602084015282820152519081900360600190f35b3480156100f257600080fd5b506100fb610261565b60408051600160a060020a039092168252519081900360200190f35b34801561012357600080fd5b5061012c610270565b604080519115158252519081900360200190f35b34801561014c57600080fd5b50610155610310565b60408051918252519081900360200190f35b34801561017357600080fd5b5061017f600435610316565b60408051600160a060020a03909316835260208301919091528051918290030190f35b3480156101ae57600080fd5b506100fb61033d565b3480156101c357600080fd5b506101d8600160a060020a036004351661034c565b005b3480156101e657600080fd5b5061012c600435600160a060020a0360243516604435610392565b34801561020d57600080fd5b5061015561041d565b34801561022257600080fd5b506101d8600160a060020a0360043516610423565b6004602052600090815260409020805460018201546002909201549091600160a060020a03169083565b600154600160a060020a031681565b600154600254604080517f60d6c7cf000000000000000000000000000000000000000000000000000000008152600481019290925233602483015251600092600160a060020a0316916360d6c7cf91604480830192602092919082900301818787803b1580156102df57600080fd5b505af11580156102f3573d6000803e3d6000fd5b505050506040513d602081101561030957600080fd5b5051905090565b60025481565b60009081526004602052604090206001810154600290910154600160a060020a0390911691565b600054600160a060020a031681565b600054600160a060020a0316331461036357600080fd5b6001805473ffffffffffffffffffffffffffffffffffffffff1916600160a060020a0392909216919091179055565b600061039c6104b7565b600085815260046020526040902054156103b557600080fd5b848152600160a060020a0393841660208083019182526040808401958652600097885260049091529095209051815593516001808601805473ffffffffffffffffffffffffffffffffffffffff19169290951691909117909355505160029092019190915590565b60035481565b600054600160a060020a0316331461043a57600080fd5b600160a060020a038116151561044f57600080fd5b60008054604051600160a060020a03808516939216917f8be0079c531659141344cd1fd0a4f28419497f9722a3daafe3b4186f6b6457e091a36000805473ffffffffffffffffffffffffffffffffffffffff1916600160a060020a0392909216919091179055565b6040805160608101825260008082526020820181905291810191909152905600a165627a7a72305820410b93fd9a5b9bb1815dbff7cc26960a7d3f4c71ae1192a6512bec23e9a195ee0029",
  "source": "pragma solidity ^0.4.24;\n\nimport \"../RegistryUser.sol\";\n\n/// @title TopicRegistry\n/// @author genie\n/// @notice Topic Registry.\n/// @dev  Topics can be registered when create achievement or the permissioned.\ncontract TopicRegistry is RegistryUser {\n    \n    struct Topic {\n        uint256 id;\n        address issuer;\n        bytes32 explanation;\n    }\n\n    uint256 public topicNonce;\n    mapping(uint256 => Topic) public topics;\n\n    function TopicRegistry() public {\n        topicNonce = 1024;\n    }\n\n    function registerTopic(uint256 id, address issuer, bytes32 explanation) /* permissioned */public returns (bool) {\n        \n        // check topic doen't exist\n        require(topics[id].id == 0);\n\n        Topic memory t;\n        t.id = id;\n        t.issuer = issuer;\n        t.explanation = explanation;\n        topics[id] = t;\n        \n        return true;\n    }    \n    \n    function getTopic(uint256 id) view public returns(address, bytes32){\n        return (topics[id].issuer, topics[id].explanation);\n    }\n\n}\n",
  "sourcePath": "/Users/coinplug/BangGijin/metabolics2.0/contracts/registry/TopicRegistry.sol",
  "compiler": {
    "name": "solc",
    "version": "0.4.24+commit.e67f0147.Emscripten.clang"
  },
  "schemaVersion": "2.0.1",
  "updatedAt": "2018-10-15T06:35:55.489Z"
}