{
  "contractName": "TopicRegistry",
  "abi": [
    {
      "constant": true,
      "inputs": [
        {
          "name": "",
          "type": "uint256"
        }
      ],
      "name": "topics",
      "outputs": [
        {
          "name": "id",
          "type": "uint256"
        },
        {
          "name": "issuer",
          "type": "address"
        },
        {
          "name": "explanation",
          "type": "bytes32"
        },
        {
          "name": "createdAt",
          "type": "uint256"
        }
      ],
      "payable": false,
      "stateMutability": "view",
      "type": "function"
    },
    {
      "constant": true,
      "inputs": [],
      "name": "total",
      "outputs": [
        {
          "name": "",
          "type": "uint256"
        }
      ],
      "payable": false,
      "stateMutability": "view",
      "type": "function"
    },
    {
      "constant": true,
      "inputs": [],
      "name": "REG",
      "outputs": [
        {
          "name": "",
          "type": "address"
        }
      ],
      "payable": false,
      "stateMutability": "view",
      "type": "function"
    },
    {
      "constant": false,
      "inputs": [
        {
          "name": "_addr",
          "type": "address"
        }
      ],
      "name": "isPermitted",
      "outputs": [
        {
          "name": "",
          "type": "bool"
        }
      ],
      "payable": false,
      "stateMutability": "nonpayable",
      "type": "function"
    },
    {
      "constant": true,
      "inputs": [],
      "name": "RESERVED_TOPICS",
      "outputs": [
        {
          "name": "",
          "type": "uint256"
        }
      ],
      "payable": false,
      "stateMutability": "view",
      "type": "function"
    },
    {
      "constant": true,
      "inputs": [],
      "name": "THIS_NAME",
      "outputs": [
        {
          "name": "",
          "type": "bytes32"
        }
      ],
      "payable": false,
      "stateMutability": "view",
      "type": "function"
    },
    {
      "constant": true,
      "inputs": [],
      "name": "owner",
      "outputs": [
        {
          "name": "",
          "type": "address"
        }
      ],
      "payable": false,
      "stateMutability": "view",
      "type": "function"
    },
    {
      "constant": false,
      "inputs": [
        {
          "name": "_addr",
          "type": "address"
        }
      ],
      "name": "setRegistry",
      "outputs": [],
      "payable": false,
      "stateMutability": "nonpayable",
      "type": "function"
    },
    {
      "constant": false,
      "inputs": [
        {
          "name": "newOwner",
          "type": "address"
        }
      ],
      "name": "transferOwnership",
      "outputs": [],
      "payable": false,
      "stateMutability": "nonpayable",
      "type": "function"
    },
    {
      "inputs": [],
      "payable": false,
      "stateMutability": "nonpayable",
      "type": "constructor"
    },
    {
      "anonymous": false,
      "inputs": [
        {
          "indexed": true,
          "name": "id",
          "type": "uint256"
        },
        {
          "indexed": true,
          "name": "issuer",
          "type": "address"
        },
        {
          "indexed": false,
          "name": "explanation",
          "type": "bytes32"
        }
      ],
      "name": "RegisterTopic",
      "type": "event"
    },
    {
      "anonymous": false,
      "inputs": [
        {
          "indexed": true,
          "name": "id",
          "type": "uint256"
        },
        {
          "indexed": true,
          "name": "issuer",
          "type": "address"
        },
        {
          "indexed": false,
          "name": "explanation",
          "type": "bytes32"
        }
      ],
      "name": "UpdateTopic",
      "type": "event"
    },
    {
      "anonymous": false,
      "inputs": [
        {
          "indexed": false,
          "name": "addr",
          "type": "address"
        },
        {
          "indexed": false,
          "name": "name",
          "type": "bytes32"
        },
        {
          "indexed": false,
          "name": "go",
          "type": "bool"
        }
      ],
      "name": "Per",
      "type": "event"
    },
    {
      "anonymous": false,
      "inputs": [
        {
          "indexed": true,
          "name": "previousOwner",
          "type": "address"
        },
        {
          "indexed": true,
          "name": "newOwner",
          "type": "address"
        }
      ],
      "name": "OwnershipTransferred",
      "type": "event"
    },
    {
      "constant": false,
      "inputs": [
        {
          "name": "_id",
          "type": "uint256"
        },
        {
          "name": "_issuer",
          "type": "address"
        },
        {
          "name": "_explanation",
          "type": "bytes32"
        }
      ],
      "name": "registerTopicBySystem",
      "outputs": [
        {
          "name": "",
          "type": "uint256"
        }
      ],
      "payable": false,
      "stateMutability": "nonpayable",
      "type": "function"
    },
    {
      "constant": false,
      "inputs": [
        {
          "name": "_issuer",
          "type": "address"
        },
        {
          "name": "_explanation",
          "type": "bytes32"
        }
      ],
      "name": "registerTopic",
      "outputs": [
        {
          "name": "",
          "type": "uint256"
        }
      ],
      "payable": false,
      "stateMutability": "nonpayable",
      "type": "function"
    },
    {
      "constant": false,
      "inputs": [
        {
          "name": "_id",
          "type": "uint256"
        },
        {
          "name": "_explanation",
          "type": "bytes32"
        }
      ],
      "name": "updateTopic",
      "outputs": [
        {
          "name": "",
          "type": "bool"
        }
      ],
      "payable": false,
      "stateMutability": "nonpayable",
      "type": "function"
    },
    {
      "constant": true,
      "inputs": [
        {
          "name": "_id",
          "type": "uint256"
        }
      ],
      "name": "isRegistered",
      "outputs": [
        {
          "name": "",
          "type": "bool"
        }
      ],
      "payable": false,
      "stateMutability": "view",
      "type": "function"
    },
    {
      "constant": true,
      "inputs": [],
      "name": "getTotal",
      "outputs": [
        {
          "name": "",
          "type": "uint256"
        }
      ],
      "payable": false,
      "stateMutability": "view",
      "type": "function"
    },
    {
      "constant": true,
      "inputs": [
        {
          "name": "_id",
          "type": "uint256"
        }
      ],
      "name": "getTopic",
      "outputs": [
        {
          "name": "",
          "type": "address"
        },
        {
          "name": "",
          "type": "bytes32"
        },
        {
          "name": "",
          "type": "uint256"
        }
      ],
      "payable": false,
      "stateMutability": "view",
      "type": "function"
    },
    {
      "constant": true,
      "inputs": [
        {
          "name": "_from",
          "type": "uint256"
        },
        {
          "name": "_to",
          "type": "uint256"
        }
      ],
      "name": "getTopicFromTo",
      "outputs": [
        {
          "name": "",
          "type": "address[]"
        },
        {
          "name": "",
          "type": "bytes32[]"
        },
        {
          "name": "",
          "type": "uint256[]"
        }
      ],
      "payable": false,
      "stateMutability": "view",
      "type": "function"
    }
  ],
  "bytecode": "0x608060405234801561001057600080fd5b5060008054600160a060020a03191633179055610401600355610bb6806100386000396000f3006080604052600436106100e55763ffffffff7c0100000000000000000000000000000000000000000000000000000000600035041663038d1f8281146100ea57806318d9adab146101e35780631dadb499146102295780631fcb96af146102585780632ddbd13a1461028e57806339363112146102a35780633fd8cc4e146102d457806348376f0a146102f5578063579a69881461030a57806364319d0b146103225780636a52a38414610337578063716588961461035e578063775a25e31461039e5780638da5cb5b146103b3578063a91ee0dc146103c8578063f2fde38b146103eb575b600080fd5b3480156100f657600080fd5b5061010560043560243561040c565b60405180806020018060200180602001848103845287818151815260200191508051906020019060200280838360005b8381101561014d578181015183820152602001610135565b50505050905001848103835286818151815260200191508051906020019060200280838360005b8381101561018c578181015183820152602001610174565b50505050905001848103825285818151815260200191508051906020019060200280838360005b838110156101cb5781810151838201526020016101b3565b50505050905001965050505050505060405180910390f35b3480156101ef57600080fd5b506101fb600435610579565b60408051948552600160a060020a039093166020850152838301919091526060830152519081900360800190f35b34801561023557600080fd5b506102446004356024356105aa565b604080519115158252519081900360200190f35b34801561026457600080fd5b5061027c600160a060020a0360043516602435610622565b60408051918252519081900360200190f35b34801561029a57600080fd5b5061027c610860565b3480156102af57600080fd5b506102b8610866565b60408051600160a060020a039092168252519081900360200190f35b3480156102e057600080fd5b50610244600160a060020a0360043516610875565b34801561030157600080fd5b5061027c61091c565b34801561031657600080fd5b50610244600435610922565b34801561032e57600080fd5b5061027c610937565b34801561034357600080fd5b5061027c600435600160a060020a036024351660443561093d565b34801561036a57600080fd5b50610376600435610a48565b60408051600160a060020a039094168452602084019290925282820152519081900360600190f35b3480156103aa57600080fd5b5061027c610a74565b3480156103bf57600080fd5b506102b8610a7a565b3480156103d457600080fd5b506103e9600160a060020a0360043516610a89565b005b3480156103f757600080fd5b506103e9600160a060020a0360043516610acf565b60608080808080600088881161042157600080fd5b888803600101604051908082528060200260200182016040528015610450578160200160208202803883390190505b509350888803600101604051908082528060200260200182016040528015610482578160200160208202803883390190505b5092508888036001016040519080825280602002602001820160405280156104b4578160200160208202803883390190505b5091508890505b87811161056a576000818152600460205260409020600101548451600160a060020a039091169085908b84039081106104f057fe5b600160a060020a039092166020928302909101820152600082815260049091526040902060020154835184908b840390811061052857fe5b6020908102909101810191909152600082815260049091526040902060030154825183908b840390811061055857fe5b602090810290910101526001016104bb565b50919790965090945092505050565b60046020526000908152604090208054600182015460028301546003909301549192600160a060020a039091169184565b600082815260046020526040812060010154600160a060020a031633146105d057600080fd5b60008381526004602090815260409182902060020184905581518481529151339286927f5374815fec386c3b70fb737290da1dba4135c0cdce070f3fd49de71a7fb2f94e92918290030190a392915050565b60008061062d610b63565b600154604080517f0d2020dd0000000000000000000000000000000000000000000000000000000081527f4174746573746174696f6e4167656e637952656769737472790000000000000060048201529051600160a060020a0390921691630d2020dd916024808201926020929091908290030181600087803b1580156106b357600080fd5b505af11580156106c7573d6000803e3d6000fd5b505050506040513d60208110156106dd57600080fd5b5051604080517fc3c5a5470000000000000000000000000000000000000000000000000000000081523360048201529051919350600160a060020a0384169163c3c5a547916024808201926020929091908290030181600087803b15801561074457600080fd5b505af1158015610758573d6000803e3d6000fd5b505050506040513d602081101561076e57600080fd5b5051151580610781575061078133610875565b151561078c57600080fd5b60038054808352600160a060020a03878116602080860182815260408088018b81524260608a019081526000978852600485528288208a51815593516001808601805473ffffffffffffffffffffffffffffffffffffffff19169290991691909117909755905160028401555191870191909155855485526005825293849020805460ff191690931790925592548251888152925190927f550489acffb5941e791edb5f6d0f95860dfdf828d873d6eeddf4d6027f7c1f7192908290030190a3505060038054600181019091559392505050565b60035481565b600154600160a060020a031681565b600154600254604080517f60d6c7cf0000000000000000000000000000000000000000000000000000000081526004810192909252600160a060020a038481166024840152905160009391909116916360d6c7cf91604480830192602092919082900301818787803b1580156108ea57600080fd5b505af11580156108fe573d6000803e3d6000fd5b505050506040513d602081101561091457600080fd5b505192915050565b61040081565b60009081526005602052604090205460ff1690565b60025481565b6000610947610b63565b61095033610875565b151561095b57600080fd5b600085815260046020526040902054158015610978575061040085105b151561098357600080fd5b848152600160a060020a0384811660208084018281526040808601888152426060880190815260008c8152600486528381208951815594516001808701805473ffffffffffffffffffffffffffffffffffffffff191692909a169190911790985591516002850155516003909301929092556005835290819020805460ff191690941790935582518681529251919288927f550489acffb5941e791edb5f6d0f95860dfdf828d873d6eeddf4d6027f7c1f71929181900390910190a350929392505050565b600090815260046020526040902060018101546002820154600390920154600160a060020a0390911692565b60035490565b600054600160a060020a031681565b600054600160a060020a03163314610aa057600080fd5b6001805473ffffffffffffffffffffffffffffffffffffffff1916600160a060020a0392909216919091179055565b600054600160a060020a03163314610ae657600080fd5b600160a060020a0381161515610afb57600080fd5b60008054604051600160a060020a03808516939216917f8be0079c531659141344cd1fd0a4f28419497f9722a3daafe3b4186f6b6457e091a36000805473ffffffffffffffffffffffffffffffffffffffff1916600160a060020a0392909216919091179055565b604080516080810182526000808252602082018190529181018290526060810191909152905600a165627a7a72305820385a8583b305daae94ec5362e23ef136878062941f27ee7a456ec4a6af73e5010029",
  "source": "pragma solidity ^0.4.24;\n\nimport \"../RegistryUser.sol\";\nimport \"../interface/IAttestationAgencyRegistry.sol\";\n\n/// @title TopicRegistry\n/// @author genie\n/// @notice Topic Registry.\n/// @dev  Topics can be registered when create achievement or the permissioned.\ncontract TopicRegistry is RegistryUser {\n    \n    struct Topic {\n        uint256 id;\n        address issuer;\n        bytes32 explanation;\n        uint256 createdAt;\n    }\n\n    uint256 public total;\n    uint256 public constant RESERVED_TOPICS = 1024;\n    \n    mapping(uint256 => Topic) public topics;\n    mapping(uint256 => bool) isTopicRegistered;\n\n    event RegisterTopic(uint256 indexed id, address indexed issuer, bytes32 explanation);\n    event UpdateTopic(uint256 indexed id, address indexed issuer, bytes32 explanation);\n\n    constructor() public {\n\n        total = RESERVED_TOPICS + 1;\n\n    }\n\n    /**\n     * @dev Register new topic by system. this topic numbers should be 0~1024.\n     * @param _id basic managementKey to use\n     * @param _issuer creator of this topic\n     * @param _explanation explanation\n     * @return A boolean that indicates if the operation was successful.\n     */\n    function registerTopicBySystem(uint256 _id, address _issuer, bytes32 _explanation) permissioned public returns (uint256) {\n\n        // check topic doesn't exist\n        require(topics[_id].id == 0 && _id < RESERVED_TOPICS);\n\n        Topic memory t;\n        t.id = _id;\n        t.issuer = _issuer;\n        t.explanation = _explanation;\n        t.createdAt = now;\n        topics[_id] = t;\n\n        isTopicRegistered[_id] = true;\n\n        emit RegisterTopic(_id, _issuer, _explanation);\n        \n        return _id;\n    }  \n\n    /**\n     * @dev Register topic by general user(usually aa). this topic numbers are incrementally set.\n     * @param _issuer creator of this topic\n     * @param _explanation explanation\n     * @return A boolean that indicates if the operation was successful.\n     */\n    function registerTopic(address _issuer, bytes32 _explanation) public returns (uint256) {\n        IAttestationAgencyRegistry ar = IAttestationAgencyRegistry(REG.getContractAddress(\"AttestationAgencyRegistry\"));\n        require(ar.isRegistered(msg.sender) != 0 || isPermitted(msg.sender)); //Only Attestation Agency or permissioned can register topic\n\n        Topic memory t;\n        t.id = total;\n        t.issuer = _issuer;\n        t.explanation = _explanation;\n        t.createdAt = now;\n        topics[total] = t;\n        \n        isTopicRegistered[total] = true;\n\n        emit RegisterTopic(total, _issuer, _explanation);\n\n        total++;\n\n        return total-1; // return new topic id\n    }    \n    \n    /**\n     * @dev Update topic by creator.\n     * @param _id topic to update\n     * @param _explanation explanation\n     * @return A boolean that indicates if the operation was successful.\n     */\n    function updateTopic(uint256 _id, bytes32 _explanation) public returns (bool) {\n        \n        require(topics[_id].issuer == msg.sender);\n\n        topics[_id].explanation = _explanation;\n\n        emit UpdateTopic(_id, msg.sender , _explanation);\n\n    }\n\n    function isRegistered(uint256 _id) view public returns (bool) {\n        return isTopicRegistered[_id];\n    }\n\n    function getTotal() view public returns (uint256) {\n        return total;\n    }\n    \n    function getTopic(uint256 _id) view public returns(address, bytes32, uint256){\n        return (topics[_id].issuer, topics[_id].explanation, topics[_id].createdAt);\n    }\n\n    /**\n     * @dev Batch Read functino for topic\n     * @param _from from\n     * @param _to to\n     * @return A boolean that indicates if the operation was successful.\n     */\n    function getTopicFromTo(uint256 _from, uint256 _to) view public returns(address[], bytes32[], uint256[]){\n        require(_to>_from);\n        address[] memory saddrs = new address[](_to-_from+1);\n        bytes32[] memory sexplans = new bytes32[](_to-_from+1);\n        uint256[] memory screateds = new uint256[](_to-_from+1);\n\n        for(uint256 i=_from;i<=_to;i++){\n            saddrs[i-_from] = topics[i].issuer;\n            sexplans[i-_from] = topics[i].explanation;\n            screateds[i-_from] = topics[i].createdAt;\n        }\n\n        return (saddrs, sexplans, screateds);\n    }\n\n}\n",
  "sourcePath": "/Users/coinplug/BangGijin/metabolics2.0/contracts/registry/TopicRegistry.sol",
  "compiler": {
    "name": "solc",
    "version": "0.4.24+commit.e67f0147.Emscripten.clang"
  },
  "schemaVersion": "2.0.1",
  "updatedAt": "2018-10-23T06:11:09.413Z"
}